:100000000C94E5050C942C060C942C060C94D22A26
:100010000C942C060C942C060C942C060C942C0698
:100020000C942C060C942C060C9410320C94E43294
:100030000C94642D0C942C060C942C060C942C0619
:100040000C942C060C942C060C942C060C942C0668
:100050000C942C060C94D72D0C942C060C942C0686
:100060000C942C060C942C060C942C060C942C0648
:100070000C942C060C942C060C942C060C942C0638
:100080000C942C060C942C060C942C060C942C0628
:100090000C942C060C942C060C942C060C942C0618
:1000A0000C942C060C942C060C942C06202020205A
:1000B00020200A005343524C434B0A0020202020AA
:1000C000202020004341504C434B20002020202082
:1000D000202020004E554D4C434B2000556E64654A
:1000E00066696E65640041444A5553540A004C4F9A
:1000F0005745520A0052414953450A00444546417A
:10010000554C540A004C617965723A200080818216
:10011000838485868788898A8B8C8D8E8F90919237
:100120009394A0A1A2A3A4A5A6A7A8A9AAABACAD8D
:10013000AEAFB0B1B2B3B4C0C1C2C3C4C5C6C7C804
:10014000C9CACBCCCDCECFD0D1D2D3D4001F0020C2
:10015000002100220001001A00080015001700010C
:10016000001600070009000A0001001B0006001924
:100170000005000100E2008B002C002C0002511E43
:1001800000350000000000000014002B00000000FB
:10019000000000040039000000000000001D00E124
:1001A00000000000000000E300E00000000000008C
:1001B0000027002600250024002300130012000C55
:1001C0000018001C0033000F000E000D000B00385B
:1001D000003700360010001100650088008A002CEE
:1001E0000001512D002E008900000000002F00307A
:1001F000002A000000000034003200280000000047
:100200000087005200E50000000000500051004F40
:100210000000000000010001000100010001001FBA
:100220000020002100220001000100010001000166
:1002300000010001000100010001000100010001B6
:1002400000010001000100010001000000000000A9
:10025000001E00010000000000000001000100007D
:10026000000000000001000100000000000000018B
:100270000001000000000000000100010001000179
:1002800000010027002600250024002300010001B2
:100290000001000100010001000100010001000156
:1002A0000001000100010001000100010001000146
:1002B000000000000001000100010000000000013A
:1002C0000001000100000000000100010001000029
:1002D0000000000100010001000000000001000119
:1002E0000001000100C35C0100010001000100CA1F
:1002F0005C0100010001000100C65C010001000179
:10030000000100C85C0100010001000100010001C2
:1003100000010000000000000001000100000000DA
:1003200000000001000100000000000000010001C9
:1003300000000000000000010001000000000000BB
:1003400000010001000100010001000100010001A5
:100350000001000100010001000100010001000195
:100360000001000100010001000100010001000185
:100370000001000100010001000000000001000177
:100380000001000000000001000100010000000069
:100390000001000100010000000000010001000157
:1003A0000000000000010001000100010001000147
:1003B0000001000100010001000100010001000135
:1003C0000001000100010001000100010001000125
:1003D0000001000100010001000100000000000018
:1003E0000001000100000000000000010001000009
:1003F00000000000000100010000000000000001FA
:1004000000010000000000000001000100010001E7
:1004100000010001000100010001000100010001D4
:1004200000010001000100010001000100010001C4
:1004300000010001000100010001000100010001B4
:1004400000000000000100010001000000000001A8
:100450000001000100000000000100010001000097
:100460000000000100010001000000000000010187
:100470000101010101010102020202020202020263
:100480000303030303030303040404040404040533
:1004900005050505060606060607070707070808F7
:1004A0000808090909090A0A0A0B0B0B0C0C0C0DA8
:1004B0000D0D0E0E0E0F0F0F101011111112121341
:1004C000131414151516161717181819191A1A1BBC
:1004D0001B1C1D1D1E1E1F2020212222232424251B
:1004E0002626272829292A2B2C2D2D2E2F30313254
:1004F00032333435363738393A3B3C3D3E3F404164
:1005000042434445464748494A4C4D4E4F5051534B
:1005100054555658595A5B5D5E5F61626465666802
:10052000696B6C6D6F7072737577787A7B7D7E8086
:1005300082838587888A8C8E8F91939596989A9CD2
:100540009EA0A2A3A5A7A9ABADAFB1B3B5B7BABCE6
:10055000BEC0C2C4C6C9CBCDCFD1D4D6D8DBDDDFB7
:10056000E2E4E7E9EBEEF0F3F5F8FAFDFF00AE00A8
:10057000AF00DA0281FFD9F1DB20A4A62EAF00A0E4
:10058000C000A1C800AED580A81FD300408D1420A4
:10059000000000000000003E5B4F5B3E003E6B4FE2
:1005A0006B3E001C3E7C3E1C00183C7E3C18001C30
:1005B000577D571C001C5E7F5E1C0000183C180015
:1005C00000FFE7C3E7FF00001824180000FFE7DB87
:1005D000E7FF0030483A060E002629792926004018
:1005E0007F05050700407F05253F005A3CE73C5A40
:1005F000007F3E1C1C0800081C1C3E7F0014227F4C
:100600002214005F5F005F5F0006097F017F00002A
:100610006689956A0060606060600094A2FFA294A1
:100620000008047E04080010207E20100008082A1C
:100630001C0800081C2A0808001E10101010000CCE
:100640001E0C1E0C0030383E383000060E3E0E06E2
:100650000000000000000000005F00000000070034
:10066000070000147F147F1400242A7F2A1200231D
:100670001308646200364956205000000807030042
:1006800000001C224100000041221C00002A1C7FA7
:100690001C2A0008083E080800008070300000088E
:1006A000080808080000006060000020100804022C
:1006B000003E5149453E0000427F400000724949DA
:1006C0004946002141494D33001814127F1000277C
:1006D00045454539003C4A49493100412111090746
:1006E00000364949493600464949291E0000001490
:1006F00000000000403400000000081422410014F3
:1007000014141414000041221408000201590906AF
:10071000003E415D594E007C1211127C007F494918
:100720004936003E41414122007F4141413E007F28
:1007300049494941007F09090901003E414151737E
:10074000007F0808087F0000417F410000204041F1
:100750003F01007F08142241007F40404040007F5D
:10076000021C027F007F0408107F003E4141413E91
:10077000007F09090906003E4151215E007F0919E9
:1007800029460026494949320003017F0103003F01
:100790004040403F001F2040201F003F4038403F66
:1007A00000631408146300030478040300615949CA
:1007B0004D4300007F414141000204081020000029
:1007C0004141417F0004020102040040404040409A
:1007D000000003070800002054547840007F28449C
:1007E000443800384444442800384444287F0038C2
:1007F000545454180000087E09020018A4A49C78E0
:10080000007F080404780000447D40000020404040
:100810003D00007F102844000000417F4000007C24
:1008200004780478007C0804047800384444443890
:1008300000FC182424180018242418FC007C080448
:1008400004080048545454240004043F4424003C49
:100850004040207C001C2040201C003C4030403C9C
:10086000004428102844004C9090907C004464542C
:100870004C440000083641000000007700000000F2
:1008800041360800000201020402003C2623263CF7
:1008900000000000000000404040F0F8F8FF38FF82
:1008A000F8F83FF8F8FF38FFF8F8F0404040000053
:1008B0000000000080C0C0C0800000C0C0800000F8
:1008C0000080C0C000C0C0000080C0C000000000A8
:1008D00000C0C0C0C0C000C0C000000000000000D8
:1008E0000000000000000000000000000000000008
:1008F00000000000000000000000000000000000F8
:1009000000000000000000000000000000000000E7
:10091000C0F0F8FC3E1E06010000007F4141417F0F
:10092000007F4141417F000080C0E07E5B4F5BFE65
:10093000C00000C000DCD7DEDEDED7DC00C0000077
:1009400000000000000000000000000000000000A7
:1009500000000000000000494949FFFFFFFFE0DF01
:10096000BFBF00BFBFDFE0FFFFFFFF4949490000F5
:100970000000001F3F6060E0BF1F007F7F071E3840
:100980001E077F7F007F7F0E1F3B7160000000000D
:10099000007F7F0C0C0C007E7E007F7E0303007FB7
:1009A0007E03037E7E03037F7E000F3E703C063C89
:1009B000703E0F00327B49493F7E007F7E0303007B
:1009C0001E3F69696F260000000000000000000063
:1009D000030F1F3F3C7870600000007F4141417F62
:1009E000007F4141417F00307B7F7830202030788C
:1009F0007F3B0003000F7F0F0F0F7F0F00030000EE
:100A000000000000000000000000000000000000E6
:100A100000000000000000010101070F0F7F0F7FA1
:100A20000F0F7E0F0F7F0F7F0F0F070101010000D7
:100A300000000000000000000101000000000000B4
:100A400000000000000000000000000000000000A6
:100A50000000000000000000000000000000000096
:100A60000000000000000000000000000000000086
:100A70000000000000000000000000000000000076
:100A80000000000000000000000000000000000066
:100A90000000000000000000000000000000000056
:100AA0000000000000000000000000000000000046
:100AB0000000000000000000000000000000000036
:100AC0000000000000000000000000000000000026
:100AD000001403680061006C00660063006C00692C
:100AE0000066006600000006036E0032000000048D
:100AF00003090409023B00020100A0FA09040000F6
:100B00000103010100092111010001224000070534
:100B1000810308000A090401000103000000092103
:100B2000110100012249000705820320000A120179
:100B3000000200000008350321000100010200014D
:100B400005010902A10185020901A1000509190198
:100B50002908150025019508750181020501093054
:100B600009311581257F950275088106093815819F
:100B7000257F950175088106050C0A380215812527
:100B80007F950175088106C0C005010906A1010510
:100B90000719E029E71500250195087501810295DF
:100BA00001750881010507190029FF150026FF00BE
:100BB0009506750881000508190129059505750137
:100BC0009102950175039101C00011241FBECFEF62
:100BD000DAE0DEBFCDBF04B603FE27C080918605F4
:100BE00090918705A0918805B09189058730904B39
:100BF000A740B04BD1F41092860510928705109251
:100C000088051092890514BE84B7877F84BF0FB60C
:100C1000F894A8958091600088618093600010929C
:100C200060000FBEE0E0F8E3099511E0A0E0B1E05C
:100C3000EEEDFAE602C005900D92AA39B107D9F798
:100C400025E0AAE9B1E001C01D92A638B207E1F79C
:100C50000E94481C0C9449350C940000F894E82F2D
:100C6000E295EF70F0E031A1282F2F7081E090E045
:100C700001C0880F2A95EAF7382B31A392A18095FD
:100C8000892382A378940895F894E82FE295EF7071
:100C9000F0E031A1282F2F7081E090E001C0880F93
:100CA0002A95EAF7982F9095932391A392A1892BE7
:100CB00082A37894089508950C945B0608950C948B
:100CC0005E060895E82FF0E0EF54FE4F808108950E
:100CD00008950F931F93CF93DF930E948C198091F7
:100CE0000601809106019AE0811190E0909336030D
:100CF0008AE0891B80933503C9E6D1E08E01F801B3
:100D000081918F010E944406F1E003371F07B9F774
:100D100084E30E94440686EC0E94440686E60E9414
:100D2000440686E30E94440682E30E94440684E36C
:100D30000E94440686EC0E94440686E60E94440611
:100D400086E30E94440682E30E94440689910E9441
:100D5000440681E0C337D807C9F7E5ECF1E0A1EB21
:100D6000B1E011921D9281E0E93DF807D1F78AE0E8
:100D70000E943B190E94B00ADF91CF911F910F9101
:100D80000C94A119FF920F931F93CF93DF93CDB7CC
:100D9000DEB72A970FB6F894DEBF0FBECDBF0E9414
:100DA0007219F82E60913603882309F451C08E0120
:100DB0000F5F1F4F8AE0F80111928A95E9F7862F9D
:100DC00090E0B8018F549E4F0E94041A811123C0F5
:100DD0008091B0018F5F8093B0018630B8F1E091CF
:100DE0003503F0E0EF54FE4FD801CE010B9611927F
:100DF0001D92A817B907D9F70E94B60A8F2D2A9617
:100E00000FB6F894DEBF0FBECDBFDF91CF911F911B
:100E10000F91FF9008951092B001A0913503B0E0BA
:100E2000AF54BE4F9E01255F3F4FF12C4D91F8010D
:100E300091918F01491731F0AD0141505109FA01EB
:100E40009083F82E0217130789F7D6CFF12CD4CF51
:100E500070E06F547E4F8091350390E08F549E4F29
:100E60000E94061A0E946106C9CF6F927F929F92DC
:100E7000AF92BF92CF92DF92EF92FF920F931F93A8
:100E8000CF93DF9305EC11E049E6C42E41E0D42E68
:100E9000C0E0D1E0D601AD906D018A2D0E942E06F2
:100EA000B0EABA95F1F734E6E32E31E0F32EF7011C
:100EB00030E020E0B12C4191A42FA295AF70B0E0BA
:100EC00090968C9190E04F7002C0959587954A95C9
:100ED000E2F780FD94C08D2F022E01C0880F0A9486
:100EE000EAF7B82A2F5F3F4F2530310521F78A2DC9
:100EF0000E944406E0EAEA95F1F7D8018C91B81611
:100F000009F47FC0BC9281E0C82B0F5F1F4FBEE683
:100F1000CB16B1E0DB0609F0BDCF10E000E0AA245B
:100F2000A394B12C26EAC22E21E0D22EF701919093
:100F30007F01892D0E942E06F0EAFA95F1F7C5018E
:100F4000002E01C0880F0A94EAF7782F682F609569
:100F5000ECE9F1E089E6682E81E0782ED0E031916D
:100F6000D3012D913D01422F42954F7050E0DA019F
:100F700090968C9190E02F7002C0959587952A9558
:100F8000E2F780FD40C0872F832B381731F09F0197
:100F900021503109D9018C93D1E0CE16DF06F9F644
:100FA000892D0E944406043019F0B0EABA95F1F791
:100FB000CD2B61F50F5F1F4F0530110509F0B6CF3E
:100FC0006091360370E06F547E4F2C2F4AE085EC21
:100FD00091E00E943C190E94C206C11101C0C82FB5
:100FE0008C2FDF91CF911F910F91FF90EF90DF90A9
:100FF000CF90BF90AF909F907F906F90089580E0CA
:1010000070CF80E081CF862F8323BFCF8091A10155
:101010008093CA018091A2018093CB018091A301AA
:101020008093CC018091A4018093CD018091A50192
:101030008093CE01BFCFCF93DF93FA016230710569
:1010400019F42230310539F08FEF818381E090E08F
:10105000DF91CF9108951B9B33C02B9A239A47E0D1
:1010600050E02998EC01288130E0042E02C035952B
:1010700027950A94E2F720FF25C02B9A299A415020
:10108000510978F72AE12A95F1F700C023982B9AA5
:10109000118287E090E02998299A23B123FBAA279F
:1010A000A0F9B0E0AD01082E01C0440F0A94EAF7A0
:1010B0002181242B2183019770F790E080E0C8CF35
:1010C0002B98CCCF2B98DACF0F93CF93DF9300D010
:1010D00000D0CDB7DEB71B828FEF8C8389838A83E4
:1010E000E0910001F09101010FEF22E030E0AE014C
:1010F0004F5F5F4F62E070E0CE01039609958A81F1
:101100000F900F900F900F90DF91CF910F91089556
:10111000219A23982B9A0895AF92BF92CF92DF9293
:10112000EF92FF920F931F93CF93DF9300D000D0E5
:10113000CDB7DEB75C016B017A0182E08B831FEFD4
:101140001C8319831A83E0910001F09101010FEFD4
:1011500022E030E0AE014F5F5F4F62E070E0CE0111
:10116000039609958A81F501808383E08B831C8334
:1011700019831A83E0910001F091010122E030E02F
:10118000AE014F5F5F4F62E070E0CE0103960995BC
:101190008A81F601808384E08B831C8319831A8300
:1011A000E0910001F091010122E030E0AE014F5FDB
:1011B0005F4F62E070E0CE01039609958A81F701E6
:1011C000808381E090E00F900F900F900F90DF915F
:1011D000CF911F910F91FF90EF90DF90CF90BF9034
:1011E000AF900895CF93C82F0E947219811101C04A
:1011F000C2E08C2FCF910895CF930E94222688239E
:1012000049F00E94721960E0811107C08DE091E001
:101210000E94D42480E0CF91089585E091E00E945F
:10122000D424609121027091220280912302909136
:1012300024020E94340B813071F1882351F08230F6
:1012400071F1833081F160E08CED90E00E94E62442
:1012500005C060E08CEF90E00E94D4240E94692CCD
:10126000C82F8CEC90E0C0FF02C084ED90E060E0FD
:101270000E94D4248CEB90E0C1FF02C084EC90E08B
:1012800060E00E94D4248CEA90E0C2FF02C084EBAC
:1012900090E060E0BDCF60E085EF90E0DDCF60E002
:1012A0008EEE90E0D9CF60E086EE90E0D5CF1F9330
:1012B000CF93DF93182FD62F0E948827C82F88231B
:1012C00041F0123030F4DD2349F089EF0E94E30C45
:1012D000CD2F8C2FDF91CF911F9108958AEF0E941F
:1012E000E30CF7CFFB01893F910509F43FC038F4C7
:1012F000815F91098530910598F081E055C08B3F61
:10130000910509F452C008F443C08C3F9105A9F738
:101310008281882309F457C081E080933C032CC06C
:1013200040913E0321E030E0B90102C0660F771F13
:101330008A95E2F7CB0122812223A9F0842B8093A6
:101340003E0340913D0350913E0360913F037091F5
:10135000400380914103909142030E94701F0E94BC
:10136000151F80E0089580958423E9CF828188232A
:1013700031F081E080933B038093DC01F2CF9091C8
:101380003B0319168CF410923B031092DC01E9CF59
:101390008281882329F08FEF80933B0381E0ECCF9B
:1013A00090913B0397FDEFCF08958281882321F030
:1013B0008FEF80933C03F2CF90913C0397FFF4CFE3
:1013C00010923C03E2CF90913C031916CCF30895A0
:1013D0000C948808CF93DF9300D00F92CDB7DEB77F
:1013E0008091DC01882329F18091DD019091DE015B
:1013F00001969093DE018093DD010A97D1F48091EC
:101400003B038093410390913C03909342034091AE
:101410003D0350913E0360913F03709140030E9451
:10142000701F10924103109242031092DE0110923D
:10143000DD018091DA019091DB019C012F5F3F4F2C
:101440003093DB012093DA0162E370E00E94C8343C
:10145000892B89F50E946408803319F581E0809317
:10146000D901AE014F5F5F4FBE016E5F7F4FCE016E
:1014700003960E948C086A81619560933F0379818D
:101480007195709340038B8187FF0DC040913D03A0
:1014900050913E0380914103909142030E94701F3E
:1014A00002C01092D9010E94151F0F900F900F904B
:1014B000DF91CF9108958091D9018823A1F3D1CFF5
:1014C00081E008950C94720908950C94640A1F93A6
:1014D000CF93DF9300D000D00F92CDB7DEB7498312
:1014E0005A836B833091DF0189819A8131111DC04C
:1014F0006623B9F02223A9F00E941E11182F682F2D
:1015000089819A810E94C71069817A81812F0F9009
:101510000F900F900F900F90DF91CF911F910C942F
:10152000E1170E94F510182FEFCF0E941E1169815C
:101530007A81EDCFFC01262F408151816281738138
:1015400084810C94670A81E00895CF93DF93EC01C6
:1015500060E00E949A0ABE01DF91CF910C94650A67
:101560000E9417190E94880B0C945C060C945F066D
:1015700080E00E94890B0E94FB200E9407260C94A9
:10158000EA09089508950E94700F0E94C20A2FEF81
:1015900084E39CE0215080409040E1F700C00000CF
:1015A0000C94FB2D0F931F93CF93DF938C0161E07D
:1015B0000E949A0AEC01B8010E94620A8823D9F1BC
:1015C000B801CE010E94D1288823A9F1B801CE012B
:1015D0000E945E26882379F1B801CE010E943B2843
:1015E000882349F1B801CE010E94A422882319F171
:1015F000F8018281882361F0CB35FDE5DF0721F119
:1016000070F4C115ECE5DE07A1F0CF3DDC45C9F073
:10161000C801DF91CF911F910F910C94600ACC35D6
:101620008DE5D807A1F0CD35DD4591F70E9446152F
:10163000EFCF0E94C30A80E0DF91CF911F910F91FD
:1016400008950E94FA15F7CF0E944F15E1CF0E942E
:101650005215DECF0C94C10A0E94562C0E94890BB1
:101660000E945A220C942A0BCF92DF92EF92FF92A3
:101670006C01EE24FF2420E0C114D104E104F10444
:1016800019F0C701B60120E1C72ED82EE92EFF249C
:10169000C114D104E104F10419F0285FC701B601B7
:1016A0006B017C0154E0F694E794D794C7945A9563
:1016B000D1F7C114D104E104F10419F02C5FC70182
:1016C000B6016B017C0142E0F694E794D794C7948D
:1016D0004A95D1F7C114D104E104F10419F02E5F49
:1016E000C701B6019695879577956795672B682B07
:1016F000692B09F02F5F822FFF90EF90DF90CF9042
:10170000089508950C94810B81E008950C94840B46
:101710000895CF93C82F0E94820B8C2FCF910C94E9
:10172000860BCF93DF93CDB7DEB72B970FB6F89428
:10173000DEBF0FBECDBF4F83588769877A878B87FF
:1017400061110E94A1141E821D8285E0FE01379660
:10175000DE01119601900D928A95E1F78C819D81B1
:10176000892B89F449815A816B817C818D819E818D
:101770000E94C2132B960FB6F894DEBF0FBECDBFEA
:10178000DF91CF91089589819A8189238F3F51F309
:10179000CE0101960E94A30A8111E4CFEBCFFC0198
:1017A000808191810C9460110F931F93CF93DF93ED
:1017B00000D000D000D0CDB7DEB7082F162F0E9482
:1017C0004F1F29834B835C836D837E83002399F0B5
:1017D000312B4981532F6B817C818D819E8126968F
:1017E0000FB6F894DEBF0FBECDBFDF91CF911F9132
:1017F0000F910C94701F10953123EBCFCF93C82F0E
:10180000882309F471C08238C1F40E94562C81FDEE
:101810006BC089E30E945C140E94C4142FEF81EE18
:1018200094E0215080409040E1F700C0000089E33F
:101830000E946314CF910C94C4148338A1F40E94C5
:10184000562C80FD51C083E50E945C140E94C41494
:101850002FEF81EE94E0215080409040E1F700C0EE
:10186000000083E5E5CF8438A1F40E94562C82FD68
:101870003BC087E40E945C140E94C4142FEF81EEE9
:1018800094E0215080409040E1F700C0000087E4E0
:10189000CFCF8CEF8C0F813A90F46C2F80910401A4
:1018A000909105010E94C32C882329F08C2F0E945F
:1018B00063140E94C4148C2F0E945C14BBCF80E27E
:1018C0008C0F883048F4C77081E001C0880FCA953A
:1018D000EAF70E948414AECFCD3E30F08C2F0E94E8
:1018E000D81CCF910C94AB1DCF910895882309F497
:1018F00052C0823871F40E94562C81FF4CC089E39B
:101900000E945C140E94C41489E30E9463140C9426
:10191000C414833859F40E94562C80FF3CC083E5E0
:101920000E945C140E94C41483E5EFCF843859F4FC
:101930000E94562C82FF2FC087E40E945C140E94F4
:10194000C41487E4E2CF9CEF980F913AF0F290E252
:10195000980F983050F4877091E001C0990F8A95E4
:10196000EAF7892F0E948A14D2CF9BE5980F933013
:1019700020F490E080E00C94852C98E5980F973146
:1019800020F490E080E00C949B2C8D3E20F00E948F
:10199000321D0C94AB1D08951F93CF93DF93182F26
:1019A000EB010E94FE0B209731F4812FDF91CF9144
:1019B0001F910C94760C8FE99FE00197F1F700C01E
:1019C00000002197F0CF70E060E0893311F460E50A
:1019D00070E00C94CC0C882321F00E9484140C94A9
:1019E000C4140895882321F00E948A140C94C4140E
:1019F0000895BF92CF92DF92EF92FF920F931F93C1
:101A0000CF93DF936C01D62FC72FFC011281F58095
:101A1000F2949FE0F9220E947A14E82E8823B9F00C
:101A2000E12E1123A1F08C2F807F803421F080E201
:101A30008D0F8830D0F08091480382FD16C082E07F
:101A40000E9415150E947A1491E0E82EE926BC2E1A
:101A5000B2948FE0B822FBE0FB1508F468C0EB2DD0
:101A6000F0E0E55BFA4C0C94DC34E12CF0CF0C2F69
:101A70000F70C07F11F00295007F112399F00023B1
:101A800059F080E28D0F883010F0D11107C0802FFF
:101A90000E9484140E94C4148D2F41C0802F0E9484
:101AA0009414F8CF8D2F0E94760C002309F43FC0C8
:101AB00080E28D0F883010F0D11104C0802F0E9479
:101AC0008A1403C0802F0E949A140E94C4142FC04D
:101AD0000C2F0F70C07FC03211F00295007FDD2304
:101AE00081F0D13009F46AC0112309F474C0FF20D9
:101AF00009F46AC0F601858180FFCECF8F7085839F
:101B000063C08091480382FF39C0112359F000233C
:101B100029F0802F0E9484140E94C41480E00E9447
:101B2000FE0B05C080E00E94760C0111C7CF2B2D63
:101B30002850330B2430310520F40E94562C0E948B
:101B4000890BEE2009F471C10E94761480FD6DC1ED
:101B5000F60112820E9470140E942B10C6010E948E
:101B6000360F0E947014DF91CF911F910F91FF905B
:101B7000EF90DF90CF90BF900C944C10112389F020
:101B8000F11006C00E94A714802B0E94EB0CCFCF4F
:101B900021E0F212F7CF0E94A714802B0E94AD140F
:101BA000C6CFF11006C00E94BA14802F0E94F20C1A
:101BB000BECF31E0F31609F4BACFF5CF112331F0DF
:101BC00085E08F1508F4B3CF802FDFCF94E09F1509
:101BD00008F4ADCFEACFFF2041F3D93349F4FFEF4A
:101BE00027EE33E0F15020403040E1F700C0000024
:101BF0008D2F0E94760C9BCF8D2F112391F00E9488
:101C0000D81CED2FE15FFF0BE830F10568F461E0CF
:101C100070E001C0660FEA95EAF7812F0E94D40BAD
:101C200086CF0E94321DEDCF0E94AB1D80CF8C2F3E
:101C3000837009F041C011117ACF4D2F429546951E
:101C40004770440F440F0D2F0F7010E030E020E07C
:101C5000042E04C0000F111F221F331F0A94D2F755
:101C600060E070E0CB01D4FF0FC06FE070E080E077
:101C700090E004C0660F771F881F991F4A95D2F71E
:101C80006095709580959095C695C695C370602BAC
:101C9000712B822B932BC23049F058F4C13019F0CC
:101CA0000E94DD0F44CF0E94CB0F41CF0E94EF0F67
:101CB0003ECF0E94C90F3BCF8695112311F08C2F88
:101CC0008170882309F433CF4D2F42954695477094
:101CD000440F440F0D2F0F7010E030E020E0042E71
:101CE00004C0000F111F221F331F0A94D2F760E0B7
:101CF00070E0CB01D4FF0FC06FE070E080E090E0B7
:101D000004C0660F771F881F991F4A95D2F7609508
:101D1000709580959095C695C695C370602B712B74
:101D2000822B932BC23049F058F4C13019F00E9435
:101D3000A210FDCE0E949010FACE0E94B410F7CEF1
:101D40000E940510F4CECF70112329F08C2F0E9431
:101D50002B108D2F1ACF8D2F0E94F20C8C2F0E94EA
:101D60004C10E5CED23F51F160F4D03FB9F0D13FF5
:101D700081F0112309F449C0F1108ECE8C2F8F71A0
:101D800021C0D33F11F1D43FA1F78091480382FFD6
:101D900026C08C2F8F71112311F314C0112349F029
:101DA000F4E0FF1508F4C3CE8C2F8F710E946F10E2
:101DB000BECE25E02F1508F4BACEF6CF8C2F8F714A
:101DC0001111CDCF0E942B10B2CE112329F08C2FF0
:101DD0008F710E941610ABCE0E941110A8CE112355
:101DE00049F0CF718C2F0E942B1063E08C2F0E9442
:101DF000FA149DCE81E00E94151531E03F1508F0E0
:101E000096CE82E00E94151592CEFF2059F0D9336C
:101E100009F0EECE8FEF97EEE3E081509040E04086
:101E2000E1F7E4CE8C2F8F719ACFDF91CF911F9184
:101E30000F91FF90EF90DF90CF90BF9008950F9398
:101E40001F93CF93DF93EC01688179818A810E948F
:101E50006A118C010E94C6100E94C80FB801CE0101
:101E6000DF91CF911F910F910C94F90CCF93DF93D9
:101E7000EC018B819C81892B29F0888199818923B0
:101E80008F3F59F4DF91CF910895CE010E941F0F2B
:101E9000CE01DF91CF910C94A50ACE010E94D20A07
:101EA0008111F3CF0E947A14882361F38A818823F9
:101EB00049F38091480382FDE5CF82E0DF91CF9125
:101EC0000C9415150E94A1140E94A4140E94C4141D
:101ED0000E94D21E0C94AB1D0E946A140C94620FD7
:101EE0000E9491140C946C0FE92FE295EF70E25070
:101EF000EE3070F4F0E0E95AFA4C0C94DC34803F98
:101F000019F020F4883E20F481E00895843FE1F345
:101F100080E00895883EC0F3813FD1F7F5CF93FB71
:101F2000882780F90895FC01808191810E946011C9
:101F30000C94740FCF93DF9300D000D00F92CDB7E5
:101F4000DEB70F900F900F900F900F90DF91CF9111
:101F50000895CF93DF9300D000D000D0CDB7DEB787
:101F600026960FB6F894DEBF0FBECDBFDF91CF919E
:101F7000089508950C94B90F0E94BA0F609325023A
:101F80007093260280932702909328020C94620F8C
:101F900008950C94BC0F0F931F930091250210918C
:101FA00026022091270230912802602B712B822B70
:101FB000932B1F910F910C94BC0F0F931F930091C3
:101FC00025021091260220912702309128026023D9
:101FD0007123822393231F910F910C94BC0F0F93B5
:101FE0001F93009125021091260220912702309123
:101FF000280260277127822793271F910F910C9445
:10200000BC0F0C94B90F0C9401100E940310609344
:1020100021027093220280932302909324020C9455
:10202000620F60E070E0CB010C9405100F931F93DA
:1020300041E050E060E070E08A019B0104C0000FC5
:10204000111F221F331F8A95D2F7C901B8011F91B2
:102050000F910C9405100F931F9341E050E060E046
:1020600070E004C0440F551F661F771F8A95D2F792
:102070008091210290912202A0912302B09124022A
:102080008A019B01082B192B2A2B3B2BC901B80174
:102090001F910F910C9405100F931F9341E050E096
:1020A00060E070E004C0440F551F661F771F8A95DB
:1020B000D2F7CB01BA01609570958095909500910B
:1020C00021021091220220912302309124026023E8
:1020D0007123822393231F910F910C9405100F936A
:1020E0001F9341E050E060E070E004C0440F551FD2
:1020F000661F771F8A95D2F7809121029091220264
:10210000A0912302B09124028A019B01082719277C
:102110002A273B27C901B8011F910F910C94051084
:102120000F931F930091210210912202209123020C
:1021300030912402602B712B822B932B1F910F91D6
:102140000C9405100F931F9300912102109122020D
:102150002091230230912402602371238223932350
:102160001F910F910C9405100F931F930091210262
:1021700010912202209123023091240260277127BE
:10218000822793271F910F910C9405100895E92F32
:10219000EE0FEE0F9E0F890F982F977041E001C050
:1021A000440F9A95EAF786958695869595E0899FDE
:1021B000F0011124E052FE4F30E020E070E0519138
:1021C000DF011197CB01022E02C0969587950A94E4
:1021D000E2F7817081958527842385278C932F5F73
:1021E0003F4F2530310559F70895E92FEE0FEE0FD7
:1021F0009E0F890F982F977086958695869525E076
:10220000829FF0011124E052FE4F50E040E080E058
:10221000219130E0092E02C0369527950A94E2F705
:1022200021703327042E01C0220F0A94EAF7822B73
:102230004F5F5F4F4530510559F70895BF92CF92D8
:10224000DF92EF92FF920F931F93CF93DF938C0156
:10225000C0902102D0902202E0902302F09024024C
:102260008091250290912602A0912702B091280228
:10227000C82AD92AEA2AFB2ACFE1D0E0BC2ED7010E
:10228000C6010C2E04C0B695A795979587950A941C
:10229000D2F780FD0EC0219788F7B12C8B2DDF91EE
:1022A000CF911F910F91FF90EF90DF90CF90BF9053
:1022B0000895B8018C2F0E94F517019761F3EECFB6
:1022C000CF93DF93EC010E941E11BE01DF91CF91ED
:1022D0000C94F5171F93CF93DF93EB019091DF01DF
:1022E000992331F0CB01DF91CF911F910C946011B4
:1022F000882379F0CB010E941E11182F682FCE0180
:102300000E94C710BE01812FDF91CF911F910C94C5
:10231000F517CB010E94F510182FF4CF1F93CF9320
:10232000DF93C091290216E080912A028C1304C029
:10233000DF91CF911F910895D0E01C9FF0011D9F68
:10234000F00D1124E55DFD4F408151816281738163
:10235000848195810E94A90F2196C770E5CF409195
:102360005B0250915C0260915D0270915E0280910F
:102370005F02909160020C94A90FFF920F931F933C
:10238000CF93DF9380916002807FD1F480915D02D2
:102390008823B1F08091290210912A0260915B029A
:1023A00070915C02A0915E02B0915F02062F07233C
:1023B000C0910201D091030196E0F92E181306C0D6
:1023C000DF91CF911F910F91FF90089590E01097AA
:1023D00011F00F3F19F401968770F0CFF89E90012D
:1023E000F99E300D1124F901E55DFD4F4181471340
:1023F000F2CF40814613EFCF42814111ECCF4381B0
:1024000054814A1B5B0B4C175D0728F780916002D3
:102410008F70806180936002F901E05DFD4F8081E3
:102420008F70806180838BE592E00E94360FDF9190
:10243000CF911F910F91FF900C948E11AF92BF928C
:10244000CF92DF92EF92FF920F931F93CF93DF9380
:10245000CDB7DEB761970FB6F894DEBF0FBECDBF24
:102460008C0185E0F801DE011D9601900D928A95A0
:10247000E1F7F801E2808BE5C82E82E0D82E60916A
:102480005E0270915F026115710509F45FC1909160
:102490005B0220915C02892F82238F3F09F456C191
:1024A00040815181A380B480F0905D02F501E61B6C
:1024B000F70BBF01E0910201F0910301FF2009F445
:1024C000F6C080916002382F307F6E177F0708F0CA
:1024D000AFC0311179C0FE2C251323C0941321C045
:1024E000E1101FC08F708061809360020E94AF1165
:1024F000C6010E94360F80916002F80185838F2DFE
:1025000061960FB6F894DEBF0FBECDBFDF91CF91BD
:102510001F910F91FF90EF90DF90CF90BF90AF9001
:102520000895AB2829F0842F85238F3F09F027C118
:1025300080E0F82FF170DF2E80FF3CC080912902EF
:1025400020912A0236E0821315C04D875E878D8563
:102550009E850E946011292F22952F702230F0F065
:10256000243018F59F70F1F0F8019581907FD1F437
:10257000D12C1EC090E0389FF001399FF00D11243E
:10258000E55DFD4F6181651306C06081641303C082
:1025900062816E110FC001968770D5CF9F7011F0C8
:1025A000882331F3805E883018F3C8010E94360F0B
:1025B000FD2CA5CFEE2009F4A2CF809160028160AE
:1025C00080936002F12C9BCF251306C0941304C0A6
:1025D000F801EE2009F487C0C8010E94930F8823F8
:1025E00019F1EE2009F180916002803270F02091A3
:1025F0005B0230915C0238872F831986BB86AA86DE
:102600008C87CE0107960E94360F86E0F801ABE575
:10261000B2E001900D928A95E1F70E94BD110E94EF
:10262000AF11FF24F3946BCFC8010E94360FF9CF8E
:10263000311113C07A2DB98AA88A6E2D89890E941A
:102640009A0F8BE592E00E94360F86E0F601119218
:102650008A95E9F70E94AF11B5CF25130FC09413E7
:102660000DC0E1100BC0F8018583C8010E94360F30
:1026700086E0F60111928A95E9F741CFC8010E94E0
:10268000930F882389F2EE2079F2809160028032E4
:1026900008F4BBCF20915B0230915C023A8329831E
:1026A0001B82BD82AC828E83CE010196ACCF6E17A9
:1026B0007F0708F03EC0FE2CEE2009F4B5CF2513AD
:1026C0002AC0941328C08091600280FD1BC0982FFF
:1026D000907FC1F0F8018583903F31F0982F907F73
:1026E000905F8F70892B8583C8010E94360F86E02A
:1026F000F801ABE5B2E001900D928A95E1F70E94F6
:10270000AF11FDCE86E0F801ABE5B2E001900D928D
:102710008A95E1F7F4CEC8010E94930F811175CF1D
:1027200080916002816080936002C8010E94360F30
:10273000E6CE7A2DB98AA88A6E2D89890E949A0FD1
:1027400086E0F60111928A95E9F7D9CFEE2009F4D7
:102750006BCFC8010E94930FF82E882309F464CF31
:1027600086E0F801ABE5B2E001900D928A95E1F7C1
:102770008BE592E00E94CF0B0E94BD11C0CF81E09B
:102780008E25D7CE1F93CF93DF93CDB7DEB72C978F
:102790000FB6F894DEBF0FBECDBF4F835887698751
:1027A0007A878B879C87CE0107960E941E1288230A
:1027B00069F08A859B85892B39F04F815885842F54
:1027C00085238F3F09F071C016E05FC086E0FE01EF
:1027D0003796DE01119601900D928A95E1F78A8570
:1027E0009B85892B89F38F81988589238F3F61F39E
:1027F00020912A0230E0C901019687709927409103
:1028000029024817190671F40E94700F10922A02CB
:102810001092290286E0EBE5F2E0DF011D928A9535
:10282000E9F7D2CF96E0929FD001939FB00D11248B
:10283000A55DBD4FFE01319601900D929A95E1F78D
:1028400080932A020E948E11BFCF819FC001112464
:10285000855D9D4F0E941E128823E9F0E0912902B8
:102860001E9FF0011124E55DFD4F40815181628181
:102870007381848195810E94A90F8091290290E043
:10288000019687709927809329028091290290915F
:102890002A028913DACF2C960FB6F894DEBF0FBE4A
:1028A000CDBFDF91CF911F91089569857A858B8582
:1028B0009C850E94A90F88CF682F80910401909178
:1028C00005010C94F92C682F809104019091050169
:1028D0000C94FB2C80910401909105010C94FD2C2B
:1028E0008091610285958595859508958091610215
:1028F0008770089590916102977081E009F480E0FB
:10290000089580916D02089590916D02892B8093B6
:102910006D020895809590916D02982390936D02B9
:10292000089510926D02089590916C02892B809306
:102930006C020895809590916C02982390936C029C
:10294000089510926C02089510926B020895809180
:102950006202089508950C94AA149091480392FD80
:1029600008C090916202981721F0809362020C9443
:10297000AB14089580916202882329F010926202BC
:1029800080E00C94AB140895E0910401F0910501EE
:1029900080916D028083E0910401F09105018081B6
:1029A00090916C02892B8083E0910401F0910501E4
:1029B000808190916B02892B808390916202992390
:1029C00081F0E0910401F09105018081892B8083E1
:1029D00080910401909105010E94B12C81110E9407
:1029E000BA1480910401909105010C946C2C089507
:1029F0000C94F7149091480392FD10C098E0899FC1
:102A000090011124622B609361020E942B1080912F
:102A100061028595859585950C94F8140C942B107E
:102A20001092610280E00C94F814909161028095FC
:102A3000892380936102282F277091F4282F082E74
:102A4000000C330B9217130659F09091480392FD36
:102A500007C08595859585950E944C100C9410159E
:102A600008959091480392FB222720F9281769F0D6
:102A700080FB92F99093480380914703909148031B
:102A80000E94761582E00C941515089580914803F4
:102A900082FB882780F991E089270C94311581E029
:102AA0000C94311580E00C94311590E080E00E9488
:102AB0000F3521E0893E9E4F09F020E0822F0895D6
:102AC00082E090E00C94013583E090E00C940135B5
:102AD000CF9384E090E00E940135C82F82E290E01D
:102AE0000E940135982F8C2FCF910895CF93C92F35
:102AF000682F84E090E00E9415356C2F82E290E010
:102B0000CF910C941535AB01BC018FE090E00C9493
:102B10002735AB01BC0183E190E00C94273560E0E0
:102B200070E0CB010C94891560E070E0CB010E944D
:102B300083150C948F1569EE7EEF90E080E00E9483
:102B4000333560E082E090E00E94153560E083E07C
:102B500090E00E94153510922502109226021092E4
:102B600027021092280260E084E090E00E94153570
:102B700060E082E290E00E94153560E085E090E040
:102B80000E94153560E086E090E00E9415356FEFF9
:102B900087E090E00E94153540E050E0BA0188E0FF
:102BA00090E00E94273560E08DE090E00E941535AE
:102BB00040E050E0BA0188E190E00E94273560E0F3
:102BC00087E190E00E94153540E050E0BA018CE1C9
:102BD00090E00E94273570E060E080E290E00E9483
:102BE000333540E050E0BA0188E190E00E9427359B
:102BF0000C9494150C949B15682F8EE090E00C9427
:102C000015350E94A02D60938B0270938C028093E7
:102C10008D0290938E026093870270938802809356
:102C2000890290938A0208950E94A02D60938B02DE
:102C300070938C0280938D0290938E026093830236
:102C4000709384028093850290938602089585B7DD
:102C5000806885BF85B7806885BF08950895089509
:102C60000C942E1608950C9432160E94271684E1B7
:102C700099E10E944C2C0E942F160C9430160C9453
:102C80007219089508950E9441160C9442160E94EC
:102C90008B2D0E94D3180E9469060E94492380E070
:102CA0000E94A9230E941C220E948A270E94E809F0
:102CB0000C9433169F92AF92BF92CF92DF92EF9215
:102CC000FF920F931F93CF93DF93CDB7DEB72A9771
:102CD0000FB6F894DEBF0FBECDBF0E943507C82ED9
:102CE00081110E9401168FE6A82E82E0B82E10E016
:102CF00000E0902E802F0E946206E82EF501F190F0
:102D00005F01F81609F45EC080918F0281FD0E9478
:102D100068068F2D8E25D12CFF24F394982F9F21A8
:102D200009F44BC00E943F16882399F0DE829F82EF
:102D3000EF2081E009F480E088870E94942D816073
:102D4000782F9A8789874E815F8168858A850E945E
:102D5000910BF801E159FD4F8081F826F0820E9425
:102D6000A327182F81110E9414160E942426C11037
:102D700001C011110E94EB240E94C61D0E94EA09A5
:102D80000E94562C90916E02891799F10E94562C40
:102D900080936E022A960FB6F894DEBF0FBECDBFA9
:102DA000DF91CF911F910F91FF90EF90DF90CF9027
:102DB000BF90AF909F900C94890BD394FF0CF5E0DB
:102DC000DF12ACCF0F5F1F4F0431110509F091CF17
:102DD0008FEF89838A831B820E94942D8160782FD4
:102DE0009D838C8349815A816B818D810E94910BD7
:102DF000B6CF2A960FB6F894DEBF0FBECDBFDF91D7
:102E0000CF911F910F91FF90EF90DF90CF90BF90E7
:102E1000AF909F900895CF93DF930E94F917EC0134
:102E2000811522E5920778F5811531E5930708F0C1
:102E300098C08F3F910509F0B8F48D3E910508F0D8
:102E40006FC0853A910540F48430910548F40197AC
:102E500039F0D0E0C0E004C0805E91090897C8F75F
:102E6000CE01DF91CF910895811540E5940708F0D8
:102E70005CC0C11580E4D80708F054C0C11590E2C9
:102E8000D90770F3E6CF811526E5920718F581156D
:102E900035E5930708F07DC0811544E5940708F0F7
:102EA00073C0982F969596959E0123703327C11570
:102EB000D34508F45BC0C1E0D0E002C0CC0FDD1FF9
:102EC0002A95E2F730E2939FC0011124C82BD92B39
:102ED000DA68C6CFC1159AE5D90778F4C11529E596
:102EE000D20708F060C0C11538E5D30708F4B1CFA8
:102EF000DC2FCC27C06FD06AB3CFCE01905681159E
:102F0000904208F0A6CF8D2F8F710E94901890E00C
:102F1000982F882788279F719C012C2BE90141C09D
:102F2000D0659ECFDF70D06A9BCFE4E09695879501
:102F3000EA95E1F783702C2F26952695237090E271
:102F4000299F90011124382B8C2F8370C1E0D0E091
:102F500002C0CC0FDD1F8A95E2F7C22BD32BDC68B1
:102F60007FCFD82FCC27C16FD06A7ACFC1E0D0E015
:102F700002C0CC0FDD1F2A95E2F720E2929FC0012C
:102F80001124C82BD92BEBCFD82FCC27C46FD06AF4
:102F900067CF0E949018C82FD0E0DC2FCC27CC2719
:102FA000DF71D0625DCF8C2F8F700E94901834E05B
:102FB000D695C7953A95E1F7CF709C2FEC01D06973
:102FC0004FCF972F70E025E0929F600D711D112467
:102FD000FB0194E6899FE00DF11D1124EE0FFF1F08
:102FE000E35BFE4F8591949108950E94E1170C9444
:102FF0000B1782389105B1F1B0F48133910509F4D2
:1030000075C048F48932910509F469C08A32910586
:1030100009F473C008958533910509F459C08933C3
:10302000910501F10895833E9105A9F138F4803EA0
:103030009105F9F0823E910549F10895863E91058A
:10304000A9F1873E9105C9F1843E910519F52091BA
:10305000480321FF1FC08091470384FD14C087EE01
:1030600090E00895209147032370A1F080EE90E056
:1030700008952091470320FD47C03091480330FF59
:1030800009C024FF44C090E080E004C020914703C1
:1030900022FDF7CF08952091470322FD3BC03091D8
:1030A000480330FDE3CF24FFF5CFEDCF2091470358
:1030B00023FFF0CF24FDE7CFD2CF2091470323FD9C
:1030C0002CC03091480331FFEECF84EE90E008959C
:1030D0002091470325FFDECF89E290E008952091FB
:1030E000470325FFD7CF85E390E00895209147035C
:1030F00026FFD0CF8AE290E008952091470326FF73
:10310000C9CF81E390E0089589E390E0089583EECC
:1031100090E0089582EE90E0089586EE90E00895A4
:103120009091470392FF06C0282F28712830F9F4A8
:10313000877F846093FF06C0282F28712831F1F41F
:10314000877E84612091480320FF06C0382F3871A4
:103150003830D9F4877F816021FF06C0282F28717D
:103160002831D1F4877E816194FD877E0895282FD0
:1031700024712430F9F68B7F8860DCCF282F2471EE
:10318000243101F78B7E8861DDCF382F31713130EA
:1031900019F78E7F8860E0CF282F2171213121F728
:1031A0008E7E8861E1CF1092430310924403109207
:1031B0004503109246030895CF92DF92EF92FF925B
:1031C0006B017C010E94721981110EC00E94A02D1A
:1031D000C61AD70AE80AF90AC0924303D0924403F8
:1031E000E0924503F0924603FF90EF90DF90CF907E
:1031F00008950F931F930E947219882321F01F9145
:103200000F910C94A02D0E94A02D009143031091CA
:1032100044032091450330914603600F711F821FC4
:10322000931F1F910F91089580E0089508950E94C3
:103230005515811102C00E94FA150E9460158093F5
:103240008F020E94681590934803809347030E9461
:1032500016190E946415682F70E090E080E00E94CB
:10326000C90F6091210270912202809123029091F6
:1032700024020C9403100895FF920F931F93CF9391
:10328000DF93F82E092F162FD72FC42F222349F0B2
:1032900081E0809392020E94942D909391028093FA
:1032A0009002809192028823A1F0809190029091E7
:1032B00091020E94AC2D059760F0EF2DF02FA12F09
:1032C000BD2FCE0FDF2FD11DEC17FD0741F410925B
:1032D0009202DF91CF911F910F91FF9008958191FC
:1032E0008D93F2CF80919302811107C00E949B348D
:1032F000882351F081E08093930281E090919302C2
:10330000913009F080E0089582E0809393020E945A
:103310009634F3CF0C9472190E948A198093060197
:103320008091060165E0882349F080E00E94272013
:103330000E947219882321F00C94AF1985E0F6CF12
:1033400008950E947219811102C00C94B119089558
:1033500081E0909194029A3008F080E008950C94F6
:103360008B2A0C948E2AEF92FF920F931F93CF9388
:10337000DF937901C82F880FDD0B41155105A9F0A6
:103380008AE08C9FF0018D9FF00D1124E95FFE4FC4
:10339000838194818B569D4F228130E042175307E1
:1033A00008F49A01A9010E94F834CE010E94982BDA
:1033B000892B11F501151105E9F08AE08C9FF001C8
:1033C0008D9FF00D1124E95FFE4F458150E00417F9
:1033D000150708F4A8018AE08C9FF0018D9FF00D7D
:1033E0001124E95FFE4F668177816B567D4FC701DF
:1033F0000E94F83481E001C080E0DF91CF911F91FD
:103400000F91FF90EF9008950C94AB1B0C94D71B79
:103410000F931F93CF93DF9300D000D0CDB7DEB7CB
:103420006091C4027091C5028091C6029091C7025A
:103430000E94BB2D11E0643671058105910518F1DC
:103440000E94F9186E5F7F4F8F4F9F4F69837A8379
:103450008B839C8310E000E030E020E044E050E00B
:10346000BE016F5F7F4F84E00E94B319182F88233D
:1034700051F00E94A02D6093C4027093C502809306
:10348000C6029093C702812F0F900F900F900F905C
:10349000DF91CF911F910F9108957F928F929F920C
:1034A000AF92BF92CF92DF92EF92FF920F931F9352
:1034B000CF93DF930F92CDB7DEB7762E4A01590135
:1034C000680101E010E09E012F5F3F4F50E040E0B7
:1034D00070E060E00E94B319182F882309F43EC001
:1034E000F40160817181828193810E94BB2D6436D9
:1034F00071058105910558F18701950150E040E083
:1035000070E060E0872D0E94B319B82EB701C601A4
:103510000E944A2311E09981981310E01B2139F091
:103520000E94A02DF4016083718382839383812F95
:103530000F90DF91CF911F910F91FF90EF90DF904F
:10354000CF90BF90AF909F908F907F900895B701DC
:10355000C6010E944A2399818913CECFA701B601E3
:10356000C5010E94F834E3CFEF92FF920F931F93AF
:10357000CF93DF930F92CDB7DEB700917D0110910D
:103580007E01045F1F4FEE24E394F12C9E012F5F18
:103590003F4F40EC52E063E082E00E944D1A182F4A
:1035A000882321F0CE0101960E94FC27812F0F90E5
:1035B000DF91CF911F910F91FF90EF900895CF92DF
:1035C000DF92EF92FF920F931F93CF93DF93CDB7CC
:1035D000DEB72A970FB6F894DEBF0FBECDBF6B01E2
:1035E00000917D0110917E010F5F1F4F8AE0E82E50
:1035F000F12C9E012F5F3F4F4CEB52E061E080E0E9
:103600000E944D1A882349F09AE0FE013196A2EB00
:10361000B2E001900D929A95E1F79AE0E2EBF2E0C8
:10362000D60101900D929A95E1F72A960FB6F8947B
:10363000DEBF0FBECDBFDF91CF911F910F91FF90E5
:10364000EF90DF90CF9008950F931F93CF93DF9368
:10365000CDB7DEB728970FB6F894DEBF0FBECDBF4B
:10366000CE0101960E94652218856091C802709172
:10367000C9028091CA029091CB020E94BB2D643690
:1036800071058105910510F41123C1F010E000E0EF
:1036900030E020E048E050E0BE016F5F7F4F85E002
:1036A0000E94B319882369F00E94A02D6093C8027C
:1036B0007093C9028093CA029093CB020E94622247
:1036C00081E028960FB6F894DEBF0FBECDBFDF9124
:1036D000CF911F910F910895AF92BF92CF92DF9239
:1036E000EF92FF920F931F93CF93DF937C015B01C7
:1036F0006A010E94A81901E010E0882311F00AE095
:1037000010E0C1E0D0E0F894B501C701F6010995D9
:103710007894811104C021960C171D075CF4DF9189
:10372000CF911F910F91FF90EF90DF90CF90BF90BE
:10373000AF900895CC9F9001CD9F300D300D112496
:1037400090E080E045E34A95F1F70000019682178A
:103750009307C1F7D8CF0F931F93CF93DF93EC015B
:103760008B014FED5AE10E946C1B8823D1F044EB92
:103770005AE1B801CE010E946C1B882391F048E009
:103780005AE1B801CE010E946C1B882351F044E23B
:103790005BE1B801CE01DF91CF911F910F910C94A5
:1037A0006C1B80E0DF91CF911F910F910895CF9214
:1037B000DF92EF92FF920F931F93CF93DF930F92BD
:1037C000CDB7DEB7F89400917D0110917E01C8015C
:1037D00001962AE0FB01DC0101900D922A95E1F7A8
:1037E0006AE070E00E944A23F80180837894F8949C
:1037F000CE0101960E94F3278981F801848761E058
:1038000070E0CE0101960E944A23F80183877894E4
:10381000F8946585768587859089C090AE02D090B2
:10382000AF02E090B002F090B1026C157D058E05FC
:103830009F0551F06093AE027093AF028093B00287
:103840009093B1020E94DC187894F894F801808D6E
:10385000882339F060E0C80141960E947822F8017F
:10386000108E78940F90DF91CF911F910F91FF9060
:10387000EF90DF90CF9008950E946A2F0E94471624
:103880000C94762F0E947A2F0E945A160C94942F33
:103890000E941E2D0E94512F0E9435160E943C1C32
:1038A0000E94421C0E944316FBCF8091D20280FFEF
:1038B00012C06091480185E0689FB00111247595A0
:1038C00067957595679560387105A8F5611571055F
:1038D000A1F1862F089581FF09C06091480185E01C
:1038E000689FB001112475956795EDCF60914801EF
:1038F00082FD0AC08091D1028823D1F090914701C6
:1039000060914801891728F085E0689FB001112473
:10391000DACF869FB001112485E0869F9001879FB2
:10392000300D1124692F70E0C9010E94C834CBCF3B
:1039300065E070E0CECF8FE7089581E00895809133
:10394000D20280FF0CC06091440170E075956795CC
:10395000759567956115710549F1862F089581FF69
:1039600006C06091440170E075956795F3CF609152
:10397000440182FD0BC09091D0029923A1F0609187
:10398000430180914401961738F0682F70E0603849
:10399000710500F38FE70895899FC001112470E03D
:1039A0000E94C834F4CF61E070E0D7CF81E0089581
:1039B0008D3E31F40E94551C81958093D602089566
:1039C0008E3E19F40E94551CF8CF8F3E31F40E94B0
:1039D000551C81958093D5020895803F19F40E946B
:1039E000551CF8CF893F29F40E949F1C8093D70271
:1039F00008958A3F21F40E949F1C8195F7CF8B3F49
:103A000031F40E949F1C81958093D80208958C3FC9
:103A100019F40E949F1CF8CF9FE0980F983070F423
:103A2000815F990B21E030E001C0220F8A95EAF70F
:103A30008091D402822B8093D40208958D3F31F47B
:103A40008091D20281608093D20208958E3F21F44A
:103A50008091D2028260F7CF8F3FB9F78091D20276
:103A60008460F1CF4091D5028D3E59F48091D60209
:103A700087FF0DC01092D60241110BC01092D102E7
:103A800008C08E3E81F48091D60218169CF3442320
:103A900081F08091D7029091D802892B09F05AC009
:103AA0001092D00208958F3E49F447FFF0CF109254
:103AB000D5028091D6028111ECCFE0CF803F19F47E
:103AC0001416ACF3E4CF9091D702893F29F419166C
:103AD000F4F61092D702DBCF8A3F19F497FFD7CFC5
:103AE000F8CF9091D8028B3F29F497FFD0CF109256
:103AF000D802CDCF8C3F19F41916CCF3C8CF9FE074
:103B0000980F983090F4815F990B21E030E0B90173
:103B100002C0660F771F8A95E2F7CB0180959091DE
:103B2000D40289238093D402B2CF8D3F31F48091A7
:103B3000D2028E7F8093D202AACF8E3F21F4809151
:103B4000D2028D7FF7CF8F3F09F0A1CF8091D202B3
:103B50008B7FF0CF08950E94942D9C019091D50207
:103B60008091D602982B21F03093CF022093CE0281
:103B70009091D7028091D802982B21F03093CD02FA
:103B80002093CC0283ED92E00C94772CEF92FF927D
:103B90000F931F93CF93DF9300D000D000D0CDB709
:103BA000DEB786E0E3EDF2E0DE01119601900D92C2
:103BB0008A95E1F7E090D502F090D6020091D70205
:103BC0001091D8021092D5021092D6021092D7020C
:103BD0001092D8028E2D8F2991F08091CE02909173
:103BE000CF020E94AC2DAC019091D102992309F42F
:103BF0003FC0809149018417150608F447C0802F03
:103C0000812B91F08091CC029091CD020E94AC2D3D
:103C1000AC019091D002992309F477C080914501BD
:103C20008417150608F47FC08091D5029091D602C2
:103C3000892B9091D702892B9091D802892B11F072
:103C40000E94AB1D86E0FE013196A3EDB2E001902B
:103C50000D928A95E1F726960FB6F894DEBF0FBE57
:103C6000CDBFDF91CF911F910F91FF90EF900895FD
:103C700020914A018AE0289F9001112424173507DA
:103C800008F0BDCF9F5F9093D10202C09F3FD1F754
:103C9000EE2059F00E94551C9FEF1E140CF491E089
:103CA000899F802D11248093D502FF2059F00E9416
:103CB000551C9FEF1F140CF491E0899F802D112457
:103CC0008093D6023091D502332309F498CF209106
:103CD000D602222309F493CF45EB3403C00111240B
:103CE000992359F09093D50245EB240390011124B8
:103CF000332339F03093D60282CF81E08093D5020E
:103D0000F3CF81E08093D6027ACF209146018AE0FA
:103D1000289F900111242417350708F085CF9F5F55
:103D20009093D00202C09F3FD1F7002359F00E9428
:103D30009F1C9FEF10160CF491E0899F802D112499
:103D40008093D702112359F00E949F1C9FEF1116F8
:103D50000CF491E0899F802D11248093D80230913A
:103D6000D702332309F460CF2091D802222309F42B
:103D70005BCF45EB3403C0011124992359F0909394
:103D8000D70245EB240390011124332339F03093FB
:103D9000D8024ACF81E08093D702F3CF81E08093AD
:103DA000D80242CF86E0E3EDF2E0DF011D928A9572
:103DB000E9F71092D1021092D0021092D202089527
:103DC000EF92FF920F931F93CF93DF93CDB7DEB7A0
:103DD0002C970FB6F894DEBF0FBECDBF49835A8330
:103DE0006B837C838D839E83EF82F88609871A8795
:103DF0002B873C8746E050E0BE01695F7F4FCE01D4
:103E000001960E94EB3421E0892B09F420E0822FF7
:103E10002C960FB6F894DEBF0FBECDBFDF91CF91C9
:103E20001F910F91FF90EF900895EF92FF920F93E3
:103E30001F93E090D902F090DA020091DB0210911A
:103E4000DC022091DD023091DE024091DF025091D0
:103E5000E0026091E1027091E2028091E3029091B0
:103E6000E4020E94E01E882321F08FED92E00E9480
:103E7000772C1092E1021092E2021092E30210926B
:103E8000E40286E0EFEDF2E0A9EDB2E001900D92E0
:103E90008A95E1F71F910F91FF90EF900895CF93CE
:103EA000DF9300D000D000D0CDB7DEB786E0EFEDD5
:103EB000F2E0DE01119601900D928A95E1F72981D9
:103EC0003A814B815C816D817E8180E090E0269615
:103ED0000FB6F894DEBF0FBECDBFDF91CF9108952E
:103EE000CF93DF9300D000D000D0CDB7DEB74983A9
:103EF0005A836B837C838D839E8386E0FE0131969B
:103F0000AFEDB2E001900D928A95E1F726960FB6DB
:103F1000F894DEBF0FBECDBFDF91CF910895EF9231
:103F2000FF920F931F93CF93DF93EB01E82FD111F3
:103F300010C0442321F0F0E0E359FB4FE4916E2FD1
:103F40007E2F8E2FDF91CF911F910F91FF90EF90D9
:103F500008950D2F10E0282F30E0442329F0235935
:103F60003B4FF901249130E0F6E0CF9FC0011124CE
:103F7000EFEFF0E0BF010E94B434AB018C2F90E072
:103F8000880F991FA5E5A49FB001A59F700D11246E
:103F9000861B970B982F990F980FBF01601B710B11
:103FA000629FD001639FB00D729FB00D11248B2FC3
:103FB0009D9FB0011124672F7727EF01C61BD70BF8
:103FC000BE01629FE001639FD00D729FD00D11244E
:103FD0007F01E91AF108E09EB001E19E700DF09EAC
:103FE000700D1124672F7727E61BF70BE29F8001E6
:103FF000E39F100DF29F100D1124E12F722F42301C
:10400000510599F048F44115510569F041305105C9
:1040100081F0EB2F8D2F07C04430510569F080F0FF
:1040200046305105B1F76E2F8DCFE22F7B2F812FB8
:10403000FACFE22F7D2FF7CFEB2F822F712FF3CF07
:104040007B2F822FED2FEFCF41E00C948F1FEBE4FD
:10405000F1E08083618308950C942420CF93DF9353
:10406000762FE901682F842F0E942C2079836883A2
:104070008A83DF91CF91089580914A03982F9E7F84
:1040800039F480914A038170826080934A030895D5
:104090008430B8F7089588E090E00C940935CF9209
:1040A000DF92EF92FF926B017C010E943C20B701EE
:1040B000A60188E090E0FF90EF90DF90CF900C9405
:1040C0002735EAE4F3E083E0808311828FEF828377
:1040D00083831482A8EEB2E012968C9112978360CB
:1040E00012968C9360817181828193810C944F2010
:1040F00090914E03933018F49F5F90934E03882362
:1041000051F060914A0370914B0380914C03909160
:104110004D030C944F20089581E00C9478209091E9
:104120004E03992319F0915090934E03882351F038
:1041300060914A0370914B0380914C0390914D0321
:104140000C944F20089581E00C948F2070E00C9423
:104150001D2360914C0180914A0380FF0AC0809129
:104160004B0123E0829FC0011124815B9C4F0C9482
:10417000A62080914D0190914E0123E0829FF00195
:104180001124E15BFC4F891750F7118210821282D3
:104190008F5F3396F8CFEAE4F3E080818E7F8083EF
:1041A00060817181828193810E944F20E8EEF2E06C
:1041B0008281816082832FEF80E792E021508040EE
:1041C0009040E1F700C000000C94A920EAE4F3E07D
:1041D00080818E7F8083E8EEF2E08281816082833D
:1041E0002FEF80E792E0215080409040E1F700C03F
:1041F00000000C94A9208091E60281110AC081E0A0
:104200008093E60280914A0381708093E5020C94CA
:10421000E620089590914A0390FF14C090914D01BB
:1042200020914E0133E0939FF0011124E15BFC4F9C
:10423000921710F00C94A9208183608342839F5FC2
:104240003396F6CF0895EF92FF920F931F93CF937B
:10425000DF9300D00F92CDB7DEB7F82E062F142FC4
:10426000E22E80914A0380FF39C0E82FE695F0E006
:10427000E158FE4F90819093E8028E7F823059F48E
:104280009E012F5F3F4F8F2D0E942E204B81698111
:104290008A810E940A2180914B038F1108C080916E
:1042A0004C03801304C080914D03811729F0809145
:1042B000EA0282608093EA02F0924B0300934C037F
:1042C00010934D03EE2051F060914A0370914B031F
:1042D00080914C0390914D030E944F200F900F90BE
:1042E0000F90DF91CF911F910F91FF90EF90089564
:1042F000EAE4F3E09181282F4381628188E0890F0D
:104300000C94232181E00C947821EAE4F3E091817C
:10431000282F4381628188EF890F0C94232181E04B
:104320000C948521EAE4F3E0628128E0620F08F44E
:104330006FEF282F438181810C94232181E00C941D
:104340009221EAE4F3E0628128E0621B08F460E075
:10435000282F438181810C94232181E00C94A12199
:10436000EAE4F3E0438128E0420F08F44FEF282FFE
:10437000628181810C94232181E00C94B021EAE4D4
:10438000F3E0438128E0421B08F440E0282F6281DB
:1043900081810C94232181E00C94BF2120E00C94B6
:1043A000232180914A0380FF1DC081708260809329
:1043B0004A038091EA0281608093EA02662351F009
:1043C00060914A0370914B0380914C0390914D038F
:1043D0000E944F2040914D0360914C0380914B030C
:1043E0000C94CE210895682F81E00C94D12181E0B6
:1043F0000C94F321682F90914A0396958FEF890FC3
:1044000009F481E00C94D12181E00C94FA2161E05F
:104410000C94D121EAE4F3E0808181608083869569
:104420000C94072280914A0380FD0C94CB200C94BD
:104430000A2260E00C94D1218091E702811131C001
:104440000E945515811104C00E94FA150E94612036
:104450000E944B2060934A0370934B0380934C035C
:1044600090934D038091EA0283608093EA026E7F0D
:1044700061F40E9461200E944B2060934A03709374
:104480004B0380934C0390934D030E943C208091FA
:104490004A0380FF03C086950E94192281E0809321
:1044A000E7020895EAE4F3E08081816080838695E5
:1044B0000C9419221092E6028091E50281110C946D
:1044C000522208951092EA02089525E0EAE4F3E00A
:1044D000DC0101900D922A95E1F72091E8023091DC
:1044E000E9024091EA02FC0125833683478308955F
:1044F0001F93CF93DF93EC01162F8F8180FF0CC0A9
:10450000888180FF15C080914A03816080934A03AF
:10451000888186950E94D1218F8181FF0CC0212F37
:104520004B816A818981DF91CF911F910C94232166
:104530000E94E620F1CFDF91CF911F910895FA01FB
:10454000811101C0FB0109941F93CF93DF93EC010C
:10455000FB01128111114FC00E9481148272CA3C6A
:10456000FCE5DF0709F460C030F5C63CECE5DE078A
:1045700009F455C060F4C43C9CE5D90709F443C074
:1045800008F048C0C33CDC45D9F111E034C04DEA25
:1045900051E26EE971E2C83C9CE5D907C1F142E8FD
:1045A00051E26FE871E2C93CDC4588F14EE951E225
:1045B0006DEA71E22CC0CE3CFCE5DF07D1F1A0F43E
:1045C00043EA50E26CE870E2CC3CECE5DE07F9F03F
:1045D0004CEB51E26BEC71E2CD3CDC45C0F04CE8B9
:1045E00050E263EA70E213C0C73D8CE5D80718F0CB
:1045F000CE35DD4551F6812FDF91CF911F91089582
:104600000E941222F8CF44E052E267EF71E20E946A
:104610009F22F1CF47EF51E264E072E2F8CF4FE81A
:1046200051E262E871E2F3CF4BEC51E26CEB71E2E4
:10463000EECF81E00E940722DECF539A4BB1477F35
:104640005BB15860EFB7F8949B01220F331F260F20
:10465000371F280F391F2817390741F4EFBF8FE59F
:1046600094E00197F1F700C000000895DC016D911E
:10467000CD0178E05BB9000000C067FF4BB9660F61
:10468000000000C000C000C04BB900C07A9591F78F
:10469000E2CF0895FC01680F791F8FEF91E36E1749
:1046A0007F0709F408952191822728E030E087FFF1
:1046B00006C0880F892721503109C9F7F0CF880F2C
:1046C000FACFCF92DF92EF92FF920F931F93CF9387
:1046D000DF936C017B0164E670E088E70E94292982
:1046E000EC0197FD12C010E000E0F601E00FF11FB1
:1046F000849164E670E00E94A329EC01892B29F4DF
:104700000F5F1F4F0E151F0581F70E94262ACE014D
:10471000DF91CF911F910F91FF90EF90DF90CF909D
:10472000089508950C949123EDE6F3E080E092E083
:10473000DF019C011D9221503040E1F7F093740598
:10474000E09373058FEF9FEF909317038093160309
:1047500008950E94F2080E9492238093120380FD24
:104760000FC080E8809311030E9423296DE070E060
:1047700084E895E00E946123892B21F080E0089570
:1047800080E2F0CF8091120363E070E081FD26C0EB
:1047900081E895E00E946123892B81F76DE070E04C
:1047A00081E795E00E946123892B41F70E94A02DAB
:1047B000605A75418F4F9F4F60936F0570937005DE
:1047C00080937105909372050E94942381E08093F9
:1047D0001503809314031092130308958EE795E058
:1047E000D9CF2091110336E0839FC0011124629F2D
:1047F000800D911D1124811522E0920714F090E0A4
:1048000080E083599C4F90937405809373050895BD
:104810002091730530917405275633404091110360
:10482000642F70E0C9010E94B434481B463010F474
:10483000240F311D211582E0380710F030E020E010
:1048400023593C4F309374052093730508951F93AB
:10485000CF93DF93162F8A3031F481E0DF91CF912F
:104860001F910C94A1248D3011F480E0F7CFC091FA
:104870007305D091740596E0FE01ABEEB2E00190B5
:104880000D929A95E1F7803EC8F086E0FE01119204
:104890008A95E9F711111EC0C0917305D091740576
:1048A00046E050E0BE018BEE92E00E94EB34892B93
:1048B000F9F4DF91CF911F910C940824F6E08F9FBB
:1048C000B00111246F567A4F46E050E0CE010E94AD
:1048D000E234E0CFE0917305F09174059F012A5F07
:1048E0003F4F2E173F07C1F2808180958193F9CF0A
:1048F000CD56D340CE0125E0969587952A95E1F7D0
:1049000021E030E0A90102C0440F551F8A95E2F76B
:10491000CA014091160350911703842B952B2596BD
:1049200045E0D695C7954A95E1F702C0220F331F9F
:10493000CA95E2F7822B932B90931703809316036B
:10494000B8CFCF93382FE0917305F0917405ED56F1
:10495000F34020911103622F70E0CF010E94B43424
:10496000281B822F332369F066E00E94A834C82FE9
:10497000C15010F4CF91089560E080E20E94272496
:10498000F7CF9F01280F311D2115324018F080E02C
:10499000F0E0E0E08E0F9F2F911D83599C4F909384
:1049A000740580937305E6CF1F93CF93DF93EC01DB
:1049B000162FFE018491811104C0DF91CF911F91C8
:1049C0000895612F0E9427242196F3CF0E94D424BA
:1049D00081E00C94A12480911503811103C0809182
:1049E000140308950E94A02D605A75418F4F9F4F68
:1049F00060936F05709370058093710590937205B5
:104A0000809114038111EBCF62E070E08FE695E0B6
:104A10000E946123892B19F781E080931403DFCF73
:104A20002F923F925F926F927F928F929F92AF925E
:104A3000BF92CF92DF92EF92FF920F931F93CF938B
:104A4000DF9380911503882369F02091160330913C
:104A500017032115310531F08091130361E070E0F7
:104A6000882399F0DF91CF911F910F91FF90EF90E4
:104A7000DF90CF90BF90AF909F908F907F906F907E
:104A80005F903F902F9008958F5F082F10E01B01DB
:104A9000082E02C0220C331C0A94E2F7A90142211D
:104AA0005321452B89F39091120390FD44C08295C8
:104AB000880F807680935201980136952795369518
:104AC000279520935501815E8093530110925601E2
:104AD00024E630E047E050E060E571E088E70E94BE
:104AE000D229892B09F0BECFA80125E0440F551F1C
:104AF0002A95E1F78091120380FD2BC043595C4F4A
:104B000004E610E020E230E060E488E70E94F92942
:104B1000892B09F0A7CF0E94EB24E101C095D09525
:104B20008091160390911703C823D923D0931703BC
:104B3000C093160397CF880F880F880F8093520178
:104B400010925501895F8093530183E08093560151
:104B5000BFCFE1EFF2E080E2DF011D928A95E9F735
:104B6000A5E8B1E001E811E089E8C82E81E0D82E7F
:104B700097E0592E772473948D91E80129918E0145
:104B8000240F352F311D23593C4FE82FF0E0EF5013
:104B9000FD4F90E080E0652C681A872C082E01C03C
:104BA000880C0A94EAF77901A12CE701B9907E01FB
:104BB000B820662D6A196770962E062E000C770BAA
:104BC000DB2D01C0DD0F9A94EAF7719561957109AB
:104BD0006770772701C0B6946A95EAF7BD2A6081AD
:104BE000962E9B289082A39468E0A612DECF0196B1
:104BF00031968830910579F6CA16DB0609F0BCCFEC
:104C000004E610E020E230E041EF52E07DCF8091F9
:104C1000140390911503911103C091E08927089521
:104C2000882369F062E070E08DE695E00E946123E0
:104C3000892B19F080911403089510921403809128
:104C40001403EBCF81E008950F931F938091150318
:104C5000882389F180916D0590916E050E94AC2D9D
:104C6000C29760F00E94942D90936E0580936D051D
:104C700060E080E00E94F1230E94FC080E94102561
:104C8000809114038823B9F00E94A02D00916F0534
:104C9000109170052091710530917205601B710BA8
:104CA000820B930B6F3F7F4F8F4F9F4720F41F91D5
:104CB0000F910C9407261F910F910895CF93DF93C6
:104CC000EC01FB018281882309F420C1C430FDE599
:104CD000DF07C8F5CB3F9CE5D90730F49E01225091
:104CE0003C452431310598F50E946815909348039E
:104CF00080934703C031FCE5DF0709F4E0C008F00A
:104D000061C0C8309CE5D90709F4CBC088F5C43030
:104D1000FCE5DF0709F4B3C0E8F4C2309CE5D9072D
:104D200009F4A7C0809147038260C330DC4509F4D1
:104D3000A3C080914703909148030E9476150E947A
:104D4000700F80E004C0C236EDE5DE0769F2DF9146
:104D5000CF910895809147038061C630FCE5DF075D
:104D600009F48AC008F48FC080914703806284C030
:104D7000809147038D7FCC309CE5D90709F47CC036
:104D800070F4809147038C60CA30FCE5DF0709F4BA
:104D900073C008F48AC0809147038E7F6DC08091F4
:104DA0004703877FCE309CE5D90709F465C0809121
:104DB00047038B7FCF30DC4508F45EC0809147030A
:104DC0008F7E5AC0CD3FFCE5DF0709F474C040F583
:104DD000C4319CE5D90709F48AC058F4C231FCE516
:104DE000DF0709F474C008F46EC080914703837F25
:104DF00043C0CB3F9CE5D90709F449C008F04DC03A
:104E0000C531DC4509F095CF8091470382FB992796
:104E100090F921E0922790FB82F990FB83F92CC056
:104E2000C1308DE5D80709F458C088F48091480353
:104E30008360CF3FECE5DE0769F1809148038D7F09
:104E4000C115DD4538F1809148038C7F23C0C33004
:104E50008DE5D80709F458C008F452C0C236DD45C4
:104E600009F067CF90914703892F8F7E94FF80616F
:104E700003C0809147038160809347035ACF80919C
:104E800047038460F9CF809147038860F5CF809114
:104E900048038160809348034CCF8091480382602F
:104EA000F9CF809147038064E7CF0E94700F809113
:104EB00047038068E1CF809148038E7FEBCF8091DC
:104EC00047038F7DD9CF809147038F7BD5CF0E9439
:104ED000700F809147038F77CFCF80914803982F31
:104EE000909591708E7F892B90FB81F9D3CF0E9492
:104EF000700F90914703892F97FB87F98058BCCF9B
:104F000081E00E94FC1515CF80E0FBCF81E01FCF30
:104F100081E0089554985C9A84988C9A89B182951E
:104F200081707C990EC090E0892B80931D03909135
:104F3000060181E0982790931903891B8093180339
:104F4000089592E0F1CFCF93E0911D03EE0FEE0FA5
:104F5000E0931D0349B144FB882780F94FB144FB1E
:104F6000222720F944FF02C022E030E0822BE82B08
:104F7000E0931D03C0911903EF70F0E0E757FE4F77
:104F8000808190911C03890F80931C0320E0823064
:104F900064F0EC2FF0E0E65EFC4F80818F5F808351
:104FA00060E08C2F0E94570921E080911C038F3F05
:104FB00064F4EC2FF0E0E65EFC4F8081815080834A
:104FC00061E08C2F0E94570921E080911C03082E7C
:104FD000000C990B62E070E00E94C83480931C03BF
:104FE000822FCF910895E0911903F0E0E65EFC4F27
:104FF0002081FC0120830895FF920F931F93CF938C
:10500000DF93D09118030D2F10E0065E1C4FFC01BA
:10501000C081F8018081C81BFC2E80E01F147CF049
:105020009C2FC7FD90E0C91BC11114C08823E9F073
:10503000DF91CF911F910F91FF900C941416FA9469
:10504000F80180818F5F808360E08D2F0E94570977
:1050500081E0E4CFCF5FF80180818150808361E0FF
:105060008D2F0E94570981E0DFCFDF91CF911F91F3
:105070000F91FF900895CF93DF93EB0186319C450C
:1050800011F50E9481149A81992399F08A7A91E00E
:1050900009F490E090931E03811109C089E20E94F7
:1050A0005C140E94C41480E0DF91CF91089585E3E1
:1050B000F6CF80911E03811104C089E20E9463141F
:1050C000F0CF85E3FBCF81E0EFCF0F931F93CF931A
:1050D000DF93C42FD22FFC0182818823C9F0409333
:1050E00021030E94942D9093200380931F0380E25C
:1050F0008C0F883008F050C0C77081E001C0880F65
:10510000CA95EAF7DF91CF911F910F910C94EB0CA8
:1051100010912103141335C080911F039091200337
:105120000E94AC2D883C910560F5C0E2CD0F1D17A3
:10513000B9F080E2810F883040F4177081E001C03F
:10514000880F1A95EAF70E94F20CC83048F481E003
:105150009D2F977001C0880F9A95EAF70E94EB0C7B
:10516000802F0E94E30CC830B8F4D77081E001C0F2
:10517000880FDA95EAF7DF91CF911F910F910C9488
:10518000F20C80E28C0F883038F4C77081E001C0E7
:10519000880FCA95EAF7EFCFDF91CF911F910F915A
:1051A00008950F939C01CB01243F4CE5340759F13E
:1051B000A8F4293DFCE53F0701F12A3D4CE5340701
:1051C000D1F1283D3C4591F406E221EE41EE68ED37
:1051D0007CE50E94652880E00F910895263FFCE55C
:1051E0003F07E9F0B0F0273F3C45F9F0FC01828130
:1051F000882339F110922103EFCF07E225EE45EE27
:1052000069ED7CE5E6CF06E221EE40EE64EF7CE559
:10521000E0CF07E225EE44EE65EF7CE5DACF06E26B
:1052200021EE42EE66EF7CE5D4CF07E225EE46EEB6
:1052300067EF7CE5CECF08E221E045EE6AED7CE544
:10524000C8CF81E0C9CF1092B9008CE08093B8003C
:1052500008959F92AF92BF92CF92DF92EF92FF920A
:105260000F931F93CF93DF93B82EEB010E94942DE1
:105270006C01EE24E394F12CC431D10560F025E0FB
:10528000E22EF12CCF3FDC0731F0CE0164E170E07B
:105290000E94B4347B0184EAA82E94E8992E1092DF
:1052A000BC00A092BC000E94942D8C018091BC0097
:1052B00087FF0DC08091B900887F883039F18091D7
:1052C000B900887F803111F10FEF1FEF09C00E94F4
:1052D000942D801B910B8E159F0540F30EEF1FEF51
:1052E000CF3FDC07E1F2C6010E94AC2D8C179D0771
:1052F000B0F2C801DF91CF911F910F91FF90EF9015
:10530000DF90CF90BF90AF909F900895B092BB0078
:105310009092BC000E94942D8C018091BC0087FF6C
:105320000AC08091B900887F883111F0803461F61D
:1053300010E000E0DECF0E94942D801B910B8E15B3
:105340009F0558F3CBCF0F931F93CF93DF93EB01C0
:105350008093BB0084E88093BC000E94942D8C0154
:105360008091BC0087FF11C02091B900287F81E0A7
:1053700090E0283211F490E080E0919581959109B8
:10538000DF91CF911F910F910895CF3FDC0741F33B
:105390000E94942D801B910B8C179D0708F38EEFB4
:1053A0009FEFEECFCF92DF92EF92FF920F931F937A
:1053B000CF93DF936B018A017901B9010E942929FA
:1053C000E6010C0D1D1DC017D10761F424E92093DF
:1053D000BC00DF91CF911F910F91FF90EF90DF9074
:1053E000CF90089597FDF2CFB70189910E94A3292C
:1053F000EACFCF92DF92EF92FF920F931F93CF935A
:10540000DF93C62F6A017901B8010E94292997FD0F
:105410000CC0B8018C2F0E94A329E601EC0CFD1CE6
:10542000CE15DF0511F097FF0CC024E92093BC00D6
:10543000DF91CF911F910F91FF90EF90DF90CF9070
:105440000895B80189910E94A329EACF84E9809345
:10545000BC0008958EE14A9B02C08150E1F74A9B4F
:10546000FECF08955A9880E28A95F1F75A9A0895E6
:10547000FC013BE03A95F1F798E020E080E031E074
:1054800040E14A95F1F7880F4A9B02C081602327CB
:1054900042E04A95F1F7000040E14A95F1F791505A
:1054A00079F790E19A95F1F799B132E03A95F1F7F1
:1054B000000040E14A95F1F792FB992790F9922775
:1054C0002081920F90830895EF92FF920F931F9384
:1054D000CF93DF930F92CDB7DEB719828C017C0199
:1054E000E60EF11C0E151F0561F481E09981911102
:1054F00080E00F90DF91CF911F910F91FF90EF907F
:1055000008950E942A2ACE0101960E94382AF801A5
:1055100081938F01E7CF529A5A9A089552985A9AD6
:10552000EA9AE9E6F0E080818F7C808308956150FB
:10553000770B91E001C0990F6A95EAF720E031E01E
:10554000911108C0222391F05A9A80E28A95F1F7CE
:105550005A980895492F482339F05A9A232740E250
:105560004A95F1F79695ECCF5A98F9CF5A98EDCF26
:10557000FF920F931F93CF93DF93EC018C01060FE3
:10558000111DC017D10731F4DF91CF911F910F91F9
:10559000FF900895F9900E94322A68E08F2D0E94B2
:1055A000972AEFCF1F920F920FB60F921124EF920E
:1055B000FF920F931F932F933F934F935F936F939C
:1055C0007F938F939F93AF93BF93EF93FF93CF936B
:1055D000DF930F92CDB7DEB719820E942A2ACE013F
:1055E00001960E94382AA82FA695A695A695282F41
:1055F000229525709A2F9570290F922F93702695DA
:105600002695920F982797708981982B09F075C07D
:10561000A73008F072C080E18A95F1F75A9A529A41
:10562000B2E0BA95F1F700C05A98EA2EF12CEAE000
:10563000AE9FD0011124A95FBE4F1896ED91FC9149
:1056400019973097B1F060917D0170917E011696A7
:105650002D913C911797260F371F13968D919C9192
:105660001497680F791F15964C91159712968C9187
:1056700009958AE08E9DF0018F9DF00D1124E95F60
:10568000FE4F6581662351F020917D0130917E01AE
:1056900086819781820F931F0E94B82A0E94322A26
:1056A000F0E1FA95F1F75A9852985A9A80E18A9562
:1056B000F1F78AE08E9D80018F9D100D1124095F06
:1056C0001E4FD80112966C911297662371F12091AA
:1056D0007D0130917E0113968D919C91820F931FD5
:1056E0000E94642AD801ED91FC91882311F088E092
:1056F00001C082E080830E942A2A0F90DF91CF911F
:10570000FF91EF91BF91AF919F918F917F916F9199
:105710005F914F913F912F911F910F91FF90EF90CB
:105720000F900FBE0F901F901895ED91FC91DFCF59
:105730000F931F93CF93DF93EC0107970CF0A9C051
:105740008AE08C9FF0018D9FF00D1124E95FFE4FE0
:1057500080819181892B09F49CC0F894529A5A98BF
:1057600085E08A95F1F700008C2F869585709C2F37
:105770009570890F982F937086958695890F8E0165
:1057800093E0000F111F9A95E1F7082B0E94322A2F
:1057900000C068E0802F0E94972AA0E1AA95F1F747
:1057A00052985A9A4A9B27C087E090E04A9925C0B0
:1057B0008AE08C9F80018D9F100D1124095F1E4F80
:1057C000F80165816623A1F120917D0130917E0170
:1057D00086819781820F931F0E94642A811128C0BD
:1057E000529A5A9AD801ED91FC9182E08083789484
:1057F00082E090E016C000C0D5CF0197B9F4529A6C
:105800005A9A8AE08C9FF0018D9FF00D1124E95F78
:10581000FE4F0190F081E02D81E08083789481E05B
:1058200090E0DF91CF911F910F91089500C0BECFFE
:105830000E942A2AB0E2BA95F1F75A98529AE0E10A
:10584000EA95F1F78AE08C9FF0018D9FF00D11240D
:10585000E95FFE4F6281662351F020917D01309116
:105860007E0183819481820F931F0E94B82A0E9437
:10587000322A8AE08C9FF0018D9FF00D1124E95FA0
:10588000FE4F0190F081E02D1082789490E080E04E
:10589000C8CF84E090E0C5CF90939B0180939A019C
:1058A0000895909328038093270308950E94721906
:1058B000811103C0809122030895E0912703F091A4
:1058C0002803309721F00190F081E02D099480E0C9
:1058D00008950E94562C0895E0912703F091280323
:1058E000309721F00280F381E02D09940895E09132
:1058F0002703F0912803309739F022E0DC012C9344
:105900000480F581E02D09940895209125033091BC
:1059100026032817390771F09093260380932503F7
:10592000E0912703F0912803309721F00680F7815A
:10593000E02D099408952091230330912403281722
:10594000390771F09093240380932303E091270398
:10595000F0912803309721F00084F185E02D09941F
:1059600008959C012E5F3F4FAC01485F5F4F80E080
:105970002417350709F40895F90191919F0199239E
:10598000B9F38F5FF5CF662349F0FC013296089694
:105990002191261729F0E817F907D1F780E008953B
:1059A00081E008959C01FC0132969FEF80E04191D7
:1059B000461751F09F3F19F4411101C0982F8F5F96
:1059C0008630A9F79F3F09F40895290F311D97FDEF
:1059D0003A95F90162830895FC0132960896219167
:1059E000261303C0DF0111971C92E817F907B9F7D6
:1059F00008950C94D22C0C94EC2C029626E0FC0119
:105A000011922A95E9F7089508950C94042D8111B7
:105A100005C081E0809329030C94052D82E0FACF24
:105A200083E0809329030C94052D0C94072D81E0CD
:105A3000809329030C94052D0C94172D08958091C3
:105A40007D05843031F10E94B80A10922A0388E162
:105A500090E020E40FB6F894A895809360000FBE04
:105A60002093600083B7817F846083BF83B78160A8
:105A700083BF7894889583B78E7F83BF0FB6F894E1
:105A8000A89580916000886180936000109260000A
:105A90000FBE089508950895CF930E944A2D0E9445
:105AA00035070E944B2DC0E08C2F0E9462068111A9
:105AB00005C0CF5FC431C1F7CF91089581E0FCCF1D
:105AC0000E94700F0C942C0B1F921FB61F92112472
:105AD0008F939F93AF93BF9380912A03811113C03B
