:100000000C94DE050C9425060C9425060C944229CC
:100010000C9425060C9425060C9425060C942506B4
:100020000C9425060C9425060C943B310C940F324D
:100030000C94D42B0C9425060C9425060C942506C0
:100040000C9425060C9425060C9425060C94250684
:100050000C9425060C94472C0C9425060C9425062C
:100060000C9425060C9425060C9425060C94250664
:100070000C9425060C9425060C9425060C94250654
:100080000C9425060C9425060C9425060C94250644
:100090000C9425060C9425060C9425060C94250634
:1000A0000C9425060C9425060C942506202020206F
:1000B00020200A005343524C434B0A0020202020AA
:1000C000202020004341504C434B20002020202082
:1000D000202020004E554D4C434B2000556E64654A
:1000E00066696E65640041444A5553540A004C4F9A
:1000F0005745520A0052414953450A00444546417A
:10010000554C540A004C617965723A200080818216
:10011000838485868788898A8B8C8D8E8F90919237
:100120009394A0A1A2A3A4A5A6A7A8A9AAABACAD8D
:10013000AEAFB0B1B2B3B4C0C1C2C3C4C5C6C7C804
:10014000C9CACBCCCDCECFD0D1D2D3D4001F0020C2
:10015000002100220001001A00080015001700010C
:10016000001600070009000A0001001B0006001924
:100170000005000100E2008B002C002C00115F1E26
:1001800000350000000000000014002B00000000FB
:10019000000000040039000000000000001D00E124
:1001A00000000000000000E300E00000000000008C
:1001B0000027002600250024002300130012000C55
:1001C0000018001C0033000F000E000D000B00385B
:1001D000003700360010001100650088008A002CEE
:1001E00000105F2D002E008900000000002F00305D
:1001F000002A000000000034003200280000000047
:100200000087005200E50000000000500051004F40
:100210000000000000010001000100010001001FBA
:100220000020002100220001000100010001000166
:1002300000010001000100010001000100010001B6
:1002400000010001000100010001000000000000A9
:10025000001E00010000000000000001000100007D
:10026000000000000001000100000000000000018B
:100270000001000000000000000100010001000179
:1002800000010027002600250024002300010001B2
:100290000001000100010001000100010001000156
:1002A0000001000100010001000100010001000146
:1002B000000000000001000100010000000000013A
:1002C0000001000100000000000100010001000029
:1002D0000000000100010001000000000001000119
:1002E0000001000100C25C0100010001000100C921
:1002F0005C0100010001000100C55C01000100017A
:10030000000100C75C0100010001000100010001C3
:1003100000010000000000000001000100000000DA
:1003200000000001000100000000000000010001C9
:1003300000000000000000010001000000000000BB
:1003400000010001000100010001000100010001A5
:100350000001000100010001000100010001000195
:100360000001000100010001000100010001000185
:100370000001000100010001000000000001000177
:100380000001000000000001000100010000000069
:100390000001000100010000000000010001000157
:1003A0000000000000010001000100010001000147
:1003B0000001000100010001000100010001000135
:1003C0000001000100010001000100010001000125
:1003D0000001000100010001000100000000000018
:1003E0000001000100000000000000010001000009
:1003F00000000000000100010000000000000001FA
:1004000000010000000000000001000100010001E7
:1004100000010001000100010001000100010001D4
:1004200000010001000100010001000100010001C4
:1004300000010001000100010001000100010001B4
:1004400000000000000100010001000000000001A8
:100450000001000100000000000100010001000097
:100460000000000100010001000000000000000089
:1004700000000000002A2B280000000000000000FF
:10048000000000000000000029000000002C1E34C5
:1004900020212224342627252E362D3738271E1FCB
:1004A000202122232425263333362E37381F0405F6
:1004B000060708090A0B0C0D0E0F10111213141564
:1004C000161718191A1B1C1D2F3130232D35040542
:1004D000060708090A0B0C0D0E0F10111213141544
:1004E000161718191A1B1C1D2F3130354C0000002F
:1004F00000000000000000000000000000000000FC
:1005000000000000000000000000000000000000EB
:10051000007E0F00D4FFFFFFC70000007800AE0090
:10052000AF00DA0281FFD9F1DB20A4A62EAF00A034
:10053000C000A1C800AED580A81FD300408D1420F4
:10054000000000000000003E5B4F5B3E003E6B4F32
:100550006B3E001C3E7C3E1C00183C7E3C18001C80
:10056000577D571C001C5E7F5E1C0000183C180065
:1005700000FFE7C3E7FF00001824180000FFE7DBD7
:10058000E7FF0030483A060E002629792926004068
:100590007F05050700407F05253F005A3CE73C5A90
:1005A000007F3E1C1C0800081C1C3E7F0014227F9C
:1005B0002214005F5F005F5F0006097F017F00007B
:1005C0006689956A0060606060600094A2FFA294F2
:1005D0000008047E04080010207E20100008082A6D
:1005E0001C0800081C2A0808001E10101010000C1F
:1005F0001E0C1E0C0030383E383000060E3E0E0633
:100600000000000000000000005F00000000070084
:10061000070000147F147F1400242A7F2A1200236D
:100620001308646200364956205000000807030092
:1006300000001C224100000041221C00002A1C7FF7
:100640001C2A0008083E08080000807030000008DE
:10065000080808080000006060000020100804027C
:10066000003E5149453E0000427F4000007249492A
:100670004946002141494D33001814127F100027CC
:1006800045454539003C4A49493100412111090796
:1006900000364949493600464949291E00000014E0
:1006A0000000000040340000000008142241001443
:1006B0001414141400004122140800020159090600
:1006C000003E415D594E007C1211127C007F494969
:1006D0004936003E41414122007F4141413E007F79
:1006E00049494941007F09090901003E41415173CF
:1006F000007F0808087F0000417F41000020404142
:100700003F01007F08142241007F40404040007FAD
:10071000021C027F007F0408107F003E4141413EE1
:10072000007F09090906003E4151215E007F091939
:1007300029460026494949320003017F0103003F51
:100740004040403F001F2040201F003F4038403FB6
:10075000006314081463000304780403006159491A
:100760004D4300007F414141000204081020000079
:100770004141417F000402010204004040404040EA
:10078000000003070800002054547840007F2844EC
:10079000443800384444442800384444287F003812
:1007A000545454180000087E09020018A4A49C7830
:1007B000007F080404780000447D40000020404091
:1007C0003D00007F102844000000417F4000007C75
:1007D00004780478007C08040478003844444438E1
:1007E00000FC182424180018242418FC007C080499
:1007F00004080048545454240004043F4424003C9A
:100800004040207C001C2040201C003C4030403CEC
:10081000004428102844004C9090907C004464547C
:100820004C44000008364100000000770000000042
:1008300041360800000201020402003C2623263C47
:1008400000000000000000404040F0F8F8FF38FFD2
:10085000F8F83FF8F8FF38FFF8F8F04040400000A3
:100860000000000080C0C0C0800000C0C080000048
:100870000080C0C000C0C0000080C0C000000000F8
:1008800000C0C0C0C0C000C0C00000000000000028
:100890000000000000000000000000000000000058
:1008A0000000000000000000000000000000000048
:1008B0000000000000000000000000000000000038
:1008C000C0F0F8FC3E1E06010000007F4141417F60
:1008D000007F4141417F000080C0E07E5B4F5BFEB6
:1008E000C00000C000DCD7DEDEDED7DC00C00000C8
:1008F00000000000000000000000000000000000F8
:1009000000000000000000494949FFFFFFFFE0DF51
:10091000BFBF00BFBFDFE0FFFFFFFF494949000045
:100920000000001F3F6060E0BF1F007F7F071E3890
:100930001E077F7F007F7F0E1F3B7160000000005D
:10094000007F7F0C0C0C007E7E007F7E0303007F07
:100950007E03037E7E03037F7E000F3E703C063CD9
:10096000703E0F00327B49493F7E007F7E030300CB
:100970001E3F69696F2600000000000000000000B3
:10098000030F1F3F3C7870600000007F4141417FB2
:10099000007F4141417F00307B7F783020203078DC
:1009A0007F3B0003000F7F0F0F0F7F0F000300003E
:1009B0000000000000000000000000000000000037
:1009C00000000000000000010101070F0F7F0F7FF2
:1009D0000F0F7E0F0F7F0F7F0F0F07010101000028
:1009E0000000000000000000010100000000000005
:1009F00000000000000000000000000000000000F7
:100A000000000000000000000000000000000000E6
:100A100000000000000000000000000000000000D6
:100A200000000000000000000000000000000000C6
:100A300000000000000000000000000000000000B6
:100A400000000000000000000000000000000000A6
:100A50000000000000000000000000000000000096
:100A60000000000000000000000000000000000086
:100A70000000000000000000000000000000000076
:100A8000001403680061006C00660063006C00697C
:100A90000066006600000006036E003200000004DD
:100AA00003090409025B00030100A0FA0904000025
:100AB0000103010100092111010001224000070585
:100AC000810308000A090401000203000000092153
:100AD0001101000122220007058203200001070501
:100AE00003032000010904020001030000000921A2
:100AF000110100012249000705840320000A1201A8
:100B0000000200000008350321000100010200017D
:100B10000660FF0961A1010962150026FF0095200A
:100B2000750881020963150026FF0095207508915C
:100B300002C005010902A10185020901A100050900
:100B40001901290815002501950875018102050183
:100B5000093009311581257F95027508810609380C
:100B60001581257F950175088106050C0A38021547
:100B700081257F950175088106C0C005010906A180
:100B800001050719E029E715002501950875018180
:100B9000029501750881010507190029FF15002636
:100BA000FF009506750881000508190129059505BE
:100BB00075019102950175039101C00011241FBEBA
:100BC000CFEFDAE0DEBFCDBF04B603FE27C08091D1
:100BD0002F0590913005A0913105B09132058730F5
:100BE000904BA740B04BD1F410922F0510923005D6
:100BF000109231051092320514BE84B7877F84BFEE
:100C00000FB6F894A8958091600088618093600089
:100C1000109260000FBEE0E0F8E3099511E0A0E05B
:100C2000B1E0ECE5F9E602C005900D92A839B107F4
:100C3000D9F725E0A8E9B1E001C01D92AF32B207B3
:100C4000E1F70E949A1B0C9475340C940000F89400
:100C5000E82FE295EF70F0E031A1282F2F7081E0AE
:100C600090E001C0880F2A95EAF7382B31A392A1B2
:100C70008095892382A378940895F894E82FE295CB
:100C8000EF70F0E031A1282F2F7081E090E001C0DB
:100C9000880F2A95EAF7982F9095932391A392A114
:100CA000892B82A37894089508950C94540608958E
:100CB0000C9457060895E82FF0E0E155FE4F80812F
:100CC000089508950F931F93CF93DF930E944E19B9
:100CD00080910601809106019AE0811190E0909345
:100CE00002038AE0891B80930103CAE5D1E08E01EB
:100CF000F80181918F010E943D06F1E004361F0743
:100D0000B9F784E30E943D0686EC0E943D0686E624
:100D10000E943D0686E30E943D0682E30E943D0656
:100D200084E30E943D0686EC0E943D0686E60E9412
:100D30003D0686E30E943D0682E30E943D068991BE
:100D40000E943D0681E0C436D807C9F7E3ECF1E024
:100D5000AFEAB1E011921D9281E0E73DF807D1F7CB
:100D60008AE00E94FD180E94C90ADF91CF911F916D
:100D70000F910C945819FF920F931F93CF93DF9309
:100D8000CDB7DEB72A970FB6F894DEBF0FBECDBF42
:100D90000E943419F82E60910203882309F451C08F
:100DA0008E010F5F1F4F8AE0F80111928A95E9F7D3
:100DB000862F90E0B80181559E4F0E94BB1981118A
:100DC00023C08091AE018F5F8093AE018630B8F171
:100DD000E0910103F0E0E155FE4FD801CE010B9602
:100DE00011921D92A817B907D9F70E94CF0A8F2D2B
:100DF0002A960FB6F894DEBF0FBECDBFDF91CF911C
:100E00001F910F91FF9008951092AE01A0910103E0
:100E1000B0E0A155BE4F9E01255F3F4FF12C4D9193
:100E2000F80191918F01491731F0AD0141505109FD
:100E3000FA019083F82E0217130789F7D6CFF12C09
:100E4000D4CF70E061557E4F8091010390E08155D1
:100E50009E4F0E94BD190E945A06C9CF6F927F9281
:100E60009F92AF92BF92CF92DF92EF92FF920F9339
:100E70001F93CF93DF9303EC11E04AE5C42E41E0CA
:100E8000D42EC0E0D1E0D601AD906D018A2D0E9434
:100E90002706B0EABA95F1F735E5E32E31E0F32EF7
:100EA000F70130E020E0B12C4191A42FA295AF7062
:100EB000B0E090968C9190E04F7002C09595879528
:100EC0004A95E2F780FD94C08D2F022E01C0880F55
:100ED0000A94EAF7B82A2F5F3F4F2530310521F7F2
:100EE0008A2D0E943D06E0EAEA95F1F7D8018C913F
:100EF000B81609F47FC0BC9281E0C82B0F5F1F4F6A
:100F0000BFE5CB16B1E0DB0609F0BDCF10E000E095
:100F1000AA24A394B12C24EAC22E21E0D22EF701F8
:100F200091907F01892D0E942706F0EAFA95F1F74A
:100F3000C501002E01C0880F0A94EAF7782F682FA8
:100F40006095EAE9F1E08AE5682E81E0782ED0E04C
:100F50003191D3012D913D01422F42954F7050E0C8
:100F6000DA0190968C9190E02F7002C0959587954C
:100F70002A95E2F780FD40C0872F832B381731F088
:100F80009F0121503109D9018C93D1E0CE16DF06A3
:100F9000F9F6892D0E943D06043019F0B0EABA95A1
:100FA000F1F7CD2B61F50F5F1F4F0530110509F0EB
:100FB000B6CF6091020370E061557E4F2C2F4AE05E
:100FC00083EC91E00E94FE180E94BB06C11101C093
:100FD000C82F8C2FDF91CF911F910F91FF90EF9031
:100FE000DF90CF90BF90AF909F907F906F900895CB
:100FF00080E070CF80E081CF862F8323BFCF8091A8
:101000009F018093C8018091A0018093C9018091C4
:10101000A1018093CA018091A2018093CB018091AC
:10102000A3018093CC01BFCFCF93DF93FA0162304D
:10103000710519F42230310539F08FEF818381E099
:1010400090E0DF91CF9108951B9B33C02B9A239A98
:1010500047E050E02998EC01288130E0042E02C0DE
:10106000359527950A94E2F720FF25C02B9A299AF7
:101070004150510978F72AE12A95F1F700C02398E9
:101080002B9A118287E090E02998299A23B123FBBB
:10109000AA27A0F9B0E0AD01082E01C0440F0A94C0
:1010A000EAF72181242B2183019770F790E080E0FB
:1010B000C8CF2B98CCCF2B98DACF0F93CF93DF9359
:1010C00000D000D0CDB7DEB71B828FEF8C83898331
:1010D0008A83E0910001F09101010FEF22E030E0FE
:1010E000AE014F5F5F4F62E070E0CE01039609955D
:1010F0008A810F900F900F900F90DF91CF910F91F9
:101100000895219A23982B9A0895AF92BF92CF9277
:10111000DF92EF92FF920F931F93CF93DF9300D054
:1011200000D0CDB7DEB75C016B017A0182E08B8322
:101130001FEF1C8319831A83E0910001F0910101D4
:101140000FEF22E030E0AE014F5F5F4F62E070E0F2
:10115000CE01039609958A81F501808383E08B8314
:101160001C8319831A83E0910001F091010122E0B0
:1011700030E0AE014F5F5F4F62E070E0CE0103965A
:1011800009958A81F601808384E08B831C8319830F
:101190001A83E0910001F091010122E030E0AE01FC
:1011A0004F5F5F4F62E070E0CE01039609958A8140
:1011B000F701808381E090E00F900F900F900F90E7
:1011C000DF91CF911F910F91FF90EF90DF90CF9023
:1011D000BF90AF900895CF93C82F0E94341981110A
:1011E00001C0C2E08C2FCF910895CF930E940123BC
:1011F000882349F00E94341960E0811107C08DE016
:1012000091E00E94B32180E0CF91089585E091E0C4
:101210000E94B321809105020E941A0C813071F165
:10122000882351F0823071F1833081F160E08CEDE0
:1012300090E00E94C52105C060E08CEF90E00E9424
:10124000B3210E94D92AC82F8CEC90E0C0FF02C0C5
:1012500084ED90E060E00E94B3218CEB90E0C1FF50
:1012600002C084EC90E060E00E94B3218CEA90E040
:10127000C2FF02C084EB90E060E0C3CF60E085EF86
:1012800090E0DDCF60E08EEE90E0D9CF60E086EEBA
:1012900090E0D5CF1F93CF93DF93182FD62F0E94C6
:1012A000F825C82F882341F0123030F4DD2349F0AF
:1012B00089EF0E948D0DCD2F8C2FDF91CF911F9143
:1012C00008958AEF0E948D0DF7CFFB01893F9105AC
:1012D00009F43FC028F4843F910598F481E057C099
:1012E0008B3F910509F454C008F445C08C3F91052B
:1012F000A9F78281882309F459C081E0809308030B
:101300002EC040910A03845F910921E030E0B901C9
:1013100002C0660F771F8A95E2F7CB012281222354
:10132000A9F0842B80930A034091090350910A038A
:1013300060910B0370910C0380910D0390910E034B
:101340000E94C21E0E94671E80E00895809584233B
:10135000E9CF8281882331F081E080930703809375
:10136000DA01F2CF9091070319168CF4109207035B
:101370001092DA01E9CF8281882329F08FEF8093E0
:10138000070381E0ECCF9091070397FDEFCF08951D
:101390008281882321F08FEF80930803F2CF909110
:1013A000080397FFF4CF10920803E2CF909108034F
:1013B0001916CCF308950C948108CF93DF9300D0D5
:1013C0000F92CDB7DEB78091DA01882329F18091A1
:1013D000DB019091DC0101969093DC018093DB01AD
:1013E0000A97D1F48091070380930D03909108032D
:1013F00090930E034091090350910A0360910B03EF
:1014000070910C030E94C21E10920D0310920E03E5
:101410001092DC011092DB018091D8019091D901EA
:101420009C012F5F3F4F3093D9012093D80162E395
:1014300070E00E94F333892B89F50E945D088033A8
:1014400019F581E08093D701AE014F5F5F4FBE0178
:101450006E5F7F4FCE0103960E9485086A81619579
:1014600060930B037981719570930C038B8187FFD7
:101470000DC04091090350910A0380910D03909192
:101480000E030E94C21E02C01092D7010E94671E66
:101490000F900F900F90DF91CF9108958091D70119
:1014A0008823A1F3D1CF81E008950C9465090895B4
:1014B0000C94570A1F93CF93DF9300D000D00F9264
:1014C000CDB7DEB749835A836B833091DD018981C3
:1014D0009A8131111DC06623B9F02223A9F00E9420
:1014E000F710182F682F89819A810E94A0106981B6
:1014F0007A81812F0F900F900F900F900F90DF91B6
:10150000CF911F910C942F250E94CE10182FEFCF52
:101510000E94F71069817A81EDCFFC01262F40816E
:1015200051816281738184810C945A0A81E008950B
:10153000CF93DF93EC0160E00E948D0ABE01DF9142
:10154000CF910C94580AE1E0F0E0DF0102C0AA0F4D
:10155000BB1F6A95E2F7BD01DF0102C0AA0FBB1FE6
:101560004A95E2F76A2B01C0EE0F2A95EAF7962F0B
:101570009823961302C08E2B0895E0958E2308952C
:10158000242F462F682F809105020E94A30A0C94F5
:101590005D100E94E3180E94320C0C9455060C94C6
:1015A000580680E00E94330C0E94E6220C94DD096C
:1015B000089508950E94F50F0E94D90A2FEF84E341
:1015C0009CE0215080409040E1F700C000000C9466
:1015D0006B2C0F931F93CF93DF938C0161E00E94DC
:1015E0008D0AEC01B8010E94381F8823D9F1B80197
:1015F000CE010E94550A8823A9F1B801CE010E94AC
:101600004127882379F1B801CE010E943D23882328
:1016100049F1B801CE010E94AB26882319F1F801E7
:101620008281882361F0CA35FDE5DF0721F170F47E
:10163000C115ECE5DE07A1F0CE3DDC45C9F0C801DF
:10164000DF91CF911F910F910C94530ACB358DE50B
:10165000D807A1F0CC35DD4591F70E940A15EFCFF0
:101660000E94DA0A80E0DF91CF911F910F910895D7
:101670000E94C315F7CF0E941315E1CF0E941615E3
:10168000DECF0C94D80A0E94C62A0E94330C0C9418
:10169000410BDF92EF92FF920F931F93CF93DF9353
:1016A000E82FF0E0E359FB4FD490282F269526959C
:1016B000269530E0F901E35FFA4F0491877010E05E
:1016C000082E02C0159507950A94E2F701701127BC
:1016D000F901E350FB4FE490F12C082E02C0F59481
:1016E000E7940A94E2F791E0E922FF24F901E3513B
:1016F000FB4FC491D0E002C0D595C7958A95E2F71B
:10170000C170DD270115110519F081EE0E94A80CAA
:10171000E114F10419F086EE0E94A80C8D2D0E94B0
:101720008D0DEF2819F086EE0E94200D012B19F087
:1017300081EE0E94200DCD2B51F08CE2DF91CF91F4
:101740001F910F91FF90EF90DF900C948D0DDF9122
:10175000CF911F910F91FF90EF90DF900895EF923E
:10176000FF920F931F93CF93DF93EC01162F0AE0A4
:101770008881882309F454C0813009F04EC08981E2
:10178000813099F47E0122E0E20EF11C8A810E94F0
:101790008D0DE7012196812F815050F3EFE9FFE095
:1017A0003197F1F700C00000F7CF823041F47E019D
:1017B00082E0E80EF11C8A810E94A80CEACF8330F7
:1017C00041F47E01E2E0EE0EF11C8A810E94200DC0
:1017D000E0CF843011F02196DDCF2A81229690E06F
:1017E00080E0AE014F5F5F4F2053330B2A3031054D
:1017F00048F0019778F2EFE9FFE03197F1F700C088
:101800000000F7CF089FB001099F700D1124C90196
:10181000860F971F2981EA01E4CF0E94490BBACFB6
:10182000DF91CF911F910F91FF90EF90089560E0AD
:101830000C94AF0B982F92959F7011F0892F94E024
:10184000282F2695269511F09E5F822F869509F008
:101850009F5F892F089508950C942B0C81E00895C3
:101860000C942E0C0895CF93C82F0E942C0C8C2F13
:10187000CF910C94300CCF93DF93CDB7DEB72B977D
:101880000FB6F894DEBF0FBECDBF4F835887698770
:101890007A878B8761110E9465141E821D8285E004
:1018A000FE013796DE01119601900D928A95E1F7BF
:1018B0008C819D81892B89F449815A816B817C813E
:1018C0008D819E810E9486132B960FB6F894DEBF01
:1018D0000FBECDBFDF91CF91089589819A81892371
:1018E0008F3F51F3CE0101960E94960A8111E4CFF9
:1018F000EBCFFC01808191810C9424110F931F93F5
:10190000CF93DF9300D000D000D0CDB7DEB7082F43
:10191000162F0E94A11E29834B835C836D837E83D7
:10192000002399F0312B4981532F6B817C818D816C
:101930009E8126960FB6F894DEBF0FBECDBFDF9115
:10194000CF911F910F910C94C21E10953123EBCFB4
:10195000CF93C82F882309F471C08238C1F40E9444
:10196000C62A81FD6BC089E30E9420140E9488145E
:101970002FEF81EE94E0215080409040E1F700C0CD
:10198000000089E30E942714CF910C9488148338B7
:10199000A1F40E94C62A80FD51C083E50E94201454
:1019A0000E9488142FEF81EE94E0215080409040F7
:1019B000E1F700C0000083E5E5CF8438A1F40E9480
:1019C000C62A82FD3BC087E40E9420140E9488142E
:1019D0002FEF81EE94E0215080409040E1F700C06D
:1019E000000087E4CFCF8CEF8C0F813A90F46C2FFE
:1019F00080910401909105010E94332B882329F0E6
:101A00008C2F0E9427140E9488148C2F0E9420146F
:101A1000BBCF80E28C0F883048F4C77081E001C0F2
:101A2000880FCA95EAF70E944814AECFC03F30F045
:101A30008C2F0E942A1CCF910C94FD1CCF910895ED
:101A4000882309F452C0823871F40E94C62A81FFAB
:101A50004CC089E30E9420140E94881489E30E94EC
:101A600027140C948814833859F40E94C62A80FFE6
:101A70003CC083E50E9420140E94881483E5EFCFC8
:101A8000843859F40E94C62A82FF2FC087E40E943E
:101A900020140E94881487E4E2CF9CEF980F913ABB
:101AA000F0F290E2980F983050F4877091E001C006
:101AB000990F8A95EAF7892F0E944E14D2CF9BE5A1
:101AC000980F933020F490E080E00C94F52A98E58C
:101AD000980F973120F490E080E00C940B2B803F1E
:101AE00020F00E94841C0C94FD1C08951F93CF933A
:101AF000DF93182FEB010E94A80C209731F4812F5F
:101B0000DF91CF911F910C94200D8FE99FE00197F9
:101B1000F1F700C000002197F0CF70E060E089335A
:101B200011F460E570E00C94760D882321F00E949A
:101B300048140C9488140895882321F00E944E14B0
:101B40000C9488140895BF92CF92DF92EF92FF9287
:101B50000F931F93CF93DF936C01D62FC72FFC01F8
:101B60001281F580F2949FE0F9220E943E14E82E43
:101B70008823B9F0E12E1123A1F08C2F807F8034CF
:101B800021F080E28D0F8830D0F08091140382FD27
:101B900016C082E00E94D9140E943E1491E0E82E03
:101BA000E926BC2EB2948FE0B822FBE0FB1508F4C6
:101BB00068C0EB2DF0E0E958FB4C0C940734E12CA5
:101BC000F0CF0C2F0F70C07F11F00295007F112312
:101BD00099F0002359F080E28D0F883010F0D11178
:101BE00007C0802F0E9448140E9488148D2F41C086
:101BF000802F0E945814F8CF8D2F0E94200D0023B3
:101C000009F43FC080E28D0F883010F0D11104C07C
:101C1000802F0E944E1403C0802F0E945E140E94E9
:101C200088142FC00C2F0F70C07FC03211F00295A6
:101C3000007FDD2381F0D13009F46AC0112309F45B
:101C400074C0FF2009F46AC0F601858180FFCECF01
:101C50008F70858363C08091140382FF39C0112384
:101C600059F0002329F0802F0E9448140E94881404
:101C700080E00E94A80C05C080E00E94200D0111A8
:101C8000C7CF2B2D2850330B2430310520F40E9470
:101C9000C62A0E94330CEE2009F44CC10E943A146B
:101CA00080FD48C1F60112820E9434140E946E1019
:101CB000C6010E94BB0F0E943414DF91CF911F9187
:101CC0000F91FF90EF90DF90CF90BF900C94791020
:101CD000112389F0F11006C00E946B14802B0E9422
:101CE000950DCFCF21E0F212F7CF0E946B14802B1D
:101CF0000E947114C6CFF11006C00E947E14802F7E
:101D00000E949C0DBECF31E0F31609F4BACFF5CF97
:101D1000112331F085E08F1508F4B3CF802FDFCF8A
:101D200094E09F1508F4ADCFEACFFF2041F3D933FB
:101D300049F4FFEF27EE33E0F15020403040E1F767
:101D400000C000008D2F0E94200D9BCF8D2F1123EE
:101D500091F00E942A1CED2FE45FFF0BE530F105A6
:101D600068F461E070E001C0660FEA95EAF7812F40
:101D70000E947E0C86CF0E94841CEDCF0E94FD1C29
:101D800080CF8C2F837079F511117BCF4D2F429529
:101D900046954770440F440F8D2F8F70042E01C05D
:101DA000880F0A94EAF72D2F2071D4FF07C02FE087
:101DB00030E001C0220F4A95EAF72095C695C695F6
:101DC000C370822BC23049F058F4C13019F00E9420
:101DD0004F1057CF0E944A1054CF0E94541051CF39
:101DE0000E9448104ECF8695112311F08C2F8170E0
:101DF000882309F446CF4D2F429546954770440FEE
:101E0000440F8D2F8F70042E01C0880F0A94EAF7BB
:101E10002D2F2071D4FF07C02FE030E001C0220F2A
:101E20004A95EAF72095C695C695C370822BC230B5
:101E300049F058F4C13019F00E94951022CF0E9449
:101E400090101FCF0E949A101CCF0E945D1019CFD6
:101E5000CF70112329F08C2F0E946E108D2F3FCF51
:101E60008D2F0E949C0D8C2F0E9479100ACFD23F9B
:101E700051F160F4D03FB9F0D13F81F0112309F462
:101E800049C0F110B3CE8C2F8F7121C0D33F11F117
:101E9000D43FA1F78091140382FF26C08C2F8F714D
:101EA000112311F314C0112349F0F4E0FF1508F4D5
:101EB000E8CE8C2F8F710E948510E3CE25E02F1580
:101EC00008F4DFCEF6CF8C2F8F711111CDCF0E9489
:101ED0006E10D7CE112329F08C2F8F710E946610BF
:101EE000D0CE0E946310CDCE112349F0CF718C2F3C
:101EF0000E946E1063E08C2F0E94BE14C2CE81E05F
:101F00000E94D91431E03F1508F0BBCE82E00E9458
:101F1000D914B7CEFF2059F0D93309F013CF8FEF82
:101F200097EEE3E081509040E040E1F709CF8C2F3D
:101F30008F719ACFDF91CF911F910F91FF90EF900A
:101F4000DF90CF90BF9008950F931F93CF93DF93AF
:101F5000EC01688179818A810E942E118C010E9496
:101F60009F100E944710B801CE01DF91CF911F91C1
:101F70000F910C94A30DCF93DF93EC018B819C8187
:101F8000892B29F08881998189238F3F59F4DF912A
:101F9000CF910895CE010E94A40FCE01DF91CF9181
:101FA0000C94980ACE010E94E90A8111F3CF0E9495
:101FB0003E14882361F38A81882349F380911403B6
:101FC00082FDE5CF82E0DF91CF910C94D9140E947D
:101FD00065140E9468140E9488140E94241E0C94A8
:101FE000FD1C0E942E140C94E70F0E9455140C94B3
:101FF000F10FE92FE295EF70E250EE3070F4F0E06F
:10200000ED57FB4C0C940734803F19F020F4883EC8
:1020100020F481E00895843FE1F380E00895883E54
:10202000C0F3813FD1F7F5CF93FB882780F908955E
:10203000FC01808191810E9424110C94F90FCF93AF
:10204000DF9300D000D00F92CDB7DEB70F900F9086
:102050000F900F900F90DF91CF910895CF93DF9362
:1020600000D000D000D0CDB7DEB726960FB6F894DA
:10207000DEBF0FBECDBFDF91CF91089508950C94C0
:102080003E100E943F10809306020C94E70F0895C3
:102090000C94411090910602892B0C944110909160
:1020A000060289230C9441109091060289270C9412
:1020B00041100C943E100C9459100E945B108093B8
:1020C00005020C94E70F80E00C945D1091E001C0D4
:1020D000990F8A95EAF7892F0C945D1021E030E082
:1020E00001C0220F8A95EAF780910502822B0C9499
:1020F0005D1021E030E001C0220F8A95EAF72095BB
:102100008091050282230C945D1021E030E001C033
:10211000220F8A95EAF78091050282270C945D10C0
:1021200090910502892B0C945D10909105028923F2
:102130000C945D109091050289270C945D10089510
:10214000E92FEE0FEE0F9E0F890F982F977041E049
:1021500001C0440F9A95EAF786958695869593E097
:10216000899FF0011124E252FE4F30E020E070E040
:102170005191DF011197CB01022E02C096958795F0
:102180000A94E2F7817081958527842385278C93B3
:102190002F5F3F4F2330310559F70895E92FEE0F98
:1021A000EE0F9E0F890F982F9770869586958695CE
:1021B00023E0829FF0011124E252FE4F50E040E004
:1021C00080E0219130E0092E02C0369527950A94CF
:1021D000E2F721703327042E01C0220F0A94EAF798
:1021E000822B4F5F5F4F4330510559F70895CF92CF
:1021F000DF92FF920F931F93CF93DF936C010091B7
:10220000050280910602082BC7E0D0E010E0FC2E0A
:10221000C8010C2E02C0959587950A94E2F780FDBF
:102220000CC02197A0F7F12C8F2DDF91CF911F913A
:102230000F91FF90DF90CF900895B6018C2F0E94F0
:10224000AA17019771F3F0CFCF93DF93EC010E94AF
:10225000F710BE01DF91CF910C94AA171F93CF9373
:10226000DF93EB019091DD01992331F0CB01DF91F8
:10227000CF911F910C942411882379F0CB010E94F7
:10228000F710182F682FCE010E94A010BE01812FD9
:10229000DF91CF911F910C94AA17CB010E94CE1011
:1022A000182FF4CF1F93CF93DF93C091070216E04E
:1022B000809108028C1304C0DF91CF911F91089583
:1022C000D0E01C9FF0011D9FF00D1124E75FFD4F32
:1022D0004081518162817381848195810E942E1099
:1022E0002196C770E5CF4091390250913A02609132
:1022F0003B0270913C0280913D0290913E020C9411
:102300002E10FF920F931F93CF93DF9380913E0285
:10231000807FD1F480913B028823B1F08091070245
:10232000109108026091390270913A02A0913C022A
:10233000B0913D02062F0723C0910201D091030105
:1023400096E0F92E181306C0DF91CF911F910F91DF
:10235000FF90089590E0109711F00F3F19F4019647
:102360008770F0CFF89E9001F99E300D1124F9018D
:10237000E75FFD4F41814713F2CF40814613EFCF16
:1023800042814111ECCF438154814A1B5B0B4C17B6
:102390005D0728F780913E028F70806180933E0236
:1023A000F901E25FFD4F80818F708061808389E356
:1023B00092E00E94BB0FDF91CF911F910F91FF9090
:1023C0000C945211AF92BF92CF92DF92EF92FF9294
:1023D0000F931F93CF93DF93CDB7DEB761970FB6FF
:1023E000F894DEBF0FBECDBF8C0185E0F801DE01A1
:1023F0001D9601900D928A95E1F7F801E28089E33C
:10240000C82E82E0D82E60913C0270913D02611589
:10241000710509F45FC19091390220913A02892F28
:1024200082238F3F09F456C140815181A380B4803B
:10243000F0903B02F501E61BF70BBF01E0910201B2
:10244000F0910301FF2009F4F6C080913E02382F7D
:10245000307F6E177F0708F0AFC0311179C0FE2CB6
:10246000251323C0941321C0E1101FC08F70806119
:1024700080933E020E947311C6010E94BB0F80919F
:102480003E02F80185838F2D61960FB6F894DEBF6A
:102490000FBECDBFDF91CF911F910F91FF90EF90B5
:1024A000DF90CF90BF90AF900895AB2829F0842F94
:1024B00085238F3F09F027C180E0F82FF170DF2ED0
:1024C00080FF3CC0809107022091080236E0821311
:1024D00015C04D875E878D859E850E942411292F0A
:1024E00022952F702230F0F0243018F59F70F1F013
:1024F000F8019581907FD1F4D12C1EC090E0389FD7
:10250000F001399FF00D1124E75FFD4F61816513E4
:1025100006C06081641303C062816E110FC0019612
:102520008770D5CF9F7011F0882331F3805E88309B
:1025300018F3C8010E94BB0FFD2CA5CFEE2009F4B3
:10254000A2CF80913E02816080933E02F12C9BCF0E
:10255000251306C0941304C0F801EE2009F487C0C7
:10256000C8010E941810882319F1EE2009F180910A
:102570003E02803270F02091390230913A02388761
:102580002F831986BB86AA868C87CE0107960E9468
:10259000BB0F86E0F801A9E3B2E001900D928A95A5
:1025A000E1F70E9481110E947311FF24F3946BCF15
:1025B000C8010E94BB0FF9CF311113C07A2DB98A1F
:1025C000A88A6E2D89890E941F1089E392E00E94DB
:1025D000BB0F86E0F60111928A95E9F70E9473110C
:1025E000B5CF25130FC094130DC0E1100BC0F80137
:1025F0008583C8010E94BB0F86E0F60111928A957F
:10260000E9F741CFC8010E941810882389F2EE2013
:1026100079F280913E02803208F4BBCF20913902DA
:1026200030913A023A8329831B82BD82AC828E8329
:10263000CE010196ACCF6E177F0708F03EC0FE2C8E
:10264000EE2009F4B5CF25132AC0941328C0809139
:102650003E0280FD1BC0982F907FC1F0F80185835A
:10266000903F31F0982F907F905F8F70892B8583FA
:10267000C8010E94BB0F86E0F801A9E3B2E0019017
:102680000D928A95E1F70E947311FDCE86E0F80164
:10269000A9E3B2E001900D928A95E1F7F4CEC8016A
:1026A0000E941810811175CF80913E028160809345
:1026B0003E02C8010E94BB0FE6CE7A2DB98AA88AD5
:1026C0006E2D89890E941F1086E0F60111928A956D
:1026D000E9F7D9CFEE2009F46BCFC8010E9418109A
:1026E000F82E882309F464CF86E0F801A9E3B2E06C
:1026F00001900D928A95E1F789E392E00E94790CAE
:102700000E948111C0CF81E08E25D7CE1F93CF9339
:10271000DF93CDB7DEB72C970FB6F894DEBF0FBEB0
:10272000CDBF4F83588769877A878B879C87CE0177
:1027300007960E94E211882369F08A859B85892B80
:1027400039F04F815885842F85238F3F09F071C060
:1027500016E05FC086E0FE013796DE01119601901B
:102760000D928A95E1F78A859B85892B89F38F8164
:10277000988589238F3F61F32091080230E0C901D9
:10278000019687709927409107024817190671F43E
:102790000E94F50F109208021092070286E0E9E30A
:1027A000F2E0DF011D928A95E9F7D2CF96E0929F81
:1027B000D001939FB00D1124A75FBD4FFE0131964C
:1027C00001900D929A95E1F7809308020E945211B0
:1027D000BFCF819FC0011124875F9D4F0E94E211EE
:1027E0008823E9F0E09107021E9FF0011124E75FC2
:1027F000FD4F4081518162817381848195810E9466
:102800002E108091070290E001968770992780939F
:10281000070280910702909108028913DACF2C9663
:102820000FB6F894DEBF0FBECDBFDF91CF911F91E1
:10283000089569857A858B859C850E942E1088CFA6
:10284000682F80910401909105010C94692B682FE9
:1028500080910401909105010C946B2B80910401EF
:10286000909105010C946D2B80913F028595859583
:102870008595089580913F028770089590913F0259
:10288000977081E009F480E0089580914B020895EB
:1028900090914B02892B80934B02089580959091E3
:1028A0004B02982390934B02089510924B02089587
:1028B00090914A02892B80934A02089580959091C5
:1028C0004A02982390934A02089510924A0208956A
:1028D00010924902089580914002089508950C9441
:1028E0006E149091140392FD08C0909140029817C5
:1028F00021F0809340020C946F140895809140025F
:10290000882329F01092400280E00C946F140895FF
:10291000E0910401F091050180914B028083E091E8
:102920000401F0910501808190914A02892B8083F6
:10293000E0910401F0910501808190914902892B79
:10294000808390914002992381F0E0910401F091FD
:1029500005018081892B808380910401909105017C
:102960000E94212B81110E947E148091040190917C
:1029700005010C94DC2A08950C94BB149091140367
:1029800092FD10C098E0899F90011124622B609302
:102990003F020E946E1080913F0285958595859536
:1029A0000C94BC140C946E1010923F0280E00C94B6
:1029B000BC1490913F028095892380933F02282F79
:1029C000277091F4282F082E000C330B9217130652
:1029D00059F09091140392FD07C0859585958595D2
:1029E0000E9479100C94D41408959091140392FBD2
:1029F000222720F9281769F080FB92F9909314039D
:102A000080911303909114030E94401582E00C946E
:102A1000D91408958091140382FB882780F991E0EE
:102A200089270C94F51481E00C94F51480E00C9443
:102A3000F5146FEF7FEF90E080E00C945F3490E04E
:102A400080E00E943B34893E9E4F11F40C94E11EBD
:102A500080E0089582E090E00C94333483E090E0CD
:102A60000C943334CF9384E090E00E943334C82F29
:102A700082E290E00E943334982F8C2FCF910895FA
:102A8000CF93C92F682F84E090E00E9441346C2FCF
:102A900082E290E0CF910C944134AB01BC018FE015
:102AA00090E00C945334AB01BC0183E190E00C94B2
:102AB000533460E070E0CB010C94531560E070E09B
:102AC000CB010E944D150C94591569EE7EEF90E0F4
:102AD00080E00E945F3460E082E090E00E94413438
:102AE00060E083E090E00E9441341092060260E0D2
:102AF00084E090E00E94413460E082E290E00E9435
:102B0000413460E085E090E00E94413460E086E07E
:102B100090E00E9441346FEF87E090E00E944134E2
:102B200040E050E0BA0188E090E00E94533460E059
:102B30008DE090E00E94413440E050E0BA0188E12D
:102B400090E00E94533460E087E190E00E944134BD
:102B500040E050E0BA018CE190E00E94533470E014
:102B600060E080E290E00E945F3440E050E0BA0113
:102B700088E190E00E94533480E00E94FA1E0E9497
:102B8000201F0C945E150C946515682F8EE090E064
:102B90000C9441340E94102C6093690270936A0275
:102BA00080936B0290936C0260936502709366024F
:102BB000809367029093680208950E94102C60939E
:102BC000690270936A0280936B0290936C02609327
:102BD000610270936202809363029093640208958D
:102BE00085B7806885BF85B7806885BF08950895DB
:102BF00008950C94F71508950C94FB150E94F01598
:102C000089EC98E10E94BC2A0E94F8150C94F915F1
:102C10000C943419089508950E940A160C940B160A
:102C20000E94FB2B0E9488180E942F1F0E946206A0
:102C30000E94282080E00E9488200E94FA250E949D
:102C4000DB090C94FC159F92AF92BF92CF92DF925A
:102C5000EF92FF920F931F93CF93DF93CDB7DEB721
:102C60002A970FB6F894DEBF0FBECDBF0E942E0785
:102C7000C82E81110E94CA158DE4A82E82E0B82EBC
:102C800010E000E0902E802F0E945B06E82EF501F8
:102C9000F1905F01F81609F45EC080916D0281FD2C
:102CA0000E9461068F2D8E25D12CFF24F394982F3E
:102CB0009F2109F44BC00E940816882399F0DE82F8
:102CC0009F82EF2081E009F480E088870E94042C35
:102CD0008160782F9A8789874E815F8168858A8590
:102CE0000E943B0CF801E35BFD4F8081F826F082E7
:102CF0000E941326182F81110E94DD150E940323C4
:102D0000C11001C011110E94CA210E94181D0E9409
:102D1000DD090E94C62A90914C02891799F10E9400
:102D2000C62A80934C022A960FB6F894DEBF0FBED7
:102D3000CDBFDF91CF911F910F91FF90EF90DF906A
:102D4000CF90BF90AF909F900C94330CD394FF0C16
:102D5000F5E0DF12ACCF0F5F1F4F0431110509F012
:102D600091CF8FEF89838A831B820E94042C81601C
:102D7000782F9D838C8349815A816B818D810E943C
:102D80003B0CB6CF2A960FB6F894DEBF0FBECDBF70
:102D9000DF91CF911F910F91FF90EF90DF90CF9037
:102DA000BF90AF909F900895CF93DF930E94AE178E
:102DB000EC01811522E5920778F5811531E593073D
:102DC00008F098C08F3F910509F0B8F4803F910555
:102DD00008F06FC0853A910540F48430910548F4BD
:102DE000019739F0D0E0C0E004C0805E91090897F7
:102DF000C8F7CE01DF91CF910895811540E5940782
:102E000008F05CC0C11580E4D80708F054C0C115B3
:102E100090E2D90770F3E6CF811526E5920718F501
:102E2000811535E5930708F07DC0811544E59407C9
:102E300008F073C0982F969596959E0123703327BE
:102E4000C115D34508F45BC0C1E0D0E002C0CC0F8F
:102E5000DD1F2A95E2F730E2939FC0011124C82BB1
:102E6000D92BDA68C6CFC1159AE5D90778F4C11510
:102E700029E5D20708F060C0C11538E5D30708F48A
:102E8000B1CFDC2FCC27C06FD06AB3CFCE01905624
:102E90008115904208F0A6CF8D2F8F710E944518A2
:102EA00090E0982F882788279F719C012C2BE9019F
:102EB00041C0D0659ECFDF70D06A9BCFE4E096958D
:102EC0008795EA95E1F783702C2F26952695237038
:102ED00090E2299F90011124382B8C2F8370C1E040
:102EE000D0E002C0CC0FDD1F8A95E2F7C22BD32BB6
:102EF000DC687FCFD82FCC27C16FD06A7ACFC1E0F2
:102F0000D0E002C0CC0FDD1F2A95E2F720E2929FAD
:102F1000C0011124C82BD92BEBCFD82FCC27C46FDD
:102F2000D06A67CF0E944518C82FD0E0DC2FCC278D
:102F3000CC27DF71D0625DCF8C2F8F700E94451837
:102F400034E0D695C7953A95E1F7CF709C2FEC0108
:102F5000D0694FCF0E942F250C94D416823891054A
:102F6000B1F1B0F48133910509F475C048F48932A8
:102F7000910509F469C08A32910509F473C0089576
:102F80008533910509F459C08933910501F10895FC
:102F9000833E9105A9F138F4803E9105F9F0823E17
:102FA000910549F10895863E9105A9F1873E910565
:102FB000C9F1843E910519F52091140321FF1FC02A
:102FC0008091130384FD14C087EE90E00895209152
:102FD00013032370A1F080EE90E008952091130375
:102FE00020FD47C03091140330FF09C024FF44C0C6
:102FF00090E080E004C02091130322FDF7CF0895F4
:103000002091130322FD3BC03091140330FDE3CF28
:1030100024FFF5CFEDCF2091130323FFF0CF24FD44
:10302000E7CFD2CF2091130323FD2CC0309114039E
:1030300031FFEECF84EE90E008952091130325FF39
:10304000DECF89E290E008952091130325FFD7CFCA
:1030500085E390E008952091130326FFD0CF8AE204
:1030600090E008952091130326FFC9CF81E390E0FB
:10307000089589E390E0089583EE90E0089582EE4C
:1030800090E0089586EE90E008959091130392FFEA
:1030900006C0282F28712830F9F4877F846093FFB9
:1030A00006C0282F28712831F1F4877E8461209191
:1030B000140320FF06C0382F38713830D9F4877FC9
:1030C000816021FF06C0282F28712831D1F4877E26
:1030D000816194FD877E0895282F24712430F9F6AC
:1030E0008B7F8860DCCF282F2471243101F78B7E01
:1030F0008861DDCF382F3171313019F78E7F8860CC
:10310000E0CF282F2171213121F78E7E8861E1CF18
:1031100010920F03109210031092110310921203D9
:103120000895CF92DF92EF92FF926B017C010E9493
:10313000341981110EC00E94102CC61AD70AE80A51
:10314000F90AC0920F03D0921003E0921103F0929B
:103150001203FF90EF90DF90CF9008950F931F938D
:103160000E943419882321F01F910F910C94102C88
:103170000E94102C00910F03109110032091110355
:1031800030911203600F711F821F931F1F910F91C7
:10319000089580E008950C9419150E942E078FE37E
:1031A0009CE90197F1F700C000000E942E0780E023
:1031B0000E945B0680FF04C00E94CB180C946B2C0D
:1031C00008950C94CD180E941F15811102C00E9411
:1031D000C3150E942A1580936D020E9432159093A8
:1031E0001403809313030E94E1180E942E150E947D
:1031F0004810809105020C945B100895FF920F9384
:103200001F93CF93DF93F82E092F162FD72FC42F9C
:10321000222349F081E0809370020E94042C909355
:103220006F0280936E02809170028823A1F08091DA
:103230006E0290916F020E941C2C059760F0EF2D9A
:10324000F02FA12FBD2FCE0FDF2FD11DEC17FD07C3
:1032500041F410927002DF91CF911F910F91FF9076
:10326000089581918D93F2CF80917102811107C0F1
:103270000E94C633882351F081E08093710281E07F
:1032800090917102913009F080E0089582E080937E
:1032900071020E94C133F3CF0C9434190E944C196F
:1032A000809306010E94341981110C9466190895C7
:1032B0000E943419811102C00C946819089581E0AC
:1032C000909172029A3008F080E008950C94FB28E7
:1032D0000C94FE28EF92FF920F931F93CF93DF93EE
:1032E0007901C82F880FDD0B41155105A9F08AE03F
:1032F0008C9FF0018D9FF00D1124E95FFE4F8381BB
:1033000094818D589D4F228130E04217530708F475
:103310009A01A9010E942A34CE010E94082A892B11
:1033200011F501151105E9F08AE08C9FF0018D9FE0
:10333000F00D1124E95FFE4F458150E00417150799
:1033400008F4A8018AE08C9FF0018D9FF00D1124F4
:10335000E95FFE4F668177816D587D4FC7010E94FE
:103360002A3481E001C080E0DF91CF911F910F915D
:10337000FF90EF9008950C941A1B0C943E1B0F9332
:103380001F93CF93DF9300D000D0CDB7DEB760910D
:103390009A0270919B0280919C0290919D020E94E2
:1033A0002B2C11E0643671058105910518F10E94FE
:1033B000AE186E5F7F4F8F4F9F4F69837A838B83E9
:1033C0009C8310E000E030E020E044E050E0BE01EB
:1033D0006F5F7F4F84E00E946A19182F882351F095
:1033E0000E94102C60939A0270939B0280939C021F
:1033F00090939D02812F0F900F900F900F90DF916F
:10340000CF911F910F9108957F928F929F92AF92CB
:10341000BF92CF92DF92EF92FF920F931F93CF93C1
:10342000DF930F92CDB7DEB7762E4A0159016801BE
:1034300001E010E09E012F5F3F4F50E040E070E060
:1034400060E00E946A19182F882309F43EC0F40135
:1034500060817181828193810E942B2C6436710579
:103460008105910558F18701950150E040E070E039
:1034700060E0872D0E946A19B82EB701C6010E942C
:10348000292011E09981981310E01B2139F00E9446
:10349000102CF4016083718382839383812F0F90BA
:1034A000DF91CF911F910F91FF90EF90DF90CF9020
:1034B000BF90AF909F908F907F900895B701C60105
:1034C0000E94292099818913CECFA701B601C50199
:1034D0000E942A34E3CFEF92FF920F931F93CF9372
:1034E000DF930F92CDB7DEB700916E0110916F019F
:1034F000045F1F4FEE24E394F12C9E012F5F3F4F9A
:1035000046E952E063E082E00E94041A182F882303
:1035100021F0CE0101960E946C26812F0F90DF9141
:10352000CF911F910F91FF90EF900895CF92DF926E
:10353000EF92FF920F931F93CF93DF93CDB7DEB738
:103540002A970FB6F894DEBF0FBECDBF6B01009176
:103550006E0110916F010F5F1F4F8AE0E82EF12C72
:103560009E012F5F3F4F42E952E061E080E00E9400
:10357000041A882349F09AE0FE013196A8E8B2E0E7
:1035800001900D929A95E1F79AE0E8E8F2E0D60111
:1035900001900D929A95E1F72A960FB6F894DEBF46
:1035A0000FBECDBFDF91CF911F910F91FF90EF9094
:1035B000DF90CF900895AF92BF92CF92DF92EF92BB
:1035C000FF920F931F93CF93DF937C015B016A01FE
:1035D0000E945F1901E010E0882311F00AE010E07A
:1035E000C1E0D0E0F894B501C701F60109957894DF
:1035F000811104C021960C171D075CF4DF91CF9157
:103600001F910F91FF90EF90DF90CF90BF90AF9000
:103610000895CC9F9001CD9F300D300D112490E086
:1036200080E045E34A95F1F7000001968217930781
:10363000C1F7D8CF0F931F93CF93DF93EC018B018A
:1036400046E95AE10E94DB1A882391F04BE65AE1E1
:10365000B801CE010E94DB1A882351F04FEB59E1EB
:10366000B801CE01DF91CF911F910F910C94DB1A1D
:1036700080E0DF91CF911F910F9108950F931F93D9
:10368000CF93DF930F92CDB7DEB7F89400916E0120
:1036900010916F01C80101962AE0FB01DC01019045
:1036A0000D922A95E1F76AE070E00E942920F80166
:1036B00080837894F894CE0101960E9463268981D4
:1036C000F801848761E070E0CE0101960E94292014
:1036D000F80183877894F894658576858785908945
:1036E0000091840210918502209186023091870218
:1036F000601771078207930751F0609384027093FB
:10370000850280938602909387020E949118789494
:103710000F90DF91CF911F910F9108950E94102E6D
:103720000E9410160C941C2E0E94202E0E9423161C
:103730000C943A2E0E948E2B0E94F72D0E94FE15AB
:103740000E948E1B0E94941B0E940C16FBCF80913E
:10375000A40280FF12C060913E0185E0689FB00125
:103760001124759567957595679560387105A8F56D
:1037700061157105A1F1862F089581FF09C060913F
:103780003E0185E0689FB001112475956795EDCFE6
:1037900060913E0182FD0AC08091A3028823D1F08E
:1037A00090913D0160913E01891728F085E0689F66
:1037B000B0011124DACF869FB001112485E0869FE5
:1037C0009001879F300D1124692F70E0C9010E947C
:1037D000F333CBCF65E070E0CECF8FE7089581E083
:1037E00008958091A40280FF0CC060913A0170E0BE
:1037F00075956795759567956115710549F1862FE2
:10380000089581FF06C060913A0170E07595679553
:10381000F3CF60913A0182FD0BC09091A2029923EF
:10382000A1F06091390180913A01961738F0682F24
:1038300070E06038710500F38FE70895899FC0013B
:10384000112470E00E94F333F4CF61E070E0D7CF31
:1038500081E00895803F31F40E94A71B81958093F9
:10386000A8020895813F19F40E94A71BF8CF823F58
:1038700031F40E94A71B81958093A7020895833F8E
:1038800019F40E94A71BF8CF893F29F40E94F11B6D
:103890008093A90208958A3F21F40E94F11B81952B
:1038A000F7CF8B3F31F40E94F11B81958093AA02E0
:1038B00008958C3F19F40E94F11BF8CF9CE0980FFB
:1038C000953070F4845F990B21E030E001C0220F45
:1038D0008A95EAF78091A602822B8093A60208952A
:1038E0008D3F31F48091A40281608093A4020895F9
:1038F0008E3F21F48091A4028260F7CF8F3FB9F709
:103900008091A4028460F1CF4091A702803F59F4D6
:103910008091A80287FF0DC01092A80241110BC030
:103920001092A30208C0813F81F48091A80218166A
:103930009CF3442381F08091A9029091AA02892BE3
:1039400009F05AC01092A2020895823F49F447FF3D
:10395000F0CF1092A7028091A8028111ECCFE0CFA6
:10396000833F19F41416ACF3E4CF9091A902893F78
:1039700029F41916F4F61092A902DBCF8A3F19F444
:1039800097FFD7CFF8CF9091AA028B3F29F497FFEA
:10399000D0CF1092AA02CDCF8C3F19F41916CCF3D8
:1039A000C8CF9CE0980F953090F4845F990B21E08C
:1039B00030E0B90102C0660F771F8A95E2F7CB01AC
:1039C00080959091A60289238093A602B2CF8D3F65
:1039D00031F48091A4028E7F8093A402AACF8E3FFF
:1039E00021F48091A4028D7FF7CF8F3F09F0A1CF02
:1039F0008091A4028B7FF0CF08950E94042C9C013B
:103A00009091A7028091A802982B21F03093A102F7
:103A10002093A0029091A9028091AA02982B21F0F4
:103A200030939F0220939E0285EA92E00C94E72A4D
:103A3000EF92FF920F931F93CF93DF9300D000D0AC
:103A400000D0CDB7DEB786E0E5EAF2E0DE01119600
:103A500001900D928A95E1F7E090A702F090A802FC
:103A60000091A9021091AA021092A7021092A80236
:103A70001092A9021092AA028E2D8F2991F08091A6
:103A8000A0029091A1020E941C2CAC019091A30273
:103A9000992309F43FC080913F018417150608F46B
:103AA00047C0802F812B91F080919E0290919F02C0
:103AB0000E941C2CAC019091A202992309F477C0BA
:103AC00080913B018417150608F47FC08091A702FE
:103AD0009091A802892B9091A902892B9091AA021A
:103AE000892B11F00E94FD1C86E0FE013196A5EAAB
:103AF000B2E001900D928A95E1F726960FB6F89400
:103B0000DEBF0FBECDBFDF91CF911F910F91FF9010
:103B1000EF900895209140018AE0289F90011124A0
:103B20002417350708F0BDCF9F5F9093A30202C012
:103B30009F3FD1F7EE2059F00E94A71B9FEF1E1464
:103B40000CF491E0899F802D11248093A702FF201F
:103B500059F00E94A71B9FEF1F140CF491E0899F5E
:103B6000802D11248093A8023091A702332309F4F9
:103B700098CF2091A802222309F493CF45EB340378
:103B8000C0011124992359F09093A70245EB240317
:103B900090011124332339F03093A80282CF81E0C1
:103BA0008093A702F3CF81E08093A8027ACF20917F
:103BB0003C018AE0289F900111242417350708F062
:103BC00085CF9F5F9093A20202C09F3FD1F7002351
:103BD00059F00E94F11B9FEF10160CF491E0899FA1
:103BE000802D11248093A902112359F00E94F11B0A
:103BF0009FEF11160CF491E0899F802D1124809382
:103C0000AA023091A902332309F460CF2091AA02BD
:103C1000222309F45BCF45EB3403C001112499231F
:103C200059F09093A90245EB24039001112433230A
:103C300039F03093AA024ACF81E08093A902F3CFF2
:103C400081E08093AA0242CF86E0E5EAF2E0DF015C
:103C50001D928A95E9F71092A3021092A202109287
:103C6000A4020895EF92FF920F931F93CF93DF93D7
:103C7000CDB7DEB72C970FB6F894DEBF0FBECDBF21
:103C800049835A836B837C838D839E83EF82F8867E
:103C900009871A872B873C8746E050E0BE01695FA1
:103CA0007F4FCE0101960E941D3421E0892B09F43B
:103CB00020E0822F2C960FB6F894DEBF0FBECDBF4A
:103CC000DF91CF911F910F91FF90EF900895EF92A8
:103CD000FF920F931F93E090AB02F090AC02009123
:103CE000AD021091AE022091AF023091B00240912E
:103CF000B1025091B2026091B3027091B40280910E
:103D0000B5029091B6020E94321E882321F081EB09
:103D100092E00E94E72A1092B3021092B40210922D
:103D2000B5021092B60286E0E1EBF2E0ABEAB2E057
:103D300001900D928A95E1F71F910F91FF90EF90FE
:103D40000895CF93DF9300D000D000D0CDB7DEB779
:103D500086E0E1EBF2E0DE01119601900D928A958A
:103D6000E1F729813A814B815C816D817E8180E020
:103D700090E026960FB6F894DEBF0FBECDBFDF9160
:103D8000CF910895CF93DF9300D000D000D0CDB76E
:103D9000DEB749835A836B837C838D839E8386E061
:103DA000FE013196A1EBB2E001900D928A95E1F708
:103DB00026960FB6F894DEBF0FBECDBFDF91CF9130
:103DC000089583E290E00E943334813289F484E2E2
:103DD00090E00E943334823159F485E290E00E94F1
:103DE000333491E0883009F090E0892F8170089594
:103DF00080E0FCCFCF93C82F6FEF811161E283E2A7
:103E000090E00E9441346FEFC11162E184E290E0E2
:103E10000E9441346FEFC11168E085E290E0CF91DC
:103E20000C944134089586E290E00E943334682F68
:103E300070E090E080E0089586E290E00C944134D8
:103E400080E00E94FA1E60E070E0CB010E941C1F1F
:103E50000E94A7240E94912581E00C94FA1E0E94E2
:103E6000121F0E94E11E811102C00C94201F0895B0
:103E7000CF93FB01C281CC2309F19C0122513F4524
:103E80002031310520F582510E94A125C0E08C2F00
:103E9000CF91089581E00E946E1043E062E081E0DE
:103EA0000E94C00AF3CF81E00E94791043E062E0F3
:103EB00081E00E94C00AEBCF82E0F6CF8031FFE5BF
:103EC0009F0789F381319F45B9F3C1E0E0CF80318D
:103ED000EFE59E07F9F281319F45C9F682E0DBCF1D
:103EE0002FEFFC0120830895EF92FF920F931F9311
:103EF000CF93DF93EC01062FE881E150E33108F026
:103F00005EC0F0E0EF56FB4C0C940734198289E058
:103F10008A83602FCE01DF91CF911F910F91FF9087
:103F2000EF900C94D02C8981823069F0833071F04D
:103F30008130D9F40E94102C0E940D346A837B8357
:103F40008C839D83E6CF0E94131FF6CF7E0182E013
:103F5000E80EF11C10E0812F0E945B06F7018193AF
:103F60007F011F5F1431B9F7D4CF602FCE010E94BB
:103F7000701FCFCF89818230C1F76A817B818C81AC
:103F80009D810E940D340E941C1FC3CF4B816A810A
:103F900089810E9479249827892798279D838C837B
:103FA000B8CF2C813D813227232732274B816A816C
:103FB00089810E949224ADCF0E94A724AACF8FEFBF
:103FC0008883A7CF0E943C258983A3CF0E943E25EA
:103FD0009827892798279A8389839BCF6B8170E0E4
:103FE00089819A81AE014C5F5F4F98278927982776
:103FF0000E9441258ECF6B8170E089819A81AE014C
:104000004C5F5F4F9827892798270E94672581CFAB
:104010000E9491257ECF0E946724D6CF6B8170E0ED
:1040200089819A81AE014C5F5F4F98278927982735
:104030000E94DF246ECF6B8170E089819A81AE018E
:104040004C5F5F4F9827892798270E94052561CFED
:104050000895FC01680F791F8FEF91E36E177F07BA
:1040600009F408952191822728E030E087FF06C0F7
:10407000880F892721503109C9F7F0CF880FFACF6F
:10408000CF92DF92EF92FF920F931F93CF93DF9324
:104090006C017B0164E670E088E70E949927EC01DF
:1040A00097FD12C010E000E0F601E00FF11F8491CF
:1040B00064E670E00E941328EC01892B29F40F5F5D
:1040C0001F4F0E151F0581F70E949628CE01DF9124
:1040D000CF911F910F91FF90EF90DF90CF900895B7
:1040E00008950C947020E6E1F3E080E092E0DF01B7
:1040F0009C011D9221503040E1F7F0931D05E093A3
:104100001C058FEF9FEF9093E3028093E2020895E6
:104110000E94EB080E9471208093DE0280FD0FC098
:1041200080E88093DD020E9493276DE070E084E3D5
:1041300095E00E944020892B21F080E0089580E2E4
:10414000F0CF8091DE0263E070E081FD26C081E364
:1041500095E00E944020892B81F76DE070E081E2BC
:1041600095E00E944020892B41F70E94102C605A54
:1041700075418F4F9F4F6093180570931905809379
:104180001A0590931B050E94732081E08093E10241
:104190008093E0021092DF0208958EE295E0D9CF7D
:1041A0002091DD0236E0839FC0011124629F800DC3
:1041B000911D1124811522E0920714F090E080E017
:1041C0008A5E9C4F90931D0580931C050895209155
:1041D0001C0530911D05205133404091DD02642FB4
:1041E00070E0C9010E94DF33481B463010F4240FF1
:1041F000311D211582E0380710F030E020E02A5E02
:104200003C4F30931D0520931C0508951F93CF93B9
:10421000DF93162F8A3031F481E0DF91CF911F9127
:104220000C9480218D3011F480E0F7CFC0911C05F3
:10423000D0911D0596E0FE01A7EBB2E001900D9232
:104240009A95E1F7803EC8F086E0FE0111928A95CA
:10425000E9F711111EC0C0911C05D0911D0546E063
:1042600050E0BE0187EB92E00E941D34892BF9F4E7
:10427000DF91CF911F910C94E720F6E08F9FB00162
:1042800011246F5B7A4F46E050E0CE010E94143457
:10429000E0CFE0911C05F0911D059F012A5F3F4F83
:1042A0002E173F07C1F2808180958193F9CFC651C7
:1042B000D340CE0125E0969587952A95E1F721E038
:1042C00030E0A90102C0440F551F8A95E2F7CA01E8
:1042D0004091E2025091E302842B952B259645E014
:1042E000D695C7954A95E1F702C0220F331FCA95AC
:1042F000E2F7822B932B9093E3028093E202B8CFF4
:10430000CF93382FE0911C05F0911D05E651F34045
:104310002091DD02622F70E0CF010E94DF33281B65
:10432000822F332369F066E00E94D333C82FC15037
:1043300010F4CF91089560E080E20E940621F7CF4B
:104340009F01280F311D2115324018F080E0F0E068
:10435000E0E08E0F9F2F911D8A5E9C4F90931D056C
:1043600080931C05E6CF1F93CF93DF93EC01162FAC
:10437000FE018491811104C0DF91CF911F910895B6
:10438000612F0E9406212196F3CF0E94B32181E084
:104390000C9480218091E102811103C08091E002A0
:1043A00008950E94102C605A75418F4F9F4F609363
:1043B00018057093190580931A0590931B05809139
:1043C000E0028111EBCF62E070E08FE195E00E94A6
:1043D0004020892B19F781E08093E002DFCF2F92F4
:1043E0003F925F926F927F928F929F92AF92BF9215
:1043F000CF92DF92EF92FF920F931F93CF93DF93B1
:104400008091E102882369F02091E2023091E30279
:104410002115310531F08091DF0261E070E08823E1
:1044200099F0DF91CF911F910F91FF90EF90DF9066
:10443000CF90BF90AF909F908F907F906F905F9044
:104440003F902F9008958F5F082F10E01B01082EDA
:1044500002C0220C331C0A94E2F7A9014221532125
:10446000452B89F39091DE0290FD44C08295880F20
:104470008076809343019801369527953695279548
:1044800020934601815E809344011092470124E607
:1044900030E047E050E061E471E088E70E944228A4
:1044A000892B09F0BECFA80125E0440F551F2A959E
:1044B000E1F78091DE0280FD2BC04A5E5C4F04E68E
:1044C00010E020E230E060E488E70E946928892B50
:1044D00009F0A7CF0E94CA21E101C095D095809133
:1044E000E2029091E302C823D923D093E302C09360
:1044F000E20297CF880F880F880F809343011092B4
:104500004601895F8093440183E080934701BFCFD8
:10451000EDEBF2E080E2DF011D928A95E9F7A4E776
:10452000B1E000E711E088E7C82E81E0D82E97E0DF
:10453000592E772473948D91E80129918E01240FCF
:10454000352F311D2A5E3C4FE82FF0E0E354FD4F3C
:1045500090E080E0652C681A872C082E01C0880C3A
:104560000A94EAF77901A12CE701B9907E01B820FD
:10457000662D6A196770962E062E000C770BDB2DC0
:1045800001C0DD0F9A94EAF7719561957109677022
:10459000772701C0B6946A95EAF7BD2A6081962E06
:1045A0009B289082A39468E0A612DECF01963196F4
:1045B0008830910579F6CA16DB0609F0BCCF04E60F
:1045C00010E020E230E04DEB52E07DCF8091E00240
:1045D0009091E102911103C091E089270895882309
:1045E00069F062E070E08DE195E00E944020892B47
:1045F00019F08091E00208951092E0028091E002AB
:10460000EBCF81E008950F931F938091E1028823FF
:1046100089F180911605909117050E941C2CC29774
:1046200060F00E94042C909317058093160560E0BB
:1046300080E00E94D0200E94F5080E94EF21809126
:10464000E0028823B9F00E94102C00911805109107
:10465000190520911A0530911B05601B710B820B07
:10466000930B6F3F7F4F8F4F9F4720F41F910F9108
:104670000C94E6221F910F910895CF93DF93EC01E4
:10468000FB018281882309F420C1C330FDE5DF07E7
:10469000C8F5CA3F9CE5D90730F49E0122503C453D
:1046A0002431310598F50E943215909314038093BC
:1046B0001303C031FCE5DF0709F4E0C008F061C076
:1046C000C8309CE5D90709F4CBC088F5C430FCE5B7
:1046D000DF0709F4B3C0E8F4C2309CE5D90709F458
:1046E000A7C0809113038260C330DC4509F4A3C0E6
:1046F00080911303909114030E9440150E94F50FBE
:1047000080E004C0C136EDE5DE0769F2DF91CF91AC
:104710000895809113038061C630FCE5DF0709F43A
:104720008AC008F48FC080911303806284C0809196
:1047300013038D7FCC309CE5D90709F47CC070F45D
:10474000809113038C60CA30FCE5DF0709F473C065
:1047500008F48AC0809113038E7F6DC0809113038B
:10476000877FCE309CE5D90709F465C0809113039B
:104770008B7FCF30DC4508F45EC0809113038F7EC1
:104780005AC0CC3FFCE5DF0709F474C040F5C431E2
:104790009CE5D90709F48AC058F4C231FCE5DF076B
:1047A00009F474C008F46EC080911303837F43C082
:1047B000CA3F9CE5D90709F449C008F04DC0C5318E
:1047C000DC4509F095CF8091130382FB992790F97E
:1047D00021E0922790FB82F990FB83F92CC0C11550
:1047E0008DE5D80709F458C088F4809114038360DC
:1047F000CE3FECE5DE0769F1809114038D7FCF3F5A
:10480000DC4538F1809114038C7F23C0C2308DE5E4
:10481000D80709F458C008F452C0C136DD4509F084
:1048200067CF90911303892F8F7E94FF806103C01F
:10483000809113038160809313035ACF80911303F7
:104840008460F9CF809113038860F5CF80911403C1
:104850008160809314034CCF809114038260F9CF60
:10486000809113038064E7CF0E94F50F80911303BA
:104870008068E1CF809114038E7FEBCF809113038A
:104880008F7DD9CF809113038F7BD5CF0E94F50FF9
:10489000809113038F77CFCF80911403982F909539
:1048A00091708E7F892B90FB81F9D3CF0E94F50FF9
:1048B00090911303892F97FB87F98058BCCF81E033
:1048C0000E94C51515CF80E0FBCF81E01FCF84E0AB
:1048D000089550E0440F551F9AE0699F400D511D07
:1048E000112498EC899F400D511D1124CA0187960F
:1048F00008950F931F93CF93DF930E9469248C0137
:104900000E943334C82FD0E0DC2FCC27C801019699
:104910000E9433349E01282BC901DF91CF911F9152
:104920000F9108950F931F93CF93DF93122F032FAF
:104930000E946924EC01602F0E944134612FCE0156
:104940000196DF91CF911F910F910C944134AF925A
:10495000BF92CF92DF92EF92FF921F93CF93DF939C
:104960008DE4C82E81E0D82ED0E07601C0E014C0DE
:10497000F50125913491412F6C2F8D2F0E949224A7
:1049800082E0A80EB11C1F5F153091F78AE0E80E97
:10499000F11CCF5FC43119F0570110E0E9CFDF5FA0
:1049A00088ECC80ED11CD43001F7DF91CF911F9154
:1049B000FF90EF90DF90CF90BF90AF900895EF926F
:1049C000FF920F931F93CF93DF93EC018A017C0139
:1049D000E60EF71ECE018796CE15DF0539F4DF917E
:1049E000CF911F910F91FF90EF900895C03223E077
:1049F000D20740F40E943334F80180830F5F1F4FC9
:104A00002196E8CFF8011082F9CFCF92DF92EF9292
:104A1000FF920F931F93CF93DF937C016A018C0168
:104A2000060F171FEC01CE018796C017D10749F476
:104A3000DF91CF911F910F91FF90EF90DF90CF907A
:104A40000895C03223E0D20740F4FE01EE19FF09B9
:104A5000EC0DFD1D60810E9441342196E4CF462F6C
:104A6000843038F4743128F4653018F4672F0C94CE
:104A7000792490E080E0089580E1089589EB90E04A
:104A80000895EF92FF920F931F93CF93DF93EC0162
:104A90008A017C01E60EF71ECE01895B9C4FCE1584
:104AA000DF0539F4DF91CF911F910F91FF90EF90C7
:104AB0000895C93BD10540F40E943334F801808346
:104AC0000F5F1F4F2196E8CFF8011082F9CFCF92E8
:104AD000DF92EF92FF920F931F93CF93DF937C01AE
:104AE0006A018C01060F171FEC01CE01895B9C4FF8
:104AF000C017D10749F4DF91CF911F910F91FF901B
:104B0000EF90DF90CF900895C93BD10540F4FE01AE
:104B1000EE19FF09EC0DFD1D60810E9441342196C4
:104B2000E4CFCF93DF93C7E4D3E060E0CE010E94EF
:104B300041342196C11584E0D807B9F7DF91CF91B0
:104B40000895DF92EF92FF920F931F93CF93DF931D
:104B500000D000D0CDB7DEB7F82E8FE08F1540F033
:104B60008FEF93E00E94333407E413E08823C1F011
:104B70000F900F900F900F90DF91CF911F910F9199
:104B8000FF90EF90DF900895011584E0180781F3FE
:104B9000C8010E943334811101C0FA940F5F1F4F86
:104BA000F110F2CF19821A821B821C82DD24D39469
:104BB00078018FEFE81AF80AC8010E94333489831C
:104BC0001A828823A9F29FEF980F933078F48A8392
:104BD000D9820E5F1F4FC7010E9433348B83882315
:104BE00039F2CE0101960E94170CE2CF8701F9CF6E
:104BF00081E0089554985C9A84988C9A89B1829542
:104C000081707C990EC090E0892B8093E90290918D
:104C1000060181E098279093E502891B8093E402C6
:104C2000089592E0F1CFCF93E091E902EE0FEE0FFD
:104C3000E093E90249B144FB882780F94FB144FB76
:104C4000222720F944FF02C022E030E0822BE82B2B
:104C5000E093E902C091E502EF70F0E0E858FE4F02
:104C600080819091E802890F8093E80220E08230F1
:104C700064F0EC2FF0E0EA51FD4F80818F5F80837C
:104C800060E08C2F0E944A0921E08091E8028F3F6A
:104C900064F4EC2FF0E0EA51FD4F80818150808375
:104CA00061E08C2F0E944A0921E08091E802082EE1
:104CB000000C990B62E070E00E94F3338093E802ED
:104CC000822FCF910895E091E502F0E0EA51FD4F87
:104CD0002081FC0120830895FF920F931F93CF93AF
:104CE000DF93D091E4020D2F10E00A511D4FFC011B
:104CF000C081F8018081C81BFC2E80E01F147CF06D
:104D00009C2FC7FD90E0C91BC11114C08823E9F096
:104D1000DF91CF911F910F91FF900C94DD15FA94C4
:104D2000F80180818F5F808360E08D2F0E944A09A7
:104D300081E0E4CFCF5FF80180818150808361E022
:104D40008D2F0E944A0981E0DFCFDF91CF911F9123
:104D50000F91FF900895CF93DF93EB0186319C452F
:104D600011F50E9445149A81992399F08A7A91E06D
:104D700009F490E09093EA02811109C089E20E944F
:104D800020140E94881480E0DF91CF91089585E37C
:104D9000F6CF8091EA02811104C089E20E942714B3
:104DA000F0CF85E3FBCF81E0EFCF0F931F93CF933D
:104DB000DF93C42FD22FFC0182818823C9F0409356
:104DC000ED020E94042C9093EC028093EB0280E2AF
:104DD0008C0F883008F050C0C77081E001C0880F88
:104DE000CA95EAF7DF91CF911F910F910C94950D21
:104DF0001091ED02141335C08091EB029091EC02FA
:104E00000E941C2C883C910560F5C0E2CD0F1D1757
:104E1000B9F080E2810F883040F4177081E001C062
:104E2000880F1A95EAF70E949C0DC83048F481E07B
:104E30009D2F977001C0880F9A95EAF70E94950DF3
:104E4000802F0E948D0DC830B8F4D77081E001C06A
:104E5000880FDA95EAF7DF91CF911F910F910C94AB
:104E60009C0D80E28C0F883038F4C77081E001C05F
:104E7000880FCA95EAF7EFCFDF91CF911F910F917D
:104E800008950F939C01CB01233F4CE5340759F162
:104E9000A8F4283DFCE53F0701F1293D4CE5340726
:104EA000D1F1273D3C4591F406E221EE41EE67ED5C
:104EB0007CE50E94D52680E00F910895253FFCE512
:104EC0003F07E9F0B0F0263F3C45F9F0FC01828154
:104ED000882339F11092ED02EFCF07E225EE45EE7F
:104EE00068ED7CE5E6CF06E221EE40EE63EF7CE57F
:104EF000E0CF07E225EE44EE64EF7CE5DACF06E290
:104F000021EE42EE65EF7CE5D4CF07E225EE46EEDA
:104F100066EF7CE5CECF08E221E045EE69ED7CE569
:104F2000C8CF81E0C9CF1092B9008CE08093B8005F
:104F300008959F92AF92BF92CF92DF92EF92FF922D
:104F40000F931F93CF93DF93B82EEB010E94042C95
:104F50006C01EE24E394F12CC431D10560F025E01E
:104F6000E22EF12CCF3FDC0731F0CE0164E170E09E
:104F70000E94DF337B0184EAA82E94E8992E1092D8
:104F8000BC00A092BC000E94042C8C018091BC004B
:104F900087FF0DC08091B900887F883039F18091FA
:104FA000B900887F803111F10FEF1FEF09C00E9417
:104FB000042C801B910B8E159F0540F30EEF1FEF05
:104FC000CF3FDC07E1F2C6010E941C2C8C179D0725
:104FD000B0F2C801DF91CF911F910F91FF90EF9038
:104FE000DF90CF90BF90AF909F900895B092BB009C
:104FF0009092BC000E94042C8C018091BC0087FF21
:105000000AC08091B900887F883111F0803461F640
:1050100010E000E0DECF0E94042C801B910B8E1567
:105020009F0558F3CBCF0F931F93CF93DF93EB01E3
:105030008093BB0084E88093BC000E94042C8C0108
:105040008091BC0087FF11C02091B900287F81E0CA
:1050500090E0283211F490E080E0919581959109DB
:10506000DF91CF911F910F910895CF3FDC0741F35E
:105070000E94042C801B910B8C179D0708F38EEF68
:105080009FEFEECFCF92DF92EF92FF920F931F939D
:10509000CF93DF936B018A017901B9010E949927AF
:1050A000E6010C0D1D1DC017D10761F424E9209302
:1050B000BC00DF91CF911F910F91FF90EF90DF9097
:1050C000CF90089597FDF2CFB70189910E941328E0
:1050D000EACFCF92DF92EF92FF920F931F93CF937D
:1050E000DF93C62F6A017901B8010E94992797FDC5
:1050F0000CC0B8018C2F0E941328E601EC0CFD1C9B
:10510000CE15DF0511F097FF0CC024E92093BC00F9
:10511000DF91CF911F910F91FF90EF90DF90CF9093
:105120000895B80189910E941328EACF84E98093F9
:10513000BC0008958EE14A9B02C08150E1F74A9B72
:10514000FECF08955A9880E28A95F1F75A9A089509
:10515000FC013BE03A95F1F798E020E080E031E097
:1051600040E14A95F1F7880F4A9B02C081602327EE
:1051700042E04A95F1F7000040E14A95F1F791507D
:1051800079F790E19A95F1F799B132E03A95F1F714
:10519000000040E14A95F1F792FB992790F9922798
:1051A0002081920F90830895EF92FF920F931F93A7
:1051B000CF93DF930F92CDB7DEB719828C017C01BC
:1051C000E60EF11C0E151F0561F481E09981911125
:1051D00080E00F90DF91CF911F910F91FF90EF90A2
:1051E00008950E949A28CE0101960E94A828F801ED
:1051F00081938F01E7CF529A5A9A089552985A9AFA
:10520000EA9AE9E6F0E080818F7C8083089561501E
:10521000770B91E001C0990F6A95EAF720E031E041
:10522000911108C0222391F05A9A80E28A95F1F7F1
:105230005A980895492F482339F05A9A232740E273
:105240004A95F1F79695ECCF5A98F9CF5A98EDCF49
:10525000FF920F931F93CF93DF93EC018C01060F06
:10526000111DC017D10731F4DF91CF911F910F911C
:10527000FF900895F9900E94A22868E08F2D0E9467
:105280000729EFCF1F920F920FB60F921124EF92C2
:10529000FF920F931F932F933F934F935F936F93BF
:1052A0007F938F939F93AF93BF93EF93FF93CF938E
:1052B000DF930F92CDB7DEB719820E949A28CE01F4
:1052C00001960E94A828A82FA695A695A695282FF6
:1052D000229525709A2F9570290F922F93702695FD
:1052E0002695920F982797708981982B09F075C0A1
:1052F000A63008F072C080E18A95F1F75A9A529A66
:10530000B2E0BA95F1F700C05A98EA2EF12CEAE023
:10531000AE9FD0011124A95FBE4F1896ED91FC916C
:1053200019973097B1F060916E0170916F011696E8
:105330002D913C911797260F371F13968D919C91B5
:105340001497680F791F15964C91159712968C91AA
:1053500009958AE08E9DF0018F9DF00D1124E95F83
:10536000FE4F6581662351F020916E0130916F01EF
:1053700086819781820F931F0E9428290E94A2286C
:10538000F0E1FA95F1F75A9852985A9A80E18A9585
:10539000F1F78AE08E9D80018F9D100D1124095F29
:1053A0001E4FD80112966C911297662371F12091CD
:1053B0006E0130916F0113968D919C91820F931F16
:1053C0000E94D428D801ED91FC91882311F088E047
:1053D00001C082E080830E949A280F90DF91CF91D4
:1053E000FF91EF91BF91AF919F918F917F916F91BD
:1053F0005F914F913F912F911F910F91FF90EF90EF
:105400000F900FBE0F901F901895ED91FC91DFCF7C
:105410000F931F93CF93DF93EC0106970CF0A9C075
:105420008AE08C9FF0018D9FF00D1124E95FFE4F03
:1054300080819181892B09F49CC0F894529A5A98E2
:1054400085E08A95F1F700008C2F869585709C2F5A
:105450009570890F982F937086958695890F8E0188
:1054600093E0000F111F9A95E1F7082B0E94A228E4
:1054700000C068E0802F0E940729A0E1AA95F1F7FB
:1054800052985A9A4A9B27C087E090E04A9925C0D3
:105490008AE08C9F80018D9F100D1124095F1E4FA3
:1054A000F80165816623A1F120916E0130916F01B1
:1054B00086819781820F931F0E94D428811128C072
:1054C000529A5A9AD801ED91FC9182E080837894A7
:1054D00082E090E016C000C0D5CF0197B9F4529A8F
:1054E0005A9A8AE08C9FF0018D9FF00D1124E95F9C
:1054F000FE4F0190F081E02D81E08083789481E07F
:1055000090E0DF91CF911F910F91089500C0BECF21
:105510000E949A28B0E2BA95F1F75A98529AE0E1BF
:10552000EA95F1F78AE08C9FF0018D9FF00D112430
:10553000E95FFE4F6281662351F020916E01309148
:105540006F0183819481820F931F0E9428290E94FA
:10555000A2288AE08C9FF0018D9FF00D1124E95F55
:10556000FE4F0190F081E02D1082789490E080E071
:10557000C8CF84E090E0C5CF9093990180939801C3
:1055800008959093F4028093F30208950E943419D1
:10559000811103C08091EE020895E091F302F09131
:1055A000F402309721F00190F081E02D099480E021
:1055B00008950E94C62A0895E091F302F091F40242
:1055C000309721F00280F381E02D09940895E09155
:1055D000F302F091F402309739F022E0DC012C93D1
:1055E0000480F581E02D099408952091F102309115
:1055F000F2022817390771F09093F2028093F102BA
:10560000E091F302F091F402309721F00680F781E7
:10561000E02D099408952091EF023091F0022817AF
:10562000390771F09093F0028093EF02E091F3025A
:10563000F091F402309721F00084F185E02D099477
:1056400008959C012E5F3F4FAC01485F5F4F80E0A3
:105650002417350709F40895F90191919F019923C1
:10566000B9F38F5FF5CF662349F0FC0132960896B7
:105670002191261729F0E817F907D1F780E008955E
:1056800081E008959C01FC0132969FEF80E04191FA
:10569000461751F09F3F19F4411101C0982F8F5FB9
:1056A0008630A9F79F3F09F40895290F311D97FD12
:1056B0003A95F90162830895FC013296089621918A
:1056C000261303C0DF0111971C92E817F907B9F7F9
:1056D00008950C94422B0C945C2B029626E0FC015E
:1056E00011922A95E9F7089508950C94742B81116D
:1056F00005C081E08093F5020C94752B82E0FACF0F
:1057000083E08093F5020C94752B0C94772B81E049
:105710008093F5020C94752B0C94872B089580913F
:105720002605843031F10E94D10A1092F60288E1F8
:1057300090E020E40FB6F894A895809360000FBE27
:105740002093600083B7817F846083BF83B78160CB
:1057500083BF7894889583B78E7F83BF0FB6F89404
:10576000A89580916000886180936000109260002D
:105770000FBE089508950895CF930E94BA2B0E94FA
:105780002E070E94BB2BC0E08C2F0E945B0681116C
:1057900005C0CF5FC431C1F7CF91089581E0FCCF40
:1057A0000E94F50F0C94430B1F921FB61F921124F9
:1057B0008F939F93AF93BF938091F602811113C093
:1057C00080911E0590911F05A0912005B0912105A3
:1057D0004196A11DB11D80931E0590931F05A093B6
:1057E0002005B0932105BF91AF919F918F911F909C
:1057F0001FBE1F90189582E084BD93E095BD9AEF7F
:1058000097BD80936E0008952FB7F89480911E0580
:1058100090911F05A0912005B09121052FBF0895FB
:105820002FB7F89460911E0570911F058091200597
:10583000909121052FBF08959C014FB7F894809156
:105840001E0590911F05A0912005B09121054FBF25
:10585000821B930B0895CF92DF92EF92FF922FB7A6
:10586000F894C0901E05D0901F05E0902005F090A0
:1058700021052FBFA7019601261B370B480B590B9B
:10588000CA01B901FF90EF90DF90CF90089578940E
:105890001F921FB61F9211248F939F93AF93BF93B4
:1058A00080911E0590911F05A0912005B0912105C2
:1058B0000196A11DB11D80931E0590931F05A09315
:1058C0002005B0932105BF91AF919F918F911F90BB
:1058D0001FBE1F90189587E797E790930108809364
:1058E000000888E19AE00FB6F894A89580936000CC
:1058F0000FBE90936000FFCF8091FF02089508953E
:1059000008959C0184E08093E9009FEF8091E80076
:10591000915085FD06C085ED8A95F1F70000911143
:10592000F5CF8091E80085FF0CC050E040E066E0D4
:1059300070E0C9010E94E12E8091E8008E7780938B
:10594000E8000895CF93DF93EC0181E08093E900B4
:105950008FEF9091E800815095FD06C095ED9A95E6
:10596000F1F700008111F5CF8091E80085FF14C0A8
:1059700050E040E068E070E0CE010E94E12E8091AE
:10598000E8008E778093E80088E0FE01A7EFB2E0A0
:1059900001900D928A95E1F7DF91CF9108950895D6
:1059A000CF93FC01603221F580912605843001F50A
:1059B000C091E900CF702091EC00922F917020FDF2
:1059C00090E8C92B82E08093E9008091E80080FF95
:1059D0000CC050E040E060E270E0CF010E94E12E98
:1059E0008091E8008E778093E800CF70C093E90043
:1059F000CF91089580912505811109C00E94C03082
:105A00000E941D318091E20084608093E20008953D
:105A10001092250508950C94872B6091220581E052
:105A2000611101C080E00C94802B9091260581E0EB
:105A3000943009F080E0609122050C94852B42E0BF
:105A400061EC81E00E943C3042E261EC84E00E9423
:105A50003C3042E261EC82E00E943C3042E260EC89
:105A600083E00E943C309091260581E0943009F05B
:105A700080E0609122050C94772B8091280583307B
:105A800009F462C030F48130D9F1823009F49EC04B
:105A900008958A3009F48AC08B3009F470C08930C7
:105AA00009F051C080912705813209F04CC08091E6
:105AB0002B0590912C05009719F0029709F043C02F
:105AC0008091E800877F8093E8008091E80082FF62
:105AD00036C09091F3008091F200029731F48091EA
