:100000000C94DE050C9425060C9425060C949B2973
:100010000C9425060C9425060C9425060C942506B4
:100020000C9425060C9425060C9494310C9468329B
:100030000C942D2C0C9425060C9425060C94250666
:100040000C9425060C9425060C9425060C94250684
:100050000C9425060C94A02C0C9425060C942506D3
:100060000C9425060C9425060C9425060C94250664
:100070000C9425060C9425060C9425060C94250654
:100080000C9425060C9425060C9425060C94250644
:100090000C9425060C9425060C9425060C94250634
:1000A0000C9425060C9425060C942506202020206F
:1000B00020200A005343524C434B0A0020202020AA
:1000C000202020004341504C434B20002020202082
:1000D000202020004E554D4C434B2000556E64654A
:1000E00066696E65640041444A5553540A004C4F9A
:1000F0005745520A0052414953450A00444546417A
:10010000554C540A004C617965723A200080818216
:10011000838485868788898A8B8C8D8E8F90919237
:100120009394A0A1A2A3A4A5A6A7A8A9AAABACAD8D
:10013000AEAFB0B1B2B3B4C0C1C2C3C4C5C6C7C804
:10014000C9CACBCCCDCECFD0D1D2D3D4001F0020C2
:10015000002100220001001A00080015001700010C
:10016000001600070009000A0001001B0006001924
:100170000005000100E2008B002C002C00115F1E26
:1001800000350000000000000014002B00000000FB
:10019000000000040039000000000000001D00E124
:1001A00000000000000000E300E00000000000008C
:1001B0000027002600250024002300130012000C55
:1001C0000018001C0033000F000E000D000B00385B
:1001D000003700360010001100650088008A002CEE
:1001E00000105F2D002E008900000000002F00305D
:1001F000002A000000000034003200280000000047
:100200000087005200E50000000000500051004F40
:10021000000000000001000100F400F50001001FD3
:100220000020002100220001000100010001000166
:1002300000010001000100010001000100010001B6
:1002400000010001000100010001000000000000A9
:10025000001E00010000000000000001000100007D
:10026000000000000001000100000000000000018B
:100270000001000000000000000100010001000179
:1002800000010027002600250024002300010001B2
:100290000001000100010001000100010001000156
:1002A0000001000100010001000100010001000146
:1002B000000000000001000100010000000000013A
:1002C0000001000100000000000100010001000029
:1002D0000000000100010001000000000001000119
:1002E0000001000100C25C0100010001000100C921
:1002F0005C0100010001000100C55C01000100017A
:10030000000100C75C0100010001000100010001C3
:1003100000010000000000000001000100000000DA
:1003200000000001000100000000000000010001C9
:1003300000000000000000010001000000000000BB
:1003400000010001000100010001000100010001A5
:100350000001000100010001000100010001000195
:100360000001000100010001000100010001000185
:100370000001000100010001000000000001000177
:100380000001000000000001000100010000000069
:100390000001000100010000000000010001000157
:1003A0000000000000010001000100010001000147
:1003B0000001000100010001000100010001000135
:1003C0000001000100010001000100010001000125
:1003D0000001000100010001000100000000000018
:1003E0000001000100000000000000010001000009
:1003F00000000000000100010000000000000001FA
:1004000000010000000000000001000100010001E7
:1004100000010001000100010001000100010001D4
:1004200000010001000100010001000100010001C4
:1004300000010001000100010001000100010001B4
:1004400000000000000100010001000000000001A8
:100450000001000100000000000100010001000097
:100460000000000100010001000000000000000089
:1004700000000000002A2B280000000000000000FF
:10048000000000000000000029000000002C1E34C5
:1004900020212224342627252E362D3738271E1FCB
:1004A000202122232425263333362E37381F0405F6
:1004B000060708090A0B0C0D0E0F10111213141564
:1004C000161718191A1B1C1D2F3130232D35040542
:1004D000060708090A0B0C0D0E0F10111213141544
:1004E000161718191A1B1C1D2F3130354C0000002F
:1004F00000000000000000000000000000000000FC
:1005000000000000000000000000000000000000EB
:10051000007E0F00D4FFFFFFC70000007800AE0090
:10052000AF00DA0281FFD9F1DB20A4A62EAF00A034
:10053000C000A1C800AED580A81FD300408D1420F4
:10054000000000000000003E5B4F5B3E003E6B4F32
:100550006B3E001C3E7C3E1C00183C7E3C18001C80
:10056000577D571C001C5E7F5E1C0000183C180065
:1005700000FFE7C3E7FF00001824180000FFE7DBD7
:10058000E7FF0030483A060E002629792926004068
:100590007F05050700407F05253F005A3CE73C5A90
:1005A000007F3E1C1C0800081C1C3E7F0014227F9C
:1005B0002214005F5F005F5F0006097F017F00007B
:1005C0006689956A0060606060600094A2FFA294F2
:1005D0000008047E04080010207E20100008082A6D
:1005E0001C0800081C2A0808001E10101010000C1F
:1005F0001E0C1E0C0030383E383000060E3E0E0633
:100600000000000000000000005F00000000070084
:10061000070000147F147F1400242A7F2A1200236D
:100620001308646200364956205000000807030092
:1006300000001C224100000041221C00002A1C7FF7
:100640001C2A0008083E08080000807030000008DE
:10065000080808080000006060000020100804027C
:10066000003E5149453E0000427F4000007249492A
:100670004946002141494D33001814127F100027CC
:1006800045454539003C4A49493100412111090796
:1006900000364949493600464949291E00000014E0
:1006A0000000000040340000000008142241001443
:1006B0001414141400004122140800020159090600
:1006C000003E415D594E007C1211127C007F494969
:1006D0004936003E41414122007F4141413E007F79
:1006E00049494941007F09090901003E41415173CF
:1006F000007F0808087F0000417F41000020404142
:100700003F01007F08142241007F40404040007FAD
:10071000021C027F007F0408107F003E4141413EE1
:10072000007F09090906003E4151215E007F091939
:1007300029460026494949320003017F0103003F51
:100740004040403F001F2040201F003F4038403FB6
:10075000006314081463000304780403006159491A
:100760004D4300007F414141000204081020000079
:100770004141417F000402010204004040404040EA
:10078000000003070800002054547840007F2844EC
:10079000443800384444442800384444287F003812
:1007A000545454180000087E09020018A4A49C7830
:1007B000007F080404780000447D40000020404091
:1007C0003D00007F102844000000417F4000007C75
:1007D00004780478007C08040478003844444438E1
:1007E00000FC182424180018242418FC007C080499
:1007F00004080048545454240004043F4424003C9A
:100800004040207C001C2040201C003C4030403CEC
:10081000004428102844004C9090907C004464547C
:100820004C44000008364100000000770000000042
:1008300041360800000201020402003C2623263C47
:1008400000000000000000404040F0F8F8FF38FFD2
:10085000F8F83FF8F8FF38FFF8F8F04040400000A3
:100860000000000080C0C0C0800000C0C080000048
:100870000080C0C000C0C0000080C0C000000000F8
:1008800000C0C0C0C0C000C0C00000000000000028
:100890000000000000000000000000000000000058
:1008A0000000000000000000000000000000000048
:1008B0000000000000000000000000000000000038
:1008C000C0F0F8FC3E1E06010000007F4141417F60
:1008D000007F4141417F000080C0E07E5B4F5BFEB6
:1008E000C00000C000DCD7DEDEDED7DC00C00000C8
:1008F00000000000000000000000000000000000F8
:1009000000000000000000494949FFFFFFFFE0DF51
:10091000BFBF00BFBFDFE0FFFFFFFF494949000045
:100920000000001F3F6060E0BF1F007F7F071E3890
:100930001E077F7F007F7F0E1F3B7160000000005D
:10094000007F7F0C0C0C007E7E007F7E0303007F07
:100950007E03037E7E03037F7E000F3E703C063CD9
:10096000703E0F00327B49493F7E007F7E030300CB
:100970001E3F69696F2600000000000000000000B3
:10098000030F1F3F3C7870600000007F4141417FB2
:10099000007F4141417F00307B7F783020203078DC
:1009A0007F3B0003000F7F0F0F0F7F0F000300003E
:1009B0000000000000000000000000000000000037
:1009C00000000000000000010101070F0F7F0F7FF2
:1009D0000F0F7E0F0F7F0F7F0F0F07010101000028
:1009E0000000000000000000010100000000000005
:1009F00000000000000000000000000000000000F7
:100A000000000000000000000000000000000000E6
:100A100000000000000000000000000000000000D6
:100A200000000000000000000000000000000000C6
:100A300000000000000000000000000000000000B6
:100A400000000000000000000000000000000000A6
:100A50000000000000000000000000000000000096
:100A60000000000000000000000000000000000086
:100A70000000000000000000000000000000000076
:100A8000001403680061006C00660063006C00697C
:100A90000066006600000006036E003200000004DD
:100AA00003090409025B00030100A0FA0904000025
:100AB0000103010100092111010001224000070585
:100AC000810308000A090401000203000000092153
:100AD0001101000122220007058203200001070501
:100AE00003032000010904020001030000000921A2
:100AF000110100012249000705840320000A1201A8
:100B0000000200000008350321000100010200017D
:100B10000660FF0961A1010962150026FF0095200A
:100B2000750881020963150026FF0095207508915C
:100B300002C005010902A10185020901A100050900
:100B40001901290815002501950875018102050183
:100B5000093009311581257F95027508810609380C
:100B60001581257F950175088106050C0A38021547
:100B700081257F950175088106C0C005010906A180
:100B800001050719E029E715002501950875018180
:100B9000029501750881010507190029FF15002636
:100BA000FF009506750881000508190129059505BE
:100BB00075019102950175039101C00011241FBEBA
:100BC000CFEFDAE0DEBFCDBF04B603FE27C08091D1
:100BD000340590913505A0913605B09137058730E1
:100BE000904BA740B04BD1F41092340510923505CC
:100BF000109236051092370514BE84B7877F84BFE4
:100C00000FB6F894A8958091600088618093600089
:100C1000109260000FBEE0E0F8E3099511E0A0E05B
:100C2000B1E0EEE0FAE602C005900D92AC39B107F2
:100C3000D9F725E0ACE9B1E001C01D92A433B207B9
:100C4000E1F70E94F51B0C94CE340C940000F8944C
:100C5000E82FE295EF70F0E031A1282F2F7081E0AE
:100C600090E001C0880F2A95EAF7382B31A392A1B2
:100C70008095892382A378940895F894E82FE295CB
:100C8000EF70F0E031A1282F2F7081E090E001C0DB
:100C9000880F2A95EAF7982F9095932391A392A114
:100CA000892B82A37894089508950C94540608958E
:100CB0000895E82FF0E0ED54FE4F808108950895E7
:100CC0000F931F93CF93DF930E94A9198091060180
:100CD000809106019AE0811190E0909307038AE0E9
:100CE000891B80930603CAE5D1E08E01F80181914A
:100CF0008F010E943D06F1E004361F07B9F784E337
:100D00000E943D0686EC0E943D0686E60E943D0656
:100D100086E30E943D0682E30E943D0684E30E9432
:100D20003D0686EC0E943D0686E60E943D0686E36F
:100D30000E943D0682E30E943D0689910E943D0685
:100D400081E0C436D807C9F7E7ECF1E0A3EBB1E0E6
:100D500011921D9281E0EB3DF807D1F78AE00E94E5
:100D600058190E94240BDF91CF911F910F910C9481
:100D7000B319FF920F931F93CF93DF93CDB7DEB7D5
:100D80002A970FB6F894DEBF0FBECDBF0E948F1911
:100D9000F82E60910703882309F451C08E010F5F7C
:100DA0001F4F8AE0F80111928A95E9F7862F90E0AB
:100DB000B8018D549E4F0E94161A811123C0809154
:100DC000B2018F5F8093B2018630B8F1E0910603E3
:100DD000F0E0ED54FE4FD801CE010B9611921D921A
:100DE000A817B907D9F70E942A0B8F2D2A960FB69C
:100DF000F894DEBF0FBECDBFDF91CF911F910F9151
:100E0000FF9008951092B201A0910603B0E0AD5496
:100E1000BE4F9E01255F3F4FF12C4D91F8019191FE
:100E20008F01491731F0AD0141505109FA0190830A
:100E3000F82E0217130789F7D6CFF12CD4CF70E024
:100E40006D547E4F8091060390E08D549E4F0E941A
:100E5000181A0E945806C9CF6F927F929F92AF9244
:100E6000BF92CF92DF92EF92FF920F931F93CF9397
:100E7000DF9307EC11E04AE5C42E41E0D42EC0E038
:100E8000D1E0D601AD906D018A2D0E942706B0EA0F
:100E9000BA95F1F735E5E32E31E0F32EF70130E0B6
:100EA00020E0B12C4191A42FA295AF70B0E09096B4
:100EB0008C9190E04F7002C0959587954A95E2F726
:100EC00080FD94C08D2F022E01C0880F0A94EAF78E
:100ED000B82A2F5F3F4F2530310521F78A2D0E9418
:100EE0003D06E0EAEA95F1F7D8018C91B81609F4CD
:100EF0007FC0BC9281E0C82B0F5F1F4FBFE5CB16B0
:100F0000B1E0DB0609F0BDCF10E000E0AA24A39415
:100F1000B12C28EAC22E21E0D22EF70191907F0158
:100F2000892D0E942706F0EAFA95F1F7C501002EF7
:100F300001C0880F0A94EAF7782F682F6095EEE9D0
:100F4000F1E08AE5682E81E0782ED0E03191D3017E
:100F50002D913D01422F42954F7050E0DA0190965D
:100F60008C9190E02F7002C0959587952A95E2F7B5
:100F700080FD40C0872F832B381731F09F0121500F
:100F80003109D9018C93D1E0CE16DF06F9F6892D0F
:100F90000E943D06043019F0B0EABA95F1F7CD2B66
:100FA00061F50F5F1F4F0530110509F0B6CF609155
:100FB000070370E06D547E4F2C2F4AE087EC91E0E0
:100FC0000E9459190E94B906C11101C0C82F8C2F67
:100FD000DF91CF911F910F91FF90EF90DF90CF9015
:100FE000BF90AF909F907F906F90089580E070CFFA
:100FF00080E081CF862F8323BFCF8091A301809390
:10100000CC018091A4018093CD018091A5018093B2
:10101000CE018091A6018093CF018091A70180939A
:10102000D001BFCFCF93DF93FA016230710519F47D
:101030002230310539F08FEF818381E090E0DF913C
:10104000CF9108951B9B33C02B9A239A47E050E021
:101050002998EC01288130E0042E02C035952795AF
:101060000A94E2F720FF25C02B9A299A4150510992
:1010700078F72AE12A95F1F700C023982B9A11827C
:1010800087E090E02998299A23B123FBAA27A0F9A9
:10109000B0E0AD01082E01C0440F0A94EAF72181A7
:1010A000242B2183019770F790E080E0C8CF2B9824
:1010B000CCCF2B98DACF0F93CF93DF9300D000D013
:1010C000CDB7DEB71B828FEF8C8389838A83E09153
:1010D0000001F09101010FEF22E030E0AE014F5F1F
:1010E0005F4F62E070E0CE01039609958A810F9010
:1010F0000F900F900F90DF91CF910F910895219A4B
:1011000023982B9A0895AF92BF92CF92DF92EF92DD
:10111000FF920F931F93CF93DF9300D000D0CDB7F2
:10112000DEB75C016B017A0182E08B831FEF1C83C9
:1011300019831A83E0910001F09101010FEF22E081
:1011400030E0AE014F5F5F4F62E070E0CE0103968A
:1011500009958A81F501808383E08B831C83198341
:101160001A83E0910001F091010122E030E0AE012C
:101170004F5F5F4F62E070E0CE01039609958A8170
:10118000F601808384E08B831C8319831A83E091AA
:101190000001F091010122E030E0AE014F5F5F4FAE
:1011A00062E070E0CE01039609958A81F7018083A1
:1011B00081E090E00F900F900F900F90DF91CF9112
:1011C0001F910F91FF90EF90DF90CF90BF90AF9065
:1011D0000895CF93DF9300D000D00F92CDB7DEB744
:1011E0008091DB01882301F18695C9F084E0898331
:1011F0001A821B820E945D2C8160782F9D838C83D4
:101200001092DB0149815A816B818D810F900F9083
:101210000F900F900F90DF91CF910C94960C84E07B
:10122000898383E08A83E5CF0F900F900F900F9012
:101230000F90DF91CF910895EF92FF920F931F933C
:10124000CF93DF9300D000D00F92CDB7DEB7162F2B
:10125000E82EF12CC701880F991F662339F18059B8
:101260009E4FFC01808191819A83898301E00B83E9
:101270000E945D2C8160782F9D838C83F701E5525D
:10128000FE4F0127110F102B108349815A816B816A
:101290008D810F900F900F900F900F90DF91CF9155
:1012A0001F910F91FF90EF900C94960C82599E4FD6
:1012B000D8CF0E94E9080C9457060E941C0981E0CF
:1012C0000895CF93C82F0E948F19811101C0C2E0E9
:1012D0008C2FCF910895CF930E945C23882349F0EF
:1012E0000E948F1960E0811107C08DE091E00E949B
:1012F0000E2280E0CF91089585E091E00E940E22B9
:1013000080910A020E94750C813071F1882351F09E
:10131000823071F1833081F160E08CED90E00E94C9
:10132000202205C060E08CEF90E00E940E220E9417
:10133000322BC82F8CEC90E0C0FF02C084ED90E00F
:1013400060E00E940E228CEB90E0C1FF02C084ECB2
:1013500090E060E00E940E228CEA90E0C2FF02C0A2
:1013600084EB90E060E0C3CF60E085EF90E0DDCFFC
:1013700060E08EEE90E0D9CF60E086EE90E0D5CFD1
:10138000FB01893F910509F43FC028F4843F910592
:1013900098F481E057C08B3F910509F454C008F4DC
:1013A00045C08C3F9105A9F78281882309F459C073
:1013B00081E080930D032EC040910F03845F91095B
:1013C00021E030E0B90102C0660F771F8A95E2F78D
:1013D000CB0122812223A9F0842B80930F0340911B
:1013E0000E0350910F0360911003709111038091CF
:1013F0001203909113030E941D1F0E94C21E80E0E1
:10140000089580958423E9CF8281882331F081E09B
:1014100080930C038093DF01F2CF90910C03191697
:101420008CF410920C031092DF01E9CF82818823A3
:1014300029F08FEF80930C0381E0ECCF90910C03A7
:1014400097FDEFCF08958281882321F08FEF80935D
:101450000D03F2CF90910D0397FFF4CF10920D037F
:10146000E2CF90910D031916CCF308950C947F08E8
:10147000CF93DF9300D00F92CDB7DEB78091DF011D
:10148000882329F18091E0019091E10101969093E8
:10149000E1018093E0010197D1F480910C038093E6
:1014A000120390910D039093130340910E035091FA
:1014B0000F0360911003709111030E941D1F109281
:1014C0001203109213031092E1011092E001809137
:1014D000DD019091DE019C012F5F3F4F3093DE01D3
:1014E0002093DD0162E370E00E944C34892B89F582
:1014F0000E945B08803319F581E08093DC01AE0126
:101500004F5F5F4FBE016E5F7F4FCE0103960E941B
:1015100083086A8161956093100379817195709356
:1015200011038B8187FF0DC040910E0350910F0373
:1015300080911203909113030E941D1F02C010920C
:10154000DC010E94C21E0F900F900F90DF91CF918F
:1015500008958091DC018823A1F3D1CF81E0089523
:101560000C94C00908950C94B20A1F93CF93DF9393
:1015700000D000D00F92CDB7DEB749835A836B837A
:101580003091E20189819A8131111DC06623B9F041
:101590002223A9F00E945211182F682F89819A8165
:1015A0000E94FB1069817A81812F0F900F900F901C
:1015B0000F900F90DF91CF911F910C948A250E947C
:1015C0002911182FEFCF0E94521169817A81EDCF36
:1015D000FC01262F408151816281738184810C94AA
:1015E000B50A81E00895CF93DF93EC0160E00E949B
:1015F000E80ABE01DF91CF910C94B30AE1E0F0E07C
:10160000DF0102C0AA0FBB1F6A95E2F7BD01DF012F
:1016100002C0AA0FBB1F4A95E2F76A2B01C0EE0F6A
:101620002A95EAF7962F9823961302C08E2B0895D9
:10163000E0958E230895242F462F682F80910A026B
:101640000E94FE0A0C94B8100E943E190E948D0C54
:101650000C9455060C94590980E00E948E0C0E944F
:1016600041230C94380A089508950E9450100E9456
:10167000340B2FEF84E39CE0215080409040E1F751
:1016800000C000000C94C42C0F931F93CF93DF93E2
:101690008C0161E00E94E80AEC01B8010E94931FEE
:1016A0008823D9F1B801CE010E94B00A8823A9F19C
:1016B000B801CE010E949A27882379F1B801CE01A2
:1016C0000E949823882349F1B801CE010E94042783
:1016D000882319F1F8018281882361F0CA35FDE57C
:1016E000DF0721F170F4C115ECE5DE07A1F0CE3D76
:1016F000DC45C9F0C801DF91CF911F910F910C9487
:10170000AE0ACB358DE5D807A1F0CC35DD4591F794
:101710000E946515EFCF0E94350B80E0DF91CF91DD
:101720001F910F9108950E941E16F7CF0E946E150B
:10173000E1CF0E947115DECF0C94330B0E941F2B5A
:101740000E948E0C0C949C0BDF92EF92FF920F93F1
:101750001F93CF93DF93E82FF0E0E359FB4FD49032
:10176000282F26952695269530E0F901E35FFA4F5C
:101770000491877010E0082E02C0159507950A9411
:10178000E2F701701127F901E350FB4FE490F12CCF
:10179000082E02C0F594E7940A94E2F791E0E9225A
:1017A000FF24F901E351FB4FC491D0E002C0D5956D
:1017B000C7958A95E2F7C170DD270115110519F06B
:1017C00081EE0E94030DE114F10419F086EE0E94EF
:1017D000030D8D2D0E94E80DEF2819F086EE0E9472
:1017E0007B0D012B19F081EE0E947B0DCD2B51F06A
:1017F0008CE2DF91CF911F910F91FF90EF90DF90DE
:101800000C94E80DDF91CF911F910F91FF90EF9015
:10181000DF900895EF92FF920F931F93CF93DF9382
:10182000EC01162F0AE08881882309F454C0813026
:1018300009F04EC08981813099F47E0122E0E20EE8
:10184000F11C8A810E94E80DE7012196812F8150C9
:1018500050F3EFE9FFE03197F1F700C00000F7CF58
:10186000823041F47E0182E0E80EF11C8A810E9400
:10187000030DEACF833041F47E01E2E0EE0EF11C6D
:101880008A810E947B0DE0CF843011F02196DDCF5C
:101890002A81229690E080E0AE014F5F5F4F205397
:1018A000330B2A30310548F0019778F2EFE9FFE079
:1018B0003197F1F700C00000F7CF089FB001099FF2
:1018C000700D1124C901860F971F2981EA01E4CF09
:1018D0000E94A40BBACFDF91CF911F910F91FF907F
:1018E000EF90089560E00C940A0C982F92959F70E9
:1018F00011F0892F94E0282F2695269511F09E5FF0
:10190000822F869509F09F5F892F089508950C9482
:10191000860C81E008950C94890C0895CF93C82F0C
:101920000E94870C8C2FCF910C948B0CCF93DF935C
:10193000CDB7DEB72B970FB6F894DEBF0FBECDBF85
:101940004F83588769877A878B8761110E94C014FB
:101950001E821D8285E0FE013796DE011196019000
:101960000D928A95E1F78C819D81892B89F44981BB
:101970005A816B817C818D819E810E94E1132B961F
:101980000FB6F894DEBF0FBECDBFDF91CF910895A3
:1019900089819A8189238F3F51F3CE0101960E945C
:1019A000F10A8111E4CFEBCFFC01808191810C948D
:1019B0007F110F931F93CF93DF9300D000D000D0FF
:1019C000CDB7DEB7082F162F0E94FC1E29834B834C
:1019D0005C836D837E83002399F0312B4981532FE3
:1019E0006B817C818D819E8126960FB6F894DEBF37
:1019F0000FBECDBFDF91CF911F910F910C941D1F92
:101A000010953123EBCFCF93C82F882309F471C0F1
:101A10008238C1F40E941F2B81FD6BC089E30E94B4
:101A20007B140E94E3142FEF81EE94E0215080405C
:101A30009040E1F700C0000089E30E948214CF913A
:101A40000C94E3148338A1F40E941F2B80FD51C035
:101A500083E50E947B140E94E3142FEF81EE94E053
:101A6000215080409040E1F700C0000083E5E5CFC1
:101A70008438A1F40E941F2B82FD3BC087E40E94A2
:101A80007B140E94E3142FEF81EE94E021508040FC
:101A90009040E1F700C0000087E4CFCF8CEF8C0FBF
:101AA000813A90F46C2F80910401909105010E947D
:101AB0008C2B882329F08C2F0E9482140E94E3141F
:101AC0008C2F0E947B14BBCF80E28C0F883048F4AF
:101AD000C77081E001C0880FCA95EAF70E94A3147D
:101AE000AECFC03F30F08C2F0E94851CCF910C945C
:101AF000581DCF910895882309F452C0823871F49B
:101B00000E941F2B81FF4CC089E30E947B140E941E
:101B1000E31489E30E9482140C94E314833859F48B
:101B20000E941F2B80FF3CC083E50E947B140E9413
:101B3000E31483E5EFCF843859F40E941F2B82FF12
:101B40002FC087E40E947B140E94E31487E4E2CF55
:101B50009CEF980F913AF0F290E2980F983050F481
:101B6000877091E001C0990F8A95EAF7892F0E944A
:101B7000A914D2CF9BE5980F933020F490E080E039
:101B80000C944E2B98E5980F973120F490E080E06C
:101B90000C94642B803F20F00E94DF1C0C94581D95
:101BA00008951F93CF93DF93182FEB010E94030D2D
:101BB000209731F4812FDF91CF911F910C947B0DF1
:101BC0008FE99FE00197F1F700C000002197F0CF67
:101BD00070E060E0893311F460E570E00C94D10DA1
:101BE000882321F00E94A3140C94E3140895882301
:101BF00021F00E94A9140C94E3140895BF92CF928F
:101C0000DF92EF92FF920F931F93CF93DF936C01BC
:101C1000D62FC72FFC011281F580F2949FE0F922A4
:101C20000E949914E82E8823B9F0E12E1123A1F027
:101C30008C2F807F803421F080E28D0F8830D0F0AF
:101C40008091190382FD16C082E00E9434150E9423
:101C5000991491E0E82EE926BC2EB2948FE0B822C8
:101C6000FBE0FB1508F468C0EB2DF0E0E053FB4C03
:101C70000C946034E12CF0CF0C2F0F70C07F11F06A
:101C80000295007F112399F0002359F080E28D0F17
:101C9000883010F0D11107C0802F0E94A3140E9439
:101CA000E3148D2F41C0802F0E94B314F8CF8D2FE5
:101CB0000E947B0D002309F43FC080E28D0F883025
:101CC00010F0D11104C0802F0E94A91403C0802FEE
:101CD0000E94B9140E94E3142FC00C2F0F70C07F14
:101CE000C03211F00295007FDD2381F0D13009F47C
:101CF0006AC0112309F474C0FF2009F46AC0F60118
:101D0000858180FFCECF8F70858363C0809119035A
:101D100082FF39C0112359F0002329F0802F0E943F
:101D2000A3140E94E31480E00E94030D05C080E02C
:101D30000E947B0D0111C7CF2B2D2850330B24306F
:101D4000310520F40E941F2B0E948E0CEE2009F416
:101D50004CC10E94951480FD48C1F60112820E9478
:101D60008F140E94C910C6010E9416100E948F1481
:101D7000DF91CF911F910F91FF90EF90DF90CF9067
:101D8000BF900C94D410112389F0F11006C00E946A
:101D9000C614802B0E94F00DCFCF21E0F212F7CFB6
:101DA0000E94C614802B0E94CC14C6CFF11006C02E
:101DB0000E94D914802F0E94F70DBECF31E0F31698
:101DC00009F4BACFF5CF112331F085E08F1508F46F
:101DD000B3CF802FDFCF94E09F1508F4ADCFEACFCB
:101DE000FF2041F3D93349F4FFEF27EE33E0F15000
:101DF00020403040E1F700C000008D2F0E947B0D95
:101E00009BCF8D2F112391F00E94851CED2FE45F55
:101E1000FF0BE530F10568F461E070E001C0660F8A
:101E2000EA95EAF7812F0E94D90C86CF0E94DF1C29
:101E3000EDCF0E94581D80CF8C2F837079F5111142
:101E40007BCF4D2F429546954770440F440F8D2F01
:101E50008F70042E01C0880F0A94EAF72D2F20718D
:101E6000D4FF07C02FE030E001C0220F4A95EAF707
:101E70002095C695C695C370822BC23049F058F4A0
:101E8000C13019F00E94AA1057CF0E94A51054CF5C
:101E90000E94AF1051CF0E94A3104ECF8695112300
:101EA00011F08C2F8170882309F446CF4D2F429575
:101EB00046954770440F440F8D2F8F70042E01C03C
:101EC000880F0A94EAF72D2F2071D4FF07C02FE066
:101ED00030E001C0220F4A95EAF72095C695C695D5
:101EE000C370822BC23049F058F4C13019F00E94FF
:101EF000F01022CF0E94EB101FCF0E94F5101CCFD4
:101F00000E94B81019CFCF70112329F08C2F0E9496
:101F1000C9108D2F3FCF8D2F0E94F70D8C2F0E945F
:101F2000D4100ACFD23F51F160F4D03FB9F0D13F85
:101F300081F0112309F449C0F110B3CE8C2F8F71B9
:101F400021C0D33F11F1D43FA1F78091190382FF43
:101F500026C08C2F8F71112311F314C0112349F067
:101F6000F4E0FF1508F4E8CE8C2F8F710E94E0108A
:101F7000E3CE25E02F1508F4DFCEF6CF8C2F8F713E
:101F80001111CDCF0E94C910D7CE112329F08C2F6B
:101F90008F710E94C110D0CE0E94BE10CDCE1123F1
:101FA00049F0CF718C2F0E94C91063E08C2F0E94E2
:101FB0001915C2CE81E00E94341531E03F1508F0BA
:101FC000BBCE82E00E943415B7CEFF2059F0D93342
:101FD00009F013CF8FEF97EEE3E081509040E0409F
:101FE000E1F709CF8C2F8F719ACFDF91CF911F919D
:101FF0000F91FF90EF90DF90CF90BF9008950F93D7
:102000001F93CF93DF93EC01688179818A810E94CD
:1020100089118C010E94FA100E94A210B801CE0111
:10202000DF91CF911F910F910C94FE0DCF93DF9311
:10203000EC018B819C81892B29F0888199818923EE
:102040008F3F59F4DF91CF910895CE010E94FF0F89
:10205000CE01DF91CF910C94F30ACE010E94440B84
:102060008111F3CF0E949914882361F38A81882318
:1020700049F38091190382FDE5CF82E0DF91CF9192
:102080000C9434150E94C0140E94C3140E94E314DF
:102090000E947F1E0C94581D0E9489140C944210BB
:1020A0000E94B0140C944C10E92FE295EF70E250AE
:1020B000EE3070F4F0E0E452FB4C0C946034803F5E
:1020C00019F020F4883E20F481E00895843FE1F384
:1020D00080E00895883EC0F3813FD1F7F5CF93FBB0
:1020E000882780F90895FC01808191810E947F11E9
:1020F0000C945410CF93DF9300D000D00F92CDB743
:10210000DEB70F900F900F900F900F90DF91CF914F
:102110000895CF93DF9300D000D000D0CDB7DEB7C5
:1021200026960FB6F894DEBF0FBECDBFDF91CF91DC
:10213000089508950C9499100E949A1080930B02B0
:102140000C94421008950C949C1090910B02892BD2
:102150000C949C1090910B0289230C949C109091EC
:102160000B0289270C949C100C9499100C94B410B9
:102170000E94B61080930A020C94421080E00C94E6
:10218000B81091E001C0990F8A95EAF7892F0C9455
:10219000B81021E030E001C0220F8A95EAF7809163
:1021A0000A02822B0C94B81021E030E001C0220F0B
:1021B0008A95EAF7209580910A0282230C94B81040
:1021C00021E030E001C0220F8A95EAF780910A02EF
:1021D00082270C94B81090910A02892B0C94B810A5
:1021E00090910A0289230C94B81090910A028927D1
:1021F0000C94B8100895E92FEE0FEE0F9E0F890F83
:10220000982F977041E001C0440F9A95EAF78695A0
:102210008695869593E0899FF0011124ED51FE4F3C
:1022200030E020E070E05191DF011197CB01022EE8
:1022300002C0969587950A94E2F78170819585276B
:10224000842385278C932F5F3F4F2330310559F727
:102250000895E92FEE0FEE0F9E0F890F982F9770BC
:1022600086958695869523E0829FF0011124ED5195
:10227000FE4F50E040E080E0219130E0092E02C0A6
:10228000369527950A94E2F721703327042E01C072
:10229000220F0A94EAF7822B4F5F5F4F43305105BC
:1022A00059F70895CF92DF92FF920F931F93CF9328
:1022B000DF936C0100910A0280910B02082BC7E0AA
:1022C000D0E010E0FC2EC8010C2E02C09595879539
:1022D0000A94E2F780FD0CC02197A0F7F12C8F2D16
:1022E000DF91CF911F910F91FF90DF90CF900895D4
:1022F000B6018C2F0E940518019771F3F0CFCF9390
:10230000DF93EC010E945211BE01DF91CF910C943A
:1023100005181F93CF93DF93EB019091E20199236E
:1023200031F0CB01DF91CF911F910C947F11882365
:1023300079F0CB010E945211182F682FCE010E9414
:10234000FB10BE01812FDF91CF911F910C940518D6
:10235000CB010E942911182FF4CF1F93CF93DF9345
:10236000C0910C0216E080910D028C1304C0DF9125
:10237000CF911F910895D0E01C9FF0011D9FF00D9B
:102380001124E25FFD4F408151816281738184811C
:1023900095810E9489102196C770E5CF40913E0239
:1023A00050913F026091400270914102809142023F
:1023B000909143020C948910FF920F931F93CF9337
:1023C000DF9380914302807FD1F480914002882383
:1023D000B1F080910C0210910D0260913E0270915B
:1023E0003F02A0914102B0914202062F0723C09103
:1023F0000201D091030196E0F92E181306C0DF9177
:10240000CF911F910F91FF90089590E0109711F0D8
:102410000F3F19F401968770F0CFF89E9001F99E56
:10242000300D1124F901E25FFD4F41814713F2CFD6
:1024300040814613EFCF42814111ECCF438154815B
:102440004A1B5B0B4C175D0728F7809143028F7086
:10245000806180934302F901ED5EFD4F80818F70B2
:10246000806180838EE392E00E941610DF91CF910D
:102470001F910F91FF900C94AD11AF92BF92CF922C
:10248000DF92EF92FF920F931F93CF93DF93CDB71D
:10249000DEB761970FB6F894DEBF0FBECDBF8C01DB
:1024A00085E0F801DE011D9601900D928A95E1F715
:1024B000F801E2808EE3C82E82E0D82E60914102BE
:1024C000709142026115710509F45FC190913E025D
:1024D00020913F02892F82238F3F09F456C140810A
:1024E0005181A380B480F0904002F501E61BF70B08
:1024F000BF01E0910201F0910301FF2009F4F6C051
:1025000080914302382F307F6E177F0708F0AFC0ED
:10251000311179C0FE2C251323C0941321C0E11082
:102520001FC08F708061809343020E94CE11C6014C
:102530000E94161080914302F80185838F2D6196C9
:102540000FB6F894DEBF0FBECDBFDF91CF911F91C4
:102550000F91FF90EF90DF90CF90BF90AF900895D4
:10256000AB2829F0842F85238F3F09F027C180E015
:10257000F82FF170DF2E80FF3CC080910C0220917B
:102580000D0236E0821315C04D875E878D859E85CE
:102590000E947F11292F22952F702230F0F02430D5
:1025A00018F59F70F1F0F8019581907FD1F4D12C4E
:1025B0001EC090E0389FF001399FF00D1124E25FBA
:1025C000FD4F6181651306C06081641303C06281A1
:1025D0006E110FC001968770D5CF9F7011F08823C0
:1025E00031F3805E883018F3C8010E941610FD2C6C
:1025F000A5CFEE2009F4A2CF8091430281608093A1
:102600004302F12C9BCF251306C0941304C0F8019C
:10261000EE2009F487C0C8010E947310882319F1C5
:10262000EE2009F180914302803270F020913E0249
:1026300030913F0238872F831986BB86AA868C8704
:10264000CE0107960E94161086E0F801AEE3B2E0D4
:1026500001900D928A95E1F70E94DC110E94CE1143
:10266000FF24F3946BCFC8010E941610F9CF3111EB
:1026700013C07A2DB98AA88A6E2D89890E947A1092
:102680008EE392E00E94161086E0F60111928A9580
:10269000E9F70E94CE11B5CF25130FC094130DC0DA
:1026A000E1100BC0F8018583C8010E94161086E076
:1026B000F60111928A95E9F741CFC8010E94731083
:1026C000882389F2EE2079F280914302803208F467
:1026D000BBCF20913E0230913F023A8329831B8277
:1026E000BD82AC828E83CE010196ACCF6E177F0780
:1026F00008F03EC0FE2CEE2009F4B5CF25132AC009
:10270000941328C08091430280FD1BC0982F907FB6
:10271000C1F0F8018583903F31F0982F907F905F52
:102720008F70892B8583C8010E94161086E0F801FE
:10273000AEE3B2E001900D928A95E1F70E94CE11CE
:10274000FDCE86E0F801AEE3B2E001900D928A95ED
:10275000E1F7F4CEC8010E947310811175CF80910A
:102760004302816080934302C8010E941610E6CEA6
:102770007A2DB98AA88A6E2D89890E947A1086E0FE
:10278000F60111928A95E9F7D9CFEE2009F46BCFC3
:10279000C8010E947310F82E882309F464CF86E0E4
:1027A000F801AEE3B2E001900D928A95E1F78EE375
:1027B00092E00E94D40C0E94DC11C0CF81E08E25F3
:1027C000D7CE1F93CF93DF93CDB7DEB72C970FB63D
:1027D000F894DEBF0FBECDBF4F83588769877A87D5
:1027E0008B879C87CE0107960E943D12882369F053
:1027F0008A859B85892B39F04F815885842F8523C5
:102800008F3F09F071C016E05FC086E0FE01379689
:10281000DE01119601900D928A95E1F78A859B85DC
:10282000892B89F38F81988589238F3F61F32091CC
:102830000D0230E0C90101968770992740910C0282
:102840004817190671F40E94501010920D02109250
:102850000C0286E0EEE3F2E0DF011D928A95E9F7D3
:10286000D2CF96E0929FD001939FB00D1124A25F2A
:10287000BD4FFE01319601900D929A95E1F780933C
:102880000D020E94AD11BFCF819FC0011124825F54
:102890009D4F0E943D128823E9F0E0910C021E9F9B
:1028A000F0011124E25FFD4F40815181628173810B
:1028B000848195810E94891080910C0290E001969C
:1028C0008770992780930C0280910C0290910D02E1
:1028D0008913DACF2C960FB6F894DEBF0FBECDBFAA
:1028E000DF91CF911F91089569857A858B859C85AD
:1028F0000E94891088CF682F809104019091050172
:102900000C94C22B682F80910401909105010C94C6
:10291000C42B80910401909105010C94C62B8091E9
:102920004402859585958595089580914402877028
:10293000089590914402977081E009F480E0089531
:1029400080915002089590915002892B80935002FB
:102950000895809590915002982390935002089585
:1029600010925002089590914F02892B80934F024C
:102970000895809590914F02982390934F02089567
:1029800010924F02089510924E02089580914502D0
:10299000089508950C94C9149091190392FD08C0EC
:1029A00090914502981721F0809345020C94CA1427
:1029B000089580914502882329F01092450280E015
:1029C0000C94CA140895E0910401F09105018091DE
:1029D00050028083E0910401F09105018081909183
:1029E0004F02892B8083E0910401F09105018081E1
:1029F00090914E02892B808390914502992381F01A
:102A0000E0910401F09105018081892B8083809100
:102A10000401909105010E947A2B81110E94D91422
:102A200080910401909105010C94352B08950C942C
:102A300016159091190392FD10C098E0899F90019E
:102A40001124622B609344020E94C91080914402B9
:102A50008595859585950C9417150C94C910109241
:102A6000440280E00C9417159091440280958923CC
:102A700080934402282F277091F4282F082E000CF1
:102A8000330B9217130659F09091190392FD07C06A
:102A90008595859585950E94D4100C942F150895E1
:102AA0009091190392FB222720F9281769F080FBE7
:102AB00092F99093190380911803909119030E9441
:102AC0009B1582E00C94341508958091190382FBC4
:102AD000882780F991E089270C94501581E00C94A7
:102AE000501580E00C9450156FEF7FEF90E080E080
:102AF0000C94B83490E080E00E949434893E9E4F5C
:102B000011F40C943C1F80E0089582E090E00C9456
:102B10008C3483E090E00C948C34CF9384E090E08C
:102B20000E948C34C82F82E290E00E948C34982F4F
:102B30008C2FCF910895CF93C92F682F84E090E018
:102B40000E949A346C2F82E290E0CF910C949A34D8
:102B5000AB01BC018FE090E00C94AC34AB01BC0144
:102B600083E190E00C94AC3460E070E0CB010C9415
:102B7000AE1560E070E0CB010E94A8150C94B4156E
:102B800069EE7EEF90E080E00E94B83460E082E081
:102B900090E00E949A3460E083E090E00E949A34D2
:102BA00010920B0260E084E090E00E949A3460E0B2
:102BB00082E290E00E949A3460E085E090E00E941A
:102BC0009A3460E086E090E00E949A346FEF87E0EC
:102BD00090E00E949A3440E050E0BA0188E090E032
:102BE0000E94AC3460E08DE090E00E949A3440E0B6
:102BF00050E0BA0188E190E00E94AC3460E087E1E7
:102C000090E00E949A3440E050E0BA018CE190E0FC
:102C10000E94AC3470E060E080E290E00E94B83442
:102C200040E050E0BA0188E190E00E94AC3480E0DE
:102C30000E94551F0E947B1F0C94B9150C94C0155F
:102C4000682F8EE090E00C949A340E94692C609377
:102C50006E0270936F028093700290937102609382
:102C60006A0270936B0280936C0290936D020895D8
:102C70000E94692C60936E0270936F0280937002C1
:102C8000909371026093660270936702809368026A
:102C900090936902089585B7806885BF85B780687D
:102CA00085BF0895089508950C94521608950C94C4
:102CB00056160E944B1684E299E10E94152B0E9441
:102CC00053160C9454160C948F19089508950E946D
:102CD00065160C9466160E94542C0E94E3180E94FC
:102CE0008A1F0E9460060E94832080E00E94E320E9
:102CF0000E9453260E94360A0C9457169F92AF9258
:102D0000BF92CF92DF92EF92FF920F931F93CF93D8
:102D1000DF93CDB7DEB72A970FB6F894DEBF0FBEAC
:102D2000CDBF0E942C07C82E81110E94251682E576
:102D3000A82E82E0B82E10E000E0902E802F0E9496
:102D40005906E82EF501F1905F01F81609F45EC00E
:102D50008091720281FD0E945F068F2D8E25D12CFD
:102D6000FF24F394982F9F2109F44BC00E9463160F
:102D7000882399F0DE829F82EF2081E009F480E0D1
:102D800088870E945D2C8160782F9A8789874E8181
:102D90005F8168858A850E94960CF801EE5AFD4F86
:102DA0008081F826F0820E946C26182F81110E94E3
:102DB00038160E945E23C11001C011110E94252205
:102DC0000E94731D0E94380A0E941F2B909151028D
:102DD000891799F10E941F2B809351022A960FB6F2
:102DE000F894DEBF0FBECDBFDF91CF911F910F9141
:102DF000FF90EF90DF90CF90BF90AF909F900C949A
:102E00008E0CD394FF0CF5E0DF12ACCF0F5F1F4F99
:102E10000431110509F091CF8FEF89838A831B82DA
:102E20000E945D2C8160782F9D838C8349815A811B
:102E30006B818D810E94960CB6CF2A960FB6F894BE
:102E4000DEBF0FBECDBFDF91CF911F910F91FF90DD
:102E5000EF90DF90CF90BF90AF909F900895CF9369
:102E6000DF930E940918EC01811522E5920778F59D
:102E7000811531E5930708F098C08F3F910509F05F
:102E8000B8F4803F910508F06FC0853A910540F491
:102E90008430910548F4019739F0D0E0C0E004C0D7
:102EA000805E91090897C8F7CE01DF91CF91089510
:102EB000811540E5940708F05CC0C11580E4D8078F
:102EC00008F054C0C11590E2D90770F3E6CF811520
:102ED00026E5920718F5811535E5930708F07DC0C2
:102EE000811544E5940708F073C0982F9695969540
:102EF0009E0123703327C115D34508F45BC0C1E0A0
:102F0000D0E002C0CC0FDD1F2A95E2F730E2939F9C
:102F1000C0011124C82BD92BDA68C6CFC1159AE598
:102F2000D90778F4C11529E5D20708F060C0C115AA
:102F300038E5D30708F4B1CFDC2FCC27C06FD06AB7
:102F4000B3CFCE0190568115904208F0A6CF8D2FB9
:102F50008F710E94A01890E0982F882788279F7172
:102F60009C012C2BE90141C0D0659ECFDF70D06A57
:102F70009BCFE4E096958795EA95E1F783702C2F37
:102F800026952695237090E2299F90011124382BD5
:102F90008C2F8370C1E0D0E002C0CC0FDD1F8A957A
:102FA000E2F7C22BD32BDC687FCFD82FCC27C16FA1
:102FB000D06A7ACFC1E0D0E002C0CC0FDD1F2A95E5
:102FC000E2F720E2929FC0011124C82BD92BEBCF4E
:102FD000D82FCC27C46FD06A67CF0E94A018C82F03
:102FE000D0E0DC2FCC27CC27DF71D0625DCF8C2FD7
:102FF0008F700E94A01834E0D695C7953A95E1F7F6
:10300000CF709C2FEC01D0694FCF0E948A250C9481
:103010002F1782389105B1F1B0F48133910509F48D
:1030200075C048F48932910509F469C08A32910566
:1030300009F473C008958533910509F459C08933A3
:10304000910501F10895833E9105A9F138F4803E80
:103050009105F9F0823E910549F10895863E91056A
:10306000A9F1873E9105C9F1843E910519F520919A
:10307000190321FF1FC08091180384FD14C087EE3F
:1030800090E00895209118032370A1F080EE90E065
:1030900008952091180320FD47C03091190330FF97
:1030A00009C024FF44C090E080E004C020911803D0
:1030B00022FDF7CF08952091180322FD3BC03091E7
:1030C000190330FDE3CF24FFF5CFEDCF2091180396
:1030D00023FFF0CF24FDE7CFD2CF2091180323FDAB
:1030E0002CC03091190331FFEECF84EE90E00895AB
:1030F0002091180325FFDECF89E290E0089520910A
:10310000180325FFD7CF85E390E008952091180399
:1031100026FFD0CF8AE290E008952091180326FF81
:10312000C9CF81E390E0089589E390E0089583EEAC
:1031300090E0089582EE90E0089586EE90E0089584
:103140009091180392FF06C0282F28712830F9F4B7
:10315000877F846093FF06C0282F28712831F1F4FF
:10316000877E84612091190320FF06C0382F3871B3
:103170003830D9F4877F816021FF06C0282F28715D
:103180002831D1F4877E816194FD877E0895282FB0
:1031900024712430F9F68B7F8860DCCF282F2471CE
:1031A000243101F78B7E8861DDCF382F31713130CA
:1031B00019F78E7F8860E0CF282F2171213121F708
:1031C0008E7E8861E1CF1092140310921503109245
:1031D0001603109217030895CF92DF92EF92FF9299
:1031E0006B017C010E948F1981110EC00E94692C15
:1031F000C61AD70AE80AF90AC0921403D092150336
:10320000E0921603F0921703FF90EF90DF90CF90BB
:1032100008950F931F930E948F19882321F01F9107
:103220000F910C94692C0E94692C00911403109149
:1032300015032091160330911703600F711F821F31
:10324000931F1F910F91089580E008950C947415B9
:103250000E942C078FE39CE90197F1F700C0000062
:103260000E942C0780E00E94590680FF04C00E9443
:1032700026190C94C42C08950C9428190E947A15D0
:10328000811102C00E941E160E9485158093720251
:103290000E948D1590931903809318030E943C1986
:1032A0000E9489150E94A31080910A020C94B61006
:1032B0000895FF920F931F93CF93DF93F82E092F5A
:1032C000162FD72FC42F222349F081E08093750257
:1032D0000E945D2C9093740280937302809175021A
:1032E0008823A1F080917302909174020E94752C42
:1032F000059760F0EF2DF02FA12FBD2FCE0FDF2F00
:10330000D11DEC17FD0741F410927502DF91CF91AA
:103310001F910F91FF90089581918D93F2CF80912D
:103320007602811107C00E941F34882351F081E08A
:103330008093760281E090917602913009F080E0EE
:10334000089582E0809376020E941A34F3CF0C94A1
:103350008F190E94A719809306010E948F1981116D
:103360000C94C11908950E948F19811102C00C9408
:10337000C319089581E0909177029A3008F080E0B7
:1033800008950C9454290C945729EF92FF920F93AF
:103390001F93CF93DF937901C82F880FDD0B411561
:1033A0005105A9F08AE08C9FF0018D9FF00D11244A
:1033B000E95FFE4F8381948188589D4F228130E0E0
:1033C0004217530708F49A01A9010E948334CE01E1
:1033D0000E94612A892B11F501151105E9F08AE097
:1033E0008C9FF0018D9FF00D1124E95FFE4F458108
:1033F00050E00417150708F4A8018AE08C9FF0013B
:103400008D9FF00D1124E95FFE4F6681778168582A
:103410007D4FC7010E94833481E001C080E0DF91CD
:10342000CF911F910F91FF90EF9008950C94751B11
:103430000C94991B0F931F93CF93DF9300D000D070
:10344000CDB7DEB760919F027091A0028091A1027A
:103450009091A2020E94842C11E0643671058105CE
:10346000910518F10E9409196E5F7F4F8F4F9F4F92
:1034700069837A838B839C8310E000E030E020E056
:1034800044E050E0BE016F5F7F4F84E00E94C519A9
:10349000182F882351F00E94692C60939F0270932B
:1034A000A0028093A1029093A202812F0F900F900F
:1034B0000F900F90DF91CF911F910F9108957F9200
:1034C0008F929F92AF92BF92CF92DF92EF92FF9234
:1034D0000F931F93CF93DF930F92CDB7DEB7762E66
:1034E0004A015901680101E010E09E012F5F3F4F42
:1034F00050E040E070E060E00E94C519182F88237A
:1035000009F43EC0F40160817181828193810E943F
:10351000842C643671058105910558F18701950168
:1035200050E040E070E060E0872D0E94C519B82EA1
:10353000B701C6010E94842011E09981981310E020
:103540001B2139F00E94692CF4016083718382830E
:103550009383812F0F90DF91CF911F910F91FF9057
:10356000EF90DF90CF90BF90AF909F908F907F9023
:103570000895B701C6010E94842099818913CECF96
:10358000A701B601C5010E948334E3CFEF92FF92F9
:103590000F931F93CF93DF930F92CDB7DEB70091B8
:1035A000720110917301045F1F4FEE24E394F12C1C
:1035B0009E012F5F3F4F4BE952E063E082E00E94A3
:1035C0005F1A182F882321F0CE0101960E94C5268C
:1035D000812F0F90DF91CF911F910F91FF90EF906E
:1035E0000895CF92DF92EF92FF920F931F93CF93A4
:1035F000DF93CDB7DEB72A970FB6F894DEBF0FBEC4
:10360000CDBF6B0100917201109173010F5F1F4FCD
:103610008AE0E82EF12C9E012F5F3F4F47E952E0F0
:1036200061E080E00E945F1A882349F09AE0FE0181
:103630003196ADE8B2E001900D929A95E1F79AE0EB
:10364000EDE8F2E0D60101900D929A95E1F72A9605
:103650000FB6F894DEBF0FBECDBFDF91CF911F91A3
:103660000F91FF90EF90DF90CF900895AF92BF92AF
:10367000CF92DF92EF92FF920F931F93CF93DF933E
:103680007C015B016A010E94BA1901E010E0882305
:1036900011F00AE010E0C1E0D0E0F894B501C701F4
:1036A000F60109957894811104C021960C171D0725
:1036B0005CF4DF91CF911F910F91FF90EF90DF901D
:1036C000CF90BF90AF900895CC9F9001CD9F300DCB
:1036D000300D112490E080E045E34A95F1F70000B9
:1036E000019682179307C1F7D8CF0F931F93CF93FB
:1036F000DF93EC018B0141EF5AE10E94361B8823D6
:1037000091F046EC5AE1B801CE010E94361B8823A5
:1037100051F04AE15AE1B801CE01DF91CF911F91FA
:103720000F910C94361B80E0DF91CF911F910F9188
:1037300008950F931F93CF93DF930F92CDB7DEB70A
:10374000F8940091720110917301C80101962AE06A
:10375000FB01DC0101900D922A95E1F76AE070E02F
:103760000E948420F80180837894F894CE01019619
:103770000E94BC268981F801848761E070E0CE0157
:1037800001960E948420F80183877894F8946585D7
:103790007685878590890091890210918A0220910F
:1037A0008B0230918C02601771078207930751F0EA
:1037B0006093890270938A0280938B0290938C02AB
:1037C0000E94EC1878940F90DF91CF911F910F9188
:1037D00008950E94692E0E946B160C94752E0E940B
:1037E000792E0E947E160C94932E0E94E72B0E9445
:1037F000502E0E9459160E94E91B0E94EF1B0E9446
:103800006716FBCF8091A90280FF12C060913E0134
:1038100085E0689FB001112475956795759567954A
:1038200060387105A8F561157105A1F1862F08951D
:1038300081FF09C060913E0185E0689FB0011124BD
:1038400075956795EDCF60913E0182FD0AC080912C
:10385000A8028823D1F090913D0160913E01891723
:1038600028F085E0689FB0011124DACF869FB0016F
:10387000112485E0869F9001879F300D1124692FC8
:1038800070E0C9010E944C34CBCF65E070E0CECF30
:103890008FE7089581E008958091A90280FF0CC010
:1038A00060913A0170E0759567957595679561151A
:1038B000710549F1862F089581FF06C060913A0194
:1038C00070E075956795F3CF60913A0182FD0BC06A
:1038D0009091A7029923A1F06091390180913A015A
:1038E000961738F0682F70E06038710500F38FE7A5
:1038F0000895899FC001112470E00E944C34F4CFD8
:1039000061E070E0D7CF81E00895803F31F40E94FC
:10391000021C81958093AD020895813F19F40E94A5
:10392000021CF8CF823F31F40E94021C81958093E3
:10393000AC020895833F19F40E94021CF8CF893F1E
:1039400029F40E944C1C8093AE0208958A3F21F412
:103950000E944C1C8195F7CF8B3F31F40E944C1C88
:1039600081958093AF0208958C3F19F40E944C1CFE
:10397000F8CF9CE0980F953070F4845F990B21E0AC
:1039800030E001C0220F8A95EAF78091AB02822BCA
:103990008093AB0208958D3F31F48091A90281603C
:1039A0008093A90208958E3F21F48091A90282603C
:1039B000F7CF8F3FB9F78091A9028460F1CF409192
:1039C000AC02803F59F48091AD0287FF0DC0109288
:1039D000AD0241110BC01092A80208C0813F81F4D2
:1039E0008091AD0218169CF3442381F08091AE02C1
:1039F0009091AF02892B09F05AC01092A702089546
:103A0000823F49F447FFF0CF1092AC028091AD02A3
:103A10008111ECCFE0CF833F19F41416ACF3E4CF5F
:103A20009091AE02893F29F41916F4F61092AE0275
:103A3000DBCF8A3F19F497FFD7CFF8CF9091AF0231
:103A40008B3F29F497FFD0CF1092AF02CDCF8C3FA0
:103A500019F41916CCF3C8CF9CE0980F953090F468
:103A6000845F990B21E030E0B90102C0660F771F37
:103A70008A95E2F7CB0180959091AB0289238093E0
:103A8000AB02B2CF8D3F31F48091A9028E7F80933B
:103A9000A902AACF8E3F21F48091A9028D7FF7CF92
:103AA0008F3F09F0A1CF8091A9028B7FF0CF0895BD
:103AB0000E945D2C9C019091AC028091AD02982BEC
:103AC00021F03093A6022093A5029091AE0280913E
:103AD000AF02982B21F03093A4022093A3028AEA2C
:103AE00092E00C94402BEF92FF920F931F93CF9391
:103AF000DF9300D000D000D0CDB7DEB786E0EAEA91
:103B0000F2E0DE01119601900D928A95E1F7E090C6
:103B1000AC02F090AD020091AE021091AF02109293
:103B2000AC021092AD021092AE021092AF028E2D36
:103B30008F2991F08091A5029091A6020E94752C88
:103B4000AC019091A802992309F43FC080913F01F4
:103B50008417150608F447C0802F812B91F08091BF
:103B6000A3029091A4020E94752CAC019091A7022F
:103B7000992309F477C080913B018417150608F456
:103B80007FC08091AC029091AD02892B9091AE02E2
:103B9000892B9091AF02892B11F00E94581D86E06D
:103BA000FE013196AAEAB2E001900D928A95E1F702
:103BB00026960FB6F894DEBF0FBECDBFDF91CF9132
:103BC0001F910F91FF90EF900895209140018AE09E
:103BD000289F900111242417350708F0BDCF9F5F5F
:103BE0009093A80202C09F3FD1F7EE2059F00E94A7
:103BF000021C9FEF1E140CF491E0899F802D11246C
:103C00008093AC02FF2059F00E94021C9FEF1F140A
:103C10000CF491E0899F802D11248093AD023091A6
:103C2000AC02332309F498CF2091AD02222309F48A
:103C300093CF45EB3403C0011124992359F090939D
:103C4000AC0245EB240390011124332339F0309367
:103C5000AD0282CF81E08093AC02F3CF81E080930C
:103C6000AD027ACF20913C018AE0289F9001112477
:103C70002417350708F085CF9F5F9093A70202C0F5
:103C80009F3FD1F7002359F00E944C1C9FEF101664
:103C90000CF491E0899F802D11248093AE021123B2
:103CA00059F00E944C1C9FEF11160CF491E0899F73
:103CB000802D11248093AF023091AE02332309F49A
:103CC00060CF2091AF02222309F45BCF45EB340390
:103CD000C0011124992359F09093AE0245EB2403BF
:103CE00090011124332339F03093AF024ACF81E0A1
:103CF0008093AE02F3CF81E08093AF0242CF86E0A3
:103D0000EAEAF2E0DF011D928A95E9F71092A80233
:103D10001092A7021092A9020895EF92FF920F93BA
:103D20001F93CF93DF93CDB7DEB72C970FB6F894E0
:103D3000DEBF0FBECDBF49835A836B837C838D83E7
:103D40009E83EF82F88609871A872B873C8746E097
:103D500050E0BE01695F7F4FCE0101960E9476342C
:103D600021E0892B09F420E0822F2C960FB6F894DD
:103D7000DEBF0FBECDBFDF91CF911F910F91FF909E
:103D8000EF900895EF92FF920F931F93E090B0028F
:103D9000F090B1020091B2021091B3022091B402EE
:103DA0003091B5024091B6025091B7026091B802CD
:103DB0007091B9028091BA029091BB020E948D1E4F
:103DC000882321F086EB92E00E94402B1092B802EB
:103DD0001092B9021092BA021092BB0286E0E6EB92
:103DE000F2E0A0EBB2E001900D928A95E1F71F910D
:103DF0000F91FF90EF900895CF93DF9300D000D004
:103E000000D0CDB7DEB786E0E6EBF2E0DE0111963A
:103E100001900D928A95E1F729813A814B815C816D
:103E20006D817E8180E090E026960FB6F894DEBF2B
:103E30000FBECDBFDF91CF910895CF93DF9300D018
:103E400000D000D0CDB7DEB749835A836B837C8323
:103E50008D839E8386E0FE013196A6EBB2E0019051
:103E60000D928A95E1F726960FB6F894DEBF0FBE45
:103E7000CDBFDF91CF91089583E290E00E948C3412
:103E8000823289F484E290E00E948C34813059F4CB
:103E900085E290E00E948C3491E0823009F090E05D
:103EA000892F8170089580E0FCCFCF93C82F6FEFEA
:103EB000811162E283E290E00E949A346FEFC111B7
:103EC00061E084E290E00E949A346FEFC11162E0F9
:103ED00085E290E0CF910C949A34089586E290E0C8
:103EE0000E948C34682F70E090E080E0089586E2B4
:103EF00090E00C949A3480E00E94551F60E070E0DE
:103F0000CB010E94771F0E9402250E94EC2581E0D0
:103F10000C94551F0E946D1F0E943C1F811102C00E
:103F20000C947B1F0895CF93FB01C281CC2309F130
:103F30009C0122513F452031310520F582510E94DC
:103F4000FC25C0E08C2FCF91089581E00E94C9101C
:103F500043E062E081E00E941B0BF3CF81E00E940E
:103F6000D41043E062E081E00E941B0BEBCF82E0C3
:103F7000F6CF8031FFE59F0789F381319F45B9F383
:103F8000C1E0E0CF8031EFE59E07F9F281319F4536
:103F9000C9F682E0DBCF2FEFFC0120830895EF927A
:103FA000FF920F931F93CF93DF93EC01062FE881CD
:103FB000E150E33108F05EC0F0E0E651FB4C0C94B8
:103FC0006034198289E08A83602FCE01DF91CF911E
:103FD0001F910F91FF90EF900C94292D89818230D1
:103FE00069F0833071F08130D9F40E94692C0E940D
:103FF00066346A837B838C839D83E6CF0E946E1F29
:10400000F6CF7E0182E0E80EF11C10E0812F0E94C5
:104010005906F70181937F011F5F1431B9F7D4CF9F
:10402000602FCE010E94CB1FCFCF89818230C1F794
:104030006A817B818C819D810E9466340E94771FFA
:10404000C3CF4B816A8189810E94D4249827892714
:1040500098279D838C83B8CF2C813D8132272327DD
:1040600032274B816A8189810E94ED24ADCF0E9465
:104070000225AACF8FEF8883A7CF0E949725898337
:10408000A3CF0E9499259827892798279A83898307
:104090009BCF6B8170E089819A81AE014C5F5F4F4D
:1040A0009827892798270E949C258ECF6B8170E0E6
:1040B00089819A81AE014C5F5F4F982789279827A5
:1040C0000E94C22581CF0E94EC257ECF0E94C2248F
:1040D000D6CF6B8170E089819A81AE014C5F5F4FD2
:1040E0009827892798270E943A256ECF6B8170E028
:1040F00089819A81AE014C5F5F4F98278927982765
:104100000E94602561CF0895FC01680F791F8FEF31
:1041100091E36E177F0709F408952191822728E023
:1041200030E087FF06C0880F892721503109C9F781
:10413000F0CF880FFACFCF92DF92EF92FF920F93DA
:104140001F93CF93DF936C017B0164E670E088E7F7
:104150000E94F227EC0197FD12C010E000E0F6018A
:10416000E00FF11F849164E670E00E946C28EC017E
:10417000892B29F40F5F1F4F0E151F0581F70E9431
:10418000EF28CE01DF91CF911F910F91FF90EF901B
:10419000DF90CF90089508950C94CB20EBE1F3E0ED
:1041A00080E092E0DF019C011D9221503040E1F758
:1041B000F0932205E09321058FEF9FEF9093E802A3
:1041C0008093E70208950E9461090E94CC208093A9
:1041D000E30280FD0FC080E88093E2020E94EC279A
:1041E0006DE070E084E395E00E949B20892B21F034
:1041F00080E0089580E2F0CF8091E30263E070E018
:1042000081FD26C081E395E00E949B20892B81F7E8
:104210006DE070E081E295E00E949B20892B41F7E0
:104220000E94692C605A75418F4F9F4F60931D0506
:1042300070931E0580931F05909320050E94CE2049
:1042400081E08093E6028093E5021092E4020895F3
:104250008EE295E0D9CF2091E20236E0839FC00143
:104260001124629F800D911D1124811522E0920777
:1042700014F090E080E0855E9C4F9093220580933F
:1042800021050895209121053091220525513340C3
:104290004091E202642F70E0C9010E943834481B4B
:1042A000463010F4240F311D211582E0380710F03C
:1042B00030E020E0255E3C4F30932205209321051D
:1042C00008951F93CF93DF93162F8A3031F481E046
:1042D000DF91CF911F910C94DB218D3011F480E0A0
:1042E000F7CFC0912105D091220596E0FE01ACEBFD
:1042F000B2E001900D929A95E1F7803EC8F086E019
:10430000FE0111928A95E9F711111EC0C091210595
:10431000D091220546E050E0BE018CEB92E00E9475
:104320007634892BF9F4DF91CF911F910C944221BF
:10433000F6E08F9FB00111246F5B7A4F46E050E0AA
:10434000CE010E946D34E0CFE0912105F09122056D
:104350009F012A5F3F4F2E173F07C1F28081809552
:104360008193F9CFCB51D340CE0125E09695879527
:104370002A95E1F721E030E0A90102C0440F551F62
:104380008A95E2F7CA014091E7025091E802842B36
:10439000952B259645E0D695C7954A95E1F702C03D
:1043A000220F331FCA95E2F7822B932B9093E802DA
:1043B0008093E702B8CFCF93382FE0912105F09199
:1043C0002205EB51F3402091E202622F70E0CF0111
:1043D0000E943834281B822F332369F066E00E9444
:1043E0002C34C82FC15010F4CF91089560E080E2C2
:1043F0000E946121F7CF9F01280F311D2115324006
:1044000018F080E0F0E0E0E08E0F9F2F911D855EB8
:104410009C4F9093220580932105E6CF1F93CF9365
:10442000DF93EC01162FFE018491811104C0DF910E
:10443000CF911F910895612F0E9461212196F3CFA2
:104440000E940E2281E00C94DB218091E602811112
:1044500003C08091E50208950E94692C605A75415D
:104460008F4F9F4F60931D0570931E0580931F050E
:10447000909320058091E5028111EBCF62E070E01E
:104480008FE195E00E949B20892B19F781E08093B2
:10449000E502DFCF2F923F925F926F927F928F92D1
:1044A0009F92AF92BF92CF92DF92EF92FF920F93C3
:1044B0001F93CF93DF938091E602882369F02091C8
:1044C000E7023091E8022115310531F08091E402D4
:1044D00061E070E0882399F0DF91CF911F910F91F7
:1044E000FF90EF90DF90CF90BF90AF909F908F9014
:1044F0007F906F905F903F902F9008958F5F082F6F
:1045000010E01B01082E02C0220C331C0A94E2F7B3
:10451000A90142215321452B89F39091E30290FD9B
:1045200044C08295880F8076809343019801369528
:1045300027953695279520934601815E8093440107
:104540001092470124E630E047E050E061E471E07A
:1045500088E70E949B28892B09F0BECFA80125E09F
:10456000440F551F2A95E1F78091E30280FD2BC08F
:10457000455E5C4F04E610E020E230E060E488E74E
:104580000E94C228892B09F0A7CF0E942522E101B1
:10459000C095D0958091E7029091E802C823D92375
:1045A000D093E802C093E70297CF880F880F880F57
:1045B0008093430110924601895F8093440183E018
:1045C00080934701BFCFE2ECF2E080E2DF011D9271
:1045D0008A95E9F7A8E7B1E004E711E08CE7C82E77
:1045E00081E0D82E97E0592E772473948D91E801BD
:1045F00029918E01240F352F311D255E3C4FE82F68
:10460000F0E0EE53FD4F90E080E0652C681A872CB7
:10461000082E01C0880C0A94EAF77901A12CE70161
:10462000B9907E01B820662D6A196770962E062E05
:10463000000C770BDB2D01C0DD0F9A94EAF7719522
:10464000619571096770772701C0B6946A95EAF79A
:10465000BD2A6081962E9B289082A39468E0A612C2
:10466000DECF019631968830910579F6CA16DB06C1
:1046700009F0BCCF04E610E020E230E042EC52E06A
:104680007DCF8091E5029091E602911103C091E007
:1046900089270895882369F062E070E08DE195E054
:1046A0000E949B20892B19F08091E50208951092B9
:1046B000E5028091E502EBCF81E008950F931F930F
:1046C0008091E602882389F180911B0590911C0559
:1046D0000E94752CC29760F00E945D2C90931C057F
:1046E00080931B0560E080E00E942B210E946B09F3
:1046F0000E944A228091E5028823B9F00E94692C29
:1047000000911D0510911E0520911F053091200577
:10471000601B710B820B930B6F3F7F4F8F4F9F4737
:1047200020F41F910F910C9441231F910F91089534
:10473000CF93DF93EC01FB018281882309F420C130
:10474000C330FDE5DF07C8F5CA3F9CE5D90730F463
:104750009E0122503C452431310598F50E948D156B
:104760009093190380931803C031FCE5DF0709F427
:10477000E0C008F061C0C8309CE5D90709F4CBC09F
:1047800088F5C430FCE5DF0709F4B3C0E8F4C230B3
:104790009CE5D90709F4A7C0809118038260C33053
:1047A000DC4509F4A3C080911803909119030E947D
:1047B0009B150E94501080E004C0C136EDE5DE0775
:1047C00069F2DF91CF910895809118038061C6301E
:1047D000FCE5DF0709F48AC008F48FC08091180354
:1047E000806284C0809118038D7FCC309CE5D9070E
:1047F00009F47CC070F4809118038C60CA30FCE529
:10480000DF0709F473C008F48AC0809118038E7F13
:104810006DC080911803877FCE309CE5D90709F4DD
:1048200065C0809118038B7FCF30DC4508F45EC0F3
:10483000809118038F7E5AC0CC3FFCE5DF0709F456
:1048400074C040F5C4319CE5D90709F48AC058F416
:10485000C231FCE5DF0709F474C008F46EC0809132
:104860001803837F43C0CA3F9CE5D90709F449C0B8
:1048700008F04DC0C531DC4509F095CF8091180393
:1048800082FB992790F921E0922790FB82F990FB17
:1048900083F92CC0C1158DE5D80709F458C088F4F8
:1048A000809119038360CE3FECE5DE0769F18091CA
:1048B00019038D7FCF3FDC4538F1809119038C7F40
:1048C00023C0C2308DE5D80709F458C008F452C09F
:1048D000C136DD4509F067CF90911803892F8F7E8F
:1048E00094FF806103C08091180381608093180356
:1048F0005ACF809118038460F9CF809118038860A3
:10490000F5CF809119038160809319034CCF80917A
:1049100019038260F9CF809118038064E7CF0E9469
:104920005010809118038068E1CF809119038E7F29
:10493000EBCF809118038F7DD9CF809118038F7BA7
:10494000D5CF0E945010809118038F77CFCF8091E0
:104950001903982F909591708E7F892B90FB81F988
:10496000D3CF0E94501090911803892F97FB87F99D
:104970008058BCCF81E00E94201615CF80E0FBCF8D
:1049800081E01FCF84E0089550E0440F551F9AE066
:10499000699F400D511D112498EC899F400D511DB8
:1049A0001124CA01879608950F931F93CF93DF9325
:1049B0000E94C4248C010E948C34C82FD0E0DC2FCC
:1049C000CC27C80101960E948C349E01282BC90176
:1049D000DF91CF911F910F9108950F931F93CF9364
:1049E000DF93122F032F0E94C424EC01602F0E943A
:1049F0009A34612FCE010196DF91CF911F910F91D3
:104A00000C949A34AF92BF92CF92DF92EF92FF92C2
:104A10001F93CF93DF938DE4C82E81E0D82ED0E092
:104A20007601C0E014C0F50125913491412F6C2F1F
:104A30008D2F0E94ED2482E0A80EB11C1F5F15305F
:104A400091F78AE0E80EF11CCF5FC43119F05701ED
:104A500010E0E9CFDF5F88ECC80ED11CD43001F73D
:104A6000DF91CF911F91FF90EF90DF90CF90BF909B
:104A7000AF900895EF92FF920F931F93CF93DF9320
:104A8000EC018A017C01E60EF71ECE018796CE1559
:104A9000DF0539F4DF91CF911F910F91FF90EF90D7
:104AA0000895C03223E0D20740F40E948C34F8010C
:104AB00080830F5F1F4F2196E8CFF8011082F9CF56
:104AC000CF92DF92EF92FF920F931F93CF93DF93DA
:104AD0007C016A018C01060F171FEC01CE0187963D
:104AE000C017D10749F4DF91CF911F910F91FF902B
:104AF000EF90DF90CF900895C03223E0D20740F4CA
:104B0000FE01EE19FF09EC0DFD1D60810E949A3433
:104B10002196E4CF462F843038F4743128F4653080
:104B200018F4672F0C94D42490E080E0089580E17D
:104B3000089589EB90E00895EF92FF920F931F93F1
:104B4000CF93DF93EC018A017C01E60EF71ECE01C4
:104B5000895B9C4FCE15DF0539F4DF91CF911F9112
:104B60000F91FF90EF900895C93BD10540F40E944A
:104B70008C34F80180830F5F1F4F2196E8CFF80136
:104B80001082F9CFCF92DF92EF92FF920F931F9393
:104B9000CF93DF937C016A018C01060F171FEC0194
:104BA000CE01895B9C4FC017D10749F4DF91CF91AB
:104BB0001F910F91FF90EF90DF90CF900895C93B28
:104BC000D10540F4FE01EE19FF09EC0DFD1D6081D9
:104BD0000E949A342196E4CFCF93DF93C7E4D3E0C9
:104BE00060E0CE010E949A342196C11584E0D80776
:104BF000B9F7DF91CF910895DF92EF92FF920F9373
:104C00001F93CF93DF9300D000D0CDB7DEB7F82E3F
:104C10008FE08F1540F08FEF93E00E948C3407E413
:104C200013E08823C1F00F900F900F900F90DF9149
:104C3000CF911F910F91FF90EF90DF900895011594
:104C400084E0180781F3C8010E948C34811101C0EF
:104C5000FA940F5F1F4FF110F2CF19821A821B8254
:104C60001C82DD24D39478018FEFE81AF80AC8017A
:104C70000E948C3489831A828823A9F29FEF980FAF
:104C8000933078F48A83D9820E5F1F4FC7010E9448
:104C90008C348B83882339F2CE0101960E94720CEA
:104CA000E2CF8701F9CF54985C9A84988C9A89B1A5
:104CB000829581707C990EC090E0892B8093EE02E2
:104CC0009091060181E098279093EA02891B8093D6
:104CD000E902089592E0F1CFCF93E091EE02EE0F5A
:104CE000EE0FE093EE0249B144FB882780F94FB103
:104CF00044FB222720F944FF02C022E030E0822B4F
:104D0000E82BE093EE02C091EA02EF70F0E0E45885
:104D1000FE4F80819091ED02890F8093ED0220E09B
:104D2000843064F0EC2FF0E0E551FD4F80818F5F1F
:104D3000808360E08C2F0E945D0921E08091ED026C
:104D40008D3F64F4EC2FF0E0E551FD4F8081815000
:104D5000808361E08C2F0E945D0921E08091ED024B
:104D6000082E000C990B64E070E00E944C34809394
:104D7000ED02822FCF910895E091EA02F0E0E55133
:104D8000FD4F2081FC0120830895FF920F931F9314
:104D9000CF93DF93D091E9020D2F10E005511D4F05
:104DA000FC01C081F8018081C81BFC2E80E01F142B
:104DB0007CF09C2FC7FD90E0C91BC11114C0882353
:104DC000E9F0DF91CF911F910F91FF900C9438166D
:104DD000FA94F80180818F5F808360E08D2F0E94BC
:104DE0005D0981E0E4CFCF5FF8018081815080834D
:104DF00061E08D2F0E945D0981E0DFCFDF91CF91CF
:104E00001F910F91FF900895CF93DF93EB018631AF
:104E10009C4511F50E94A0149A81992399F08A7AF1
:104E200091E009F490E09093EF02811109C089E2CA
:104E30000E947B140E94E31480E0DF91CF910895DB
:104E400085E3F6CF8091EF02811104C089E20E94D0
:104E50008214F0CF85E3FBCF81E0EFCF0F931F9358
:104E6000CF93DF93C42FD22FFC0182818823C9F016
:104E70004093F2020E945D2C9093F1028093F00225
:104E800080E28C0F883008F050C0C77081E001C00C
:104E9000880FCA95EAF7DF91CF911F910F910C947B
:104EA000F00D1091F202141335C08091F002909130
:104EB000F1020E94752C883C910560F5C0E2CD0F8F
:104EC0001D17B9F080E2810F883040F4177081E03F
:104ED00001C0880F1A95EAF70E94F70DC83048F410
:104EE00081E09D2F977001C0880F9A95EAF70E9484
:104EF000F00D802F0E94E80DC830B8F4D77081E023
:104F000001C0880FDA95EAF7DF91CF911F910F91D9
:104F10000C94F70D80E28C0F883038F4C77081E074
:104F200001C0880FCA95EAF7EFCFDF91CF911F91AB
:104F30000F9108950F939C01CB01233F4CE534075B
:104F400059F1A8F4283DFCE53F0701F1293D4CE566
:104F50003407D1F1273D3C4591F406E221EE41EEC4
:104F600067ED7CE50E942E2780E00F910895253F94
:104F7000FCE53F07E9F0B0F0263F3C45F9F0FC01C5
:104F80008281882339F11092F202EFCF07E225EEF9
:104F900045EE68ED7CE5E6CF06E221EE40EE63EFFC
:104FA0007CE5E0CF07E225EE44EE64EF7CE5DACF66
:104FB00006E221EE42EE65EF7CE5D4CF07E225EE76
:104FC00046EE66EF7CE5CECF08E221E045EE69EDE6
:104FD0007CE5C8CF81E0C9CF1092B9008CE0809306
:104FE000B80008959F92AF92BF92CF92DF92EF9256
:104FF000FF920F931F93CF93DF93B82EEB010E9484
:105000005D2C6C01EE24E394F12CC431D10560F0E9
:1050100025E0E22EF12CCF3FDC0731F0CE0164E138
:1050200070E00E9438347B0184EAA82E94E8992E1F
:105030001092BC00A092BC000E945D2C8C0180915B
:10504000BC0087FF0DC08091B900887F883039F19E
:105050008091B900887F803111F10FEF1FEF09C0F7
:105060000E945D2C801B910B8E159F0540F30EEF67
:105070001FEFCF3FDC07E1F2C6010E94752C8C17B1
:105080009D07B0F2C801DF91CF911F910F91FF9062
:10509000EF90DF90CF90BF90AF909F900895B09227
:1050A000BB009092BC000E945D2C8C018091BC00E2
:1050B00087FF0AC08091B900887F883111F0803461
:1050C00061F610E000E0DECF0E945D2C801B910BAA
:1050D0008E159F0558F3CBCF0F931F93CF93DF937C
:1050E000EB018093BB0084E88093BC000E945D2CA0
:1050F0008C018091BC0087FF11C02091B900287FEE
:1051000081E090E0283211F490E080E09195819563
:105110009109DF91CF911F910F910895CF3FDC0747
:1051200041F30E945D2C801B910B8C179D0708F3A7
:105130008EEF9FEFEECFCF92DF92EF92FF920F9321
:105140001F93CF93DF936B018A017901B9010E940C
:10515000F227E6010C0D1D1DC017D10761F424E9EB
:105160002093BC00DF91CF911F910F91FF90EF90A2
:10517000DF90CF90089597FDF2CFB70189910E94FB
:105180006C28EACFCF92DF92EF92FF920F931F939A
:10519000CF93DF93C62F6A017901B8010E94F227ED
:1051A00097FD0CC0B8018C2F0E946C28E601EC0C16
:1051B000FD1CCE15DF0511F097FF0CC024E92093EC
:1051C000BC00DF91CF911F910F91FF90EF90DF9086
:1051D000CF900895B80189910E946C28EACF84E9A4
:1051E0008093BC0008958EE14A9B02C08150E1F794
:1051F0004A9BFECF08955A9880E28A95F1F75A9A11
:105200000895FC013BE03A95F1F798E020E080E05A
:1052100031E040E14A95F1F7880F4A9B02C0816076
:10522000232742E04A95F1F7000040E14A95F1F763
:10523000915079F790E19A95F1F799B132E03A956A
:10524000F1F7000040E14A95F1F792FB992790F9B8
:1052500092272081920F90830895EF92FF920F93EF
:105260001F93CF93DF930F92CDB7DEB719828C01D6
:105270007C01E60EF11C0E151F0561F481E0998199
:10528000911180E00F90DF91CF911F910F91FF90CE
:10529000EF9008950E94F328CE0101960E94012903
:1052A000F80181938F01E7CF529A5A9A0895529844
:1052B0005A9AEA9AE9E6F0E080818F7C808308952B
:1052C0006150770B91E001C0990F6A95EAF720E0F1
:1052D00031E0911108C0222391F05A9A80E28A9518
:1052E000F1F75A980895492F482339F05A9A2327FD
:1052F00040E24A95F1F79695ECCF5A98F9CF5A9833
:10530000EDCFFF920F931F93CF93DF93EC018C01AE
:10531000060F111DC017D10731F4DF91CF911F91F6
:105320000F91FF900895F9900E94FB2868E08F2D5F
:105330000E946029EFCF1F920F920FB60F92112497
:10534000EF92FF920F931F932F933F934F935F938F
:105350006F937F938F939F93AF93BF93EF93FF933D
:10536000CF93DF930F92CDB7DEB719820E94F32857
:10537000CE0101960E940129A82FA695A695A69573
:10538000282F229525709A2F9570290F922F9370B0
:1053900026952695920F982797708981982B09F06A
:1053A00075C0A63008F072C080E18A95F1F75A9A6C
:1053B000529AB2E0BA95F1F700C05A98EA2EF12C51
:1053C000EAE0AE9FD0011124A95FBE4F1896ED917F
:1053D000FC9119973097B1F060917201709173014F
:1053E00016962D913C911797260F371F13968D9186
:1053F0009C911497680F791F15964C9115971296EA
:105400008C9109958AE08E9DF0018F9DF00D1124FD
:10541000E95FFE4F6581662351F020917201309162
:10542000730186819781820F931F0E9481290E94B8
:10543000FB28F0E1FA95F1F75A9852985A9A80E1D0
:105440008A95F1F78AE08E9D80018F9D100D1124C1
:10545000095F1E4FD80112966C911297662371F165
:10546000209172013091730113968D919C91820F5E
:10547000931F0E942D29D801ED91FC91882311F0F2
:1054800088E001C082E080830E94F3280F90DF91C2
:10549000CF91FF91EF91BF91AF919F918F917F91AC
:1054A0006F915F914F913F912F911F910F91FF90BD
:1054B000EF900F900FBE0F901F901895ED91FC91FB
:1054C000DFCF0F931F93CF93DF93EC0106970CF080
:1054D000A9C08AE08C9FF0018D9FF00D1124E95F37
:1054E000FE4F80819181892B09F49CC0F894529AD7
:1054F0005A9885E08A95F1F700008C2F8695857083
:105500009C2F9570890F982F937086958695890F9B
:105510008E0193E0000F111F9A95E1F7082B0E946E
:10552000FB2800C068E0802F0E946029A0E1AA95B6
:10553000F1F752985A9A4A9B27C087E090E04A991F
:1055400025C08AE08C9F80018D9F100D1124095F7A
:105550001E4FF80165816623A1F1209172013091FF
:10556000730186819781820F931F0E942D298111DB
:1055700028C0529A5A9AD801ED91FC9182E080831A
:10558000789482E090E016C000C0D5CF0197B9F4BE
:10559000529A5A9A8AE08C9FF0018D9FF00D112447
:1055A000E95FFE4F0190F081E02D81E080837894E7
:1055B00081E090E0DF91CF911F910F91089500C09D
:1055C000BECF0E94F328B0E2BA95F1F75A98529AEA
:1055D000E0E1EA95F1F78AE08C9FF0018D9FF00DF4
:1055E0001124E95FFE4F6281662351F02091720120
:1055F0003091730183819481820F931F0E948129CE
:105600000E94FB288AE08C9FF0018D9FF00D1124F1
:10561000E95FFE4F0190F081E02D1082789490E0D8
:1056200080E0C8CF84E090E0C5CF90939D01809347
:105630009C0108959093F9028093F80208950E94C6
:105640008F19811103C08091F3020895E091F8024F
:10565000F091F902309721F00190F081E02D09944A
:1056600080E008950E941F2B0895E091F802F091C8
:10567000F902309721F00280F381E02D099408951A
:10568000E091F802F091F902309739F022E0DC0164
:105690002C930480F581E02D099408952091F60261
:1056A0003091F7022817390771F09093F702809331
:1056B000F602E091F802F091F902309721F00680AD
:1056C000F781E02D099408952091F4023091F502BC
:1056D0002817390771F09093F5028093F402E09156
:1056E000F802F091F902309721F00084F185E02D65
:1056F000099408959C012E5F3F4FAC01485F5F4FB6
:1057000080E02417350709F40895F90191919F016C
:105710009923B9F38F5FF5CF662349F0FC013296E8
:1057200008962191261729F0E817F907D1F780E0AC
:10573000089581E008959C01FC0132969FEF80E07E
:105740004191461751F09F3F19F4411101C0982F24
:105750008F5F8630A9F79F3F09F40895290F311D07
:1057600097FD3A95F90162830895FC0132960896F7
:105770002191261303C0DF0111971C92E817F90746
:10578000B9F708950C949B2B0C94B52B029626E048
:10579000FC0111922A95E9F7089508950C94CD2BF8
:1057A000811105C081E08093FA020C94CE2B82E037
:1057B000FACF83E08093FA020C94CE2B0C94D02B7A
:1057C00081E08093FA020C94CE2B0C94E02B089588
:1057D00080912B05843031F10E942C0B1092FB023A
:1057E00088E190E020E40FB6F894A89580936000DB
:1057F0000FBE2093600083B7817F846083BF83B72F
:10580000816083BF7894889583B78E7F83BF0FB6FE
:10581000F894A89580916000886180936000109250
:1058200060000FBE089508950895CF930E94132C31
:105830000E942C070E94142CC0E08C2F0E94590655
:10584000811105C0CF5FC431C1F7CF91089581E0C8
:10585000FCCF0E9450100C949E0B1F921FB61F92FB
:1058600011248F939F93AF93BF938091FB0281117B
:1058700013C08091230590912405A0912505B09136
:1058800026054196A11DB11D809323059093240503
:10589000A0932505B0932605BF91AF919F918F915D
:1058A0001F901FBE1F90189582E084BD93E095BDA8
:1058B0009AEF97BD80936E0008952FB7F89480916A
:1058C000230590912405A0912505B09126052FBFB1
:1058D00008952FB7F8946091230570912405809165
:1058E0002505909126052FBF08959C014FB7F89488
:1058F0008091230590912405A0912505B09126055E
:105900004FBF821B930B0895CF92DF92EF92FF92CD
:105910002FB7F894C0902305D0902405E09025057A
:10592000F09026052FBFA7019601261B370B480BC9
:10593000590BCA01B901FF90EF90DF90CF90089505
:1059400078941F921FB61F9211248F939F93AF9349
:10595000BF938091230590912405A0912505B091D6
:1059600026050196A11DB11D809323059093240562
:10597000A0932505B0932605BF91AF919F918F917C
:105980001F901FBE1F90189587E797E79093010817
:105990008093000888E19AE00FB6F894A895809368
:1059A00060000FBE90936000FFCF809104030895C4
:1059B000089508959C0184E08093E9009FEF809111
:1059C000E800915085FD06C085ED8A95F1F700004D
:1059D0009111F5CF8091E80085FF0CC050E040E0C8
:1059E00066E070E0C9010E943A2F8091E8008E774E
:1059F0008093E8000895CF93DF93EC0181E08093DA
:105A0000E9008FEF9091E800815095FD06C095ED7B
:105A10009A95F1F700008111F5CF8091E80085FF9C
:105A200014C050E040E068E070E0CE010E943A2FE0
:105A30008091E8008E778093E80088E0FE01ACEF6B
:105A4000B2E001900D928A95E1F7DF91CF91089530
:105A50000895CF93FC01603221F580912B058430AD
:105A600001F5C091E900CF702091EC00922F917068
:105A700020FD90E8C92B82E08093E9008091E80046
:105A800080FF0CC050E040E060E270E0CF010E9477
:105A90003A2F8091E8008E778093E800CF70C09312
:105AA000E900CF91089580912A05811109C00E94D3
:105AB00019310E9476318091E20084608093E20087
:105AC000089510922A0508950C94E02B6091270503
:105AD00081E0611101C080E00C94D92B90912B05DD
