:100000000C94DE050C9425060C9425060C943A29D4
:100010000C9425060C9425060C9425060C942506B4
:100020000C9425060C9425060C9433310C9407325D
:100030000C94CC2B0C9425060C9425060C942506C8
:100040000C9425060C9425060C9425060C94250684
:100050000C9425060C943F2C0C9425060C94250634
:100060000C9425060C9425060C9425060C94250664
:100070000C9425060C9425060C9425060C94250654
:100080000C9425060C9425060C9425060C94250644
:100090000C9425060C9425060C9425060C94250634
:1000A0000C9425060C9425060C942506202020206F
:1000B00020200A005343524C434B0A0020202020AA
:1000C000202020004341504C434B20002020202082
:1000D000202020004E554D4C434B2000556E64654A
:1000E00066696E65640041444A5553540A004C4F9A
:1000F0005745520A0052414953450A00444546417A
:10010000554C540A004C617965723A200080818216
:10011000838485868788898A8B8C8D8E8F90919237
:100120009394A0A1A2A3A4A5A6A7A8A9AAABACAD8D
:10013000AEAFB0B1B2B3B4C0C1C2C3C4C5C6C7C804
:10014000C9CACBCCCDCECFD0D1D2D3D4001F0020C2
:10015000002100220001001A00080015001700010C
:10016000001600070009000A0001001B0006001924
:100170000005000100E2008B002C002C00115F1E26
:1001800000350000000000000014002B00000000FB
:10019000000000040039000000000000001D00E124
:1001A00000000000000000E300E00000000000008C
:1001B0000027002600250024002300130012000C55
:1001C0000018001C0033000F000E000D000B00385B
:1001D000003700360010001100650088008A002CEE
:1001E00000105F2D002E008900000000002F00305D
:1001F000002A000000000034003200280000000047
:100200000087005200E50000000000500051004F40
:10021000000000000001000100F400F50001001FD3
:100220000020002100220001000100010001000166
:1002300000010001000100010001000100010001B6
:1002400000010001000100010001000000000000A9
:10025000001E00010000000000000001000100007D
:10026000000000000001000100000000000000018B
:100270000001000000000000000100010001000179
:1002800000010027002600250024002300010001B2
:100290000001000100010001000100010001000156
:1002A0000001000100010001000100010001000146
:1002B000000000000001000100010000000000013A
:1002C0000001000100000000000100010001000029
:1002D0000000000100010001000000000001000119
:1002E0000001000100C25C0100010001000100C921
:1002F0005C0100010001000100C55C01000100017A
:10030000000100C75C0100010001000100010001C3
:1003100000010000000000000001000100000000DA
:1003200000000001000100000000000000010001C9
:1003300000000000000000010001000000000000BB
:1003400000010001000100010001000100010001A5
:100350000001000100010001000100010001000195
:100360000001000100010001000100010001000185
:100370000001000100010001000000000001000177
:100380000001000000000001000100010000000069
:100390000001000100010000000000010001000157
:1003A0000000000000010001000100010001000147
:1003B0000001000100010001000100010001000135
:1003C0000001000100010001000100010001000125
:1003D0000001000100010001000100000000000018
:1003E0000001000100000000000000010001000009
:1003F00000000000000100010000000000000001FA
:1004000000010000000000000001000100010001E7
:1004100000010001000100010001000100010001D4
:1004200000010001000100010001000100010001C4
:1004300000010001000100010001000100010001B4
:1004400000000000000100010001000000000001A8
:100450000001000100000000000100010001000097
:100460000000000100010001000000000000000089
:1004700000000000002A2B280000000000000000FF
:10048000000000000000000029000000002C1E34C5
:1004900020212224342627252E362D3738271E1FCB
:1004A000202122232425263333362E37381F0405F6
:1004B000060708090A0B0C0D0E0F10111213141564
:1004C000161718191A1B1C1D2F3130232D35040542
:1004D000060708090A0B0C0D0E0F10111213141544
:1004E000161718191A1B1C1D2F3130354C0000002F
:1004F00000000000000000000000000000000000FC
:1005000000000000000000000000000000000000EB
:10051000007E0F00D4FFFFFFC70000007800AE0090
:10052000AF00DA0281FFD9F1DB20A4A62EAF00A034
:10053000C000A1C800AED580A81FD300408D1420F4
:10054000000000000000003E5B4F5B3E003E6B4F32
:100550006B3E001C3E7C3E1C00183C7E3C18001C80
:10056000577D571C001C5E7F5E1C0000183C180065
:1005700000FFE7C3E7FF00001824180000FFE7DBD7
:10058000E7FF0030483A060E002629792926004068
:100590007F05050700407F05253F005A3CE73C5A90
:1005A000007F3E1C1C0800081C1C3E7F0014227F9C
:1005B0002214005F5F005F5F0006097F017F00007B
:1005C0006689956A0060606060600094A2FFA294F2
:1005D0000008047E04080010207E20100008082A6D
:1005E0001C0800081C2A0808001E10101010000C1F
:1005F0001E0C1E0C0030383E383000060E3E0E0633
:100600000000000000000000005F00000000070084
:10061000070000147F147F1400242A7F2A1200236D
:100620001308646200364956205000000807030092
:1006300000001C224100000041221C00002A1C7FF7
:100640001C2A0008083E08080000807030000008DE
:10065000080808080000006060000020100804027C
:10066000003E5149453E0000427F4000007249492A
:100670004946002141494D33001814127F100027CC
:1006800045454539003C4A49493100412111090796
:1006900000364949493600464949291E00000014E0
:1006A0000000000040340000000008142241001443
:1006B0001414141400004122140800020159090600
:1006C000003E415D594E007C1211127C007F494969
:1006D0004936003E41414122007F4141413E007F79
:1006E00049494941007F09090901003E41415173CF
:1006F000007F0808087F0000417F41000020404142
:100700003F01007F08142241007F40404040007FAD
:10071000021C027F007F0408107F003E4141413EE1
:10072000007F09090906003E4151215E007F091939
:1007300029460026494949320003017F0103003F51
:100740004040403F001F2040201F003F4038403FB6
:10075000006314081463000304780403006159491A
:100760004D4300007F414141000204081020000079
:100770004141417F000402010204004040404040EA
:10078000000003070800002054547840007F2844EC
:10079000443800384444442800384444287F003812
:1007A000545454180000087E09020018A4A49C7830
:1007B000007F080404780000447D40000020404091
:1007C0003D00007F102844000000417F4000007C75
:1007D00004780478007C08040478003844444438E1
:1007E00000FC182424180018242418FC007C080499
:1007F00004080048545454240004043F4424003C9A
:100800004040207C001C2040201C003C4030403CEC
:10081000004428102844004C9090907C004464547C
:100820004C44000008364100000000770000000042
:1008300041360800000201020402003C2623263C47
:1008400000000000000000404040F0F8F8FF38FFD2
:10085000F8F83FF8F8FF38FFF8F8F04040400000A3
:100860000000000080C0C0C0800000C0C080000048
:100870000080C0C000C0C0000080C0C000000000F8
:1008800000C0C0C0C0C000C0C00000000000000028
:100890000000000000000000000000000000000058
:1008A0000000000000000000000000000000000048
:1008B0000000000000000000000000000000000038
:1008C000C0F0F8FC3E1E06010000007F4141417F60
:1008D000007F4141417F000080C0E07E5B4F5BFEB6
:1008E000C00000C000DCD7DEDEDED7DC00C00000C8
:1008F00000000000000000000000000000000000F8
:1009000000000000000000494949FFFFFFFFE0DF51
:10091000BFBF00BFBFDFE0FFFFFFFF494949000045
:100920000000001F3F6060E0BF1F007F7F071E3890
:100930001E077F7F007F7F0E1F3B7160000000005D
:10094000007F7F0C0C0C007E7E007F7E0303007F07
:100950007E03037E7E03037F7E000F3E703C063CD9
:10096000703E0F00327B49493F7E007F7E030300CB
:100970001E3F69696F2600000000000000000000B3
:10098000030F1F3F3C7870600000007F4141417FB2
:10099000007F4141417F00307B7F783020203078DC
:1009A0007F3B0003000F7F0F0F0F7F0F000300003E
:1009B0000000000000000000000000000000000037
:1009C00000000000000000010101070F0F7F0F7FF2
:1009D0000F0F7E0F0F7F0F7F0F0F07010101000028
:1009E0000000000000000000010100000000000005
:1009F00000000000000000000000000000000000F7
:100A000000000000000000000000000000000000E6
:100A100000000000000000000000000000000000D6
:100A200000000000000000000000000000000000C6
:100A300000000000000000000000000000000000B6
:100A400000000000000000000000000000000000A6
:100A50000000000000000000000000000000000096
:100A60000000000000000000000000000000000086
:100A70000000000000000000000000000000000076
:100A8000001403680061006C00660063006C00697C
:100A90000066006600000006036E003200000004DD
:100AA00003090409025B00030100A0FA0904000025
:100AB0000103010100092111010001224000070585
:100AC000810308000A090401000203000000092153
:100AD0001101000122220007058203200001070501
:100AE00003032000010904020001030000000921A2
:100AF000110100012249000705840320000A1201A8
:100B0000000200000008350321000100010200017D
:100B10000660FF0961A1010962150026FF0095200A
:100B2000750881020963150026FF0095207508915C
:100B300002C005010902A10185020901A100050900
:100B40001901290815002501950875018102050183
:100B5000093009311581257F95027508810609380C
:100B60001581257F950175088106050C0A38021547
:100B700081257F950175088106C0C005010906A180
:100B800001050719E029E715002501950875018180
:100B9000029501750881010507190029FF15002636
:100BA000FF009506750881000508190129059505BE
:100BB00075019102950175039101C00011241FBEBA
:100BC000CFEFDAE0DEBFCDBF04B603FE27C08091D1
:100BD000300590913105A0913205B09133058730F1
:100BE000904BA740B04BD1F41092300510923105D4
:100BF000109232051092330514BE84B7877F84BFEC
:100C00000FB6F894A8958091600088618093600089
:100C1000109260000FBEE0E0F8E3099511E0A0E05B
:100C2000B1E0ECE4F9E602C005900D92A03AB107FC
:100C3000D9F725E0A0EAB1E001C01D92A033B207C8
:100C4000E1F70E94941B0C946D340C940000F8940E
:100C5000E82FE295EF70F0E031A1282F2F7081E0AE
:100C600090E001C0880F2A95EAF7382B31A392A1B2
:100C70008095892382A378940895F894E82FE295CB
:100C8000EF70F0E031A1282F2F7081E090E001C0DB
:100C9000880F2A95EAF7982F9095932391A392A114
:100CA000892B82A37894089508950C94540608958E
:100CB0000895E82FF0E0E954FE4F808108950895EB
:100CC0000F931F93CF93DF930E94481980910601E1
:100CD000809106019AE0811190E0909309038AE0E7
:100CE000891B80930803CAE5D1E08E01F801819148
:100CF0008F010E943D06F1E004361F07B9F784E337
:100D00000E943D0686EC0E943D0686E60E943D0656
:100D100086E30E943D0682E30E943D0684E30E9432
:100D20003D0686EC0E943D0686E60E943D0686E36F
:100D30000E943D0682E30E943D0689910E943D0685
:100D400081E0C436D807C9F7EBECF1E0A7EBB1E0DE
:100D500011921D9281E0EF3DF807D1F78AE00E94E1
:100D6000F7180E94C30ADF91CF911F910F910C9445
:100D70005219FF920F931F93CF93DF93CDB7DEB736
:100D80002A970FB6F894DEBF0FBECDBF0E942E1972
:100D9000F82E60910903882309F451C08E010F5F7A
:100DA0001F4F8AE0F80111928A95E9F7862F90E0AB
:100DB000B80189549E4F0E94B519811123C08091BA
:100DC000B6018F5F8093B6018630B8F1E0910803D9
:100DD000F0E0E954FE4FD801CE010B9611921D921E
:100DE000A817B907D9F70E94C90A8F2D2A960FB6FE
:100DF000F894DEBF0FBECDBFDF91CF911F910F9151
:100E0000FF9008951092B601A0910803B0E0A95494
:100E1000BE4F9E01255F3F4FF12C4D91F8019191FE
:100E20008F01491731F0AD0141505109FA0190830A
:100E3000F82E0217130789F7D6CFF12CD4CF70E024
:100E400069547E4F8091080390E089549E4F0E9420
:100E5000B7190E945806C9CF6F927F929F92AF92A6
:100E6000BF92CF92DF92EF92FF920F931F93CF9397
:100E7000DF930BEC11E04AE5C42E41E0D42EC0E034
:100E8000D1E0D601AD906D018A2D0E942706B0EA0F
:100E9000BA95F1F735E5E32E31E0F32EF70130E0B6
:100EA00020E0B12C4191A42FA295AF70B0E09096B4
:100EB0008C9190E04F7002C0959587954A95E2F726
:100EC00080FD94C08D2F022E01C0880F0A94EAF78E
:100ED000B82A2F5F3F4F2530310521F78A2D0E9418
:100EE0003D06E0EAEA95F1F7D8018C91B81609F4CD
:100EF0007FC0BC9281E0C82B0F5F1F4FBFE5CB16B0
:100F0000B1E0DB0609F0BDCF10E000E0AA24A39415
:100F1000B12C2CEAC22E21E0D22EF70191907F0154
:100F2000892D0E942706F0EAFA95F1F7C501002EF7
:100F300001C0880F0A94EAF7782F682F6095E2EADB
:100F4000F1E08AE5682E81E0782ED0E03191D3017E
:100F50002D913D01422F42954F7050E0DA0190965D
:100F60008C9190E02F7002C0959587952A95E2F7B5
:100F700080FD40C0872F832B381731F09F0121500F
:100F80003109D9018C93D1E0CE16DF06F9F6892D0F
:100F90000E943D06043019F0B0EABA95F1F7CD2B66
:100FA00061F50F5F1F4F0530110509F0B6CF609155
:100FB000090370E069547E4F2C2F4AE08BEC91E0DE
:100FC0000E94F8180E94B906C11101C0C82F8C2FC9
:100FD000DF91CF911F910F91FF90EF90DF90CF9015
:100FE000BF90AF909F907F906F90089580E070CFFA
:100FF00080E081CF862F8323BFCF8091A70180938C
:10100000D0018091A8018093D1018091A9018093A2
:10101000D2018091AA018093D3018091AB0180938A
:10102000D401BFCFCF93DF93FA016230710519F479
:101030002230310539F08FEF818381E090E0DF913C
:10104000CF9108951B9B33C02B9A239A47E050E021
:101050002998EC01288130E0042E02C035952795AF
:101060000A94E2F720FF25C02B9A299A4150510992
:1010700078F72AE12A95F1F700C023982B9A11827C
:1010800087E090E02998299A23B123FBAA27A0F9A9
:10109000B0E0AD01082E01C0440F0A94EAF72181A7
:1010A000242B2183019770F790E080E0C8CF2B9824
:1010B000CCCF2B98DACF0F93CF93DF9300D000D013
:1010C000CDB7DEB71B828FEF8C8389838A83E09153
:1010D0000001F09101010FEF22E030E0AE014F5F1F
:1010E0005F4F62E070E0CE01039609958A810F9010
:1010F0000F900F900F90DF91CF910F910895219A4B
:1011000023982B9A0895AF92BF92CF92DF92EF92DD
:10111000FF920F931F93CF93DF9300D000D0CDB7F2
:10112000DEB75C016B017A0182E08B831FEF1C83C9
:1011300019831A83E0910001F09101010FEF22E081
:1011400030E0AE014F5F5F4F62E070E0CE0103968A
:1011500009958A81F501808383E08B831C83198341
:101160001A83E0910001F091010122E030E0AE012C
:101170004F5F5F4F62E070E0CE01039609958A8170
:10118000F601808384E08B831C8319831A83E091AA
:101190000001F091010122E030E0AE014F5F5F4FAE
:1011A00062E070E0CE01039609958A81F7018083A1
:1011B00081E090E00F900F900F900F90DF91CF9112
:1011C0001F910F91FF90EF90DF90CF90BF90AF9065
:1011D0000895EF92FF920F931F93CF93DF9300D068
:1011E00000D00F92CDB7DEB78FEDE82E81E0F82E5C
:1011F00010E000E0F70181917F018823C9F0869516
:10120000F80139F1EE58FE4F808191819A838983EC
:101210001B820E94FC2B8160782F9D838C83F701B9
:101220003197108249815A816B818D810E94350CE2
:101230000E5F1F4F04301105E9F60F900F900F90CD
:101240000F900F90DF91CF911F910F91FF90EF9032
:101250000895E259FE4FD8CFEF92FF920F931F935C
:10126000CF93DF9300D000D00F92CDB7DEB7162F0B
:10127000E82EF12CC701880F991F662339F18E588B
:101280009E4FFC01808191819A83898301E00B83C9
:101290000E94FC2B8160782F9D838C83F701E152A3
:1012A000FE4F0127110F102B108349815A816B814A
:1012B0008D810F900F900F900F900F90DF91CF9135
:1012C0001F910F91FF90EF900C94350C82599E4F17
:1012D000D8CF0E94E9080C9457060E942C0981E09F
:1012E0000895CF93C82F0E942E19811101C0C2E02A
:1012F0008C2FCF910895CF930E94FB22882349F031
:101300000E942E1960E0811107C08DE091E00E94DB
:10131000AD2180E0CF91089585E091E00E94AD215C
:1013200080910C020E94140C813071F1882351F0DD
:10133000823071F1833081F160E08CED90E00E94A9
:10134000BF2105C060E08CEF90E00E94AD210E94BB
:10135000D12AC82F8CEC90E0C0FF02C084ED90E051
:1013600060E00E94AD218CEB90E0C1FF02C084ECF4
:1013700090E060E00E94AD218CEA90E0C2FF02C0E4
:1013800084EB90E060E0C3CF60E085EF90E0DDCFDC
:1013900060E08EEE90E0D9CF60E086EE90E0D5CFB1
:1013A000845F91098530910538F540910B0321E068
:1013B00030E0F90102C0EE0FFF1F8A95E2F7CF017E
:1013C000FB0122812223A9F0842B80930B034091FF
:1013D0000A0350910B0360910C0370910D038091EF
:1013E0000E0390910F030E94BC1E0E94611E80E0BC
:1013F000089580958423E9CF81E008950C947F08B7
:10140000CF93DF9300D00F92CDB7DEB78091E2018A
:101410009091E3019C012F5F3F4F3093E3012093B4
:10142000E20162E370E00E94EB33892B89F50E94B0
:101430005B08803319F581E08093E101AE014F5FD5
:101440005F4FBE016E5F7F4FCE0103960E948308FF
:101450006A81619560930C037981719570930D0396
:101460008B8187FF0DC040910A0350910B0380913F
:101470000E0390910F030E94BC1E02C01092E10166
:101480000E94611E0F900F900F90DF91CF910895F1
:101490008091E1018823A1F3D1CF81E008950C94DC
:1014A000D00908950C94510A1F93CF93DF9300D075
:1014B00000D00F92CDB7DEB749835A836B8330914A
:1014C000E40189819A8131111DC06623B9F022237C
:1014D000A9F00E94F110182F682F89819A810E942B
:1014E0009A1069817A81812F0F900F900F900F9041
:1014F0000F90DF91CF911F910C9429250E94C81065
:10150000182FEFCF0E94F11069817A81EDCFFC0195
:10151000262F408151816281738184810C94540A09
:1015200081E00895CF93DF93EC0160E00E94870A89
:10153000BE01DF91CF910C94520AE1E0F0E0DF01AF
:1015400002C0AA0FBB1F6A95E2F7BD01DF0102C00E
:10155000AA0FBB1F4A95E2F76A2B01C0EE0F2A952E
:10156000EAF7962F9823961302C08E2B0895E095E4
:101570008E230895242F462F682F80910C020E94FD
:101580009D0A0C9457100E94DD180E942C0C0C949C
:1015900055060C94690980E00E942D0C0E94E022FF
:1015A0000C94000A089508950E94EF0F0E94D30A38
:1015B0002FEF84E39CE0215080409040E1F700C091
:1015C00000000C94632C0F931F93CF93DF938C0137
:1015D00061E00E94870AEC01B8010E94321F882353
:1015E000D9F1B801CE010E944F0A8823A9F1B801B0
:1015F000CE010E943927882379F1B801CE010E94DB
:101600003723882349F1B801CE010E94A3268823FD
:1016100019F1F8018281882361F0CA35FDE5DF0701
:1016200021F170F4C115ECE5DE07A1F0CE3DDC45FB
:10163000C9F0C801DF91CF911F910F910C944D0A11
:10164000CB358DE5D807A1F0CC35DD4591F70E946B
:101650000415EFCF0E94D40A80E0DF91CF911F9153
:101660000F9108950E94BD15F7CF0E940D15E1CF8F
:101670000E941015DECF0C94D20A0E94BE2A0E944E
:101680002D0C0C943B0BDF92EF92FF920F931F9364
:10169000CF93DF93E82FF0E0E359FB4FD490282F4E
:1016A00026952695269530E0F901E35FFA4F0491DF
:1016B000877010E0082E02C0159507950A94E2F78E
:1016C00001701127F901E350FB4FE490F12C082E33
:1016D00002C0F594E7940A94E2F791E0E922FF242E
:1016E000F901E351FB4FC491D0E002C0D595C795F5
:1016F0008A95E2F7C170DD270115110519F081EE19
:101700000E94A20CE114F10419F086EE0E94A20CD2
:101710008D2D0E94870DEF2819F086EE0E941A0D7C
:10172000012B19F081EE0E941A0DCD2B51F08CE2A5
:10173000DF91CF911F910F91FF90EF90DF900C946C
:10174000870DDF91CF911F910F91FF90EF90DF9068
:101750000895EF92FF920F931F93CF93DF93EC01C5
:10176000162F0AE08881882309F454C0813009F0DB
:101770004EC08981813099F47E0122E0E20EF11C95
:101780008A810E94870DE7012196812F815050F3B5
:10179000EFE9FFE03197F1F700C00000F7CF8230AA
:1017A00041F47E0182E0E80EF11C8A810E94A20CC5
:1017B000EACF833041F47E01E2E0EE0EF11C8A8133
:1017C0000E941A0DE0CF843011F02196DDCF2A81DE
:1017D000229690E080E0AE014F5F5F4F2053330BC5
:1017E0002A30310548F0019778F2EFE9FFE03197B0
:1017F000F1F700C00000F7CF089FB001099F700DFE
:101800001124C901860F971F2981EA01E4CF0E94A4
:10181000430BBACFDF91CF911F910F91FF90EF90C3
:10182000089560E00C94A90B982F92959F7011F089
:10183000892F94E0282F2695269511F09E5F822F00
:10184000869509F09F5F892F089508950C94250CC3
:1018500081E008950C94280C0895CF93C82F0E941E
:10186000260C8C2FCF910C942A0CCF93DF93CDB7FD
:10187000DEB72B970FB6F894DEBF0FBECDBF4F83F8
:10188000588769877A878B8761110E945F141E824F
:101890001D8285E0FE013796DE01119601900D92C2
:1018A0008A95E1F78C819D81892B89F449815A8140
:1018B0006B817C818D819E810E9480132B960FB657
:1018C000F894DEBF0FBECDBFDF91CF91089589811F
:1018D0009A8189238F3F51F3CE0101960E94900A8D
:1018E0008111E4CFEBCFFC01808191810C941E111A
:1018F0000F931F93CF93DF9300D000D000D0CDB7CC
:10190000DEB7082F162F0E949B1E29834B835C8312
:101910006D837E83002399F0312B4981532F6B8196
:101920007C818D819E8126960FB6F894DEBF0FBE16
:10193000CDBFDF91CF911F910F910C94BC1E1095DC
:101940003123EBCFCF93C82F882309F471C082389D
:10195000C1F40E94BE2A81FD6BC089E30E941A1463
:101960000E9482142FEF81EE94E02150804090403D
:10197000E1F700C0000089E30E942114CF910C948C
:1019800082148338A1F40E94BE2A80FD51C083E5F1
:101990000E941A140E9482142FEF81EE94E02150CD
:1019A00080409040E1F700C0000083E5E5CF843837
:1019B000A1F40E94BE2A82FD3BC087E40E941A1453
:1019C0000E9482142FEF81EE94E0215080409040DD
:1019D000E1F700C0000087E4CFCF8CEF8C0F813A95
:1019E00090F46C2F80910401909105010E942B2BA3
:1019F000882329F08C2F0E9421140E9482148C2F9E
:101A00000E941A14BBCF80E28C0F883048F4C77054
:101A100081E001C0880FCA95EAF70E944214AECF58
:101A2000C03F30F08C2F0E94241CCF910C94F71CE7
:101A3000CF910895882309F452C0823871F40E942E
:101A4000BE2A81FF4CC089E30E941A140E948214AE
:101A500089E30E9421140C948214833859F40E9463
:101A6000BE2A80FF3CC083E50E941A140E948214A3
:101A700083E5EFCF843859F40E94BE2A82FF2FC03D
:101A800087E40E941A140E94821487E4E2CF9CEF3C
:101A9000980F913AF0F290E2980F983050F48770D6
:101AA00091E001C0990F8A95EAF7892F0E944814A6
:101AB000D2CF9BE5980F933020F490E080E00C9417
:101AC000ED2A98E5980F973120F490E080E00C948F
:101AD000032B803F20F00E947E1C0C94F71C08957D
:101AE0001F93CF93DF93182FEB010E94A20C209736
:101AF00031F4812FDF91CF911F910C941A0D8FE952
:101B00009FE00197F1F700C000002197F0CF70E04F
:101B100060E0893311F460E570E00C94700D882367
:101B200021F00E9442140C9482140895882321F01D
:101B30000E9448140C9482140895BF92CF92DF92B1
:101B4000EF92FF920F931F93CF93DF936C01D62FE9
:101B5000C72FFC011281F580F2949FE0F9220E94C8
:101B60003814E82E8823B9F0E12E1123A1F08C2F30
:101B7000807F803421F080E28D0F8830D0F080911A
:101B8000150382FD16C082E00E94D3140E9438140F
:101B900091E0E82EE926BC2EB2948FE0B822FBE05B
:101BA000FB1508F468C0EB2DF0E0E159FB4C0C94F8
:101BB000FF33E12CF0CF0C2F0F70C07F11F0029596
:101BC000007F112399F0002359F080E28D0F8830B7
:101BD00010F0D11107C0802F0E9442140E9482147D
:101BE0008D2F41C0802F0E945214F8CF8D2F0E945C
:101BF0001A0D002309F43FC080E28D0F883010F0E9
:101C0000D11104C0802F0E94481403C0802F0E946D
:101C100058140E9482142FC00C2F0F70C07FC03246
:101C200011F00295007FDD2381F0D13009F46AC004
:101C3000112309F474C0FF2009F46AC0F6018581FC
:101C400080FFCECF8F70858363C08091150382FFA4
:101C500039C0112359F0002329F0802F0E9442142B
:101C60000E94821480E00E94A20C05C080E00E94C5
:101C70001A0D0111C7CF2B2D2850330B24303105FD
:101C800020F40E94BE2A0E942D0CEE2009F44CC1C3
:101C90000E94341480FD48C1F60112820E942E1465
:101CA0000E946810C6010E94B50F0E942E14DF9199
:101CB000CF911F910F91FF90EF90DF90CF90BF9049
:101CC0000C947310112389F0F11006C00E94651462
:101CD000802B0E948F0DCFCF21E0F212F7CF0E9410
:101CE0006514802B0E946B14C6CFF11006C00E94B1
:101CF0007814802F0E94960DBECF31E0F31609F4C0
:101D0000BACFF5CF112331F085E08F1508F4B3CFAA
:101D1000802FDFCF94E09F1508F4ADCFEACFFF20EE
:101D200041F3D93349F4FFEF27EE33E0F15020407F
:101D30003040E1F700C000008D2F0E941A0D9BCFAC
:101D40008D2F112391F00E94241CED2FE45FFF0BD7
:101D5000E530F10568F461E070E001C0660FEA95D6
:101D6000EAF7812F0E94780C86CF0E947E1CEDCF6F
:101D70000E94F71C80CF8C2F837079F511117BCFD7
:101D80004D2F429546954770440F440F8D2F8F700D
:101D9000042E01C0880F0A94EAF72D2F2071D4FF7A
:101DA00007C02FE030E001C0220F4A95EAF72095E6
:101DB000C695C695C370822BC23049F058F4C13025
:101DC00019F00E94491057CF0E94441054CF0E942E
:101DD0004E1051CF0E9442104ECF8695112311F024
:101DE0008C2F8170882309F446CF4D2F429546955C
:101DF0004770440F440F8D2F8F70042E01C0880F41
:101E00000A94EAF72D2F2071D4FF07C02FE030E0AD
:101E100001C0220F4A95EAF72095C695C695C37072
:101E2000822BC23049F058F4C13019F00E948F1053
:101E300022CF0E948A101FCF0E9494101CCF0E94B4
:101E4000571019CFCF70112329F08C2F0E946810E2
:101E50008D2F3FCF8D2F0E94960D8C2F0E947310D7
:101E60000ACFD23F51F160F4D03FB9F0D13F81F0B9
:101E7000112309F449C0F110B3CE8C2F8F7121C00A
:101E8000D33F11F1D43FA1F78091150382FF26C003
:101E90008C2F8F71112311F314C0112349F0F4E03A
:101EA000FF1508F4E8CE8C2F8F710E947F10E3CECF
:101EB00025E02F1508F4DFCEF6CF8C2F8F7111118E
:101EC000CDCF0E946810D7CE112329F08C2F8F71AF
:101ED0000E946010D0CE0E945D10CDCE112349F03B
:101EE000CF718C2F0E94681063E08C2F0E94B81471
:101EF000C2CE81E00E94D31431E03F1508F0BBCE82
:101F000082E00E94D314B7CEFF2059F0D93309F0F4
:101F100013CF8FEF97EEE3E081509040E040E1F780
:101F200009CF8C2F8F719ACFDF91CF911F910F9195
:101F3000FF90EF90DF90CF90BF9008950F931F9385
:101F4000CF93DF93EC01688179818A810E94281107
:101F50008C010E9499100E944110B801CE01DF91BE
:101F6000CF911F910F910C949D0DCF93DF93EC01B6
:101F70008B819C81892B29F08881998189238F3FCE
:101F800059F4DF91CF910895CE010E949E0FCE01AA
:101F9000DF91CF910C94920ACE010E94E30A811145
:101FA000F3CF0E943814882361F38A81882349F390
:101FB0008091150382FDE5CF82E0DF91CF910C94F3
:101FC000D3140E945F140E9462140E9482140E9423
:101FD0001E1E0C94F71C0E9428140C94E10F0E9402
:101FE0004F140C94EB0FE92FE295EF70E250EE30B6
:101FF00070F4F0E0E558FB4C0C94FF33803F19F08F
:1020000020F4883E20F481E00895843FE1F380E0ED
:102010000895883EC0F3813FD1F7F5CF93FB882721
:1020200080F90895FC01808191810E941E110C9419
:10203000F30FCF93DF9300D000D00F92CDB7DEB770
:102040000F900F900F900F900F90DF91CF91089508
:10205000CF93DF9300D000D000D0CDB7DEB7269667
:102060000FB6F894DEBF0FBECDBFDF91CF910895BC
:1020700008950C9438100E94391080930D020C942E
:10208000E10F08950C943B1090910D02892B0C9454
:102090003B1090910D0289230C943B1090910D02FE
:1020A00089270C943B100C9438100C9453100E9408
:1020B000551080930C020C94E10F80E00C945710A3
:1020C00091E001C0990F8A95EAF7892F0C94571077
:1020D00021E030E001C0220F8A95EAF780910C02DE
:1020E000822B0C94571021E030E001C0220F8A951A
:1020F000EAF7209580910C0282230C94571021E07E
:1021000030E001C0220F8A95EAF780910C02822705
:102110000C94571090910C02892B0C9457109091AD
:102120000C0289230C94571090910C0289270C946F
:1021300057100895E92FEE0FEE0F9E0F890F982F7D
:10214000977041E001C0440F9A95EAF7869586950D
:10215000869593E0899FF0011124EB51FE4F30E00A
:1021600020E070E05191DF011197CB01022E02C0F7
:10217000969587950A94E2F7817081958527842347
:1021800085278C932F5F3F4F2330310559F70895F2
:10219000E92FEE0FEE0F9E0F890F982F97708695FF
:1021A0008695869523E0829FF0011124EB51FE4F26
:1021B00050E040E080E0219130E0092E02C03695E9
:1021C00027950A94E2F721703327042E01C0220FCD
:1021D0000A94EAF7822B4F5F5F4F4330510559F75E
:1021E0000895CF92DF92FF920F931F93CF93DF93C7
:1021F0006C0100910C0280910D02082BC7E0D0E029
:1022000010E0FC2EC8010C2E02C0959587950A940B
:10221000E2F780FD0CC02197A0F7F12C8F2DDF9104
:10222000CF911F910F91FF90DF90CF900895B6014D
:102230008C2F0E94A417019771F3F0CFCF93DF93F7
:10224000EC010E94F110BE01DF91CF910C94A41714
:102250001F93CF93DF93EB019091E401992331F029
:10226000CB01DF91CF911F910C941E11882379F03F
:10227000CB010E94F110182F682FCE010E949A10F6
:10228000BE01812FDF91CF911F910C94A417CB0138
:102290000E94C810182FF4CF1F93CF93DF93C091E3
:1022A0000E0216E080910F028C1304C0DF91CF91D3
:1022B0001F910895D0E01C9FF0011D9FF00D112487
:1022C000E05FFD4F408151816281738184819581FE
:1022D0000E9428102196C770E5CF4091400250918E
:1022E00041026091420270914302809144029091B8
:1022F00045020C942810FF920F931F93CF93DF9306
:1023000080914502807FD1F4809142028823B1F010
:1023100080910E0210910F02609140027091410273
:10232000A0914302B0914402062F0723C0910201FD
:10233000D091030196E0F92E181306C0DF91CF91DA
:102340001F910F91FF90089590E0109711F00F3FAB
:1023500019F401968770F0CFF89E9001F99E300D28
:102360001124F901E05FFD4F41814713F2CF408115
:102370004613EFCF42814111ECCF438154814A1B78
:102380005B0B4C175D0728F7809145028F708061C9
:1023900080934502F901EB5EFD4F80818F70806173
:1023A000808380E492E00E94B50FDF91CF911F916E
:1023B0000F91FF900C944C11AF92BF92CF92DF928D
:1023C000EF92FF920F931F93CF93DF93CDB7DEB7BA
:1023D00061970FB6F894DEBF0FBECDBF8C0185E0CC
:1023E000F801DE011D9601900D928A95E1F7F80142
:1023F000E28080E4C82E82E0D82E60914302709182
:1024000044026115710509F45FC190914002209169
:102410004102892F82238F3F09F456C140815181A7
:10242000A380B480F0904202F501E61BF70BBF01D8
:10243000E0910201F0910301FF2009F4F6C08091C0
:102440004502382F307F6E177F0708F0AFC031117B
:1024500079C0FE2C251323C0941321C0E1101FC0A6
:102460008F708061809345020E946D11C6010E94A9
:10247000B50F80914502F80185838F2D61960FB6C7
:10248000F894DEBF0FBECDBFDF91CF911F910F91AA
:10249000FF90EF90DF90CF90BF90AF900895AB2862
:1024A00029F0842F85238F3F09F027C180E0F82F82
:1024B000F170DF2E80FF3CC080910E0220910F0250
:1024C00036E0821315C04D875E878D859E850E94FC
:1024D0001E11292F22952F702230F0F0243018F58C
:1024E0009F70F1F0F8019581907FD1F4D12C1EC03E
:1024F00090E0389FF001399FF00D1124E05FFD4F0F
:102500006181651306C06081641303C062816E112E
:102510000FC001968770D5CF9F7011F0882331F3DB
:10252000805E883018F3C8010E94B50FFD2CA5CF3E
:10253000EE2009F4A2CF809145028160809345028C
:10254000F12C9BCF251306C0941304C0F801EE2094
:1025500009F487C0C8010E941210882319F1EE20E7
:1025600009F180914502803270F020914002309153
:10257000410238872F831986BB86AA868C87CE01B5
:1025800007960E94B50F86E0F801A0E4B2E0019042
:102590000D928A95E1F70E947B110E946D11FF2434
:1025A000F3946BCFC8010E94B50FF9CF311113C05E
:1025B0007A2DB98AA88A6E2D89890E94191080E423
:1025C00092E00E94B50F86E0F60111928A95E9F734
:1025D0000E946D11B5CF25130FC094130DC0E110EB
:1025E0000BC0F8018583C8010E94B50F86E0F60193
:1025F00011928A95E9F741CFC8010E9412108823F1
:1026000089F2EE2079F280914502803208F4BBCF46
:1026100020914002309141023A8329831B82BD827E
:10262000AC828E83CE010196ACCF6E177F0708F087
:102630003EC0FE2CEE2009F4B5CF25132AC094131A
:1026400028C08091450280FD1BC0982F907FC1F06B
:10265000F8018583903F31F0982F907F905F8F70C5
:10266000892B8583C8010E94B50F86E0F801A0E49C
:10267000B2E001900D928A95E1F70E946D11FDCEB6
:1026800086E0F801A0E4B2E001900D928A95E1F7AE
:10269000F4CEC8010E941210811175CF80914502BD
:1026A000816080934502C8010E94B50FE6CE7A2D65
:1026B000B98AA88A6E2D89890E94191086E0F601D0
:1026C00011928A95E9F7D9CFEE2009F46BCFC801B2
:1026D0000E941210F82E882309F464CF86E0F801D6
:1026E000A0E4B2E001900D928A95E1F780E492E0D7
:1026F0000E94730C0E947B11C0CF81E08E25D7CE43
:102700001F93CF93DF93CDB7DEB72C970FB6F89416
:10271000DEBF0FBECDBF4F83588769877A878B870F
:102720009C87CE0107960E94DC11882369F08A8578
:102730009B85892B39F04F815885842F85238F3FC6
:1027400009F071C016E05FC086E0FE013796DE0139
:10275000119601900D928A95E1F78A859B85892BC8
:1027600089F38F81988589238F3F61F320910F0230
:1027700030E0C90101968770992740910E024817F1
:10278000190671F40E94EF0F10920F0210920E02C0
:1027900086E0E0E4F2E0DF011D928A95E9F7D2CF0E
:1027A00096E0929FD001939FB00D1124A05FBD4F82
:1027B000FE01319601900D929A95E1F780930F02F8
:1027C0000E944C11BFCF819FC0011124805F9D4F9B
:1027D0000E94DC118823E9F0E0910E021E9FF001B7
:1027E0001124E05FFD4F40815181628173818481BA
:1027F00095810E94281080910E0290E001968770CA
:10280000992780930E0280910E0290910F028913F6
:10281000DACF2C960FB6F894DEBF0FBECDBFDF9196
:10282000CF911F91089569857A858B859C850E943B
:10283000281088CF682F80910401909105010C9495
:10284000612B682F80910401909105010C94632BFA
:1028500080910401909105010C94652B80914602B2
:102860008595859585950895809146028770089590
:1028700090914602977081E009F480E0089580917C
:102880005202089590915202892B8093520208952A
:10289000809590915202982390935202089510923D
:1028A0005202089590915102892B8093510208950C
:1028B000809590915102982390935102089510921F
:1028C0005102089510925002089580914702089590
:1028D00008950C9468149091150392FD08C090918E
:1028E0004702981721F0809347020C9469140895C9
:1028F00080914702882329F01092470280E00C94CF
:1029000069140895E0910401F0910501809152024B
:102910008083E0910401F091050180819091510242
:10292000892B8083E0910401F091050180819091D1
:102930005002892B808390914702992381F0E09186
:102940000401F09105018081892B8083809104012D
:10295000909105010E94192B81110E947814809199
:102960000401909105010C94D42A08950C94B51497
:102970009091150392FD10C098E0899F9001112459
:10298000622B609346020E946810809146028595F2
:10299000859585950C94B6140C9468101092460297
:1029A00080E00C94B6149091460280958923809320
:1029B0004602282F277091F4282F082E000C330B85
:1029C0009217130659F09091150392FD07C0859553
:1029D000859585950E9473100C94CE14089590915E
:1029E000150392FB222720F9281769F080FB92F942
:1029F0009093150380911403909115030E943A154A
:102A000082E00C94D31408958091150382FB8827EB
:102A100080F991E089270C94EF1481E00C94EF1475
:102A200080E00C94EF146FEF7FEF90E080E00C9467
:102A3000573490E080E00E943334893E9E4F11F479
:102A40000C94DB1E80E0089582E090E00C942B341F
:102A500083E090E00C942B34CF9384E090E00E94CC
:102A60002B34C82F82E290E00E942B34982F8C2FB9
:102A7000CF910895CF93C92F682F84E090E00E94F2
:102A800039346C2F82E290E0CF910C943934AB0151
:102A9000BC018FE090E00C944B34AB01BC0183E1AE
:102AA00090E00C944B3460E070E0CB010C944D1539
:102AB00060E070E0CB010E9447150C94531569EE5D
:102AC0007EEF90E080E00E94573460E082E090E08A
:102AD0000E94393460E083E090E00E943934109223
:102AE0000D0260E084E090E00E94393460E082E210
:102AF00090E00E94393460E085E090E00E94393433
:102B000060E086E090E00E9439346FEF87E090E06B
:102B10000E94393440E050E0BA0188E090E00E9421
:102B20004B3460E08DE090E00E94393440E050E0AA
:102B3000BA0188E190E00E944B3460E087E190E0C8
:102B40000E94393440E050E0BA018CE190E00E94EC
:102B50004B3470E060E080E290E00E94573440E047
:102B600050E0BA0188E190E00E944B3480E00E947E
:102B7000F41E0E941A1F0C9458150C945F15682FB0
:102B80008EE090E00C9439340E94082C609370021F
:102B900070937102809372029093730260936C023F
:102BA00070936D0280936E0290936F0208950E945D
:102BB000082C60937002709371028093720290935C
:102BC0007302609368027093690280936A02909323
:102BD0006B02089585B7806885BF85B7806885BF1B
:102BE0000895089508950C94F11508950C94F51521
:102BF0000E94EA1583EC98E10E94B42A0E94F21523
:102C00000C94F3150C942E19089508950E9404163F
:102C10000C9405160E94F32B0E9482180E94291F13
:102C20000E9460060E94222080E00E9482200E9472
:102C3000F2250E94FE090C94F6159F92AF92BF9266
:102C4000CF92DF92EF92FF920F931F93CF93DF9378
:102C5000CDB7DEB72A970FB6F894DEBF0FBECDBF53
:102C60000E942C07C82E81110E94C41584E5A82E4D
:102C700082E0B82E10E000E0902E802F0E945906CE
:102C8000E82EF501F1905F01F81609F45EC080911D
:102C9000740281FD0E945F068F2D8E25D12CFF24AA
:102CA000F394982F9F2109F44BC00E9402168823A9
:102CB00099F0DE829F82EF2081E009F480E088872E
:102CC0000E94FC2B8160782F9A8789874E815F81D3
:102CD00068858A850E94350CF801EC5AFD4F808189
:102CE000F826F0820E940B26182F81110E94D7151A
:102CF0000E94FD22C11001C011110E94C4210E9436
:102D0000121D0E94000A0E94BE2A90915302891748
:102D100099F10E94BE2A809353022A960FB6F89426
:102D2000DEBF0FBECDBFDF91CF911F910F91FF90FE
:102D3000EF90DF90CF90BF90AF909F900C942D0CB0
:102D4000D394FF0CF5E0DF12ACCF0F5F1F4F0431BF
:102D5000110509F091CF8FEF89838A831B820E942E
:102D6000FC2B8160782F9D838C8349815A816B81F4
:102D70008D810E94350CB6CF2A960FB6F894DEBF2F
:102D80000FBECDBFDF91CF911F910F91FF90EF90BC
:102D9000DF90CF90BF90AF909F900895CF93DF9337
:102DA0000E94A817EC01811522E5920778F581159C
:102DB00031E5930708F098C08F3F910509F0B8F40A
:102DC000803F910508F06FC0853A910540F484304A
:102DD000910548F4019739F0D0E0C0E004C0805E6E
:102DE00091090897C8F7CE01DF91CF910895811519
:102DF00040E5940708F05CC0C11580E4D80708F0EE
:102E000054C0C11590E2D90770F3E6CF811526E5CD
:102E1000920718F5811535E5930708F07DC08115F7
:102E200044E5940708F073C0982F969596959E01F7
:102E300023703327C115D34508F45BC0C1E0D0E04F
:102E400002C0CC0FDD1F2A95E2F730E2939FC0014C
:102E50001124C82BD92BDA68C6CFC1159AE5D9073A
:102E600078F4C11529E5D20708F060C0C11538E52E
:102E7000D30708F4B1CFDC2FCC27C06FD06AB3CF13
:102E8000CE0190568115904208F0A6CF8D2F8F71FC
:102E90000E943F1890E0982F882788279F719C01F7
:102EA0002C2BE90141C0D0659ECFDF70D06A9BCF4B
:102EB000E4E096958795EA95E1F783702C2F2695A7
:102EC0002695237090E2299F90011124382B8C2F96
:102ED0008370C1E0D0E002C0CC0FDD1F8A95E2F71D
:102EE000C22BD32BDC687FCFD82FCC27C16FD06A01
:102EF0007ACFC1E0D0E002C0CC0FDD1F2A95E2F707
:102F000020E2929FC0011124C82BD92BEBCFD82FE0
:102F1000CC27C46FD06A67CF0E943F18C82FD0E07B
:102F2000DC2FCC27CC27DF71D0625DCF8C2F8F7048
:102F30000E943F1834E0D695C7953A95E1F7CF70D7
:102F40009C2FEC01D0694FCF0E9429250C94CE16FE
:102F500082389105B1F1B0F48133910509F475C05F
:102F600048F48932910509F469C08A32910509F45F
:102F700073C008958533910509F459C089339105CB
:102F800001F10895833E9105A9F138F4803E910541
:102F9000F9F0823E910549F10895863E9105A9F127
:102FA000873E9105C9F1843E910519F520911503DD
:102FB00021FF1FC08091140384FD14C087EE90E0B0
:102FC0000895209114032370A1F080EE90E00895FD
:102FD0002091140320FD47C03091150330FF09C034
:102FE00024FF44C090E080E004C02091140322FD3F
:102FF000F7CF08952091140322FD3BC030911503B3
:1030000030FDE3CF24FFF5CFEDCF2091140323FF54
:10301000F0CF24FDE7CFD2CF2091140323FD2CC0A5
:103020003091150331FFEECF84EE90E008952091AA
:10303000140325FFDECF89E290E008952091140368
:1030400025FFD7CF85E390E008952091140326FF54
:10305000D0CF8AE290E008952091140326FFC9CFD3
:1030600081E390E0089589E390E0089583EE90E095
:10307000089582EE90E0089586EE90E00895909194
:10308000140392FF06C0282F28712830F9F4877F97
:10309000846093FF06C0282F28712831F1F4877EC1
:1030A00084612091150320FF06C0382F3871383015
:1030B000D9F4877F816021FF06C0282F287128312D
:1030C000D1F4877E816194FD877E0895282F247135
:1030D0002430F9F68B7F8860DCCF282F24712431CF
:1030E00001F78B7E8861DDCF382F3171313019F7D0
:1030F0008E7F8860E0CF282F2171213121F78E7ECD
:103100008861E1CF10921003109211031092120304
:10311000109213030895CF92DF92EF92FF926B010A
:103120007C010E942E1981110EC00E94082CC61A23
:10313000D70AE80AF90AC0921003D0921103E0926C
:103140001203F0921303FF90EF90DF90CF90089559
:103150000F931F930E942E19882321F01F910F9126
:103160000C94082C0E94082C00911003109111035C
:103170002091120330911303600F711F821F931F60
:103180001F910F91089580E008950C9413150E94EB
:103190002C078FE39CE90197F1F700C000000E9423
:1031A0002C0780E00E94590680FF04C00E94C518C9
:1031B0000C94632C08950C94C7180E941915811162
:1031C00002C00E94BD150E942415809374020E94C3
:1031D0002C1590931503809314030E94DB180E9412
:1031E00028150E94421080910C020C9455100895ED
:1031F000FF920F931F93CF93DF93F82E092F162F73
:10320000D72FC42F222349F081E0809377020E94B8
:10321000FC2B90937602809375028091770288232D
:10322000A1F080917502909176020E94142C05976E
:1032300060F0EF2DF02FA12FBD2FCE0FDF2FD11D6E
:10324000EC17FD0741F410927702DF91CF911F91A7
:103250000F91FF90089581918D93F2CF8091780224
:10326000811107C00E94BE33882351F081E0809312
:10327000780281E090917802913009F080E0089521
:1032800082E0809378020E94B933F3CF0C942E1918
:103290000E944619809306010E942E1981110C94F8
:1032A000601908950E942E19811102C00C946219B0
:1032B000089581E0909179029A3008F080E00895B5
:1032C0000C94F3280C94F628EF92FF920F931F931F
:1032D000CF93DF937901C82F880FDD0B411551057E
:1032E000A9F08AE08C9FF0018D9FF00D1124E95F19
:1032F000FE4F8381948186589D4F228130E0421792
:10330000530708F49A01A9010E942234CE010E94B9
:10331000002A892B11F501151105E9F08AE08C9F2F
:10332000F0018D9FF00D1124E95FFE4F458150E0C3
:103330000417150708F4A8018AE08C9FF0018D9FFF
:10334000F00D1124E95FFE4F6681778166587D4F4D
:10335000C7010E94223481E001C080E0DF91CF915B
:103360001F910F91FF90EF9008950C94141B0C94F3
:10337000381B0F931F93CF93DF9300D000D0CDB7AE
:10338000DEB76091A1027091A2028091A302909198
:10339000A4020E94232C11E0643671058105910579
:1033A00018F10E94A8186E5F7F4F8F4F9F4F69835F
:1033B0007A838B839C8310E000E030E020E044E0DF
:1033C00050E0BE016F5F7F4F84E00E946419182FA8
:1033D000882351F00E94082C6093A1027093A202EE
:1033E0008093A3029093A402812F0F900F900F90CF
:1033F0000F90DF91CF911F910F9108957F928F923F
:103400009F92AF92BF92CF92DF92EF92FF920F9373
:103410001F93CF93DF930F92CDB7DEB7762E4A017D
:103420005901680101E010E09E012F5F3F4F50E01D
:1034300040E070E060E00E946419182F882309F4CE
:103440003EC0F40160817181828193810E94232CAE
:10345000643671058105910558F18701950150E0A9
:1034600040E070E060E0872D0E946419B82EB7013B
:10347000C6010E94232011E09981981310E01B21BE
:1034800039F00E94082CF401608371838283938356
:10349000812F0F90DF91CF911F910F91FF90EF90AF
:1034A000DF90CF90BF90AF909F908F907F900895C6
:1034B000B701C6010E94232099818913CECFA701AD
:1034C000B601C5010E942234E3CFEF92FF920F9321
:1034D0001F93CF93DF930F92CDB7DEB700917601A4
:1034E00010917701045F1F4FEE24E394F12C9E01AD
:1034F0002F5F3F4F4DE952E063E082E00E94FE19EA
:10350000182F882321F0CE0101960E946426812F76
:103510000F90DF91CF911F910F91FF90EF90089541
:10352000CF92DF92EF92FF920F931F93CF93DF938F
:10353000CDB7DEB72A970FB6F894DEBF0FBECDBF6A
:103540006B0100917601109177010F5F1F4F8AE0A8
:10355000E82EF12C9E012F5F3F4F49E952E061E0D8
:1035600080E00E94FE19882349F09AE0FE0131961E
:10357000AFE8B2E001900D929A95E1F79AE0EFE89A
:10358000F2E0D60101900D929A95E1F72A960FB6D6
:10359000F894DEBF0FBECDBFDF91CF911F910F9189
:1035A000FF90EF90DF90CF900895AF92BF92CF92AF
:1035B000DF92EF92FF920F931F93CF93DF937C01E3
:1035C0005B016A010E94591901E010E0882311F0A3
:1035D0000AE010E0C1E0D0E0F894B501C701F601BF
:1035E00009957894811104C021960C171D075CF48D
:1035F000DF91CF911F910F91FF90EF90DF90CF90CF
:10360000BF90AF900895CC9F9001CD9F300D300DAD
:10361000112490E080E045E34A95F1F7000001961F
:1036200082179307C1F7D8CF0F931F93CF93DF93E0
:10363000EC018B0140E95AE10E94D51A882391F0F0
:1036400045E65AE1B801CE010E94D51A882351F00F
:1036500049EB59E1B801CE01DF91CF911F910F9154
:103660000C94D51A80E0DF91CF911F910F910895AE
:103670000F931F93CF93DF930F92CDB7DEB7F894DC
:103680000091760110917701C80101962AE0FB01B3
:10369000DC0101900D922A95E1F76AE070E00E944A
:1036A0002320F80180837894F894CE0101960E943B
:1036B0005B268981F801848761E070E0CE01019684
:1036C0000E942320F80183877894F8946585768595
:1036D0008785908900918B0210918C0220918D0238
:1036E00030918E02601771078207930751F0609343
:1036F0008B0270938C0280938D0290938E020E94B5
:103700008B1878940F90DF91CF911F910F910895AE
:103710000E94082E0E940A160C94142E0E94182E45
:103720000E941D160C94322E0E94862B0E94EF2DB3
:103730000E94F8150E94881B0E948E1B0E9406168C
:10374000FBCF8091AB0280FF12C060913E0185E00B
:10375000689FB001112475956795759567956038D8
:103760007105A8F561157105A1F1862F089581FFF6
:1037700009C060913E0185E0689FB00111247595F4
:103780006795EDCF60913E0182FD0AC08091AA024B
:103790008823D1F090913D0160913E01891728F076
:1037A00085E0689FB0011124DACF869FB001112413
:1037B00085E0869F9001879F300D1124692F70E06E
:1037C000C9010E94EB33CBCF65E070E0CECF8FE72D
:1037D000089581E008958091AB0280FF0CC0609154
:1037E0003A0170E075956795759567956115710556
:1037F00049F1862F089581FF06C060913A0170E07B
:1038000075956795F3CF60913A0182FD0BC0909159
:10381000A9029923A1F06091390180913A0196178C
:1038200038F0682F70E06038710500F38FE7089575
:10383000899FC001112470E00E94EB33F4CF61E056
:1038400070E0D7CF81E00895803F31F40E94A11B42
:1038500081958093AF020895813F19F40E94A11BC6
:10386000F8CF823F31F40E94A11B81958093AE0274
:103870000895833F19F40E94A11BF8CF893F29F4D2
:103880000E94EB1B8093B00208958A3F21F40E94AE
:10389000EB1B8195F7CF8B3F31F40E94EB1B819599
:1038A0008093B10208958C3F19F40E94EB1BF8CF6E
:1038B0009CE0980F953070F4845F990B21E030E024
:1038C00001C0220F8A95EAF78091AD02822B809386
:1038D000AD0208958D3F31F48091AB0281608093F9
:1038E000AB0208958E3F21F48091AB028260F7CF46
:1038F0008F3FB9F78091AB028460F1CF4091AE0267
:10390000803F59F48091AF0287FF0DC01092AF0243
:1039100041110BC01092AA0208C0813F81F480912E
:10392000AF0218169CF3442381F08091B00290916D
:10393000B102892B09F05AC01092A9020895823F62
:1039400049F447FFF0CF1092AE028091AF0281118F
:10395000ECCFE0CF833F19F41416ACF3E4CF909191
:10396000B002893F29F41916F4F61092B002DBCFA9
:103970008A3F19F497FFD7CFF8CF9091B1028B3FD0
:1039800029F497FFD0CF1092B102CDCF8C3F19F41C
:103990001916CCF3C8CF9CE0980F953090F4845F53
:1039A000990B21E030E0B90102C0660F771F8A95BC
:1039B000E2F7CB0180959091AD0289238093AD020F
:1039C000B2CF8D3F31F48091AB028E7F8093AB02FA
:1039D000AACF8E3F21F48091AB028D7FF7CF8F3F2E
:1039E00009F0A1CF8091AB028B7FF0CF08950E94A8
:1039F000FC2B9C019091AE028091AF02982B21F09C
:103A00003093A8022093A7029091B0028091B10256
:103A1000982B21F03093A6022093A5028CEA92E025
:103A20000C94DF2AEF92FF920F931F93CF93DF93B3
:103A300000D000D000D0CDB7DEB786E0ECEAF2E0EF
:103A4000DE01119601900D928A95E1F7E090AE02A9
:103A5000F090AF020091B0021091B1021092AE024C
:103A60001092AF021092B0021092B1028E2D8F29E7
:103A700091F08091A7029091A8020E94142CAC01B1
:103A80009091AA02992309F43FC080913F018417C5
:103A9000150608F447C0802F812B91F08091A50274
:103AA0009091A6020E94142CAC019091A902992336
:103AB00009F477C080913B018417150608F47FC094
:103AC0008091AE029091AF02892B9091B002892B28
:103AD0009091B102892B11F00E94F71C86E0FE0143
:103AE0003196ACEAB2E001900D928A95E1F7269604
:103AF0000FB6F894DEBF0FBECDBFDF91CF911F91FF
:103B00000F91FF90EF900895209140018AE0289F47
:103B1000900111242417350708F0BDCF9F5F9093C3
:103B2000AA0202C09F3FD1F7EE2059F00E94A11BCC
:103B30009FEF1E140CF491E0899F802D1124809337
:103B4000AE02FF2059F00E94A11B9FEF1F140CF43E
:103B500091E0899F802D11248093AF023091AE02B5
:103B6000332309F498CF2091AF02222309F493CF95
:103B700045EB3403C0011124992359F09093AE0210
:103B800045EB240390011124332339F03093AF0225
:103B900082CF81E08093AE02F3CF81E08093AF02C9
:103BA0007ACF20913C018AE0289F900111242417AC
:103BB000350708F085CF9F5F9093A90202C09F3F11
:103BC000D1F7002359F00E94EB1B9FEF10160CF465
:103BD00091E0899F802D11248093B002112359F028
:103BE0000E94EB1B9FEF11160CF491E0899F802D32
:103BF00011248093B1023091B002332309F460CFD5
:103C00002091B102222309F45BCF45EB3403C001BC
:103C10001124992359F09093B00245EB24039001AD
:103C20001124332339F03093B1024ACF81E08093DD
:103C3000B002F3CF81E08093B10242CF86E0ECEA9C
:103C4000F2E0DF011D928A95E9F71092AA02109224
:103C5000A9021092AB020895EF92FF920F931F9367
:103C6000CF93DF93CDB7DEB72C970FB6F894DEBFB6
:103C70000FBECDBF49835A836B837C838D839E8324
:103C8000EF82F88609871A872B873C8746E050E049
:103C9000BE01695F7F4FCE0101960E94153421E07D
:103CA000892B09F420E0822F2C960FB6F894DEBF02
:103CB0000FBECDBFDF91CF911F910F91FF90EF907D
:103CC0000895EF92FF920F931F93E090B202F0904D
:103CD000B3020091B4021091B5022091B602309166
:103CE000B7024091B8025091B9026091BA02709146
:103CF000BB028091BC029091BD020E942C1E8823C1
:103D000021F088EB92E00E94DF2A1092BA02109212
:103D1000BB021092BC021092BD0286E0E8EBF2E01A
:103D2000A2EBB2E001900D928A95E1F71F910F91FD
:103D3000FF90EF900895CF93DF9300D000D000D094
:103D4000CDB7DEB786E0E8EBF2E0DE011196019038
:103D50000D928A95E1F729813A814B815C816D81D1
:103D60007E8180E090E026960FB6F894DEBF0FBE0D
:103D7000CDBFDF91CF910895CF93DF9300D000D0D6
:103D800000D0CDB7DEB749835A836B837C838D83A4
:103D90009E8386E0FE013196A8EBB2E001900D9281
:103DA0008A95E1F726960FB6F894DEBF0FBECDBF19
:103DB000DF91CF91089583E290E00E942B3482320C
:103DC00089F484E290E00E942B34813059F485E23A
:103DD00090E00E942B3491E0843009F090E0892F2C
:103DE0008170089580E0FCCFCF93C82F6FEF8111D1
:103DF00062E283E290E00E9439346FEFC11161E02A
:103E000084E290E00E9439346FEFC11164E085E2F2
:103E100090E0CF910C943934089586E290E00E94AE
:103E20002B34682F70E090E080E0089586E290E007
:103E30000C94393480E00E94F41E60E070E0CB0105
:103E40000E94161F0E94A1240E948B2581E00C94E1
:103E5000F41E0E940C1F0E94DB1E811102C00C94F4
:103E60001A1F0895CF93FB01C281CC2309F19C0155
:103E700022513F452031310520F582510E949B257A
:103E8000C0E08C2FCF91089581E00E94681043E03C
:103E900062E081E00E94BA0AF3CF81E00E947310D1
:103EA00043E062E081E00E94BA0AEBCF82E0F6CF05
:103EB0008031FFE59F0789F381319F45B9F3C1E068
:103EC000E0CF8031EFE59E07F9F281319F45C9F6D9
:103ED00082E0DBCF2FEFFC0120830895EF92FF9269
:103EE0000F931F93CF93DF93EC01062FE881E150EE
:103EF000E33108F05EC0F0E0E757FB4C0C94FF3371
:103F0000198289E08A83602FCE01DF91CF911F91C2
:103F10000F91FF90EF900C94C82C8981823069F04A
:103F2000833071F08130D9F40E94082C0E9405344E
:103F30006A837B838C839D83E6CF0E940D1FF6CF1F
:103F40007E0182E0E80EF11C10E0812F0E945906EC
:103F5000F70181937F011F5F1431B9F7D4CF602F30
:103F6000CE010E946A1FCFCF89818230C1F76A815A
:103F70007B818C819D810E9405340E94161FC3CFD6
:103F80004B816A8189810E94732498278927982709
:103F90009D838C83B8CF2C813D8132272327322704
:103FA0004B816A8189810E948C24ADCF0E94A1241B
:103FB000AACF8FEF8883A7CF0E9436258983A3CF0E
:103FC0000E9438259827892798279A8389839BCF31
:103FD0006B8170E089819A81AE014C5F5F4F9827B9
:103FE000892798270E943B258ECF6B8170E08981BD
:103FF0009A81AE014C5F5F4F9827892798270E94CE
:10400000612581CF0E948B257ECF0E946124D6CF6F
:104010006B8170E089819A81AE014C5F5F4F982778
:10402000892798270E94D9246ECF6B8170E08981FF
:104030009A81AE014C5F5F4F9827892798270E948D
:10404000FF2461CF0895FC01680F791F8FEF91E382
:104050006E177F0709F408952191822728E030E048
:1040600087FF06C0880F892721503109C9F7F0CF93
:10407000880FFACFCF92DF92EF92FF920F931F93A8
:10408000CF93DF936C017B0164E670E088E70E94C8
:104090009127EC0197FD12C010E000E0F601E00F5F
:1040A000F11F849164E670E00E940B28EC01892BDB
:1040B00029F40F5F1F4F0E151F0581F70E948E28F0
:1040C000CE01DF91CF911F910F91FF90EF90DF9084
:1040D000CF90089508950C946A20E7E1F3E080E022
:1040E00092E0DF019C011D9221503040E1F7F093F6
:1040F0001E05E0931D058FEF9FEF9093EA028093DA
:10410000E90208950E9471090E946B208093E502E4
:1041100080FD0FC080E88093E4020E948B276DE051
:1041200070E084E395E00E943A20892B21F080E042
:10413000089580E2F0CF8091E50263E070E081FDB8
:1041400026C081E395E00E943A20892B81F76DE03B
:1041500070E081E295E00E943A20892B41F70E94AD
:10416000082C605A75418F4F9F4F609319057093CB
:104170001A0580931B0590931C050E946D2081E019
:104180008093E8028093E7021092E60208958EE29F
:1041900095E0D9CF2091E40236E0839FC00111243D
:1041A000629F800D911D1124811522E0920714F069
:1041B00090E080E0895E9C4F90931E0580931D05E2
:1041C000089520911D0530911E05215133404091E5
:1041D000E402642F70E0C9010E94D733481B4630C7
:1041E00010F4240F311D211582E0380710F030E063
:1041F00020E0295E3C4F30931E0520931D05089555
:104200001F93CF93DF93162F8A3031F481E0DF9133
:10421000CF911F910C947A218D3011F480E0F7CF6B
:10422000C0911D05D0911E0596E0FE01AEEBB2E0F7
:1042300001900D929A95E1F7803EC8F086E0FE016C
:1042400011928A95E9F711111EC0C0911D05D091F8
:104250001E0546E050E0BE018EEB92E00E94153450
:10426000892BF9F4DF91CF911F910C94E120F6E0B6
:104270008F9FB00111246F5B7A4F46E050E0CE0172
:104280000E940C34E0CFE0911D05F0911E059F01C6
:104290002A5F3F4F2E173F07C1F28081809581939F
:1042A000F9CFC751D340CE0125E0969587952A9541
:1042B000E1F721E030E0A90102C0440F551F8A95C3
:1042C000E2F7CA014091E9025091EA02842B952B52
:1042D000259645E0D695C7954A95E1F702C0220F8D
:1042E000331FCA95E2F7822B932B9093EA028093B7
:1042F000E902B8CFCF93382FE0911D05F0911E054C
:10430000E751F3402091E402622F70E0CF010E9458
:10431000D733281B822F332369F066E00E94CB330A
:10432000C82FC15010F4CF91089560E080E20E9440
:104330000021F7CF9F01280F311D2115324018F0C1
:1043400080E0F0E0E0E08E0F9F2F911D895E9C4F92
:1043500090931E0580931D05E6CF1F93CF93DF93A7
:10436000EC01162FFE018491811104C0DF91CF91E1
:104370001F910895612F0E9400212196F3CF0E9482
:10438000AD2181E00C947A218091E802811103C073
:104390008091E70208950E94082C605A75418F4F62
:1043A0009F4F6093190570931A0580931B05909396
:1043B0001C058091E7028111EBCF62E070E08FE194
:1043C00095E00E943A20892B19F781E08093E7025B
:1043D000DFCF2F923F925F926F927F928F929F9248
:1043E000AF92BF92CF92DF92EF92FF920F931F9303
:1043F000CF93DF938091E802882369F02091E9024E
:104400003091EA022115310531F08091E60261E038
:1044100070E0882399F0DF91CF911F910F91FF9069
:10442000EF90DF90CF90BF90AF909F908F907F9054
:104430006F905F903F902F9008958F5F082F10E04E
:104440001B01082E02C0220C331C0A94E2F7A901BA
:1044500042215321452B89F39091E50290FD44C000
:104460008295880F80768093430198013695279531
:104470003695279520934601815E809344011092E2
:10448000470124E630E047E050E061E471E088E76E
:104490000E943A28892B09F0BECFA80125E0440FDD
:1044A000551F2A95E1F78091E50280FD2BC0495EFA
:1044B0005C4F04E610E020E230E060E488E70E9410
:1044C0006128892B09F0A7CF0E94C421E101C09582
:1044D000D0958091E9029091EA02C823D923D09324
:1044E000EA02C093E90297CF880F880F880F809364
:1044F000430110924601895F8093440183E08093D9
:104500004701BFCFE4ECF2E080E2DF011D928A9523
:10451000E9F7ACE7B1E008E711E080E8C82E81E0F8
:10452000D82E97E0592E772473948D91E801299124
:104530008E01240F352F311D295E3C4FE82FF0E00E
:10454000EC53FD4F90E080E0652C681A872C082E14
:1045500001C0880C0A94EAF77901A12CE701B9900F
:104560007E01B820662D6A196770962E062E000C03
:10457000770BDB2D01C0DD0F9A94EAF771956195F9
:1045800071096770772701C0B6946A95EAF7BD2A6A
:104590006081962E9B289082A39468E0A612DECFBD
:1045A000019631968830910579F6CA16DB0609F036
:1045B000BCCF04E610E020E230E044EC52E07DCFD6
:1045C0008091E7029091E802911103C091E0892760
:1045D0000895882369F062E070E08DE195E00E9423
:1045E0003A20892B19F08091E70208951092E70292
:1045F0008091E702EBCF81E008950F931F938091A4
:10460000E802882389F180911705909118050E948E
:10461000142CC29760F00E94FC2B90931805809395
:10462000170560E080E00E94CA200E947B090E947A
:10463000E9218091E7028823B9F00E94082C0091BB
:10464000190510911A0520911B0530911C05601B5E
:10465000710B820B930B6F3F7F4F8F4F9F4720F45F
:104660001F910F910C94E0221F910F910895CF9309
:10467000DF93EC01FB018281882309F420C1C33060
:10468000FDE5DF07C8F5CA3F9CE5D90730F49E0178
:1046900022503C452431310598F50E942C15909309
:1046A000150380931403C031FCE5DF0709F4E0C073
:1046B00008F061C0C8309CE5D90709F4CBC088F583
:1046C000C430FCE5DF0709F4B3C0E8F4C2309CE570
:1046D000D90709F4A7C0809114038260C330DC4578
:1046E00009F4A3C080911403909115030E943A1518
:1046F0000E94EF0F80E004C0C136EDE5DE0769F2ED
:10470000DF91CF910895809114038061C630FCE55C
:10471000DF0709F48AC008F48FC080911403806217
:1047200084C0809114038D7FCC309CE5D90709F4B7
:104730007CC070F4809114038C60CA30FCE5DF0704
:1047400009F473C008F48AC0809114038E7F6DC091
:1047500080911403877FCE309CE5D90709F465C0AA
:10476000809114038B7FCF30DC4508F45EC08091CC
:1047700014038F7E5AC0CC3FFCE5DF0709F474C0F8
:1047800040F5C4319CE5D90709F48AC058F4C23118
:10479000FCE5DF0709F474C008F46EC080911403CF
:1047A000837F43C0CA3F9CE5D90709F449C008F09C
:1047B0004DC0C531DC4509F095CF8091140382FBD3
:1047C000992790F921E0922790FB82F990FB83F9D9
:1047D0002CC0C1158DE5D80709F458C088F4809124
:1047E00015038360CE3FECE5DE0769F18091150388
:1047F0008D7FCF3FDC4538F1809115038C7F23C03E
:10480000C2308DE5D80709F458C008F452C0C1364B
:10481000DD4509F067CF90911403892F8F7E94FFB7
:10482000806103C0809114038160809314035ACF88
:10483000809114038460F9CF809114038860F5CFD0
:10484000809115038160809315034CCF80911503EF
:104850008260F9CF809114038064E7CF0E94EF0F4C
:10486000809114038068E1CF809115038E7FEBCF98
:10487000809114038F7DD9CF809114038F7BD5CF86
:104880000E94EF0F809114038F77CFCF8091150393
:10489000982F909591708E7F892B90FB81F9D3CFC3
:1048A0000E94EF0F90911403892F97FB87F980588E
:1048B000BCCF81E00E94BF1515CF80E0FBCF81E027
:1048C0001FCF84E0089550E0440F551F9AE0699F80
:1048D000400D511D112498EC899F400D511D11244C
:1048E000CA01879608950F931F93CF93DF930E9479
:1048F00063248C010E942B34C82FD0E0DC2FCC27FE
:10490000C80101960E942B349E01282BC901DF911A
:10491000CF911F910F9108950F931F93CF93DF9322
:10492000122F032F0E946324EC01602F0E94393460
:10493000612FCE010196DF91CF911F910F910C94C1
:104940003934AF92BF92CF92DF92EF92FF921F93D2
:10495000CF93DF938DE4C82E81E0D82ED0E076018E
:10496000C0E014C0F50125913491412F6C2F8D2F9B
:104970000E948C2482E0A80EB11C1F5F153091F7B5
:104980008AE0E80EF11CCF5FC43119F0570110E046
:10499000E9CFDF5F88ECC80ED11CD43001F7DF917E
:1049A000CF911F91FF90EF90DF90CF90BF90AF908D
:1049B0000895EF92FF920F931F93CF93DF93EC0133
:1049C0008A017C01E60EF71ECE018796CE15DF0523
:1049D00039F4DF91CF911F910F91FF90EF900895DF
:1049E000C03223E0D20740F40E942B34F8018083C8
:1049F0000F5F1F4F2196E8CFF8011082F9CFCF92B9
:104A0000DF92EF92FF920F931F93CF93DF937C017E
:104A10006A018C01060F171FEC01CE018796C017A3
:104A2000D10749F4DF91CF911F910F91FF90EF9043
:104A3000DF90CF900895C03223E0D20740F4FE010A
:104A4000EE19FF09EC0DFD1D60810E94393421969D
:104A5000E4CF462F843038F4743128F4653018F4EC
:104A6000672F0C94732490E080E0089580E108950E
:104A700089EB90E00895EF92FF920F931F93CF93ED
:104A8000DF93EC018A017C01E60EF71ECE01895B03
:104A90009C4FCE15DF0539F4DF91CF911F910F9117
:104AA000FF90EF900895C93BD10540F40E942B344C
:104AB000F80180830F5F1F4F2196E8CFF801108225
:104AC000F9CFCF92DF92EF92FF920F931F93CF9384
:104AD000DF937C016A018C01060F171FEC01CE01E8
:104AE000895B9C4FC017D10749F4DF91CF911F918B
:104AF0000F91FF90EF90DF90CF900895C93BD105C3
:104B000040F4FE01EE19FF09EC0DFD1D60810E94CD
:104B100039342196E4CFCF93DF93C7E4D3E060E04C
:104B2000CE010E9439342196C11584E0D807B9F727
:104B3000DF91CF910895DF92EF92FF920F931F9331
:104B4000CF93DF9300D000D0CDB7DEB7F82E8FE043
:104B50008F1540F08FEF93E00E942B3407E413E0B1
:104B60008823C1F00F900F900F900F90DF91CF919D
:104B70001F910F91FF90EF90DF900895011584E051
:104B8000180781F3C8010E942B34811101C0FA94E7
:104B90000F5F1F4FF110F2CF19821A821B821C8205
:104BA000DD24D39478018FEFE81AF80AC8010E9437
:104BB0002B3489831A828823A9F29FEF980F9330B0
:104BC00078F48A83D9820E5F1F4FC7010E942B346D
:104BD0008B83882339F2CE0101960E94110CE2CF1B
:104BE0008701F9CF54985C9A84988C9A89B1829500
:104BF00081707C990EC090E0892B8093F002909197
:104C0000060181E098279093EC02891B8093EB02C8
:104C1000089592E0F1CFCF93E091F002EE0FEE0F06
:104C2000E093F00249B144FB882780F94FB144FB7F
:104C3000222720F944FF02C022E030E0822BE82B3B
:104C4000E093F002C091EC02EF70F0E0E058FE4F0C
:104C500080819091EF02890F8093EF0220E08430F1
:104C600064F0EC2FF0E0E351FD4F80818F5F808393
:104C700060E08C2F0E946D0921E08091EF028D3F52
:104C800064F4EC2FF0E0E351FD4F8081815080838C
:104C900061E08C2F0E946D0921E08091EF02082EC7
:104CA000000C990B64E070E00E94EB338093EF02FC
:104CB000822FCF910895E091EC02F0E0E351FD4F97
:104CC0002081FC0120830895FF920F931F93CF93BF
:104CD000DF93D091EB020D2F10E003511D4FFC012B
:104CE000C081F8018081C81BFC2E80E01F147CF07D
:104CF0009C2FC7FD90E0C91BC11114C08823E9F0A7
:104D0000DF91CF911F910F91FF900C94D715FA94DA
:104D1000F80180818F5F808360E08D2F0E946D0994
:104D200081E0E4CFCF5FF80180818150808361E032
:104D30008D2F0E946D0981E0DFCFDF91CF911F9110
:104D40000F91FF900895CF93DF93EB0186319C453F
:104D500011F50E943F149A81992399F08A7A91E083
:104D600009F490E09093F102811109C089E20E9458
:104D70001A140E94821480E0DF91CF91089585E398
:104D8000F6CF8091F102811104C089E20E942114C2
:104D9000F0CF85E3FBCF81E0EFCF0F931F93CF934D
:104DA000DF93C42FD22FFC0182818823C9F0409366
:104DB000F4020E94FC2B9093F3028093F20280E2B3
:104DC0008C0F883008F050C0C77081E001C0880F98
:104DD000CA95EAF7DF91CF911F910F910C948F0D37
:104DE0001091F402141335C08091F2029091F302F5
:104DF0000E94142C883C910560F5C0E2CD0F1D1770
:104E0000B9F080E2810F883040F4177081E001C072
:104E1000880F1A95EAF70E94960DC83048F481E091
:104E20009D2F977001C0880F9A95EAF70E948F0D09
:104E3000802F0E94870DC830B8F4D77081E001C080
:104E4000880FDA95EAF7DF91CF911F910F910C94BB
:104E5000960D80E28C0F883038F4C77081E001C075
:104E6000880FCA95EAF7EFCFDF91CF911F910F918D
:104E700008950F939C01CB01233F4CE5340759F172
:104E8000A8F4283DFCE53F0701F1293D4CE5340736
:104E9000D1F1273D3C4591F406E221EE41EE67ED6C
:104EA0007CE50E94CD2680E00F910895253FFCE52A
:104EB0003F07E9F0B0F0263F3C45F9F0FC01828164
:104EC000882339F11092F402EFCF07E225EE45EE88
:104ED00068ED7CE5E6CF06E221EE40EE63EF7CE58F
:104EE000E0CF07E225EE44EE64EF7CE5DACF06E2A0
:104EF00021EE42EE65EF7CE5D4CF07E225EE46EEEB
:104F000066EF7CE5CECF08E221E045EE69ED7CE579
:104F1000C8CF81E0C9CF1092B9008CE08093B8006F
:104F200008959F92AF92BF92CF92DF92EF92FF923D
:104F30000F931F93CF93DF93B82EEB010E94FC2BAE
:104F40006C01EE24E394F12CC431D10560F025E02E
:104F5000E22EF12CCF3FDC0731F0CE0164E170E0AE
:104F60000E94D7337B0184EAA82E94E8992E1092F0
:104F7000BC00A092BC000E94FC2B8C018091BC0064
:104F800087FF0DC08091B900887F883039F180910A
:104F9000B900887F803111F10FEF1FEF09C00E9427
:104FA000FC2B801B910B8E159F0540F30EEF1FEF1E
:104FB000CF3FDC07E1F2C6010E94142C8C179D073D
:104FC000B0F2C801DF91CF911F910F91FF90EF9048
:104FD000DF90CF90BF90AF909F900895B092BB00AC
:104FE0009092BC000E94FC2B8C018091BC0087FF3A
:104FF0000AC08091B900887F883111F0803461F651
:1050000010E000E0DECF0E94FC2B801B910B8E1580
:105010009F0558F3CBCF0F931F93CF93DF93EB01F3
:105020008093BB0084E88093BC000E94FC2B8C0121
:105030008091BC0087FF11C02091B900287F81E0DA
:1050400090E0283211F490E080E0919581959109EB
:10505000DF91CF911F910F910895CF3FDC0741F36E
:105060000E94FC2B801B910B8C179D0708F38EEF81
:105070009FEFEECFCF92DF92EF92FF920F931F93AD
:10508000CF93DF936B018A017901B9010E949127C7
:10509000E6010C0D1D1DC017D10761F424E9209312
:1050A000BC00DF91CF911F910F91FF90EF90DF90A7
:1050B000CF90089597FDF2CFB70189910E940B28F8
:1050C000EACFCF92DF92EF92FF920F931F93CF938D
:1050D000DF93C62F6A017901B8010E94912797FDDD
:1050E0000CC0B8018C2F0E940B28E601EC0CFD1CB3
:1050F000CE15DF0511F097FF0CC024E92093BC000A
:10510000DF91CF911F910F91FF90EF90DF90CF90A3
:105110000895B80189910E940B28EACF84E9809311
:10512000BC0008958EE14A9B02C08150E1F74A9B82
:10513000FECF08955A9880E28A95F1F75A9A089519
:10514000FC013BE03A95F1F798E020E080E031E0A7
:1051500040E14A95F1F7880F4A9B02C081602327FE
:1051600042E04A95F1F7000040E14A95F1F791508D
:1051700079F790E19A95F1F799B132E03A95F1F724
:10518000000040E14A95F1F792FB992790F99227A8
:105190002081920F90830895EF92FF920F931F93B7
:1051A000CF93DF930F92CDB7DEB719828C017C01CC
:1051B000E60EF11C0E151F0561F481E09981911135
:1051C00080E00F90DF91CF911F910F91FF90EF90B2
:1051D00008950E949228CE0101960E94A028F8010D
:1051E00081938F01E7CF529A5A9A089552985A9A0A
:1051F000EA9AE9E6F0E080818F7C8083089561502F
:10520000770B91E001C0990F6A95EAF720E031E051
:10521000911108C0222391F05A9A80E28A95F1F701
:105220005A980895492F482339F05A9A232740E283
:105230004A95F1F79695ECCF5A98F9CF5A98EDCF59
:10524000FF920F931F93CF93DF93EC018C01060F16
:10525000111DC017D10731F4DF91CF911F910F912C
:10526000FF900895F9900E949A2868E08F2D0E947F
:10527000FF28EFCF1F920F920FB60F921124EF92DB
:10528000FF920F931F932F933F934F935F936F93CF
:105290007F938F939F93AF93BF93EF93FF93CF939E
:1052A000DF930F92CDB7DEB719820E949228CE010C
:1052B00001960E94A028A82FA695A695A695282F0E
:1052C000229525709A2F9570290F922F937026950D
:1052D0002695920F982797708981982B09F075C0B1
:1052E000A63008F072C080E18A95F1F75A9A529A76
:1052F000B2E0BA95F1F700C05A98EA2EF12CEAE034
:10530000AE9FD0011124A95FBE4F1896ED91FC917C
:1053100019973097B1F060917601709177011696E8
:105320002D913C911797260F371F13968D919C91C5
:105330001497680F791F15964C91159712968C91BA
:1053400009958AE08E9DF0018F9DF00D1124E95F93
:10535000FE4F6581662351F02091760130917701EF
:1053600086819781820F931F0E9420290E949A288C
:10537000F0E1FA95F1F75A9852985A9A80E18A9595
:10538000F1F78AE08E9D80018F9D100D1124095F39
:105390001E4FD80112966C911297662371F12091DD
:1053A00076013091770113968D919C91820F931F16
:1053B0000E94CC28D801ED91FC91882311F088E05F
:1053C00001C082E080830E9492280F90DF91CF91EC
:1053D000FF91EF91BF91AF919F918F917F916F91CD
:1053E0005F914F913F912F911F910F91FF90EF90FF
:1053F0000F900FBE0F901F901895ED91FC91DFCF8D
:105400000F931F93CF93DF93EC0106970CF0A9C085
:105410008AE08C9FF0018D9FF00D1124E95FFE4F13
:1054200080819181892B09F49CC0F894529A5A98F2
:1054300085E08A95F1F700008C2F869585709C2F6A
:105440009570890F982F937086958695890F8E0198
:1054500093E0000F111F9A95E1F7082B0E949A28FC
:1054600000C068E0802F0E94FF28A0E1AA95F1F714
:1054700052985A9A4A9B27C087E090E04A9925C0E3
:105480008AE08C9F80018D9F100D1124095F1E4FB3
:10549000F80165816623A1F12091760130917701B1
:1054A00086819781820F931F0E94CC28811128C08A
:1054B000529A5A9AD801ED91FC9182E080837894B7
:1054C00082E090E016C000C0D5CF0197B9F4529A9F
:1054D0005A9A8AE08C9FF0018D9FF00D1124E95FAC
:1054E000FE4F0190F081E02D81E08083789481E08F
:1054F00090E0DF91CF911F910F91089500C0BECF32
:105500000E949228B0E2BA95F1F75A98529AE0E1D7
:10551000EA95F1F78AE08C9FF0018D9FF00D112440
:10552000E95FFE4F6281662351F020917601309150
:10553000770183819481820F931F0E9420290E940A
:105540009A288AE08C9FF0018D9FF00D1124E95F6D
:10555000FE4F0190F081E02D1082789490E080E081
:10556000C8CF84E090E0C5CF9093A1018093A001C3
:1055700008959093FB028093FA0208950E942E19D9
:10558000811103C08091F5020895E091FA02F09133
:10559000FB02309721F00190F081E02D099480E02A
:1055A00008950E94BE2A0895E091FA02F091FB024C
:1055B000309721F00280F381E02D09940895E09165
:1055C000FA02F091FB02309739F022E0DC012C93D3
:1055D0000480F581E02D099408952091F80230911E
:1055E000F9022817390771F09093F9028093F802B5
:1055F000E091FA02F091FB02309721F00680F781EA
:10560000E02D099408952091F6023091F7022817B1
:10561000390771F09093F7028093F602E091FA0255
:10562000F091FB02309721F00084F185E02D099480
:1056300008959C012E5F3F4FAC01485F5F4F80E0B3
:105640002417350709F40895F90191919F019923D1
:10565000B9F38F5FF5CF662349F0FC0132960896C7
:105660002191261729F0E817F907D1F780E008956E
:1056700081E008959C01FC0132969FEF80E041910A
:10568000461751F09F3F19F4411101C0982F8F5FC9
:105690008630A9F79F3F09F40895290F311D97FD22
:1056A0003A95F90162830895FC013296089621919A
:1056B000261303C0DF0111971C92E817F907B9F709
:1056C00008950C943A2B0C94542B029626E0FC017E
:1056D00011922A95E9F7089508950C946C2B811185
:1056E00005C081E08093FC020C946D2B82E0FACF20
:1056F00083E08093FC020C946D2B0C946F2B81E063
:105700008093FC020C946D2B0C947F2B0895809158
:105710002705843031F10E94CB0A1092FD0288E106
:1057200090E020E40FB6F894A895809360000FBE37
:105730002093600083B7817F846083BF83B78160DB
:1057400083BF7894889583B78E7F83BF0FB6F89414
:10575000A89580916000886180936000109260003D
:105760000FBE089508950895CF930E94B22B0E9412
:105770002C070E94B32BC0E08C2F0E945906811188
:1057800005C0CF5FC431C1F7CF91089581E0FCCF50
:105790000E94EF0F0C943D0B1F921FB61F92112415
:1057A0008F939F93AF93BF938091FD02811113C09C
:1057B00080911F0590912005A0912105B0912205AF
:1057C0004196A11DB11D80931F0590932005A093C4
:1057D0002105B0932205BF91AF919F918F911F90AA
:1057E0001FBE1F90189582E084BD93E095BD9AEF8F
:1057F00097BD80936E0008952FB7F89480911F0590
:1058000090912005A0912105B09122052FBF089508
:105810002FB7F89460911F057091200580912105A4
:10582000909122052FBF08959C014FB7F894809165
:105830001F0590912005A0912105B09122054FBF31
:10584000821B930B0895CF92DF92EF92FF922FB7B6
:10585000F894C0901F05D0902005E0902105F090AD
:1058600022052FBFA7019601261B370B480B590BAA
:10587000CA01B901FF90EF90DF90CF90089578941E
:105880001F921FB61F9211248F939F93AF93BF93C4
:1058900080911F0590912005A0912105B0912205CE
:1058A0000196A11DB11D80931F0590932005A09323
:1058B0002105B0932205BF91AF919F918F911F90C9
:1058C0001FBE1F90189587E797E790930108809374
:1058D000000888E19AE00FB6F894A89580936000DC
:1058E0000FBE90936000FFCF809106030895089546
:1058F00008959C0184E08093E9009FEF8091E80087
:10590000915085FD06C085ED8A95F1F70000911153
:10591000F5CF8091E80085FF0CC050E040E066E0E4
:1059200070E0C9010E94D92E8091E8008E778093A3
:10593000E8000895CF93DF93EC0181E08093E900C4
:105940008FEF9091E800815095FD06C095ED9A95F6
:10595000F1F700008111F5CF8091E80085FF14C0B8
:1059600050E040E068E070E0CE010E94D92E8091C6
:10597000E8008E778093E80088E0FE01AEEFB2E0A9
:1059800001900D928A95E1F7DF91CF9108950895E6
:10599000CF93FC01603221F580912705843001F519
:1059A000C091E900CF702091EC00922F917020FD02
:1059B00090E8C92B82E08093E9008091E80080FFA5
:1059C0000CC050E040E060E270E0CF010E94D92EB0
:1059D0008091E8008E778093E800CF70C093E90053
:1059E000CF91089580912605811109C00E94B83099
:1059F0000E9415318091E20084608093E200089556
:105A00001092260508950C947F2B6091230581E068
:105A1000611101C080E00C94782B9091270581E002
:105A2000943009F080E0609123050C947D2B42E0D6
:105A300061EC81E00E94343042E261EC84E00E943B
:105A4000343042E261EC82E00E94343042E260ECA9
:105A500083E00E9434309091270581E0943009F072
:105A600080E0609123050C946F2B80912905833091
:105A700009F462C030F48130D9F1823009F49EC05B
:105A800008958A3009F48AC08B3009F470C08930D7
:105A900009F051C080912805813209F04CC08091F5
:105AA0002C0590912D05009719F0029709F043C03D
:105AB0008091E800877F8093E8008091E80082FF72
:105AC00036C09091F3008091F200029731F48091FA
:105AD000F100813011F0863021F48091F100809343
