:100000000C942A030C9471030C9471030C940F202C
:100010000C9471030C9471030C9471030C94710390
:100020000C9471030C9471030C94DA270C94AE2891
:100030000C9490220C9471030C9471030C94710332
:100040000C9471030C9471030C9471030C94710360
:100050000C9471030C9403230C9471030C9471039E
:100060000C9471030C9471030C9471030C94710340
:100070000C9471030C9471030C9471030C94710330
:100080000C9471030C9471030C9471030C94710320
:100090000C9471030C9471030C9471030C94710310
:1000A0000C9471030C9471030C9471031F002000D5
:1000B0002100220001001A000800150017000100AD
:1000C0001600070009000A0001001B0006001900C5
:1000D00005000100E2008B002C002C00115F1E00C7
:1000E000350000000000000014002B00000000009C
:1000F0000000040039000000000000001D00E100C5
:10010000000000000000E300E0000000000000002C
:1001100027002600250024002300130012000C00F5
:1001200018001C0033000F000E000D000B003800FB
:100130003700360010001100650088008A002C008E
:10014000105F2D002E008900000000002F003000FD
:100150002A000000000034003200280000000000E7
:1001600087005200E50000000000500051004F00E1
:1001700000000000010001000100010001001F005B
:100180002000210022000100010001000100010007
:100190000100010001000100010001000100010057
:1001A000010001000100010001000000000000004A
:1001B0001E0001000000000000000100010000001E
:1001C000000000000100010000000000000001002C
:1001D000010000000000000001000100010001001A
:1001E0000100270026002500240023000100010053
:1001F00001000100010001000100010001000100F7
:1002000001000100010001000100010001000100E6
:1002100000000000010001000100000000000100DA
:1002200001000100000000000100010001000000C9
:1002300000000100010001000000000001000100B9
:1002400001000100C25C0100010001000100C95C65
:100250000100010001000100C55C01000100010076
:100260000100C75C01000100010001000100010064
:10027000010000000000000001000100000000007B
:10028000000001000100000000000000010001006A
:10029000000000000000010001000000000000005C
:1002A0000100010001000100010001000100010046
:1002B0000100010001000100010001000100010036
:1002C0000100010001000100010001000100010026
:1002D0000100010001000100000000000100010018
:1002E000010000000000010001000100000000000A
:1002F00001000100010000000000010001000100F8
:1003000000000000010001000100010001000100E7
:1003100001000100010001000100010001000100D5
:1003200001000100010001000100010001000100C5
:1003300001000100010001000100000000000000B8
:1003400001000100000000000000010001000000A9
:10035000000000000100010000000000000001009A
:100360000100000000000000010001000100010088
:100370000100010001000100010001000100010075
:100380000100010001000100010001000100010065
:100390000100010001000100010001000100010055
:1003A0000000000001000100010000000000010049
:1003B0000100010000000000010001000100000038
:1003C000000001000100010000000000000000002A
:1003D000000000002A2B28000000000000000000A0
:1003E0000000000000000029000000002C1E342046
:1003F000212224342627252E362D3738271E1F206C
:100400002122232425263333362E37381F040506B0
:100410000708090A0B0C0D0E0F10111213141516F4
:100420001718191A1B1C1D2F3130232D35040506F2
:100430000708090A0B0C0D0E0F10111213141516D4
:100440001718191A1B1C1D2F3130354C00000000E5
:10045000000000000000000000000000000000009C
:10046000000000000000000000000000000000008C
:100470007E0F00D4FFFFFFC70000007800010101DC
:100480000101010101010202020202020202020351
:100490000303030303030304040404040404050521
:1004A00005050506060606060707070707080808E4
:1004B00008090909090A0A0A0B0B0B0C0C0C0D0D93
:1004C0000D0E0E0E0F0F0F1010111111121213132B
:1004D0001414151516161717181819191A1A1B1BA4
:1004E0001C1D1D1E1E1F2020212222232424252600
:1004F00026272829292A2B2C2D2D2E2F3031323238
:10050000333435363738393A3B3C3D3E3F40414243
:10051000434445464748494A4C4D4E4F5051535429
:10052000555658595A5B5D5E5F61626465666869DD
:100530006B6C6D6F7072737577787A7B7D7E80825D
:10054000838587888A8C8E8F91939596989A9C9EA6
:10055000A0A2A3A5A7A9ABADAFB1B3B5B7BABCBEB6
:10056000C0C2C4C6C9CBCDCFD1D4D6D8DBDDDFE283
:10057000E4E7E9EBEEF0F3F5F8FAFDFF14036800A9
:1005800061006C00660063006C0069006600660034
:10059000000006036E003200000004030904090293
:1005A0004200020100A0FA09040000010301010059
:1005B0000921110100012240000705810308000AFA
:1005C00009040100020300000009211101000122B9
:1005D0002200070582032000010705030320000114
:1005E0001201000200000008350321000100010291
:1005F00000010660FF0961A1010962150026FF00E4
:100600009520750881020963150026FF0095207565
:10061000089102C005010906A101050719E029E7B3
:100620001500250195087501810295017508810164
:100630000507190029FF150026FF0095067508819A
:1006400000050819012905950575019102950175A7
:10065000039101C011241FBECFEFDAE0DEBFCDBF92
:1006600004B603FE27C08091B8029091B902A09110
:10067000BA02B091BB028730904BA740B04BD1F487
:100680001092B8021092B9021092BA021092BB02F4
:1006900014BE84B7877F84BF0FB6F894A895809165
:1006A0006000886180936000109260000FBEE0E0FF
:1006B000F8E3099511E0A0E0B1E0EAE3F6E502C055
:1006C00005900D92AC35B107D9F722E0ACE5B1E069
:1006D00001C01D92A83BB207E1F70E940D160C94D1
:1006E000E42A0C940000F894E82FE295EF70F0E013
:1006F00031A1282F2F7081E090E001C0880F2A954A
:10070000EAF7382B31A392A18095892382A37894AC
:100710000895F894E82FE295EF70F0E031A1282FCA
:100720002F7081E090E001C0880F2A95EAF7982F9A
:100730009095932391A392A1892B82A378940895F5
:1007400008950C94A00308950C94A3030895E82F32
:10075000F0E0ED58FE4F8081089508950F931F93A8
:10076000CF93DF930E94BC13809104018091040118
:100770009AE0811190E090937C028AE0891B80933B
:100780007B02C4E4D1E08E01F80181918F010E94C7
:100790008903F1E00E341F07B9F784E30E9489034F
:1007A00086EC0E94890386E60E94890386E30E9404
:1007B000890382E30E94890384E30E94890386EC13
:1007C0000E94890386E60E94890386E30E948903CA
:1007D00082E30E94890389910E94890381E0CE34DB
:1007E000D807C9F7E7E8F1E0A3E7B1E011921D925D
:1007F00081E0EB39F807D1F78AE00E946B130E9481
:10080000D805DF91CF911F910F910C94D113FF92D6
:100810000F931F93CF93DF93CDB7DEB72A970FB611
:10082000F894DEBF0FBECDBF0E94A213F82E6091D8
:100830007C02882309F451C08E010F5F1F4F8AE0AC
:10084000F80111928A95E9F7862F90E0B8018D584A
:100850009E4F0E943414811123C0809172018F5FDA
:10086000809372018630B8F1E0917B02F0E0ED58A0
:10087000FE4FD801CE010B9611921D92A817B90711
:10088000D9F70E94DE058F2D2A960FB6F894DEBFA9
:100890000FBECDBFDF91CF911F910F91FF900895B3
:1008A00010927201A0917B02B0E0AD58BE4F9E0144
:1008B000255F3F4FF12C4D91F80191918F01491720
:1008C00031F0AD0141505109FA019083F82E021721
:1008D000130789F7D6CFF12CD4CF70E06D587E4F37
:1008E00080917B0290E08D589E4F0E9436140E94AA
:1008F000A603C9CF6F927F929F92AF92BF92CF9281
:10090000DF92EF92FF920F931F93CF93DF9307E84D
:1009100011E044E4C42E41E0D42EC0E0D1E0D60181
:10092000AD906D018A2D0E947303B0EABA95F1F77C
:100930003FE3E32E31E0F32EF70130E020E0B12C6D
:100940004191A42FA295AF70B0E090968C9190E069
:100950004F7002C0959587954A95E2F780FD94C047
:100960008D2F022E01C0880F0A94EAF7B82A2F5F54
:100970003F4F2530310521F78A2D0E948903E0EA97
:10098000EA95F1F7D8018C91B81609F47FC0BC92B2
:1009900081E0C82B0F5F1F4FB9E4CB16B1E0DB0637
:1009A00009F0BDCF10E000E0AA24A394B12C28E602
:1009B000C22E21E0D22EF70191907F01892D0E9455
:1009C0007303F0EAFA95F1F7C501002E01C0880F14
:1009D0000A94EAF7782F682F6095EEE5F1E084E459
:1009E000682E81E0782ED0E03191D3012D913D0128
:1009F000422F42954F7050E0DA0190968C9190E032
:100A00002F7002C0959587952A95E2F780FD40C02A
:100A1000872F832B381731F09F0121503109D901DD
:100A20008C93D1E0CE16DF06F9F6892D0E9489035A
:100A3000043019F0B0EABA95F1F7CD2B61F50F5FEC
:100A40001F4F0530110509F0B6CF60917C0270E0B0
:100A50006D587E4F2C2F4AE087E891E00E946C137E
:100A60000E940704C11101C0C82F8C2FDF91CF91C4
:100A70001F910F91FF90EF90DF90CF90BF90AF90BC
:100A80009F907F906F90089580E070CF80E081CF3D
:100A9000862F8323BFCF8091630180938C01809147
:100AA000640180938D018091650180938E01809116
:100AB000660180938F018091670180939001BFCF81
:100AC00081E0089581E008950C94620508950C94E6
:100AD00066051F93CF93DF9300D000D00F92CDB760
:100AE000DEB749835A836B8330919B0189819A8158
:100AF00031111DC06623B9F02223A9F00E94980B82
:100B0000182F682F89819A810E94410B69817A810F
:100B1000812F0F900F900F900F900F90DF91CF913A
:100B20001F910C94B61D0E946F0B182FEFCF0E94DF
:100B3000980B69817A81EDCFFC01262F408151818C
:100B40006281738184810C94690581E00895CF935B
:100B5000DF93EC0160E00E949C05BE01DF91CF9124
:100B60000C946705E1E0F0E0DF0102C0AA0FBB1FB3
:100B70006A95E2F7BD01DF0102C0AA0FBB1F4A95CB
:100B8000E2F76A2B01C0EE0F2A95EAF7962F982319
:100B9000961302C08E2B0895E0958E230895242F7E
:100BA000462F682F8091C3010E94B2050C94FE0A63
:100BB0000E9451130E9437070C94A1030C94A403C4
:100BC00080E00E9438070C94B617089508950E949B
:100BD000960A0E94E6052FEF84E39CE021508040B6
:100BE0009040E1F700C000000C9427230F931F935F
:100BF000CF93DF938C0161E00E949C05EC01B8016A
:100C00000E945B1A882309F441C0B801CE010E94FA
:100C100064058823D9F1B801CE010E94151F8823ED
:100C2000A9F1B801CE010E94C41B882379F1B80153
:100C3000CE010E947F1E882349F1B801CE010E9497
:100C40005F19882319F1F8018281882361F0CA3580
:100C5000FDE5DF0721F170F4C115ECE5DE07A1F039
:100C6000CE3DDC45C9F0C801DF91CF911F910F91B6
:100C70000C946005CB358DE5D807A1F0CC35DD456A
:100C800091F70E94AB0FEFCF0E94E70580E0DF9164
:100C9000CF911F910F9108950E946410F7CF0E9489
:100CA000B40FE1CF0E94B70FDECF0C94E5050E9490
:100CB00093210E9438070E9415190C945506DF9263
:100CC000EF92FF920F931F93CF93DF93E82FF0E003
:100CD000E453FC4FD490282F26952695269530E096
:100CE000F901E459FB4F0491877010E0082E02C00F
:100CF000159507950A94E2F701701127F901E45A56
:100D0000FB4FE490F12C082E02C0F594E7940A946E
:100D1000E2F791E0E922FF24F901E45BFB4FC49183
:100D2000D0E002C0D595C7958A95E2F7C170DD275E
:100D30000115110519F081EE0E948307E114F104F9
:100D400019F086EE0E9483078D2D0E945908EF2826
:100D500019F086EE0E94F307012B19F081EE0E9434
:100D6000F307CD2B51F08CE2DF91CF911F910F91C2
:100D7000FF90EF90DF900C945908DF91CF911F9175
:100D80000F91FF90EF90DF900895EF92FF920F93F5
:100D90001F93CF93DF93EC01162F0AE088818823FD
:100DA00009F454C0813009F04EC08981813099F432
:100DB0007E0122E0E20EF11C8A810E945908E701BF
:100DC0002196812F815050F3EFE9FFE03197F1F741
:100DD00000C00000F7CF823041F47E0182E0E80ECF
:100DE000F11C8A810E948307EACF833041F47E019F
:100DF000E2E0EE0EF11C8A810E94F307E0CF84301E
:100E000011F02196DDCF2A81229690E080E0AE019C
:100E10004F5F5F4F2053330B2A30310548F0019765
:100E200078F2EFE9FFE03197F1F700C00000F7CF6B
:100E3000089FB001099F700D1124C901860F971FEB
:100E40002981EA01E4CF0E945F06BACFDF91CF91FA
:100E50001F910F91FF90EF90089560E00C94C506EC
:100E600008950C94300781E008950C943307089599
:100E7000CF93C82F0E9431078C2FCF910C94350748
:100E8000CF93DF93CDB7DEB72B970FB6F894DEBFC5
:100E90000FBECDBF4F83588769877A878B876111D3
:100EA0000E94060F1E821D8285E0FE013796DE013C
:100EB000119601900D928A95E1F78C819D81892B85
:100EC00089F449815A816B817C818D819E810E9448
:100ED000270E2B960FB6F894DEBF0FBECDBFDF9165
:100EE000CF91089589819A8189238F3F51F3CE0153
:100EF00001960E94A5058111E4CFEBCFFC01808112
:100F000091810C94C50BCF93C82F882309F469C035
:100F10008238C1F40E94932181FD63C089E30E945D
:100F2000C10E0E94290F2FEF81EE94E021508040E6
:100F30009040E1F700C0000089E30E94C80ECF9105
:100F40000C94290F8338A1F40E94932180FD49C09D
:100F500083E50E94C10E0E94290F2FEF81EE94E0DD
:100F6000215080409040E1F700C0000083E5E5CFCC
:100F70008438A1F40E94932182FD33C087E40E944B
:100F8000C10E0E94290F2FEF81EE94E02150804086
:100F90009040E1F700C0000087E4CFCF8CEF8C0FCA
:100FA000813A90F46C2F80910201909103010E948C
:100FB000EF21882329F08C2F0E94C80E0E94290F50
:100FC0008C2F0E94C10EBBCF80E28C0F883048F47A
:100FD000C77081E001C0880FCA95EAF70E94E90E48
:100FE000AECFCF910895882309F44BC0823871F4B5
:100FF0000E94932181FF45C089E30E94C10E0E9497
:10100000290F89E30E94C80E0C94290F833859F4E4
:101010000E94932180FF35C083E50E94C10E0E948B
:10102000290F83E5EFCF843859F40E94932182FF82
:1010300028C087E40E94C10E0E94290F87E4E2CFF6
:101040009CEF980F913AF0F290E2980F983050F49C
:10105000877091E001C0990F8A95EAF7892F0E9465
:10106000EF0ED2CF9BE5980F933020F490E080E014
:101070000C94B121885A873120F490E080E00C94E0
:10108000C72108951F93CF93DF93182FEB010E9480
:101090008307209731F4812FDF91CF911F910C941A
:1010A000F3078FE99FE00197F1F700C00000219757
:1010B000F0CF70E060E0893311F460E570E00C94EB
:1010C0004208882321F00E94E90E0C94290F08950C
:1010D000882321F00E94EF0E0C94290F0895BF92EF
:1010E000CF92DF92EF92FF920F931F93CF93DF93F4
:1010F0006C01D62FC72FFC011281F580F2949FE07E
:10110000F9220E94DF0EE82E8823B9F0E12E112388
:10111000A1F08C2F807F803421F080E28D0F883009
:10112000D0F08091820282FD16C082E00E947A0F88
:101130000E94DF0E91E0E82EE926BC2EB2948FE0EB
:10114000B822FBE0FB1508F468C0EB2DF0E0EA5193
:10115000F54D0C94862AE12CF0CF0C2F0F70C07F38
:1011600011F00295007F112399F0002359F080E2DD
:101170008D0F883010F0D11107C0802F0E94E90E2A
:101180000E94290F8D2F41C0802F0E94F90EF8CFA9
:101190008D2F0E94F307002309F43FC080E28D0FDA
:1011A000883010F0D11104C0802F0E94EF0E03C0D0
:1011B000802F0E94FF0E0E94290F2FC00C2F0F704E
:1011C000C07FC03211F00295007FDD2381F0D13065
:1011D00009F469C0112309F473C0FF2009F469C040
:1011E000F601858180FFCECF8F70858362C08091AC
:1011F000820282FF38C0112359F0002329F0802F8A
:101200000E94E90E0E94290F80E00E94830705C01A
:1012100080E00E94F3070111C7CFEB2DE850FF0BD0
:10122000349720F40E9493210E943807EE2009F49D
:1012300026C10E94DB0E80FD22C1F60112820E94AF
:10124000D50E0E940F0BC6010E94600A0E94D50EA7
:10125000DF91CF911F910F91FF90EF90DF90CF9092
:10126000BF900C941A0B112389F0F11006C00E9454
:101270000C0F802B0E946108D0CF21E0F212F7CF33
:101280000E940C0F802B0E94120FC7CFF11006C0D6
:101290000E941F0F802F0E946808BFCF31E0F31615
:1012A00009F4BBCFF5CF112331F085E08F1508F499
:1012B000B4CF802FDFCF94E09F1508F4AECFEACFF4
:1012C000FF2041F3D93349F4FFEF27EE33E0F1502B
:1012D00020403040E1F700C000008D2F0E94F3074E
:1012E0009CCF8C2F837079F5111197CF4D2F42959C
:1012F00046954770440F440F8D2F8F70042E01C008
:10130000880F0A94EAF72D2F2071D4FF07C02FE031
:1013100030E001C0220F4A95EAF72095C695C695A0
:10132000C370822BC23049F058F4C13019F00E94CA
:10133000F00A73CF0E94EB0A70CF0E94F50A6DCFBE
:101340000E94E90A6ACF8695112311F08C2F8170D3
:10135000882309F462CF4D2F429546954770440F7C
:10136000440F8D2F8F70042E01C0880F0A94EAF766
:101370002D2F2071D4FF07C02FE030E001C0220FD5
:101380004A95EAF72095C695C695C370822BC23060
:1013900049F058F4C13019F00E94360B3ECF0E943C
:1013A000310B3BCF0E943B0B38CF0E94FE0A35CF5A
:1013B000CF70112329F08C2F0E940F0B8D2F5ACF45
:1013C0008D2F0E9468088C2F0E941A0B26CFD23FC7
:1013D00051F160F4D03FB9F0D13F81F0112309F40D
:1013E00049C0F110CFCE8C2F8F7121C0D33F11F1A6
:1013F000D43FA1F78091820282FF26C08C2F8F718B
:10140000112311F314C0112349F084E08F1508F45F
:1014100004CF8C2F8F710E94260BFFCE95E09F1575
:1014200008F4FBCEF6CF8C2F8F711111CDCF0E9417
:101430000F0BF3CE112329F08C2F8F710E94070B15
:10144000ECCE0E94040BE9CE112349F0CF718C2F12
:101450000E940F0B63E08C2F0E945F0FDECE81E0B5
:101460000E947A0FE1E0EF1508F0D7CE82E00E94EB
:101470007A0FD3CEF11026CF8C2F8F71A5CFDF91AD
:10148000CF911F910F91FF90EF90DF90CF90BF9081
:1014900008950F931F93CF93DF93EC0168817981B7
:1014A0008A810E94CF0B8C010E94400B0E94E80AA7
:1014B000B801CE01DF91CF911F910F910C946F086D
:1014C000CF93DF93EC018B819C81892B29F088815C
:1014D000998189238F3F59F4DF91CF910895CE01EF
:1014E0000E94490ACE01DF91CF910C94A705CE014D
:1014F0000E94F6058111F3CF0E94DF0E882361F36D
:101500008A81882349F38091820282FDE5CF82E0BF
:10151000DF91CF910C947A0F0E94060F0E94090F61
:101520000C94290F0E94CF0E0C948C0A0E94F60E88
:101530000C94920AE92FE295EF70E250EE3070F4CD
:10154000F0E0EE50F54D0C94862A803F19F020F41F
:10155000883E20F481E00895843FE1F380E008951F
:10156000883EC0F3813FD1F7F5CF93FB882780F900
:101570000895FC01808191810E94C50B0C949A0A08
:10158000CF93DF9300D000D00F92CDB7DEB70F908E
:101590000F900F900F900F90DF91CF910895CF9300
:1015A000DF9300D000D000D0CDB7DEB726960FB6BF
:1015B000F894DEBF0FBECDBFDF91CF91089508959F
:1015C0000C94DF0A0E94E00A8093C4010C948C0AF8
:1015D00008950C94E20A9091C401892B0C94E20ABC
:1015E0009091C40189230C94E20A9091C401892747
:1015F0000C94E20A0C94DF0A0C94FA0A0E94FC0A8A
:101600008093C3010C948C0A80E00C94FE0A91E054
:1016100001C0990F8A95EAF7892F0C94FE0A21E000
:1016200030E001C0220F8A95EAF78091C301822B36
:101630000C94FE0A21E030E001C0220F8A95EAF7FF
:1016400020958091C30182230C94FE0A21E030E0B2
:1016500001C0220F8A95EAF78091C30182270C947A
:10166000FE0A9091C301892B0C94FE0A9091C3014C
:1016700089230C94FE0A9091C30189270C94FE0AD9
:101680000895E92FEE0FEE0F9E0F890F982F977098
:1016900041E001C0440F9A95EAF7869586958695B4
:1016A00093E0899FF0011124E456FE4F30E020E0E2
:1016B00070E05191DF011197CB01022E02C0969587
:1016C00087950A94E2F78170819585278423852781
:1016D0008C932F5F3F4F2330310559F70895E92F41
:1016E000EE0FEE0F9E0F890F982F977086958695B7
:1016F000869523E0829FF0011124E456FE4F50E0CE
:1017000040E080E0219130E0092E02C03695279517
:101710000A94E2F721703327042E01C0220F0A94A5
:10172000EAF7822B4F5F5F4F4330510559F7089519
:10173000CF92DF92FF920F931F93CF93DF936C01B1
:101740000091C3018091C401082BC7E0D0E010E0F4
:10175000FC2EC8010C2E02C0959587950A94E2F7DD
:1017600080FD0CC02197A0F7F12C8F2DDF91CF9138
:101770001F910F91FF90DF90CF900895B6018C2FAD
:101780000E941812019771F3F0CFCF93DF93EC0111
:101790000E94980BBE01DF91CF910C9418121F93F9
:1017A000CF93DF93EB0190919B01992331F0CB0113
:1017B000DF91CF911F910C94C50B882379F0CB0159
:1017C0000E94980B182F682FCE010E94410BBE017A
:1017D000812FDF91CF911F910C941812CB010E94A1
:1017E0006F0B182FF4CF1F93CF93DF93C091C501D8
:1017F00016E08091C6018C1304C0DF91CF911F9138
:101800000895D0E01C9FF0011D9FF00D1124E953B5
:10181000FE4F4081518162817381848195810E9454
:10182000CF0A2196C770E5CF4091F7015091F8019A
:101830006091F9017091FA018091FB019091FC0196
:101840000C94CF0AFF920F931F93CF93DF93809155
:10185000FC01807FD1F48091F9018823B1F080915F
:10186000C5011091C6016091F7017091F801A09136
:10187000FA01B091FB01062F0723C0910001D0911E
:10188000010196E0F92E181306C0DF91CF911F9148
:101890000F91FF90089590E0109711F00F3F19F409
:1018A00001968770F0CFF89E9001F99E300D1124BB
:1018B000F901E953FE4F41814713F2CF40814613AE
:1018C000EFCF42814111ECCF438154814A1B5B0B26
:1018D0004C175D0728F78091FC018F708061809321
:1018E000FC01F901E453FE4F80818F708061808399
:1018F00087EF91E00E94600ADF91CF911F910F91D5
:10190000FF900C94F30BAF92BF92CF92DF92EF92C5
:10191000FF920F931F93CF93DF93CDB7DEB76197FD
:101920000FB6F894DEBF0FBECDBF8C0185E0F80185
:10193000DE011D9601900D928A95E1F7F801E28093
:1019400087EFC82E81E0D82E6091FA017091FB01DB
:101950006115710509F45FC19091F7012091F801BB
:10196000892F82238F3F09F456C140815181A38082
:10197000B480F090F901F501E61BF70BBF01E0918F
:101980000001F0910101FF2009F4F6C08091FC01F3
:10199000382F307F6E177F0708F0AFC0311179C044
:1019A000FE2C251323C0941321C0E1101FC08F709B
:1019B00080618093FC010E94140CC6010E94600AA1
:1019C0008091FC01F80185838F2D61960FB6F89404
:1019D000DEBF0FBECDBFDF91CF911F910F91FF9062
:1019E000EF90DF90CF90BF90AF900895AB2829F093
:1019F000842F85238F3F09F027C180E0F82FF170F5
:101A0000DF2E80FF3CC08091C5012091C60136E0E9
:101A1000821315C04D875E878D859E850E94C50BFC
:101A2000292F22952F702230F0F0243018F59F7066
:101A3000F1F0F8019581907FD1F4D12C1EC090E097
:101A4000389FF001399FF00D1124E953FE4F618159
:101A5000651306C06081641303C062816E110FC0FC
:101A600001968770D5CF9F7011F0882331F3805E87
:101A7000883018F3C8010E94600AFD2CA5CFEE2023
:101A800009F4A2CF8091FC0181608093FC01F12CCC
:101A90009BCF251306C0941304C0F801EE2009F46F
:101AA00087C0C8010E94B90A882319F1EE2009F104
:101AB0008091FC01803270F02091F7013091F801A3
:101AC00038872F831986BB86AA868C87CE01079616
:101AD0000E94600A86E0F801A7EFB1E001900D9244
:101AE0008A95E1F70E94220C0E94140CFF24F394C3
:101AF0006BCFC8010E94600AF9CF311113C07A2D53
:101B0000B98AA88A6E2D89890E94C00A87EF91E060
:101B10000E94600A86E0F60111928A95E9F70E9418
:101B2000140CB5CF25130FC094130DC0E1100BC0DA
:101B3000F8018583C8010E94600A86E0F6011192CF
:101B40008A95E9F741CFC8010E94B90A882389F232
:101B5000EE2079F28091FC01803208F4BBCF209115
:101B6000F7013091F8013A8329831B82BD82AC8250
:101B70008E83CE010196ACCF6E177F0708F03EC072
:101B8000FE2CEE2009F4B5CF25132AC0941328C0EB
:101B90008091FC0180FD1BC0982F907FC1F0F8015F
:101BA0008583903F31F0982F907F905F8F70892BC5
:101BB0008583C8010E94600A86E0F801A7EFB1E0C2
:101BC00001900D928A95E1F70E94140CFDCE86E0FB
:101BD000F801A7EFB1E001900D928A95E1F7F4CEFC
:101BE000C8010E94B90A811175CF8091FC01816002
:101BF0008093FC01C8010E94600AE6CE7A2DB98A62
:101C0000A88A6E2D89890E94C00A86E0F601119289
:101C10008A95E9F7D9CFEE2009F46BCFC8010E946D
:101C2000B90AF82E882309F464CF86E0F801A7EFFB
:101C3000B1E001900D928A95E1F787EF91E00E9463
:101C40007E070E94220CC0CF81E08E25D7CE1F9345
:101C5000CF93DF93CDB7DEB72C970FB6F894DEBFE6
:101C60000FBECDBF4F83588769877A878B879C8744
:101C7000CE0107960E94830C882369F08A859B8594
:101C8000892B39F04F815885842F85238F3F09F0A8
:101C900071C016E05FC086E0FE013796DE01119646
:101CA00001900D928A95E1F78A859B85892B89F3AE
:101CB0008F81988589238F3F61F32091C60130E0A1
:101CC000C9010196877099274091C50148171906E7
:101CD00071F40E94960A1092C6011092C50186E026
:101CE000E7EFF1E0DF011D928A95E9F7D2CF96E0A8
:101CF000929FD001939FB00D1124A953BE4FFE01B6
:101D0000319601900D929A95E1F78093C6010E9459
:101D1000F30BBFCF819FC001112489539E4F0E94B6
:101D2000830C8823E9F0E091C5011E9FF001112486
:101D3000E953FE4F40815181628173818481958195
:101D40000E94CF0A8091C50190E001968770992783
:101D50008093C5018091C5019091C6018913DACFA6
:101D60002C960FB6F894DEBF0FBECDBFDF91CF919A
:101D70001F91089569857A858B859C850E94CF0A7D
:101D800088CF682F80910201909103010C94252245
:101D9000682F80910201909103010C942722809179
:101DA0000201909103010C9429228091FD018595F7
:101DB0008595859508958091FD018770089590918E
:101DC000FD01977081E009F480E008958091090297
:101DD000089590910902892B8093090208958095B6
:101DE0009091090298239093090208951092090294
:101DF000089590910802892B809308020895809598
:101E00009091080298239093080208951092080276
:101E100008951092070208958091FE010895089593
:101E20000C940F0F9091820292FD08C09091FE01D8
:101E3000981721F08093FE010C94100F0895809163
:101E4000FE01882329F01092FE0180E00C94100F0F
:101E50000895E0910201F0910301809109028083CD
:101E6000E0910201F0910301808190910802892B99
:101E70008083E0910201F09103018081909107023B
:101E8000892B80839091FE01992381F0E0910201DA
:101E9000F09103018081892B8083809102019091D0
:101EA00003010E94DD2181110E941F0F8091020118
:101EB000909103010C94A62108950C945C0F9091CD
:101EC000820292FD10C098E0899F90011124622B3C
:101ED0006093FD010E940F0B8091FD018595859512
:101EE00085950C945D0F0C940F0B1092FD0180E012
:101EF0000C945D0F9091FD01809589238093FD01E5
:101F0000282F277091F4282F082E000C330B9217DE
:101F1000130659F09091820292FD07C08595859530
:101F200085950E941A0B0C94750F0895909182026A
:101F300092FB222720F9281769F080FB92F99093F1
:101F4000820280918102909182020E94E10F82E0E0
:101F50000C947A0F08958091820282FB882780F981
:101F600091E089270C94960F81E00C94960F80E005
:101F70000C94960F6FEF7FEF90E080E00C94CE2AE8
:101F800090E080E00E94AA2A893E9E4F11F40C94B2
:101F9000041A80E0089582E090E00C949C2A83E08B
:101FA00090E00C949C2ACF9384E090E00E949C2ABD
:101FB000C82F82E290E00E949C2A982F8C2FCF910C
:101FC0000895CF93C92F682F84E090E00E94B02A33
:101FD0006C2F82E290E0CF910C94B02AAB01BC014F
:101FE0008FE090E00C94C22AAB01BC0183E190E049
:101FF0000C94C22A60E070E0CB010C94F40F60E016
:1020000070E0CB010E94EE0F0C94FA0F69EE7EEFA8
:1020100090E080E00E94CE2A60E082E090E00E94A2
:10202000B02A60E083E090E00E94B02A1092C401E0
:1020300060E084E090E00E94B02A60E082E290E0FC
:102040000E94B02A60E085E090E00E94B02A60E043
:1020500086E090E00E94B02A6FEF87E090E00E9457
:10206000B02A40E050E0BA0188E090E00E94C22A25
:1020700060E08DE090E00E94B02A40E050E0BA01BC
:1020800088E190E00E94C22A60E087E190E00E942F
:10209000B02A40E050E0BA018CE190E00E94C22AF0
:1020A00070E060E080E290E00E94CE2A40E050E0E4
:1020B000BA0188E190E00E94C22A80E00E941D1AC5
:1020C0000E94431A0C94FF0F0C940610682F8EE0A8
:1020D00090E00C94B02A0E94CC226093230270936B
:1020E0002402809325029093260260931F0270932E
:1020F00020028093210290932202089585B7806880
:1021000085BF85B7806885BF0895089508950C94AC
:10211000851008950C9489100E947E1087E393E146
:102120000E9489210E9486100C9487100C94A2139F
:10213000089508950E9498100C9499100E94B72257
:102140000E94F6120E94521A0E94AE030E94AC1B1B
:102150000E94D7180C948A10AF92BF92CF92DF9250
:10216000EF92FF920F931F93CF93DF93CDB7DEB71C
:102170002A970FB6F894DEBF0FBECDBF0E947A0437
:1021800081110E946B108BE0A82E82E0B82E10E027
:1021900000E0C02E802F0E94A703E82EF501F190E9
:1021A0005F01F81609F44BC08091270281FD0E945F
:1021B000AD038F2D8E25D12CFF24F394982F9F21D2
:1021C000C9F10E949610882399F0DE82CF82EF2019
:1021D00081E009F480E088870E94C0228160782F26
:1021E0009A8789874E815F8168858A850E9440072A
:1021F000F801E55FFD4F8081F826F0820E9493216F
:1022000090910A02891791F10E94932180930A020A
:102210002A960FB6F894DEBF0FBECDBFDF91CF91E7
:102220001F910F91FF90EF90DF90CF90BF90AF90F4
:102230000C943807D394FF0CF5E0DF12BFCF0F5F8B
:102240001F4F0431110509F0A4CF8FEF89838A83D2
:102250001B820E94C0228160782F9D838C834981DC
:102260005A816B818D810E944007C8CF2A960FB694
:10227000F894DEBF0FBECDBFDF91CF911F910F91BC
:10228000FF90EF90DF90CF90BF90AF900895CF93E5
:10229000DF930E941C12EC01811523E5920790F553
:1022A000811532E5930708F096C081159042C8F475
:1022B000C11581E0D80788F4C53AD10548F4C43087
:1022C000D10558F4C130D10541F0D0E0C0E005C0DF
:1022D000CE01805E91090897C0F7CE01DF91CF91C2
:1022E0000895C11591E5D90708F070C0C11520E522
:1022F000D20708F04EC0C11530E4D30730F3DF70C9
:10230000D06AEBCF811546E59407F0F4C11585E559
:10231000D80708F075C0C11594E5D90708F06BC05F
:10232000CE018370992721E030E002C0220F331FD5
:102330008A95E2F7C695C69590E2C99FE0011124FF
:10234000C22BD32BDA68C9CF81152AE5920778F41E
:10235000811539E5930708F05EC0811548E59407BB
:1023600008F4B3CFD82FCC27C06FD06AB6CF905621
:102370008115904208F0A9CF8D2F8F710E94B31262
:1023800090E0982F882788279F719C012C2BE901CA
:1023900040C0CE01E4E096958795EA95E1F7837019
:1023A0002C2F26952695237040E2249F900111241E
:1023B000382B8C2F8370C1E0D0E002C0CC0FDD1F22
:1023C0008A95E2F7C22BD32BDC6887CFDC2FCC2792
:1023D000C16FD06A82CF8370992721E030E002C0BC
:1023E000220F331F8A95E2F7C695C69580E2C89FF3
:1023F000E0011124E7CFDC2FCC27C46FD06A6DCF6A
:102400008C2F0E94B312C82FD0E0DC2FCC27CC2712
:10241000DF71D06262CF8F700E94B31234E0D69524
:10242000C7953A95E1F7CF709C2FEC01D06955CF55
:102430000E94B61D0C94471182389105B1F1B0F499
:102440008133910509F475C048F48932910509F486
:1024500069C08A32910509F473C0089585339105E6
:1024600009F459C08933910501F10895833E91051E
:10247000A9F138F4803E9105F9F0823E910549F1C9
:102480000895863E9105A9F1873E9105C9F1843EE4
:10249000910519F52091820221FF1FC080918102D0
:1024A00084FD14C087EE90E008952091810223708E
:1024B000A1F080EE90E008952091810220FD47C0B8
:1024C0003091820230FF09C024FF44C090E080E0D8
:1024D00004C02091810222FDF7CF0895209181024E
:1024E00022FD3BC03091820230FDE3CF24FFF5CFC7
:1024F000EDCF2091810223FFF0CF24FDE7CFD2CF93
:102500002091810223FD2CC03091820231FFEECF59
:1025100084EE90E008952091810225FFDECF89E2CC
:1025200090E008952091810225FFD7CF85E390E0C8
:1025300008952091810226FFD0CF8AE290E008958D
:102540002091810226FFC9CF81E390E0089589E3BD
:1025500090E0089583EE90E0089582EE90E0089573
:1025600086EE90E008959091810292FF06C0282F98
:1025700028712830F9F4877F846093FF06C0282FE4
:1025800028712831F1F4877E84612091820220FF36
:1025900006C0382F38713830D9F4877F816021FF29
:1025A00006C0282F28712831D1F4877E816194FDDF
:1025B000877E0895282F24712430F9F68B7F886058
:1025C000DCCF282F2471243101F78B7E8861DDCF89
:1025D000382F3171313019F78E7F8860E0CF282F86
:1025E0002171213121F78E7E8861E1CF10927D0229
:1025F00010927E0210927F02109280020895CF9274
:10260000DF92EF92FF926B017C010E94A213811175
:102610000EC00E94CC22C61AD70AE80AF90AC09254
:102620007D02D0927E02E0927F02F0928002FF90C3
:10263000EF90DF90CF9008950F931F930E94A21305
:10264000882321F01F910F910C94CC220E94CC2260
:1026500000917D0210917E0220917F0230918002D4
:10266000600F711F821F931F1F910F91089580E0CB
:1026700008950C94BA0F0E947A048FE39CE90197A5
:10268000F1F700C000000E947A0480E00E94A703D6
:1026900080FF04C00E9439130C94272308950C94E2
:1026A0003B130E94C00F811102C00E9464100E945F
:1026B000CB0F809327020E94D30F909382028093C6
:1026C00081020E944F130E94CF0F0E94E90A80915D
:1026D000C3010C94FC0A0895FF920F931F93CF93AC
:1026E000DF93F82E092F162FD72FC42F222349F05E
:1026F00081E080932A020E94C02290932902809355
:10270000280280912A028823A1F0809128029091CA
:1027100029020E94D822059760F0EF2DF02FA12FFB
:10272000BD2FCE0FDF2FD11DEC17FD0741F4109206
:102730002A02DF91CF911F910F91FF90089581910F
:102740008D93F2CF80912B02811107C00E94652AE0
:10275000882351F081E080932B0281E090912B023D
:10276000913009F080E0089582E080932B020E946E
:10277000602AF3CF0C94A2130E94BA138093040131
:102780008091040165E0882349F080E00E94B21640
:102790000E94A213882321F00C94DF1385E0F6CF6A
:1027A00008950E94A213811102C00C94E1130895B0
:1027B00081E090912C029A3008F080E008950C940A
:1027C000C81F0C94CB1FEF92FF920F931F93CF93D0
:1027D000DF937901C82F880FDD0B41155105A9F052
:1027E0008AE08C9FF0018D9FF00D1124EB5FFE4F6E
:1027F00083819481835D9D4F228130E0421753078E
:1028000008F49A01A9010E94932ACE010E94D520C2
:10281000892B11F501151105E9F08AE08C9FF00173
:102820008D9FF00D1124EB5FFE4F458150E00417A2
:10283000150708F4A8018AE08C9FF0018D9FF00D28
:102840001124EB5FFE4F66817781635D7D4FC70189
:102850000E94932A81E001C080E0DF91CF911F9117
:102860000F91FF90EF9008950C9498150C94BC155F
:102870000F931F93CF93DF9300D000D0CDB7DEB777
:1028800060915602709157028091580290915902BE
:102890000E94E72211E0643671058105910518F167
:1028A0000E941C136E5F7F4F8F4F9F4F69837A8307
:1028B0008B839C8310E000E030E020E044E050E0B7
:1028C000BE016F5F7F4F82E00E94E313182F8823C1
:1028D00051F00E94CC22609356027093570280936D
:1028E000580290935902812F0F900F900F900F90E4
:1028F000DF91CF911F910F9108950F931F93CF9365
:10290000DF93CDB7DEB728970FB6F894DEBF0FBEC2
:10291000CDBFCE0101960E942019188560915A0200
:1029200070915B0280915C0290915D020E94E722AF
:10293000643671058105910510F41123C1F010E092
:1029400000E030E020E048E050E0BE016F5F7F4FE4
:1029500083E00E94E313882369F00E94CC226093F5
:102960005A0270935B0280935C0290935D020E9416
:102970001D1981E028960FB6F894DEBF0FBECDBFBB
:10298000DF91CF911F910F910895AF92BF92CF9297
:10299000DF92EF92FF920F931F93CF93DF93CDB708
:1029A000DEB72B970FB6F894DEBF0FBECDBF7B010D
:1029B000C0905801D090590101E010E09E01255FC0
:1029C0003F4F50E040E070E060E080E00E94E313A1
:1029D000182F882309F448C056018FEFA81AB80AA7
:1029E000609152027091530280915402909155026D
:1029F0000E94E722643671058105910568F10AE0BD
:102A000010E09E012F5F3F4F50E040E070E060E03B
:102A100081E00E94E313D82E6AE070E0C5010E94B5
:102A2000AD1B11E09B85981310E01D2141F10E9420
:102A3000CC2260935202709353028093540290937D
:102A400055028AE0FE013196A8E4B2E001900D92B1
:102A50008A95E1F711E013C06AE070E0C5010E94B9
:102A6000AD1B9B858913CBCF8AE0F6013196DE0141
:102A7000119601900D928A95E1F71111E2CF8AE04B
:102A8000E8E4F2E0D70101900D928A95E1F7812FF9
:102A90002B960FB6F894DEBF0FBECDBFDF91CF915E
:102AA0001F910F91FF90EF90DF90CF90BF90AF906C
:102AB0000895AF92BF92CF92DF92EF92FF920F9361
:102AC0001F93CF93DF937C015B016A010E94D813AF
:102AD00001E010E0882311F00AE010E0C1E0D0E04E
:102AE000F894B501C701F60109957894811104C0E5
:102AF00021960C171D075CF4DF91CF911F910F9168
:102B0000FF90EF90DF90CF90BF90AF900895CC9F53
:102B10009001CD9F300D300D112490E080E045E311
:102B20004A95F1F70000019682179307C1F7D8CFB5
:102B30000F931F93CF93DF93EC018B0145EC54E18E
:102B40000E945915882391F048E354E1B801CE0161
:102B50000E945915882351F04DE754E1B801CE0188
:102B6000DF91CF911F910F910C94591580E0DF9167
:102B7000CF911F910F9108950F931F93CF93DF93E0
:102B8000F894C0915801D0915901CE0101962AE0E4
:102B9000FB01DC0101900D922A95E1F76AE070E0FB
:102BA0000E94AD1B88837894F8946B857C858D8515
:102BB0009E85009144021091450220914602309179
:102BC0004702601771078207930751F06093440230
:102BD0007093450280934602909347020E94FF1231
:102BE0007894F8948E89882331F060E0CE010F96B6
:102BF0000E9433191E8A7894DF91CF911F910F9113
:102C000008950E94A5240E949E100C94B1240E9455
:102C1000B5240E94AC100C94CF240E944A220E943A
:102C20008C240E948C100E9401160E9407160E949C
:102C30009A10FBCFEF92FF920F931F93CF93DF93E6
:102C4000EB01E82FD11110C0442321F0F0E0E4584B
:102C5000FB4FE4916E2F7E2F8E2FDF91CF911F912E
:102C60000F91FF90EF9008950D2F10E0282F30E086
:102C7000442329F024583B4FF901249130E0F6E039
:102C8000CF9FC0011124EFEFF0E0BF010E94722A34
:102C9000AB018C2F90E0880F991FA5E5A49FB00190
:102CA000A59F700D1124861B970B982F990F980FD5
:102CB000BF01601B710B629FD001639FB00D729FBB
:102CC000B00D11248B2F9D9FB0011124672F772702
:102CD000EF01C61BD70BBE01629FE001639FD00DC1
:102CE000729FD00D11247F01E91AF108E09EB00116
:102CF000E19E700DF09E700D1124672F7727E61B63
:102D0000F70BE29F8001E39F100DF29F100D11243D
:102D1000E12F722F4230510599F048F441155105C9
:102D200069F04130510581F0EB2F8D2F07C0443001
:102D3000510569F080F046305105B1F76E2F8DCF07
:102D4000E22F7B2F812FFACFE22F7D2FF7CFEB2FB2
:102D5000822F712FF3CF7B2F822FED2FEFCF41E00A
:102D60000C941A16EDE2F1E08083618308950C94CF
:102D7000AF16CF93DF93762FE901682F842F0E943F
:102D8000B716798368838A83DF91CF910895809104
:102D90008402982F9E7F39F4809184028170826032
:102DA0008093840208958430B8F7089588E090E015
:102DB0000C94A42ACF92DF92EF92FF926B017C01D8
:102DC0000E94C716B701A60188E090E0FF90EF903F
:102DD000DF90CF900C94C22A60918402709185029A
:102DE00080918602909187020C94DA16E4E8F2E072
:102DF00083E0808311828FEF828383831482A1E634
:102E0000B2E012968C911297836012968C93608137
:102E10007181828193810C94DA168091840280FF03
:102E200002C08695089580E00895909188029330BD
:102E300018F49F5F90938802882351F06091840278
:102E40007091850280918602909187020C94DA1627
:102E5000089581E00C94151790918802992319F038
:102E6000915090938802882351F060918402709170
:102E7000850280918602909187020C94DA1608955B
:102E800081E00C942C178091880208958093880229
:102E9000662351F0609184027091850280918602D0
:102EA000909187020C94DA16089560E00C9446170E
:102EB000809185020895809186020895809187020D
:102EC000089570E00C94D81960912E0180918402CD
:102ED00080FF0AC080912D0123E0829FC001112450
:102EE00087579D4F0C94611780912F01909130016D
:102EF00023E0829FF0011124E757FD4F891750F717
:102F00001182108212828F5F3396F8CFE4E8F2E0EC
:102F100080818E7F808360817181828193810E9414
:102F2000DA16E1E6F2E08281816082832FEF80E7AA
:102F300092E0215080409040E1F700C000000C94E6
:102F40006417E4E8F2E080818E7F8083E1E6F2E0BE
:102F50008281816082832FEF80E792E02150804060
:102F60009040E1F700C000000C94641780915F026C
:102F700081110AC081E080935F0280918402817098
:102F800080935E020C94A11708959091840290FFA3
:102F900014C090912F012091300133E0939FF001F4
:102FA0001124E757FD4F921710F00C94641781839A
:102FB000608342839F5F3396F6CF0895EF92FF922E
:102FC0000F931F93CF93DF9300D00F92CDB7DEB74F
:102FD000F82E062F142FE22E8091840280FF39C034
:102FE000E82FE695F0E0E65AFE4F9081909361025B
:102FF0008E7F823059F49E012F5F3F4F8F2D0E94AC
:10300000B9164B8169818A810E94C517809185021A
:103010008F1108C080918602801304C080918702BE
:10302000811729F080916302826080936302F0929D
:1030300085020093860210938702EE2051F0609182
:1030400084027091850280918602909187020E948D
:10305000DA160F900F900F90DF91CF911F910F9183
:10306000FF90EF900895E4E8F2E09181282F4381EA
:10307000628188E0890F0C94DE1781E00C9433188C
:10308000E4E8F2E09181282F4381628188EF890F83
:103090000C94DE1781E00C944018E4E8F2E06281C1
:1030A00028E0620F08F46FEF282F438181810C9490
:1030B000DE1781E00C944D18E4E8F2E0628128E02C
:1030C000621B08F460E0282F438181810C94DE1795
:1030D00081E00C945C18E4E8F2E0438128E0420FC0
:1030E00008F44FEF282F628181810C94DE1781E074
:1030F0000C946B18E4E8F2E0438128E0421B08F4EA
:1031000040E0282F628181810C94DE1781E00C94CD
:103110007A1820E00C94DE178091840280FF1DC095
:1031200081708260809384028091630281608093C9
:103130006302662351F06091840270918502809150
:103140008602909187020E94DA1640918702609170
:103150008602809185020C9489180895682F81E079
:103160000C948C1881E00C94AE18682F9091840216
:1031700096958FEF890F09F481E00C948C1881E00B
:103180000C94B51861E00C948C18E4E8F2E08081AE
:103190008160808386950C94C2188091840280FDA2
:1031A0000C9486170C94C51860E00C948C188091D0
:1031B0006002811131C00E94C00F811104C00E94C1
:1031C00064100E94F6160E94D616609384027093D3
:1031D00085028093860290938702809163028360C8
:1031E000809363026E7F61F40E94F6160E94D616E9
:1031F0006093840270938502809386029093870285
:103200000E94C7168091840280FF03C086950E94A9
:10321000D41881E0809360020895E4E8F2E08081B0
:103220008160808386950C94D41810925F028091FF
:103230005E0281110C940D19089510926302089595
:1032400025E0E4E8F2E0DC0101900D922A95E1F737
:10325000209161023091620240916302FC0125835A
:103260003683478308951F93CF93DF93EC01162F86
:103270008F8180FF0CC0888180FF15C080918402FF
:10328000816080938402888186950E948C188F814A
:1032900081FF0CC0212F4B816A818981DF91CF9101
:1032A0001F910C94DE170E94A117F1CFDF91CF91EF
:1032B0001F910895FA01811101C0FB0109941F9328
:1032C000CF93DF93EC01FB01128111114FC00E94DB
:1032D000E60E8272C93CFCE5DF0709F460C030F5F8
:1032E000C53CECE5DE0709F455C060F4C33C9CE541
:1032F000D90709F443C008F048C0C23CDC45D9F105
:1033000011E034C048E658E169E578E1C73C9CE546
:10331000D907C1F14DE358E16AE478E1C83CDC45E6
:1033200088F149E558E168E678E12CC0CD3CFCE540
:10333000DF07D1F1A0F440E457E169E277E1CB3C4B
:10334000ECE5DE07F9F047E758E166E878E1CC3CC8
:10335000DC45C0F049E257E160E477E113C0C63DC7
:103360008CE5D80718F0CD35DD4551F6812FDF917A
:10337000CF911F9108950E94CD18F8CF4FEB58E1DF
:1033800062EB78E10E945A19F1CF42EB58E16FEB02
:1033900078E1F8CF4AE458E16DE378E1F3CF46E80D
:1033A00058E167E778E1EECF81E00E94C218DECFF6
:1033B000539A4BB1477F5BB15860EFB7F8949B01CC
:1033C000220F331F260F371F280F391F28173907E1
:1033D00041F4EFBF8FE594E00197F1F700C00000E2
:1033E0000895DC016D91CD0178E05BB9000000C06B
:1033F00067FF4BB9660F000000C000C000C04BB9AA
:1034000000C07A9591F7E2CF83E290E00E949C2A77
:10341000813289F484E290E00E949C2A823159F43E
:1034200085E290E00E949C2A91E0873009F090E0CC
:10343000892F8170089580E0FCCFCF93C82F6FEF64
:10344000811161E283E290E00E94B02A6FEFC11126
:1034500062E184E290E00E94B02A6FEFC11167E060
:1034600085E290E0CF910C94B02A089586E290E036
:103470000E949C2A682F70E090E080E0089586E228
:1034800090E00C94B02A80E00E941D1A60E070E089
:10349000CB010E943F1A0E942E1D0E94181E81E03F
:1034A0000C941D1A0E94351A0E94041A811102C040
:1034B0000C94431A0895CF93FB01C281CC2309F1E8
:1034C0009C0122513F452031310520F582510E9457
:1034D000281EC0E08C2FCF91089581E00E940F0B31
:1034E00043E062E081E00E94CF05F3CF81E00E94DB
:1034F0001A0B43E062E081E00E94CF05EBCF82E04F
:10350000F6CF8031FFE59F0789F381319F45B9F3FD
:10351000C1E0E0CF8031EFE59E07F9F281319F45B0
:10352000C9F682E0DBCF2FEFFC0120830895CF9313
:10353000DF93EC0188818138A9F028F4803871F09C
:10354000DF91CF910895823881F08338C9F70E94C6
:10355000581789830E945B178A83F2CF0E945E17F7
:103560008983EECF0E940D17FBCF0E944317F8CF3F
:10357000CF93DF93EC0188818138E1F028F4803823
:1035800069F0DF91CF910895823811F18338C9F73E
:103590000E945E17482F6A81898108C0D9810E94E4
:1035A0005B17C82F0E9458174D2F6C2FDF91CF91BA
:1035B0000C94891889810E94D4188981811104C0D2
:1035C000DF91CF910C94A117DF91CF910C940D193D
:1035D0008981DF91CF910C945517EF92FF920F9351
:1035E0001F93CF93DF93EC01062FDC01ED91CD010A
:1035F000E150E33108F0ADC0F0E0E050F54D0C943F
:10360000862A198289E08A83602FCE01DF91CF91CB
:103610001F910F91FF90EF900C946C238981823061
:1036200069F0833071F08130D9F40E94CC220E947D
:103630008C2A6A837B838C839D83E6CF0E94361A13
:10364000F6CF7E01B2E0EB0EF11C10E0812F0E945C
:10365000A703F70181937F011F5F1431B9F7D4CF1E
:10366000602FCE010E94931ACFCF89818230C1F79B
:103670006A817B818C819D810E948C2A0E943F1AE5
:10368000C3CF4B816A8189810E94001D98278927B9
:1036900098279D838C83B8CF2C813D8132272327A7
:1036A00032274B816A8189810E94191DADCF0E940A
:1036B0002E1DAACF0E94B81AA7CF0E94971AA4CF96
:1036C0000E94EC16A1CF0E94C31D89839DCF0E944A
:1036D000C51D9827892798279A83898395CF6B8161
:1036E00070E089819A81AE014C5F5F4F98278927EE
:1036F00098270E94C81D88CF6B8170E089819A81CC
:10370000AE014C5F5F4F9827892798270E94EE1DD6
:103710007BCF0E94181E78CF0E94EE1CD6CF6B8103
:1037200070E089819A81AE014C5F5F4F98278927AD
:1037300098270E94661D68CF6B8170E089819A810D
:10374000AE014C5F5F4F9827892798270E948C1DF8
:103750005BCF8FEF888358CF0895FC01680F791FE6
:103760008FEF91E36E177F0709F408952191822767
:1037700028E030E087FF06C0880F892721503109F3
:10378000C9F7F0CF880FFACFCF93DF93EC01FB019D
:103790008281882309F420C1C330FDE5DF07C8F525
:1037A000CA3F9CE5D90730F49E0122503C452431A4
:1037B000310598F50E94D30F909382028093810285
:1037C000C031FCE5DF0709F4E0C008F061C0C83093
:1037D0009CE5D90709F4CBC088F5C430FCE5DF07C8
:1037E00009F4B3C0E8F4C2309CE5D90709F4A7C0D6
:1037F000809181028260C330DC4509F4A3C08091CE
:103800008102909182020E94E10F0E94960A80E05C
:1038100004C0C136EDE5DE0769F2DF91CF9108956E
:10382000809181028061C630FCE5DF0709F48AC01F
:1038300008F48FC080918102806284C080918102EF
:103840008D7FCC309CE5D90709F47CC070F4809161
:1038500081028C60CA30FCE5DF0709F473C008F40C
:103860008AC0809181028E7F6DC080918102877FA6
:10387000CE309CE5D90709F465C0809181028B7F29
:10388000CF30DC4508F45EC0809181028F7E5AC043
:10389000CC3FFCE5DF0709F474C040F5C4319CE57A
:1038A000D90709F48AC058F4C231FCE5DF0709F4EE
:1038B00074C008F46EC080918102837F43C0CA3F08
:1038C0009CE5D90709F449C008F04DC0C531DC4575
:1038D00009F095CF8091810282FB992790F921E030
:1038E000922790FB82F990FB83F92CC0C1158DE5DE
:1038F000D80709F458C088F4809182028360CE3FD3
:10390000ECE5DE0769F1809182028D7FCF3FDC45D7
:1039100038F1809182028C7F23C0C2308DE5D807B8
:1039200009F458C008F452C0C136DD4509F067CF2C
:1039300090918102892F8F7E94FF806103C08091D6
:1039400081028160809381025ACF809181028460DC
:10395000F9CF809181028860F5CF809182028160E9
:10396000809382024CCF809182028260F9CF809155
:1039700081028064E7CF0E94960A8091810280686C
:10398000E1CF809182028E7FEBCF809181028F7D8B
:10399000D9CF809181028F7BD5CF0E94960A8091EA
:1039A00081028F77CFCF80918202982F909591706E
:1039B0008E7F892B90FB81F9D3CF0E94960A90913C
:1039C0008102892F97FB87F98058BCCF81E00E9444
:1039D000661015CF80E0FBCF81E01FCF84E0089513
:1039E00050E0440F551F9AE0699F400D511D11246E
:1039F00098EC899F400D511D1124CA0187960895A6
:103A00000F931F93CF93DF930E94F01C8C010E94B1
:103A10009C2AC82FD0E0DC2FCC27C80101960E9439
:103A20009C2A9E01282BC901DF91CF911F910F91F4
:103A300008950F931F93CF93DF93122F032F0E94AC
:103A4000F01CEC01602F0E94B02A612FCE0101967C
:103A5000DF91CF911F910F910C94B02AAF92BF923A
:103A6000CF92DF92EF92FF921F93CF93DF938CEA76
:103A7000C82E80E0D82ED0E07601C0E014C0F50159
:103A800025913491412F6C2F8D2F0E94191D82E0BA
:103A9000A80EB11C1F5F153091F78AE0E80EF11CEB
:103AA000CF5FC43119F0570110E0E9CFDF5F88EC38
:103AB000C80ED11CD43001F7DF91CF911F91FF9038
:103AC000EF90DF90CF90BF90AF900895EF92FF926C
:103AD0000F931F93CF93DF93EC018A017C01E60ED5
:103AE000F71ECE018796CE15DF0539F4DF91CF9111
:103AF0001F910F91FF90EF900895C03223E0D207FD
:103B000040F40E949C2AF80180830F5F1F4F21968A
:103B1000E8CFF8011082F9CFCF92DF92EF92FF92B7
:103B20000F931F93CF93DF937C016A018C01060FE3
:103B3000171FEC01CE018796C017D10749F4DF911A
:103B4000CF911F910F91FF90EF90DF90CF9008954C
:103B5000C03223E0D20740F4FE01EE19FF09EC0D5C
:103B6000FD1D60810E94B02A2196E4CF462F84304B
:103B700038F4743128F4653018F4672F0C94001D64
:103B800090E080E0089580E1089589EB90E0089549
:103B9000EF92FF920F931F93CF93DF93EC018A0173
:103BA0007C01E60EF71ECE01895B9C4FCE15DF052A
:103BB00039F4DF91CF911F910F91FF90EF9008950D
:103BC000C93BD10540F40E949C2AF80180830F5F15
:103BD0001F4F2196E8CFF8011082F9CFCF92DF92E4
:103BE000EF92FF920F931F93CF93DF937C016A01B3
:103BF0008C01060F171FEC01CE01895B9C4FC0178B
:103C0000D10749F4DF91CF911F910F91FF90EF9071
:103C1000DF90CF900895C93BD10540F4FE01EE1925
:103C2000FF09EC0DFD1D60810E94B02A2196E4CFB2
:103C3000CF93DF93C7E4D3E060E0CE010E94B02AC7
:103C40002196C11584E0D807B9F7DF91CF91089587
:103C5000DF92EF92FF920F931F93CF93DF9300D0E9
:103C600000D0CDB7DEB7F82E8FE08F1540F08FEF84
:103C700093E00E949C2A07E413E08823C1F00F9090
:103C80000F900F900F90DF91CF911F910F91FF90A8
:103C9000EF90DF900895011584E0180781F3C801C3
:103CA0000E949C2A811101C0FA940F5F1F4FF110EE
:103CB000F2CF19821A821B821C82DD24D3947801F0
:103CC0008FEFE81AF80AC8010E949C2A89831A8299
:103CD0008823A9F29FEF980F933078F48A83D982D2
:103CE0000E5F1F4FC7010E949C2A8B83882339F2E5
:103CF000CE0101960E942D07E2CF8701F9CFCF9325
:103D0000DF93EB0186319C4511F50E94E60E9A8106
:103D1000992399F08A7A91E009F490E090936402F3
:103D2000811109C089E20E94C10E0E94290F80E022
:103D3000DF91CF91089585E3F6CF809164028111E0
:103D400004C089E20E94C80EF0CF85E3FBCF81E07A
:103D5000EFCF0F931F93CF93DF93C42FD22FFC018C
:103D600082818823C9F0409367020E94C022909309
:103D700066028093650280E28C0F883008F050C0A4
:103D8000C77081E001C0880FCA95EAF7DF91CF9133
:103D90001F910F910C94610810916702141335C0A4
:103DA00080916502909166020E94D822883C91051C
:103DB00060F5C0E2CD0F1D17B9F080E2810F8830A9
:103DC00040F4177081E001C0880F1A95EAF70E944D
:103DD0006808C83048F481E09D2F977001C0880FB3
:103DE0009A95EAF70E946108802F0E945908C8300E
:103DF000B8F4D77081E001C0880FDA95EAF7DF9157
:103E0000CF911F910F910C94680880E28C0F88303D
:103E100038F4C77081E001C0880FCA95EAF7EFCF88
:103E2000DF91CF911F910F9108950F939C01CB01CA
:103E3000233F4CE5340759F1A8F4283DFCE53F0742
:103E400001F1293D4CE53407D1F1273D3C4591F482
:103E500006E221EE41EE67ED7CE50E94A91E80E0BE
:103E60000F910895253FFCE53F07E9F0B0F0263FAC
:103E70003C45F9F0FC018281882339F110926702F8
:103E8000EFCF07E225EE45EE68ED7CE5E6CF06E2F2
:103E900021EE40EE63EF7CE5E0CF07E225EE44EE55
:103EA00064EF7CE5DACF06E221EE42EE65EF7CE5D9
:103EB000D4CF07E225EE46EE66EF7CE5CECF08E2F2
:103EC00021E045EE69ED7CE5C8CF81E0C9CF8EE108
:103ED0004A9B02C08150E1F74A9BFECF08955A9851
:103EE00080E28A95F1F75A9A0895FC013BE03A95F1
:103EF000F1F798E020E080E031E040E14A95F1F709
:103F0000880F4A9B02C08160232742E04A95F1F75F
:103F1000000040E14A95F1F7915079F790E19A95C8
:103F2000F1F799B132E03A95F1F7000040E14A9596
:103F3000F1F792FB992790F992272081920F9083B5
:103F40000895EF92FF920F931F93CF93DF930F92F9
:103F5000CDB7DEB719828C017C01E60EF11C0E157F
:103F60001F0561F481E09981911180E00F90DF914C
:103F7000CF911F910F91FF90EF9008950E94671FBE
:103F8000CE0101960E94751FF80181938F01E7CF42
:103F9000529A5A9A089552985A9AEA9AE9E6F0E0A3
:103FA00080818F7C808308956150770B91E001C000
:103FB000990F6A95EAF720E031E0911108C02223B9
:103FC00091F05A9A80E28A95F1F75A980895492F0C
:103FD000482339F05A9A232740E24A95F1F79695FB
:103FE000ECCF5A98F9CF5A98EDCFFF920F931F93C9
:103FF000CF93DF93EC018C01060F111DC017D10781
:1040000031F4DF91CF911F910F91FF900895F990B6
:104010000E946F1F68E08F2D0E94D41FEFCF1F9268
:104020000F920FB60F921124EF92FF920F931F93EE
:104030002F933F934F935F936F937F938F939F93B0
:10404000AF93BF93EF93FF93CF93DF930F92CDB7CF
:10405000DEB719820E94671FCE0101960E94751F6C
:10406000A82FA695A695A695282F229525709A2F5C
:104070009570290F922F937026952695920F982769
:1040800097708981982B09F075C0A53008F072C02F
:1040900080E18A95F1F75A9A529AB2E0BA95F1F70F
:1040A00000C05A98EA2EF12CEAE0AE9FD00111240C
:1040B000AB5FBE4F1896ED91FC9119973097B1F018
:1040C000609158017091590116962D913C91179766
:1040D000260F371F13968D919C911497680F791FA7
:1040E00015964C91159712968C9109958AE08E9DA4
:1040F000F0018F9DF00D1124EB5FFE4F658166236B
:1041000051F0209158013091590186819781820F99
:10411000931F0E94F51F0E946F1FF0E1FA95F1F7BF
:104120005A9852985A9A80E18A95F1F78AE08E9DC2
:1041300080018F9D100D11240B5F1E4FD801129628
:104140006C911297662371F12091580130915901B9
:1041500013968D919C91820F931F0E94A11FD801ED
:10416000ED91FC91882311F088E001C082E080830A
:104170000E94671F0F90DF91CF91FF91EF91BF9148
:10418000AF919F918F917F916F915F914F913F91EF
:104190002F911F910F91FF90EF900F900FBE0F90F6
:1041A0001F901895ED91FC91DFCF0F931F93CF9344
:1041B000DF93EC0105970CF0A9C08AE08C9FF00119
:1041C0008D9FF00D1124EB5FFE4F80819181892B33
:1041D00009F49CC0F894529A5A9885E08A95F1F7B0
:1041E00000008C2F869585709C2F9570890F982FD5
:1041F000937086958695890F8E0193E0000F111FAD
:104200009A95E1F7082B0E946F1F00C068E0802F8D
:104210000E94D41FA0E1AA95F1F752985A9A4A9B9E
:1042200027C087E090E04A9925C08AE08C9F8001F2
:104230008D9F100D11240B5F1E4FF80165816623C1
:10424000A1F1209158013091590186819781820F07
:10425000931F0E94A11F811128C0529A5A9AD80117
:10426000ED91FC9182E08083789482E090E016C02A
:1042700000C0D5CF0197B9F4529A5A9A8AE08C9F20
:10428000F0018D9FF00D1124EB5FFE4F0190F08146
:10429000E02D81E08083789481E090E0DF91CF9100
:1042A0001F910F91089500C0BECF0E94671FB0E21A
:1042B000BA95F1F75A98529AE0E1EA95F1F78AE057
:1042C0008C9FF0018D9FF00D1124EB5FFE4F6281FA
:1042D000662351F0209158013091590183819481D6
:1042E000820F931F0E94F51F0E946F1F8AE08C9F10
:1042F000F0018D9FF00D1124EB5FFE4F0190F081D6
:10430000E02D1082789490E080E0C8CF84E090E0C7
:10431000C5CF90935D0180935C01089590936E02E8
:1043200080936D0208950E94A213811103C08091B1
:1043300068020895E0916D02F0916E02309721F0CD
:104340000190F081E02D099480E00895E0916D02E4
:10435000F0916E02309721F00280F381E02D0994F4
:10436000089520916B0230916C022817390771F083
:1043700090936C0280936B02E0916D02F0916E025B
:10438000309721F00680F781E02D0994089520915F
:10439000690230916A022817390771F090936A0216
:1043A00080936902E0916D02F0916E02309721F0E6
:1043B0000084F185E02D099408959C012E5F3F4F04
:1043C000AC01485F5F4F80E02417350709F408957A
:1043D000F90191919F019923B9F38F5FF5CF66237E
:1043E00049F0FC01329608962191261729F0E8172A
:1043F000F907D1F780E0089581E008959C01FC0160
:1044000032969FEF80E04191461751F09F3F19F49B
:10441000411101C0982F8F5F8630A9F79F3F09F4A3
:104420000895290F311D97FD3A95F901628308958A
:10443000FC01329608962191261303C0DF011197E3
:104440001C92E817F907B9F708950C94FE210C9413
:104450001822029626E0FC0111922A95E9F70895A8
:1044600008950C943022811105C081E080936F0281
:104470000C94312282E0FACF83E080936F020C9497
:1044800031220C94332281E080936F020C9431220C
:104490000C94432208958091AF02843031F10E9440
:1044A000E0051092700288E190E020E40FB6F894E5
:1044B000A895809360000FBE2093600083B7817F32
:1044C000846083BF83B7816083BF7894889583B706
:1044D0008E7F83BF0FB6F894A895809160008861A5
:1044E00080936000109260000FBE089508950895B3
:1044F000CF930E9476220E947A040E947722C0E025
:104500008C2F0E94A703811105C0CF5FC431C1F772
:10451000CF91089581E0FCCF0E94960A0C94570633
:104520001F921FB61F9211248F939F93AF93BF9337
:1045300080917002811113C08091A7029091A8020E
:10454000A091A902B091AA024196A11DB11D80932C
:10455000A7029093A802A093A902B093AA02BF91C8
:10456000AF919F918F911F901FBE1F90189582E071
:1045700084BD93E095BD9AEF97BD80936E0008953A
:104580002FB7F8948091A7029091A802A091A90258
:10459000B091AA022FBF08952FB7F8946091A70297
:1045A0007091A8028091A9029091AA022FBF08954C
:1045B0009C014FB7F8948091A7029091A802A09116
:1045C000A902B091AA024FBF821B930B0895CF920C
:1045D000DF92EF92FF922FB7F894C090A702D0908D
:1045E000A802E090A902F090AA022FBFA7019601AD
:1045F000261B370B480B590BCA01B901FF90EF90EE
:10460000DF90CF90089578941F921FB61F921124C7
:104610008F939F93AF93BF938091A7029091A8022D
:10462000A091A902B091AA020196A11DB11D80938B
:10463000A7029093A802A093A902B093AA02BF91E7
:10464000AF919F918F911F901FBE1F90189587E784
:1046500097E7909301088093000888E19AE00FB6ED
:10466000F894A895809360000FBE90936000FFCFF0
:1046700080917902089508950895CF93DF93EC0116
:1046800081E08093E9008FEF9091E800815095FDE3
:1046900006C095ED9A95F1F700008111F5CF809154
:1046A000E80085FF14C050E040E068E070E0CE0113
:1046B0000E9480258091E8008E778093E80088E052
:1046C000FE01A1E7B2E001900D928A95E1F7DF913A
:1046D000CF91089508950895CF93FC01603221F59C
:1046E0008091AF02843001F5C091E900CF70209134
:1046F000EC00922F917020FD90E8C92B82E080930E
:10470000E9008091E80080FF0CC050E040E060E2EA
:1047100070E0CF010E9480258091E8008E77809321
:10472000E800CF70C093E900CF9108958091AE0268
:10473000811109C00E945F270E94BC278091E2007E
:1047400084608093E20008951092AE0208950C9464
:1047500043226091AB0281E0611101C080E00C94C2
:104760003C229091AF0281E0943009F080E06091AA
:10477000AB020C94412242E061EC81E00E94DB2616
:1047800042E261EC82E00E94DB2642E260EC83E0E0
:104790000E94DB269091AF0281E0943009F080E026
:1047A0006091AB020C9433228091B102833009F402
:1047B00060C030F48130C9F1823009F49CC00895A2
:1047C0008A3009F488C08B3009F46EC0893009F052
:1047D0004FC08091B002813209F04AC08091B4028A
:1047E0009091B502892B09F043C08091E800877F42
:1047F0008093E8008091E80082FF36C09091F3003A
:104800008091F200029731F48091F100813011F033
:10481000863021F48091F100809379028091E80044
:104820008B778093E8000C940F278091B002813A37
:10483000F9F48091E800877F8093E8008091B402CA
:104840009091B502892B61F468E081E792E070E015
:104850000E941E268091E8008B778093E8000895DF
:1048600060E090E080E0F3CF8091AF028111C2CF91
:1048700008958091B002813AD9F78091B402909165
:10488000B502892BA9F78091E800877F8093E80023
:104890008091E80080FFFCCF80913E018093F10081
:1048A0008091E8008E77BDCF8091B002813201F710
:1048B0008091B4029091B502892BD1F68091E800E5
:1048C000877F8093E8000E940F278091B202809337
:1048D0003E010C94960A8091B002813249F6809193
:1048E000E800877F8093E8000E940F278091B30241
:1048F00080937A0208958091B002813A09F0B8CF8E
:104900008091E800877F8093E8008091E80080FF35
:10491000FCCF80917A02C2CF84B7877F84BF0FB665
:10492000F894A8958091600088618093600010924F
:1049300060000FBE80E890E00FB6F89480936100AD
:10494000909361000FBE0C9448220E945F270E9442
:10495000BC27E2EEF0E080818460808378940C9440
:10496000452A82E391E00C948E218091AF0285303C
:10497000A9F48091AF02853011F00C948C220E9432
:104980004B228091AD028823A1F30E9478228823D4
:1049900081F30E946A250E94960AEBCF0895CF9377
:1049A000DF93CDB7DEB7A0970FB6F894DEBF0FBE8A
:1049B000CDBF8091AF02843009F583E08093E90098
:1049C0008091E80082FF1AC08091E80090E085FFA6
:1049D00009C050E040E060E270E0CE0101960E9424
:1049E000CF2591E08091E8008B778093E8009923B0
:1049F00029F060E2CE0101960E94ED1AA0960FB652
:104A0000F894DEBF0FBECDBFDF91CF9108950C9417
:104A10000925E92FFF27E330F105E9F060F4E130E3
:104A2000F10509F448C0329709F44AC0F0E0E0E02B
:104A300090E080E025C0E132F10571F1E232F1054C
:104A4000A9F76115710509F440C082EF95E0613066
:104A50007105B1F0EBCF992781309105B1F0009746
:104A600049F0029719F7ECE7F5E0E491F0E08CE704
:104A700095E006C0EAE9F5E0E491F0E08AE995E026
:104A8000DA018D939C93CF010895E2E9F5E0E4917A
:104A9000F0E082E995E0F4CFE9E0F0E080EB95E02A
:104AA0006115710569F3E9E0F0E089EC95E06130AA
:104AB000710531F3BBCFE2E1F0E080EE95E0E0CFAD
:104AC000E2E4F0E08EE995E0DBCFE0E4F0E084E1C1
:104AD00096E0D6CF80E189BD82E189BD09B400FEB0
:104AE000FDCF8091D8008F7D8093D8008091E00029
:104AF00082608093E0008091E00081FDFCCF08950A
:104B0000AF92BF92CF92DF92FF920F931F93CF93FA
:104B1000DF936C01EB018A010E942E27F82E811190
:104B200023C00115110539F0F80180819181C81B5E
:104B3000D90BC80ED91EB12CA12C2097A9F08091B9
:104B4000E80085FD22C08091E8008E778093E80020
:104B500001151105A1F0F80180819181A80EB91EFF
:104B6000B182A08285E0F82E8F2DDF91CF911F9129
:104B70000F91FF90DF90CF90BF90AF9008950E946B
:104B80002E278823D1F2F82EEFCFF60181916F0105
:104B90008093F1002197FFEFAF1ABF0ACECFAF92FB
:104BA000BF92CF92DF92FF920F931F93CF93DF9329
:104BB0006C01EB018A010E942E27F82E811123C07F
:104BC0000115110539F0F80180819181C81BD90BBD
:104BD000C80ED91EB12CA12C2097A9F08091E80015
:104BE00085FD22C08091E8008B778093E800011555
:104BF0001105A1F0F80180819181A80EB91EB18242
:104C0000A08285E0F82E8F2DDF91CF911F910F911B
:104C1000FF90DF90CF90BF90AF9008950E942E2715
:104C20008823D1F2F82EEFCF8091F100F601819325
:104C30006F012197FFEFAF1ABF0ACECFFC01809121
:104C4000B6029091B70286179707A0F0611571051B
:104C500029F49091E8009E779093E80090E0611528
:104C6000710551F4911108C08091E80082FF34C0B1
:104C700080E00895BC01F2CF8091AF028823C1F19A
:104C80008530C1F18091E80083FD30C08091E8005B
:104C900082FDEACF8091E80080FFE1CF8091F300B0
:104CA0002091F200382F6115710519F02830310577
:104CB00058F091E02830310509F090E02091E800AB
:104CC0002E772093E800CBCF81918093F100615043
:104CD00071092F5F3F4FE7CF8091AF02882341F0EA
:104CE000853041F08091E80083FFBECF81E00895D8
:104CF00082E0089583E00895FC018091B6029091CE
:104D0000B70286179707A0F06115710529F4809105
:104D1000E8008E778093E80090E06115710551F40A
:104D2000911108C08091E80082FF35C080E00895AD
:104D3000BC01F2CF8091AF028823C9F18530C9F15F
:104D40008091E80083FD31C08091E80082FDEACFC8
:104D50008091E80080FFE1CF8091F3002091F20084
:104D6000382F6115710519F02830310558F091E0A0
:104D70002830310509F090E08091E8008E7780932B
:104D8000E800CBCF84918093F10031966150710996
:104D90002F5F3F4FE6CF8091AF02882341F08530EF
:104DA00041F08091E80083FFBDCF81E0089582E06B
:104DB000089583E00895982F973028F08F7080939E
:104DC000E90081E008959093E900242F762F50E0C8
:104DD000981731F07091EC002091ED005091F000A7
:104DE00021FD02C09F5FE8CF3091EB003E7F309302
:104DF000EB003091ED003D7F3093ED003091EB0002
:104E000031603093EB007093EC002093ED005093F1
:104E1000F0002091EE0027FDE5CF80E0089580911D
:104E2000B00287FF13C08091E80082FF06C0809126
:104E3000E8008B778093E80004C08091AF02811175
:104E4000F2CF08958091AF028823D9F38091E800D2
:104E500080FFF8CF8091E8008E77ECCF2091E400BE
:104E60003091E50095E6A9012091EC00822F817038
:104E700020FF06C08091E80080FF06C080E0089512
:104E80002091E80022FD1AC08091AF02882389F0AA
:104E9000853089F08091EB0085FD0FC02091E40002
:104EA0003091E50042175307F9F29150E1F684E0A2
:104EB000089582E0089583E0089581E008950E94B6
:104EC000CD270E94D527E0EEF0E0808181608083CD
:104ED000E8EDF0E080818F77808319BCA7EDB0E02A
:104EE0008C918E7F8C9380818F7E80831092AE0216
:104EF00008950F931F93CF93DF930E94CD270E94B5
:104F0000D527C8EDD0E088818F7788838881806835
:104F1000888388818F7D888319BC1092AF0210929C
:104F2000AB021092AD021092AC0200EE10E0F8015C
:104F300080818B7F808388818160888342E060E00C
:104F400080E00E94DB26E1EEF0E080818E7F8083AE
:104F5000E2EEF0E0808181608083808188608083E0
:104F6000F80180818E7F8083888180618883DF91D2
:104F7000CF911F910F910895E8EDF0E080818F7E31
:104F80008083E7EDF0E080818160808384E082BFF0
:104F900081E08093AE020C947927E8EDF0E0808107
:104FA0008E7F80831092E20008951092DA001092B2
:104FB000E10008951F920F920FB60F9211242F93C4
:104FC0003F934F935F936F937F938F939F93AF9391
:104FD000BF93EF93FF938091E10082FF0BC080911C
:104FE000E20082FF07C08091E1008B7F8093E100A7
:104FF0000E94442A8091DA0080FF19C08091D80075
:1050000080FF15C08091DA008E7F8093DA00809156
:10501000D90080FF96C080E189BD82E189BD09B4D5
:1050200000FEFDCF81E08093AF020E949623809125
:10503000E10080FF19C08091E20080FF15C08091DF
:10504000E2008E7F8093E2008091E2008061809395
:10505000E2008091D80080628093D80019BC85E07E
:105060008093AF020E94A9238091E10084FF2BC0AE
:105070008091E20084FF27C080E189BD82E189BD83
:1050800089B5982F917080FFFBCF8091D8008F7DDC
:105090008093D8008091E1008F7E8093E100809121
:1050A000E2008F7E8093E2008091E2008160809335
:1050B000E2008091AB02882309F449C084E0809328
:1050C000AF020E94B1238091E10083FF29C080914B
:1050D000E20083FF25C08091E100877F8093E1009B
:1050E00082E08093AF021092AB028091E1008E7F4C
:1050F0008093E1008091E2008E7F8093E2008091B6
:10510000E20080618093E20042E060E080E00E9483
:10511000DB268091F00088608093F0000E94A72336
:10512000FF91EF91BF91AF919F918F917F916F917F
:105130005F914F913F912F910F900FBE0F901F9055
:10514000189519BC1092AF020E94A42370CF8091D1
:10515000E30087FD93E09093AF02B3CF1F920F92CD
:105160000FB60F9211242F933F934F935F936F933A
:105170007F938F939F93AF93BF93CF93DF93EF93DF
:10518000FF93D091E900DF708091EC00C82FC170CF
:1051900080FDC0E81092E9008091F000877F809345
:1051A000F00078940E94F2281092E9008091F000BB
:1051B00088608093F000CD2BCF70C093E900FF9101
:1051C000EF91DF91CF91BF91AF919F918F917F919F
:1051D0006F915F914F913F912F910F900FBE0F9064
:1051E0001F9018951F93CF93DF93CDB7DEB7AA9783
:1051F0000FB6F894DEBF0FBECDBF80EB92E02091DA
:10520000F100FC012193CF01F2E0883B9F07B9F741
:105210000E94D4238091E80083FF1EC18091B002D8
:105220009091B1029A3008F017C1E92FF0E0ED5EDD
:10523000F44D0C94862A803899F0823809F00CC11C
:105240008091B4028F70873008F006C18093E90026
:105250008091EB0085FB882780F91092E90006C059
:105260008091AC029091AD02911182609091E80022
:10527000977F9093E8008093F1001092F100809165
:10528000E8008E77E5C0882309F4D3C0823009F0A6
:10529000E3C08091B2028111D6C08091B4028F70B8
:1052A0002FEF280F263008F0D7C08093E900209117
:1052B000EB0020FFC8C0933031F48091EB00806296
:1052C0008093EB00C0C09091EB0090619093EB0055
:1052D00021E030E001C0220F8A95EAF72093EA002E
:1052E0001092EA008091EB008860EACF8111B4C08F
:1052F0001091B2021F778091E3008078812B809318
:10530000E3008091E800877F8093E8000E940F27E8
:105310008091E80080FFFCCF8091E300806880935B
:10532000E30082E0111183E08093AF0295C08058C2
:10533000823008F091C08091B2029091B3028C3D0E
:1053400023E09207A1F583E08A838AE289834FB73D
:10535000F894DE01139620E03EE051E2E32FF0E006
:1053600050935700E49120FF03C0E295EF703F5F38
:10537000EF708E2F90E0EA30C0F0C7968D939D932A
:105380002F5F243159F74FBF8091E800877F8093CA
:10539000E8006AE270E0CE0101960E941E2680912C
:1053A000E8008B778093E80057C0C096E7CF609104
:1053B000B4027091B502AE014F5F5F4F0E940725A6
:1053C000BC01892B09F448C09091E800977F909325
:1053D000E80089819A810E947C26E1CF8038E1F53E
:1053E0008091E800877F8093E8008091AB028093F2
:1053F000F10045CF811130C09091B202923060F53A
:105400008091E800877F8093E8009093AB020E9430
:105410000F278091AB02882311F084E005C08091B2
:10542000E30087FDFACF81E08093AF020E94BB23A7
:1054300013C08091B202813079F481E0933009F099
:1054400080E08093AD021092E9008091E800877FB0
:105450008093E8000E940F278091E80083FF0AC034
:105460008091E800877F8093E8008091EB00806264
:105470008093EB00AA960FB6F894DEBF0FBECDBFA7
:10548000DF91CF911F9108950895CF938091AF023E
:105490008823A1F0C091E900CF709091EC00892F92
:1054A000817090FD80E8C82B1092E9008091E8009F
:1054B00083FD0E94F228CF70C093E900CF91089538
:1054C0000E945F271092AF020895E8EDF0E080811E
:1054D000806180838AE18A95F1F700C08091D900CC
:1054E00081700895AA1BBB1B51E107C0AA1FBB1FF7
:1054F000A617B70710F0A61BB70B881F991F5A9560
:10550000A9F780959095BC01CD010895EE0FFF1F7E
:105510000590F491E02D099469279627692778274B
:10552000872778270895FB01DC0102C001900D92C6
:1055300041505040D8F70895F999FECF92BD81BDF2
:10554000F89A992780B50895A6E1B0E044E050E0CC
:105550000C94D62AA8E1B0E042E050E00C94D62AA0
:10556000262FF999FECF92BD81BDF89A019700B41C
:10557000021639F01FBA20BD0FB6F894FA9AF99ABC
:105580000FBE08950396272F0E94B12A0E94B02AC9
:10559000252F0E94B12A242F0C94B12A0196272F7F
:1055A0000E94B12A0C94B02ADC01CB01FC01F999CC
:1055B000FECF06C0F2BDE1BDF89A319600B40D925F
:1055C00041505040B8F70895F894FFCFAD08AD08AA
:1055D000DE08DE080D090D090D090D097109D8094C
:1055E000E709E709A50AA50AAE0AAE0AB00AAE0A9B
:1055F000AE0AAE0AA50AA50AB50AAE0AAE0AB50AEF
:10560000011B0E1B351B411B4C1B571B5A1B5D1BE3
:10561000601BA91BA91B631B671B6F1B7C1B891BC2
:105620008C1B8F1B9C1B1B2943292C2A43292C2AAA
:0A563000762997292C2AEE29FA2981
:10563A00C800FF010183020000000100000000838E
:10564A00020000000A010000008302040B000000AF
:10565A000000008302080F000000000000000A009A
:10566A000A0A38233D236A233B236B233C23013454
:10567A00C6663632F5F6F79735F5F6F79735000030
:0C568A0000000000000000002D020001E4
:00000001FF
