:100000000C94B1020C94F8020C94F8020C94151C98
:100010000C94F8020C94F8020C94F8020C94F80278
:100020000C94F8020C94F8020C940B230C94DF232C
:100030000C94961E0C94F8020C94F8020C94F8029E
:100040000C94F8020C94F8020C94F8020C94F80248
:100050000C94F8020C94091F0C94F8020C94F8020A
:100060000C94F8020C94F8020C94F8020C94F80228
:100070000C94F8020C94F8020C94F8020C94F80218
:100080000C94F8020C94F8020C94F8020C94F80208
:100090000C94F8020C94F8020C94F8020C94F802F8
:1000A0000C94F8020C94F8020C94F8021F00200043
:1000B0002100220001001A000800150017000100AD
:1000C0001600070009000A0001001B0006001900C5
:1000D00005000100E2008B002C002C0002511E00E4
:1000E000350000000000000014002B00000000009C
:1000F0000000040039000000000000001D00E100C5
:10010000000000000000E300E0000000000000002C
:1001100027002600250024002300130012000C00F5
:1001200018001C0033000F000E000D000B003800FB
:100130003700360010001100650088008A002C008E
:1001400001512D002E008900000000002F0030001A
:100150002A000000000034003200280000000000E7
:1001600087005200E50000000000500051004F00E1
:1001700000000000010001000100010001001F005B
:100180002000210022000100010001000100010007
:100190000100010001000100010001000100010057
:1001A000010001000100010001000000000000004A
:1001B0001E0001000000000000000100010000001E
:1001C000000000000100010000000000000001002C
:1001D000010000000000000001000100010001001A
:1001E0000100270026002500240023000100010053
:1001F00001000100010001000100010001000100F7
:1002000001000100010001000100010001000100E6
:1002100000000000010001000100000000000100DA
:1002200001000100000000000100010001000000C9
:1002300000000100010001000000000001000100B9
:1002400001000100C35C0100010001000100CA5C63
:100250000100010001000100C65C01000100010075
:100260000100C85C01000100010001000100010063
:10027000010000000000000001000100000000007B
:10028000000001000100000000000000010001006A
:10029000000000000000010001000000000000005C
:1002A0000100010001000100010001000100010046
:1002B0000100010001000100010001000100010036
:1002C0000100010001000100010001000100010026
:1002D0000100010001000100000000000100010018
:1002E000010000000000010001000100000000000A
:1002F00001000100010000000000010001000100F8
:1003000000000000010001000100010001000100E7
:1003100001000100010001000100010001000100D5
:1003200001000100010001000100010001000100C5
:1003300001000100010001000100000000000000B8
:1003400001000100000000000000010001000000A9
:10035000000000000100010000000000000001009A
:100360000100000000000000010001000100010088
:100370000100010001000100010001000100010075
:100380000100010001000100010001000100010065
:100390000100010001000100010001000100010055
:1003A0000000000001000100010000000000010049
:1003B0000100010000000000010001000100000038
:1003C0000000010001000100000000000001010127
:1003D0000101010101010202020202020202020302
:1003E00003030303030303040404040404040505D2
:1003F0000505050606060606070707070708080895
:1004000008090909090A0A0A0B0B0B0C0C0C0D0D43
:100410000D0E0E0E0F0F0F101011111112121313DB
:100420001414151516161717181819191A1A1B1B54
:100430001C1D1D1E1E1F20202122222324242526B0
:1004400026272829292A2B2C2D2D2E2F30313232E8
:10045000333435363738393A3B3C3D3E3F404142F4
:10046000434445464748494A4C4D4E4F50515354DA
:10047000555658595A5B5D5E5F616264656668698E
:100480006B6C6D6F7072737577787A7B7D7E80820E
:10049000838587888A8C8E8F91939596989A9C9E57
:1004A000A0A2A3A5A7A9ABADAFB1B3B5B7BABCBE67
:1004B000C0C2C4C6C9CBCDCFD1D4D6D8DBDDDFE234
:1004C000E4E7E9EBEEF0F3F5F8FAFDFF140368005A
:1004D00061006C00660063006C00690066006600E5
:1004E000000006036E003200000004030904090244
:1004F0002200010100A0FA0904000001030101002B
:100500000921110100012240000705810308000AAA
:100510001201000200000008350321000100010261
:10052000000105010906A101050719E029E71500E9
:10053000250195087501810295017508810105075E
:10054000190029FF150026FF009506750881000592
:100550000819012905950575019102950175039109
:1005600001C011241FBECFEFDAE0DEBFCDBF04B65D
:1005700003FE27C08091D8029091D902A091DA029F
:10058000B091DB028730904BA740B04BD1F4109272
:10059000D8021092D9021092DA021092DB0214BE35
:1005A00084B7877F84BF0FB6F894A89580916000C8
:1005B000886180936000109260000FBEE0E0F8E375
:1005C000099511E0A0E0B1E0E8E6FCE402C0059086
:1005D0000D92AC35B107D9F722E0ACE5B1E001C02E
:1005E0001D92A83DB207E1F70E947C150C940E26DF
:1005F0000C940000F894E82FE295EF70F0E031A140
:10060000282F2F7081E090E001C0880F2A95EAF72B
:10061000382B31A392A18095892382A378940895E1
:10062000F894E82FE295EF70F0E031A1282F2F70B9
:1006300081E090E001C0880F2A95EAF7982F909505
:10064000932391A392A1892B82A37894089508956E
:100650000C94270308950C942A030895E82FF0E0E2
:10066000ED58FE4F8081089508950F931F93CF9307
:10067000DF930E942B1380910401809104019AE082
:10068000811190E090939C028AE0891B80939B02E9
:10069000C4E4D1E08E01F80181918F010E94100322
:1006A000F1E00E341F07B9F784E30E94100386ECD3
:1006B0000E94100386E60E94100386E30E94100346
:1006C00082E30E94100384E30E94100386EC0E94E0
:1006D000100386E60E94100386E30E94100382E363
:1006E0000E94100389910E94100381E0CE34D80744
:1006F000C9F7E7E8F1E0A3E7B1E011921D9281E0CC
:10070000EB39F807D1F78AE00E94DA120E94390526
:10071000DF91CF911F910F910C944013FF920F9393
:100720001F93CF93DF93CDB7DEB72A970FB6F89418
:10073000DEBF0FBECDBF0E941113F82E60919C0248
:10074000882309F451C08E010F5F1F4F8AE0F80122
:1007500011928A95E9F7862F90E0B8018D589E4F47
:100760000E94A313811123C0809172018F5F809337
:1007700072018630B8F1E0919B02F0E0ED58FE4F37
:10078000D801CE010B9611921D92A817B907D9F77F
:100790000E943F058F2D2A960FB6F894DEBF0FBE3C
:1007A000CDBFDF91CF911F910F91FF9008951092CF
:1007B0007201A0919B02B0E0AD58BE4F9E01255F33
:1007C0003F4FF12C4D91F80191918F01491731F074
:1007D000AD0141505109FA019083F82E0217130719
:1007E00089F7D6CFF12CD4CF70E06D587E4F809131
:1007F0009B0290E08D589E4F0E94A5130E942D03EE
:10080000C9CF6F927F929F92AF92BF92CF92DF92A9
:10081000EF92FF920F931F93CF93DF9307E811E0BE
:1008200044E4C42E41E0D42EC0E0D1E0D601AD9026
:100830006D018A2D0E94FA02B0EABA95F1F73FE302
:10084000E32E31E0F32EF70130E020E0B12C4191AE
:10085000A42FA295AF70B0E090968C9190E04F706D
:1008600002C0959587954A95E2F780FD94C08D2F3B
:10087000022E01C0880F0A94EAF7B82A2F5F3F4F73
:100880002530310521F78A2D0E941003E0EAEA9510
:10089000F1F7D8018C91B81609F47FC0BC9281E0C1
:1008A000C82B0F5F1F4FB9E4CB16B1E0DB0609F090
:1008B000BDCF10E000E0AA24A394B12C28E6C22EFC
:1008C00021E0D22EF70191907F01892D0E94FA023A
:1008D000F0EAFA95F1F7C501002E01C0880F0A94DD
:1008E000EAF7782F682F6095EEE5F1E084E4682E52
:1008F00081E0782ED0E03191D3012D913D01422F3E
:1009000042954F7050E0DA0190968C9190E02F70F4
:1009100002C0959587952A95E2F780FD40C0872F04
:10092000832B381731F09F0121503109D9018C9365
:10093000D1E0CE16DF06F9F6892D0E9410030430AF
:1009400019F0B0EABA95F1F7CD2B61F50F5F1F4FA3
:100950000530110509F0B6CF60919C0270E06D582A
:100960007E4F2C2F4AE087E891E00E94DB120E9424
:100970008E03C11101C0C82F8C2FDF91CF911F9121
:100980000F91FF90EF90DF90CF90BF90AF909F902E
:100990007F906F90089580E070CF80E081CF862FA8
:1009A0008323BFCF8091630180938C018091640188
:1009B00080938D018091650180938E018091660105
:1009C00080938F018091670180939001BFCF81E078
:1009D000089581E008950C94E90408950C94ED04C1
:1009E0001F93CF93DF9300D000D00F92CDB7DEB727
:1009F00049835A836B8330919B0189819A8131119C
:100A00001DC06623B9F02223A9F00E94F20A182F14
:100A1000682F89819A810E949B0A69817A81812F3E
:100A20000F900F900F900F900F90DF91CF911F912B
:100A30000C9480110E94C90A182FEFCF0E94F20A6D
:100A400069817A81EDCFFC01262F4081518162813D
:100A5000738184810C94F00481E00895CF93DF9337
:100A6000EC0160E00E942305BE01DF91CF910C9460
:100A7000EE040E94B6120E94C0050C9428030C9448
:100A80002B0380E00E94C1050C94F516089508958B
:100A90000E9444090E9447052FEF84E39CE0215007
:100AA00080409040E1F700C000000C942D1F0F9390
:100AB0001F93CF93DF938C0161E00E942305EC012B
:100AC000B8010E94EB048823D9F1B801CE010E943D
:100AD0001B1B8823A9F1B801CE010E945B19882352
:100AE00079F1B801CE010E94851A882349F1B80135
:100AF000CE010E949E18882319F1F8018281882373
:100B000061F0CB35FDE5DF0721F170F4C115ECE5AF
:100B1000DE07A1F0CF3DDC45C9F0C801DF91CF91E0
:100B20001F910F910C94E704CC358DE5D807A1F007
:100B3000CD35DD4591F70E941A0FEFCF0E94480591
:100B400080E0DF91CF911F910F9108950E94CE0F09
:100B5000F7CF0E94230FE1CF0E94260FDECF0C9427
:100B600046050E94991D0E94C1050E9454180C94CC
:100B7000AF0508950C94B90581E008950C94BC0567
:100B80000895CF93C82F0E94BA058C2FCF910C9453
:100B9000BE05CF93DF93CDB7DEB72B970FB6F89492
:100BA000DEBF0FBECDBF4F83588769877A878B879B
:100BB00061110E94750E1E821D8285E0FE0137962E
:100BC000DE01119601900D928A95E1F78C819D814D
:100BD000892B89F449815A816B817C818D819E8129
:100BE0000E94960D2B960FB6F894DEBF0FBECDBFB8
:100BF000DF91CF91089589819A8189238F3F51F3A5
:100C0000CE0101960E942C058111E4CFEBCFFC01AF
:100C1000808191810C94340BCF93C82F882309F4E1
:100C200069C08238C1F40E94991D81FD63C089E3C7
:100C30000E94300E0E94980E2FEF81EE94E021501A
:100C400080409040E1F700C0000089E30E94370E29
:100C5000CF910C94980E8338A1F40E94991D80FDC9
:100C600049C083E50E94300E0E94980E2FEF81EE5E
:100C700094E0215080409040E1F700C0000083E5FF
:100C8000E5CF8438A1F40E94991D82FD33C087E42A
:100C90000E94300E0E94980E2FEF81EE94E02150BA
:100CA00080409040E1F700C0000087E4CFCF8CEF98
:100CB0008C0F813A90F46C2F809102019091030186
:100CC0000E94F51D882329F08C2F0E94370E0E9468
:100CD000980E8C2F0E94300EBBCF80E28C0F883094
:100CE00048F4C77081E001C0880FCA95EAF70E94F6
:100CF000580EAECFCF910895882309F44BC08238A7
:100D000071F40E94991D81FF45C089E30E94300E55
:100D10000E94980E89E30E94370E0C94980E833837
:100D200059F40E94991D80FF35C083E50E94300E62
:100D30000E94980E83E5EFCF843859F40E94991DE4
:100D400082FF28C087E40E94300E0E94980E87E43C
:100D5000E2CF9CEF980F913AF0F290E2980F983022
:100D600050F4877091E001C0990F8A95EAF7892FB6
:100D70000E945E0ED2CF9BE5980F933020F490E056
:100D800080E00C94B71D885A873120F490E080E011
:100D90000C94CD1D08951F93CF93DF93182FEB0173
:100DA0000E940C06209731F4812FDF91CF911F9183
:100DB0000C947C068FE99FE00197F1F700C00000DA
:100DC0002197F0CF70E060E0893311F460E570E0C6
:100DD0000C94CB06882321F00E94580E0C94980E98
:100DE0000895882321F00E945E0E0C94980E0895B9
:100DF000BF92CF92DF92EF92FF920F931F93CF9308
:100E0000DF936C01D62FC72FFC011281F580F2947D
:100E10009FE0F9220E944E0EE82E8823B9F0E12EC1
:100E20001123A1F08C2F807F803421F080E28D0F80
:100E30008830D0F08091A20282FD16C082E00E942C
:100E4000E90E0E944E0E91E0E82EE926BC2EB294E7
:100E50008FE0B822FBE0FB1508F468C0EB2DF0E052
:100E6000E05FF94D0C94B725E12CF0CF0C2F0F70FB
:100E7000C07F11F00295007F112399F0002359F0F3
:100E800080E28D0F883010F0D11107C0802F0E94B2
:100E9000580E0E94980E8D2F41C0802F0E94680E20
:100EA000F8CF8D2F0E947C06002309F43FC080E21A
:100EB0008D0F883010F0D11104C0802F0E945E0E7B
:100EC00003C0802F0E946E0E0E94980E2FC00C2F20
:100ED0000F70C07FC03211F00295007FDD2381F0DA
:100EE000D13009F469C0112309F473C0FF2009F45B
:100EF00069C0F601858180FFCECF8F70858362C087
:100F00008091A20282FF38C0112359F0002329F0FA
:100F1000802F0E94580E0E94980E80E00E940C06BE
:100F200005C080E00E947C060111C7CFEB2DE85080
:100F3000FF0B349720F40E94991D0E94C105EE20FA
:100F400009F44BC10E944A0E80FD47C1F60112828E
:100F50000E94440E0E94FF09C6010E940E090E94D1
:100F6000440EDF91CF911F910F91FF90EF90DF9092
:100F7000CF90BF900C94200A112389F0F11006C085
:100F80000E947B0E802B0E94EA06D0CF21E0F21255
:100F9000F7CF0E947B0E802B0E94810EC7CFF110ED
:100FA00006C00E948E0E802F0E94F106BFCF31E056
:100FB000F31609F4BBCFF5CF112331F085E08F157F
:100FC00008F4B4CF802FDFCF94E09F1508F4AECFA4
:100FD000EACFFF2041F3D93349F4FFEF27EE33E0A6
:100FE000F15020403040E1F700C000008D2F0E94FA
:100FF0007C069CCF8C2F837009F041C0111196CFD5
:101000004D2F429546954770440F440F0D2F0F709A
:1010100010E030E020E0042E04C0000F111F221F5A
:10102000331F0A94D2F760E070E0CB01D4FF0FC009
:101030006FE070E080E090E004C0660F771F881FCB
:10104000991F4A95D2F76095709580959095C695B1
:10105000C695C370602B712B822B932BC23049F045
:1010600058F4C13019F00E94B10960CF0E949F0965
:101070005DCF0E94C3095ACF0E949D0957CF869524
:10108000112311F08C2F8170882309F44FCF4D2F3D
:10109000429546954770440F440F0D2F0F7010E096
:1010A00030E020E0042E04C0000F111F221F331F68
:1010B0000A94D2F760E070E0CB01D4FF0FC06FE07C
:1010C00070E080E090E004C0660F771F881F991FD2
:1010D0004A95D2F76095709580959095C695C6957E
:1010E000C370602B712B822B932BC23049F058F4C4
:1010F000C13019F00E94760A19CF0E94640A16CFF7
:101100000E94880A13CF0E94D90910CFCF701123F3
:1011100029F08C2F0E94FF098D2F35CF8D2F0E9433
:10112000F1068C2F0E94200A01CFD23F51F160F4CA
:10113000D03FB9F0D13F81F0112309F449C0F1103B
:10114000AACE8C2F8F7121C0D33F11F1D43FA1F7CC
:101150008091A20282FF26C08C2F8F71112311F380
:1011600014C0112349F084E08F1508F4DFCE8C2FD2
:101170008F710E94430ADACE95E09F1508F4D6CE0F
:10118000F6CF8C2F8F711111CDCF0E94FF09CECEDB
:10119000112329F08C2F8F710E94EA09C7CE0E947B
:1011A000E509C4CE112349F0CF718C2F0E94FF09AD
:1011B00063E08C2F0E94CE0EB9CE81E00E94E90E32
:1011C000E1E0EF1508F0B2CE82E00E94E90EAECE6B
:1011D000F11001CF8C2F8F71A5CFDF91CF911F918F
:1011E0000F91FF90EF90DF90CF90BF9008950F93F5
:1011F0001F93CF93DF93EC01688179818A810E94EC
:101200003E0B8C010E949A0A0E949C09B801CE01F3
:10121000DF91CF911F910F910C94F806CF93DF933C
:10122000EC018B819C81892B29F08881998189230C
:101230008F3F59F4DF91CF910895CE010E94F708B6
:10124000CE01DF91CF910C942E05CE010E9457055F
:101250008111F3CF0E944E0E882361F38A81882387
:1012600049F38091A20282FDE5CF82E0DF91CF9128
:101270000C94E90E0E94750E0E94780E0C94980E44
:101280000E943E0E0C943A090E94650E0C9440098F
:10129000E92FE295EF70E250EE3070F4F0E0E45E9A
:1012A000F94D0C94B725803F19F020F4883E20F4C6
:1012B00081E00895843FE1F380E00895883EC0F323
:1012C000813FD1F7F5CF93FB882780F90895FC0182
:1012D000808191810E94340B0C944809CF93DF9355
:1012E00000D000D00F92CDB7DEB70F900F900F90C7
:1012F0000F900F90DF91CF910895CF93DF9300D09F
:1013000000D000D0CDB7DEB726960FB6F894DEBF7A
:101310000FBECDBFDF91CF91089508950C948D0934
:101320000E948E096093E1017093E2018093E301D2
:101330009093E4010C943A0908950C9490090F934A
:101340001F930091E1011091E2012091E30130919E
:10135000E401602B712B822B932B1F910F910C9426
:1013600090090F931F930091E1011091E2012091E8
:10137000E3013091E40160237123822393231F91C1
:101380000F910C9490090F931F930091E10110911C
:10139000E2012091E3013091E40160277127822767
:1013A00093271F910F910C9490090C948D090C9424
:1013B000D5090E94D7096093DD017093DE01809307
:1013C000DF019093E0010C943A0960E070E0CB01FA
:1013D0000C94D9090F931F9341E050E060E070E056
:1013E0008A019B0104C0000F111F221F331F8A9521
:1013F000D2F7C901B8011F910F910C94D9090F932D
:101400001F9341E050E060E070E004C0440F551FBE
:10141000661F771F8A95D2F78091DD019091DE01DA
:10142000A091DF01B091E0018A019B01082B192BEB
:101430002A2B3B2BC901B8011F910F910C94D9099C
:101440000F931F9341E050E060E070E004C0440F50
:10145000551F661F771F8A95D2F7CB01BA01609599
:101460007095809590950091DD011091DE0120919D
:10147000DF013091E00160237123822393231F91C8
:101480000F910C94D9090F931F9341E050E060E055
:1014900070E004C0440F551F661F771F8A95D2F76E
:1014A0008091DD019091DE01A091DF01B091E0011A
:1014B0008A019B01082719272A273B27C901B80160
:1014C0001F910F910C94D9090F931F930091DD0187
:1014D0001091DE012091DF013091E001602B712B32
:1014E000822B932B1F910F910C94D9090F931F936B
:1014F0000091DD011091DE012091DF013091E001CA
:1015000060237123822393231F910F910C94D90997
:101510000F931F930091DD011091DE012091DF01F7
:101520003091E00160277127822793271F910F9147
:101530000C94D9090895E92FEE0FEE0F9E0F890F35
:10154000982F977041E001C0440F9A95EAF786956D
:101550008695869595E0899FF0011124E456FE4F0B
:1015600030E020E070E05191DF011197CB01022EB5
:1015700002C0969587950A94E2F781708195852738
:10158000842385278C932F5F3F4F2530310559F7F2
:101590000895E92FEE0FEE0F9E0F890F982F977089
:1015A00086958695869525E0829FF0011124E45664
:1015B000FE4F50E040E080E0219130E0092E02C073
:1015C000369527950A94E2F721703327042E01C03F
:1015D000220F0A94EAF7822B4F5F5F4F4530510587
:1015E00059F70895BF92CF92DF92EF92FF920F9337
:1015F0001F93CF93DF938C01C090DD01D090DE016B
:10160000E090DF01F090E0018091E1019091E20132
:10161000A091E301B091E401C82AD92AEA2AFB2A61
:10162000CFE1D0E0BC2ED701C6010C2E04C0B69588
:10163000A795979587950A94D2F780FD0EC02197BC
:1016400088F7B12C8B2DDF91CF911F910F91FF90D7
:10165000EF90DF90CF90BF900895B8018C2F0E943B
:101660009411019761F3EECFCF93DF93EC010E94C9
:10167000F20ABE01DF91CF910C9494111F93CF9386
:10168000DF93EB0190919B01992331F0CB01DF9126
:10169000CF911F910C94340B882379F0CB010E94D9
:1016A000F20A182F682FCE010E949B0ABE01812FDB
:1016B000DF91CF911F910C949411CB010E94C90A24
:1016C000182FF4CF1F93CF93DF93C091E50116E05D
:1016D0008091E6018C1304C0DF91CF911F91089592
:1016E000D0E01C9FF0011D9FF00D1124E951FE4F29
:1016F0004081518162817381848195810E947D093D
:101700002196C770E5CF4091170250911802609161
:10171000190270911A0280911B0290911C020C9484
:101720007D09FF920F931F93CF93DF9380911C024B
:10173000807FD1F4809119028823B1F08091E50176
:101740001091E6016091170270911802A0911A029F
:10175000B0911B02062F0723C0910001D091010117
:1017600096E0F92E181306C0DF91CF911F910F91CB
:10177000FF90089590E0109711F00F3F19F4019633
:101780008770F0CFF89E9001F99E300D1124F90179
:10179000E951FE4F41814713F2CF40814613EFCF0D
:1017A00042814111ECCF438154814A1B5B0B4C17A2
:1017B0005D0728F780911C028F70806180931C0266
:1017C000F901E451FE4F80818F708061808387E151
:1017D00092E00E940E09DF91CF911F910F91FF902F
:1017E0000C94620BAF92BF92CF92DF92EF92FF9276
:1017F0000F931F93CF93DF93CDB7DEB761970FB6EB
:10180000F894DEBF0FBECDBF8C0185E0F801DE018C
:101810001D9601900D928A95E1F7F801E28087E12B
:10182000C82E82E0D82E60911A0270911B026115B9
:10183000710509F45FC19091170220911802892F58
:1018400082238F3F09F456C140815181A380B48027
:10185000F0901902F501E61BF70BBF01E0910001C2
:10186000F0910101FF2009F4F6C080911C02382F8D
:10187000307F6E177F0708F0AFC0311179C0FE2CA2
:10188000251323C0941321C0E1101FC08F70806105
:1018900080931C020E94830BC6010E940E09809156
:1018A0001C02F80185838F2D61960FB6F894DEBF78
:1018B0000FBECDBFDF91CF911F910F91FF90EF90A1
:1018C000DF90CF90BF90AF900895AB2829F0842F80
:1018D00085238F3F09F027C180E0F82FF170DF2EBC
:1018E00080FF3CC08091E5012091E60136E0821343
:1018F00015C04D875E878D859E850E94340B292FEC
:1019000022952F702230F0F0243018F59F70F1F0FE
:10191000F8019581907FD1F4D12C1EC090E0389FC2
:10192000F001399FF00D1124E951FE4F61816513DB
:1019300006C06081641303C062816E110FC00196FE
:101940008770D5CF9F7011F0882331F3805E883087
:1019500018F3C8010E940E09FD2CA5CFEE2009F452
:10196000A2CF80911C02816080931C02F12C9BCF3E
:10197000251306C0941304C0F801EE2009F487C0B3
:10198000C8010E946709882319F1EE2009F18091AE
:101990001C02803270F020911702309118023887B3
:1019A0002F831986BB86AA868C87CE0107960E9454
:1019B0000E0986E0F801A7E1B2E001900D928A9548
:1019C000E1F70E94910B0E94830BFF24F3946BCFED
:1019D000C8010E940E09F9CF311113C07A2DB98ABE
:1019E000A88A6E2D89890E946E0987E192E00E9483
:1019F0000E0986E0F60111928A95E9F70E94830BA1
:101A0000B5CF25130FC094130DC0E1100BC0F80122
:101A10008583C8010E940E0986E0F60111928A951D
:101A2000E9F741CFC8010E946709882389F2EE20B7
:101A300079F280911C02803208F4BBCF209117020A
:101A4000309118023A8329831B82BD82AC828E8337
:101A5000CE010196ACCF6E177F0708F03EC0FE2C7A
:101A6000EE2009F4B5CF25132AC0941328C0809125
:101A70001C0280FD1BC0982F907FC1F0F801858368
:101A8000903F31F0982F907F905F8F70892B8583E6
:101A9000C8010E940E0986E0F801A7E1B2E00190BA
:101AA0000D928A95E1F70E94830BFDCE86E0F80146
:101AB000A7E1B2E001900D928A95E1F7F4CEC8015A
:101AC0000E946709811175CF80911C02816080930B
:101AD0001C02C8010E940E09E6CE7A2DB98AA88A96
:101AE0006E2D89890E946E0986E0F60111928A9511
:101AF000E9F7D9CFEE2009F46BCFC8010E9467093E
:101B0000F82E882309F464CF86E0F801A7E1B2E05B
:101B100001900D928A95E1F787E192E00E94070615
:101B20000E94910BC0CF81E08E25D7CE1F93CF931B
:101B3000DF93CDB7DEB72C970FB6F894DEBF0FBE9C
:101B4000CDBF4F83588769877A878B879C87CE0163
:101B500007960E94F20B882369F08A859B85892B62
:101B600039F04F815885842F85238F3F09F071C04C
:101B700016E05FC086E0FE013796DE011196019007
:101B80000D928A95E1F78A859B85892B89F38F8150
:101B9000988589238F3F61F32091E60130E0C901E8
:101BA0000196877099274091E5014817190671F44D
:101BB0000E9444091092E6011092E50186E0E7E1F7
:101BC000F2E0DF011D928A95E9F7D2CF96E0929F6D
:101BD000D001939FB00D1124A951BE4FFE01319643
:101BE00001900D929A95E1F78093E6010E94620BB5
:101BF000BFCF819FC001112489519E4F0E94F20BDB
:101C00008823E9F0E091E5011E9FF0011124E951DC
:101C1000FE4F4081518162817381848195810E9450
:101C20007D098091E50190E0019687709927809366
:101C3000E5018091E5019091E6018913DACF2C96B8
:101C40000FB6F894DEBF0FBECDBFDF91CF911F91CD
:101C5000089569857A858B859C850E947D0988CF4A
:101C6000682F80910201909103010C942B1E682F24
:101C700080910201909103010C942D1E809102012C
:101C8000909103010C942F1E80911D0285958595DE
:101C90008595089580911D028770089590911D0289
:101CA000977081E009F480E00895809129020895F9
:101CB00090912902892B8093290208958095909113
:101CC00029029823909329020895109229020895D9
:101CD00090912802892B80932802089580959091F5
:101CE00028029823909328020895109228020895BC
:101CF00010922702089580911E02089508950C9471
:101D00007E0E9091A20292FD08C090911E0298173B
:101D100021F080931E020C947F0E089580911E0284
:101D2000882329F010921E0280E00C947F0E089503
:101D3000E0910201F0910301809129028083E091FA
:101D40000201F0910301808190912802892B808308
:101D5000E0910201F0910301808190912702892B8B
:101D6000808390911E02992381F0E0910201F0910D
:101D700003018081892B808380910201909103016E
:101D80000E94E31D81110E948E0E809102019091AC
:101D900003010C94AC1D08950C94CB0E9091A202FB
:101DA00092FD10C098E0899F90011124622B6093EE
:101DB0001D020E94FF0980911D02859585958595DC
:101DC0000C94CC0E0C94FF0910921D0280E00C9430
:101DD000CC0E90911D028095892380931D02282F9F
:101DE000277091F4282F082E000C330B921713063E
:101DF00059F09091A20292FD07C085958595859531
:101E00000E94200A0C94E40E08959091A20292FB85
:101E1000222720F9281769F080FB92F99093A202FB
:101E20008091A1029091A2020E944A0F82E00C943C
:101E3000E90E08958091A20282FB882780F991E043
:101E400089270C94050F81E00C94050F80E00C9419
:101E5000050F90E080E00E94D42521E0893E9E4F4E
:101E600009F020E0822F089582E090E00C94C625CE
:101E700083E090E00C94C625CF9384E090E00E942C
:101E8000C625C82F82E290E00E94C625982F8C2F8D
:101E9000CF910895CF93C92F682F84E090E00E94DE
:101EA000DA256C2F82E290E0CF910C94DA25AB0119
:101EB000BC018FE090E00C94EC25AB01BC0183E108
:101EC00090E00C94EC2560E070E0CB010C945D0F89
:101ED00060E070E0CB010E94570F0C94630F69EE35
:101EE0007EEF90E080E00E94F82560E082E090E0E4
:101EF0000E94DA2560E083E090E00E94DA251092EB
:101F0000E1011092E2011092E3011092E40160E01D
:101F100084E090E00E94DA2560E082E290E00E9496
:101F2000DA2560E085E090E00E94DA2560E086E056
:101F300090E00E94DA256FEF87E090E00E94DA25BA
:101F400040E050E0BA0188E090E00E94EC2560E0BB
:101F50008DE090E00E94DA2540E050E0BA0188E18F
:101F600090E00E94EC2560E087E190E00E94DA2595
:101F700040E050E0BA018CE190E00E94EC2570E076
:101F800060E080E290E00E94F82540E050E0BA0175
:101F900088E190E00E94EC250C94680F0C946F0F80
:101FA000682F8EE090E00C94DA250E94D21E609398
:101FB00043027093440280934502909346026093DB
:101FC0003F02709340028093410290934202089531
:101FD00085B7806885BF85B7806885BF08950895F7
:101FE00008950C94EF0F08950C94F30F0E94E80FDE
:101FF00083EB92E10E948F1D0E94F00F0C94F10F71
:102000000C941113089508950E9402100C9403106B
:102010000E94BD1E0E9472120E9435030E94431945
:102020000E9416180C94F40FAF92BF92CF92DF92D9
:10203000EF92FF920F931F93CF93DF93CDB7DEB74D
:102040002A970FB6F894DEBF0FBECDBF0E940104E1
:1020500081110E94D50F8BE2A82E82E0B82E10E0ED
:1020600000E0C02E802F0E942E03E82EF501F19093
:102070005F01F81609F44BC08091470281FD0E9470
:1020800034038F2D8E25D12CFF24F394982F9F217C
:10209000C9F10E940010882399F0DE82CF82EF20E0
:1020A00081E009F480E088870E94C61E8160782F55
:1020B0009A8789874E815F8168858A850E94C905D4
:1020C000F801E55DFD4F8081F826F0820E94991DA0
:1020D00090912A02891791F10E94991D80932A02FA
:1020E0002A960FB6F894DEBF0FBECDBFDF91CF9119
:1020F0001F910F91FF90EF90DF90CF90BF90AF9026
:102100000C94C105D394FF0CF5E0DF12BFCF0F5F35
:102110001F4F0431110509F0A4CF8FEF89838A8303
:102120001B820E94C61E8160782F9D838C8349810B
:102130005A816B818D810E94C905C8CF2A960FB63E
:10214000F894DEBF0FBECDBFDF91CF911F910F91ED
:10215000FF90EF90DF90CF90BF90AF900895CF9316
:10216000DF930E949811EC01811523E5920790F509
:10217000811532E5930708F096C081159042C8F4A6
:10218000C11581E0D80788F4C53AD10548F4C430B8
:10219000D10558F4C130D10541F0D0E0C0E005C010
:1021A000CE01805E91090897C0F7CE01DF91CF91F3
:1021B0000895C11591E5D90708F070C0C11520E553
:1021C000D20708F04EC0C11530E4D30730F3DF70FA
:1021D000D06AEBCF811546E59407F0F4C11585E58B
:1021E000D80708F075C0C11594E5D90708F06BC091
:1021F000CE018370992721E030E002C0220F331F07
:102200008A95E2F7C695C69590E2C99FE001112430
:10221000C22BD32BDA68C9CF81152AE5920778F44F
:10222000811539E5930708F05EC0811548E59407EC
:1022300008F4B3CFD82FCC27C06FD06AB6CF905652
:102240008115904208F0A9CF8D2F8F710E942F1217
:1022500090E0982F882788279F719C012C2BE901FB
:1022600040C0CE01E4E096958795EA95E1F783704A
:102270002C2F26952695237040E2249F900111244F
:10228000382B8C2F8370C1E0D0E002C0CC0FDD1F53
:102290008A95E2F7C22BD32BDC6887CFDC2FCC27C3
:1022A000C16FD06A82CF8370992721E030E002C0ED
:1022B000220F331F8A95E2F7C695C69580E2C89F24
:1022C000E0011124E7CFDC2FCC27C46FD06A6DCF9B
:1022D0008C2F0E942F12C82FD0E0DC2FCC27CC27C8
:1022E000DF71D06262CF8F700E942F1234E0D695DA
:1022F000C7953A95E1F7CF709C2FEC01D06955CF87
:10230000972F70E025E0929F600D711D1124FB0155
:1023100094E6899FE00DF11D1124EE0FFF1FE45597
:10232000FF4F8591949108950E9480110C94AF10F5
:1023300082389105B1F1B0F48133910509F475C08B
:1023400048F48932910509F469C08A32910509F48B
:1023500073C008958533910509F459C089339105F7
:1023600001F10895833E9105A9F138F4803E91056D
:10237000F9F0823E910549F10895863E9105A9F153
:10238000873E9105C9F1843E910519F52091A2027D
:1023900021FF1FC08091A10284FD14C087EE90E050
:1023A00008952091A1022370A1F080EE90E008959D
:1023B0002091A10220FD47C03091A20230FF09C048
:1023C00024FF44C090E080E004C02091A10222FDDF
:1023D000F7CF08952091A10222FD3BC03091A202C7
:1023E00030FDE3CF24FFF5CFEDCF2091A10223FFF5
:1023F000F0CF24FDE7CFD2CF2091A10223FD2CC046
:102400003091A20231FFEECF84EE90E0089520914A
:10241000A10225FFDECF89E290E008952091A1027C
:1024200025FFD7CF85E390E008952091A10226FFF4
:10243000D0CF8AE290E008952091A10226FFC9CF73
:1024400081E390E0089589E390E0089583EE90E0C1
:10245000089582EE90E0089586EE90E008959091C0
:10246000A10292FF06C0282F28712830F9F4877F37
:10247000846093FF06C0282F28712831F1F4877EED
:1024800084612091A20220FF06C0382F38713830B5
:10249000D9F4877F816021FF06C0282F2871283159
:1024A000D1F4877E816194FD877E0895282F247161
:1024B0002430F9F68B7F8860DCCF282F24712431FB
:1024C00001F78B7E8861DDCF382F3171313019F7FC
:1024D0008E7F8860E0CF282F2171213121F78E7EF9
:1024E0008861E1CF10929D0210929E0210929F028D
:1024F0001092A0020895CF92DF92EF92FF926B01AB
:102500007C010E94111381110EC00E94D21EC61AB6
:10251000D70AE80AF90AC0929D02D0929E02E09280
:102520009F02F092A002FF90EF90DF90CF9008956D
:102530000F931F930E941113882321F01F910F9175
:102540000C94D21E0E94D21E00919D0210919E02F8
:1025500020919F023091A002600F711F821F931F74
:102560001F910F91089580E0089508950E94290F0A
:10257000811102C00E94CE0F0E94340F8093470247
:102580000E943C0F9093A2028093A1020E94B51278
:102590000E94380F682F70E090E080E00E949D0953
:1025A0006091DD017091DE018091DF019091E00189
:1025B0000C94D7090895FF920F931F93CF93DF9345
:1025C000F82E092F162FD72FC42F222349F081E090
:1025D00080934A020E94C61E90934902809348024B
:1025E00080914A028823A1F080914802909149028B
:1025F0000E94DE1E059760F0EF2DF02FA12FBD2F5A
:10260000CE0FDF2FD11DEC17FD0741F410924A02C7
:10261000DF91CF911F910F91FF90089581918D933C
:10262000F2CF80914B02811107C00E94962588232A
:1026300051F081E080934B0281E090914B02913008
:1026400009F080E0089582E080934B020E9491257A
:10265000F3CF0C9411130E942913809304018091ED
:10266000040165E0882349F080E00E9421160E9461
:102670001113882321F00C944E1385E0F6CF0895B2
:102680000E941113811102C00C945013089581E02F
:1026900090914C029A3008F080E008950C94CE1B83
:1026A0000C94D11BEF92FF920F931F93CF93DF9364
:1026B0007901C82F880FDD0B41155105A9F08AE07B
:1026C0008C9FF0018D9FF00D1124EB5FFE4F8381F5
:1026D0009481835B9D4F228130E04217530708F4B9
:1026E0009A01A9010E94BD25CE010E94DB1C892B05
:1026F00011F501151105E9F08AE08C9FF0018D9F1D
:10270000F00D1124EB5FFE4F458150E004171507D3
:1027100008F4A8018AE08C9FF0018D9FF00D112430
:10272000EB5FFE4F66817781635B7D4FC7010E943F
:10273000BD2581E001C080E0DF91CF911F910F9115
:10274000FF90EF9008950C9407150C942B150F93A0
:102750001F93CF93DF9300D000D0CDB7DEB7609149
:1027600076027091770280917802909179020E94AE
:10277000ED1E11E0643671058105910518F10E9486
:1027800098126E5F7F4F8F4F9F4F69837A838B8341
:102790009C8310E000E030E020E044E050E0BE0127
:1027A0006F5F7F4F82E00E945213182F882351F0F1
:1027B0000E94D21E60937602709377028093780213
:1027C00090937902812F0F900F900F900F90DF91CF
:1027D000CF911F910F9108950F931F93CF93DF9384
:1027E000CDB7DEB728970FB6F894DEBF0FBECDBFCA
:1027F000CE0101960E945F18188560917A0270914F
:102800007B0280917C0290917D020E94ED1E6436D5
:1028100071058105910510F41123C1F010E000E06D
:1028200030E020E048E050E0BE016F5F7F4F83E082
:102830000E945213882369F00E94D21E60937A028C
:1028400070937B0280937C0290937D020E945C18BF
:1028500081E028960FB6F894DEBF0FBECDBFDF91A2
:10286000CF911F910F910895AF92BF92CF92DF92B7
:10287000EF92FF920F931F93CF93DF93CDB7DEB705
:102880002B970FB6F894DEBF0FBECDBF7B01C09073
:102890005801D090590101E010E09E01255F3F4FA3
:1028A00050E040E070E060E080E00E945213182F9A
:1028B000882309F448C056018FEFA81AB80A60911E
:1028C00072027091730280917402909175020E945D
:1028D000ED1E643671058105910568F10AE010E08E
:1028E0009E012F5F3F4F50E040E070E060E081E0EC
:1028F0000E945213D82E6AE070E0C5010E9444196C
:1029000011E09B85981310E01D2141F10E94D21E19
:1029100060937202709373028093740290937502B5
:102920008AE0FE013196A8E6B2E001900D928A9508
:10293000E1F711E013C06AE070E0C5010E9444199C
:102940009B858913CBCF8AE0F6013196DE01119683
:1029500001900D928A95E1F71111E2CF8AE0E8E645
:10296000F2E0D70101900D928A95E1F7812F2B9625
:102970000FB6F894DEBF0FBECDBFDF91CF911F9190
:102980000F91FF90EF90DF90CF90BF90AF900895A0
:10299000AF92BF92CF92DF92EF92FF920F931F936D
:1029A000CF93DF937C015B016A010E94471301E032
:1029B00010E0882311F00AE010E0C1E0D0E0F894C4
:1029C000B501C701F60109957894811104C02196DB
:1029D0000C171D075CF4DF91CF911F910F91FF90B1
:1029E000EF90DF90CF90BF90AF900895CC9F900173
:1029F000CD9F300D300D112490E080E045E34A95E5
:102A0000F1F70000019682179307C1F7D8CF0F9313
:102A10001F93CF93DF93EC018B0144E354E10E94B9
:102A2000C814882391F047EA53E1B801CE010E940F
:102A3000C814882351F04CEE53E1B801CE01DF9168
:102A4000CF911F910F910C94C81480E0DF91CF912A
:102A50001F910F9108950F931F93CF93DF93F894D5
:102A6000C0915801D0915901CE0101962AE0FB0195
:102A7000DC0101900D922A95E1F76AE070E00E9476
:102A8000441988837894F8946B857C858D859E8520
:102A900000916402109165022091660230916702F4
:102AA000601771078207930751F060936402709377
:102AB000650280936602909367020E947B1278946D
:102AC000F8948E89882331F060E0CE010F960E9441
:102AD00072181E8A7894DF91CF911F910F910895FB
:102AE0000E9477200E9408100C9483200E94872067
:102AF0000E9414100C94A1200E94501E0E945E207F
:102B00000E94F60F0E9470150E9476150E94041014
:102B1000FBCFEF92FF920F931F93CF93DF93EB01C5
:102B2000E82FD11110C0442321F0F0E0E453FC4F12
:102B3000E4916E2F7E2F8E2FDF91CF911F910F91F9
:102B4000FF90EF9008950D2F10E0282F30E04423E0
:102B500029F024533C4FF901249130E0F6E0CF9F57
:102B6000C0011124EFEFF0E0BF010E94A325AB01EB
:102B70008C2F90E0880F991FA5E5A49FB001A59F19
:102B8000700D1124861B970B982F990F980FBF017A
:102B9000601B710B629FD001639FB00D729FB00DDF
:102BA00011248B2F9D9FB0011124672F7727EF01F0
:102BB000C61BD70BBE01629FE001639FD00D729FC1
:102BC000D00D11247F01E91AF108E09EB001E19EC9
:102BD000700DF09E700D1124672F7727E61BF70B01
:102BE000E29F8001E39F100DF29F100D1124E12F51
:102BF000722F4230510599F048F44115510569F0A2
:102C00004130510581F0EB2F8D2F07C04430510525
:102C100069F080F046305105B1F76E2F8DCFE22F6D
:102C20007B2F812FFACFE22F7D2FF7CFEB2F822F33
:102C3000712FF3CF7B2F822FED2FEFCF41E00C943C
:102C40008915EDE2F1E08083618308950C941E16EE
:102C5000CF93DF93762FE901682F842F0E942616E9
:102C6000798368838A83DF91CF9108958091A4024C
:102C7000982F9E7F39F48091A402817082608093A6
:102C8000A40208958430B8F7089588E090E00C9489
:102C9000CE25CF92DF92EF92FF926B017C010E94D2
:102CA0003616B701A60188E090E0FF90EF90DF9024
:102CB000CF900C94EC25E4EAF2E083E0808311826B
:102CC0008FEF828383831482A1E8B2E012968C9105
:102CD0001297836012968C936081718182819381B7
:102CE0000C9449169091A802933018F49F5F90932A
:102CF000A802882351F06091A4027091A5028091EE
:102D0000A6029091A7020C944916089581E00C94B4
:102D100072169091A802992319F091509093A802ED
:102D2000882351F06091A4027091A5028091A602BF
:102D30009091A7020C944916089581E00C9489168D
:102D400070E00C94171960912E018091A40280FF0D
:102D50000AC080912D0123E0829FC0011124875574
:102D60009D4F0C94A01680912F019091300123E08B
:102D7000829FF0011124E755FD4F891750F711820A
:102D8000108212828F5F3396F8CFE4EAF2E08081FE
:102D90008E7F808360817181828193810E94491638
:102DA000E1E8F2E08281816082832FEF80E792E0A8
:102DB000215080409040E1F700C000000C94A31621
:102DC000E4EAF2E080818E7F8083E1E8F2E08281B4
:102DD000816082832FEF80E792E021508040904015
:102DE000E1F700C000000C94A31680917F028111CE
:102DF0000AC081E080937F028091A4028170809359
:102E00007E020C94E01608959091A40290FF14C0E5
:102E100090912F012091300133E0939FF001112414
:102E2000E755FD4F921710F00C94A3168183608331
:102E300042839F5F3396F6CF0895EF92FF920F93F0
:102E40001F93CF93DF9300D00F92CDB7DEB7F82E4C
:102E5000062F142FE22E8091A40280FF39C0E82FA4
:102E6000E695F0E0E65AFE4F9081909381028E7FC6
:102E7000823059F49E012F5F3F4F8F2D0E942816FC
:102E80004B8169818A810E9404178091A5028F116C
:102E900008C08091A602801304C08091A702811708
:102EA00029F080918302826080938302F092A502D0
:102EB0000093A6021093A702EE2051F06091A402A5
:102EC0007091A5028091A6029091A7020E944916D6
:102ED0000F900F900F90DF91CF911F910F91FF9066
:102EE000EF900895E4EAF2E09181282F4381628116
:102EF00088E0890F0C941D1781E00C947217E4EAA6
:102F0000F2E09181282F4381628188EF890F0C9430
:102F10001D1781E00C947F17E4EAF2E0628128E05B
:102F2000620F08F46FEF282F438181810C941D17E5
:102F300081E00C948C17E4EAF2E0628128E0621BE5
:102F400008F460E0282F438181810C941D1781E0F3
:102F50000C949B17E4EAF2E0438128E0420F08F466
:102F60004FEF282F628181810C941D1781E00C9412
:102F7000AA17E4EAF2E0438128E0421B08F440E0AB
:102F8000282F628181810C941D1781E00C94B91760
:102F900020E00C941D178091A40280FF1DC0817059
:102FA00082608093A4028091830281608093830277
:102FB000662351F06091A4027091A5028091A6024F
:102FC0009091A7020E9449164091A7026091A60223
:102FD0008091A5020C94C8170895682F81E00C9485
:102FE000CB1781E00C94ED17682F9091A402969571
:102FF0008FEF890F09F481E00C94CB1781E00C94DA
:10300000F41761E00C94CB17E4EAF2E08081816070
:10301000808386950C9401188091A40280FD0C9405
:10302000C5160C94041860E00C94CB1780918002B4
:10303000811131C00E94290F811104C00E94CE0F5E
:103040000E945B160E9445166093A4027093A5022D
:103050008093A6029093A70280918302836080935D
:1030600083026E7F61F40E945B160E944516609396
:10307000A4027093A5028093A6029093A7020E94D7
:1030800036168091A40280FF03C086950E94131813
:1030900081E0809380020895E4EAF2E0808181601B
:1030A000808386950C94131810927F0280917E0283
:1030B00081110C944C18089510928302089525E014
:1030C000E4EAF2E0DC0101900D922A95E1F720910B
:1030D00081023091820240918302FC012583368374
:1030E000478308951F93CF93DF93EC01162F8F81B1
:1030F00080FF0CC0888180FF15C08091A402816090
:103100008093A402888186950E94CB178F8181FFCE
:103110000CC0212F4B816A818981DF91CF911F9152
:103120000C941D170E94E016F1CFDF91CF911F91F3
:103130000895FA01811101C0FB0109941F93CF93F7
:10314000DF93EC01FB01128111114FC00E94550E5B
:103150008272CA3CFCE5DF0709F460C030F5C63C6A
:10316000ECE5DE0709F455C060F4C43C9CE5D907E2
:1031700009F443C008F048C0C33CDC45D9F111E074
:1031800034C047EA57E168E977E1C83C9CE5D907D4
:10319000C1F14CE757E169E877E1C93CDC4588F1CA
:1031A00048E957E167EA77E12CC0CE3CFCE5DF0750
:1031B000D1F1A0F44DE956E166E876E1CC3CECE5CE
:1031C000DE07F9F046EB57E165EC77E1CD3CDC45F5
:1031D000C0F046E856E16DE976E113C0C73D8CE5E5
:1031E000D80718F0CE35DD4551F6812FDF91CF910C
:1031F0001F9108950E940C18F8CF4EEF57E161EF30
:1032000077E10E949918F1CF41EF57E16EEF77E136
:10321000F8CF49E857E16CE777E1F3CF45EC57E1A8
:1032200066EB77E1EECF81E00E940118DECF539A82
:103230004BB1477F5BB15860EFB7F8949B01220F09
:10324000331F260F371F280F391F2817390741F45E
:10325000EFBF8FE594E00197F1F700C000000895FB
:10326000DC016D91CD0178E05BB9000000C067FF23
:103270004BB9660F000000C000C000C04BB900C0D1
:103280007A9591F7E2CF0895FC01680F791F8FEFCF
:1032900091E36E177F0709F408952191822728E0B2
:1032A00030E087FF06C0880F892721503109C9F710
:1032B000F0CF880FFACFCF93DF93EC01FB0182812F
:1032C000882309F420C1C430FDE5DF07C8F5CB3FF2
:1032D0009CE5D90730F49E0122503C45243131054C
:1032E00098F50E943C0F9093A2028093A102C031F6
:1032F000FCE5DF0709F4E0C008F061C0C8309CE5D8
:10330000D90709F4CBC088F5C430FCE5DF0709F420
:10331000B3C0E8F4C2309CE5D90709F4A7C0809196
:10332000A1028260C330DC4509F4A3C08091A102F0
:103330009091A2020E944A0F0E94440980E004C0BA
:10334000C236EDE5DE0769F2DF91CF9108958091F5
:10335000A1028061C630FCE5DF0709F48AC008F4E9
:103360008FC08091A102806284C08091A1028D7F74
:10337000CC309CE5D90709F47CC070F48091A1029F
:103380008C60CA30FCE5DF0709F473C008F48AC01A
:103390008091A1028E7F6DC08091A102877FCE3087
:1033A0009CE5D90709F465C08091A1028B7FCF30DD
:1033B000DC4508F45EC08091A1028F7E5AC0CD3FEB
:1033C000FCE5DF0709F474C040F5C4319CE5D9077A
:1033D00009F48AC058F4C231FCE5DF0709F474C06F
:1033E00008F46EC08091A102837F43C0CB3F9CE56F
:1033F000D90709F449C008F04DC0C531DC4509F0D2
:1034000095CF8091A10282FB992790F921E0922724
:1034100090FB82F990FB83F92CC0C1308DE5D80771
:1034200009F458C088F48091A2028360CF3FECE594
:10343000DE0769F18091A2028D7FC115DD4538F16B
:103440008091A2028C7F23C0C3308DE5D80709F498
:1034500058C008F452C0C236DD4509F067CF9091DC
:10346000A102892F8F7E94FF806103C08091A10209
:1034700081608093A1025ACF8091A1028460F9CF2C
:103480008091A1028860F5CF8091A2028160809333
:10349000A2024CCF8091A2028260F9CF8091A1025A
:1034A0008064E7CF0E9444098091A1028068E1CF47
:1034B0008091A2028E7FEBCF8091A1028F7DD9CF28
:1034C0008091A1028F7BD5CF0E9444098091A102F7
:1034D0008F77CFCF8091A202982F909591708E7F99
:1034E000892B90FB81F9D3CF0E9444099091A102CE
:1034F000892F97FB87F98058BCCF81E00E94D00FBD
:1035000015CF80E0FBCF81E01FCFCF93DF93EB019E
:1035100086319C4511F50E94550E9A81992399F0A8
:103520008A7A91E009F490E090938402811109C0B5
:1035300089E20E94300E0E94980E80E0DF91CF91C8
:10354000089585E3F6CF80918402811104C089E259
:103550000E94370EF0CF85E3FBCF81E0EFCF0F93D2
:103560001F93CF93DF93C42FD22FFC018281882336
:10357000C9F0409387020E94C61E909386028093F2
:10358000850280E28C0F883008F050C0C77081E05F
:1035900001C0880FCA95EAF7DF91CF911F910F9173
:1035A0000C94EA0610918702141335C080918502AD
:1035B000909186020E94DE1E883C910560F5C0E273
:1035C000CD0F1D17B9F080E2810F883040F41770DD
:1035D00081E001C0880F1A95EAF70E94F106C83011
:1035E00048F481E09D2F977001C0880F9A95EAF703
:1035F0000E94EA06802F0E94E206C830B8F4D77015
:1036000081E001C0880FDA95EAF7DF91CF911F9131
:103610000F910C94F10680E28C0F883038F4C7705B
:1036200081E001C0880FCA95EAF7EFCFDF91CF9113
:103630001F910F9108950F939C01CB01243F4CE5FE
:10364000340759F1A8F4293DFCE53F0701F12A3D73
:103650004CE53407D1F1283D3C4591F406E221EEDA
:1036600041EE68ED7CE50E94AF1A80E00F9108956D
:10367000263FFCE53F07E9F0B0F0273F3C45F9F075
:10368000FC018281882339F110928702EFCF07E293
:1036900025EE45EE69ED7CE5E6CF06E221EE40EE53
:1036A00064EF7CE5E0CF07E225EE44EE65EF7CE5D4
:1036B000DACF06E221EE42EE66EF7CE5D4CF07E2F8
:1036C00025EE46EE67EF7CE5CECF08E221E045EE41
:1036D0006AED7CE5C8CF81E0C9CF8EE14A9B02C08C
:1036E0008150E1F74A9BFECF08955A9880E28A956F
:1036F000F1F75A9A0895FC013BE03A95F1F798E00A
:1037000020E080E031E040E14A95F1F7880F4A9BE4
:1037100002C08160232742E04A95F1F7000040E1B2
:103720004A95F1F7915079F790E19A95F1F799B1AF
:1037300032E03A95F1F7000040E14A95F1F792FB4B
:10374000992790F992272081920F90830895EF9204
:10375000FF920F931F93CF93DF930F92CDB7DEB7F6
:1037600019828C017C01E60EF11C0E151F0561F417
:1037700081E09981911180E00F90DF91CF911F91AD
:103780000F91FF90EF9008950E946D1BCE0101965E
:103790000E947B1BF80181938F01E7CF529A5A9ABE
:1037A000089552985A9AEA9AE9E6F0E080818F7C6F
:1037B000808308956150770B91E001C0990F6A955D
:1037C000EAF720E031E0911108C0222391F05A9AE3
:1037D00080E28A95F1F75A980895492F482339F0E5
:1037E0005A9A232740E24A95F1F79695ECCF5A98DA
:1037F000F9CF5A98EDCFFF920F931F93CF93DF939A
:10380000EC018C01060F111DC017D10731F4DF91B7
:10381000CF911F910F91FF900895F9900E94751B11
:1038200068E08F2D0E94DA1BEFCF1F920F920FB628
:103830000F921124EF92FF920F931F932F933F93B8
:103840004F935F936F937F938F939F93AF93BF93A8
:10385000EF93FF93CF93DF930F92CDB7DEB719822B
:103860000E946D1BCE0101960E947B1BA82FA6957E
:10387000A695A695282F229525709A2F9570290F29
:10388000922F937026952695920F9827977089818D
:10389000982B09F075C0A53008F072C080E18A95B8
:1038A000F1F75A9A529AB2E0BA95F1F700C05A98D5
:1038B000EA2EF12CEAE0AE9FD0011124AB5FBE4F9F
:1038C0001896ED91FC9119973097B1F060915801DD
:1038D0007091590116962D913C911797260F371F1D
:1038E00013968D919C911497680F791F15964C91A2
:1038F000159712968C9109958AE08E9DF0018F9D07
:10390000F00D1124EB5FFE4F6581662351F020918D
:1039100058013091590186819781820F931F0E942F
:10392000FB1B0E94751BF0E1FA95F1F75A9852982B
:103930005A9A80E18A95F1F78AE08E9D80018F9DE9
:10394000100D11240B5F1E4FD80112966C91129727
:10395000662371F1209158013091590113968D9190
:103960009C91820F931F0E94A71BD801ED91FC919F
:10397000882311F088E001C082E080830E946D1BE3
:103980000F90DF91CF91FF91EF91BF91AF919F91F8
:103990008F917F916F915F914F913F912F911F91E7
:1039A0000F91FF90EF900F900FBE0F901F90189502
:1039B000ED91FC91DFCF0F931F93CF93DF93EC0139
:1039C00005970CF0A9C08AE08C9FF0018D9FF00D47
:1039D0001124EB5FFE4F80819181892B09F49CC0FB
:1039E000F894529A5A9885E08A95F1F700008C2F46
:1039F000869585709C2F9570890F982F937086956A
:103A00008695890F8E0193E0000F111F9A95E1F7BB
:103A1000082B0E94751B00C068E0802F0E94DA1BF3
:103A2000A0E1AA95F1F752985A9A4A9B27C087E0DD
:103A300090E04A9925C08AE08C9F80018D9F100DEF
:103A400011240B5F1E4FF80165816623A1F12091BF
:103A500058013091590186819781820F931F0E94EE
:103A6000A71B811128C0529A5A9AD801ED91FC9156
:103A700082E08083789482E090E016C000C0D5CFC9
:103A80000197B9F4529A5A9A8AE08C9FF0018D9F5F
:103A9000F00D1124EB5FFE4F0190F081E02D81E0ED
:103AA0008083789481E090E0DF91CF911F910F9116
:103AB000089500C0BECF0E946D1BB0E2BA95F1F729
:103AC0005A98529AE0E1EA95F1F78AE08C9FF0016A
:103AD0008D9FF00D1124EB5FFE4F6281662351F044
:103AE000209158013091590183819481820F931F55
:103AF0000E94FB1B0E94751B8AE08C9FF0018D9F2A
:103B0000F00D1124EB5FFE4F0190F081E02D10824B
:103B1000789490E080E0C8CF84E090E0C5CF9093A7
:103B20005D0180935C01089590938E0280938D02D5
:103B300008950E941113811103C080918802089595
:103B4000E0918D02F0918E02309721F00190F0818A
:103B5000E02D099480E00895E0918D02F0918E02AD
:103B6000309721F00280F381E02D0994089520918F
:103B70008B0230918C022817390771F090938C02D8
:103B800080938B02E0918D02F0918E02309721F0AC
:103B90000680F781E02D09940895209189023091E3
:103BA0008A022817390771F090938A02809389025C
:103BB000E0918D02F0918E02309721F00084F18522
:103BC000E02D099408959C012E5F3F4FAC01485FA2
:103BD0005F4F80E02417350709F40895F9019191AA
:103BE0009F019923B9F38F5FF5CF662349F0FC015C
:103BF000329608962191261729F0E817F907D1F790
:103C000080E0089581E008959C01FC0132969FEFC9
:103C100080E04191461751F09F3F19F4411101C0D6
:103C2000982F8F5F8630A9F79F3F09F40895290FD9
:103C3000311D97FD3A95F90162830895FC01329692
:103C400008962191261303C0DF0111971C92E817F3
:103C5000F907B9F708950C94041E0C941E1E0296E1
:103C600026E0FC0111922A95E9F7089508950C9435
:103C7000361E811105C081E080938F020C94371E9F
:103C800082E0FACF83E080938F020C94371E0C946D
:103C9000391E81E080938F020C94371E0C94491ECC
:103CA00008958091CF02843031F10E944105109235
:103CB000900288E190E020E40FB6F894A8958093F4
:103CC00060000FBE2093600083B7817F846083BF54
:103CD00083B7816083BF7894889583B78E7F83BFD5
:103CE0000FB6F894A8958091600088618093600079
:103CF000109260000FBE089508950895CF930E941A
:103D00007C1E0E9401040E947D1EC0E08C2F0E9438
:103D10002E03811105C0CF5FC431C1F7CF91089543
:103D200081E0FCCF0E9444090C94B1051F921FB69C
:103D30001F9211248F939F93AF93BF938091900212
:103D4000811113C08091C7029091C802A091C9024D
:103D5000B091CA024196A11DB11D8093C7029093F4
:103D6000C802A093C902B093CA02BF91AF919F91BC
:103D70008F911F901FBE1F90189582E084BD93E025
:103D800095BD9AEF97BD80936E0008952FB7F89474
:103D90008091C7029091C802A091C902B091CA0255
:103DA0002FBF08952FB7F8946091C7027091C80291
:103DB0008091C9029091CA022FBF08959C014FB70C
:103DC000F8948091C7029091C802A091C902B09165
:103DD000CA024FBF821B930B0895CF92DF92EF92DE
:103DE000FF922FB7F894C090C702D090C802E0901D
:103DF000C902F090CA022FBFA7019601261B370BFC
:103E0000480B590BCA01B901FF90EF90DF90CF909A
:103E1000089578941F921FB61F9211248F939F9339
:103E2000AF93BF938091C7029091C802A091C9023D
:103E3000B091CA020196A11DB11D8093C702909353
:103E4000C802A093C902B093CA02BF91AF919F91DB
:103E50008F911F901FBE1F90189587E797E790934B
:103E600001088093000888E19AE00FB6F894A895BD
:103E7000809360000FBE90936000FFCF8091990205
:103E8000089508950895CF93DF93EC0181E0809326
:103E9000E9008FEF9091E800815095FD06C095ED07
:103EA0009A95F1F700008111F5CF8091E80085FF28
:103EB00014C050E040E068E070E0CE010E940021B4
:103EC0008091E8008E778093E80088E0FE01A1E908
:103ED000B2E001900D928A95E1F7DF91CF910895BC
:103EE000089508958091CE02811109C00E94902208
:103EF0000E94ED228091E20084608093E2000895A8
:103F00001092CE0208950C94491E6091CB0281E07C
:103F1000611101C080E00C94421E9091CF0281E0BB
:103F2000943009F080E06091CB020C94471E42E08F
:103F300061EC81E00E940C229091CF0281E09430EC
:103F400009F080E06091CB020C94391E8091D1027F
:103F5000833009F460C030F48130C9F1823009F453
:103F60009CC008958A3009F488C08B3009F46EC073
:103F7000893009F04FC08091D002813209F04AC0E7
:103F80008091D4029091D502892B09F043C0809191
:103F9000E800877F8093E8008091E80082FF36C0C8
:103FA0009091F3008091F200029731F48091F1003A
:103FB000813011F0863021F48091F10080939902D4
:103FC0008091E8008B778093E8000C9440228091E8
:103FD000D002813AF9F48091E800877F8093E8006D
:103FE0008091D4029091D502892B61F468E081E937
:103FF00092E070E00E944F218091E8008B778093DF
:10400000E800089560E090E080E0F3CF8091CF0277
:104010008111C2CF08958091D002813AD9F7809161
:10402000D4029091D502892BA9F78091E800877F6F
:104030008093E8008091E80080FFFCCF80913E01F2
:104040008093F1008091E8008E77BDCF8091D002FF
:10405000813201F78091D4029091D502892BD1F65B
:104060008091E800877F8093E8000E944022809141
:10407000D20280933E010C9444098091D002813297
:1040800049F68091E800877F8093E8000E944022F3
:104090008091D30280939A0208958091D002813A50
:1040A00009F0B8CF8091E800877F8093E800809185
:1040B000E80080FFFCCF80919A02C2CF84B7877F4F
:1040C00084BF0FB6F894A8958091600088618093B2
:1040D0006000109260000FBE80E890E00FB6F89488
:1040E00080936100909361000FBE0C944E1E0E945D
:1040F00090220E94ED22E2EEF0E0808184608083D5
:1041000078940C94762582E391E00C94941D809130
:10411000CF028530A9F48091CF02853011F00C9444
:10412000921E0E94511E8091CD028823A1F30E940D
:104130007E1E882381F30E94EA200E944409EBCF6F
:10414000089508950C94A420292F33272330310596
:10415000C9F058F42130310599F122303105A9F127
:1041600090E080E030E020E01DC02132310509F10F
:1041700022323105A9F780E490E022E235E0672B96
:1041800079F710C099278130910581F0009729F0C7
:10419000029731F7ECECF4E002C0EAEEF4E084912F
:1041A00090E09F01FA01318320830895E2EEF4E06C
:1041B000F6CF89E090E020E035E0672B89F6F2CF7A
:1041C00082E190E020E135E0EDCF82E290E02EEE5A
:1041D00034E0E8CF80E189BD82E189BD09B400FE09
:1041E000FDCF8091D8008F7D8093D8008091E00032
:1041F00082608093E0008091E00081FDFCCF089513
:10420000AF92BF92CF92DF92FF920F931F93CF9303
:10421000DF936C01EB018A010E945F22F82E81116D
:1042200023C00115110539F0F80180819181C81B67
:10423000D90BC80ED91EB12CA12C2097A9F08091C2
:10424000E80085FD22C08091E8008E778093E80029
:1042500001151105A1F0F80180819181A80EB91E08
:10426000B182A08285E0F82E8F2DDF91CF911F9132
:104270000F91FF90DF90CF90BF90AF9008950E9474
:104280005F228823D1F2F82EEFCFF60181916F01E2
:104290008093F1002197FFEFAF1ABF0ACECFFC0148
:1042A0008091D6029091D70286179707A0F06115EA
:1042B000710529F49091E8009E779093E80090E0D2
:1042C0006115710551F4911108C08091E80082FFD9
:1042D00034C080E00895BC01F2CF8091CF028823E2
:1042E000C1F18530C1F18091E80083FD30C080913B
:1042F000E80082FDEACF8091E80080FFE1CF809165
:10430000F3002091F200382F6115710519F0283063
:10431000310558F091E02830310509F090E0209106
:10432000E8002E772093E800CBCF81918093F100B5
:10433000615071092F5F3F4FE7CF8091CF028823F3
:1043400041F0853041F08091E80083FFBECF81E0ED
:10435000089582E0089583E00895FC018091D602DB
:104360009091D70286179707A0F06115710529F47F
:104370008091E8008E778093E80090E061157105E8
:1043800051F4911108C08091E80082FF35C080E0AF
:104390000895BC01F2CF8091CF028823C9F1853006
:1043A000C9F18091E80083FD31C08091E80082FD71
:1043B000EACF8091E80080FFE1CF8091F300209167
:1043C000F200382F6115710519F02830310558F0C9
:1043D00091E02830310509F090E08091E8008E7777
:1043E0008093E800CBCF84918093F10031966150A7
:1043F00071092F5F3F4FE6CF8091CF02882341F0B4
:10440000853041F08091E80083FFBDCF81E00895C1
:1044100082E0089583E00895982F973028F08F70F8
:104420008093E90081E008959093E900242F762F8E
:1044300050E0981731F07091EC002091ED00509110
:10444000F00021FD02C09F5FE8CF3091EB003E7F7E
:104450003093EB003091ED003D7F3093ED003091D3
:10446000EB0031603093EB007093EC002093ED0093
:104470005093F0002091EE0027FDE5CF80E00895F5
:104480008091D00287FF13C08091E80082FF06C0B0
:104490008091E8008B778093E80004C08091CF0280
:1044A0008111F2CF08958091CF028823D9F38091B2
:1044B000E80080FFF8CF8091E8008E77ECCF209164
:1044C000E4003091E50095E6A9012091EC00822FEF
:1044D000817020FF06C08091E80080FF06C080E068
:1044E00008952091E80022FD1AC08091CF02882310
:1044F00089F0853089F08091EB0085FD0FC0209117
:10450000E4003091E50042175307F9F29150E1F6CB
:1045100084E0089582E0089583E0089581E008959D
:104520000E94FE220E940623E0EEF0E0808181607E
:104530008083E8EDF0E080818F77808319BCA7ED60
:10454000B0E08C918E7F8C9380818F7E80831092DF
:10455000CE0208950F931F93CF93DF930E94FE2204
:104560000E940623C8EDD0E088818F7788838881F8
:104570008068888388818F7D888319BC1092CF02E0
:104580001092CB021092CD021092CC0200EE10E0FD
:10459000F80180818B7F808388818160888342E0FD
:1045A00060E080E00E940C22E1EEF0E080818E7FEE
:1045B0008083E2EEF0E0808181608083808188608A
:1045C0008083F80180818E7F8083888180618883E9
:1045D000DF91CF911F910F910895E8EDF0E0808178
:1045E0008F7E8083E7EDF0E080818160808384E0CE
:1045F00082BF81E08093CE020C94AA22E8EDF0E025
:1046000080818E7F80831092E20008951092DA00FC
:104610001092E10008951F920F920FB60F9211248D
:104620002F933F934F935F936F937F938F939F93BA
:10463000AF93BF93EF93FF938091E10082FF0BC094
:104640008091E20082FF07C08091E1008B7F809320
:10465000E1000E9475258091DA0080FF19C08091E9
:10466000D80080FF15C08091DA008E7F8093DA0039
:104670008091D90080FF96C080E189BD82E189BD2B
:1046800009B400FEFDCF81E08093CF020E94721F2B
:104690008091E10080FF19C08091E20080FF15C089
:1046A0008091E2008E7F8093E2008091E200806141
:1046B0008093E2008091D80080628093D80019BC7A
:1046C00085E08093CF020E94851F8091E10084FFE6
:1046D0002BC08091E20084FF27C080E189BD82E188
:1046E00089BD89B5982F917080FFFBCF8091D8004C
:1046F0008F7D8093D8008091E1008F7E8093E100D0
:104700008091E2008F7E8093E2008091E2008160E0
:104710008093E2008091CB02882309F449C084E0B1
:104720008093CF020E948D1F8091E10083FF29C0FA
:104730008091E20083FF25C08091E100877F809314
:10474000E10082E08093CF021092CB028091E100E1
:104750008E7F8093E1008091E2008E7F8093E20063
:104760008091E20080618093E20042E060E080E0BE
:104770000E940C228091F00088608093F0000E94DB
:10478000831FFF91EF91BF91AF919F918F917F9187
:104790006F915F914F913F912F910F900FBE0F90AE
:1047A0001F90189519BC1092CF020E94801F70CFE5
:1047B0008091E30087FD93E09093CF02B3CF1F92E7
:1047C0000F920FB60F9211242F933F934F935F9345
:1047D0006F937F938F939F93AF93BF93CF93DF9309
:1047E000EF93FF93D091E900DF708091EC00C82F28
:1047F000C17080FDC0E81092E9008091F000877FD1
:104800008093F00078940E9423241092E900809114
:10481000F00088608093F000CD2BCF70C093E9004A
:10482000FF91EF91DF91CF91BF91AF919F918F91C8
:104830007F916F915F914F913F912F910F900FBE9C
:104840000F901F9018951F93CF93DF93CDB7DEB7CE
:10485000AA970FB6F894DEBF0FBECDBF80ED92E0F1
:104860002091F100FC012193CF01F2E0883D9F07E8
:10487000B9F70E94A61F8091E80083FF1EC18091B6
:10488000D0029091D1029A3008F017C1E92FF0E0E0
:10489000E65DF94D0C94B725803899F0823809F01F
:1048A0000CC18091D4028F70873008F006C18093CC
:1048B000E9008091EB0085FB882780F91092E900E0
:1048C00006C08091CC029091CD02911182609091AE
:1048D000E800977F9093E8008093F1001092F10038
:1048E0008091E8008E77E5C0882309F4D3C0823038
:1048F00009F0E3C08091D2028111D6C08091D40228
:104900008F702FEF280F263008F0D7C08093E90072
:104910002091EB0020FFC8C0933031F48091EB0070
:1049200080628093EB00C0C09091EB009061909307
:10493000EB0021E030E001C0220F8A95EAF72093D6
:10494000EA001092EA008091EB008860EACF8111C2
:10495000B4C01091D2021F778091E3008078812B40
:104960008093E3008091E800877F8093E8000E94B5
:1049700040228091E80080FFFCCF8091E3008068B6
:104980008093E30082E0111183E08093CF0295C011
:104990008058823008F091C08091D2029091D30269
:1049A0008C3D23E09207A1F583E08A838AE2898324
:1049B0004FB7F894DE01139620E03EE051E2E32F7A
:1049C000F0E050935700E49120FF03C0E295EF70B0
:1049D0003F5FEF708E2F90E0EA30C0F0C7968D9366
:1049E0009D932F5F243159F74FBF8091E800877F57
:1049F0008093E8006AE270E0CE0101960E944F21A8
:104A00008091E8008B778093E80057C0C096E7CF8D
:104A10006091D4027091D502AE014F5F5F4F0E944A
:104A2000A220BC01892B09F448C09091E800977F2F
:104A30009093E80089819A810E94AD21E1CF80386E
:104A4000E1F58091E800877F8093E8008091CB02B8
:104A50008093F10045CF811130C09091D202923005
:104A600060F58091E800877F8093E8009093CB0207
:104A70000E9440228091CB02882311F084E005C07F
:104A80008091E30087FDFACF81E08093CF020E94FE
:104A9000971F13C08091D202813079F481E0933066
:104AA00009F080E08093CD021092E9008091E80047
:104AB000877F8093E8000E9440228091E80083FF76
:104AC0000AC08091E800877F8093E8008091EB0026
:104AD00080628093EB00AA960FB6F894DEBF0FBEFB
:104AE000CDBFDF91CF911F9108950895CF9380910D
:104AF000CF028823A1F0C091E900CF709091EC0023
:104B0000892F817090FD80E8C82B1092E900809178
:104B1000E80083FD0E942324CF70C093E900CF9169
:104B200008950E9490221092CF020895E8EDF0E0DF
:104B30008081806180838AE18A95F1F700C080914D
:104B4000D90081700895AA1BBB1B51E107C0AA1FA1
:104B5000BB1FA617B70710F0A61BB70B881F991F1E
:104B60005A95A9F780959095BC01CD010895EE0F57
:104B7000FF1F0590F491E02D0994FB01DC0102C0B8
:104B800001900D9241505040D8F70895F999FECF09
:104B900092BD81BDF89A992780B50895A6E1B0E04D
:104BA00044E050E00C940026A8E1B0E042E050E080
:104BB0000C940026262FF999FECF92BD81BDF89A5C
:104BC000019700B4021639F01FBA20BD0FB6F89451
:104BD000FA9AF99A0FBE08950396272F0E94DB25B3
:104BE0000E94DA25252F0E94DB25242F0C94DB253B
:104BF0000196272F0E94DB250C94DA25DC01CB01DE
:104C0000FC01F999FECF06C0F2BDE1BDF89A3196DC
:104C100000B40D9241505040B8F70895F894FFCF7A
:104C200036073607670767079607960796079607BA
:104C3000FA07860895089508530953095C095C0929
:104C40005E095C095C095C095309530963095C0945
:104C50005C0963094C2474245D2574245D25A72414
:084C6000C8245D251F252B254A
:104C6800C8001F0201A3020000000100000000A309
:104C7800020000000A01000000A302040B0000006B
:104C8800000000A302080F000000000000000A0056
:104C98000A0A3E1F431F701F411F711F421F013424
:104CA800C6663632F5F6F79735F5F6F7973500000C
:0C4CB80000000000000000004D020001A0
:00000001FF
