:100000000C9431020C9478020C9478020C946917C9
:100010000C9478020C9478020C9478020C94780278
:100020000C9478020C9478020C945F1E0C94331F8D
:100030000C94EA190C9478020C9478020C947802CF
:100040000C9478020C9478020C9478020C94780248
:100050000C9478020C945D1A0C9478020C9478023B
:100060000C9478020C9478020C9478020C94780228
:100070000C9478020C9478020C9478020C94780218
:100080000C9478020C9478020C9478020C94780208
:100090000C9478020C9478020C9478020C947802F8
:1000A0000C9478020C9478020C9478021F002000C3
:1000B0002100220001001A000800150017000100AD
:1000C0001600070009000A0001001B0006001900C5
:1000D00005000100E2008B002C002C0002511E00E4
:1000E000350000000000000014002B00000000009C
:1000F0000000040039000000000000001D00E100C5
:10010000000000000000E300E0000000000000002C
:1001100027002600250024002300130012000C00F5
:1001200018001C0033000F000E000D000B003800FB
:100130003700360010001100650088008A002C008E
:1001400001512D002E008900000000002F0030001A
:100150002A000000000034003200280000000000E7
:1001600087005200E50000000000500051004F00E1
:1001700000000000010001000100010001001F005B
:100180002000210022000100010001000100010007
:100190000100010001000100010001000100010057
:1001A000010001000100010001000000000000004A
:1001B0001E0001000000000000000100010000001E
:1001C000000000000100010000000000000001002C
:1001D000010000000000000001000100010001001A
:1001E0000100270026002500240023000100010053
:1001F00001000100010001000100010001000100F7
:1002000001000100010001000100010001000100E6
:1002100000000000010001000100000000000100DA
:1002200001000100000000000100010001000000C9
:1002300000000100010001000000000001000100B9
:1002400001000100C35C0100010001000100CA5C63
:100250000100010001000100C65C01000100010075
:100260000100C85C01000100010001000100010063
:10027000010000000000000001000100000000007B
:10028000000001000100000000000000010001006A
:10029000000000000000010001000000000000005C
:1002A0000100010001000100010001000100010046
:1002B0000100010001000100010001000100010036
:1002C0000100010001000100010001000100010026
:1002D0000100010001000100000000000100010018
:1002E000010000000000010001000100000000000A
:1002F00001000100010000000000010001000100F8
:1003000000000000010001000100010001000100E7
:1003100001000100010001000100010001000100D5
:1003200001000100010001000100010001000100C5
:1003300001000100010001000100000000000000B8
:1003400001000100000000000000010001000000A9
:10035000000000000100010000000000000001009A
:100360000100000000000000010001000100010088
:100370000100010001000100010001000100010075
:100380000100010001000100010001000100010065
:100390000100010001000100010001000100010055
:1003A0000000000001000100010000000000010049
:1003B0000100010000000000010001000100000038
:1003C00000000100010001000000000014036800AB
:1003D00061006C00660063006C00690066006600E6
:1003E000000006036E003200000004030904090245
:1003F0002200010100A0FA0904000001030101002C
:100400000921110100012240000705810308000AAB
:100410001201000200000008350321000100010262
:10042000000105010906A101050719E029E71500EA
:10043000250195087501810295017508810105075F
:10044000190029FF150026FF009506750881000593
:10045000081901290595057501910295017503910A
:1004600001C011241FBECFEFDAE0DEBFCDBF04B65E
:1004700003FE27C08091930290919402A09195026F
:10048000B09196028730904BA740B04BD1F41092B8
:10049000930210929402109295021092960214BE4A
:1004A00084B7877F84BF0FB6F894A89580916000C9
:1004B000886180936000109260000FBEE0E0F8E376
:1004C000099511E0A0E0B1E0ECEDF2E402C0059086
:1004D0000D92AC34B107D9F722E0ACE4B1E001C031
:1004E0001D92A339B207E1F70E948A140C944821A7
:1004F0000C940000F894E82FE295EF70F0E031A141
:10050000282F2F7081E090E001C0880F2A95EAF72C
:10051000382B31A392A18095892382A378940895E2
:10052000F894E82FE295EF70F0E031A1282F2F70BA
:1005300081E090E001C0880F2A95EAF7982F909506
:10054000932391A392A1892B82A37894089508956F
:100550000C94A70208950C94AA020895E82FF0E0E5
:10056000ED59FE4F8081089508950F931F93CF9307
:10057000DF930E949F1280910401809104019AE010
:10058000811190E090937A028AE0891B809379022E
:10059000C5E3D1E08E01F80181918F010E949002A4
:1005A000F1E00F331F07B9F784E30E94900286EC55
:1005B0000E94900286E60E94900286E30E949002CA
:1005C00082E30E94900284E30E94900286EC0E94E3
:1005D000900286E60E94900286E30E94900282E3E7
:1005E0000E94900289910E94900281E0CF33D80747
:1005F000C9F7E7E7F1E0A3E6B1E011921D9281E0CF
:10060000EB38F807D1F78AE00E944E120E94B90435
:10061000DF91CF911F910F910C94A912FF920F932C
:100620001F93CF93DF93CDB7DEB72A970FB6F89419
:10063000DEBF0FBECDBF0E948512F82E60917A02F8
:10064000882309F451C08E010F5F1F4F8AE0F80123
:1006500011928A95E9F7862F90E0B8018D599E4F47
:100660000E940C13811123C0809162018F5F8093DF
:1006700062018630B8F1E0917902F0E0ED59FE4F69
:10068000D801CE010B9611921D92A817B907D9F780
:100690000E94BF048F2D2A960FB6F894DEBF0FBEBE
:1006A000CDBFDF91CF911F910F91FF9008951092D0
:1006B0006201A0917902B0E0AD59BE4F9E01255F65
:1006C0003F4FF12C4D91F80191918F01491731F075
:1006D000AD0141505109FA019083F82E021713071A
:1006E00089F7D6CFF12CD4CF70E06D597E4F809131
:1006F000790290E08D599E4F0E940E130E94AD0228
:10070000C9CF6F927F929F92AF92BF92CF92DF92AA
:10071000EF92FF920F931F93CF93DF9307E711E0C0
:1007200045E3C42E41E0D42EC0E0D1E0D601AD9027
:100730006D018A2D0E947A02B0EABA95F1F730E392
:10074000E32E31E0F32EF70130E020E0B12C4191AF
:10075000A42FA295AF70B0E090968C9190E04F706E
:1007600002C0959587954A95E2F780FD94C08D2F3C
:10077000022E01C0880F0A94EAF7B82A2F5F3F4F74
:100780002530310521F78A2D0E949002E0EAEA9592
:10079000F1F7D8018C91B81609F47FC0BC9281E0C2
:1007A000C82B0F5F1F4FBAE3CB16B1E0DB0609F091
:1007B000BDCF10E000E0AA24A394B12C28E5C22EFE
:1007C00021E0D22EF70191907F01892D0E947A02BB
:1007D000F0EAFA95F1F7C501002E01C0880F0A94DE
:1007E000EAF7782F682F6095EEE4F1E085E3682E54
:1007F00081E0782ED0E03191D3012D913D01422F3F
:1008000042954F7050E0DA0190968C9190E02F70F5
:1008100002C0959587952A95E2F780FD40C0872F05
:10082000832B381731F09F0121503109D9018C9366
:10083000D1E0CE16DF06F9F6892D0E949002043031
:1008400019F0B0EABA95F1F7CD2B61F50F5F1F4FA4
:100850000530110509F0B6CF60917A0270E06D594C
:100860007E4F2C2F4AE087E791E00E944F120E94B2
:100870000E03C11101C0C82F8C2FDF91CF911F91A2
:100880000F91FF90EF90DF90CF90BF90AF909F902F
:100890007F906F90089580E070CF80E081CF862FA9
:1008A0008323BFCF8091530180937C0180915401B9
:1008B00080937D018091550180937E018091560146
:1008C00080937F018091570180938001BFCF81E0A9
:1008D000089581E008950C94690408950C946D04C2
:1008E0001F93CF93DF9300D000D00F92CDB7DEB728
:1008F00049835A836B8330918B0189819A813111AD
:100900001DC06623B9F02223A9F00E94680A182F9F
:10091000682F89819A810E94110A69817A81812FC9
:100920000F900F900F900F900F90DF91CF911F912C
:100930000C94F4100E943F0A182FEFCF0E94680A0F
:1009400069817A81EDCFFC01262F4081518162813E
:10095000738184810C94700481E00895CF93DF93B8
:10096000EC0160E00E94A304BE01DF91CF910C94E2
:100970006E040E942A120E9436050C94A8020C9460
:10098000AB0280E00C943705089508950E94BA08E0
:100990000E94C5042FEF84E39CE0215080409040EA
:1009A000E1F700C000000C94811A0F931F93CF93BE
:1009B000DF938C0161E00E94A304EC01B8010E9466
:1009C0006B048823A9F1B801CE010E946F16882319
:1009D00079F1B801CE010E94AF14882349F1B80122
:1009E000CE010E94D915882319F1F801828188234C
:1009F00061F0CB35FDE5DF0721F170F4C115ECE5C1
:100A0000DE07A1F0CF3DDC45C9F0C801DF91CF91F1
:100A10001F910F910C946704CC358DE5D807A1F098
:100A2000CD35DD4591F70E94900EEFCF0E94C604B0
:100A300080E0DF91CF911F910F9108950E94440FA4
:100A4000F7CF0E94990EE1CF0E949C0EDECF0C944E
:100A5000C4040E94ED180E9437050C9427050895E0
:100A60000C942F0581E008950C9432050895CF93DE
:100A7000C82F0E9430058C2FCF910C943405CF9352
:100A8000DF93CDB7DEB72B970FB6F894DEBF0FBE5E
:100A9000CDBF4F83588769877A878B8761110E9402
:100AA000EB0D1E821D8285E0FE013796DE01119658
:100AB00001900D928A95E1F78C819D81892B89F4B3
:100AC00049815A816B817C818D819E810E940C0DB0
:100AD0002B960FB6F894DEBF0FBECDBFDF91CF913E
:100AE000089589819A8189238F3F51F3CE01019620
:100AF0000E94AC048111E4CFEBCFFC018081918195
:100B00000C94AA0ACF93C82F882309F469C08238AD
:100B1000C1F40E94ED1881FD63C089E30E94A60D17
:100B20000E940E0E2FEF81EE94E021508040904005
:100B3000E1F700C0000089E30E94AD0DCF910C9455
:100B40000E0E8338A1F40E94ED1880FD49C083E5A4
:100B50000E94A60D0E940E0E2FEF81EE94E0215010
:100B600080409040E1F700C0000083E5E5CF843885
:100B7000A1F40E94ED1882FD33C087E40E94A60D07
:100B80000E940E0E2FEF81EE94E0215080409040A5
:100B9000E1F700C0000087E4CFCF8CEF8C0F813AE3
:100BA00090F46C2F80910201909103010E944919E9
:100BB000882329F08C2F0E94AD0D0E940E0E8C2FE1
:100BC0000E94A60DBBCF80E28C0F883048F4C7701E
:100BD00081E001C0880FCA95EAF70E94CE0DAECF22
:100BE000CF910895882309F44BC0823871F40E9494
:100BF000ED1881FF45C089E30E94A60D0E940E0EEC
:100C000089E30E94AD0D0C940E0E833859F40E94B6
:100C1000ED1880FF35C083E50E94A60D0E940E0EE0
:100C200083E5EFCF843859F40E94ED1882FF28C085
:100C300087E40E94A60D0E940E0E87E4E2CF9CEF8F
:100C4000980F913AF0F290E2980F983050F4877034
:100C500091E001C0990F8A95EAF7892F0E94D40D7F
:100C6000D2CF9BE5980F933020F490E080E00C9475
:100C70000B19885A873120F490E080E00C942119F8
:100C800008951F93CF93DF93182FEB010E948205E5
:100C9000209731F4812FDF91CF911F910C94F205B1
:100CA0008FE99FE00197F1F700C000002197F0CF96
:100CB00070E060E0893311F460E570E00C94410667
:100CC000882321F00E94CE0D0C940E0E08958823E7
:100CD00021F00E94D40D0C940E0E0895BF92CF9275
:100CE000DF92EF92FF920F931F93CF93DF936C01EC
:100CF000D62FC72FFC011281F580F2949FE0F922D4
:100D00000E94C40DE82E8823B9F0E12E1123A1F032
:100D10008C2F807F803421F080E28D0F8830D0F0DE
:100D20008091800282FD16C082E00E945F0E0E94C8
:100D3000C40D91E0E82EE926BC2EB2948FE0B822D3
:100D4000FBE0FB1508F468C0EB2DF0E0E65BFE4D20
:100D50000C94F720E12CF0CF0C2F0F70C07F11F016
:100D60000295007F112399F0002359F080E28D0F46
:100D7000883010F0D11107C0802F0E94CE0D0E9444
:100D80000E0E8D2F41C0802F0E94DE0DF8CF8D2FCB
:100D90000E94F205002309F43FC080E28D0F8830E5
:100DA00010F0D11104C0802F0E94D40D03C0802FF9
:100DB0000E94E40D0E940E0E2FC00C2F0F70C07FFA
:100DC000C03211F00295007FDD2381F0D13009F4AB
:100DD00069C0112309F473C0FF2009F469C0F6014A
:100DE000858180FFCECF8F70858362C08091800225
:100DF00082FF38C0112359F0002329F0802F0E9470
:100E0000CE0D0E940E0E80E00E94820505C080E09B
:100E10000E94F2050111C7CFEB2DE850FF0B34976C
:100E200020F40E94ED180E943705EE2009F44BC112
:100E30000E94C00D80FD47C1F60112820E94BA0DCA
:100E40000E947509C6010E9484080E94BA0DDF91B4
:100E5000CF911F910F91FF90EF90DF90CF90BF90B7
:100E60000C949609112389F0F11006C00E94F10D2F
:100E7000802B0E946006D0CF21E0F212F7CF0E94B3
:100E8000F10D802B0E94F70DC7CFF11006C00E9414
:100E9000040E802F0E946706BFCF31E0F31609F4DD
:100EA000BBCFF5CF112331F085E08F1508F4B4CF17
:100EB000802FDFCF94E09F1508F4AECFEACFFF205C
:100EC00041F3D93349F4FFEF27EE33E0F1502040EE
:100ED0003040E1F700C000008D2F0E94F2059CCF4A
:100EE0008C2F837009F041C0111196CF4D2F429580
:100EF00046954770440F440F0D2F0F7010E030E0FF
:100F000020E0042E04C0000F111F221F331F0A947B
:100F1000D2F760E070E0CB01D4FF0FC06FE070E06B
:100F200080E090E004C0660F771F881F991F4A95E4
:100F3000D2F76095709580959095C695C695C370CB
:100F4000602B712B822B932BC23049F058F4C130A7
:100F500019F00E94270960CF0E9415095DCF0E94F9
:100F600039095ACF0E94130957CF8695112311F0E2
:100F70008C2F8170882309F44FCF4D2F42954695D1
:100F80004770440F440F0D2F0F7010E030E020E049
:100F9000042E04C0000F111F221F331F0A94D2F722
:100FA00060E070E0CB01D4FF0FC06FE070E080E044
:100FB00090E004C0660F771F881F991F4A95D2F7EB
:100FC0006095709580959095C695C695C370602B79
:100FD000712B822B932BC23049F058F4C13019F099
:100FE0000E94EC0919CF0E94DA0916CF0E94FE096F
:100FF00013CF0E944F0910CFCF70112329F08C2FEF
:101000000E9475098D2F35CF8D2F0E9467068C2F7A
:101010000E94960901CFD23F51F160F4D03FB9F060
:10102000D13F81F0112309F449C0F110AACE8C2FD1
:101030008F7121C0D33F11F1D43FA1F7809180027D
:1010400082FF26C08C2F8F71112311F314C011233E
:1010500049F084E08F1508F4DFCE8C2F8F710E9449
:10106000B909DACE95E09F1508F4D6CEF6CF8C2FCD
:101070008F711111CDCF0E947509CECE112329F0A9
:101080008C2F8F710E946009C7CE0E945B09C4CE6D
:10109000112349F0CF718C2F0E94750963E08C2FCA
:1010A0000E94440EB9CE81E00E945F0EE1E0EF1590
:1010B00008F0B2CE82E00E945F0EAECEF11001CFFA
:1010C0008C2F8F71A5CFDF91CF911F910F91FF9042
:1010D000EF90DF90CF90BF9008950F931F93CF9321
:1010E000DF93EC01688179818A810E94B40A8C01C6
:1010F0000E94100A0E941209B801CE01DF91CF911F
:101100001F910F910C946E06CF93DF93EC018B81AE
:101110009C81892B29F08881998189238F3F59F4FB
:10112000DF91CF910895CE010E946D08CE01DF912D
:10113000CF910C94AE04CE010E94D5048111F3CF5F
:101140000E94C40D882361F38A81882349F380912A
:10115000800282FDE5CF82E0DF91CF910C945F0E9B
:101160000E94EB0D0E94EE0D0C940E0E0E94B40D29
:101170000C94B0080E94DB0D0C94B608E92FE295A0
:10118000EF70E250EE3070F4F0E0EA5AFE4D0C944D
:10119000F720803F19F020F4883E20F481E0089584
:1011A000843FE1F380E00895883EC0F3813FD1F7AA
:1011B000F5CF93FB882780F90895FC018081918108
:1011C0000E94AA0A0C94BE08CF93DF9300D000D0EF
:1011D0000F92CDB7DEB70F900F900F900F900F903A
:1011E000DF91CF910895CF93DF9300D000D000D04E
:1011F000CDB7DEB726960FB6F894DEBF0FBECDBFD3
:10120000DF91CF91089508950C9403090E94040979
:101210006093D1017093D2018093D3019093D40154
:101220000C94B00808950C9406090F931F93009135
:10123000D1011091D2012091D3013091D401602BC2
:10124000712B822B932B1F910F910C9406090F93F6
:101250001F930091D1011091D2012091D3013091BF
:10126000D40160237123822393231F910F910C9447
:1012700006090F931F930091D1011091D201209183
:10128000D3013091D40160277127822793271F91C2
:101290000F910C9406090C9403090C944B090E94BD
:1012A0004D096093CD017093CE018093CF0190934F
:1012B000D0010C94B00860E070E0CB010C944F09B1
:1012C0000F931F9341E050E060E070E08A019B01C2
:1012D00004C0000F111F221F331F8A95D2F7C901C6
:1012E000B8011F910F910C944F090F931F9341E088
:1012F00050E060E070E004C0440F551F661F771F88
:101300008A95D2F78091CD019091CE01A091CF0125
:10131000B091D0018A019B01082B192B2A2B3B2B62
:10132000C901B8011F910F910C944F090F931F939E
:1013300041E050E060E070E004C0440F551F661FBC
:10134000771F8A95D2F7CB01BA0160957095809589
:1013500090950091CD011091CE012091CF01309157
:10136000D00160237123822393231F910F910C944A
:101370004F090F931F9341E050E060E070E004C01C
:10138000440F551F661F771F8A95D2F78091CD01B4
:101390009091CE01A091CF01B091D0018A019B0123
:1013A000082719272A273B27C901B8011F910F9148
:1013B0000C944F090F931F930091CD011091CE0112
:1013C0002091CF013091D001602B712B822B932B78
:1013D0001F910F910C944F090F931F930091CD0112
:1013E0001091CE012091CF013091D0016023712363
:1013F000822393231F910F910C944F090F931F93F6
:101400000091CD011091CE012091CF013091D001FA
:1014100060277127822793271F910F910C944F0902
:101420000895E92FEE0FEE0F9E0F890F982F9770FA
:1014300041E001C0440F9A95EAF786958695869516
:1014400095E0899FF0011124E457FE4F30E020E041
:1014500070E05191DF011197CB01022E02C09695E9
:1014600087950A94E2F781708195852784238527E3
:101470008C932F5F3F4F2530310559F70895E92FA1
:10148000EE0FEE0F9E0F890F982F97708695869519
:10149000869525E0829FF0011124E457FE4F50E02D
:1014A00040E080E0219130E0092E02C0369527957A
:1014B0000A94E2F721703327042E01C0220F0A9408
:1014C000EAF7822B4F5F5F4F4530510559F708957A
:1014D000BF92CF92DF92EF92FF920F931F93CF9321
:1014E000DF938C01C090CD01D090CE01E090CF0170
:1014F000F090D0018091D1019091D201A091D301BF
:10150000B091D401C82AD92AEA2AFB2ACFE1D0E037
:10151000BC2ED701C6010C2E04C0B695A795979591
:1015200087950A94D2F780FD0EC0219788F7B12CD9
:101530008B2DDF91CF911F910F91FF90EF90DF9056
:10154000CF90BF900895B8018C2F0E940811019789
:1015500061F3EECFCF93DF93EC010E94680ABE01E6
:10156000DF91CF910C9408111F93CF93DF93EB0180
:1015700090918B01992331F0CB01DF91CF911F9195
:101580000C94AA0A882379F0CB010E94680A182FCC
:10159000682FCE010E94110ABE01812FDF91CF91E9
:1015A0001F910C940811CB010E943F0A182FF4CF11
:1015B0001F93CF93DF93C091D50116E08091D601A0
:1015C0008C1304C0DF91CF911F910895D0E01C9F30
:1015D000F0011D9FF00D1124E952FE4F4081518111
:1015E00062817381848195810E94F3082196C7707E
:1015F000E5CF409107025091080260910902709175
:101600000A0280910B0290910C020C94F308FF9255
:101610000F931F93CF93DF9380910C02807FD1F4BF
:10162000809109028823B1F08091D5011091D601F3
:101630006091070270910802A0910A02B0910B021A
:10164000062F0723C0910001D091010196E0F92EE9
:10165000181306C0DF91CF911F910F91FF9008954D
:1016600090E0109711F00F3F19F401968770F0CFBA
:10167000F89E9001F99E300D1124F901E952FE4FB8
:1016800041814713F2CF40814613EFCF4281411190
:10169000ECCF438154814A1B5B0B4C175D0728F745
:1016A00080910C028F70806180930C02F901E452EA
:1016B000FE4F80818F708061808387E092E00E947E
:1016C0008408DF91CF911F910F91FF900C94D80A5D
:1016D000AF92BF92CF92DF92EF92FF920F931F9340
:1016E000CF93DF93CDB7DEB761970FB6F894DEBF27
:1016F0000FBECDBF8C0185E0F801DE011D96019083
:101700000D928A95E1F7F801E28087E0C82E82E029
:10171000D82E60910A0270910B026115710509F4CF
:101720005FC19091070220910802892F82238F3F89
:1017300009F456C140815181A380B480F090090220
:10174000F501E61BF70BBF01E0910001F0910101EB
:10175000FF2009F4F6C080910C02382F307F6E17FD
:101760007F0708F0AFC0311179C0FE2C251323C0CC
:10177000941321C0E1101FC08F70806180930C0210
:101780000E94F90AC6010E94840880910C02F801A7
:1017900085838F2D61960FB6F894DEBF0FBECDBF47
:1017A000DF91CF911F910F91FF90EF90DF90CF903D
:1017B000BF90AF900895AB2829F0842F85238F3FE9
:1017C00009F027C180E0F82FF170DF2E80FF3CC0C8
:1017D0008091D5012091D60136E0821315C04D8746
:1017E0005E878D859E850E94AA0A292F22952F70DB
:1017F0002230F0F0243018F59F70F1F0F801958157
:10180000907FD1F4D12C1EC090E0389FF001399F19
:10181000F00D1124E952FE4F6181651306C060810D
:10182000641303C062816E110FC001968770D5CF1B
:101830009F7011F0882331F3805E883018F3C8015F
:101840000E948408FD2CA5CFEE2009F4A2CF809140
:101850000C02816080930C02F12C9BCF251306C0F3
:10186000941304C0F801EE2009F487C0C8010E9457
:10187000DD08882319F1EE2009F180910C028032F5
:1018800070F0209107023091080238872F83198663
:10189000BB86AA868C87CE0107960E94840886E0C4
:1018A000F801A7E0B2E001900D928A95E1F70E945D
:1018B000070B0E94F90AFF24F3946BCFC8010E9422
:1018C0008408F9CF311113C07A2DB98AA88A6E2DF8
:1018D00089890E94E40887E092E00E94840886E0FB
:1018E000F60111928A95E9F70E94F90AB5CF2513FE
:1018F0000FC094130DC0E1100BC0F8018583C8011F
:101900000E94840886E0F60111928A95E9F741CF9A
:10191000C8010E94DD08882389F2EE2079F28091C7
:101920000C02803208F4BBCF2091070230910802EC
:101930003A8329831B82BD82AC828E83CE010196BD
:10194000ACCF6E177F0708F03EC0FE2CEE2009F4E6
:10195000B5CF25132AC0941328C080910C0280FDB6
:101960001BC0982F907FC1F0F8018583903F31F024
:10197000982F907F905F8F70892B8583C8010E947C
:10198000840886E0F801A7E0B2E001900D928A9504
:10199000E1F70E94F90AFDCE86E0F801A7E0B2E087
:1019A00001900D928A95E1F7F4CEC8010E94DD08FE
:1019B000811175CF80910C02816080930C02C80167
:1019C0000E948408E6CE7A2DB98AA88A6E2D89896C
:1019D0000E94E40886E0F60111928A95E9F7D9CFD2
:1019E000EE2009F46BCFC8010E94DD08F82E882391
:1019F00009F464CF86E0F801A7E0B2E001900D920F
:101A00008A95E1F787E092E00E947D050E94070B2E
:101A1000C0CF81E08E25D7CE1F93CF93DF93CDB774
:101A2000DEB72C970FB6F894DEBF0FBECDBF4F8345
:101A3000588769877A878B879C87CE0107960E9493
:101A4000680B882369F08A859B85892B39F04F8143
:101A50005885842F85238F3F09F071C016E05FC041
:101A600086E0FE013796DE01119601900D928A956F
:101A7000E1F78A859B85892B89F38F819885892356
:101A80008F3F61F32091D60130E0C9010196877044
:101A900099274091D5014817190671F40E94BA0898
:101AA0001092D6011092D50186E0E7E0F2E0DF0166
:101AB0001D928A95E9F7D2CF96E0929FD001939F2D
:101AC000B00D1124A952BE4FFE01319601900D9226
:101AD0009A95E1F78093D6010E94D80ABFCF819FE3
:101AE000C001112489529E4F0E94680B8823E9F09F
:101AF000E091D5011E9FF0011124E952FE4F408173
:101B0000518162817381848195810E94F308809163
:101B1000D50190E00196877099278093D501809137
:101B2000D5019091D6018913DACF2C960FB6F8948F
:101B3000DEBF0FBECDBFDF91CF911F9108956985A4
:101B40007A858B859C850E94F30888CF682F8091C9
:101B50000201909103010C947F19682F809102017A
:101B6000909103010C9481198091020190910301DD
:101B70000C94831980910D0285958595859508951E
:101B800080910D028770089590910D02977081E009
:101B900009F480E008958091190208959091190246
:101BA000892B8093190208958095909119029823AA
:101BB00090931902089510921902089590911802B5
:101BC000892B80931802089580959091180298238C
:101BD0009093180208951092180208951092170217
:101BE000089580910E02089508950C94F40D90913B
:101BF000800292FD08C090910E02981721F0809308
:101C00000E020C94F50D089580910E02882329F0A0
:101C100010920E0280E00C94F50D0895E0910201FF
:101C2000F0910301809119028083E0910201F0910B
:101C30000301808190911802892B8083E091020139
:101C4000F0910301808190911702892B80839091FC
:101C50000E02992381F0E0910201F091030180814D
:101C6000892B808380910201909103010E94371992
:101C700081110E94040E80910201909103010C9445
:101C8000001908950C94410E9091800292FD10C0AD
:101C900098E0899F90011124622B60930D020E94AD
:101CA000750980910D028595859585950C94420E58
:101CB0000C94750910920D0280E00C94420E9091E4
:101CC0000D028095892380930D02282F277091F4AF
:101CD000282F082E000C330B9217130659F0909101
:101CE000800292FD07C08595859585950E9496098D
:101CF0000C945A0E08959091800292FB222720F9AD
:101D0000281769F080FB92F99093800280917F02FE
:101D1000909180020E94C00E82E00C945F0E0895A4
:101D20008091800282FB882780F991E089270C94BA
:101D30007B0E81E00C947B0E80E00C947B0E90E097
:101D400080E00E940E2121E0893E9E4F09F020E0B4
:101D5000822F089582E090E00C94062183E090E0C9
:101D60000C940621CF9384E090E00E940621C82FB6
:101D700082E290E00E940621982F8C2FCF91089547
:101D8000CF93C92F682F84E090E00E9414216C2F1C
:101D900082E290E0CF910C941421AB01BC018FE062
:101DA00090E00C942621AB01BC0183E190E00C94FF
:101DB000262160E070E0CB010C94D30E60E070E06F
:101DC000CB010E94CD0E0C94D90E69EE7EEF90E00F
:101DD00080E00E94322160E082E090E00E941421C5
:101DE00060E083E090E00E9414211092D1011092F3
:101DF000D2011092D3011092D40160E084E090E00F
:101E00000E94142160E082E290E00E94142160E0D0
:101E100085E090E00E94142160E086E090E00E945E
:101E200014216FEF87E090E00E94142140E050E021
:101E3000BA0188E090E00E94262160E08DE090E009
:101E40000E94142140E050E0BA0188E190E00E9435
:101E5000262160E087E190E00E94142140E050E0FC
:101E6000BA018CE190E00E94262170E060E080E2FF
:101E700090E00E94322140E050E0BA0188E190E019
:101E80000E9426210C94DE0E0C94E50E682F8EE045
:101E900090E00C9414210E94261A609333027093F0
:101EA0003402809335029093360260932F02709330
:101EB00030028093310290933202089585B7806892
:101EC00085BF85B7806885BF0895089508950C94EF
:101ED000650F08950C94690F0E945E0F87E292E1EE
:101EE0000E94E3180E94660F0C94670F0C948512F1
:101EF000089508950E94780F0C94790F0E94111A8A
:101F00000E94E6110E94B5020E9497140C946A0F79
:101F1000AF92BF92CF92DF92EF92FF920F931F93F7
:101F2000CF93DF93CDB7DEB72A970FB6F894DEBF15
:101F30000FBECDBF0E94810381110E944B0F8BE128
:101F4000A82E82E0B82E10E000E0C02E802F0E9464
:101F5000AE02E82EF501F1905F01F81609F44BC0CE
:101F60008091370281FD0E94B4028F2D8E25D12CE5
:101F7000FF24F394982F9F21C9F10E94760F8823A4
:101F800099F0DE82CF82EF2081E009F480E088873B
:101F90000E941A1A8160782F9A8789874E815F8103
:101FA00068858A850E943F05F801E55EFD4F8081C6
:101FB000F826F0820E94ED1890911A02891791F18B
:101FC0000E94ED1880931A022A960FB6F894DEBF8D
:101FD0000FBECDBFDF91CF911F910F91FF90EF907A
:101FE000DF90CF90BF90AF900C943705D394FF0C47
:101FF000F5E0DF12BFCF0F5F1F4F0431110509F06D
:10200000A4CF8FEF89838A831B820E941A1A816072
:10201000782F9D838C8349815A816B818D810E94A9
:102020003F05C8CF2A960FB6F894DEBF0FBECDBFCE
:10203000DF91CF911F910F91FF90EF90DF90CF90A4
:10204000BF90AF900895CF93DF930E940C11EC01E5
:10205000811523E5920790F5811532E5930708F085
:1020600096C081159042C8F4C11581E0D80788F464
:10207000C53AD10548F4C430D10558F4C130D10572
:1020800041F0D0E0C0E005C0CE01805E9109089724
:10209000C0F7CE01DF91CF910895C11591E5D90721
:1020A00008F070C0C11520E5D20708F04EC0C11578
:1020B00030E4D30730F3DF70D06AEBCF811546E50B
:1020C0009407F0F4C11585E5D80708F075C0C1156F
:1020D00094E5D90708F06BC0CE018370992721E001
:1020E00030E002C0220F331F8A95E2F7C695C695ED
:1020F00090E2C99FE0011124C22BD32BDA68C9CF2B
:1021000081152AE5920778F4811539E5930708F0DF
:102110005EC0811548E5940708F4B3CFD82FCC27CB
:10212000C06FD06AB6CF90568115904208F0A9CF03
:102130008D2F8F710E94A31190E0982F88278827F8
:102140009F719C012C2BE90140C0CE01E4E09695E3
:102150008795EA95E1F783702C2F269526952370B5
:1021600040E2249F90011124382B8C2F8370C1E012
:10217000D0E002C0CC0FDD1F8A95E2F7C22BD32B33
:10218000DC6887CFDC2FCC27C16FD06A82CF837009
:10219000992721E030E002C0220F331F8A95E2F731
:1021A000C695C69580E2C89FE0011124E7CFDC2FD9
:1021B000CC27C46FD06A6DCF8C2F0E94A311C82F7B
:1021C000D0E0DC2FCC27CC27DF71D06262CF8F70BC
:1021D0000E94A31134E0D695C7953A95E1F7CF70E8
:1021E0009C2FEC01D06955CF972F70E025E0929F8E
:1021F000600D711D1124FB0194E6899FE00DF11D16
:102200001124EE0FFF1FE455FF4F8591949108951F
:102210000E94F4100C94231082389105B1F1B0F4AF
:102220008133910509F475C048F48932910509F4A8
:1022300069C08A32910509F473C008958533910508
:1022400009F459C08933910501F10895833E910540
:10225000A9F138F4803E9105F9F0823E910549F1EB
:102260000895863E9105A9F1873E9105C9F1843E06
:10227000910519F52091800221FF1FC080917F02F6
:1022800084FD14C087EE90E0089520917F022370B2
:10229000A1F080EE90E0089520917F0220FD47C0DC
:1022A0003091800230FF09C024FF44C090E080E0FC
:1022B00004C020917F0222FDF7CF089520917F0274
:1022C00022FD3BC03091800230FDE3CF24FFF5CFEB
:1022D000EDCF20917F0223FFF0CF24FDE7CFD2CFB7
:1022E00020917F0223FD2CC03091800231FFEECF80
:1022F00084EE90E0089520917F0225FFDECF89E2F1
:1023000090E0089520917F0225FFD7CF85E390E0EC
:10231000089520917F0226FFD0CF8AE290E00895B1
:1023200020917F0226FFC9CF81E390E0089589E3E1
:1023300090E0089583EE90E0089582EE90E0089595
:1023400086EE90E0089590917F0292FF06C0282FBC
:1023500028712830F9F4877F846093FF06C0282F06
:1023600028712831F1F4877E84612091800220FF5A
:1023700006C0382F38713830D9F4877F816021FF4B
:1023800006C0282F28712831D1F4877E816194FD01
:10239000877E0895282F24712430F9F68B7F88607A
:1023A000DCCF282F2471243101F78B7E8861DDCFAB
:1023B000382F3171313019F78E7F8860E0CF282FA8
:1023C0002171213121F78E7E8861E1CF10927B024D
:1023D00010927C0210927D0210927E020895CF929C
:1023E000DF92EF92FF926B017C010E9485128111B6
:1023F0000EC00E94261AC61AD70AE80AF90AC09225
:102400007B02D0927C02E0927D02F0927E02FF90ED
:10241000EF90DF90CF9008950F931F930E94851245
:10242000882321F01F910F910C94261A0E94261ADE
:1024300000917B0210917C0220917D0230917E02FE
:10244000600F711F821F931F1F910F91089580E0ED
:10245000089508950E949F0E811102C00E94440FAA
:102460000E94AA0E809337020E94B20E90938002BF
:1024700080937F020E9429120E94AE0E682F70E0A6
:1024800090E080E00E9413096091CD017091CE012F
:102490008091CF019091D0010C944D090895FF9245
:1024A0000F931F93CF93DF93F82E092F162FD72F5B
:1024B000C42F222349F081E080933A020E941A1A25
:1024C000909339028093380280913A028823A1F0D8
:1024D00080913802909139020E94321A059760F07B
:1024E000EF2DF02FA12FBD2FCE0FDF2FD11DEC1719
:1024F000FD0741F410923A02DF91CF911F910F91A5
:10250000FF90089581918D93F2CF80913B028111CC
:1025100007C00E94EA20882351F081E080933B02AB
:1025200081E090913B02913009F080E0089582E0D3
:1025300080933B020E94E520F3CF0C9485120E9409
:102540009D12809304010E94851281110C94B71290
:1025500008950E948512811102C00C94B912089549
:1025600081E090913C029A3008F080E008950C944C
:1025700022170C942517EF92FF920F931F93CF937E
:10258000DF937901C82F880FDD0B41155105A9F0A4
:102590008AE08C9FF0018D9FF00D1124EB5FFE4FC0
:1025A00083819481835C9D4F228130E042175307E1
:1025B00008F49A01A9010E94FD20CE010E942F1863
:1025C000892B11F501151105E9F08AE08C9FF001C6
:1025D0008D9FF00D1124EB5FFE4F458150E00417F5
:1025E000150708F4A8018AE08C9FF0018D9FF00D7B
:1025F0001124EB5FFE4F66817781635C7D4FC701DD
:102600000E94FD2081E001C080E0DF91CF911F9109
:102610000F91FF90EF9008950C9428140C9444149B
:102620000F931F93CF93DF9300D000D0CDB7DEB7C9
:1026300060915E0270915F028091600290916102F0
:102640000E94411A11E0643671058105910518F167
:102650000E940C126E5F7F4F8F4F9F4F69837A836A
:102660008B839C8310E000E030E020E044E050E009
:10267000BE016F5F7F4F82E00E94BB12182F88233C
:1026800051F00E94261A60935E0270935F0280935D
:10269000600290936102812F0F900F900F900F9026
:1026A000DF91CF911F910F910895AF92BF92CF927A
:1026B000DF92EF92FF920F931F93CF93DF93CDB7EB
:1026C000DEB72B970FB6F894DEBF0FBECDBF7B01F0
:1026D000C0904901D0904A0101E010E09E01255FC1
:1026E0003F4F50E040E070E060E080E00E94BB12AD
:1026F000182F882309F448C056018FEFA81AB80A8A
:1027000060915A0270915B0280915C0290915D022F
:102710000E94411A643671058105910568F10AE04D
:1027200010E09E012F5F3F4F50E040E070E060E01E
:1027300081E00E94BB12D82E6AE070E0C5010E94C1
:10274000981411E09B85981310E01D2141F10E941F
:10275000261A60935A0270935B0280935C029093F6
:102760005D028AE0FE013196A0E5B2E001900D9293
:102770008A95E1F711E013C06AE070E0C5010E949C
:1027800098149B858913CBCF8AE0F6013196DE0140
:10279000119601900D928A95E1F71111E2CF8AE02E
:1027A000E0E5F2E0D70101900D928A95E1F7812FE3
:1027B0002B960FB6F894DEBF0FBECDBFDF91CF9141
:1027C0001F910F91FF90EF90DF90CF90BF90AF904F
:1027D0000895AF92BF92CF92DF92EF92FF920F9344
:1027E0001F93CF93DF937C015B016A010E94B012BB
:1027F00001E010E0882311F00AE010E0C1E0D0E031
:10280000F894B501C701F60109957894811104C0C7
:1028100021960C171D075CF4DF91CF911F910F914A
:10282000FF90EF90DF90CF90BF90AF900895CC9F36
:102830009001CD9F300D300D112490E080E045E3F4
:102840004A95F1F70000019682179307C1F7D8CF98
:102850000F931F93CF93DF93EC018B0145E553E179
:102860000E94E913882351F040E153E1B801CE0101
:10287000DF91CF911F910F910C94E91380E0DF91CC
:10288000CF911F910F9108950F931F93CF93DF93D3
:10289000F894C0914901D0914A01CE0101962AE0F5
:1028A000FB01DC0101900D922A95E1F76AE070E0EE
:1028B0000E94981488837894F8946B857C858D8524
:1028C0009E8500914C0210914D0220914E02309154
:1028D0004F02601771078207930751F060934C0213
:1028E00070934D0280934E0290934F020E94EF111D
:1028F0007894DF91CF911F910F9108950E94CB1B87
:102900000E947E0F0C94D71B0E94DB1B0E94880F35
:102910000C94F51B0E94A4190E94B21B0E946C0F1C
:102920000E947E140E9484140E947A0FFBCF0895A7
:10293000FC01680F791F8FEF91E36E177F0709F491
:1029400008952191822728E030E087FF06C0880F94
:10295000892721503109C9F7F0CF880FFACFCF93DB
:10296000DF93EC01FB018281882309F420C1C4308C
:10297000FDE5DF07C8F5CB3F9CE5D90730F49E01A4
:1029800022503C452431310598F50E94B20E9093B7
:10299000800280937F02C031FCE5DF0709F4E0C0CC
:1029A00008F061C0C8309CE5D90709F4CBC088F5B0
:1029B000C430FCE5DF0709F4B3C0E8F4C2309CE59D
:1029C000D90709F4A7C080917F028260C330DC453B
:1029D00009F4A3C080917F02909180020E94C00EF2
:1029E0000E94BA0880E004C0C236EDE5DE0769F255
:1029F000DF91CF91089580917F028061C630FCE520
:102A0000DF0709F48AC008F48FC080917F028062DA
:102A100084C080917F028D7FCC309CE5D90709F47A
:102A20007CC070F480917F028C60CA30FCE5DF07C7
:102A300009F473C008F48AC080917F028E7F6DC054
:102A400080917F02877FCE309CE5D90709F465C06D
:102A500080917F028B7FCF30DC4508F45EC080918F
:102A60007F028F7E5AC0CD3FFCE5DF0709F474C0BA
:102A700040F5C4319CE5D90709F48AC058F4C23145
:102A8000FCE5DF0709F474C008F46EC080917F0292
:102A9000837F43C0CB3F9CE5D90709F449C008F0C8
:102AA0004DC0C531DC4509F095CF80917F0282FB96
:102AB000992790F921E0922790FB82F990FB83F906
:102AC0002CC0C1308DE5D80709F458C088F4809136
:102AD00080028360CF3FECE5DE0769F180918002E0
:102AE0008D7FC115DD4538F1809180028C7F23C038
:102AF000C3308DE5D80709F458C008F452C0C23677
:102B0000DD4509F067CF90917F02892F8F7E94FF7A
:102B1000806103C080917F02816080937F025ACFE1
:102B200080917F028460F9CF80917F028860F5CF29
:102B3000809180028160809380024CCF80918002DE
:102B40008260F9CF80917F028064E7CF0E94BA084B
:102B500080917F028068E1CF809180028E7FEBCFF1
:102B600080917F028F7DD9CF80917F028F7BD5CFDF
:102B70000E94BA0880917F028F77CFCF8091800228
:102B8000982F909591708E7F892B90FB81F9D3CFF0
:102B90000E94BA0890917F02892F97FB87F980588D
:102BA000BCCF81E00E94460F15CF80E0FBCF81E0D3
:102BB0001FCFCF93DF93EB0186319C4511F50E9427
:102BC000CB0D9A81992399F08A7A91E009F490E0EB
:102BD00090936202811109C089E20E94A60D0E94B1
:102BE0000E0E80E0DF91CF91089585E3F6CF8091BE
:102BF0006202811104C089E20E94AD0DF0CF85E32D
:102C0000FBCF81E0EFCF0F931F93CF93DF93C42FC0
:102C1000D22FFC0182818823C9F0409365020E9473
:102C20001A1A909364028093630280E28C0F8830BA
:102C300008F050C0C77081E001C0880FCA95EAF75C
:102C4000DF91CF911F910F910C9460061091650256
:102C5000141335C080916302909164020E94321A6D
:102C6000883C910560F5C0E2CD0F1D17B9F080E2F8
:102C7000810F883040F4177081E001C0880F1A95E9
:102C8000EAF70E946706C83048F481E09D2F9770EC
:102C900001C0880F9A95EAF70E946006802F0E9473
:102CA0005806C830B8F4D77081E001C0880FDA95B3
:102CB000EAF7DF91CF911F910F910C94670680E2A4
:102CC0008C0F883038F4C77081E001C0880FCA9536
:102CD000EAF7EFCFDF91CF911F910F9108950F93F6
:102CE0009C01CB01243F4CE5340759F1A8F4293D60
:102CF000FCE53F0701F12A3D4CE53407D1F1283DC1
:102D00003C4591F406E221EE41EE68ED7CE50E943F
:102D1000031680E00F910895263FFCE53F07E9F098
:102D2000B0F0273F3C45F9F0FC018281882339F15E
:102D300010926502EFCF07E225EE45EE69ED7CE5E6
:102D4000E6CF06E221EE40EE64EF7CE5E0CF07E25D
:102D500025EE44EE65EF7CE5DACF06E221EE42EEA9
:102D600066EF7CE5D4CF07E225EE46EE67EF7CE523
:102D7000CECF08E221E045EE6AED7CE5C8CF81E0E8
:102D8000C9CF8EE14A9B02C08150E1F74A9BFECF3A
:102D900008955A9880E28A95F1F75A9A0895FC01AD
:102DA0003BE03A95F1F798E020E080E031E040E147
:102DB0004A95F1F7880F4A9B02C08160232742E0C1
:102DC0004A95F1F7000040E14A95F1F7915079F703
:102DD00090E19A95F1F799B132E03A95F1F7000058
:102DE00040E14A95F1F792FB992790F992272081CB
:102DF000920F90830895EF92FF920F931F93CF93BA
:102E0000DF930F92CDB7DEB719828C017C01E60EFD
:102E1000F11C0E151F0561F481E09981911180E08C
:102E20000F90DF91CF911F910F91FF90EF90089538
:102E30000E94C116CE0101960E94CF16F80181931F
:102E40008F01E7CF529A5A9A089552985A9AEA9A5D
:102E5000E9E6F0E080818F7C808308956150770BF4
:102E600091E001C0990F6A95EAF720E031E09111F5
:102E700008C0222391F05A9A80E28A95F1F75A9875
:102E80000895492F482339F05A9A232740E24A955A
:102E9000F1F79695ECCF5A98F9CF5A98EDCFFF926B
:102EA0000F931F93CF93DF93EC018C01060F111D3D
:102EB000C017D10731F4DF91CF911F910F91FF908F
:102EC0000895F9900E94C91668E08F2D0E942E1770
:102ED000EFCF1F920F920FB60F921124EF92FF9235
:102EE0000F931F932F933F934F935F936F937F9312
:102EF0008F939F93AF93BF93EF93FF93CF93DF9302
:102F00000F92CDB7DEB719820E94C116CE0101968D
:102F10000E94CF16A82FA695A695A695282F229594
:102F200025709A2F9570290F922F937026952695CC
:102F3000920F982797708981982B09F075C0A4305B
:102F400008F072C080E18A95F1F75A9A529AB2E07D
:102F5000BA95F1F700C05A98EA2EF12CEAE0AE9F3C
:102F6000D0011124AB5FBE4F1896ED91FC911997DB
:102F70003097B1F06091490170914A0116962D91F8
:102F80003C911797260F371F13968D919C9114979C
:102F9000680F791F15964C91159712968C9109958B
:102FA0008AE08E9DF0018F9DF00D1124EB5FFE4FA6
:102FB0006581662351F02091490130914A01868153
:102FC0009781820F931F0E944F170E94C916F0E14C
:102FD000FA95F1F75A9852985A9A80E18A95F1F742
:102FE0008AE08E9D80018F9D100D11240B5F1E4F76
:102FF000D80112966C911297662371F120914901C4
:1030000030914A0113968D919C91820F931F0E94DB
:10301000FB16D801ED91FC91882311F088E001C0E6
:1030200082E080830E94C1160F90DF91CF91FF91C3
:10303000EF91BF91AF919F918F917F916F915F9130
:103040004F913F912F911F910F91FF90EF900F9013
:103050000FBE0F901F901895ED91FC91DFCF0F934D
:103060001F93CF93DF93EC0104970CF0A9C08AE083
:103070008C9FF0018D9FF00D1124EB5FFE4F80813E
:103080009181892B09F49CC0F894529A5A9885E052
:103090008A95F1F700008C2F869585709C2F95708E
:1030A000890F982F937086958695890F8E0193E0EE
:1030B000000F111F9A95E1F7082B0E94C91600C056
:1030C00068E0802F0E942E17A0E1AA95F1F7529890
:1030D0005A9A4A9B27C087E090E04A9925C08AE027
:1030E0008C9F80018D9F100D11240B5F1E4FF801E6
:1030F00065816623A1F12091490130914A018681C1
:103100009781820F931F0E94FB16811128C0529A4B
:103110005A9AD801ED91FC9182E08083789482E004
:1031200090E016C000C0D5CF0197B9F4529A5A9AD0
:103130008AE08C9FF0018D9FF00D1124EB5FFE4F14
:103140000190F081E02D81E08083789481E090E02F
:10315000DF91CF911F910F91089500C0BECF0E94C3
:10316000C116B0E2BA95F1F75A98529AE0E1EA95A1
:10317000F1F78AE08C9FF0018D9FF00D1124EB5F39
:10318000FE4F6281662351F02091490130914A013E
:1031900083819481820F931F0E944F170E94C9164A
:1031A0008AE08C9FF0018D9FF00D1124EB5FFE4FA4
:1031B0000190F081E02D1082789490E080E0C8CFFB
:1031C00084E090E0C5CF90934D0180934C01089529
:1031D00090936C0280936B0208950E948512811176
:1031E00003C0809166020895E0916B02F0916C0239
:1031F000309721F00190F081E02D099480E008954E
:10320000E0916B02F0916C02309721F00280F38123
:10321000E02D099408952091690230916A022817DF
:10322000390771F090936A0280936902E0916B0212
:10323000F0916C02309721F00680F781E02D09941F
:10324000089520916702309168022817390771F0BC
:103250009093680280936702E0916B02F0916C0298
:10326000309721F00084F185E02D099408959C01A8
:103270002E5F3F4FAC01485F5F4F80E0241735075A
:1032800009F40895F90191919F019923B9F38F5F92
:10329000F5CF662349F0FC01329608962191261756
:1032A00029F0E817F907D1F780E0089581E0089543
:1032B0009C01FC0132969FEF80E04191461751F04E
:1032C0009F3F19F4411101C0982F8F5F8630A9F7F5
:1032D0009F3F09F40895290F311D97FD3A95F90193
:1032E00062830895FC01329608962191261303C04B
:1032F000DF0111971C92E817F907B9F708950C94AC
:1033000058190C947219029626E0FC0111922A9524
:10331000E9F7089508950C948A19811105C081E098
:1033200080936D020C948B1982E0FACF83E0809336
:103330006D020C948B190C948D1981E080936D02B1
:103340000C948B190C949D19089580918A028430F5
:1033500031F10E94C10410926E0288E190E020E4F5
:103360000FB6F894A895809360000FBE209360007C
:1033700083B7817F846083BF83B7816083BF789484
:10338000889583B78E7F83BF0FB6F894A8958091F8
:103390006000886180936000109260000FBE089505
:1033A00008950895CF930E94D0190E9481030E942E
:1033B000D119C0E08C2F0E94AE02811105C0CF5FF1
:1033C000C431C1F7CF91089581E0FCCF0E94BA08C3
:1033D0000C9429051F921FB61F9211248F939F935F
:1033E000AF93BF9380916E02811113C080918202CE
:1033F00090918302A0918402B09185024196A11D13
:10340000B11D8093820290938302A0938402B093B3
:103410008502BF91AF919F918F911F901FBE1F900A
:10342000189582E084BD93E095BD9AEF97BD809397
:103430006E0008952FB7F8948091820290918302D4
:10344000A0918402B09185022FBF08952FB7F89400
:103450006091820270918302809184029091850232
:103460002FBF08959C014FB7F894809182029091EC
:103470008302A0918402B09185024FBF821B930BFF
:103480000895CF92DF92EF92FF922FB7F894C090F9
:103490008202D0908302E0908402F09085022FBFD8
:1034A000A7019601261B370B480B590BCA01B9011E
:1034B000FF90EF90DF90CF90089578941F921FB601
:1034C0001F9211248F939F93AF93BF938091820299
:1034D00090918302A0918402B09185020196A11D72
:1034E000B11D8093820290938302A0938402B093D3
:1034F0008502BF91AF919F918F911F901FBE1F902A
:10350000189587E797E7909301088093000888E172
:103510009AE00FB6F894A895809360000FBE909340
:103520006000FFCF80917702089508950895CF93AA
:10353000DF93EC0181E08093E9008FEF9091E80048
:10354000815095FD06C095ED9A95F1F70000811127
:10355000F5CF8091E80085FF14C050E040E068E0BE
:1035600070E0CE010E94541C8091E8008E77809319
:10357000E80088E0FE01AFE6B2E001900D928A9586
:10358000E1F7DF91CF910895089508958091890220
:10359000811109C00E94E41D0E94411E8091E20039
:1035A00084608093E20008951092890208950C943B
:1035B0009D196091860281E0611101C080E00C9448
:1035C000961990918A0281E0943009F080E0609130
:1035D00086020C949B1942E061EC81E00E94601D20
:1035E00090918A0281E0943009F080E06091860237
:1035F0000C948D1980918C02833009F460C030F4F2
:103600008130C9F1823009F49CC008958A3009F4F0
:1036100088C08B3009F46EC0893009F04FC08091AA
:103620008B02813209F04AC080918F029091900202
:10363000892B09F043C08091E800877F8093E800E0
:103640008091E80082FF36C09091F3008091F200F3
:10365000029731F48091F100813011F0863021F42D
:103660008091F100809377028091E8008B778093BE
:10367000E8000C94941D80918B02813AF9F48091BA
:10368000E800877F8093E80080918F0290919002FC
:10369000892B61F468E08FE692E070E00E94A31C41
:1036A0008091E8008B778093E800089560E090E0D7
:1036B00080E0F3CF80918A028111C2CF089580917A
:1036C0008B02813AD9F780918F0290919002892BD9
:1036D000A9F78091E800877F8093E8008091E80057
:1036E00080FFFCCF80912F018093F1008091E80052
:1036F0008E77BDCF80918B02813201F780918F024E
:1037000090919002892BD1F68091E800877F809379
:10371000E8000E94941D80918D0280932F010C94EB
:10372000BA0880918B02813249F68091E800877F48
:103730008093E8000E94941D80918E02809378020D
:10374000089580918B02813A09F0B8CF8091E8000A
:10375000877F8093E8008091E80080FFFCCF809114
:103760007802C2CF84B7877F84BF0FB6F894A8953C
:1037700080916000886180936000109260000FBEAD
:1037800080E890E00FB6F894809361009093610018
:103790000FBE0C94A2190E94E41D0E94411EE2EE8D
:1037A000F0E080818460808378940C94CA2083E266
:1037B00091E00C94E81880918A028530A9F48091F8
:1037C0008A02853011F00C94E6190E94A5198091A7
:1037D00088028823A1F30E94D219882381F30E94D2
:1037E0003E1C0E94BA08EBCF089508950C94F81B74
:1037F000292F332723303105C9F058F42130310502
:1038000099F122303105A9F190E080E030E020E02C
:103810001DC02132310509F122323105A9F780E4BA
:1038200090E022E234E0672B79F710C099278130CD
:10383000910581F0009729F0029731F7ECECF3E065
:1038400002C0EAEEF3E0849190E09F01FA01318337
:1038500020830895E2EEF3E0F6CF89E090E020E0E7
:1038600034E0672B89F6F2CF82E190E020E134E08A
:10387000EDCF82E290E02EEE33E0E8CF80E189BD2B
:1038800082E189BD09B400FEFDCF8091D8008F7D13
:103890008093D8008091E00082608093E000809166
:1038A000E00081FDFCCF0895AF92BF92CF92DF92EE
:1038B000FF920F931F93CF93DF936C01EB018A016B
:1038C0000E94B31DF82E811123C00115110539F096
:1038D000F80180819181C81BD90BC80ED91EB12C6B
:1038E000A12C2097A9F08091E80085FD22C080914D
:1038F000E8008E778093E80001151105A1F0F8012A
:1039000080819181A80EB91EB182A08285E0F82E37
:103910008F2DDF91CF911F910F91FF90DF90CF906E
:10392000BF90AF9008950E94B31D8823D1F2F82E66
:10393000EFCFF60181916F018093F1002197FFEFA6
:10394000AF1ABF0ACECFFC018091910290919202F2
:1039500086179707A0F06115710529F49091E8008A
:103960009E779093E80090E06115710551F49111F4
:1039700008C08091E80082FF34C080E00895BC0157
:10398000F2CF80918A028823C1F18530C1F1809104
:10399000E80083FD30C08091E80082FDEACF80918D
:1039A000E80080FFE1CF8091F3002091F200382FF2
:1039B0006115710519F02830310558F091E0283073
:1039C000310509F090E02091E8002E772093E8007F
:1039D000CBCF81918093F100615071092F5F3F4FF0
:1039E000E7CF80918A02882341F0853041F08091B1
:1039F000E80083FFBECF81E0089582E0089583E070
:103A00000895FC0180919102909192028617970788
:103A1000A0F06115710529F48091E8008E778093FC
:103A2000E80090E06115710551F4911108C0809192
:103A3000E80082FF35C080E00895BC01F2CF80919C
:103A40008A028823C9F18530C9F18091E80083FD9D
:103A500031C08091E80082FDEACF8091E80080FFCC
:103A6000E1CF8091F3002091F200382F61157105AC
:103A700019F02830310558F091E02830310509F06F
:103A800090E08091E8008E778093E800CBCF84911E
:103A90008093F1003196615071092F5F3F4FE6CF5F
:103AA00080918A02882341F0853041F08091E800BE
:103AB00083FFBDCF81E0089582E0089583E00895FB
:103AC000982F973028F08F708093E90081E0089557
:103AD0009093E900242F762F50E0981731F07091E1
:103AE000EC002091ED005091F00021FD02C09F5F9D
:103AF000E8CF3091EB003E7F3093EB003091ED004A
:103B00003D7F3093ED003091EB0031603093EB005E
:103B10007093EC002093ED005093F0002091EE00A4
:103B200027FDE5CF80E0089580918B0287FF13C0C9
:103B30008091E80082FF06C08091E8008B77809337
:103B4000E80004C080918A028111F2CF089580912B
:103B50008A028823D9F38091E80080FFF8CF809112
:103B6000E8008E77ECCF2091E4003091E50095E6F7
:103B7000A9012091EC00822F817020FF06C0809166
:103B8000E80080FF06C080E008952091E80022FD53
:103B90001AC080918A02882389F0853089F080914B
:103BA000EB0085FD0FC02091E4003091E500421745
:103BB0005307F9F29150E1F684E0089582E0089508
:103BC00083E0089581E008950E94521E0E945A1ECB
:103BD000E0EEF0E0808181608083E8EDF0E08081BC
:103BE0008F77808319BCA7EDB0E08C918E7F8C938A
:103BF00080818F7E80831092890208950F931F9396
:103C0000CF93DF930E94521E0E945A1EC8EDD0E04F
:103C100088818F77888388818068888388818F7D79
:103C2000888319BC10928A02109286021092880230
:103C30001092870200EE10E0F80180818B7F808374
:103C400088818160888342E060E080E00E94601D9E
:103C5000E1EEF0E080818E7F8083E2EEF0E0808113
:103C600081608083808188608083F80180818E7F7D
:103C70008083888180618883DF91CF911F910F912C
:103C80000895E8EDF0E080818F7E8083E7EDF0E03D
:103C900080818160808384E082BF81E0809389029B
:103CA0000C94FE1DE8EDF0E080818E7F8083109201
:103CB000E20008951092DA001092E10008951F9238
:103CC0000F920FB60F9211242F933F934F935F9350
:103CD0006F937F938F939F93AF93BF93EF93FF93D4
:103CE0008091E10082FF0BC08091E20082FF07C05B
:103CF0008091E1008B7F8093E1000E94C920809138
:103D0000DA0080FF19C08091D80080FF15C0809133
:103D1000DA008E7F8093DA008091D90080FF96C010
:103D200080E189BD82E189BD09B400FEFDCF81E05B
:103D300080938A020E94C61A8091E10080FF19C018
:103D40008091E20080FF15C08091E2008E7F809319
:103D5000E2008091E20080618093E2008091D800CF
:103D600080628093D80019BC85E080938A020E940B
:103D7000D91A8091E10084FF2BC08091E20084FF7A
:103D800027C080E189BD82E189BD89B5982F9170F6
:103D900080FFFBCF8091D8008F7D8093D8008091E9
:103DA000E1008F7E8093E1008091E2008F7E80931E
:103DB000E2008091E20081608093E20080918602BF
:103DC000882309F449C084E080938A020E94E11AA2
:103DD0008091E10083FF29C08091E20083FF25C02C
:103DE0008091E100877F8093E10082E080938A02E6
:103DF000109286028091E1008E7F8093E100809195
:103E0000E2008E7F8093E2008091E20080618093E7
:103E1000E20042E060E080E00E94601D8091F000DE
:103E200088608093F0000E94D71AFF91EF91BF91B4
:103E3000AF919F918F917F916F915F914F913F9142
:103E40002F910F900FBE0F901F90189519BC1092D4
:103E50008A020E94D41A70CF8091E30087FD93E01C
:103E600090938A02B3CF1F920F920FB60F92112434
:103E70002F933F934F935F936F937F938F939F9372
:103E8000AF93BF93CF93DF93EF93FF93D091E9006C
:103E9000DF708091EC00C82FC17080FDC0E81092E7
:103EA000E9008091F000877F8093F00078940E9471
:103EB000771F1092E9008091F00088608093F000F5
:103EC000CD2BCF70C093E900FF91EF91DF91CF919F
:103ED000BF91AF919F918F917F916F915F914F9122
:103EE0003F912F910F900FBE0F901F9018951F9329
:103EF000CF93DF93CDB7DEB7AA970FB6F894DEBFA6
:103F00000FBECDBF8BE892E02091F100FC01219320
:103F1000CF01F2E083399F07B9F70E94FA1A809126
:103F2000E80083FF1EC180918B0290918C029A3031
:103F300008F017C1E92FF0E0EC59FE4D0C94F72082
:103F4000803899F0823809F00CC180918F028F700F
:103F5000873008F006C18093E9008091EB0085FB73
:103F6000882780F91092E90006C08091870290911D
:103F70008802911182609091E800977F9093E80009
:103F80008093F1001092F1008091E8008E77E5C0F7
:103F9000882309F4D3C0823009F0E3C080918D02F8
:103FA0008111D6C080918F028F702FEF280F26309D
:103FB00008F0D7C08093E9002091EB0020FFC8C033
:103FC000933031F48091EB0080628093EB00C0C0AD
:103FD0009091EB0090619093EB0021E030E001C004
:103FE000220F8A95EAF72093EA001092EA00809166
:103FF000EB008860EACF8111B4C010918D021F7769
:104000008091E3008078812B8093E3008091E80029
:10401000877F8093E8000E94941D8091E80080FFD4
:10402000FCCF8091E30080688093E30082E011116F
:1040300083E080938A0295C08058823008F091C056
:1040400080918D0290918E028C3D23E09207A1F524
:1040500083E08A838AE289834FB7F894DE0113965E
:1040600020E03EE051E2E32FF0E050935700E4916E
:1040700020FF03C0E295EF703F5FEF708E2F90E05E
:10408000EA30C0F0C7968D939D932F5F243159F786
:104090004FBF8091E800877F8093E8006AE270E07C
:1040A000CE0101960E94A31C8091E8008B7780933B
:1040B000E80057C0C096E7CF60918F0270919002E0
:1040C000AE014F5F5F4F0E94F61BBC01892B09F4C4
:1040D00048C09091E800977F9093E80089819A8189
:1040E0000E94011DE1CF8038E1F58091E800877FD3
:1040F0008093E800809186028093F10045CF811182
:1041000030C090918D02923060F58091E800877FF9
:104110008093E800909386020E94941D809186020D
:10412000882311F084E005C08091E30087FDFACF79
:1041300081E080938A020E94EB1A13C080918D0265
:10414000813079F481E0933009F080E08093880237
:104150001092E9008091E800877F8093E8000E9438
:10416000941D8091E80083FF0AC08091E800877F5A
:104170008093E8008091EB0080628093EB00AA9628
:104180000FB6F894DEBF0FBECDBFDF91CF911F9168
:1041900008950895CF9380918A028823A1F0C09159
:1041A000E900CF709091EC00892F817090FD80E83C
:1041B000C82B1092E9008091E80083FD0E94771FD0
:1041C000CF70C093E900CF9108950E94E41D109232
:1041D0008A020895E8EDF0E08081806180838AE1C1
:1041E0008A95F1F700C08091D90081700895EE0F93
:1041F000FF1F0590F491E02D0994FB01DC0102C042
:1042000001900D9241505040D8F70895F999FECF92
:1042100092BD81BDF89A992780B50895A8E1B0E0D4
:1042200042E050E00C943A21262FF999FECF92BD3E
:1042300081BDF89A019700B4021639F01FBA20BD6B
:104240000FB6F894FA9AF99A0FBE08950396272F9D
:104250000E9415210E941421252F0E941521242F30
:104260000C9415210196272F0E9415210C941421DE
:10427000DC01CB01FC01F999FECF06C0F2BDE1BD26
:10428000F89A319600B40D9241505040B8F7089515
:10429000F894FFCFAC06AC06DD06DD060C070C0774
:1042A0000C070C077007FC070B080B08C908C908A6
:1042B000D208D208D408D208D208D208C908C9083E
:1042C000D908D208D208D908A01FC81FB120C81F1A
:0C42D000B120FB1F1C20B12073207F20B8
:1042DC00C8000F02018102000000010000000081F3
:1042EC00020000000A010000008102040B00000023
:1042FC00000000921A971AC41A951AC51A961A0138
:10430C0034C6663632F5F6F79735F5F6F79735007D
:0C431C000000000000000000003D020056
:00000001FF
