:100000000C9462020C94A9020C94A9020C94081D91
:100010000C94A9020C94A9020C94A9020C94A902B4
:100020000C94A9020C94A9020C9443240C94172557
:100030000C94971F0C94A9020C94A9020C94A90289
:100040000C94A9020C94A9020C94A9020C94A90284
:100050000C94A9020C940A200C94A9020C94A902F5
:100060000C94A9020C94A9020C94A9020C94A90264
:100070000C94A9020C94A9020C94A9020C94A90254
:100080000C94A9020C94A9020C94A9020C94A90244
:100090000C94A9020C94A9020C94A9020C94A90234
:1000A0000C94A9020C94A9020C94A9021F00200030
:1000B0002100220001001A000800150017000100AD
:1000C0001600070009000A0001001B0006001900C5
:1000D00005000100E2008B002C002C0002511E00E4
:1000E000350000000000000014002B00000000009C
:1000F0000000040039000000000000001D00E100C5
:10010000000000000000E300E0000000000000002C
:1001100027002600250024002300130012000C00F5
:1001200018001C0033000F000E000D000B003800FB
:100130003700360010001100650088008A002C008E
:1001400001512D002E008900000000002F0030001A
:100150002A000000000034003200280000000000E7
:1001600087005200E50000000000500051004F00E1
:1001700000000000010001000100010001001F005B
:100180002000210022000100010001000100010007
:100190000100010001000100010001000100010057
:1001A000010001000100010001000000000000004A
:1001B0001E0001000000000000000100010000001E
:1001C000000000000100010000000000000001002C
:1001D000010000000000000001000100010001001A
:1001E0000100270026002500240023000100010053
:1001F00001000100010001000100010001000100F7
:1002000001000100010001000100010001000100E6
:1002100000000000010001000100000000000100DA
:1002200001000100000000000100010001000000C9
:1002300000000100010001000000000001000100B9
:1002400001000100C35C0100010001000100CA5C63
:100250000100010001000100C65C01000100010075
:100260000100C85C01000100010001000100010063
:10027000010000000000000001000100000000007B
:10028000000001000100000000000000010001006A
:10029000000000000000010001000000000000005C
:1002A0000100010001000100010001000100010046
:1002B0000100010001000100010001000100010036
:1002C0000100010001000100010001000100010026
:1002D0000100010001000100000000000100010018
:1002E000010000000000010001000100000000000A
:1002F00001000100010000000000010001000100F8
:1003000000000000010001000100010001000100E7
:1003100001000100010001000100010001000100D5
:1003200001000100010001000100010001000100C5
:1003300001000100010001000100000000000000B8
:1003400001000100000000000000010001000000A9
:10035000000000000100010000000000000001009A
:100360000100000000000000010001000100010088
:100370000100010001000100010001000100010075
:100380000100010001000100010001000100010065
:100390000100010001000100010001000100010055
:1003A0000000000001000100010000000000010049
:1003B0000100010000000000010001000100000038
:1003C00000000100010001000000000014036800AB
:1003D00061006C00660063006C00690066006600E6
:1003E000000006036E003200000004030904090245
:1003F0003B00020100A0FA09040000010301010012
:100400000921110100012240000705810308000AAB
:10041000090401000103000000092111010001226B
:1004200049000705820320000A12010002000000B3
:10043000083503210001000102000105010902A1A4
:100440000185020901A100050919012908150025E6
:1004500001950875018102050109300931158125D1
:100460007F95027508810609381581257F950175EC
:10047000088106050C0A38021581257F950175084B
:100480008106C0C005010906A101050719E029E799
:1004900015002501950875018102950175088101F6
:1004A0000507190029FF150026FF0095067508812C
:1004B0000005081901290595057501910295017539
:1004C000039101C011241FBECFEFDAE0DEBFCDBF24
:1004D00004B603FE27C08091C8029091C902A09182
:1004E000CA02B091CB028730904BA740B04BD1F4F9
:1004F0001092C8021092C9021092CA021092CB0246
:1005000014BE84B7877F84BF0FB6F894A8958091F6
:100510006000886180936000109260000FBEE0E090
:10052000F8E3099511E0A0E0B1E0EEE0FFE402C0DD
:1005300005900D92A635B107D9F722E0A6E5B1E006
:1005400001C01D92A83CB207E1F70E94EF160C947F
:1005500061270C940000F894E82FE295EF70F0E02A
:1005600031A1282F2F7081E090E001C0880F2A95DB
:10057000EAF7382B31A392A18095892382A378943E
:100580000895F894E82FE295EF70F0E031A1282F5C
:100590002F7081E090E001C0880F2A95EAF7982F2C
:1005A0009095932391A392A1892B82A37894089587
:1005B00008950C94D80208950C94DB020895E82F56
:1005C000F0E0E359FE4F8081089508950F931F9343
:1005D000CF93DF930E94041580910601809106015C
:1005E0009AE0811190E09093A3028AE0891B8093A6
:1005F000A202CFE3D1E08E01F80181918F010E9428
:10060000C102F1E009341F07B9F784E30E94C10277
:1006100086EC0E94C10286E60E94C10286E30E9427
:10062000C10282E30E94C10284E30E94C10286ECFF
:100630000E94C10286E60E94C10286E30E94C102B6
:1006400082E30E94C10289910E94C10281E0C93403
:10065000D807C9F7E1E8F1E0ADE6B1E011921D92EB
:1006600081E0E539F807D1F78AE00E94B3140E94CF
:10067000AD06DF91CF911F910F910C940E15FF9253
:100680000F931F93CF93DF93CDB7DEB72A970FB6A3
:10069000F894DEBF0FBECDBF0E94EA14F82E609121
:1006A000A302882309F451C08E010F5F1F4F8AE017
:1006B000F80111928A95E9F7862F90E0B8018359E5
:1006C0009E4F0E947115811123C080916C018F5F34
:1006D00080936C018630B8F1E091A202F0E0E3591A
:1006E000FE4FD801CE010B9611921D92A817B907A3
:1006F000D9F70E94B3068F2D2A960FB6F894DEBF65
:100700000FBECDBFDF91CF911F910F91FF90089544
:1007100010926C01A091A202B0E0A359BE4F9E01BD
:10072000255F3F4FF12C4D91F80191918F014917B1
:1007300031F0AD0141505109FA019083F82E0217B2
:10074000130789F7D6CFF12CD4CF70E063597E4FD1
:100750008091A20290E083599E4F0E9473150E94DF
:10076000DE02C9CF6F927F929F92AF92BF92CF92DB
:10077000DF92EF92FF920F931F93CF93DF9301E8E5
:1007800011E04FE3C42E41E0D42EC0E0D1E0D60109
:10079000AD906D018A2D0E94AB02B0EABA95F1F7D7
:1007A0003AE3E32E31E0F32EF70130E020E0B12C04
:1007B0004191A42FA295AF70B0E090968C9190E0FB
:1007C0004F7002C0959587954A95E2F780FD94C0D9
:1007D0008D2F022E01C0880F0A94EAF7B82A2F5FE6
:1007E0003F4F2530310521F78A2D0E94C102E0EAF2
:1007F000EA95F1F7D8018C91B81609F47FC0BC9244
:1008000081E0C82B0F5F1F4FB4E4CB16B1E0DB06CD
:1008100009F0BDCF10E000E0AA24A394B12C22E699
:10082000C22E21E0D22EF70191907F01892D0E94E6
:10083000AB02F0EAFA95F1F7C501002E01C0880F6E
:100840000A94EAF7782F682F6095E8E5F1E08FE3E6
:10085000682E81E0782ED0E03191D3012D913D01B9
:10086000422F42954F7050E0DA0190968C9190E0C3
:100870002F7002C0959587952A95E2F780FD40C0BC
:10088000872F832B381731F09F0121503109D9016F
:100890008C93D1E0CE16DF06F9F6892D0E94C102B5
:1008A000043019F0B0EABA95F1F7CD2B61F50F5F7E
:1008B0001F4F0530110509F0B6CF6091A30270E01B
:1008C00063597E4F2C2F4AE081E891E00E94B414D6
:1008D0000E943F03C11101C0C82F8C2FDF91CF911F
:1008E0001F910F91FF90EF90DF90CF90BF90AF904E
:1008F0009F907F906F90089580E070CF80E081CFCF
:10090000862F8323BFCF80915D01809386018091E4
:100910005E018093870180915F01809388018091BF
:100920006001809389018091610180938A01BFCF2A
:10093000CF93DF93FA016230710519F4223031054B
:1009400039F08FEF818381E090E0DF91CF910895BE
:100950001B9B33C02B9A239A47E050E02998EC0167
:10096000288130E0042E02C0359527950A94E2F7DD
:1009700020FF25C02B9A299A4150510978F72AE186
:100980002A95F1F700C023982B9A118287E090E016
:100990002998299A23B123FBAA27A0F9B0E0AD0139
:1009A000082E01C0440F0A94EAF72181242B2183E9
:1009B000019770F790E080E0C8CF2B98CCCF2B98B0
:1009C000DACF0F93CF93DF9300D000D0CDB7DEB74F
:1009D0001B828FEF8C8389838A83E0910001F091E1
:1009E00001010FEF22E030E0AE014F5F5F4F62E0A8
:1009F00070E0CE01039609958A810F900F900F90B9
:100A00000F90DF91CF910F910895219A23982B9AFF
:100A10000895AF92BF92CF92DF92EF92FF920F9321
:100A20001F93CF93DF9300D000D0CDB7DEB75C012A
:100A30006B017A0182E08B831FEF1C8319831A8379
:100A4000E0910001F09101010FEF22E030E0AE01F2
:100A50004F5F5F4F62E070E0CE01039609958A8197
:100A6000F501808383E08B831C8319831A83E091D3
:100A70000001F091010122E030E0AE014F5F5F4FD5
:100A800062E070E0CE01039609958A81F6018083C9
:100A900084E08B831C8319831A83E0910001F09119
:100AA000010122E030E0AE014F5F5F4F62E070E095
:100AB000CE01039609958A81F701808381E090E059
:100AC0000F900F900F900F90DF91CF911F910F918A
:100AD000FF90EF90DF90CF90BF90AF900895FB0113
:100AE000893F910509F43FC038F4815F9109853051
:100AF000910598F081E055C08B3F910509F452C0F3
:100B000008F443C08C3F9105A9F78281882309F43A
:100B100057C081E08093A9022CC04091AB0221E034
:100B200030E0B90102C0660F771F8A95E2F7CB016A
:100B300022812223A9F0842B8093AB024091AA0248
:100B40005091AB026091AC027091AD028091AE0207
:100B50009091AF020E94171A0E94BC1980E008957C
:100B600080958423E9CF8281882331F081E08093CE
:100B7000A80280939801F2CF9091A80219168CF4E4
:100B80001092A80210929801E9CF8281882329F05F
:100B90008FEF8093A80281E0ECCF9091A80297FD9F
:100BA000EFCF08958281882321F08FEF8093A902EF
:100BB000F2CF9091A90297FFF4CF1092A902E2CF51
:100BC0009091A9021916CCF308950C940505CF93C2
:100BD000DF9300D00F92CDB7DEB7809198018823C4
:100BE00029F18091990190919A01019690939A012F
:100BF000809399010A97D1F48091A8028093AE0264
:100C00009091A9029093AF024091AA025091AB0239
:100C10006091AC027091AD020E94171A1092AE0260
:100C20001092AF0210929A01109299018091960150
:100C3000909197019C012F5F3F4F30939701209334
:100C4000960162E370E00E94DB26892B89F50E9401
:100C5000E104803319F581E080939501AE014F5F87
:100C60005F4FBE016E5F7F4FCE0103960E94090564
:100C70006A8161956093AC02798171957093AD0240
:100C80008B8187FF0DC04091AA025091AB028091E9
:100C9000AE029091AF020E94171A02C01092950105
:100CA0000E94BC190F900F900F90DF91CF91089583
:100CB000809195018823A1F3D1CF81E008950C9410
:100CC0006F0508950C9461061F93CF93DF9300D0B6
:100CD00000D00F92CDB7DEB749835A836B83309132
:100CE0009B0189819A8131111DC06623B9F02223AD
:100CF000A9F00E94C20C182F682F89819A810E9446
:100D00006B0C69817A81812F0F900F900F900F905B
:100D10000F90DF91CF911F910C9459130E94990C61
:100D2000182FEFCF0E94C20C69817A81EDCFFC01B0
:100D3000262F408151816281738184810C946406E5
:100D400081E00895CF93DF93EC0160E00E94970665
:100D5000BE01DF91CF910C9462060E948F140E9415
:100D60002C070C94D9020C94DC0280E00E942D0721
:100D70000C94E705089508950E94140B0E94BB0689
:100D80002FEF84E39CE0215080409040E1F700C0C9
:100D900000000C942E200F931F93CF93DF938C01B0
:100DA00061E00E949706EC01B8010E945F0688236B
:100DB000A9F1B801CE010E940E1C882379F1B80177
:100DC000CE010E944E1A882349F1B801CE010E943B
:100DD000781B882319F1F8018281882361F0CB35D3
:100DE000FDE5DF0721F170F4C115ECE5DE07A1F0A8
:100DF000CF3DDC45C9F0C801DF91CF911F910F9124
:100E00000C945D06CC358DE5D807A1F0CD35DD45D8
:100E100091F70E94EA10EFCF0E94BC0680E0DF91BC
:100E2000CF911F910F9108950E949E11F7CF0E94BC
:100E3000F310E1CF0E94F610DECF0C94BA060E94A8
:100E40008C1E0E942D070C941D0708950C942507F5
:100E500081E008950C9428070895CF93C82F0E942D
:100E600026078C2FCF910C942A07CF93DF93CDB711
:100E7000DEB72B970FB6F894DEBF0FBECDBF4F8302
:100E8000588769877A878B8761110E9445101E8277
:100E90001D8285E0FE013796DE01119601900D92CC
:100EA0008A95E1F78C819D81892B89F449815A814A
:100EB0006B817C818D819E810E94660F2B960FB67F
:100EC000F894DEBF0FBECDBFDF91CF910895898129
:100ED0009A8189238F3F51F3CE0101960E94A0068B
:100EE0008111E4CFEBCFFC01808191810C94040D42
:100EF0000F931F93CF93DF9300D000D000D0CDB7D6
:100F0000DEB7082F162F0E94F61929834B835C83C6
:100F10006D837E83002399F0312B4981532F6B81A0
:100F20007C818D819E8126960FB6F894DEBF0FBE20
:100F3000CDBFDF91CF911F910F910C94171A10958F
:100F40003123EBCFCF93C82F882309F471C08238A7
:100F5000C1F40E948C1E81FD6BC089E30E940010C9
:100F60000E9468102FEF81EE94E021508040904065
:100F7000E1F700C0000089E30E940710CF910C94B4
:100F800068108338A1F40E948C1E80FD51C083E557
:100F90000E9400100E9468102FEF81EE94E0215013
:100FA00080409040E1F700C0000083E5E5CF843841
:100FB000A1F40E948C1E82FD3BC087E40E940010B9
:100FC0000E9468102FEF81EE94E021508040904005
:100FD000E1F700C0000087E4CFCF8CEF8C0F813A9F
:100FE00090F46C2F80910401909105010E94F61EEF
:100FF000882329F08C2F0E9407100E9468108C2FE4
:101000000E940010BBCF80E28C0F883048F4C7707C
:1010100081E001C0880FCA95EAF70E942810AECF80
:10102000CD3E30F08C2F0E947F17CF910C94521838
:10103000CF910895882309F452C0823871F40E9438
:101040008C1E81FF4CC089E30E9400100E94681032
:1010500089E30E9407100C946810833859F40E94A9
:101060008C1E80FF3CC083E50E9400100E94681027
:1010700083E5EFCF843859F40E948C1E82FF2FC085
:1010800087E40E9400100E94681087E4E2CF9CEF82
:10109000980F913AF0F290E2980F983050F48770E0
:1010A00091E001C0990F8A95EAF7892F0E942E10CE
:1010B000D2CF9BE5980F933020F490E080E00C9421
:1010C000B81E98E5980F973120F490E080E00C94DA
:1010D000CE1E8D3E20F00E94D9170C945218089510
:1010E0001F93CF93DF93182FEB010E94A207209745
:1010F00031F4812FDF91CF911F910C941A088FE961
:101100009FE00197F1F700C000002197F0CF70E059
:1011100060E0893311F460E570E00C947008882376
:1011200021F00E9428100C9468100895882321F063
:101130000E942E100C9468100895BF92CF92DF92F7
:10114000EF92FF920F931F93CF93DF936C01D62FF3
:10115000C72FFC011281F580F2949FE0F9220E94D2
:101160001E10E82E8823B9F0E12E1123A1F08C2F58
:10117000807F803421F080E28D0F8830D0F0809124
:10118000B50282FD16C082E00E94B9100E941E10B6
:1011900091E0E82EE926BC2EB2948FE0B822FBE065
:1011A000FB1508F468C0EB2DF0E0ED59F84D0C94F8
:1011B000EF26E12CF0CF0C2F0F70C07F11F00295BD
:1011C000007F112399F0002359F080E28D0F8830C1
:1011D00010F0D11107C0802F0E9428100E946810C3
:1011E0008D2F41C0802F0E943810F8CF8D2F0E9484
:1011F0001A08002309F43FC080E28D0F883010F0F8
:10120000D11104C0802F0E942E1003C0802F0E9495
:101210003E100E9468102FC00C2F0F70C07FC0328C
:1012200011F00295007FDD2381F0D13009F46AC00E
:10123000112309F474C0FF2009F46AC0F601858106
:1012400080FFCECF8F70858363C08091B50282FF0F
:1012500039C0112359F0002329F0802F0E94281053
:101260000E94681080E00E94A20705C080E00E94F2
:101270001A080111C7CF2B2D2850330B243031050C
:1012800020F40E948C1E0E942D07EE2009F471C1EB
:101290000E941A1080FD6DC1F60112820E94141086
:1012A0000E94CF0BC6010E94DA0A0E941410DF913F
:1012B000CF911F910F91FF90EF90DF90CF90BF9053
:1012C0000C94F00B112389F0F11006C00E944B1012
:1012D000802B0E948F08CFCF21E0F212F7CF0E941F
:1012E0004B10802B0E945110C6CFF11006C00E94F7
:1012F0005E10802F0E949608BECF31E0F31609F4ED
:10130000BACFF5CF112331F085E08F1508F4B3CFB4
:10131000802FDFCF94E09F1508F4ADCFEACFFF20F8
:1013200041F3D93349F4FFEF27EE33E0F150204089
:101330003040E1F700C000008D2F0E941A089BCFBB
:101340008D2F112391F00E947F17ED2FE15FFF0B8E
:10135000E830F10568F461E070E001C0660FEA95DD
:10136000EAF7812F0E94780786CF0E94D917EDCF28
:101370000E94521880CF8C2F837009F041C0111148
:101380007ACF4D2F429546954770440F440F0D2F4D
:101390000F7010E030E020E0042E04C0000F111F99
:1013A000221F331F0A94D2F760E070E0CB01D4FF14
:1013B0000FC06FE070E080E090E004C0660F771F20
:1013C000881F991F4A95D2F76095709580959095E2
:1013D000C695C695C370602B712B822B932BC230A0
:1013E00049F058F4C13019F00E94810B44CF0E949B
:1013F0006F0B41CF0E94930B3ECF0E946D0B3BCFF2
:101400008695112311F08C2F8170882309F433CF36
:101410004D2F429546954770440F440F0D2F0F7086
:1014200010E030E020E0042E04C0000F111F221F46
:10143000331F0A94D2F760E070E0CB01D4FF0FC0F5
:101440006FE070E080E090E004C0660F771F881FB7
:10145000991F4A95D2F76095709580959095C6959D
:10146000C695C370602B712B822B932BC23049F031
:1014700058F4C13019F00E94460CFDCE0E94340C85
:10148000FACE0E94580CF7CE0E94A90BF4CECF7072
:10149000112329F08C2F0E94CF0B8D2F1ACF8D2F67
:1014A0000E9496088C2F0E94F00BE5CED23F51F19E
:1014B00060F4D03FB9F0D13F81F0112309F449C065
:1014C000F1108ECE8C2F8F7121C0D33F11F1D43FFC
:1014D000A1F78091B50282FF26C08C2F8F71112356
:1014E00011F314C0112349F0F4E0FF1508F4C3CE42
:1014F0008C2F8F710E94130CBECE25E02F1508F49F
:10150000BACEF6CF8C2F8F711111CDCF0E94CF0B99
:10151000B2CE112329F08C2F8F710E94BA0BABCE63
:101520000E94B50BA8CE112349F0CF718C2F0E94D9
:10153000CF0B63E08C2F0E949E109DCE81E00E9415
:10154000B91031E03F1508F096CE82E00E94B91044
:1015500092CEFF2059F0D93309F0EECE8FEF97EEFF
:10156000E3E081509040E040E1F7E4CE8C2F8F71B2
:101570009ACFDF91CF911F910F91FF90EF90DF9065
:10158000CF90BF9008950F931F93CF93DF93EC01FB
:10159000688179818A810E940E0D8C010E946A0CFB
:1015A0000E946C0BB801CE01DF91CF911F910F917A
:1015B0000C949D08CF93DF93EC018B819C81892B48
:1015C00029F08881998189238F3F59F4DF91CF9148
:1015D0000895CE010E94C30ACE01DF91CF910C94F1
:1015E000A206CE010E94CB068111F3CF0E941E10ED
:1015F000882361F38A81882349F38091B50282FDB3
:10160000E5CF82E0DF91CF910C94B9100E94451094
:101610000E9448100E9468100E9479190C94521878
:101620000E940E100C94060B0E9435100C94100BA7
:10163000E92FE295EF70E250EE3070F4F0E0E159FE
:10164000F84D0C94EF26803F19F020F4883E20F4EA
:1016500081E00895843FE1F380E00895883EC0F37F
:10166000813FD1F7F5CF93FB882780F90895FC01DE
:10167000808191810E94040D0C94180BCF93DF930D
:1016800000D000D00F92CDB7DEB70F900F900F9023
:101690000F900F90DF91CF910895CF93DF9300D0FB
:1016A00000D000D0CDB7DEB726960FB6F894DEBFD7
:1016B0000FBECDBFDF91CF91089508950C945D0BBF
:1016C0000E945E0B6093E1017093E2018093E3015D
:1016D0009093E4010C94060B08950C94600B0F9307
:1016E0001F930091E1011091E2012091E3013091FB
:1016F000E401602B712B822B932B1F910F910C9483
:10170000600B0F931F930091E1011091E201209172
:10171000E3013091E40160237123822393231F911D
:101720000F910C94600B0F931F930091E1011091A6
:10173000E2012091E3013091E401602771278227C3
:1017400093271F910F910C94600B0C945D0B0C94DC
:10175000A50B0E94A70B6093DD017093DE018093BF
:10176000DF019093E0010C94060B60E070E0CB0188
:101770000C94A90B0F931F9341E050E060E070E0E0
:101780008A019B0104C0000F111F221F331F8A957D
:10179000D2F7C901B8011F910F910C94A90B0F93B7
:1017A0001F9341E050E060E070E004C0440F551F1B
:1017B000661F771F8A95D2F78091DD019091DE0137
:1017C000A091DF01B091E0018A019B01082B192B48
:1017D0002A2B3B2BC901B8011F910F910C94A90B27
:1017E0000F931F9341E050E060E070E004C0440FAD
:1017F000551F661F771F8A95D2F7CB01BA016095F6
:101800007095809590950091DD011091DE012091F9
:10181000DF013091E00160237123822393231F9124
:101820000F910C94A90B0F931F9341E050E060E0DF
:1018300070E004C0440F551F661F771F8A95D2F7CA
:101840008091DD019091DE01A091DF01B091E00176
:101850008A019B01082719272A273B27C901B801BC
:101860001F910F910C94A90B0F931F930091DD0111
:101870001091DE012091DF013091E001602B712B8E
:10188000822B932B1F910F910C94A90B0F931F93F5
:101890000091DD011091DE012091DF013091E00126
:1018A00060237123822393231F910F910C94A90B22
:1018B0000F931F930091DD011091DE012091DF0154
:1018C0003091E00160277127822793271F910F91A4
:1018D0000C94A90B0895E92FEE0FEE0F9E0F890FC0
:1018E000982F977041E001C0440F9A95EAF78695CA
:1018F0008695869595E0899FF0011124E456FE4F68
:1019000030E020E070E05191DF011197CB01022E11
:1019100002C0969587950A94E2F781708195852794
:10192000842385278C932F5F3F4F2530310559F74E
:101930000895E92FEE0FEE0F9E0F890F982F9770E5
:1019400086958695869525E0829FF0011124E456C0
:10195000FE4F50E040E080E0219130E0092E02C0CF
:10196000369527950A94E2F721703327042E01C09B
:10197000220F0A94EAF7822B4F5F5F4F45305105E3
:1019800059F70895BF92CF92DF92EF92FF920F9393
:101990001F93CF93DF938C01C090DD01D090DE01C7
:1019A000E090DF01F090E0018091E1019091E2018F
:1019B000A091E301B091E401C82AD92AEA2AFB2ABE
:1019C000CFE1D0E0BC2ED701C6010C2E04C0B695E5
:1019D000A795979587950A94D2F780FD0EC0219719
:1019E00088F7B12C8B2DDF91CF911F910F91FF9034
:1019F000EF90DF90CF90BF900895B8018C2F0E9498
:101A00006D13019761F3EECFCF93DF93EC010E944A
:101A1000C20CBE01DF91CF910C946D131F93CF9335
:101A2000DF93EB0190919B01992331F0CB01DF9182
:101A3000CF911F910C94040D882379F0CB010E9463
:101A4000C20C182F682FCE010E946B0CBE01812F93
:101A5000DF91CF911F910C946D13CB010E94990CD3
:101A6000182FF4CF1F93CF93DF93C091E50116E0B9
:101A70008091E6018C1304C0DF91CF911F910895EE
:101A8000D0E01C9FF0011D9FF00D1124E951FE4F85
:101A90004081518162817381848195810E944D0BC7
:101AA0002196C770E5CF40911702509118026091BE
:101AB000190270911A0280911B0290911C020C94E1
:101AC0004D0BFF920F931F93CF93DF9380911C02D6
:101AD000807FD1F4809119028823B1F08091E501D3
:101AE0001091E6016091170270911802A0911A02FC
:101AF000B0911B02062F0723C0910201D091030170
:101B000096E0F92E181306C0DF91CF911F910F9127
:101B1000FF90089590E0109711F00F3F19F401968F
:101B20008770F0CFF89E9001F99E300D1124F901D5
:101B3000E951FE4F41814713F2CF40814613EFCF69
:101B400042814111ECCF438154814A1B5B0B4C17FE
:101B50005D0728F780911C028F70806180931C02C2
:101B6000F901E451FE4F80818F708061808387E1AD
:101B700092E00E94DA0ADF91CF911F910F91FF90BE
:101B80000C94320DAF92BF92CF92DF92EF92FF9200
:101B90000F931F93CF93DF93CDB7DEB761970FB647
:101BA000F894DEBF0FBECDBF8C0185E0F801DE01E9
:101BB0001D9601900D928A95E1F7F801E28087E188
:101BC000C82E82E0D82E60911A0270911B02611516
:101BD000710509F45FC19091170220911802892FB5
:101BE00082238F3F09F456C140815181A380B48084
:101BF000F0901902F501E61BF70BBF01E09102011D
:101C0000F0910301FF2009F4F6C080911C02382FE7
:101C1000307F6E177F0708F0AFC0311179C0FE2CFE
:101C2000251323C0941321C0E1101FC08F70806161
:101C300080931C020E94530DC6010E94DA0A809113
:101C40001C02F80185838F2D61960FB6F894DEBFD4
:101C50000FBECDBFDF91CF911F910F91FF90EF90FD
:101C6000DF90CF90BF90AF900895AB2829F0842FDC
:101C700085238F3F09F027C180E0F82FF170DF2E18
:101C800080FF3CC08091E5012091E60136E082139F
:101C900015C04D875E878D859E850E94040D292F76
:101CA00022952F702230F0F0243018F59F70F1F05B
:101CB000F8019581907FD1F4D12C1EC090E0389F1F
:101CC000F001399FF00D1124E951FE4F6181651338
:101CD00006C06081641303C062816E110FC001965B
:101CE0008770D5CF9F7011F0882331F3805E8830E4
:101CF00018F3C8010E94DA0AFD2CA5CFEE2009F4E2
:101D0000A2CF80911C02816080931C02F12C9BCF9A
:101D1000251306C0941304C0F801EE2009F487C00F
:101D2000C8010E94370B882319F1EE2009F1809138
:101D30001C02803270F0209117023091180238870F
:101D40002F831986BB86AA868C87CE0107960E94B0
:101D5000DA0A86E0F801A7E1B2E001900D928A95D7
:101D6000E1F70E94610D0E94530DFF24F3946BCFA5
:101D7000C8010E94DA0AF9CF311113C07A2DB98A4D
:101D8000A88A6E2D89890E943E0B87E192E00E940D
:101D9000DA0A86E0F60111928A95E9F70E94530D5E
:101DA000B5CF25130FC094130DC0E1100BC0F8017F
:101DB0008583C8010E94DA0A86E0F60111928A95AD
:101DC000E9F741CFC8010E94370B882389F2EE2042
:101DD00079F280911C02803208F4BBCF2091170267
:101DE000309118023A8329831B82BD82AC828E8394
:101DF000CE010196ACCF6E177F0708F03EC0FE2CD7
:101E0000EE2009F4B5CF25132AC0941328C0809181
:101E10001C0280FD1BC0982F907FC1F0F8018583C4
:101E2000903F31F0982F907F905F8F70892B858342
:101E3000C8010E94DA0A86E0F801A7E1B2E0019049
:101E40000D928A95E1F70E94530DFDCE86E0F801D0
:101E5000A7E1B2E001900D928A95E1F7F4CEC801B6
:101E60000E94370B811175CF80911C028160809395
:101E70001C02C8010E94DA0AE6CE7A2DB98AA88A25
:101E80006E2D89890E943E0B86E0F60111928A959B
:101E9000E9F7D9CFEE2009F46BCFC8010E94370BC8
:101EA000F82E882309F464CF86E0F801A7E1B2E0B8
:101EB00001900D928A95E1F787E192E00E94730705
:101EC0000E94610DC0CF81E08E25D7CE1F93CF93A6
:101ED000DF93CDB7DEB72C970FB6F894DEBF0FBEF9
:101EE000CDBF4F83588769877A878B879C87CE01C0
:101EF00007960E94C20D882369F08A859B85892BED
:101F000039F04F815885842F85238F3F09F071C0A8
:101F100016E05FC086E0FE013796DE011196019063
:101F20000D928A95E1F78A859B85892B89F38F81AC
:101F3000988589238F3F61F32091E60130E0C90144
:101F40000196877099274091E5014817190671F4A9
:101F50000E94140B1092E6011092E50186E0E7E181
:101F6000F2E0DF011D928A95E9F7D2CF96E0929FC9
:101F7000D001939FB00D1124A951BE4FFE0131969F
:101F800001900D929A95E1F78093E6010E94320D3F
:101F9000BFCF819FC001112489519E4F0E94C20D65
:101FA0008823E9F0E091E5011E9FF0011124E95139
:101FB000FE4F4081518162817381848195810E94AD
:101FC0004D0B8091E50190E00196877099278093F1
:101FD000E5018091E5019091E6018913DACF2C9615
:101FE0000FB6F894DEBF0FBECDBFDF91CF911F912A
:101FF000089569857A858B859C850E944D0B88CFD5
:10200000682F80910401909105010C942C1F682F7A
:1020100080910401909105010C942E1F8091040180
:10202000909105010C94301F80911D028595859536
:102030008595089580911D028770089590911D02E5
:10204000977081E009F480E0089580912902089555
:1020500090912902892B809329020895809590916F
:102060002902982390932902089510922902089535
:1020700090912802892B8093280208958095909151
:102080002802982390932802089510922802089518
:1020900010922702089580911E02089508950C94CD
:1020A0004E109091B50292FD08C090911E029817B3
:1020B00021F080931E020C944F10089580911E020F
:1020C000882329F010921E0280E00C944F1008958E
:1020D000E0910401F0910501809129028083E09153
:1020E0000401F0910501808190912802892B808361
:1020F000E0910401F0910501808190912702892BE4
:10210000808390911E02992381F0E0910401F09167
:1021100005018081892B80838091040190910501C4
:102120000E94E41E81110E945E1080910401909132
:1021300005010C949F1E08950C949B109091B5027C
:1021400092FD10C098E0899F90011124622B60934A
:102150001D020E94CF0B80911D0285958595859566
:102160000C949C100C94CF0B10921D0280E00C94E8
:102170009C1090911D028095892380931D02282F29
:10218000277091F4282F082E000C330B921713069A
:1021900059F09091B50292FD07C08595859585957A
:1021A0000E94F00B0C94B41008959091B50292FB2C
:1021B000222720F9281769F080FB92F99093B50245
:1021C0008091B4029091B5020E941A1182E00C94A1
:1021D000B91008958091B50282FB882780F991E0BB
:1021E00089270C94D51081E00C94D51080E00C94D4
:1021F000D51090E080E00E94272721E0893E9E4F85
:1022000009F020E0822F089582E090E00C941F27CF
:1022100083E090E00C941F27CF9384E090E00E942D
:102220001F27C82F82E290E00E941F27982F8C2F33
:10223000CF910895CF93C92F682F84E090E00E943A
:102240002D276C2F82E290E0CF910C942D27AB01CB
:10225000BC018FE090E00C943F27AB01BC0183E10F
:1022600090E00C943F2760E070E0CB010C942D11BE
:1022700060E070E0CB010E9427110C94331169EEED
:102280007EEF90E080E00E944B2760E082E090E0EB
:102290000E942D2760E083E090E00E942D2710929D
:1022A000E1011092E2011092E3011092E40160E07A
:1022B00084E090E00E942D2760E082E290E00E949E
:1022C0002D2760E085E090E00E942D2760E086E009
:1022D00090E00E942D276FEF87E090E00E942D276D
:1022E00040E050E0BA0188E090E00E943F2760E0C3
:1022F0008DE090E00E942D2740E050E0BA0188E197
:1023000090E00E943F2760E087E190E00E942D2747
:1023100040E050E0BA018CE190E00E943F2770E07D
:1023200060E080E290E00E944B2740E050E0BA017C
:1023300088E190E00E943F270C9438110C943F11E3
:10234000682F8EE090E00C942D270E94D31F60939D
:102350004302709344028093450290934602609337
:102360003F0270934002809341029093420208958D
:1023700085B7806885BF85B7806885BF0895089553
:1023800008950C94BF1108950C94C3110E94B811C4
:102390008CE894E10E94821E0E94C0110C94C1112D
:1023A0000C94EA14089508950E94D2110C94D3114C
:1023B0000E94BE1F0E944B140E94E6020E94361A21
:1023C0000E94E5050C94C411AF92BF92CF92DF92A8
:1023D000EF92FF920F931F93CF93DF93CDB7DEB7AA
:1023E0002A970FB6F894DEBF0FBECDBF0E94B2038E
:1023F00081110E94A5118BE2A82E82E0B82E10E078
:1024000000E0C02E802F0E94DF02E82EF501F1903F
:102410005F01F81609F44FC08091470281FD0E94C8
:10242000E5028F2D8E25D12CFF24F394982F9F2128
:10243000E9F10E94D011882399F0DE82CF82EF204B
:1024400081E009F480E088870E94C71F8160782FAF
:102450009A8789874E815F8168858A850E943507C2
:10246000F801E55DFD4F8081F826F0820E946D182D
:102470000E94E7050E948C1E90912A02891791F113
:102480000E948C1E80932A022A960FB6F894DEBF13
:102490000FBECDBFDF91CF911F910F91FF90EF90B5
:1024A000DF90CF90BF90AF900C942D07D394FF0C8A
:1024B000F5E0DF12BBCF0F5F1F4F0431110509F0AC
:1024C000A0CF8FEF89838A831B820E94C71F816000
:1024D000782F9D838C8349815A816B818D810E94E5
:1024E0003507C4CF2A960FB6F894DEBF0FBECDBF16
:1024F000DF91CF911F910F91FF90EF90DF90CF90E0
:10250000BF90AF900895CF93DF930E947113EC01B9
:10251000811522E5920778F5811531E5930708F0DA
:1025200098C08F3F910509F0B8F48D3E910508F0F1
:102530006FC0853A910540F48430910548F40197C5
:1025400039F0D0E0C0E004C0805E91090897C8F778
:10255000CE01DF91CF910895811540E5940708F0F1
:102560005CC0C11580E4D80708F054C0C11590E2E2
:10257000D90770F3E6CF811526E5920718F5811586
:1025800035E5930708F07DC0811544E5940708F010
:1025900073C0982F969596959E0123703327C11589
:1025A000D34508F45BC0C1E0D0E002C0CC0FDD1F12
:1025B0002A95E2F730E2939FC0011124C82BD92B52
:1025C000DA68C6CFC1159AE5D90778F4C11529E5AF
:1025D000D20708F060C0C11538E5D30708F4B1CFC1
:1025E000DC2FCC27C06FD06AB3CFCE0190568115B7
:1025F000904208F0A6CF8D2F8F710E94081490E0B2
:10260000982F882788279F719C012C2BE90141C0B6
:10261000D0659ECFDF70D06A9BCFE4E0969587951A
:10262000EA95E1F783702C2F26952695237090E28A
:10263000299F90011124382B8C2F8370C1E0D0E0AA
:1026400002C0CC0FDD1F8A95E2F7C22BD32BDC68CA
:102650007FCFD82FCC27C16FD06A7ACFC1E0D0E02E
:1026600002C0CC0FDD1F2A95E2F720E2929FC00145
:102670001124C82BD92BEBCFD82FCC27C46FD06A0D
:1026800067CF0E940814C82FD0E0DC2FCC27CC27BE
:10269000DF71D0625DCF8C2F8F700E94081434E000
:1026A000D695C7953A95E1F7CF709C2FEC01D0698C
:1026B0004FCF972F70E025E0929F600D711D112480
:1026C000FB0194E6899FE00DF11D1124EE0FFF1F21
:1026D000E455FF4F8591949108950E9459130C94ED
:1026E000831282389105B1F1B0F48133910509F478
:1026F00075C048F48932910509F469C08A329105A0
:1027000009F473C008958533910509F459C08933DC
:10271000910501F10895833E9105A9F138F4803EB9
:102720009105F9F0823E910549F10895863E9105A3
:10273000A9F1873E9105C9F1843E910519F52091D3
:10274000B50221FF1FC08091B40284FD14C087EE42
:1027500090E008952091B4022370A1F080EE90E003
:1027600008952091B40220FD47C03091B50230FF9A
:1027700009C024FF44C090E080E004C02091B4026E
:1027800022FDF7CF08952091B40222FD3BC0309185
:10279000B50230FDE3CF24FFF5CFEDCF2091B40299
:1027A00023FFF0CF24FDE7CFD2CF2091B40223FD49
:1027B0002CC03091B50231FFEECF84EE90E0089549
:1027C0002091B40225FFDECF89E290E008952091A8
:1027D000B40225FFD7CF85E390E008952091B4029D
:1027E00026FFD0CF8AE290E008952091B40226FF20
:1027F000C9CF81E390E0089589E390E0089583EEE6
:1028000090E0089582EE90E0089586EE90E00895BD
:102810009091B40292FF06C0282F28712830F9F455
:10282000877F846093FF06C0282F28712831F1F438
:10283000877E84612091B50220FF06C0382F387151
:102840003830D9F4877F816021FF06C0282F287196
:102850002831D1F4877E816194FD877E0895282FE9
:1028600024712430F9F68B7F8860DCCF282F247107
:10287000243101F78B7E8861DDCF382F3171313003
:1028800019F78E7F8860E0CF282F2171213121F741
:102890008E7E8861E1CF1092B0021092B102109248
:1028A000B2021092B3020895CF92DF92EF92FF929C
:1028B0006B017C010E94EA1481110EC00E94D31F9B
:1028C000C61AD70AE80AF90AC092B002D092B10239
:1028D000E092B202F092B302FF90EF90DF90CF90BF
:1028E00008950F931F930E94EA14882321F01F91EB
:1028F0000F910C94D31F0E94D31F0091B00210912E
:10290000B1022091B2023091B302600F711F821F99
:10291000931F1F910F91089580E0089508950E94DC
:10292000F910811102C00E949E110E94041180932F
:1029300047020E940C119093B5028093B4020E944A
:102940008E140E940811682F70E090E080E00E94D1
:102950006D0B6091DD017091DE018091DF0190913E
:10296000E0010C94A70B0895FF920F931F93CF9350
:10297000DF93F82E092F162FD72FC42F222349F0CB
:1029800081E080934A020E94C71F9093490280937E
:10299000480280914A028823A1F0809148029091D8
:1029A00049020E94DF1F059760F0EF2DF02FA12F45
:1029B000BD2FCE0FDF2FD11DEC17FD0741F4109274
:1029C0004A02DF91CF911F910F91FF90089581915D
:1029D0008D93F2CF80914B02811107C00E94CE26C9
:1029E000882351F081E080934B0281E090914B026B
:1029F000913009F080E0089582E080934B020E94BC
:102A0000C926F3CF0C94EA140E94021580930601A4
:102A10000E94EA1481110C941C1508950E94EA1476
:102A2000811102C00C941E15089581E090914C0212
:102A30009A3008F080E008950C94C11C0C94C41CDA
:102A4000EF92FF920F931F93CF93DF937901C82FDB
:102A5000880FDD0B41155105A9F08AE08C9FF0012C
:102A60008D9FF00D1124E95FFE4F83819481835B7C
:102A70009D4F228130E04217530708F49A01A901C3
:102A80000E941627CE010E94CE1D892B11F501153B
:102A90001105E9F08AE08C9FF0018D9FF00D112463
:102AA000E95FFE4F458150E00417150708F4A801BF
:102AB0008AE08C9FF0018D9FF00D1124E95FFE4F9D
:102AC00066817781635B7D4FC7010E94162781E095
:102AD00001C080E0DF91CF911F910F91FF90EF90A7
:102AE00008950C948D160C94A9160F931F93CF93F1
:102AF000DF9300D000D0CDB7DEB760916E02709149
:102B00006F0280917002909171020E94EE1F11E09D
:102B1000643671058105910518F10E9471146E5F8C
:102B20007F4F8F4F9F4F69837A838B839C8310E005
:102B300000E030E020E044E050E0BE016F5F7F4FF6
:102B400082E00E942015182F882351F00E94D31F85
:102B500060936E0270936F02809370029093710283
:102B6000812F0F900F900F900F90DF91CF911F91B9
:102B70000F910895AF92BF92CF92DF92EF92FF92A2
:102B80000F931F93CF93DF93CDB7DEB72B970FB67D
:102B9000F894DEBF0FBECDBF7B01C0905301D09033
:102BA000540101E010E09E01255F3F4F50E040E0FE
:102BB00070E060E080E00E942015182F882309F45F
:102BC00048C056018FEFA81AB80A60916A02709146
:102BD0006B0280916C0290916D020E94EE1F643630
:102BE00071058105910568F10AE010E09E012F5FF3
:102BF0003F4F50E040E070E060E081E00E9420152F
:102C0000D82E6AE070E0C5010E94371A11E09B855A
:102C1000981310E01D2141F10E94D31F60936A02B6
:102C200070936B0280936C0290936D028AE0FE01B8
:102C30003196A0E6B2E001900D928A95E1F711E09D
:102C400013C06AE070E0C5010E94371A9B858913A2
:102C5000CBCF8AE0F6013196DE01119601900D92FC
:102C60008A95E1F71111E2CF8AE0E0E6F2E0D701C0
:102C700001900D928A95E1F7812F2B960FB6F8946B
:102C8000DEBF0FBECDBFDF91CF911F910F91FF909F
:102C9000EF90DF90CF90BF90AF900895AF92BF922A
:102CA000CF92DF92EF92FF920F931F93CF93DF9318
:102CB0007C015B016A010E94151501E010E0882388
:102CC00011F00AE010E0C1E0D0E0F894B501C701CE
:102CD000F60109957894811104C021960C171D07FF
:102CE0005CF4DF91CF911F910F91FF90EF90DF90F7
:102CF000CF90BF90AF900895CC9F9001CD9F300DA5
:102D0000300D112490E080E045E34A95F1F7000092
:102D1000019682179307C1F7D8CF0F931F93CF93D4
:102D2000DF93EC018B014AEB55E10E944E1688239C
:102D300051F045E755E1B801CE01DF91CF911F91E8
:102D40000F910C944E1680E0DF91CF911F910F915F
:102D500008950F931F93CF93DF93F894C09153017D
:102D6000D0915401CE0101962AE0FB01DC010190D3
:102D70000D922A95E1F76AE070E00E94371A888385
:102D80007894F8946B857C858D859E8500915C0296
:102D900010915D0220915E0230915F026017710711
:102DA0008207930751F060935C0270935D028093F9
:102DB0005E0290935F020E9454147894DF91CF9149
:102DC0001F910F9108950E949D210E94D8110C948B
:102DD000A9210E94AD210E94E4110C94C7210E94F8
:102DE000511F0E9484210E94C6110E94E3160E9476
:102DF000E9160E94D411FBCF8091780280FF12C0A7
:102E000060912A0185E0689FB0011124759567954E
:102E10007595679560387105A8F561157105A1F183
:102E2000862F089581FF09C060912A0185E0689F7F
:102E3000B001112475956795EDCF60912A0182FD4F
:102E40000AC0809177028823D1F090912901609186
:102E50002A01891728F085E0689FB0011124DACF94
:102E6000869FB001112485E0869F9001879F300DD9
:102E70001124692F70E0C9010E94DB26CBCF65E0E9
:102E800070E0CECF8FE7089581E0089580917802B9
:102E900080FF0CC06091260170E07595679575956F
:102EA00067956115710549F1862F089581FF06C068
:102EB0006091260170E075956795F3CF60912601CA
:102EC00082FD0BC0909176029923A1F060912501BB
:102ED00080912601961738F0682F70E060387105F0
:102EE00000F38FE70895899FC001112470E00E94CC
:102EF000DB26F4CF61E070E0D7CF81E008958D3E0E
:102F000031F40E94FC16819580937C0208958E3ED8
:102F100019F40E94FC16F8CF8F3E31F40E94FC1683
:102F2000819580937B020895803F19F40E94FC16DE
:102F3000F8CF893F29F40E94461780937D020895B7
:102F40008A3F21F40E9446178195F7CF8B3F31F4D9
:102F50000E944617819580937E0208958C3F19F454
:102F60000E944617F8CF9FE0980F983070F4815F69
:102F7000990B21E030E001C0220F8A95EAF7809199
:102F80007A02822B80937A0208958D3F31F48091EA
:102F9000780281608093780208958E3F21F48091B9
:102FA00078028260F7CF8F3FB9F780917802846012
:102FB000F1CF40917B028D3E59F480917C0287FFD6
:102FC0000DC010927C0241110BC01092770208C014
:102FD0008E3E81F480917C0218169CF3442381F08C
:102FE00080917D0290917E02892B09F05AC0109247
:102FF000760208958F3E49F447FFF0CF10927B028E
:1030000080917C028111ECCFE0CF803F19F414163F
:10301000ACF3E4CF90917D02893F29F41916F4F6C0
:1030200010927D02DBCF8A3F19F497FFD7CFF8CFFC
:1030300090917E028B3F29F497FFD0CF10927E02B1
:10304000CDCF8C3F19F41916CCF3C8CF9FE0980F61
:10305000983090F4815F990B21E030E0B90102C013
:10306000660F771F8A95E2F7CB01809590917A02DF
:10307000892380937A02B2CF8D3F31F48091780218
:103080008E7F80937802AACF8E3F21F480917802C0
:103090008D7FF7CF8F3F09F0A1CF809178028B7F92
:1030A000F0CF08950E94C71F9C0190917B028091F0
:1030B0007C02982B21F0309375022093740290913A
:1030C0007D0280917E02982B21F030937302209331
:1030D000720289E792E00C94AA1EEF92FF920F937E
:1030E0001F93CF93DF9300D000D000D0CDB7DEB7D1
:1030F00086E0E9E7F2E0DE01119601900D928A95F3
:10310000E1F7E0907B02F0907C0200917D0210914B
:103110007E0210927B0210927C0210927D0210922D
:103120007E028E2D8F2991F080917402909175020C
:103130000E94DF1FAC0190917702992309F43FC0F0
:1031400080912B018417150608F447C0802F812B2E
:1031500091F080917202909173020E94DF1FAC0186
:1031600090917602992309F477C080912701841702
:10317000150608F47FC080917B0290917C02892B18
:1031800090917D02892B90917E02892B11F00E94F3
:10319000521886E0FE013196A9E7B2E001900D9247
:1031A0008A95E1F726960FB6F894DEBF0FBECDBF25
:1031B000DF91CF911F910F91FF90EF900895209193
:1031C0002C018AE0289F900111242417350708F06C
:1031D000BDCF9F5F9093770202C09F3FD1F7EE2053
:1031E00059F00E94FC169FEF1E140CF491E0899F89
:1031F000802D112480937B02FF2059F00E94FC1641
:103200009FEF1F140CF491E0899F802D112480936F
:103210007C0230917B02332309F498CF20917C0209
:10322000222309F493CF45EB3403C00111249923E1
:1032300059F090937B0245EB240390011124332332
:1032400039F030937C0282CF81E080937B02F3CF10
:1032500081E080937C027ACF209128018AE0289F28
:10326000900111242417350708F085CF9F5F9093B4
:10327000760202C09F3FD1F7002359F00E94461703
:103280009FEF10160CF491E0899F802D11248093FC
:103290007D02112359F00E9446179FEF11160CF47E
:1032A00091E0899F802D112480937E0230917D02D0
:1032B000332309F460CF20917E02222309F45BCFEF
:1032C00045EB3403C0011124992359F090937D02FA
:1032D00045EB240390011124332339F030937E020F
:1032E0004ACF81E080937D02F3CF81E080937E021C
:1032F00042CF86E0E9E7F2E0DF011D928A95E9F727
:103300001092770210927602109278020895EF924E
:10331000FF920F931F93CF93DF93CDB7DEB72C9718
:103320000FB6F894DEBF0FBECDBF49835A836B83BF
:103330007C838D839E83EF82F88609871A872B878B
:103340003C8746E050E0BE01695F7F4FCE010196A9
:103350000E94092721E0892B09F420E0822F2C9676
:103360000FB6F894DEBF0FBECDBFDF91CF911F9196
:103370000F91FF90EF900895EF92FF920F931F939C
:10338000E0907F02F0908002009181021091820211
:1033900020918302309184024091850250918602EF
:1033A00060918702709188028091890290918A02CF
:1033B0000E948719882321F085E892E00E94AA1EC6
:1033C00010928702109288021092890210928A024B
:1033D00086E0E5E8F2E0AFE7B2E001900D928A9571
:1033E000E1F71F910F91FF90EF900895CF93DF9336
:1033F00000D000D000D0CDB7DEB786E0E5E8F2E03F
:10340000DE01119601900D928A95E1F729813A81AA
:103410004B815C816D817E8180E090E026960FB6C5
:10342000F894DEBF0FBECDBFDF91CF910895CF934B
:10343000DF9300D000D000D0CDB7DEB749835A83E8
:103440006B837C838D839E8386E0FE013196A5E8A5
:10345000B2E001900D928A95E1F726960FB6F894A6
:10346000DEBF0FBECDBFDF91CF9108950895FC015F
:10347000680F791F8FEF91E36E177F0709F40895A6
:103480002191822728E030E087FF06C0880F892736
:1034900021503109C9F7F0CF880FFACFCF93DF93CE
:1034A000EC01FB018281882309F420C1C430FDE5D1
:1034B000DF07C8F5CB3F9CE5D90730F49E012250C9
:1034C0003C452431310598F50E940C119093B502CA
:1034D0008093B402C031FCE5DF0709F4E0C008F0D6
:1034E00061C0C8309CE5D90709F4CBC088F5C43069
:1034F000FCE5DF0709F4B3C0E8F4C2309CE5D90766
:1035000009F4A7C08091B4028260C330DC4509F49D
:10351000A3C08091B4029091B5020E941A110E943A
:10352000140B80E004C0C236EDE5DE0769F2DF91DE
:10353000CF9108958091B4028061C630FCE5DF0729
:1035400009F48AC008F48FC08091B402806284C0FC
:103550008091B4028D7FCC309CE5D90709F47CC002
:1035600070F48091B4028C60CA30FCE5DF0709F486
:1035700073C008F48AC08091B4028E7F6DC08091C0
:10358000B402877FCE309CE5D90709F465C08091ED
:10359000B4028B7FCF30DC4508F45EC08091B4026A
:1035A0008F7E5AC0CD3FFCE5DF0709F474C040F5BB
:1035B000C4319CE5D90709F48AC058F4C231FCE54E
:1035C000DF0709F474C008F46EC08091B402837FF1
:1035D00043C0CB3F9CE5D90709F449C008F04DC072
:1035E000C531DC4509F095CF8091B40282FB992763
:1035F00090F921E0922790FB82F990FB83F92CC08F
:10360000C1308DE5D80709F458C088F48091B5021F
:103610008360CF3FECE5DE0769F18091B5028D7FD5
:10362000C115DD4538F18091B5028C7F23C0C330D0
:103630008DE5D80709F458C008F452C0C236DD45FC
:1036400009F067CF9091B402892F8F7E94FF80613B
:1036500003C08091B40281608093B4025ACF8091FC
:10366000B4028460F9CF8091B4028860F5CF809174
:10367000B50281608093B5024CCF8091B502826023
:10368000F9CF8091B4028064E7CF0E94140B80913F
:10369000B4028068E1CF8091B5028E7FEBCF80913C
:1036A000B4028F7DD9CF8091B4028F7BD5CF0E9499
:1036B000140B8091B4028F77CFCF8091B502982FF1
:1036C000909591708E7F892B90FB81F9D3CF0E94CA
:1036D000140B9091B402892F97FB87F98058BCCFC7
:1036E00081E00E94A01115CF80E0FBCF81E01FCFC9
:1036F000CF93DF93EB0186319C4511F50E94251095
:103700009A81992399F08A7A91E009F490E0909354
:103710008B02811109C089E20E9400100E9468108A
:1037200080E0DF91CF91089585E3F6CF80918B0201
:10373000811104C089E20E940710F0CF85E3FBCF1E
:1037400081E0EFCF0F931F93CF93DF93C42FD22F3E
:10375000FC0182818823C9F040938E020E94C71F1A
:1037600090938D0280938C0280E28C0F883008F059
:1037700050C0C77081E001C0880FCA95EAF7DF9199
:10378000CF911F910F910C948F0810918E021413FA
:1037900035C080918C0290918D020E94DF1F883C81
:1037A000910560F5C0E2CD0F1D17B9F080E2810FE1
:1037B000883040F4177081E001C0880F1A95EAF74D
:1037C0000E949608C83048F481E09D2F977001C090
:1037D000880F9A95EAF70E948F08802F0E94870829
:1037E000C830B8F4D77081E001C0880FDA95EAF7E5
:1037F000DF91CF911F910F910C94960880E28C0F6E
:10380000883038F4C77081E001C0880FCA95EAF7A4
:10381000EFCFDF91CF911F910F9108950F939C01EE
:10382000CB01243F4CE5340759F1A8F4293DFCE5D0
:103830003F0701F12A3D4CE53407D1F1283D3C45D5
:1038400091F406E221EE41EE68ED7CE50E94A21BB8
:1038500080E00F910895263FFCE53F07E9F0B0F0C6
:10386000273F3C45F9F0FC018281882339F1109211
:103870008E02EFCF07E225EE45EE69ED7CE5E6CF5F
:1038800006E221EE40EE64EF7CE5E0CF07E225EEB4
:1038900044EE65EF7CE5DACF06E221EE42EE66EF1C
:1038A0007CE5D4CF07E225EE46EE67EF7CE5CECF90
:1038B00008E221E045EE6AED7CE5C8CF81E0C9CFA2
:1038C0008EE14A9B02C08150E1F74A9BFECF0895EA
:1038D0005A9880E28A95F1F75A9A0895FC013BE0E4
:1038E0003A95F1F798E020E080E031E040E14A9538
:1038F000F1F7880F4A9B02C08160232742E04A9576
:10390000F1F7000040E14A95F1F7915079F790E125
:103910009A95F1F799B132E03A95F1F7000040E15C
:103920004A95F1F792FB992790F992272081920FFF
:1039300090830895EF92FF920F931F93CF93DF939D
:103940000F92CDB7DEB719828C017C01E60EF11C17
:103950000E151F0561F481E09981911180E00F90AF
:10396000DF91CF911F910F91FF90EF9008950E94EA
:10397000601CCE0101960E946E1CF80181938F019C
:10398000E7CF529A5A9A089552985A9AEA9AE9E6D3
:10399000F0E080818F7C808308956150770B91E007
:1039A00001C0990F6A95EAF720E031E0911108C053
:1039B000222391F05A9A80E28A95F1F75A98089555
:1039C000492F482339F05A9A232740E24A95F1F7C4
:1039D0009695ECCF5A98F9CF5A98EDCFFF920F9366
:1039E0001F93CF93DF93EC018C01060F111DC017BD
:1039F000D10731F4DF91CF911F910F91FF9008957E
:103A0000F9900E94681C68E08F2D0E94CD1CEFCFBA
:103A10001F920F920FB60F921124EF92FF920F9305
:103A20001F932F933F934F935F936F937F938F9346
:103A30009F93AF93BF93EF93FF93CF93DF930F9237
:103A4000CDB7DEB719820E94601CCE0101960E949C
:103A50006E1CA82FA695A695A695282F22952570B1
:103A60009A2F9570290F922F937026952695920F75
:103A7000982797708981982B09F075C0A43008F0B9
:103A800072C080E18A95F1F75A9A529AB2E0BA95DB
:103A9000F1F700C05A98EA2EF12CEAE0AE9FD0016F
:103AA0001124A95FBE4F1896ED91FC91199730979C
:103AB000B1F0609153017091540116962D913C9193
:103AC0001797260F371F13968D919C911497680FA7
:103AD000791F15964C91159712968C9109958AE04D
:103AE0008E9DF0018F9DF00D1124E95FFE4F6581E1
:103AF000662351F0209153013091540186819781C2
:103B0000820F931F0E94EE1C0E94681CF0E1FA9540
:103B1000F1F75A9852985A9A80E18A95F1F78AE01B
:103B20008E9D80018F9D100D1124095F1E4FD801BD
:103B300012966C911297662371F120915301309186
:103B4000540113968D919C91820F931F0E949A1C91
:103B5000D801ED91FC91882311F088E001C082E04A
:103B600080830E94601C0F90DF91CF91FF91EF91B5
:103B7000BF91AF919F918F917F916F915F914F9185
:103B80003F912F911F910F91FF90EF900F900FBEDB
:103B90000F901F901895ED91FC91DFCF0F931F931D
:103BA000CF93DF93EC0104970CF0A9C08AE08C9FBF
:103BB000F0018D9FF00D1124E95FFE4F808191810E
:103BC000892B09F49CC0F894529A5A9885E08A95FA
:103BD000F1F700008C2F869585709C2F9570890FCA
:103BE000982F937086958695890F8E0193E0000F2C
:103BF000111F9A95E1F7082B0E94681C00C068E02D
:103C0000802F0E94CD1CA0E1AA95F1F752985A9AF4
:103C10004A9B27C087E090E04A9925C08AE08C9FA4
:103C200080018D9F100D1124095F1E4FF8016581E1
:103C30006623A1F12091530130915401868197812F
:103C4000820F931F0E949A1C811128C0529A5A9A7F
:103C5000D801ED91FC9182E08083789482E090E03D
:103C600016C000C0D5CF0197B9F4529A5A9A8AE08B
:103C70008C9FF0018D9FF00D1124E95FFE4F0190A4
:103C8000F081E02D81E08083789481E090E0DF9105
:103C9000CF911F910F91089500C0BECF0E94601C6C
:103CA000B0E2BA95F1F75A98529AE0E1EA95F1F745
:103CB0008AE08C9FF0018D9FF00D1124E95FFE4F8B
:103CC0006281662351F02091530130915401838128
:103CD0009481820F931F0E94EE1C0E94681C8AE050
:103CE0008C9FF0018D9FF00D1124E95FFE4F019034
:103CF000F081E02D1082789490E080E0C8CF84E0DD
:103D000090E0C5CF9093570180935601089590930A
:103D100095028093940208950E94EA14811103C0D1
:103D200080918F020895E0919402F091950230976E
:103D300021F00190F081E02D099480E00895E09158
:103D40009402F0919502309721F00280F381E02DEA
:103D500009940895E0919402F0919502309739F01A
:103D600022E0DC012C930480F581E02D0994089574
:103D700020919202309193022817390771F09093A5
:103D8000930280939202E0919402F0919502309711
:103D900021F00680F781E02D09940895209190028A
:103DA000309191022817390771F090939102809316
:103DB0009002E0919402F0919502309721F00084F6
:103DC000F185E02D099408959C012E5F3F4FAC01D1
:103DD000485F5F4F80E02417350709F40895F90123
:103DE00091919F019923B9F38F5FF5CF662349F035
:103DF000FC01329608962191261729F0E817F90759
:103E0000D1F780E0089581E008959C01FC0132968D
:103E10009FEF80E04191461751F09F3F19F4411107
:103E200001C0982F8F5F8630A9F79F3F09F408954E
:103E3000290F311D97FD3A95F90162830895FC0120
:103E4000329608962191261303C0DF0111971C9228
:103E5000E817F907B9F708950C94051F0C941F1F74
:103E6000029626E0FC0111922A95E9F7089508953B
:103E70000C94371F811105C081E0809396020C9449
:103E8000381F82E0FACF83E0809396020C94381FAB
:103E90000C943A1F81E0809396020C94381F0C9486
:103EA0004A1F08958091BF02843031F10E94B50607
:103EB0001092970288E190E020E40FB6F894A8955C
:103EC000809360000FBE2093600083B7817F846081
:103ED00083BF83B7816083BF7894889583B78E7FD3
:103EE00083BF0FB6F894A895809160008861809395
:103EF0006000109260000FBE089508950895CF935A
:103F00000E947D1F0E94B2030E947E1FC0E08C2F82
:103F10000E94DF02811105C0CF5FC431C1F7CF918C
:103F2000089581E0FCCF0E94140B0C941F071F9290
:103F30001FB61F9211248F939F93AF93BF938091CD
:103F40009702811113C08091B7029091B802A0919D
:103F5000B902B091BA024196A11DB11D8093B7027A
:103F60009093B802A093B902B093BA02BF91AF91F7
:103F70009F918F911F901FBE1F90189582E084BD66
:103F800093E095BD9AEF97BD80936E0008952FB78B
:103F9000F8948091B7029091B802A091B902B091C3
:103FA000BA022FBF08952FB7F8946091B7027091AD
:103FB000B8028091B9029091BA022FBF08959C0176
:103FC0004FB7F8948091B7029091B802A091B902CE
:103FD000B091BA024FBF821B930B0895CF92DF922C
:103FE000EF92FF922FB7F894C090B702D090B8022A
:103FF000E090B902F090BA022FBFA7019601261BEC
:10400000370B480B590BCA01B901FF90EF90DF90B5
:10401000CF90089578941F921FB61F9211248F930A
:104020009F93AF93BF938091B7029091B802A091F4
:10403000B902B091BA020196A11DB11D8093B702D9
:104040009093B802A093B902B093BA02BF91AF9116
:104050009F918F911F901FBE1F90189587E797E73C
:10406000909301088093000888E19AE00FB6F894D5
:10407000A895809360000FBE90936000FFCF809161
:10408000A0020895089508959C0182E08093E900BC
:104090009FEF8091E800915085FD06C085ED8A95DF
:1040A000F1F700009111F5CF8091E80085FF0CC079
:1040B00050E040E066E070E0C9010E943822809143
:1040C000E8008E778093E8000895CF93DF93EC01AA
:1040D00081E08093E9008FEF9091E800815095FD99
:1040E00006C095ED9A95F1F700008111F5CF80910A
:1040F000E80085FF14C050E040E068E070E0CE01C9
:104100000E9438228091E8008E778093E80088E052
:10411000FE01A8E9B2E001900D928A95E1F7DF91E6
:10412000CF91089508958091BE02811109C00E9427
:10413000C8230E9425248091E20084608093E200DD
:1041400008951092BE0208950C944A1F6091BB021C
:1041500081E0611101C080E00C94431F9091BF0287
:1041600081E0943009F080E06091BB020C94481F1C
:1041700042E061EC81E00E94442342E261EC82E093
:104180000E9444239091BF0281E0943009F080E0C6
:104190006091BB020C943A1F8091C102833009F4F4
:1041A00060C030F48130C9F1823009F49CC00895B8
:1041B0008A3009F488C08B3009F46EC0893009F068
:1041C0004FC08091C002813209F04AC08091C40280
:1041D0009091C502029708F043C08091E800877F64
:1041E0008093E8008091E80082FF36C09091F30050
:1041F0008091F200029731F48091F100813011F04A
:10420000863021F48091F1008093A0028091E80033
:104210008B778093E8000C9478238091C002813AD8
:10422000F9F48091E800877F8093E8008091C402D0
:104230009091C502892B61F468E088E992E070E012
:104240000E9487228091E8008B778093E800089590
:1042500060E090E080E0F3CF8091BF028111C2CF97
:1042600008958091C002813AD9F78091C40290915B
:10427000C502892BA9F78091E800877F8093E80029
:104280008091E80080FFFCCF809139018093F1009C
:104290008091E8008E77BDCF8091C002813201F716
:1042A0008091C4029091C502892BD1F68091E800DB
:1042B000877F8093E8000E9478238091C2028093D8
:1042C00039010C94140B8091C002813249F680911F
:1042D000E800877F8093E8000E9478238091C302E2
:1042E0008093A10208958091C002813A09F0B8CF6D
:1042F0008091E800877F8093E8008091E80080FF4C
:10430000FCCF8091A102C2CF84B7877F84BF0FB654
:10431000F894A89580916000886180936000109265
:1043200060000FBE80E890E00FB6F89480936100C3
:10433000909361000FBE0C944F1F0E94C8230E94EF
:104340002524E2EEF0E080818460808378940C94F0
:10435000AE268DE291E00C94871E8091BF028530DD
:10436000A9F48091BF02853011F00C94931F0E9434
:10437000521F8091BD028823A1F30E947F1F8823D2
:1043800081F30E9422220E94140BEBCF089508951E
:104390000C94CA21292F33272330310519F168F4F1
:1043A0002130310509F444C02230310509F445C0FB
:1043B00090E080E030E020E025C02132310549F175
:1043C00022323105A9F780E490E024E834E0611559
:1043D0007105C1F089E490E02BE334E061307105B0
:1043E00089F0E6CF99278130910581F0009729F077
:1043F0000297F1F6ECECF3E002C0EAEEF3E0849110
:1044000090E09F01FA01318320830895E2EEF3E00A
:10441000F6CF89E090E020E034E06115710591F37A
:1044200089E090E029E134E06130710559F3C0CFB3
:1044300082E190E029E234E0E5CF8BE390E02EEEDC
:1044400033E0E0CF80E189BD82E189BD09B400FE9F
:10445000FDCF8091D8008F7D8093D8008091E000BF
:1044600082608093E0008091E00081FDFCCF0895A0
:10447000AF92BF92CF92DF92FF920F931F93CF9391
:10448000DF936C01EB018A010E949723F82E8111C2
:1044900023C00115110539F0F80180819181C81BF5
:1044A000D90BC80ED91EB12CA12C2097A9F0809150
:1044B000E80085FD22C08091E8008E778093E800B7
:1044C00001151105A1F0F80180819181A80EB91E96
:1044D000B182A08285E0F82E8F2DDF91CF911F91C0
:1044E0000F91FF90DF90CF90BF90AF9008950E9402
:1044F00097238823D1F2F82EEFCFF60181916F0137
:104500008093F1002197FFEFAF1ABF0ACECFFC01D5
:104510008091C6029091C70286179707A0F0611597
:10452000710529F49091E8009E779093E80090E05F
:104530006115710551F4911108C08091E80082FF66
:1045400034C080E00895BC01F2CF8091BF0288237F
:10455000C1F18530C1F18091E80083FD30C08091C8
:10456000E80082FDEACF8091E80080FFE1CF8091F2
:10457000F3002091F200382F6115710519F02830F1
:10458000310558F091E02830310509F090E0209194
:10459000E8002E772093E800CBCF81918093F10043
:1045A000615071092F5F3F4FE7CF8091BF02882391
:1045B00041F0853041F08091E80083FFBECF81E07B
:1045C000089582E0089583E00895FC018091C60279
:1045D0009091C70286179707A0F06115710529F41D
:1045E0008091E8008E778093E80090E06115710576
:1045F00051F4911108C08091E80082FF35C080E03D
:104600000895BC01F2CF8091BF028823C9F18530A3
:10461000C9F18091E80083FD31C08091E80082FDFE
:10462000EACF8091E80080FFE1CF8091F3002091F4
:10463000F200382F6115710519F02830310558F056
:1046400091E02830310509F090E08091E8008E7704
:104650008093E800CBCF84918093F1003196615034
:1046600071092F5F3F4FE6CF8091BF02882341F051
:10467000853041F08091E80083FFBDCF81E008954F
:1046800082E0089583E00895982F973028F08F7086
:104690008093E90081E008959093E900242F762F1C
:1046A00050E0981731F07091EC002091ED0050919E
:1046B000F00021FD02C09F5FE8CF3091EB003E7F0C
:1046C0003093EB003091ED003D7F3093ED00309161
:1046D000EB0031603093EB007093EC002093ED0021
:1046E0005093F0002091EE0027FDE5CF80E0089583
:1046F0008091C00287FF13C08091E80082FF06C04E
:104700008091E8008B778093E80004C08091BF021D
:104710008111F2CF08958091BF028823D9F380914F
:10472000E80080FFF8CF8091E8008E77ECCF2091F1
:10473000E4003091E50095E6A9012091EC00822F7C
:10474000817020FF06C08091E80080FF06C080E0F5
:1047500008952091E80022FD1AC08091BF028823AD
:1047600089F0853089F08091EB0085FD0FC02091A4
:10477000E4003091E50042175307F9F29150E1F659
:1047800084E0089582E0089583E0089581E008952B
:104790000E9436240E943E24E0EEF0E08081816099
:1047A0008083E8EDF0E080818F77808319BCA7EDEE
:1047B000B0E08C918E7F8C9380818F7E808310926D
:1047C000BE0208950F931F93CF93DF930E94362468
:1047D0000E943E24C8EDD0E088818F77888388814D
:1047E0008068888388818F7D888319BC1092BF027E
:1047F0001092BB021092BD021092BC0200EE10E0BB
:10480000F80180818B7F808388818160888342E08A
:1048100060E080E00E944423E1EEF0E080818E7F42
:104820008083E2EEF0E08081816080838081886017
:104830008083F80180818E7F808388818061888376
:10484000DF91CF911F910F910895E8EDF0E0808105
:104850008F7E8083E7EDF0E080818160808384E05B
:1048600082BF81E08093BE020C94E223E8EDF0E089
:1048700080818E7F80831092E20008951092DA008A
:104880001092E10008951F920F920FB60F9211241B
:104890002F933F934F935F936F937F938F939F9348
:1048A000AF93BF93EF93FF938091E10082FF0BC022
:1048B0008091E20082FF07C08091E1008B7F8093AE
:1048C000E1000E94AD268091DA0080FF19C080913E
:1048D000D80080FF15C08091DA008E7F8093DA00C7
:1048E0008091D90080FF96C080E189BD82E189BDB9
:1048F00009B400FEFDCF81E08093BF020E949320A7
:104900008091E10080FF19C08091E20080FF15C016
:104910008091E2008E7F8093E2008091E2008061CE
:104920008093E2008091D80080628093D80019BC07
:1049300085E08093BF020E94A6208091E10084FF61
:104940002BC08091E20084FF27C080E189BD82E115
:1049500089BD89B5982F917080FFFBCF8091D800D9
:104960008F7D8093D8008091E1008F7E8093E1005D
:104970008091E2008F7E8093E2008091E20081606E
:104980008093E2008091BB02882309F449C084E04F
:104990008093BF020E94AE208091E10083FF29C076
:1049A0008091E20083FF25C08091E100877F8093A2
:1049B000E10082E08093BF021092BB028091E1008F
:1049C0008E7F8093E1008091E2008E7F8093E200F1
:1049D0008091E20080618093E20042E060E080E04C
:1049E0000E9444238091F00088608093F0000E9430
:1049F000A420FF91EF91BF91AF919F918F917F91F3
:104A00006F915F914F913F912F910F900FBE0F903B
:104A10001F90189519BC1092BF020E94A12070CF60
:104A20008091E30087FD93E09093BF02B3CF1F9284
:104A30000F920FB60F9211242F933F934F935F93D2
:104A40006F937F938F939F93AF93BF93CF93DF9396
:104A5000EF93FF93D091E900DF708091EC00C82FB5
:104A6000C17080FDC0E81092E9008091F000877F5E
:104A70008093F00078940E945B251092E900809169
:104A8000F00088608093F000CD2BCF70C093E900D8
:104A9000FF91EF91DF91CF91BF91AF919F918F9156
:104AA0007F916F915F914F913F912F910F900FBE2A
:104AB0000F901F9018951F93CF93DF93CDB7DEB75C
:104AC000AA970FB6F894DEBF0FBECDBF80EC92E080
:104AD0002091F100FC012193CF01F2E0883C9F0777
:104AE000B9F70E94CC208091E80083FF1EC180911D
:104AF000C0029091C1029A3008F017C1E92FF0E08E
:104B0000E358F84D0C94EF26803899F0823809F07C
:104B10000CC18091C4028F70873008F006C1809369
:104B2000E9008091EB0085FB882780F91092E9006D
:104B300006C08091BC029091BD029111826090915B
:104B4000E800977F9093E8008093F1001092F100C5
:104B50008091E8008E77E5C0882309F4D3C08230C5
:104B600009F0E3C08091C2028111D6C08091C402D5
:104B70008F702FEF280F263008F0D7C08093E90000
:104B80002091EB0020FFC8C0933031F48091EB00FE
:104B900080628093EB00C0C09091EB009061909395
:104BA000EB0021E030E001C0220F8A95EAF7209364
:104BB000EA001092EA008091EB008860EACF811150
:104BC000B4C01091C2021F778091E3008078812BDE
:104BD0008093E3008091E800877F8093E8000E9443
:104BE00078238091E80080FFFCCF8091E30080680B
:104BF0008093E30082E0111183E08093BF0295C0AF
:104C00008058823008F091C08091C2029091C30216
:104C10008C3D23E09207A1F583E08A838AE28983B1
:104C20004FB7F894DE01139620E03EE051E2E32F07
:104C3000F0E050935700E49120FF03C0E295EF703D
:104C40003F5FEF708E2F90E0EA30C0F0C7968D93F3
:104C50009D932F5F243159F74FBF8091E800877FE4
:104C60008093E8006AE270E0CE0101960E948722FC
:104C70008091E8008B778093E80057C0C096E7CF1B
:104C80006091C4027091C502AE014F5F5F4F0E94F8
:104C9000C821BC01892B09F448C09091E800977F96
:104CA0009093E80089819A810E94E522E1CF8038C3
:104CB000E1F58091E800877F8093E8008091BB0256
:104CC0008093F10045CF811130C09091C2029230A3
:104CD00060F58091E800877F8093E8009093BB02A5
:104CE0000E9478238091BB02882311F084E005C0E4
:104CF0008091E30087FDFACF81E08093BF020E949C
:104D0000B82013C08091C202813079F481E09330E1
:104D100009F080E08093BD021092E9008091E800E4
:104D2000877F8093E8000E9478238091E80083FFCA
:104D30000AC08091E800877F8093E8008091EB00B3
:104D400080628093EB00AA960FB6F894DEBF0FBE88
:104D5000CDBFDF91CF911F9108950895CF9380919A
:104D6000BF028823A1F0C091E900CF709091EC00C0
:104D7000892F817090FD80E8C82B1092E900809106
:104D8000E80083FD0E945B25CF70C093E900CF91BE
:104D900008950E94C8231092BF020895E8EDF0E044
:104DA0008081806180838AE18A95F1F700C08091DB
:104DB000D9008170089597FB072E16F4009407D050
:104DC00077FD09D00E94F52607FC05D03EF49095AA
:104DD00081959F4F0895709561957F4F0895EE0FCF
:104DE000FF1F0590F491E02D0994AA1BBB1B51E114
:104DF00007C0AA1FBB1FA617B70710F0A61BB70B4B
:104E0000881F991F5A95A9F780959095BC01CD01EF
:104E10000895FB01DC0104C08D910190801921F4FB
:104E200041505040C8F7881B990B0895FB01DC01E5
:104E300002C001900D9241505040D8F70895F99961
:104E4000FECF92BD81BDF89A992780B50895A8E15B
:104E5000B0E042E050E00C945327262FF999FECFA2
:104E600092BD81BDF89A019700B4021639F01FBABD
:104E700020BD0FB6F894FA9AF99A0FBE08950396DA
:104E8000272F0E942E270E942D27252F0E942E2794
:104E9000242F0C942E270196272F0E942E270C9446
:104EA0002D27DC01CB01FC01F999FECF06C0F2BD34
:104EB000E1BDF89A319600B40D9241505040B8F7D8
:104EC0000895F894FFCFDB08DB080C090C093B09B7
:104ED000A0093B093B09BB09470A560A560A230B9E
:104EE000230B2C0B2C0B2E0B2C0B2C0B2C0B230B1A
:104EF000230B330B2C0B2C0B330B8425AC25952665
:0E4F0000AC259526DF2500269526572663262C
:104F0E009804C8001F0201B6020000000100000054
:104F1E0000B6020000000A01000000B602040B00F9
:104F2E0000000000002808641E140A321E3F20658F
:104F3E002044204220922043200134C6663632F5AA
:104F4E00F6F79735F5F6F7973500000000000000EC
:064F5E000000004D0200FE
:00000001FF
