:100000000C94DE050C9425060C9425060C94ED2624
:100010000C9425060C9425060C9425060C942506B4
:100020000C9425060C9425060C94E62E0C94BA2FFD
:100030000C947F290C9425060C9425060C94250617
:100040000C9425060C9425060C9425060C94250684
:100050000C9425060C94F2290C9425060C94250684
:100060000C9425060C9425060C9425060C94250664
:100070000C9425060C9425060C9425060C94250654
:100080000C9425060C9425060C9425060C94250644
:100090000C9425060C9425060C9425060C94250634
:1000A0000C9425060C9425060C942506202020206F
:1000B00020200A005343524C434B0A0020202020AA
:1000C000202020004341504C434B20002020202082
:1000D000202020004E554D4C434B2000556E64654A
:1000E00066696E65640041444A5553540A004C4F9A
:1000F0005745520A0052414953450A00444546417A
:10010000554C540A004C617965723A200080818216
:10011000838485868788898A8B8C8D8E8F90919237
:100120009394A0A1A2A3A4A5A6A7A8A9AAABACAD8D
:10013000AEAFB0B1B2B3B4C0C1C2C3C4C5C6C7C804
:10014000C9CACBCCCDCECFD0D1D2D3D4001F0020C2
:10015000002100220001001A00080015001700010C
:10016000001600070009000A0001001B0006001924
:100170000005000100E2008B002C002C00115F1E26
:1001800000350000000000000014002B00000000FB
:10019000000000040039000000000000001D00E124
:1001A00000000000000000E300E00000000000008C
:1001B0000027002600250024002300130012000C55
:1001C0000018001C0033000F000E000D000B00385B
:1001D000003700360010001100650088008A002CEE
:1001E00000105F2D002E008900000000002F00305D
:1001F000002A000000000034003200280000000047
:100200000087005200E50000000000500051004F40
:10021000000000000001000100F400F50001001FD3
:100220000020002100220001000100010001000166
:1002300000010001000100010001000100010001B6
:1002400000010001000100010001000000000000A9
:10025000001E00010000000000000001000100007D
:10026000000000000001000100000000000000018B
:100270000001000000000000000100010001000179
:1002800000010027002600250024002300010001B2
:100290000001000100010001000100010001000156
:1002A0000001000100010001000100010001000146
:1002B000000000000001000100010000000000013A
:1002C0000001000100000000000100010001000029
:1002D0000000000100010001000000000001000119
:1002E0000001000100C25C0100010001000100C921
:1002F0005C0100010001000100C55C01000100017A
:10030000000100C75C0100010001000100010001C3
:1003100000010000000000000001000100000000DA
:1003200000000001000100000000000000010001C9
:1003300000000000000000010001000000000000BB
:1003400000010001000100010001000100010001A5
:100350000001000100010001000100010001000195
:100360000001000100010001000100010001000185
:100370000001000100010001000000000001000177
:100380000001000000000001000100010000000069
:100390000001000100010000000000010001000157
:1003A0000000000000010001000100010001000147
:1003B0000001000100010001000100010001000135
:1003C0000001000100010001000100010001000125
:1003D0000001000100010001000100000000000018
:1003E0000001000100000000000000010001000009
:1003F00000000000000100010000000000000001FA
:1004000000010000000000000001000100010001E7
:1004100000010001000100010001000100010001D4
:1004200000010001000100010001000100010001C4
:1004300000010001000100010001000100010001B4
:1004400000000000000100010001000000000001A8
:100450000001000100000000000100010001000097
:100460000000000100010001000000000000000089
:1004700000000000002A2B280000000000000000FF
:10048000000000000000000029000000002C1E34C5
:1004900020212224342627252E362D3738271E1FCB
:1004A000202122232425263333362E37381F0405F6
:1004B000060708090A0B0C0D0E0F10111213141564
:1004C000161718191A1B1C1D2F3130232D35040542
:1004D000060708090A0B0C0D0E0F10111213141544
:1004E000161718191A1B1C1D2F3130354C0000002F
:1004F00000000000000000000000000000000000FC
:1005000000000000000000000000000000000000EB
:10051000007E0F00D4FFFFFFC70000007800AE0090
:10052000AF00DA0281FFD9F1DB20A4A62EAF00A034
:10053000C000A1C800AED580A81FD300408D1420F4
:10054000000000000000003E5B4F5B3E003E6B4F32
:100550006B3E001C3E7C3E1C00183C7E3C18001C80
:10056000577D571C001C5E7F5E1C0000183C180065
:1005700000FFE7C3E7FF00001824180000FFE7DBD7
:10058000E7FF0030483A060E002629792926004068
:100590007F05050700407F05253F005A3CE73C5A90
:1005A000007F3E1C1C0800081C1C3E7F0014227F9C
:1005B0002214005F5F005F5F0006097F017F00007B
:1005C0006689956A0060606060600094A2FFA294F2
:1005D0000008047E04080010207E20100008082A6D
:1005E0001C0800081C2A0808001E10101010000C1F
:1005F0001E0C1E0C0030383E383000060E3E0E0633
:100600000000000000000000005F00000000070084
:10061000070000147F147F1400242A7F2A1200236D
:100620001308646200364956205000000807030092
:1006300000001C224100000041221C00002A1C7FF7
:100640001C2A0008083E08080000807030000008DE
:10065000080808080000006060000020100804027C
:10066000003E5149453E0000427F4000007249492A
:100670004946002141494D33001814127F100027CC
:1006800045454539003C4A49493100412111090796
:1006900000364949493600464949291E00000014E0
:1006A0000000000040340000000008142241001443
:1006B0001414141400004122140800020159090600
:1006C000003E415D594E007C1211127C007F494969
:1006D0004936003E41414122007F4141413E007F79
:1006E00049494941007F09090901003E41415173CF
:1006F000007F0808087F0000417F41000020404142
:100700003F01007F08142241007F40404040007FAD
:10071000021C027F007F0408107F003E4141413EE1
:10072000007F09090906003E4151215E007F091939
:1007300029460026494949320003017F0103003F51
:100740004040403F001F2040201F003F4038403FB6
:10075000006314081463000304780403006159491A
:100760004D4300007F414141000204081020000079
:100770004141417F000402010204004040404040EA
:10078000000003070800002054547840007F2844EC
:10079000443800384444442800384444287F003812
:1007A000545454180000087E09020018A4A49C7830
:1007B000007F080404780000447D40000020404091
:1007C0003D00007F102844000000417F4000007C75
:1007D00004780478007C08040478003844444438E1
:1007E00000FC182424180018242418FC007C080499
:1007F00004080048545454240004043F4424003C9A
:100800004040207C001C2040201C003C4030403CEC
:10081000004428102844004C9090907C004464547C
:100820004C44000008364100000000770000000042
:1008300041360800000201020402003C2623263C47
:1008400000000000000000404040F0F8F8FF38FFD2
:10085000F8F83FF8F8FF38FFF8F8F04040400000A3
:100860000000000080C0C0C0800000C0C080000048
:100870000080C0C000C0C0000080C0C000000000F8
:1008800000C0C0C0C0C000C0C00000000000000028
:100890000000000000000000000000000000000058
:1008A0000000000000000000000000000000000048
:1008B0000000000000000000000000000000000038
:1008C000C0F0F8FC3E1E06010000007F4141417F60
:1008D000007F4141417F000080C0E07E5B4F5BFEB6
:1008E000C00000C000DCD7DEDEDED7DC00C00000C8
:1008F00000000000000000000000000000000000F8
:1009000000000000000000494949FFFFFFFFE0DF51
:10091000BFBF00BFBFDFE0FFFFFFFF494949000045
:100920000000001F3F6060E0BF1F007F7F071E3890
:100930001E077F7F007F7F0E1F3B7160000000005D
:10094000007F7F0C0C0C007E7E007F7E0303007F07
:100950007E03037E7E03037F7E000F3E703C063CD9
:10096000703E0F00327B49493F7E007F7E030300CB
:100970001E3F69696F2600000000000000000000B3
:10098000030F1F3F3C7870600000007F4141417FB2
:10099000007F4141417F00307B7F783020203078DC
:1009A0007F3B0003000F7F0F0F0F7F0F000300003E
:1009B0000000000000000000000000000000000037
:1009C00000000000000000010101070F0F7F0F7FF2
:1009D0000F0F7E0F0F7F0F7F0F0F07010101000028
:1009E0000000000000000000010100000000000005
:1009F00000000000000000000000000000000000F7
:100A000000000000000000000000000000000000E6
:100A100000000000000000000000000000000000D6
:100A200000000000000000000000000000000000C6
:100A300000000000000000000000000000000000B6
:100A400000000000000000000000000000000000A6
:100A50000000000000000000000000000000000096
:100A60000000000000000000000000000000000086
:100A70000000000000000000000000000000000076
:100A8000001403680061006C00660063006C00697C
:100A90000066006600000006036E003200000004DD
:100AA00003090409025B00030100A0FA0904000025
:100AB0000103010100092111010001224000070585
:100AC000810308000A090401000203000000092153
:100AD0001101000122220007058203200001070501
:100AE00003032000010904020001030000000921A2
:100AF000110100012249000705840320000A1201A8
:100B0000000200000008350321000100010200017D
:100B10000660FF0961A1010962150026FF0095200A
:100B2000750881020963150026FF0095207508915C
:100B300002C005010902A10185020901A100050900
:100B40001901290815002501950875018102050183
:100B5000093009311581257F95027508810609380C
:100B60001581257F950175088106050C0A38021547
:100B700081257F950175088106C0C005010906A180
:100B800001050719E029E715002501950875018180
:100B9000029501750881010507190029FF15002636
:100BA000FF009506750881000508190129059505BE
:100BB00075019102950175039101C00011241FBEBA
:100BC000CFEFDAE0DEBFCDBF04B603FE27C08091D1
:100BD000190590911A05A0911B05B0911C0587304D
:100BE000904BA740B04BD1F41092190510921A0502
:100BF00010921B0510921C0514BE84B7877F84BF1A
:100C00000FB6F894A8958091600088618093600089
:100C1000109260000FBEE0E0F8E3099511E0A0E05B
:100C2000B1E0E2EBF4E602C005900D92AE39B107F7
:100C3000D9F725E0AEE9B1E001C01D92A931B207B4
:100C4000E1F70E94F6190C9420320C940000F894FD
:100C5000E82FE295EF70F0E031A1282F2F7081E0AE
:100C600090E001C0880F2A95EAF7382B31A392A1B2
:100C70008095892382A378940895F894E82FE295CB
:100C8000EF70F0E031A1282F2F7081E090E001C0DB
:100C9000880F2A95EAF7982F9095932391A392A114
:100CA000892B82A37894089508950C94540608958E
:100CB0000895E82FF0E0EB54FE4F808108950895E9
:100CC0000F931F93CF93DF930E94AA178091040183
:100CD000809104019AE0811190E09093F8028AE0FB
:100CE000891B8093F702C8E5D1E08E01F80181915C
:100CF0008F010E943D06F1E002361F07B9F784E339
:100D00000E943D0686EC0E943D0686E60E943D0656
:100D100086E30E943D0682E30E943D0684E30E9432
:100D20003D0686EC0E943D0686E60E943D0686E36F
:100D30000E943D0682E30E943D0689910E943D0685
:100D400081E0C236D807C9F7E9ECF1E0A5EBB1E0E4
:100D500011921D9281E0ED3DF807D1F78AE00E94E3
:100D600059170E947109DF91CF911F910F910C9437
:100D7000B417FF920F931F93CF93DF93CDB7DEB7D6
:100D80002A970FB6F894DEBF0FBECDBF0E94901712
:100D9000F82E6091F802882309F451C08E010F5F8C
:100DA0001F4F8AE0F80111928A95E9F7862F90E0AB
:100DB000B8018B549E4F0E941718811123C0809157
:100DC000B4018F5F8093B4018630B8F1E091F702EF
:100DD000F0E0EB54FE4FD801CE010B9611921D921C
:100DE000A817B907D9F70E9477098F2D2A960FB651
:100DF000F894DEBF0FBECDBFDF91CF911F910F9151
:100E0000FF9008951092B401A091F702B0E0AB54A6
:100E1000BE4F9E01255F3F4FF12C4D91F8019191FE
:100E20008F01491731F0AD0141505109FA0190830A
:100E3000F82E0217130789F7D6CFF12CD4CF70E024
:100E40006B547E4F8091F70290E08B549E4F0E942E
:100E500019180E945806C9CF6F927F929F92AF9245
:100E6000BF92CF92DF92EF92FF920F931F93CF9397
:100E7000DF9309EC11E048E5C42E41E0D42EC0E038
:100E8000D1E0D601AD906D018A2D0E942706B0EA0F
:100E9000BA95F1F733E5E32E31E0F32EF70130E0B8
:100EA00020E0B12C4191A42FA295AF70B0E09096B4
:100EB0008C9190E04F7002C0959587954A95E2F726
:100EC00080FD94C08D2F022E01C0880F0A94EAF78E
:100ED000B82A2F5F3F4F2530310521F78A2D0E9418
:100EE0003D06E0EAEA95F1F7D8018C91B81609F4CD
:100EF0007FC0BC9281E0C82B0F5F1F4FBDE5CB16B2
:100F0000B1E0DB0609F0BDCF10E000E0AA24A39415
:100F1000B12C2AEAC22E21E0D22EF70191907F0156
:100F2000892D0E942706F0EAFA95F1F7C501002EF7
:100F300001C0880F0A94EAF7782F682F6095E0EADD
:100F4000F1E088E5682E81E0782ED0E03191D30180
:100F50002D913D01422F42954F7050E0DA0190965D
:100F60008C9190E02F7002C0959587952A95E2F7B5
:100F700080FD40C0872F832B381731F09F0121500F
:100F80003109D9018C93D1E0CE16DF06F9F6892D0F
:100F90000E943D06043019F0B0EABA95F1F7CD2B66
:100FA00061F50F5F1F4F0530110509F0B6CF609155
:100FB000F80270E06B547E4F2C2F4AE089EC91E0F0
:100FC0000E945A170E94B906C11101C0C82F8C2F68
:100FD000DF91CF911F910F91FF90EF90DF90CF9015
:100FE000BF90AF909F907F906F90089580E070CFFA
:100FF00080E081CF862F8323BFCF8091A50180938E
:10100000CE018091A6018093CF018091A7018093AA
:10101000D0018091A8018093D1018091A901809392
:10102000D201BFCFEF92FF920F931F93CF93DF9325
:1010300000D000D00F92CDB7DEB78DEDE82E81E065
:10104000F82E10E000E0F70181917F018823C9F0BC
:101050008695F80139F1E059FE4F808191819A839C
:1010600089831B820E94AF298160782F9D838C83A6
:10107000F7013197108249815A816B818D810E94DD
:10108000E10A0E5F1F4F04301105E9F60F900F9033
:101090000F900F900F90DF91CF911F910F91FF90C4
:1010A000EF900895E459FE4FD8CFEF92FF920F933F
:1010B0001F93CF93DF9300D000D00F92CDB7DEB750
:1010C000162FE82EF12CC701880F991F662339F1DE
:1010D00080599E4FFC01808191819A83898301E030
:1010E0000B830E94AF298160782F9D838C83F70149
:1010F000E352FE4F0127110F102B108349815A81B3
:101100006B818D810F900F900F900F900F90DF915A
:10111000CF911F910F91FF90EF900C94E10A8459A9
:101120009E4FD8CF0E9412080C9457060E94550873
:1011300081E00895CF93C82F0E949017811101C0BC
:10114000C2E08C2FCF910895CF930E94AE208823C8
:1011500049F00E94901760E0811107C08DE091E096
:101160000E94601F80E0CF91089585E091E00E9489
:10117000601F809107020E94C00A813071F18823AC
:1011800051F0823071F1833081F160E08CED90E0BC
:101190000E94721F05C060E08CEF90E00E94601F0B
:1011A0000E948428C82F8CEC90E0C0FF02C084ED20
:1011B00090E060E00E94601F8CEB90E0C1FF02C0F5
:1011C00084EC90E060E00E94601F8CEA90E0C2FF37
:1011D00002C084EB90E060E0C3CF60E085EF90E078
:1011E000DDCF60E08EEE90E0D9CF60E086EE90E05B
:1011F000D5CF81E0089581E008950C94F908089511
:101200000C94FF081F93CF93DF9300D000D00F9270
:10121000CDB7DEB749835A836B833091DF01898173
:101220009A8131111DC06623B9F02223A9F00E94D2
:10123000570F182F682F89819A810E94000F6981AA
:101240007A81812F0F900F900F900F900F90DF9168
:10125000CF911F910C94DC220E942E0F182FEFCFFC
:101260000E94570F69817A81EDCFFC01262F4081C2
:1012700051816281738184810C94020981E0089517
:10128000CF93DF93EC0160E00E943509BE01DF914E
:10129000CF910C940009E1E0F0E0DF0102C0AA0F59
:1012A000BB1F6A95E2F7BD01DF0102C0AA0FBB1F99
:1012B0004A95E2F76A2B01C0EE0F2A95EAF7962FBE
:1012C0009823961302C08E2B0895E0958E230895DF
:1012D000242F462F682F809107020E944B090C94FF
:1012E000BD0E0E943F170E94D80A0C9455060C941C
:1012F000920880E00E94D90A0C94932008950895E2
:101300000E94550E0E947F092FEF84E39CE021503C
:1013100080409040E1F700C000000C94162A0F9323
:101320001F93CF93DF938C0161E00E943509EC019C
:10133000B8010E94E51C8823D9F1B801CE010E94B2
:10134000FD088823A9F1B801CE010E94EC2488236E
:1013500079F1B801CE010E94EA20882349F1B80151
:10136000CE010E945624882319F1F8018281882336
:1013700061F0CA35FDE5DF0721F170F4C115ECE538
:10138000DE07A1F0CE3DDC45C9F0C801DF91CF9169
:101390001F910F910C94FB08CB358DE5D807A1F078
:1013A000CC35DD4591F70E946A13EFCF0E9480098A
:1013B00080E0DF91CF911F910F9108950E94231437
:1013C000F7CF0E947313E1CF0E947613DECF0C9407
:1013D0007E090E9471280E94D90A0C94E709DF92C5
:1013E000EF92FF920F931F93CF93DF93E82FF0E0DC
:1013F000E359FB4FD490282F26952695269530E06B
:10140000F901E35FFA4F0491877010E0082E02C0E3
:10141000159507950A94E2F701701127F901E35039
:10142000FB4FE490F12C082E02C0F594E7940A9447
:10143000E2F791E0E922FF24F901E351FB4FC49167
:10144000D0E002C0D595C7958A95E2F7C170DD2737
:101450000115110519F081EE0E94240BE114F1042D
:1014600019F086EE0E94240B8D2D0E94090CEF28A6
:1014700019F086EE0E949C0B012B19F081EE0E9460
:101480009C0BCD2B51F08CE2DF91CF911F910F91EE
:10149000FF90EF90DF900C94090CDF91CF911F919A
:1014A0000F91FF90EF90DF900895EF92FF920F93CE
:1014B0001F93CF93DF93EC01162F0AE088818823D6
:1014C00009F454C0813009F04EC08981813099F40B
:1014D0007E0122E0E20EF11C8A810E94090CE701E4
:1014E0002196812F815050F3EFE9FFE03197F1F71A
:1014F00000C00000F7CF823041F47E0182E0E80EA8
:10150000F11C8A810E94240BEACF833041F47E01D2
:10151000E2E0EE0EF11C8A810E949C0BE0CF843049
:1015200011F02196DDCF2A81229690E080E0AE0175
:101530004F5F5F4F2053330B2A30310548F001973E
:1015400078F2EFE9FFE03197F1F700C00000F7CF44
:10155000089FB001099F700D1124C901860F971FC4
:101560002981EA01E4CF0E94EF09BACFDF91CF9140
:101570001F910F91FF90EF90089560E00C94550A31
:10158000982F92959F7011F0892F94E0282F26951F
:10159000269511F09E5F822F869509F09F5F892F17
:1015A000089508950C94D10A81E008950C94D40A0A
:1015B0000895CF93C82F0E94D20A8C2FCF910C94FC
:1015C000D60ACF93DF93CDB7DEB72B970FB6F8943B
:1015D000DEBF0FBECDBF4F83588769877A878B8761
:1015E00061110E94C5121E821D8285E0FE013796A0
:1015F000DE01119601900D928A95E1F78C819D8113
:10160000892B89F449815A816B817C818D819E81EE
:101610000E94E6112B960FB6F894DEBF0FBECDBF29
:10162000DF91CF91089589819A8189238F3F51F36A
:10163000CE0101960E943E098111E4CFEBCFFC015F
:10164000808191810C94840FCF93C82F882309F453
:1016500071C08238C1F40E94712881FD6BC089E39A
:101660000E9480120E94E8122FEF81EE94E0215038
:1016700080409040E1F700C0000089E30E9487129B
:10168000CF910C94E8128338A1F40E94712880FD58
:1016900051C083E50E9480120E94E8122FEF81EE74
:1016A00094E0215080409040E1F700C0000083E5C5
:1016B000E5CF8438A1F40E94712882FD3BC087E405
:1016C0000E9480120E94E8122FEF81EE94E02150D8
:1016D00080409040E1F700C0000087E4CFCF8CEF5E
:1016E0008C0F813A90F46C2F80910201909103014C
:1016F0000E94DE28882329F08C2F0E9487120E94E6
:10170000E8128C2F0E948012BBCF80E28C0F8830B1
:1017100048F4C77081E001C0880FCA95EAF70E94BB
:10172000A812AECFC03F30F08C2F0E94861ACF9106
:101730000C94591BCF910895882309F452C0823824
:1017400071F40E94712881FF4CC089E30E948012CD
:101750000E94E81289E30E9487120C94E8128338F1
:1017600059F40E94712880FF3CC083E50E948012DA
:101770000E94E81283E5EFCF843859F40E94712863
:1017800082FF2FC087E40E9480120E94E81287E443
:10179000E2CF9CEF980F913AF0F290E2980F9830D8
:1017A00050F4877091E001C0990F8A95EAF7892F6C
:1017B0000E94AE12D2CF9BE5980F933020F490E0B8
:1017C00080E00C94A02898E5980F973120F490E0E1
:1017D00080E00C94B628803F20F00E94E01A0C9420
:1017E000591B08951F93CF93DF93182FEB010E948D
:1017F000240B209731F4812FDF91CF911F910C940E
:101800009C0B8FE99FE00197F1F700C00000219742
:10181000F0CF70E060E0893311F460E570E00C9483
:10182000F20B882321F00E94A8120C94E81208956C
:10183000882321F00E94AE120C94E8120895BF9202
:10184000CF92DF92EF92FF920F931F93CF93DF938C
:101850006C01D62FC72FFC011281F580F2949FE016
:10186000F9220E949E12E82E8823B9F0E12E11235E
:10187000A1F08C2F807F803421F080E28D0F8830A2
:10188000D0F08091FE0282FD16C082E00E943913E2
:101890000E949E1291E0E82EE926BC2EB2948FE0C1
:1018A000B822FBE0FB1508F468C0EB2DF0E0EE5D1C
:1018B000FD4C0C94B231E12CF0CF0C2F0F70C07F97
:1018C00011F00295007F112399F0002359F080E276
:1018D0008D0F883010F0D11107C0802F0E94A81200
:1018E0000E94E8128D2F41C0802F0E94B812F8CFBD
:1018F0008D2F0E949C0B002309F43FC080E28D0FC6
:10190000883010F0D11104C0802F0E94AE1203C0A5
:10191000802F0E94BE120E94E8122FC00C2F0F7061
:10192000C07FC03211F00295007FDD2381F0D130FD
:1019300009F469C0112309F473C0FF2009F469C0D8
:10194000F601858180FFCECF8F70858362C0809144
:10195000FE0282FF38C0112359F0002329F0802FA6
:101960000E94A8120E94E81280E00E94240B05C089
:1019700080E00E949C0B0111C7CFEB2DE850FF0BBC
:10198000349720F40E9471280E94D90AEE2009F4AD
:1019900031C10E949A1280FD2DC1F60112820E946F
:1019A00094120E94CE0EC6010E941B0E0E94941239
:1019B000DF91CF911F910F91FF90EF90DF90CF902B
:1019C000BF900C94D90E112389F0F11006C00E942B
:1019D000CB12802B0E94110CD0CF21E0F212F7CF56
:1019E0000E94CB12802B0E94D112C7CFF11006C0EB
:1019F0000E94DE12802F0E94180CBFCF31E0F31638
:101A000009F4BBCFF5CF112331F085E08F1508F431
:101A1000B4CF802FDFCF94E09F1508F4AECFEACF8C
:101A2000FF2041F3D93349F4FFEF27EE33E0F150C3
:101A300020403040E1F700C000008D2F0E949C0B39
:101A40009CCF8D2F112329F00E94861A0E94591BCA
:101A500094CF0E94E01AFACF8C2F837079F5111180
:101A60008CCF4D2F429546954770440F440F8D2FD4
:101A70008F70042E01C0880F0A94EAF72D2F207171
:101A8000D4FF07C02FE030E001C0220F4A95EAF7EB
:101A90002095C695C695C370822BC23049F058F484
:101AA000C13019F00E94AF0E68CF0E94AA0E65CF18
:101AB0000E94B40E62CF0E94A80E5FCF86951123BC
:101AC00011F08C2F8170882309F457CF4D2F429548
:101AD00046954770440F440F8D2F8F70042E01C020
:101AE000880F0A94EAF72D2F2071D4FF07C02FE04A
:101AF00030E001C0220F4A95EAF72095C695C695B9
:101B0000C370822BC23049F058F4C13019F00E94E2
:101B1000F50E33CF0E94F00E30CF0E94FA0E2DCF7B
:101B20000E94BD0E2ACFCF70112329F08C2F0E9466
:101B3000CE0E8D2F4FCF8D2F0E94180C8C2F0E9410
:101B4000D90E1BCFD23F51F160F4D03FB9F0D13F55
:101B500081F0112309F449C0F110C4CE8C2F8F718C
:101B600021C0D33F11F1D43FA1F78091FE0282FF43
:101B700026C08C2F8F71112311F314C0112349F04B
:101B800084E08F1508F4F9CE8C2F8F710E94E50E3A
:101B9000F4CE95E09F1508F4F0CEF6CF8C2F8F7120
:101BA0001111CDCF0E94CE0EE8CE112329F08C2F3B
:101BB0008F710E94C60EE1CE0E94C30EDECE1123AD
:101BC00049F0CF718C2F0E94CE0E63E08C2F0E94C3
:101BD0001E13D3CE81E00E943913E1E0EF1508F027
:101BE000CCCE82E00E943913C8CEF1101BCF8C2FCF
:101BF0008F71A5CFDF91CF911F910F91FF90EF9043
:101C0000DF90CF90BF9008950F931F93CF93DF93F2
:101C1000EC01688179818A810E948E0F8C010E947B
:101C2000FF0E0E94A70EB801CE01DF91CF911F9148
:101C30000F910C941F0CCF93DF93EC018B819C814F
:101C4000892B29F08881998189238F3F59F4DF916D
:101C5000CF910895CE010E94040ECE01DF91CF9165
:101C60000C944009CE010E948F098111F3CF0E948C
:101C70009E12882361F38A81882349F38091FE02B2
:101C800082FDE5CF82E0DF91CF910C9439130E9461
:101C9000C5120E94C8120E94E8120E94801C0C9477
:101CA000591B0E948E120C94470E0E94B5120C9480
:101CB000510EE92FE295EF70E250EE3070F4F0E053
:101CC000E25DFD4C0C94B231803F19F020F4883E67
:101CD00020F481E00895843FE1F380E00895883E98
:101CE000C0F3813FD1F7F5CF93FB882780F90895A2
:101CF000FC01808191810E94840F0C94590ECF9336
:101D0000DF9300D000D00F92CDB7DEB70F900F90C9
:101D10000F900F900F90DF91CF910895CF93DF93A5
:101D200000D000D000D0CDB7DEB726960FB6F8941D
:101D3000DEBF0FBECDBFDF91CF91089508950C9403
:101D40009E0E0E949F0E809308020C94470E0895E9
:101D50000C94A10E90910802892B0C94A10E9091E5
:101D6000080289230C94A10E9091080289270C94F3
:101D7000A10E0C949E0E0C94B90E0E94BB0E809383
:101D800007020C94470E80E00C94BD0E91E001C058
:101D9000990F8A95EAF7892F0C94BD0E21E030E067
:101DA00001C0220F8A95EAF780910702822B0C94DA
:101DB000BD0E21E030E001C0220F8A95EAF72095A0
:101DC0008091070282230C94BD0E21E030E001C017
:101DD000220F8A95EAF78091070282270C94BD0EA4
:101DE00090910702892B0C94BD0E909107028923D4
:101DF0000C94BD0E9091070289270C94BD0E089596
:101E0000E92FEE0FEE0F9E0F890F982F977041E08C
:101E100001C0440F9A95EAF786958695869593E0DA
:101E2000899FF0011124E052FE4F30E020E070E085
:101E30005191DF011197CB01022E02C09695879533
:101E40000A94E2F7817081958527842385278C93F6
:101E50002F5F3F4F2330310559F70895E92FEE0FDB
:101E6000EE0F9E0F890F982F977086958695869511
:101E700023E0829FF0011124E052FE4F50E040E049
:101E800080E0219130E0092E02C0369527950A9412
:101E9000E2F721703327042E01C0220F0A94EAF7DB
:101EA000822B4F5F5F4F4330510559F70895CF9212
:101EB000DF92FF920F931F93CF93DF936C010091FA
:101EC000070280910802082BC7E0D0E010E0FC2E4A
:101ED000C8010C2E02C0959587950A94E2F780FD03
:101EE0000CC02197A0F7F12C8F2DDF91CF911F917E
:101EF0000F91FF90DF90CF900895B6018C2F0E9434
:101F00000616019771F3F0CFCF93DF93EC010E9497
:101F1000570FBE01DF91CF910C9406161F93CF93FC
:101F2000DF93EB019091DF01992331F0CB01DF9139
:101F3000CF911F910C94840F882379F0CB010E94DC
:101F4000570F182F682FCE010E94000FBE01812F5E
:101F5000DF91CF911F910C940616CB010E942E0F9A
:101F6000182FF4CF1F93CF93DF93C091090216E08F
:101F700080910A028C1304C0DF91CF911F910895C4
:101F8000D0E01C9FF0011D9FF00D1124E55FFD4F77
:101F90004081518162817381848195810E948E0E7E
:101FA0002196C770E5CF40913B0250913C02609171
:101FB0003D0270913E0280913F02909140020C944C
:101FC0008E0EFF920F931F93CF93DF938091400269
:101FD000807FD1F480913D028823B1F08091090285
:101FE00010910A0260913B0270913C02A0913E0266
:101FF000B0913F02062F0723C0910001D09101014B
:1020000096E0F92E181306C0DF91CF911F910F9122
:10201000FF90089590E0109711F00F3F19F401968A
:102020008770F0CFF89E9001F99E300D1124F901D0
:10203000E55FFD4F41814713F2CF40814613EFCF5B
:1020400042814111ECCF438154814A1B5B0B4C17F9
:102050005D0728F7809140028F7080618093400275
:10206000F901E05FFD4F80818F70806180838BE399
:1020700092E00E941B0EDF91CF911F910F91FF9074
:102080000C94B20FAF92BF92CF92DF92EF92FF9279
:102090000F931F93CF93DF93CDB7DEB761970FB642
:1020A000F894DEBF0FBECDBF8C0185E0F801DE01E4
:1020B0001D9601900D928A95E1F7F801E2808BE37D
:1020C000C82E82E0D82E60913E0270913F026115C9
:1020D000710509F45FC190913B0220913C02892F68
:1020E00082238F3F09F456C140815181A380B4807F
:1020F000F0903D02F501E61BF70BBF01E0910001F6
:10210000F0910101FF2009F4F6C080914002382FC0
:10211000307F6E177F0708F0AFC0311179C0FE2CF9
:10212000251323C0941321C0E1101FC08F7080615C
:10213000809340020E94D30FC6010E941B0E809123
:102140004002F80185838F2D61960FB6F894DEBFAB
:102150000FBECDBFDF91CF911F910F91FF90EF90F8
:10216000DF90CF90BF90AF900895AB2829F0842FD7
:1021700085238F3F09F027C180E0F82FF170DF2E13
:1021800080FF3CC08091090220910A0236E0821350
:1021900015C04D875E878D859E850E94840F292FEF
:1021A00022952F702230F0F0243018F59F70F1F056
:1021B000F8019581907FD1F4D12C1EC090E0389F1A
:1021C000F001399FF00D1124E55FFD4F618165132A
:1021D00006C06081641303C062816E110FC0019656
:1021E0008770D5CF9F7011F0882331F3805E8830DF
:1021F00018F3C8010E941B0EFD2CA5CFEE2009F498
:10220000A2CF80914002816080934002F12C9BCF4D
:10221000251306C0941304C0F801EE2009F487C00A
:10222000C8010E94780E882319F1EE2009F18091EF
:102230004002803270F020913B0230913C0238879E
:102240002F831986BB86AA868C87CE0107960E94AB
:102250001B0E86E0F801ABE3B2E001900D928A9587
:10226000E1F70E94E10F0E94D30FFF24F3946BCF9C
:10227000C8010E941B0EF9CF311113C07A2DB98A03
:10228000A88A6E2D89890E947F0E8BE392E00E94BE
:102290001B0E86E0F60111928A95E9F70E94D30F92
:1022A000B5CF25130FC094130DC0E1100BC0F8017A
:1022B0008583C8010E941B0E86E0F60111928A9563
:1022C000E9F741CFC8010E94780E882389F2EE20F9
:1022D00079F280914002803208F4BBCF20913B021A
:1022E00030913C023A8329831B82BD82AC828E836B
:1022F000CE010196ACCF6E177F0708F03EC0FE2CD2
:10230000EE2009F4B5CF25132AC0941328C080917C
:10231000400280FD1BC0982F907FC1F0F80185839B
:10232000903F31F0982F907F905F8F70892B85833D
:10233000C8010E941B0E86E0F801ABE3B2E00190F9
:102340000D928A95E1F70E94D30FFDCE86E0F80149
:10235000ABE3B2E001900D928A95E1F7F4CEC801AB
:102360000E94780E811175CF809140028160809328
:102370004002C8010E941B0EE6CE7A2DB98AA88AB7
:102380006E2D89890E947F0E86E0F60111928A9552
:10239000E9F7D9CFEE2009F46BCFC8010E94780E7F
:1023A000F82E882309F464CF86E0F801ABE3B2E0AD
:1023B00001900D928A95E1F78BE392E00E941F0B4A
:1023C0000E94E10FC0CF81E08E25D7CE1F93CF931F
:1023D000DF93CDB7DEB72C970FB6F894DEBF0FBEF4
:1023E000CDBF4F83588769877A878B879C87CE01BB
:1023F00007960E944210882369F08A859B85892B65
:1024000039F04F815885842F85238F3F09F071C0A3
:1024100016E05FC086E0FE013796DE01119601905E
:102420000D928A95E1F78A859B85892B89F38F81A7
:10243000988589238F3F61F320910A0230E0C9011A
:10244000019687709927409109024817190671F47F
:102450000E94550E10920A021092090286E0EBE3E8
:10246000F2E0DF011D928A95E9F7D2CF96E0929FC4
:10247000D001939FB00D1124A55FBD4FFE01319691
:1024800001900D929A95E1F780930A020E94B20F93
:10249000BFCF819FC0011124855F9D4F0E944210D4
:1024A0008823E9F0E09109021E9FF0011124E55F05
:1024B000FD4F4081518162817381848195810E94A9
:1024C0008E0E8091090290E0019687709927809383
:1024D00009028091090290910A028913DACF2C96A1
:1024E0000FB6F894DEBF0FBECDBFDF91CF911F9125
:1024F000089569857A858B859C850E948E0E88CF8C
:10250000682F80910201909103010C941429682F87
:1025100080910201909103010C941629809102018F
:10252000909103010C94182980914102859585951D
:102530008595089580914102877008959091410298
:10254000977081E009F480E0089580914D0208952C
:1025500090914D02892B80934D0208958095909122
:102560004D02982390934D02089510924D020895C4
:1025700090914C02892B80934C0208958095909104
:102580004C02982390934C02089510924C020895A7
:1025900010924B02089580914202089508950C9480
:1025A000CE129091FE0292FD08C0909142029817BF
:1025B00021F0809342020C94CF1208958091420240
:1025C000882329F01092420280E00C94CF120895E3
:1025D000E0910201F091030180914D028083E0912E
:1025E0000201F0910301808190914C02892B80833C
:1025F000E0910201F0910301808190914B02892BBF
:10260000808390914202992381F0E0910201F09140
:1026100003018081892B80838091020190910301C5
:102620000E94CC2881110E94DE12809102019091BB
:1026300003010C94872808950C941B139091FE02BB
:1026400092FD10C098E0899F90011124622B609345
:1026500041020E94CE0E8091410285958595859517
:102660000C941C130C94CE0E1092410280E00C943A
:102670001C13909141028095892380934102282F59
:10268000277091F4282F082E000C330B9217130695
:1026900059F09091FE0292FD07C08595859585952C
:1026A0000E94D90E0C94341308959091FE0292FB6F
:1026B000222720F9281769F080FB92F99093FE02F7
:1026C0008091FD029091FE020E94A01382E00C9482
:1026D000391308958091FE0282FB882780F991E0EA
:1026E00089270C94551381E00C94551380E00C94C9
:1026F00055136FEF7FEF90E080E00C940A3290E08A
:1027000080E00E94E631893E9E4F11F40C948E1CAD
:1027100080E0089582E090E00C94DE3183E090E068
:102720000C94DE31CF9384E090E00E94DE31C82F1C
:1027300082E290E00E94DE31982F8C2FCF91089595
:10274000CF93C92F682F84E090E00E94EC316C2F6A
:1027500082E290E0CF910C94EC31AB01BC018FE0B0
:1027600090E00C94FE31AB01BC0183E190E00C944D
:10277000FE3160E070E0CB010C94B31360E070E0D8
:10278000CB010E94AD130C94B91369EE7EEF90E07B
:1027900080E00E940A3260E082E090E00E94EC312A
:1027A00060E083E090E00E94EC311092080260E06B
:1027B00084E090E00E94EC3160E082E290E00E94D0
:1027C000EC3160E085E090E00E94EC3160E086E072
:1027D00090E00E94EC316FEF87E090E00E94EC31D6
:1027E00040E050E0BA0188E090E00E94FE3160E0F5
:1027F0008DE090E00E94EC3140E050E0BA0188E1C9
:1028000090E00E94FE3160E087E190E00E94EC31B0
:1028100040E050E0BA018CE190E00E94FE3170E0AF
:1028200060E080E290E00E940A3240E050E0BA01AD
:1028300088E190E00E94FE3180E00E94A71C0E9487
:10284000CD1C0C94BE130C94C513682F8EE090E041
:102850000C94EC310E94BB2960936B0270936C0264
:1028600080936D0290936E0260936702709368028A
:102870008093690290936A0208950E94BB29609335
:102880006B0270936C0280936D0290936E02609362
:1028900063027093640280936502909366020895C8
:1028A00085B7806885BF85B7806885BF089508951E
:1028B00008950C94571408950C945B140E945014BE
:1028C00085E297E10E9467280E9458140C945914DD
:1028D0000C949017089508950E946A140C946B1438
:1028E0000E94A6290E94E4160E94DC1C0E94600639
:1028F0000E94D51D80E00E94351E0E94A5230C94E5
:102900005C149F92AF92BF92CF92DF92EF92FF92B0
:102910000F931F93CF93DF93CDB7DEB72A970FB6F0
:10292000F894DEBF0FBECDBF0E942C07C82E8111C8
:102930000E942A148FE4A82E82E0B82E10E000E056
:10294000902E802F0E945906E82EF501F1905F012C
:10295000F81609F45CC080916F0281FD0E945F0649
:102960008F2D8E25D12CFF24F394982F9F2109F4CD
:1029700049C00E946814882399F0DE829F82EF206C
:1029800081E009F480E088870E94AF298160782F78
:102990009A8789874E815F8168858A850E94E10ACE
:1029A000F801E15BFD4F8081F826F0820E94BE2392
:1029B000182F81110E943D140E94B020C11001C047
:1029C00011110E94771F0E94741B0E947128909120
:1029D0004E02891799F10E94712880934E022A961F
:1029E0000FB6F894DEBF0FBECDBFDF91CF911F9120
:1029F0000F91FF90EF90DF90CF90BF90AF909F909E
:102A00000C94D90AD394FF0CF5E0DF12AECF0F5F20
:102A10001F4F0431110509F093CF8FEF89838A830B
:102A20001B820E94AF298160782F9D838C8349810E
:102A30005A816B818D810E94E10AB8CF2A960FB628
:102A4000F894DEBF0FBECDBFDF91CF911F910F91E4
:102A5000FF90EF90DF90CF90BF90AF909F90089540
:102A6000CF93DF930E940A16EC01811522E59207AD
:102A700078F5811531E5930708F098C08F3F9105EF
:102A800009F0B8F4803F910508F06FC0853A9105D0
:102A900040F48430910548F4019739F0D0E0C0E06B
:102AA00004C0805E91090897C8F7CE01DF91CF91ED
:102AB0000895811540E5940708F05CC0C11580E4D5
:102AC000D80708F054C0C11590E2D90770F3E6CFDB
:102AD000811526E5920718F5811535E5930708F06D
:102AE0007DC0811544E5940708F073C0982F969532
:102AF00096959E0123703327C115D34508F45BC01A
:102B0000C1E0D0E002C0CC0FDD1F2A95E2F730E231
:102B1000939FC0011124C82BD92BDA68C6CFC115E9
:102B20009AE5D90778F4C11529E5D20708F060C005
:102B3000C11538E5D30708F4B1CFDC2FCC27C06F1F
:102B4000D06AB3CFCE0190568115904208F0A6CF3F
:102B50008D2F8F710E94A11690E0982F88278827CB
:102B60009F719C012C2BE90141C0D0659ECFDF7085
:102B7000D06A9BCFE4E096958795EA95E1F783705C
:102B80002C2F26952695237090E2299F90011124E1
:102B9000382B8C2F8370C1E0D0E002C0CC0FDD1F3A
:102BA0008A95E2F7C22BD32BDC687FCFD82FCC27B6
:102BB000C16FD06A7ACFC1E0D0E002C0CC0FDD1F78
:102BC0002A95E2F720E2929FC0011124C82BD92B4D
:102BD000EBCFD82FCC27C46FD06A67CF0E94A11645
:102BE000C82FD0E0DC2FCC27CC27DF71D0625DCF9F
:102BF0008C2F8F700E94A11634E0D695C7953A9518
:102C0000E1F7CF709C2FEC01D0694FCF0E94DC22FE
:102C10000C94301582389105B1F1B0F481339105EF
:102C200009F475C048F48932910509F469C08A3203
:102C3000910509F473C008958533910509F459C0CD
:102C40008933910501F10895833E9105A9F138F486
:102C5000803E9105F9F0823E910549F10895863E46
:102C60009105A9F1873E9105C9F1843E910519F5B9
:102C70002091FE0221FF1FC08091FD0284FD14C03F
:102C800087EE90E008952091FD022370A1F080EE80
:102C900090E008952091FD0220FD47C03091FE0292
:102CA00030FF09C024FF44C090E080E004C02091C0
:102CB000FD0222FDF7CF08952091FD0222FD3BC0C9
:102CC0003091FE0230FDE3CF24FFF5CFEDCF209110
:102CD000FD0223FFF0CF24FDE7CFD2CF2091FD02EC
:102CE00023FD2CC03091FE0231FFEECF84EE90E048
:102CF00008952091FD0225FFDECF89E290E008953E
:102D00002091FD0225FFD7CF85E390E00895209123
:102D1000FD0226FFD0CF8AE290E008952091FD02C7
:102D200026FFC9CF81E390E0089589E390E00895FC
:102D300083EE90E0089582EE90E0089586EE90E0B4
:102D400008959091FD0292FF06C0282F2871283027
:102D5000F9F4877F846093FF06C0282F28712831FB
:102D6000F1F4877E84612091FE0220FF06C0382F97
:102D700038713830D9F4877F816021FF06C0282F51
:102D800028712831D1F4877E816194FD877E089572
:102D9000282F24712430F9F68B7F8860DCCF282F10
:102DA0002471243101F78B7E8861DDCF382F31719A
:102DB000313019F78E7F8860E0CF282F21712131C3
:102DC00021F78E7E8861E1CF1092F9021092FA020B
:102DD0001092FB021092FC020895CF92DF92EF92C4
:102DE000FF926B017C010E94901781110EC00E941E
:102DF000BB29C61AD70AE80AF90AC092F902D0928A
:102E0000FA02E092FB02F092FC02FF90EF90DF905A
:102E1000CF9008950F931F930E949017882321F05D
:102E20001F910F910C94BB290E94BB290091F902BC
:102E30001091FA022091FB023091FC02600F711F89
:102E4000821F931F1F910F91089580E008950C94A5
:102E500079130E942C078FE39CE90197F1F700C0DA
:102E600000000E942C0780E00E94590680FF04C0E9
:102E70000E9427170C94162A08950C9429170E9473
:102E80007F13811102C00E9423140E948A13809331
:102E90006F020E9492139093FE028093FD020E94A3
:102EA0003D170E948E130E94A80E809107020C9479
:102EB000BB0E0895FF920F931F93CF93DF93F82ECD
:102EC000092F162FD72FC42F222349F081E080939A
:102ED00072020E94AF2990937102809370028091D8
:102EE00072028823A1F080917002909171020E9479
:102EF000C729059760F0EF2DF02FA12FBD2FCE0F22
:102F0000DF2FD11DEC17FD0741F410927202DF9103
:102F1000CF911F910F91FF90089581918D93F2CFE2
:102F200080917302811107C00E947131882351F092
:102F300081E08093730281E090917302913009F0F7
:102F400080E0089582E0809373020E946C31F3CF99
:102F50000C9490170E94A817809304010E94901768
:102F600081110C94C21708950E949017811102C01C
:102F70000C94C417089581E0909174029A3008F07F
:102F800080E008950C94A6260C94A926EF92FF9257
:102F90000F931F93CF93DF937901C82F880FDD0B19
:102FA00041155105A9F08AE08C9FF0018D9FF00D2D
:102FB0001124EB5FFE4F838194818B589D4F2281BA
:102FC00030E04217530708F49A01A9010E94D53155
:102FD000CE010E94B327892B11F501151105E9F0E7
:102FE0008AE08C9FF0018D9FF00D1124EB5FFE4F66
:102FF000458150E00417150708F4A8018AE08C9F6A
:10300000F0018D9FF00D1124EB5FFE4F66817781FB
:103010006B587D4FC7010E94D53181E001C080E02F
:10302000DF91CF911F910F91FF90EF9008950C9435
:1030300076190C949A190F931F93CF93DF9300D0B6
:1030400000D0CDB7DEB760919C0270919D02809157
:103050009E0290919F020E94D62911E0643671056C
:103060008105910518F10E940A176E5F7F4F8F4FFF
:103070009F4F69837A838B839C8310E000E030E06C
:1030800020E044E050E0BE016F5F7F4F84E00E948B
:10309000C617182F882351F00E94BB2960939C0209
:1030A00070939D0280939E0290939F02812F0F90B8
:1030B0000F900F900F90DF91CF911F910F91089576
:1030C0007F928F929F92AF92BF92CF92DF92EF92B8
:1030D000FF920F931F93CF93DF930F92CDB7DEB77D
:1030E000762E4A015901680101E010E09E012F5F30
:1030F0003F4F50E040E070E060E00E94C617182F9C
:10310000882309F43EC0F40160817181828193813A
:103110000E94D629643671058105910558F1870111
:10312000950150E040E070E060E0872D0E94C617F6
:10313000B82EB701C6010E94D61D11E099819813DF
:1031400010E01B2139F00E94BB29F40160837183D8
:1031500082839383812F0F90DF91CF911F910F91E5
:10316000FF90EF90DF90CF90BF90AF909F908F90A7
:103170007F900895B701C6010E94D61D99818913D9
:10318000CECFA701B601C5010E94D531E3CFEF92A2
:10319000FF920F931F93CF93DF930F92CDB7DEB7BC
:1031A0000091740110917501045F1F4FEE24E394A8
:1031B000F12C9E012F5F3F4F48E952E063E082E02F
:1031C0000E946018182F882321F0CE0101960E94DA
:1031D0001724812F0F90DF91CF911F910F91FF90B6
:1031E000EF900895CF92DF92EF92FF920F931F938B
:1031F000CF93DF93CDB7DEB72A970FB6F894DEBF33
:103200000FBECDBF6B0100917401109175010F5F6E
:103210001F4F8AE0E82EF12C9E012F5F3F4F44E9BB
:1032200052E061E080E00E946018882349F09AE053
:10323000FE013196AAE8B2E001900D929A95E1F76D
:103240009AE0EAE8F2E0D60101900D929A95E1F752
:103250002A960FB6F894DEBF0FBECDBFDF91CF9197
:103260001F910F91FF90EF90DF90CF900895AF9254
:10327000BF92CF92DF92EF92FF920F931F93CF9363
:10328000DF937C015B016A010E94BB1701E010E043
:10329000882311F00AE010E0C1E0D0E0F894B50115
:1032A000C701F60109957894811104C021960C1785
:1032B0001D075CF4DF91CF911F910F91FF90EF906C
:1032C000DF90CF90BF90AF900895CC9F9001CD9F9D
:1032D000300D300D112490E080E045E34A95F1F780
:1032E0000000019682179307C1F7D8CF0F931F9361
:1032F000CF93DF93EC018B0142EF58E10E94371925
:10330000882391F047EC58E1B801CE010E943719AB
:10331000882351F04BE158E1B801CE01DF91CF9104
:103320001F910F910C94371980E0DF91CF911F917D
:103330000F9108950F931F93CF93DF930F92CDB703
:10334000DEB7F8940091740110917501C8010196DF
:103350002AE0FB01DC0101900D922A95E1F76AE079
:1033600070E00E94D61DF80180837894F894CE0115
:1033700001960E940E248981F801848761E070E043
:10338000CE0101960E94D61DF80183877894F894A7
:1033900065857685878590890091860210918702E0
:1033A0002091880230918902601771078207930784
:1033B00051F0609386027093870280938802909305
:1033C00089020E94ED1678940F90DF91CF911F91A2
:1033D0000F9108950E94BB2B0E9470140C94C72B70
:1033E0000E94CB2B0E9481140C94E52B0E9439295A
:1033F0000E94A22B0E945E140E94EA190E94F019FA
:103400000E946C14FBCF8091A60280FF12C06091D5
:103410003C0185E0689FB00111247595679575950D
:10342000679560387105A8F561157105A1F1862FC2
:10343000089581FF09C060913C0185E0689FB0015B
:10344000112475956795EDCF60913C0182FD0AC00E
:103450008091A5028823D1F090913B0160913C01BD
:10346000891728F085E0689FB0011124DACF869F84
:10347000B001112485E0869F9001879F300D1124B3
:10348000692F70E0C9010E949E31CBCF65E070E0EA
:10349000CECF8FE7089581E008958091A60280FF46
:1034A0000CC06091380170E07595679575956795CA
:1034B0006115710549F1862F089581FF06C060915D
:1034C000380170E075956795F3CF6091380182FD02
:1034D0000BC09091A4029923A1F0609137018091D3
:1034E0003801961738F0682F70E06038710500F3E6
:1034F0008FE70895899FC001112470E00E949E31DA
:10350000F4CF61E070E0D7CF81E00895803F31F4DF
:103510000E94031A81958093AA020895813F19F4AD
:103520000E94031AF8CF823F31F40E94031A81955A
:103530008093A9020895833F19F40E94031AF8CFDB
:10354000893F29F40E944D1A8093AB0208958A3F67
:1035500021F40E944D1A8195F7CF8B3F31F40E94E0
:103560004D1A81958093AC0208958C3F19F40E9406
:103570004D1AF8CF9CE0980F953070F4845F990B4A
:1035800021E030E001C0220F8A95EAF78091A8027D
:10359000822B8093A80208958D3F31F48091A6027A
:1035A00081608093A60208958E3F21F48091A60247
:1035B0008260F7CF8F3FB9F78091A6028460F1CF88
:1035C0004091A902803F59F48091AA0287FF0DC063
:1035D0001092AA0241110BC01092A50208C0813FAF
:1035E00081F48091AA0218169CF3442381F0809103
:1035F000AB029091AC02892B09F05AC01092A40240
:103600000895823F49F447FFF0CF1092A9028091BC
:10361000AA028111ECCFE0CF833F19F41416ACF36A
:10362000E4CF9091AB02893F29F41916F4F6109279
:10363000AB02DBCF8A3F19F497FFD7CFF8CF909139
:10364000AC028B3F29F497FFD0CF1092AC02CDCFC4
:103650008C3F19F41916CCF3C8CF9CE0980F953025
:1036600090F4845F990B21E030E0B90102C0660F4D
:10367000771F8A95E2F7CB0180959091A802892364
:103680008093A802B2CF8D3F31F48091A6028E7F45
:103690008093A602AACF8E3F21F48091A6028D7F4F
:1036A000F7CF8F3F09F0A1CF8091A6028B7FF0CF9B
:1036B00008950E94AF299C019091A9028091AA02CD
:1036C000982B21F03093A3022093A2029091AB0299
:1036D0008091AC02982B21F03093A1022093A0029C
:1036E00087EA92E00C949228EF92FF920F931F9337
:1036F000CF93DF9300D000D000D0CDB7DEB786E007
:10370000E7EAF2E0DE01119601900D928A95E1F769
:10371000E090A902F090AA020091AB021091AC02D5
:103720001092A9021092AA021092AB021092AC025F
:103730008E2D8F2991F08091A2029091A3020E9478
:10374000C729AC019091A502992309F43FC080914B
:103750003D018417150608F447C0802F812B91F096
:103760008091A0029091A1020E94C729AC01909182
:10377000A402992309F477C08091390184171506B2
:1037800008F47FC08091A9029091AA02892B9091A0
:10379000AB02892B9091AC02892B11F00E94591B2E
:1037A00086E0FE013196A7EAB2E001900D928A957B
:1037B000E1F726960FB6F894DEBF0FBECDBFDF91BE
:1037C000CF911F910F91FF90EF90089520913E01AE
:1037D0008AE0289F900111242417350708F0BDCFF7
:1037E0009F5F9093A50202C09F3FD1F7EE2059F052
:1037F0000E94031A9FEF1E140CF491E0899F802D04
:1038000011248093A902FF2059F00E94031A9FEF10
:103810001F140CF491E0899F802D11248093AA023B
:103820003091A902332309F498CF2091AA022223D0
:1038300009F493CF45EB3403C0011124992359F0C7
:103840009093A90245EB240390011124332339F00E
:103850003093AA0282CF81E08093A902F3CF81E066
:103860008093AA027ACF20913A018AE0289F9001A2
:1038700011242417350708F085CF9F5F9093A40289
:1038800002C09F3FD1F7002359F00E944D1A9FEFCD
:1038900010160CF491E0899F802D11248093AB02C7
:1038A000112359F00E944D1A9FEF11160CF491E06C
:1038B000899F802D11248093AC023091AB02332379
:1038C00009F460CF2091AC02222309F45BCF45EBD1
:1038D0003403C0011124992359F09093AB0245EBB6
:1038E000240390011124332339F03093AC024ACFE2
:1038F00081E08093AB02F3CF81E08093AC0242CFB2
:1039000086E0E7EAF2E0DF011D928A95E9F710927E
:10391000A5021092A4021092A602089583E290E0FC
:103920000E94DE31823289F484E290E00E94DE312E
:10393000813059F485E290E00E94DE3191E08430DC
:1039400009F090E0892F8170089580E0FCCFCF933B
:10395000C82F6FEF811162E283E290E00E94EC31A8
:103960006FEFC11161E084E290E00E94EC316FEFF3
:10397000C11164E085E290E0CF910C94EC310895A0
:1039800086E290E00E94DE31682F70E090E080E0F7
:10399000089586E290E00C94EC3180E00E94A71C30
:1039A00060E070E0CB010E94C91C0E9454220E947A
:1039B0003E2381E00C94A71C0E94BF1C0E948E1C19
:1039C000811102C00C94CD1C0895CF93FB01C281DC
:1039D000CC2309F19C0122513F452031310520F5CE
:1039E00082510E944E23C0E08C2FCF91089581E038
:1039F0000E94CE0E43E062E081E00E946809F3CFAE
:103A000081E00E94D90E43E062E081E00E946809F3
:103A1000EBCF82E0F6CF8031FFE59F0789F381315C
:103A20009F45B9F3C1E0E0CF8031EFE59E07F9F2A1
:103A300081319F45C9F682E0DBCF2FEFFC01208367
:103A40000895EF92FF920F931F93CF93DF93EC01B2
:103A5000062FE881E150E33108F05EC0F0E0E45C5D
:103A6000FD4C0C94B231198289E08A83602FCE011B
:103A7000DF91CF911F910F91FF90EF900C947B2AD3
:103A80008981823069F0833071F08130D9F40E94ED
:103A9000BB290E94B8316A837B838C839D83E6CFE8
:103AA0000E94C01CF6CF7E0182E0E80EF11C10E0FF
:103AB000812F0E945906F70181937F011F5F143106
:103AC000B9F7D4CF602FCE010E941D1DCFCF8981C1
:103AD0008230C1F76A817B818C819D810E94B831DF
:103AE0000E94C91CC3CF4B816A8189810E94262212
:103AF0009827892798279D838C83B8CF2C813D8177
:103B00003227232732274B816A8189810E943F22F5
:103B1000ADCF0E945422AACF8FEF8883A7CF0E94F7
:103B2000E9228983A3CF0E94EB229827892798272F
:103B30009A8389839BCF6B8170E089819A81AE01E2
:103B40004C5F5F4F9827892798270E94EE228ECFDF
:103B50006B8170E089819A81AE014C5F5F4F98273D
:103B6000892798270E94142381CF0E943E237ECF6D
:103B70000E941422D6CF6B8170E089819A81AE01B8
:103B80004C5F5F4F9827892798270E948C226ECF21
:103B90006B8170E089819A81AE014C5F5F4F9827FD
:103BA000892798270E94B22261CF0895FC01680FEF
:103BB000791F8FEF91E36E177F0709F40895219124
:103BC000822728E030E087FF06C0880F8927215030
:103BD0003109C9F7F0CF880FFACFCF92DF92EF9279
:103BE000FF920F931F93CF93DF936C017B0164E6E9
:103BF00070E088E70E944425EC0197FD12C010E0B8
:103C000000E0F601E00FF11F849164E670E00E948D
:103C1000BE25EC01892B29F40F5F1F4F0E151F05E0
:103C200081F70E944126CE01DF91CF911F910F9124
:103C3000FF90EF90DF90CF90089508950C941D1E93
:103C4000E0E0F3E080E092E0DF019C011D92215072
:103C50003040E1F7F0930705E09306058FEF9FEF03
:103C60009093D9028093D80208950E949A080E94E6
:103C70001E1E8093D40280FD0FC080E88093D30283
:103C80000E943E256DE070E084E395E00E94ED1D0A
:103C9000892B21F080E0089580E2F0CF8091D4025A
:103CA00063E070E081FD26C081E395E00E94ED1D98
:103CB000892B81F76DE070E081E295E00E94ED1DB7
:103CC000892B41F70E94BB29605A75418F4F9F4F46
:103CD0006093020570930305809304059093050596
:103CE0000E94201E81E08093D7028093D60210921A
:103CF000D50208958EE295E0D9CF2091D30236E027
:103D0000839FC0011124629F800D911D1124811594
:103D100022E0920714F090E080E080509D4F909355
:103D20000705809306050895209106053091070543
:103D30002A5F32404091D302642F70E0C9010E9493
:103D40008A31481B463010F4240F311D211582E0C2
:103D5000380710F030E020E020503D4F3093070549
:103D60002093060508951F93CF93DF93162F8A3073
:103D700031F481E0DF91CF911F910C942D1F8D3094
:103D800011F480E0F7CFC0910605D091070596E0C9
:103D9000FE01ADEAB2E001900D929A95E1F7803E06
:103DA000C8F086E0FE0111928A95E9F711111EC054
:103DB000C0910605D091070546E050E0BE018DEAAE
:103DC00092E00E94C831892BF9F4DF91CF911F91C5
:103DD0000C94941EF6E08F9FB00111246F5B7A4F14
:103DE00046E050E0CE010E94BF31E0CFE0910605F1
:103DF000F09107059F012A5F3F4F2E173F07C1F241
:103E0000808180958193F9CFC050D340CE0125E0C9
:103E1000969587952A95E1F721E030E0A90102C047
:103E2000440F551F8A95E2F7CA014091D80250917C
:103E3000D902842B952B259645E0D695C7954A95B2
:103E4000E1F702C0220F331FCA95E2F7822B932BB2
:103E50009093D9028093D802B8CFCF93382FE091B6
:103E60000605F0910705E050F3402091D302622F40
:103E700070E0CF010E948A31281B822F332369F022
:103E800066E00E947E31C82FC15010F4CF91089592
:103E900060E080E20E94B31EF7CF9F01280F311D22
:103EA0002115324018F080E0F0E0E0E08E0F9F2F07
:103EB000911D80509D4F9093070580930605E6CF96
:103EC0001F93CF93DF93EC01162FFE018491811194
:103ED00004C0DF91CF911F910895612F0E94B31EFE
:103EE0002196F3CF0E94601F81E00C942D1F8091DA
:103EF000D702811103C08091D60208950E94BB2988
:103F0000605A75418F4F9F4F609302057093030570
:103F100080930405909305058091D6028111EBCF23
:103F200062E070E08FE195E00E94ED1D892B19F7AA
:103F300081E08093D602DFCF2F923F925F926F9203
:103F40007F928F929F92AF92BF92CF92DF92EF9229
:103F5000FF920F931F93CF93DF938091D702882313
:103F600069F02091D8023091D9022115310531F044
:103F70008091D50261E070E0882399F0DF91CF91C4
:103F80001F910F91FF90EF90DF90CF90BF90AF9077
:103F90009F908F907F906F905F903F902F900895AB
:103FA0008F5F082F10E01B01082E02C0220C331C6B
:103FB0000A94E2F7A90142215321452B89F39091FC
:103FC000D40290FD44C08295880F80768093410191
:103FD0009801369527953695279520934401815E63
:103FE000809342011092450124E630E047E050E022
:103FF0006FE371E088E70E94ED25892B09F0BECFC1
:10400000A80125E0440F551F2A95E1F78091D402BD
:1040100080FD2BC040505D4F04E610E020E230E010
:1040200060E488E70E941426892B09F0A7CF0E943C
:10403000771FE101C095D0958091D8029091D90267
:10404000C823D923D093D902C093D80297CF880F21
:10405000880F880F8093410110924401895F8093FB
:10406000420183E080934501BFCFE3EBF2E080E2C1
:10407000DF011D928A95E9F7AAE7B1E006E711E0B2
:104080008EE7C82E81E0D82E97E0592E77247394BE
:104090008D91E80129918E01240F352F311D20507B
:1040A0003D4FE82FF0E0ED54FD4F90E080E0652CAF
:1040B000681A872C082E01C0880C0A94EAF7790147
:1040C000A12CE701B9907E01B820662D6A196770AE
:1040D000962E062E000C770BDB2D01C0DD0F9A9477
:1040E000EAF77195619571096770772701C0B694F9
:1040F0006A95EAF7BD2A6081962E9B289082A39448
:1041000068E0A612DECF019631968830910579F6E7
:10411000CA16DB0609F0BCCF04E610E020E230E06E
:1041200043EB52E07DCF8091D6029091D70291115E
:1041300003C091E089270895882369F062E070E068
:104140008DE195E00E94ED1D892B19F08091D6023A
:1041500008951092D6028091D602EBCF81E00895A7
:104160000F931F938091D702882389F180910005D6
:10417000909101050E94C729C29760F00E94AF2963
:10418000909301058093000560E080E00E947D1E11
:104190000E94A4080E949C1F8091D6028823B9F037
:1041A0000E94BB290091020510910305209104058E
:1041B00030910505601B710B820B930B6F3F7F4F96
:1041C0008F4F9F4720F41F910F910C9493201F91C4
:1041D0000F910895CF93DF93EC01FB018281882337
:1041E00009F420C1C330FDE5DF07C8F5CA3F9CE5EF
:1041F000D90730F49E0122503C452431310598F511
:104200000E9492139093FE028093FD02C031FCE560
:10421000DF0709F4E0C008F061C0C8309CE5D907A9
:1042200009F4CBC088F5C430FCE5DF0709F4B3C05E
:10423000E8F4C2309CE5D90709F4A7C08091FD02DB
:104240008260C330DC4509F4A3C08091FD029091E7
:10425000FE020E94A0130E94550E80E004C0C136E9
:10426000EDE5DE0769F2DF91CF9108958091FD02BF
:104270008061C630FCE5DF0709F48AC008F48FC00E
:104280008091FD02806284C08091FD028D7FCC30E0
:104290009CE5D90709F47CC070F48091FD028C6024
:1042A000CA30FCE5DF0709F473C008F48AC08091C6
:1042B000FD028E7F6DC08091FD02877FCE309CE530
:1042C000D90709F465C08091FD028B7FCF30DC45B2
:1042D00008F45EC08091FD028F7E5AC0CC3FFCE5A1
:1042E000DF0709F474C040F5C4319CE5D90709F42F
:1042F0008AC058F4C231FCE5DF0709F474C008F441
:104300006EC08091FD02837F43C0CA3F9CE5D90700
:1043100009F449C008F04DC0C531DC4509F095CF1E
:104320008091FD0282FB992790F921E0922790FB72
:1043300082F990FB83F92CC0C1158DE5D80709F4EB
:1043400058C088F48091FE028360CE3FECE5DE0722
:1043500069F18091FE028D7FCF3FDC4538F180917D
:10436000FE028C7F23C0C2308DE5D80709F458C007
:1043700008F452C0C136DD4509F067CF9091FD02C7
:10438000892F8F7E94FF806103C08091FD02816040
:104390008093FD025ACF8091FD028460F9CF809115
:1043A000FD028860F5CF8091FE0281608093FE025D
:1043B0004CCF8091FE028260F9CF8091FD02806433
:1043C000E7CF0E94550E8091FD028068E1CF809179
:1043D000FE028E7FEBCF8091FD028F7DD9CF809141
:1043E000FD028F7BD5CF0E94550E8091FD028F7705
:1043F000CFCF8091FE02982F909591708E7F892B60
:1044000090FB81F9D3CF0E94550E9091FD02892F28
:1044100097FB87F98058BCCF81E00E94251415CF07
:1044200080E0FBCF81E01FCF84E0089550E0440F8F
:10443000551F9AE0699F400D511D112498EC899FEA
:10444000400D511D1124CA01879608950F931F93A3
:10445000CF93DF930E9416228C010E94DE31C82F79
:10446000D0E0DC2FCC27C80101960E94DE319E01EE
:10447000282BC901DF91CF911F910F9108950F93C0
:104480001F93CF93DF93122F032F0E941622EC016C
:10449000602F0E94EC31612FCE010196DF91CF9108
:1044A0001F910F910C94EC31AF92BF92CF92DF929B
:1044B000EF92FF921F93CF93DF938DE4C82E81E09C
:1044C000D82ED0E07601C0E014C0F50125913491DA
:1044D000412F6C2F8D2F0E943F2282E0A80EB11C2D
:1044E0001F5F153091F78AE0E80EF11CCF5FC431F1
:1044F00019F0570110E0E9CFDF5F88ECC80ED11C3E
:10450000D43001F7DF91CF911F91FF90EF90DF90B2
:10451000CF90BF90AF900895EF92FF920F931F93AB
:10452000CF93DF93EC018A017C01E60EF71ECE01EA
:104530008796CE15DF0539F4DF91CF911F910F914A
:10454000FF90EF900895C03223E0D20740F40E941C
:10455000DE31F80180830F5F1F4F2196E8CFF8010D
:104560001082F9CFCF92DF92EF92FF920F931F93B9
:10457000CF93DF937C016A018C01060F171FEC01BA
:10458000CE018796C017D10749F4DF91CF911F91D3
:104590000F91FF90EF90DF90CF900895C03223E00D
:1045A000D20740F4FE01EE19FF09EC0DFD1D6081FC
:1045B0000E94EC312196E4CF462F843038F47431D8
:1045C00028F4653018F4672F0C94262290E080E0E0
:1045D000089580E1089589EB90E00895EF92FF92AD
:1045E0000F931F93CF93DF93EC018A017C01E60EBA
:1045F000F71ECE01895B9C4FCE15DF0539F4DF91A4
:10460000CF911F910F91FF90EF900895C93BD10575
:1046100040F40E94DE31F80180830F5F1F4F219626
:10462000E8CFF8011082F9CFCF92DF92EF92FF929C
:104630000F931F93CF93DF937C016A018C01060FC8
:10464000171FEC01CE01895B9C4FC017D10749F4BD
:10465000DF91CF911F910F91FF90EF90DF90CF905E
:104660000895C93BD10540F4FE01EE19FF09EC0D98
:10467000FD1D60810E94EC312196E4CFCF93DF9342
:10468000C7E4D3E060E0CE010E94EC312196C11571
:1046900084E0D807B9F7DF91CF910895DF92EF92C8
:1046A000FF920F931F93CF93DF9300D000D0CDB72D
:1046B000DEB7F82E8FE08F1540F08FEF93E00E9469
:1046C000DE3107E413E08823C1F00F900F900F90C4
:1046D0000F90DF91CF911F910F91FF90EF90DF909E
:1046E0000895011584E0180781F3C8010E94DE31A6
:1046F000811101C0FA940F5F1F4FF110F2CF1982A0
:104700001A821B821C82DD24D39478018FEFE81A71
:10471000F80AC8010E94DE3189831A828823A9F22F
:104720009FEF980F933078F48A83D9820E5F1F4FE2
:10473000C7010E94DE318B83882339F2CE010196B6
:104740000E94BD0AE2CF8701F9CF54985C9A849801
:104750008C9A89B1829581707C990EC090E0892BEA
:104760008093DF029091040181E098279093DB020F
:10477000891B8093DA02089592E0F1CFCF93E09104
:10478000DF02EE0FEE0FE093DF0249B144FB882712
:1047900080F94FB144FB222720F944FF02C022E0F8
:1047A00030E0822BE82BE093DF02C091DB02EF7058
:1047B000F0E0E258FE4F80819091DE02890F8093F5
:1047C000DE0220E0843064F0EC2FF0E0E452FD4F94
:1047D00080818F5F808360E08C2F0E94960821E0AB
:1047E0008091DE028D3F64F4EC2FF0E0E452FD4F47
:1047F00080818150808361E08C2F0E94960821E0A7
:104800008091DE02082E000C990B64E070E00E949B
:104810009E318093DE02822FCF910895E091DB02DA
:10482000F0E0E452FD4F2081FC0120830895FF92C7
:104830000F931F93CF93DF93D091DA020D2F10E0E7
:1048400004521D4FFC01C081F8018081C81BFC2E61
:1048500080E01F147CF09C2FC7FD90E0C91BC111A4
:1048600014C08823E9F0DF91CF911F910F91FF9041
:104870000C943D14FA94F80180818F5F808360E08E
:104880008D2F0E94960881E0E4CFCF5FF8018081F0
:104890008150808361E08D2F0E94960881E0DFCFF8
:1048A000DF91CF911F910F91FF900895CF93DF93E8
:1048B000EB0186319C4511F50E94A5129A8199233E
:1048C00099F08A7A91E009F490E09093E0028111E6
:1048D00009C089E20E9480120E94E81280E0DF9104
:1048E000CF91089585E3F6CF8091E002811104C055
:1048F00089E20E948712F0CF85E3FBCF81E0EFCF02
:104900000F931F93CF93DF93C42FD22FFC0182818B
:104910008823C9F04093E3020E94AF299093E202FA
:104920008093E10280E28C0F883008F050C0C7709D
:1049300081E001C0880FCA95EAF7DF91CF911F91FE
:104940000F910C94110C1091E302141335C0809157
:10495000E1029091E2020E94C729883C910560F52E
:10496000C0E2CD0F1D17B9F080E2810F883040F40E
:10497000177081E001C0880F1A95EAF70E94180CA1
:10498000C83048F481E09D2F977001C0880F9A9538
:10499000EAF70E94110C802F0E94090CC830B8F46D
:1049A000D77081E001C0880FDA95EAF7DF91CF91E7
:1049B0001F910F910C94180C80E28C0F883038F402
:1049C000C77081E001C0880FCA95EAF7EFCFDF9189
:1049D000CF911F910F9108950F939C01CB01233F1D
:1049E0004CE5340759F1A8F4283DFCE53F0701F1F7
:1049F000293D4CE53407D1F1273D3C4591F406E2D1
:104A000021EE41EE67ED7CE50E94802480E00F916D
:104A10000895253FFCE53F07E9F0B0F0263F3C450F
:104A2000F9F0FC018281882339F11092E302EFCF83
:104A300007E225EE45EE68ED7CE5E6CF06E221EEE5
:104A400040EE63EF7CE5E0CF07E225EE44EE64EF55
:104A50007CE5DACF06E221EE42EE65EF7CE5D4CFCD
:104A600007E225EE46EE66EF7CE5CECF08E221E0D8
:104A700045EE69ED7CE5C8CF81E0C9CF1092B90061
:104A80008CE08093B80008959F92AF92BF92CF922E
:104A9000DF92EF92FF920F931F93CF93DF93B82E85
:104AA000EB010E94AF296C01EE24E394F12CC43198
:104AB000D10560F025E0E22EF12CCF3FDC0731F08C
:104AC000CE0164E170E00E948A317B0184EAA82E65
:104AD00094E8992E1092BC00A092BC000E94AF29CD
:104AE0008C018091BC0087FF0DC08091B900887F48
:104AF000883039F18091B900887F803111F10FEF52
:104B00001FEF09C00E94AF29801B910B8E159F05D6
:104B100040F30EEF1FEFCF3FDC07E1F2C6010E942A
:104B2000C7298C179D07B0F2C801DF91CF911F9163
:104B30000F91FF90EF90DF90CF90BF90AF909F903C
:104B40000895B092BB009092BC000E94AF298C01E6
:104B50008091BC0087FF0AC08091B900887F8831AE
:104B600011F0803461F610E000E0DECF0E94AF2942
:104B7000801B910B8E159F0558F3CBCF0F931F937E
:104B8000CF93DF93EB018093BB0084E88093BC005C
:104B90000E94AF298C018091BC0087FF11C0209139
:104BA000B900287F81E090E0283211F490E080E0A5
:104BB000919581959109DF91CF911F910F91089562
:104BC000CF3FDC0741F30E94AF29801B910B8C176C
:104BD0009D0708F38EEF9FEFEECFCF92DF92EF921B
:104BE000FF920F931F93CF93DF936B018A0179019B
:104BF000B9010E944425E6010C0D1D1DC017D10707
:104C000061F424E92093BC00DF91CF911F910F91B3
:104C1000FF90EF90DF90CF90089597FDF2CFB7010E
:104C200089910E94BE25EACFCF92DF92EF92FF9248
:104C30000F931F93CF93DF93C62F6A017901B801B9
:104C40000E94442597FD0CC0B8018C2F0E94BE2500
:104C5000E601EC0CFD1CCE15DF0511F097FF0CC032
:104C600024E92093BC00DF91CF911F910F91FF9019
:104C7000EF90DF90CF900895B80189910E94BE25F2
:104C8000EACF84E98093BC0008958EE14A9B02C07C
:104C90008150E1F74A9BFECF08955A9880E28A95A9
:104CA000F1F75A9A0895FC013BE03A95F1F798E044
:104CB00020E080E031E040E14A95F1F7880F4A9B1F
:104CC00002C08160232742E04A95F1F7000040E1ED
:104CD0004A95F1F7915079F790E19A95F1F799B1EA
:104CE00032E03A95F1F7000040E14A95F1F792FB86
:104CF000992790F992272081920F90830895EF923F
:104D0000FF920F931F93CF93DF930F92CDB7DEB730
:104D100019828C017C01E60EF11C0E151F0561F451
:104D200081E09981911180E00F90DF91CF911F91E7
:104D30000F91FF90EF9008950E944526CE010196B5
:104D40000E945326F80181938F01E7CF529A5A9A15
:104D5000089552985A9AEA9AE9E6F0E080818F7CA9
:104D6000808308956150770B91E001C0990F6A9597
:104D7000EAF720E031E0911108C0222391F05A9A1D
:104D800080E28A95F1F75A980895492F482339F01F
:104D90005A9A232740E24A95F1F79695ECCF5A9814
:104DA000F9CF5A98EDCFFF920F931F93CF93DF93D4
:104DB000EC018C01060F111DC017D10731F4DF91F2
:104DC000CF911F910F91FF900895F9900E944D2669
:104DD00068E08F2D0E94B226EFCF1F920F920FB680
:104DE0000F921124EF92FF920F931F932F933F93F3
:104DF0004F935F936F937F938F939F93AF93BF93E3
:104E0000EF93FF93CF93DF930F92CDB7DEB7198265
:104E10000E944526CE0101960E945326A82FA695F2
:104E2000A695A695282F229525709A2F9570290F63
:104E3000922F937026952695920F982797708981C7
:104E4000982B09F075C0A63008F072C080E18A95F1
:104E5000F1F75A9A529AB2E0BA95F1F700C05A980F
:104E6000EA2EF12CEAE0AE9FD0011124AB5FBE4FD9
:104E70001896ED91FC9119973097B1F060917401FB
:104E80007091750116962D913C911797260F371F3B
:104E900013968D919C911497680F791F15964C91DC
:104EA000159712968C9109958AE08E9DF0018F9D41
:104EB000F00D1124EB5FFE4F6581662351F02091C8
:104EC00074013091750186819781820F931F0E9432
:104ED000D3260E944D26F0E1FA95F1F75A985298A0
:104EE0005A9A80E18A95F1F78AE08E9D80018F9D24
:104EF000100D11240B5F1E4FD80112966C91129762
:104F0000662371F1209174013091750113968D9192
:104F10009C91820F931F0E947F26D801ED91FC91F6
:104F2000882311F088E001C082E080830E9445263A
:104F30000F90DF91CF91FF91EF91BF91AF919F9132
:104F40008F917F916F915F914F913F912F911F9121
:104F50000F91FF90EF900F900FBE0F901F9018953C
:104F6000ED91FC91DFCF0F931F93CF93DF93EC0173
:104F700006970CF0A9C08AE08C9FF0018D9FF00D80
:104F80001124EB5FFE4F80819181892B09F49CC035
:104F9000F894529A5A9885E08A95F1F700008C2F80
:104FA000869585709C2F9570890F982F93708695A4
:104FB0008695890F8E0193E0000F111F9A95E1F7F6
:104FC000082B0E944D2600C068E0802F0E94B22668
:104FD000A0E1AA95F1F752985A9A4A9B27C087E018
:104FE00090E04A9925C08AE08C9F80018D9F100D2A
:104FF00011240B5F1E4FF80165816623A1F12091FA
:1050000074013091750186819781820F931F0E94F0
:105010007F26811128C0529A5A9AD801ED91FC91AD
:1050200082E08083789482E090E016C000C0D5CF03
:105030000197B9F4529A5A9A8AE08C9FF0018D9F99
:10504000F00D1124EB5FFE4F0190F081E02D81E027
:105050008083789481E090E0DF91CF911F910F9150
:10506000089500C0BECF0E944526B0E2BA95F1F780
:105070005A98529AE0E1EA95F1F78AE08C9FF001A4
:105080008D9FF00D1124EB5FFE4F6281662351F07E
:10509000209174013091750183819481820F931F57
:1050A0000E94D3260E944D268AE08C9FF0018D9F9E
:1050B000F00D1124EB5FFE4F0190F081E02D108286
:1050C000789490E080E0C8CF84E090E0C5CF9093E2
:1050D0009F0180939E0108959093EA028093E902D4
:1050E00008950E949017811103C08091E4020895F1
:1050F000E091E902F091EA02309721F00190F0810D
:10510000E02D099480E008950E9471280895E091AF
:10511000E902F091EA02309721F00280F381E02D5C
:1051200009940895E091E902F091EA02309739F08C
:1051300022E0DC012C930480F581E02D0994089590
:105140002091E7023091E8022817390771F0909317
:10515000E8028093E702E091E902F091EA023097D9
:1051600021F00680F781E02D099408952091E50251
:105170003091E6022817390771F09093E602809388
:10518000E502E091E902F091EA02309721F0008413
:10519000F185E02D099408959C012E5F3F4FAC01ED
:1051A000485F5F4F80E02417350709F40895F9013F
:1051B00091919F019923B9F38F5FF5CF662349F051
:1051C000FC01329608962191261729F0E817F90775
:1051D000D1F780E0089581E008959C01FC013296AA
:1051E0009FEF80E04191461751F09F3F19F4411124
:1051F00001C0982F8F5F8630A9F79F3F09F408956B
:10520000290F311D97FD3A95F90162830895FC013C
:10521000329608962191261303C0DF0111971C9244
:10522000E817F907B9F708950C94ED280C940729AD
:10523000029626E0FC0111922A95E9F70895089557
:105240000C941F29811105C081E08093EB020C941E
:10525000202982E0FACF83E08093EB020C9420298E
:105260000C94222981E08093EB020C9420290C9469
:105270003229089580911005843031F10E94790916
:105280001092EC0288E190E020E40FB6F894A89523
:10529000809360000FBE2093600083B7817F84609D
:1052A00083BF83B7816083BF7894889583B78E7FEF
:1052B00083BF0FB6F894A8958091600088618093B1
:1052C0006000109260000FBE089508950895CF9376
:1052D0000E9465290E942C070E946629C0E08C2F3D
:1052E0000E945906811105C0CF5FC431C1F7CF912B
:1052F000089581E0FCCF0E94550E0C94E9091F929D
:105300001FB61F9211248F939F93AF93BF938091E9
:10531000EC02811113C08091080590910905A091BC
:105320000A05B0910B054196A11DB11D809308059A
:1053300090930905A0930A05B0930B05BF91AF9117
:105340009F918F911F901FBE1F90189582E084BD82
:1053500093E095BD9AEF97BD80936E0008952FB7A7
:10536000F8948091080590910905A0910A05B091E3
:105370000B052FBF08952FB7F89460910805709121
:10538000090580910A0590910B052FBF08959C0196
:105390004FB7F8948091080590910905A0910A05EE
:1053A000B0910B054FBF821B930B0895CF92DF92F4
:1053B000EF92FF922FB7F894C0900805D09009059E
:1053C000E0900A05F0900B052FBFA7019601261B60
:1053D000370B480B590BCA01B901FF90EF90DF90D2
:1053E000CF90089578941F921FB61F9211248F9327
:1053F0009F93AF93BF938091080590910905A09169
:105400000A05B0910B050196A11DB11D80930805F9
:1054100090930905A0930A05B0930B05BF91AF9136
:105420009F918F911F901FBE1F90189587E797E758
:10543000909301088093000888E19AE00FB6F894F1
:10544000A895809360000FBE90936000FFCF80917D
:10545000F5020895089508959C0184E08093E90081
:105460009FEF8091E800915085FD06C085ED8A95FB
:10547000F1F700009111F5CF8091E80085FF0CC095
:1054800050E040E066E070E0C9010E948C2C809101
:10549000E8008E778093E8000895CF93DF93EC01C6
:1054A00081E08093E9008FEF9091E800815095FDB5
:1054B00006C095ED9A95F1F700008111F5CF809126
:1054C000E80085FF14C050E040E068E070E0CE01E5
:1054D0000E948C2C8091E8008E778093E80088E011
:1054E000FE01ADEEB2E001900D928A95E1F7DF91F9
:1054F000CF9108950895CF93FC01603221F58091FA
:105500001005843001F5C091E900CF702091EC00C6
:10551000922F917020FD90E8C92B82E08093E900E2
:105520008091E80080FF0CC050E040E060E270E055
:10553000CF010E948C2C8091E8008E778093E80048
:10554000CF70C093E900CF91089580910F0581112C
:1055500009C00E946B2E0E94C82E8091E2008460D8
:105560008093E200089510920F0508950C9432295B
:1055700060910C0581E0611101C080E00C942B2941
:105580009091100581E0943009F080E060910C0565
:105590000C94302942E061EC81E00E94E72D42E268
:1055A00061EC84E00E94E72D42E261EC82E00E941F
:1055B000E72D42E260EC83E00E94E72D9091100518
:1055C00081E0943009F080E060910C050C94222970
:1055D00080911205833009F462C030F48130D9F132
:1055E000823009F49EC008958A3009F48AC08B3055
:1055F00009F470C0893009F051C0809111058132E1
:1056000009F04CC08091150590911605009719F08E
:10561000029709F043C08091E800877F8093E800FB
:105620008091E80082FF36C09091F3008091F200F3
:10563000029731F48091F100813011F0863021F42D
:105640008091F1008093F5028091E8008B77809340
:10565000E8000C941B2E80911105813AF9F4809199
:10566000E800877F8093E8008091150590911605EA
:10567000892B61F468E08DEE92E070E00E942A2DA3
:105680008091E8008B778093E800089560E090E0D7
:1056900080E0F3CF809110058111C2CF08958091F1
:1056A0001105813AD9F78091150590911605892B3E
:1056B000A9F78091E800877F8093E8008091E80057
:1056C00080FFFCCF809152018093F1008091E8002F
:1056D0008E77BDCF80911105813201F7809115053C
:1056E00090911605892BD1F68091E800877F8093F1
:1056F000E8000E941B2E80911305809352010C94A8
:10570000550E80911105813249F68091E800877F1E
:105710008093E8000E941B2E809114058093F6026E
:10572000089580911105813A09F0B8CF8091E80081
:10573000877F8093E8008091E80080FFFCCF809114
:10574000F602C2CF84B7877F84BF0FB6F894A895BE
:1057500080916000886180936000109260000FBEAD
:1057600080E890E00FB6F894809361009093610018
:105770000FBE0C9437290E946B2E0E94C82EE2EEB9
:10578000F0E080818460808378940C94513186E4C9
:1057900091E00C946C28809110058530A9F48091DB
:1057A0001005853011F00C947B290E943A298091D4
:1057B0000E058823A1F30E946729882381F30E94A4
:1057C000762C0E94550EEBCF0895CF93DF93CDB783
:1057D000DEB7A0970FB6F894DEBF0FBECDBF8091A5
:1057E0001005843009F583E08093E9008091E8009A
:1057F00082FF1AC08091E80090E085FF09C050E068
:1058000040E060E270E0CE0101960E94DB2C91E066
:105810008091E8008B778093E800992329F060E27B
:10582000CE0101960E94211DA0960FB6F894DEBF0E
:105830000FBECDBFDF91CF9108950C941F2C292F5F
:1058400033272330310521F168F42130310509F483
:1058500043C02230310509F444C090E080E030E0DC
:1058600020E026C02132310551F122323105A9F75D
:105870006330710590F7FB01EE0FFF1FEF56FE4FEF
:105880002081318162577E4FFB01808190E010C002
:1058900099278130910581F0009729F00297E9F668
:1058A000E1E8FAE002C0EFE9FAE0849190E09F01BC
:1058B000FA01318320830895E7E9FAE0F6CF6330F7
:1058C000710558F6660F771FFB01E956FE4F2081E0
:1058D000318189E090E0ECCF82E190E02EEF3AE078
:1058E000E7CF8BE590E023EA3AE0E2CF80E189BDA3
:1058F00082E189BD09B400FEFDCF8091D8008F7D83
:105900008093D8008091E00082608093E0008091D5
:10591000E00081FDFCCF0895AF92BF92CF92DF925D
:10592000FF920F931F93CF93DF936C01EB018A01DA
:105930000E943A2EF82E811123C00115110539F06D
:10594000F80180819181C81BD90BC80ED91EB12CDA
:10595000A12C2097A9F08091E80085FD22C08091BC
:10596000E8008E778093E80001151105A1F0F80199
:1059700080819181A80EB91EB182A08285E0F82EA7
:105980008F2DDF91CF911F910F91FF90DF90CF90DE
:10599000BF90AF9008950E943A2E8823D1F2F82E3E
:1059A000EFCFF60181916F018093F1002197FFEF16
:1059B000AF1ABF0ACECFAF92BF92CF92DF92FF92C3
:1059C0000F931F93CF93DF936C01EB018A010E9429
:1059D0003A2EF82E811123C00115110539F0F80176
:1059E00080819181C81BD90BC80ED91EB12CA12C66
:1059F0002097A9F08091E80085FD22C08091E80001
:105A00008B778093E80001151105A1F0F8018081E2
:105A10009181A80EB91EB182A08285E0F82E8F2D4B
:105A2000DF91CF911F910F91FF90DF90CF90BF90AA
:105A3000AF9008950E943A2E8823D1F2F82EEFCF2E
:105A40008091F100F60181936F012197FFEFAF1A6A
:105A5000BF0ACECFFC0180911705909118058617DB
:105A60009707A0F06115710529F49091E8009E77E1
:105A70009093E80090E06115710551F4911108C010
:105A80008091E80082FF34C080E00895BC01F2CF2D
:105A9000809110058823C1F18530C1F18091E80023
:105AA00083FD30C08091E80082FDEACF8091E8005C
:105AB00080FFE1CF8091F3002091F200382F611533
:105AC000710519F02830310558F091E02830310582
:105AD00009F090E02091E8002E772093E800CBCFEA
