:100000000C94DB020C9422030C9422030C947020B9
:100010000C9422030C9422030C9422030C942203CC
:100020000C9422030C9422030C9466280C943A2915
:100030000C94FF220C9422030C9422030C942203B0
:100040000C9422030C9422030C9422030C9422039C
:100050000C9422030C9472230C9422030C9422031C
:100060000C9422030C9422030C9422030C9422037C
:100070000C9422030C9422030C9422030C9422036C
:100080000C9422030C9422030C9422030C9422035C
:100090000C9422030C9422030C9422030C9422034C
:1000A0000C9422030C9422030C9422031F002000C2
:1000B0002100220001001A000800150017000100AD
:1000C0001600070009000A0001001B0006001900C5
:1000D00005000100E2008B002C002C00115F1E00C7
:1000E000350000000000000014002B00000000009C
:1000F0000000040039000000000000001D00E100C5
:10010000000000000000E300E0000000000000002C
:1001100027002600250024002300130012000C00F5
:1001200018001C0033000F000E000D000B003800FB
:100130003700360010001100650088008A002C008E
:10014000105F2D002E008900000000002F003000FD
:100150002A000000000034003200280000000000E7
:1001600087005200E50000000000500051004F00E1
:100170000000000001000100F400F50001001F0074
:100180002000210022000100010001000100010007
:100190000100010001000100010001000100010057
:1001A000010001000100010001000000000000004A
:1001B0001E0001000000000000000100010000001E
:1001C000000000000100010000000000000001002C
:1001D000010000000000000001000100010001001A
:1001E0000100270026002500240023000100010053
:1001F00001000100010001000100010001000100F7
:1002000001000100010001000100010001000100E6
:1002100000000000010001000100000000000100DA
:1002200001000100000000000100010001000000C9
:1002300000000100010001000000000001000100B9
:1002400001000100C25C0100010001000100C95C65
:100250000100010001000100C55C01000100010076
:100260000100C75C01000100010001000100010064
:10027000010000000000000001000100000000007B
:10028000000001000100000000000000010001006A
:10029000000000000000010001000000000000005C
:1002A0000100010001000100010001000100010046
:1002B0000100010001000100010001000100010036
:1002C0000100010001000100010001000100010026
:1002D0000100010001000100000000000100010018
:1002E000010000000000010001000100000000000A
:1002F00001000100010000000000010001000100F8
:1003000000000000010001000100010001000100E7
:1003100001000100010001000100010001000100D5
:1003200001000100010001000100010001000100C5
:1003300001000100010001000100000000000000B8
:1003400001000100000000000000010001000000A9
:10035000000000000100010000000000000001009A
:100360000100000000000000010001000100010088
:100370000100010001000100010001000100010075
:100380000100010001000100010001000100010065
:100390000100010001000100010001000100010055
:1003A0000000000001000100010000000000010049
:1003B0000100010000000000010001000100000038
:1003C000000001000100010000000000000000002A
:1003D000000000002A2B28000000000000000000A0
:1003E0000000000000000029000000002C1E342046
:1003F000212224342627252E362D3738271E1F206C
:100400002122232425263333362E37381F040506B0
:100410000708090A0B0C0D0E0F10111213141516F4
:100420001718191A1B1C1D2F3130232D35040506F2
:100430000708090A0B0C0D0E0F10111213141516D4
:100440001718191A1B1C1D2F3130354C00000000E5
:10045000000000000000000000000000000000009C
:10046000000000000000000000000000000000008C
:100470007E0F00D4FFFFFFC7000000781403680060
:1004800061006C00660063006C0069006600660035
:10049000000006036E003200000004030904090294
:1004A0005B00030100A0FA09040000010301010040
:1004B0000921110100012240000705810308000AFB
:1004C00009040100020300000009211101000122BA
:1004D0002200070582032000010705030320000115
:1004E000090402000103000000092111010001229A
:1004F00049000705840320000A12010002000000E1
:1005000008350321000100010200010660FF0961B6
:10051000A1010962150026FF0095207508810209D6
:1005200063150026FF00952075089102C00501099A
:1005300002A10185020901A1000509190129081577
:100540000025019508750181020501093009311561
:1005500081257F95027508810609381581257F95CB
:100560000175088106050C0A38021581257F950161
:1005700075088106C0C005010906A101050719E03B
:1005800029E7150025019508750181029501750877
:1005900081010507190029FF150026FF0095067542
:1005A0000881000508190129059505750191029535
:1005B0000175039101C011241FBECFEFDAE0DEBF49
:1005C000CDBF04B603FE27C08091B6029091B7025A
:1005D000A091B802B091B9028730904BA740B04BC0
:1005E000D1F41092B6021092B7021092B802109293
:1005F000B90214BE84B7877F84BF0FB6F894A8955C
:1006000080916000886180936000109260000FBE4E
:10061000E0E0F8E3099511E0A0E0B1E0E8E8F7E5F3
:1006200002C005900D92A436B107D9F722E0A4E6E6
:10063000B1E001C01D92A63BB207E1F70E947F170F
:100640000C948B2B0C940000F894E82FE295EF703B
:10065000F0E031A1282F2F7081E090E001C0880FD9
:100660002A95EAF7382B31A392A18095892382A39A
:1006700078940895F894E82FE295EF70F0E031A1B6
:10068000282F2F7081E090E001C0880F2A95EAF7AB
:10069000982F9095932391A392A1892B82A378946C
:1006A000089508950C94510308950C9454030895EB
:1006B000E82FF0E0E558FE4F8081089508950F93EC
:1006C0001F93CF93DF930E94941580910601809130
:1006D00006019AE0811190E0909391028AE0891BD3
:1006E00080939002CFE3D1E08E01F80181918F01D8
:1006F0000E943A03F1E009341F07B9F784E30E942E
:100700003A0386EC0E943A0386E60E943A0386E3A7
:100710000E943A0382E30E943A0384E30E943A0370
:1007200086EC0E943A0386E60E943A0386E30E9422
:100730003A0382E30E943A0389910E943A0381E0DE
:10074000C934D807C9F7EFE8F1E0ABE7B1E011929F
:100750001D9281E0E33AF807D1F78AE00E94431541
:100760000E944C07DF91CF911F910F910C949E1521
:10077000FF920F931F93CF93DF93CDB7DEB72A97E6
:100780000FB6F894DEBF0FBECDBF0E947A15F82ECB
:1007900060919102882309F451C08E010F5F1F4FB1
:1007A0008AE0F80111928A95E9F7862F90E0B80166
:1007B00085589E4F0E940116811123C080917A01B5
:1007C0008F5F80937A018630B8F1E0919002F0E07B
:1007D000E558FE4FD801CE010B9611921D92A81735
:1007E000B907D9F70E9452078F2D2A960FB6F894B1
:1007F000DEBF0FBECDBFDF91CF911F910F91FF9054
:10080000089510927A01A0919002B0E0A558BE4FD1
:100810009E01255F3F4FF12C4D91F80191918F0181
:10082000491731F0AD0141505109FA019083F82E7A
:100830000217130789F7D6CFF12CD4CF70E0655893
:100840007E4F8091900290E085589E4F0E94031643
:100850000E945703C9CF6F927F929F92AF92BF922F
:10086000CF92DF92EF92FF920F931F93CF93DF937C
:100870000FE811E04FE3C42E41E0D42EC0E0D1E0F8
:10088000D601AD906D018A2D0E942403B0EABA957D
:10089000F1F73AE3E32E31E0F32EF70130E020E008
:1008A000B12C4191A42FA295AF70B0E090968C919D
:1008B00090E04F7002C0959587954A95E2F780FDCC
:1008C00094C08D2F022E01C0880F0A94EAF7B82A2F
:1008D0002F5F3F4F2530310521F78A2D0E943A03C3
:1008E000E0EAEA95F1F7D8018C91B81609F47FC0D7
:1008F000BC9281E0C82B0F5F1F4FB4E4CB16B1E070
:10090000DB0609F0BDCF10E000E0AA24A394B12CCF
:1009100020E7C22E21E0D22EF70191907F01892D90
:100920000E942403F0EAFA95F1F7C501002E01C0F8
:10093000880F0A94EAF7782F682F6095E6E6F1E0D1
:100940008FE3682E81E0782ED0E03191D3012D9194
:100950003D01422F42954F7050E0DA0190968C9104
:1009600090E02F7002C0959587952A95E2F780FD5B
:1009700040C0872F832B381731F09F012150310958
:10098000D9018C93D1E0CE16DF06F9F6892D0E94AD
:100990003A03043019F0B0EABA95F1F7CD2B61F5BE
:1009A0000F5F1F4F0530110509F0B6CF609191021E
:1009B00070E065587E4F2C2F4AE08FE891E00E944E
:1009C00044150E94B803C11101C0C82F8C2FDF91BC
:1009D000CF911F910F91FF90EF90DF90CF90BF903C
:1009E000AF909F907F906F90089580E070CF80E0EF
:1009F00081CF862F8323BFCF80916B018093940199
:100A000080916C018093950180916D018093960196
:100A100080916E018093970180916F01809398017E
:100A2000BFCFCF93DF93FA016230710519F4223002
:100A3000310539F08FEF818381E090E0DF91CF9134
:100A400008951B9B33C02B9A239A47E050E02998C6
:100A5000EC01288130E0042E02C0359527950A94D8
:100A6000E2F720FF25C02B9A299A4150510978F7C7
:100A70002AE12A95F1F700C023982B9A118287E08A
:100A800090E02998299A23B123FBAA27A0F9B0E086
:100A9000AD01082E01C0440F0A94EAF72181242BEE
:100AA0002183019770F790E080E0C8CF2B98CCCFDE
:100AB0002B98DACF0F93CF93DF9300D000D0CDB730
:100AC000DEB71B828FEF8C8389838A83E0910001DC
:100AD000F09101010FEF22E030E0AE014F5F5F4F78
:100AE00062E070E0CE01039609958A810F900F9025
:100AF0000F900F90DF91CF910F910895219A239835
:100B00002B9A0895AF92BF92CF92DF92EF92FF920D
:100B10000F931F93CF93DF9300D000D0CDB7DEB7F4
:100B20005C016B017A0182E08B831FEF1C831983C8
:100B30001A83E0910001F09101010FEF22E030E013
:100B4000AE014F5F5F4F62E070E0CE010396099502
:100B50008A81F501808383E08B831C8319831A8348
:100B6000E0910001F091010122E030E0AE014F5F21
:100B70005F4F62E070E0CE01039609958A81F6012D
:100B8000808384E08B831C8319831A83E0910001A6
:100B9000F091010122E030E0AE014F5F5F4F62E073
:100BA00070E0CE01039609958A81F701808381E088
:100BB00090E00F900F900F900F90DF91CF911F91C9
:100BC0000F91FF90EF90DF90CF90BF90AF9008957E
:100BD000FB01893F910509F43FC028F4843F91054A
:100BE00098F481E057C08B3F910509F454C008F494
:100BF00045C08C3F9105A9F78281882309F459C02B
:100C000081E0809397022EC040919902845F910900
:100C100021E030E0B90102C0660F771F8A95E2F744
:100C2000CB0122812223A9F0842B80939902409149
:100C300098025091990260919A0270919B02809162
:100C40009C0290919D020E94A71A0E944C1A80E07B
:100C5000089580958423E9CF8281882331F081E053
:100C6000809396028093A601F2CF90919602191676
:100C70008CF4109296021092A601E9CF828188230B
:100C800029F08FEF8093960281E0ECCF909196024D
:100C900097FDEFCF08958281882321F08FEF809315
:100CA0009702F2CF9091970297FFF4CF109297029C
:100CB000E2CF909197021916CCF308950C947E051B
:100CC000CF93DF9300D00F92CDB7DEB78091A6010E
:100CD000882329F18091A7019091A8010196909312
:100CE000A8018093A7010197D1F480919602809387
:100CF0009C029091970290939D024091980250918E
:100D0000990260919A0270919B020E94A71A109218
:100D10009C0210929D021092A8011092A70180914E
:100D2000A4019091A5019C012F5F3F4F3093A50135
:100D30002093A40162E370E00E94FE2A892B89F5CA
:100D40000E945A05803319F581E08093A301AE011A
:100D50004F5F5F4FBE016E5F7F4FCE0103960E94D3
:100D600082056A81619560939A0279817195709389
:100D70009B028B8187FF0DC0409198025091990290
:100D800080919C0290919D020E94A71A02C010922D
:100D9000A3010E944C1A0F900F900F90DF91CF91FA
:100DA00008958091A3018823A1F3D1CF81E0089514
:100DB0000C94E80508950C94DA061F93CF93DF9303
:100DC00000D000D00F92CDB7DEB749835A836B8332
:100DD0003091A90189819A8131111DC06623B9F032
:100DE0002223A9F00E94670D182F682F89819A810C
:100DF0000E94100D69817A81812F0F900F900F90C2
:100E00000F900F90DF91CF911F910C94171E0E94AD
:100E10003E0D182FEFCF0E94670D69817A81EDCFCB
:100E2000FC01262F408151816281738184810C9461
:100E3000DD0681E00895CF93DF93EC0160E00E942E
:100E40001007BE01DF91CF910C94DB06E1E0F0E0EA
:100E5000DF0102C0AA0FBB1F6A95E2F7BD01DF01E7
:100E600002C0AA0FBB1F4A95E2F76A2B01C0EE0F22
:100E70002A95EAF7962F9823961302C08E2B089591
:100E8000E0958E230895242F462F682F8091D1015D
:100E90000E9426070C94CD0C0E9429150E94A208DE
:100EA0000C9452030C94550380E00E94A3080C9408
:100EB0006006089508950E94650C0E945A072FEF5E
:100EC00084E39CE0215080409040E1F700C00000A6
:100ED0000C9496230F931F93CF93DF938C0161E0C3
:100EE0000E941007EC01B8010E941D1B8823D9F154
:100EF000B801CE010E94D8068823A9F1B801CE011D
:100F00000E94761F882379F1B801CE010E94251C2A
:100F1000882349F1B801CE010E94E01E882319F10F
:100F2000F8018281882361F0CA35FDE5DF0721F1F0
:100F300070F4C115ECE5DE07A1F0CE3DDC45C9F04B
:100F4000C801DF91CF911F910F910C94D606CB353C
:100F50008DE5D807A1F0CC35DD4591F70E947A11D7
:100F6000EFCF0E945B0780E0DF91CF911F910F913F
:100F700008950E943312F7CF0E948311E1CF0E949F
:100F80008611DECF0C9459070E94F4210E94A30819
:100F90000C94C207DF92EF92FF920F931F93CF93AF
:100FA000DF93E82FF0E0E453FC4FD490282F2695F0
:100FB0002695269530E0F901E459FB4F049187709E
:100FC00010E0082E02C0159507950A94E2F701700B
:100FD0001127F901E45AFB4FE490F12C082E02C0CE
:100FE000F594E7940A94E2F791E0E922FF24F901ED
:100FF000E45BFB4FC491D0E002C0D595C7958A95BC
:10100000E2F7C170DD270115110519F081EE0E948C
:101010001809E114F10419F086EE0E9418098D2DCB
:101020000E94FD09EF2819F086EE0E949009012B1D
:1010300019F081EE0E949009CD2B51F08CE2DF91E6
:10104000CF911F910F91FF90EF90DF900C94FD09CD
:10105000DF91CF911F910F91FF90EF90DF90089556
:10106000EF92FF920F931F93CF93DF93EC01162F14
:101070000AE08881882309F454C0813009F04EC009
:101080008981813099F47E0122E0E20EF11C8A818F
:101090000E94FD09E7012196812F815050F3EFE96D
:1010A000FFE03197F1F700C00000F7CF823041F444
:1010B0007E0182E0E80EF11C8A810E941809EACFC5
:1010C000833041F47E01E2E0EE0EF11C8A810E9441
:1010D0009009E0CF843011F02196DDCF2A8122964D
:1010E00090E080E0AE014F5F5F4F2053330B2A301A
:1010F000310548F0019778F2EFE9FFE03197F1F719
:1011000000C00000F7CF089FB001099F700D1124A7
:10111000C901860F971F2981EA01E4CF0E94CA07FF
:10112000BACFDF91CF911F910F91FF90EF9008956B
:1011300060E00C94300808950C949B0881E00895B9
:101140000C949E080895CF93C82F0E949C088C2F62
:10115000CF910C94A008CF93DF93CDB7DEB72B9738
:101160000FB6F894DEBF0FBECDBF4F835887698797
:101170007A878B8761110E94D5101E821D8285E0BF
:10118000FE013796DE01119601900D928A95E1F7E6
:101190008C819D81892B89F449815A816B817C8165
:1011A0008D819E810E94F60F2B960FB6F894DEBFBC
:1011B0000FBECDBFDF91CF91089589819A81892398
:1011C0008F3F51F3CE0101960E9419078111E4CFA0
:1011D000EBCFFC01808191810C94940D0F931F93B0
:1011E000CF93DF9300D000D000D0CDB7DEB7082F6B
:1011F000162F0E94861A29834B835C836D837E831E
:10120000002399F0312B4981532F6B817C818D8193
:101210009E8126960FB6F894DEBF0FBECDBFDF913C
:10122000CF911F910F910C94A71A10953123EBCFFA
:10123000CF93C82F882309F471C08238C1F40E946B
:10124000F42181FD6BC089E30E9490100E94F81088
:101250002FEF81EE94E0215080409040E1F700C0F4
:10126000000089E30E949710CF910C94F810833806
:10127000A1F40E94F42180FD51C083E50E949010EA
:101280000E94F8102FEF81EE94E0215080409040B2
:10129000E1F700C0000083E5E5CF8438A1F40E94A7
:1012A000F42182FD3BC087E40E9490100E94F81058
:1012B0002FEF81EE94E0215080409040E1F700C094
:1012C000000087E4CFCF8CEF8C0F813A90F46C2F25
:1012D00080910401909105010E945E22882329F0EB
:1012E0008C2F0E9497100E94F8108C2F0E94901053
:1012F000BBCF80E28C0F883048F4C77081E001C01A
:10130000880FCA95EAF70E94B810AECFC03F30F000
:101310008C2F0E940F18CF910C94E218CF91089552
:10132000882309F452C0823871F40E94F42181FFAD
:101330004CC089E30E9490100E94F81089E30E943B
:1013400097100C94F810833859F40E94F42180FF10
:101350003CC083E50E9490100E94F81083E5EFCF17
:10136000843859F40E94F42182FF2FC087E40E9440
:1013700090100E94F81087E4E2CF9CEF980F913A0A
:10138000F0F290E2980F983050F4877091E001C02D
:10139000990F8A95EAF7892F0E94BE10D2CF9BE55C
:1013A000980F933020F490E080E00C94202298E590
:1013B000980F973120F490E080E00C943622803F23
:1013C00020F00E9469180C94E21808951F93CF939F
:1013D000DF93182FEB010E941809209731F4812F19
:1013E000DF91CF911F910C9490098FE99FE00197B5
:1013F000F1F700C000002197F0CF70E060E0893382
:1014000011F460E570E00C94E609882321F00E9455
:10141000B8100C94F8100895882321F00E94BE1093
:101420000C94F8100895BF92CF92DF92EF92FF9242
:101430000F931F93CF93DF936C01D62FC72FFC011F
:101440001281F580F2949FE0F9220E94AE10E82EFE
:101450008823B9F0E12E1123A1F08C2F807F8034F6
:1014600021F080E28D0F8830D0F08091A30282FDC0
:1014700016C082E00E9449110E94AE1091E0E82E51
:10148000E926BC2EB2948FE0B822FBE0FB1508F4ED
:1014900068C0EB2DF0E0E357F44D0C94122BE12CD7
:1014A000F0CF0C2F0F70C07F11F00295007F112339
:1014B00099F0002359F080E28D0F883010F0D1119F
:1014C00007C0802F0E94B8100E94F8108D2F41C0D5
:1014D000802F0E94C810F8CF8D2F0E949009002302
:1014E00009F43FC080E28D0F883010F0D11104C0A4
:1014F000802F0E94BE1003C0802F0E94CE100E9439
:10150000F8102FC00C2F0F70C07FC03211F0029561
:10151000007FDD2381F0D13009F46AC0112309F482
:1015200074C0FF2009F46AC0F601858180FFCECF28
:101530008F70858363C08091A30282FF39C011231D
:1015400059F0002329F0802F0E94B8100E94F81053
:1015500080E00E94180905C080E00E9490090111F6
:10156000C7CF2B2D2850330B2430310520F40E9497
:10157000F4210E94A308EE2009F44CC10E94AA1095
:1015800080FD48C1F60112820E94A4100E94DE0C68
:10159000C6010E942B0C0E94A410DF91CF911F91D5
:1015A0000F91FF90EF90DF90CF90BF900C94E90CDB
:1015B000112389F0F11006C00E94DB10802B0E94DD
:1015C000050ACFCF21E0F212F7CF0E94DB10802B6B
:1015D0000E94E110C6CFF11006C00E94EE10802FCD
:1015E0000E940C0ABECF31E0F31609F4BACFF5CF52
:1015F000112331F085E08F1508F4B3CF802FDFCFB2
:1016000094E09F1508F4ADCFEACFFF2041F3D93322
:1016100049F4FFEF27EE33E0F15020403040E1F78E
:1016200000C000008D2F0E9490099BCF8D2F1123A9
:1016300091F00E940F18ED2FE45FFF0BE530F105EC
:1016400068F461E070E001C0660FEA95EAF7812F67
:101650000E94EE0886CF0E946918EDCF0E94E21822
:1016600080CF8C2F837079F511117BCF4D2F429550
:1016700046954770440F440F8D2F8F70042E01C084
:10168000880F0A94EAF72D2F2071D4FF07C02FE0AE
:1016900030E001C0220F4A95EAF72095C695C6951D
:1016A000C370822BC23049F058F4C13019F00E9447
:1016B000BF0C57CF0E94BA0C54CF0E94C40C51CF1C
:1016C0000E94B80C4ECF8695112311F08C2F81709B
:1016D000882309F446CF4D2F429546954770440F15
:1016E000440F8D2F8F70042E01C0880F0A94EAF7E3
:1016F0002D2F2071D4FF07C02FE030E001C0220F52
:101700004A95EAF72095C695C695C370822BC230DC
:1017100049F058F4C13019F00E94050D22CF0E9403
:10172000000D1FCF0E940A0D1CCF0E94CD0C19CFB7
:10173000CF70112329F08C2F0E94DE0C8D2F3FCF0C
:101740008D2F0E940C0A8C2F0E94E90C0ACFD23FE9
:1017500051F160F4D03FB9F0D13F81F0112309F489
:1017600049C0F110B3CE8C2F8F7121C0D33F11F13E
:10177000D43FA1F78091A30282FF26C08C2F8F71E6
:10178000112311F314C0112349F0F4E0FF1508F4FC
:10179000E8CE8C2F8F710E94F50CE3CE25E02F153B
:1017A00008F4DFCEF6CF8C2F8F711111CDCF0E94B0
:1017B000DE0CD7CE112329F08C2F8F710E94D60C0E
:1017C000D0CE0E94D30CCDCE112349F0CF718C2FF7
:1017D0000E94DE0C63E08C2F0E942E11C2CE81E0AD
:1017E0000E94491131E03F1508F0BBCE82E00E9413
:1017F0004911B7CEFF2059F0D93309F013CF8FEF3D
:1018000097EEE3E081509040E040E1F709CF8C2F64
:101810008F719ACFDF91CF911F910F91FF90EF9031
:10182000DF90CF90BF9008950F931F93CF93DF93D6
:10183000EC01688179818A810E949E0D8C010E9451
:101840000F0D0E94B70CB801CE01DF91CF911F910F
:101850000F910C94130ACF93DF93EC018B819C8141
:10186000892B29F08881998189238F3F59F4DF9151
:10187000CF910895CE010E94140CCE01DF91CF913B
:101880000C941B07CE010E946A078111F3CF0E94BE
:10189000AE10882361F38A81882349F38091A302E3
:1018A00082FDE5CF82E0DF91CF910C9449110E9437
:1018B000D5100E94D8100E94F8100E94091A0C94AA
:1018C000E2180E949E100C94570C0E94C5100C94B4
:1018D000610CE92FE295EF70E250EE3070F4F0E029
:1018E000E756F44D0C94122B803F19F020F4883EFB
:1018F00020F481E00895843FE1F380E00895883E7C
:10190000C0F3813FD1F7F5CF93FB882780F9089585
:10191000FC01808191810E94940D0C94690CCF93FD
:10192000DF9300D000D00F92CDB7DEB70F900F90AD
:101930000F900F900F90DF91CF910895CF93DF9389
:1019400000D000D000D0CDB7DEB726960FB6F89401
:10195000DEBF0FBECDBFDF91CF91089508950C94E7
:10196000AE0C0E94AF0C8093D2010C94570C0895DA
:101970000C94B10C9091D201892B0C94B10C9091E4
:10198000D20189230C94B10C9091D20189270C9437
:10199000B10C0C94AE0C0C94C90C0E94CB0C80932F
:1019A000D1010C94570C80E00C94CD0C91E001C057
:1019B000990F8A95EAF7892F0C94CD0C21E030E03D
:1019C00001C0220F8A95EAF78091D101822B0C94F5
:1019D000CD0C21E030E001C0220F8A95EAF7209576
:1019E0008091D10182230C94CD0C21E030E001C024
:1019F000220F8A95EAF78091D10182270C94CD0CB1
:101A00009091D101892B0C94CD0C9091D101892317
:101A10000C94CD0C9091D10189270C94CD0C089594
:101A2000E92FEE0FEE0F9E0F890F982F977041E070
:101A300001C0440F9A95EAF786958695869593E0BE
:101A4000899FF0011124E655FE4F30E020E070E060
:101A50005191DF011197CB01022E02C09695879517
:101A60000A94E2F7817081958527842385278C93DA
:101A70002F5F3F4F2330310559F70895E92FEE0FBF
:101A8000EE0F9E0F890F982F9770869586958695F5
:101A900023E0829FF0011124E655FE4F50E040E024
:101AA00080E0219130E0092E02C0369527950A94F6
:101AB000E2F721703327042E01C0220F0A94EAF7BF
:101AC000822B4F5F5F4F4330510559F70895CF92F6
:101AD000DF92FF920F931F93CF93DF936C010091DE
:101AE000D1018091D201082BC7E0D0E010E0FC2E9C
:101AF000C8010C2E02C0959587950A94E2F780FDE7
:101B00000CC02197A0F7F12C8F2DDF91CF911F9161
:101B10000F91FF90DF90CF900895B6018C2F0E9417
:101B2000F013019771F3F0CFCF93DF93EC010E9494
:101B3000670DBE01DF91CF910C94F0131F93CF93EB
:101B4000DF93EB019091A901992331F0CB01DF9153
:101B5000CF911F910C94940D882379F0CB010E94B2
:101B6000670D182F682FCE010E94100DBE01812F26
:101B7000DF91CF911F910C94F013CB010E943E0D89
:101B8000182FF4CF1F93CF93DF93C091D30116E0AA
:101B90008091D4018C1304C0DF91CF911F910895DF
:101BA000D0E01C9FF0011D9FF00D1124EB52FE4F61
:101BB0004081518162817381848195810E949E0C54
:101BC0002196C770E5CF40910502509106026091C1
:101BD0000702709108028091090290910A020C9408
:101BE0009E0CFF920F931F93CF93DF9380910A0275
:101BF000807FD1F4809107028823B1F08091D301D6
:101C00001091D4016091050270910602A091080222
:101C1000B0910902062F0723C0910201D091030160
:101C200096E0F92E181306C0DF91CF911F910F9106
:101C3000FF90089590E0109711F00F3F19F401966E
:101C40008770F0CFF89E9001F99E300D1124F901B4
:101C5000EB52FE4F41814713F2CF40814613EFCF45
:101C600042814111ECCF438154814A1B5B0B4C17DD
:101C70005D0728F780910A028F70806180930A02C5
:101C8000F901E652FE4F80818F708061808385E08C
:101C900092E00E942B0CDF91CF911F910F91FF904A
:101CA0000C94C20DAF92BF92CF92DF92EF92FF924F
:101CB0000F931F93CF93DF93CDB7DEB761970FB626
:101CC000F894DEBF0FBECDBF8C0185E0F801DE01C8
:101CD0001D9601900D928A95E1F7F801E28085E06A
:101CE000C82E82E0D82E6091080270910902611519
:101CF000710509F45FC19091050220910602892FB8
:101D000082238F3F09F456C140815181A380B48062
:101D1000F0900702F501E61BF70BBF01E09102010D
:101D2000F0910301FF2009F4F6C080910A02382FD8
:101D3000307F6E177F0708F0AFC0311179C0FE2CDD
:101D4000251323C0941321C0E1101FC08F70806140
:101D500080930A020E94E30DC6010E942B0C809121
:101D60000A02F80185838F2D61960FB6F894DEBFC5
:101D70000FBECDBFDF91CF911F910F91FF90EF90DC
:101D8000DF90CF90BF90AF900895AB2829F0842FBB
:101D900085238F3F09F027C180E0F82FF170DF2EF7
:101DA00080FF3CC08091D3012091D40136E08213A2
:101DB00015C04D875E878D859E850E94940D292FC5
:101DC00022952F702230F0F0243018F59F70F1F03A
:101DD000F8019581907FD1F4D12C1EC090E0389FFE
:101DE000F001399FF00D1124EB52FE4F6181651314
:101DF00006C06081641303C062816E110FC001963A
:101E00008770D5CF9F7011F0882331F3805E8830C2
:101E100018F3C8010E942B0CFD2CA5CFEE2009F46D
:101E2000A2CF80910A02816080930A02F12C9BCF9D
:101E3000251306C0941304C0F801EE2009F487C0EE
:101E4000C8010E94880C882319F1EE2009F18091C5
:101E50000A02803270F02091050230910602388724
:101E60002F831986BB86AA868C87CE0107960E948F
:101E70002B0C86E0F801A5E0B2E001900D928A9566
:101E8000E1F70E94F10D0E94E30DFF24F3946BCF64
:101E9000C8010E942B0CF9CF311113C07A2DB98AD9
:101EA000A88A6E2D89890E948F0C85E092E00E949D
:101EB0002B0C86E0F60111928A95E9F70E94E30D5A
:101EC000B5CF25130FC094130DC0E1100BC0F8015E
:101ED0008583C8010E942B0C86E0F60111928A9539
:101EE000E9F741CFC8010E94880C882389F2EE20CF
:101EF00079F280910A02803208F4BBCF209105026A
:101F0000309106023A8329831B82BD82AC828E8384
:101F1000CE010196ACCF6E177F0708F03EC0FE2CB5
:101F2000EE2009F4B5CF25132AC0941328C0809160
:101F30000A0280FD1BC0982F907FC1F0F8018583B5
:101F4000903F31F0982F907F905F8F70892B858321
:101F5000C8010E942B0C86E0F801A5E0B2E00190D8
:101F60000D928A95E1F70E94E30DFDCE86E0F8011F
:101F7000A5E0B2E001900D928A95E1F7F4CEC80198
:101F80000E94880C811175CF80910A028160809334
:101F90000A02C8010E942B0CE6CE7A2DB98AA88AC3
:101FA0006E2D89890E948F0C86E0F60111928A9528
:101FB000E9F7D9CFEE2009F46BCFC8010E94880C55
:101FC000F82E882309F464CF86E0F801A5E0B2E09A
:101FD00001900D928A95E1F785E092E00E94E90870
:101FE0000E94F10DC0CF81E08E25D7CE1F93CF93F5
:101FF000DF93CDB7DEB72C970FB6F894DEBF0FBED8
:10200000CDBF4F83588769877A878B879C87CE019E
:1020100007960E94520E882369F08A859B85892B3A
:1020200039F04F815885842F85238F3F09F071C087
:1020300016E05FC086E0FE013796DE011196019042
:102040000D928A95E1F78A859B85892B89F38F818B
:10205000988589238F3F61F32091D40130E0C90135
:102060000196877099274091D3014817190671F49A
:102070000E94650C1092D4011092D30186E0E5E035
:10208000F2E0DF011D928A95E9F7D2CF96E0929FA8
:10209000D001939FB00D1124AB52BE4FFE0131967B
:1020A00001900D929A95E1F78093D4010E94C20DA0
:1020B000BFCF819FC00111248B529E4F0E94520EB0
:1020C0008823E9F0E091D3011E9FF0011124EB5227
:1020D000FE4F4081518162817381848195810E948C
:1020E0009E0C8091D30190E0019687709927809390
:1020F000D3018091D3019091D4018913DACF2C962A
:102100000FB6F894DEBF0FBECDBFDF91CF911F9108
:10211000089569857A858B859C850E949E0C88CF61
:10212000682F80910401909105010C949422682FEE
:1021300080910401909105010C94962280910401F4
:10214000909105010C94982280910B0285958595BC
:102150008595089580910B028770089590910B02E8
:10216000977081E009F480E0089580911702089546
:1021700090911702892B8093170208958095909172
:10218000170298239093170208951092170208954A
:1021900090911602892B8093160208958095909154
:1021A000160298239093160208951092160208952D
:1021B00010921502089580910C02089508950C94D0
:1021C000DE109091A30292FD08C090910C02981726
:1021D00021F080930C020C94DF10089580910C0282
:1021E000882329F010920C0280E00C94DF100895EF
:1021F000E0910401F0910501809117028083E09144
:102200000401F0910501808190911602892B808351
:10221000E0910401F0910501808190911502892BD4
:10222000808390910C02992381F0E0910401F09158
:1022300005018081892B80838091040190910501A3
:102240000E944C2281110E94EE1080910401909115
:1022500005010C94072208950C942B119091A30270
:1022600092FD10C098E0899F90011124622B609329
:102270000B020E94DE0C80910B0285958595859559
:102280000C942C110C94DE0C10920B0280E00C9438
:102290002C1190910B028095892380930B02282F9B
:1022A000277091F4282F082E000C330B9217130679
:1022B00059F09091A30292FD07C08595859585956B
:1022C0000E94E90C0C94441108959091A30292FB92
:1022D000222720F9281769F080FB92F99093A30236
:1022E0008091A2029091A3020E94B01182E00C940E
:1022F000491108958091A30282FB882780F991E01B
:1023000089270C94651181E00C94651180E00C9490
:1023100065116FEF7FEF90E080E00C94752B90E0FB
:1023200080E00E94512B893E9E4F11F40C94C61AF6
:1023300080E0089582E090E00C94492B83E090E0E7
:102340000C94492BCF9384E090E00E94492BC82F36
:1023500082E290E00E94492B982F8C2FCF91089514
:10236000CF93C92F682F84E090E00E94572B6C2FE9
:1023700082E290E0CF910C94572BAB01BC018FE02F
:1023800090E00C94692BAB01BC0183E190E00C94CC
:10239000692B60E070E0CB010C94C31160E070E049
:1023A000CB010E94BD110C94C91169EE7EEF90E043
:1023B00080E00E94752B60E082E090E00E94572B45
:1023C00060E083E090E00E94572B1092D20160E021
:1023D00084E090E00E94572B60E082E290E00E944F
:1023E000572B60E085E090E00E94572B60E086E08C
:1023F00090E00E94572B6FEF87E090E00E94572BF0
:1024000040E050E0BA0188E090E00E94692B60E073
:102410008DE090E00E94572B40E050E0BA0188E147
:1024200090E00E94692B60E087E190E00E94572BCA
:1024300040E050E0BA018CE190E00E94692B70E02E
:1024400060E080E290E00E94752B40E050E0BA012D
:1024500088E190E00E94692B80E00E94DF1A0E94D0
:10246000051B0C94CE110C94D511682F8EE090E0D2
:102470000C94572B0E943B236093310270933202DD
:10248000809333029093340260932D0270932E0256
:1024900080932F0290933002089585B7806885BF9E
:1024A00085B7806885BF0895089508950C945412E7
:1024B00008950C9458120E944D128FE095E10E94ED
:1024C000EA210E9455120C9456120C947A15089524
:1024D00008950E9467120C9468120E9426230E949D
:1024E000CE140E94141B0E945F030E940D1C0E94C8
:1024F0005E060C945912AF92BF92CF92DF92EF9288
:10250000FF920F931F93CF93DF93CDB7DEB72A9738
:102510000FB6F894DEBF0FBECDBF0E942B04811111
:102520000E943A1289E1A82E82E0B82E10E000E065
:10253000C02E802F0E945803E82EF501F1905F0114
:10254000F81609F44FC08091350281FD0E945E03A8
:102550008F2D8E25D12CFF24F394982F9F21E9F104
:102560000E946512882399F0DE82CF82EF2081E0FD
:1025700009F480E088870E942F238160782F9A8752
:1025800089874E815F8168858A850E94AB08F80142
:10259000E75EFD4F8081F826F0820E94FD180E94C0
:1025A00060060E94F42190911802891791F10E940F
:1025B000F421809318022A960FB6F894DEBF0FBE5E
:1025C000CDBFDF91CF911F910F91FF90EF90DF90E2
:1025D000CF90BF90AF900C94A308D394FF0CF5E07C
:1025E000DF12BBCF0F5F1F4F0431110509F0A0CFE1
:1025F0008FEF89838A831B820E942F238160782F2B
:102600009D838C8349815A816B818D810E94AB08A7
:10261000C4CF2A960FB6F894DEBF0FBECDBFDF91B0
:10262000CF911F910F91FF90EF90DF90CF90BF90CF
:10263000AF900895CF93DF930E94F413EC018115BE
:1026400022E5920778F5811531E5930708F098C0E7
:102650008F3F910509F0B8F4803F910508F06FC0F5
:10266000853A910540F48430910548F4019739F09A
:10267000D0E0C0E004C0805E91090897C8F7CE01A1
:10268000DF91CF910895811540E5940708F05CC073
:10269000C11580E4D80708F054C0C11590E2D907ED
:1026A00070F3E6CF811526E5920718F5811535E51B
:1026B000930708F07DC0811544E5940708F073C0C6
:1026C000982F969596959E0123703327C115D34573
:1026D00008F45BC0C1E0D0E002C0CC0FDD1F2A953A
:1026E000E2F730E2939FC0011124C82BD92BDA689E
:1026F000C6CFC1159AE5D90778F4C11529E5D207E7
:1027000008F060C0C11538E5D30708F4B1CFDC2F5D
:10271000CC27C06FD06AB3CFCE01905681159042BE
:1027200008F0A6CF8D2F8F710E948B1490E0982F08
:10273000882788279F719C012C2BE90141C0D06517
:102740009ECFDF70D06A9BCFE4E096958795EA959F
:10275000E1F783702C2F26952695237090E2299F10
:1027600090011124382B8C2F8370C1E0D0E002C07F
:10277000CC0FDD1F8A95E2F7C22BD32BDC687FCF0D
:10278000D82FCC27C16FD06A7ACFC1E0D0E002C089
:10279000CC0FDD1F2A95E2F720E2929FC0011124A1
:1027A000C82BD92BEBCFD82FCC27C46FD06A67CFDB
:1027B0000E948B14C82FD0E0DC2FCC27CC27DF71F0
:1027C000D0625DCF8C2F8F700E948B1434E0D69531
:1027D000C7953A95E1F7CF709C2FEC01D0694FCFA8
:1027E0000E94171E0C941A1382389105B1F1B0F4AF
:1027F0008133910509F475C048F48932910509F4D3
:1028000069C08A32910509F473C008958533910532
:1028100009F459C08933910501F10895833E91056A
:10282000A9F138F4803E9105F9F0823E910549F115
:102830000895863E9105A9F1873E9105C9F1843E30
:10284000910519F52091A30221FF1FC08091A202DA
:1028500084FD14C087EE90E008952091A2022370B9
:10286000A1F080EE90E008952091A20220FD47C0E3
:102870003091A30230FF09C024FF44C090E080E003
:1028800004C02091A20222FDF7CF08952091A20258
:1028900022FD3BC03091A30230FDE3CF24FFF5CFF2
:1028A000EDCF2091A20223FFF0CF24FDE7CFD2CFBE
:1028B0002091A20223FD2CC03091A30231FFEECF64
:1028C00084EE90E008952091A20225FFDECF89E2F8
:1028D00090E008952091A20225FFD7CF85E390E0F4
:1028E00008952091A20226FFD0CF8AE290E00895B9
:1028F0002091A20226FFC9CF81E390E0089589E3E9
:1029000090E0089583EE90E0089582EE90E00895BF
:1029100086EE90E008959091A20292FF06C0282FC3
:1029200028712830F9F4877F846093FF06C0282F30
:1029300028712831F1F4877E84612091A30220FF61
:1029400006C0382F38713830D9F4877F816021FF75
:1029500006C0282F28712831D1F4877E816194FD2B
:10296000877E0895282F24712430F9F68B7F8860A4
:10297000DCCF282F2471243101F78B7E8861DDCFD5
:10298000382F3171313019F78E7F8860E0CF282FD2
:102990002171213121F78E7E8861E1CF10929E0254
:1029A00010929F021092A0021092A1020895CF925D
:1029B000DF92EF92FF926B017C010E947A158111E8
:1029C0000EC00E943B23C61AD70AE80AF90AC09231
:1029D0009E02D0929F02E092A002F092A102FF908C
:1029E000EF90DF90CF9008950F931F930E947A1578
:1029F000882321F01F910F910C943B230E943B23CD
:102A000000919E0210919F022091A0023091A1029C
:102A1000600F711F821F931F1F910F91089580E017
:102A200008950C9489110E942B048FE39CE901976F
:102A3000F1F700C000000E942B0480E00E945803C0
:102A400080FF04C00E9411150C94962308950C94E5
:102A500013150E948F11811102C00E9433120E942F
:102A60009A11809335020E94A2119093A302809341
:102A7000A2020E9427150E949E110E94B80C80910C
:102A8000D1010C94CB0C0895FF920F931F93CF9319
:102A9000DF93F82E092F162FD72FC42F222349F0AA
:102AA00081E0809338020E942F2390933702809315
:102AB0003602809138028823A1F0809136029091ED
:102AC00037020E944723059760F0EF2DF02FA12FCA
:102AD000BD2FCE0FDF2FD11DEC17FD0741F4109253
:102AE0003802DF91CF911F910F91FF90089581914E
:102AF0008D93F2CF80913902811107C00E94F12A93
:102B0000882351F081E08093390281E0909139026D
:102B1000913009F080E0089582E0809339020E94AC
:102B2000EC2AF3CF0C947A150E949215809306013B
:102B30000E947A1581110C94AC1508950E947A15A3
:102B4000811102C00C94AE15089581E090913A0273
:102B50009A3008F080E008950C9429200C942C20E1
:102B6000EF92FF920F931F93CF93DF937901C82FBA
:102B7000880FDD0B41155105A9F08AE08C9FF0010B
:102B80008D9FF00D1124E95FFE4F83819481855C58
:102B90009D4F228130E04217530708F49A01A901A2
:102BA0000E94402BCE010E943621892B11F5011580
:102BB0001105E9F08AE08C9FF0018D9FF00D112442
:102BC000E95FFE4F458150E00417150708F4A8019E
:102BD0008AE08C9FF0018D9FF00D1124E95FFE4F7C
:102BE00066817781655C7D4FC7010E94402B81E043
:102BF00001C080E0DF91CF911F910F91FF90EF9086
:102C000008950C941D170C9439170F931F93CF93AD
:102C1000DF9300D000D0CDB7DEB760915C02709139
:102C20005D0280915E0290915F020E94562311E046
:102C3000643671058105910518F10E94F4146E5FE8
:102C40007F4F8F4F9F4F69837A838B839C8310E0E4
:102C500000E030E020E044E050E0BE016F5F7F4FD5
:102C600082E00E94B015182F882351F00E943B2368
:102C700060935C0270935D0280935E0290935F02AA
:102C8000812F0F900F900F900F90DF91CF911F9198
:102C90000F910895AF92BF92CF92DF92EF92FF9281
:102CA0000F931F93CF93DF93CDB7DEB72B970FB65C
:102CB000F894DEBF0FBECDBF7B01C0905301D09012
:102CC000540101E010E09E01255F3F4F50E040E0DD
:102CD00070E060E080E00E94B015182F882309F4AE
:102CE00048C056018FEFA81AB80A60915802709137
:102CF000590280915A0290915B020E9456236436D9
:102D000071058105910568F10AE010E09E012F5FD1
:102D10003F4F50E040E070E060E081E00E94B0157D
:102D2000D82E6AE070E0C5010E940E1C11E09B8560
:102D3000981310E01D2141F10E943B23609358023B
:102D40007093590280935A0290935B028AE0FE01CD
:102D50003196AEE4B2E001900D928A95E1F711E070
:102D600013C06AE070E0C5010E940E1C9B858913A8
:102D7000CBCF8AE0F6013196DE01119601900D92DB
:102D80008A95E1F71111E2CF8AE0EEE4F2E0D70193
:102D900001900D928A95E1F7812F2B960FB6F8944A
:102DA000DEBF0FBECDBFDF91CF911F910F91FF907E
:102DB000EF90DF90CF90BF90AF900895AF92BF9209
:102DC000CF92DF92EF92FF920F931F93CF93DF93F7
:102DD0007C015B016A010E94A51501E010E08823D7
:102DE00011F00AE010E0C1E0D0E0F894B501C701AD
:102DF000F60109957894811104C021960C171D07DE
:102E00005CF4DF91CF911F910F91FF90EF90DF90D5
:102E1000CF90BF90AF900895CC9F9001CD9F300D83
:102E2000300D112490E080E045E34A95F1F7000071
:102E3000019682179307C1F7D8CF0F931F93CF93B3
:102E4000DF93EC018B014AE456E10E94DE168823F1
:102E500051F045E056E1B801CE01DF91CF911F91CD
:102E60000F910C94DE1680E0DF91CF911F910F91AE
:102E700008950F931F93CF93DF93F894C09153015C
:102E8000D0915401CE0101962AE0FB01DC010190B2
:102E90000D922A95E1F76AE070E00E940E1C88838B
:102EA0007894F8946B857C858D859E8500914A0287
:102EB00010914B0220914C0230914D026017710726
:102EC0008207930751F060934A0270934B028093FC
:102ED0004C0290934D020E94D7147894DF91CF91C9
:102EE0001F910F9108950E943B250E946D120C9432
:102EF00047250E944B250E947B120C9465250E9459
:102F0000B9220E9422250E945B120E9473170E9420
:102F100079170E946912FBCF8091660280FF12C070
:102F200060912A0185E0689FB0011124759567952D
:102F30007595679560387105A8F561157105A1F162
:102F4000862F089581FF09C060912A0185E0689F5E
:102F5000B001112475956795EDCF60912A0182FD2E
:102F60000AC0809165028823D1F090912901609177
:102F70002A01891728F085E0689FB0011124DACF73
:102F8000869FB001112485E0869F9001879F300DB8
:102F90001124692F70E0C9010E94FE2ACBCF65E0A1
:102FA00070E0CECF8FE7089581E0089580916602AA
:102FB00080FF0CC06091260170E07595679575954E
:102FC00067956115710549F1862F089581FF06C047
:102FD0006091260170E075956795F3CF60912601A9
:102FE00082FD0BC0909164029923A1F060912501AC
:102FF00080912601961738F0682F70E060387105CF
:1030000000F38FE70895899FC001112470E00E94AA
:10301000FE2AF4CF61E070E0D7CF81E00895803FD1
:1030200031F40E948C17819580936A020895813F44
:1030300019F40E948C17F8CF823F31F40E948C174C
:103040008195809369020895833F19F40E948C173B
:10305000F8CF893F29F40E94D61780936B02089518
:103060008A3F21F40E94D6178195F7CF8B3F31F428
:103070000E94D617819580936C0208958C3F19F4B5
:103080000E94D617F8CF9CE0980F953070F4845FBB
:10309000990B21E030E001C0220F8A95EAF7809178
:1030A0006802822B8093680208958D3F31F48091ED
:1030B000660281608093660208958E3F21F48091BC
:1030C00066028260F7CF8F3FB9F780916602846015
:1030D000F1CF40916902803F59F480916A0287FFE5
:1030E0000DC010926A0241110BC01092650208C017
:1030F000813F81F480916A0218169CF3442381F089
:1031000080916B0290916C02892B09F05AC0109249
:1031100064020895823F49F447FFF0CF109269029C
:1031200080916A028111ECCFE0CF833F19F414162D
:10313000ACF3E4CF90916B02893F29F41916F4F6B1
:1031400010926B02DBCF8A3F19F497FFD7CFF8CFED
:1031500090916C028B3F29F497FFD0CF10926C02B4
:10316000CDCF8C3F19F41916CCF3C8CF9CE0980F43
:10317000953090F4845F990B21E030E0B90102C0F2
:10318000660F771F8A95E2F7CB01809590916802D0
:10319000892380936802B2CF8D3F31F4809166021B
:1031A0008E7F80936602AACF8E3F21F480916602C3
:1031B0008D7FF7CF8F3F09F0A1CF809166028B7F83
:1031C000F0CF08950E942F239C0190916902809175
:1031D0006A02982B21F0309363022093620290914F
:1031E0006B0280916C02982B21F030936102209346
:1031F000600287E692E00C941222EF92FF920F9306
:103200001F93CF93DF9300D000D000D0CDB7DEB7AF
:1032100086E0E7E6F2E0DE01119601900D928A95D4
:10322000E1F7E0906902F0906A0200916B02109160
:103230006C021092690210926A0210926B02109254
:103240006C028E2D8F2991F0809162029091630221
:103250000E944723AC0190916502992309F43FC075
:1032600080912B018417150608F447C0802F812B0D
:1032700091F080916002909161020E944723AC011D
:1032800090916402992309F477C0809127018417F3
:10329000150608F47FC08091690290916A02892B1B
:1032A00090916B02892B90916C02892B11F00E94F6
:1032B000E21886E0FE013196A7E6B2E001900D9299
:1032C0008A95E1F726960FB6F894DEBF0FBECDBF04
:1032D000DF91CF911F910F91FF90EF900895209172
:1032E0002C018AE0289F900111242417350708F04B
:1032F000BDCF9F5F9093650202C09F3FD1F7EE2044
:1033000059F00E948C179FEF1E140CF491E0899FD6
:10331000802D112480936902FF2059F00E948C17A0
:103320009FEF1F140CF491E0899F802D112480934E
:103330006A0230916902332309F498CF20916A021E
:10334000222309F493CF45EB3403C00111249923C0
:1033500059F09093690245EB240390011124332323
:1033600039F030936A0282CF81E080936902F3CF13
:1033700081E080936A027ACF209128018AE0289F19
:10338000900111242417350708F085CF9F5F909393
:10339000640202C09F3FD1F7002359F00E94D61764
:1033A0009FEF10160CF491E0899F802D11248093DB
:1033B0006B02112359F00E94D6179FEF11160CF4DF
:1033C00091E0899F802D112480936C0230916B02D3
:1033D000332309F460CF20916C02222309F45BCFE0
:1033E00045EB3403C0011124992359F090936B02EB
:1033F00045EB240390011124332339F030936C0200
:103400004ACF81E080936B02F3CF81E080936C021E
:1034100042CF86E0E7E6F2E0DF011D928A95E9F708
:103420001092650210926402109266020895EF9263
:10343000FF920F931F93CF93DF93CDB7DEB72C97F7
:103440000FB6F894DEBF0FBECDBF49835A836B839E
:103450007C838D839E83EF82F88609871A872B876A
:103460003C8746E050E0BE01695F7F4FCE01019688
:103470000E94332B21E0892B09F420E0822F2C9627
:103480000FB6F894DEBF0FBECDBFDF91CF911F9175
:103490000F91FF90EF900895EF92FF920F931F937B
:1034A000E0906D02F0906E0200916F021091700238
:1034B0002091710230917202409173025091740216
:1034C00060917502709176028091770290917802F6
:1034D0000E94171A882321F083E792E00E941222AB
:1034E0001092750210927602109277021092780272
:1034F00086E0E3E7F2E0ADE6B2E001900D928A9556
:10350000E1F71F910F91FF90EF900895CF93DF9314
:1035100000D000D000D0CDB7DEB786E0E3E7F2E020
:10352000DE01119601900D928A95E1F729813A8189
:103530004B815C816D817E8180E090E026960FB6A4
:10354000F894DEBF0FBECDBFDF91CF910895CF932A
:10355000DF9300D000D000D0CDB7DEB749835A83C7
:103560006B837C838D839E8386E0FE013196A3E787
:10357000B2E001900D928A95E1F726960FB6F89485
:10358000DEBF0FBECDBFDF91CF91089583E290E003
:103590000E94492B823289F484E290E00E94492BF8
:1035A000813059F485E290E00E94492B91E082300D
:1035B00009F090E0892F8170089580E0FCCFCF93CF
:1035C000C82F6FEF811162E283E290E00E94572BD7
:1035D0006FEFC11161E084E290E00E94572B6FEF22
:1035E000C11162E085E290E0CF910C94572B0895D1
:1035F00086E290E00E94492B682F70E090E080E026
:10360000089586E290E00C94572B80E00E94DF1A28
:1036100060E070E0CB010E94011B0E948F1D0E94A0
:10362000791E81E00C94DF1A0E94F71A0E94C61AD4
:10363000811102C00C94051B0895CF93FB01C28138
:10364000CC2309F19C0122513F452031310520F561
:1036500082510E94891EC0E08C2FCF91089581E095
:103660000E94DE0C43E062E081E00E944307F3CF5A
:1036700081E00E94E90C43E062E081E00E944307A0
:10368000EBCF82E0F6CF8031FFE59F0789F38131F0
:103690009F45B9F3C1E0E0CF8031EFE59E07F9F235
:1036A00081319F45C9F682E0DBCF2FEFFC012083FB
:1036B0000895EF92FF920F931F93CF93DF93EC0146
:1036C000062FE881E150E33108F05EC0F0E0E955F3
:1036D000F44D0C94122B198289E08A83602FCE015D
:1036E000DF91CF911F910F91FF90EF900C94FB23EE
:1036F0008981823069F0833071F08130D9F40E9481
:103700003B230E94182B6A837B838C839D83E6CFA7
:103710000E94F81AF6CF7E0182E0E80EF11C10E05C
:10372000812F0E945803F70181937F011F5F14319D
:10373000B9F7D4CF602FCE010E94551BCFCF89811E
:103740008230C1F76A817B818C819D810E94182B18
:103750000E94011BC3CF4B816A8189810E94611D38
:103760009827892798279D838C83B8CF2C813D810A
:103770003227232732274B816A8189810E947A1D53
:10378000ADCF0E948F1DAACF8FEF8883A7CF0E9455
:10379000241E8983A3CF0E94261E98278927982755
:1037A0009A8389839BCF6B8170E089819A81AE0176
:1037B0004C5F5F4F9827892798270E94291E8ECF3C
:1037C0006B8170E089819A81AE014C5F5F4F9827D1
:1037D000892798270E944F1E81CF0E94791E7ECF95
:1037E0000E944F1DD6CF6B8170E089819A81AE0116
:1037F0004C5F5F4F9827892798270E94C71D6ECF7F
:103800006B8170E089819A81AE014C5F5F4F982790
:10381000892798270E94ED1D61CF0895FC01680F4C
:10382000791F8FEF91E36E177F0709F408952191B7
:10383000822728E030E087FF06C0880F89272150C3
:103840003109C9F7F0CF880FFACFCF93DF93EC019E
:10385000FB018281882309F420C1C330FDE5DF0725
:10386000C8F5CA3F9CE5D90730F49E0122503C457B
:103870002431310598F50E94A2119093A302809300
:10388000A202C031FCE5DF0709F4E0C008F061C026
:10389000C8309CE5D90709F4CBC088F5C430FCE5F5
:1038A000DF0709F4B3C0E8F4C2309CE5D90709F496
:1038B000A7C08091A2028260C330DC4509F4A3C096
:1038C0008091A2029091A3020E94B0110E94650C07
:1038D00080E004C0C136EDE5DE0769F2DF91CF91EB
:1038E00008958091A2028061C630FCE5DF0709F4EB
:1038F0008AC008F48FC08091A202806284C0809147
:10390000A2028D7FCC309CE5D90709F47CC070F40D
:103910008091A2028C60CA30FCE5DF0709F473C015
:1039200008F48AC08091A2028E7F6DC08091A202AD
:10393000877FCE309CE5D90709F465C08091A2024B
:103940008B7FCF30DC4508F45EC08091A2028F7E71
:103950005AC0CC3FFCE5DF0709F474C040F5C43120
:103960009CE5D90709F48AC058F4C231FCE5DF07A9
:1039700009F474C008F46EC08091A202837F43C032
:10398000CA3F9CE5D90709F449C008F04DC0C531CC
:10399000DC4509F095CF8091A20282FB992790F92E
:1039A00021E0922790FB82F990FB83F92CC0C1158E
:1039B0008DE5D80709F458C088F48091A30283608C
:1039C000CE3FECE5DE0769F18091A3028D7FCF3F0A
:1039D000DC4538F18091A3028C7F23C0C2308DE595
:1039E000D80709F458C008F452C0C136DD4509F0C3
:1039F00067CF9091A202892F8F7E94FF806103C0D0
:103A00008091A20281608093A2025ACF8091A2028B
:103A10008460F9CF8091A2028860F5CF8091A302E3
:103A200081608093A3024CCF8091A3028260F9CF82
:103A30008091A2028064E7CF0E94650C8091A2026F
:103A40008068E1CF8091A3028E7FEBCF8091A202AC
:103A50008F7DD9CF8091A2028F7BD5CF0E94650C3C
:103A60008091A2028F77CFCF8091A302982F90955B
:103A700091708E7F892B90FB81F9D3CF0E94650CCA
:103A80009091A202892F97FB87F98058BCCF81E0E3
:103A90000E94351215CF80E0FBCF81E01FCF84E07C
:103AA000089550E0440F551F9AE0699F400D511D45
:103AB000112498EC899F400D511D1124CA0187964D
:103AC00008950F931F93CF93DF930E94511D8C0194
:103AD0000E94492BC82FD0E0DC2FCC27C8010196CB
:103AE0000E94492B9E01282BC901DF91CF911F9184
:103AF0000F9108950F931F93CF93DF93122F032FEE
:103B00000E94511DEC01602F0E94572B612FCE01A6
:103B10000196DF91CF911F910F910C94572BAF928B
:103B2000BF92CF92DF92EF92FF921F93CF93DF93DA
:103B30008CEAC82E80E0D82ED0E07601C0E014C018
:103B4000F50125913491412F6C2F8D2F0E947A1D04
:103B500082E0A80EB11C1F5F153091F78AE0E80ED5
:103B6000F11CCF5FC43119F0570110E0E9CFDF5FDE
:103B700088ECC80ED11CD43001F7DF91CF911F9192
:103B8000FF90EF90DF90CF90BF90AF900895EF92AD
:103B9000FF920F931F93CF93DF93EC018A017C0177
:103BA000E60EF71ECE018796CE15DF0539F4DF91BC
:103BB000CF911F910F91FF90EF900895C03223E0B5
:103BC000D20740F40E94492BF80180830F5F1F4FFA
:103BD0002196E8CFF8011082F9CFCF92DF92EF92D1
:103BE000FF920F931F93CF93DF937C016A018C01A7
:103BF000060F171FEC01CE018796C017D10749F4B5
:103C0000DF91CF911F910F91FF90EF90DF90CF90B8
:103C10000895C03223E0D20740F4FE01EE19FF09F7
:103C2000EC0DFD1D60810E94572B2196E4CF462F9D
:103C3000843038F4743128F4653018F4672F0C940C
:103C4000611D90E080E0089580E1089589EB90E0A7
:103C50000895EF92FF920F931F93CF93DF93EC01A0
:103C60008A017C01E60EF71ECE01895B9C4FCE15C2
:103C7000DF0539F4DF91CF911F910F91FF90EF9005
:103C80000895C93BD10540F40E94492BF801808377
:103C90000F5F1F4F2196E8CFF8011082F9CFCF9226
:103CA000DF92EF92FF920F931F93CF93DF937C01EC
:103CB0006A018C01060F171FEC01CE01895B9C4F36
:103CC000C017D10749F4DF91CF911F910F91FF9059
:103CD000EF90DF90CF900895C93BD10540F4FE01ED
:103CE000EE19FF09EC0DFD1D60810E94572B2196F6
:103CF000E4CFCF93DF93C7E4D3E060E0CE010E942E
:103D0000572B2196C11584E0D807B9F7DF91CF91E1
:103D10000895DF92EF92FF920F931F93CF93DF935B
:103D200000D000D0CDB7DEB7F82E8FE08F1540F071
:103D30008FEF93E00E94492B07E413E08823C1F042
:103D40000F900F900F900F90DF91CF911F910F91D7
:103D5000FF90EF90DF900895011584E0180781F33C
:103D6000C8010E94492B811101C0FA940F5F1F4FB7
:103D7000F110F2CF19821A821B821C82DD24D394A7
:103D800078018FEFE81AF80AC8010E94492B89834D
:103D90001A828823A9F29FEF980F933078F48A83D0
:103DA000D9820E5F1F4FC7010E94492B8B83882346
:103DB00039F2CE0101960E949808E2CF8701F9CF2F
:103DC000CF93DF93EB0186319C4511F50E94B5102E
:103DD0009A81992399F08A7A91E009F490E090937E
:103DE0007902811109C089E20E9490100E94F810A6
:103DF00080E0DF91CF91089585E3F6CF809179023D
:103E0000811104C089E20E949710F0CF85E3FBCFB7
:103E100081E0EFCF0F931F93CF93DF93C42FD22F67
:103E2000FC0182818823C9F040937C020E942F23E9
:103E300090937B0280937A0280E28C0F883008F0A6
:103E400050C0C77081E001C0880FCA95EAF7DF91C2
:103E5000CF911F910F910C94050A10917C021413BD
:103E600035C080917A0290917B020E944723883C62
:103E7000910560F5C0E2CD0F1D17B9F080E2810F0A
:103E8000883040F4177081E001C0880F1A95EAF776
:103E90000E940C0AC83048F481E09D2F977001C041
:103EA000880F9A95EAF70E94050A802F0E94FD0963
:103EB000C830B8F4D77081E001C0880FDA95EAF70E
:103EC000DF91CF911F910F910C940C0A80E28C0F1F
:103ED000883038F4C77081E001C0880FCA95EAF7CE
:103EE000EFCFDF91CF911F910F9108950F939C0118
:103EF000CB01233F4CE5340759F1A8F4283DFCE5FC
:103F00003F0701F1293D4CE53407D1F1273D3C4500
:103F100091F406E221EE41EE67ED7CE50E940A1F76
:103F200080E00F910895253FFCE53F07E9F0B0F0F0
:103F3000263F3C45F9F0FC018281882339F110923B
:103F40007C02EFCF07E225EE45EE68ED7CE5E6CF9B
:103F500006E221EE40EE63EF7CE5E0CF07E225EEDE
:103F600044EE64EF7CE5DACF06E221EE42EE65EF47
:103F70007CE5D4CF07E225EE46EE66EF7CE5CECFBA
:103F800008E221E045EE69ED7CE5C8CF81E0C9CFCC
:103F90008EE14A9B02C08150E1F74A9BFECF089513
:103FA0005A9880E28A95F1F75A9A0895FC013BE00D
:103FB0003A95F1F798E020E080E031E040E14A9561
:103FC000F1F7880F4A9B02C08160232742E04A959F
:103FD000F1F7000040E14A95F1F7915079F790E14F
:103FE0009A95F1F799B132E03A95F1F7000040E186
:103FF0004A95F1F792FB992790F992272081920F29
:1040000090830895EF92FF920F931F93CF93DF93C6
:104010000F92CDB7DEB719828C017C01E60EF11C40
:104020000E151F0561F481E09981911180E00F90D8
:10403000DF91CF911F910F91FF90EF9008950E9413
:10404000C81FCE0101960E94D61FF80181938F01EF
:10405000E7CF529A5A9A089552985A9AEA9AE9E6FC
:10406000F0E080818F7C808308956150770B91E030
:1040700001C0990F6A95EAF720E031E0911108C07C
:10408000222391F05A9A80E28A95F1F75A9808957E
:10409000492F482339F05A9A232740E24A95F1F7ED
:1040A0009695ECCF5A98F9CF5A98EDCFFF920F938F
:1040B0001F93CF93DF93EC018C01060F111DC017E6
:1040C000D10731F4DF91CF911F910F91FF900895A7
:1040D000F9900E94D01F68E08F2D0E943520EFCF0D
:1040E0001F920F920FB60F921124EF92FF920F932F
:1040F0001F932F933F934F935F936F937F938F9370
:104100009F93AF93BF93EF93FF93CF93DF930F9260
:10411000CDB7DEB719820E94C81FCE0101960E945A
:10412000D61FA82FA695A695A695282F229525706F
:104130009A2F9570290F922F937026952695920F9E
:10414000982797708981982B09F075C0A43008F0E2
:1041500072C080E18A95F1F75A9A529AB2E0BA9504
:10416000F1F700C05A98EA2EF12CEAE0AE9FD00198
:104170001124A95FBE4F1896ED91FC9119973097C5
:10418000B1F0609153017091540116962D913C91BC
:104190001797260F371F13968D919C911497680FD0
:1041A000791F15964C91159712968C9109958AE076
:1041B0008E9DF0018F9DF00D1124E95FFE4F65810A
:1041C000662351F0209153013091540186819781EB
:1041D000820F931F0E9456200E94D01FF0E1FA9593
:1041E000F1F75A9852985A9A80E18A95F1F78AE045
:1041F0008E9D80018F9D100D1124095F1E4FD801E7
:1042000012966C911297662371F1209153013091AF
:10421000540113968D919C91820F931F0E9402204E
:10422000D801ED91FC91882311F088E001C082E073
:1042300080830E94C81F0F90DF91CF91FF91EF9173
:10424000BF91AF919F918F917F916F915F914F91AE
:104250003F912F911F910F91FF90EF900F900FBE04
:104260000F901F901895ED91FC91DFCF0F931F9346
:10427000CF93DF93EC0104970CF0A9C08AE08C9FE8
:10428000F0018D9FF00D1124E95FFE4F8081918137
:10429000892B09F49CC0F894529A5A9885E08A9523
:1042A000F1F700008C2F869585709C2F9570890FF3
:1042B000982F937086958695890F8E0193E0000F55
:1042C000111F9A95E1F7082B0E94D01F00C068E0EB
:1042D000802F0E943520A0E1AA95F1F752985A9AB2
:1042E0004A9B27C087E090E04A9925C08AE08C9FCE
:1042F00080018D9F100D1124095F1E4FF80165810B
:104300006623A1F120915301309154018681978158
:10431000820F931F0E940220811128C0529A5A9A3C
:10432000D801ED91FC9182E08083789482E090E066
:1043300016C000C0D5CF0197B9F4529A5A9A8AE0B4
:104340008C9FF0018D9FF00D1124E95FFE4F0190CD
:10435000F081E02D81E08083789481E090E0DF912E
:10436000CF911F910F91089500C0BECF0E94C81F2A
:10437000B0E2BA95F1F75A98529AE0E1EA95F1F76E
:104380008AE08C9FF0018D9FF00D1124E95FFE4FB4
:104390006281662351F02091530130915401838151
:1043A0009481820F931F0E9456200E94D01F8AE0A2
:1043B0008C9FF0018D9FF00D1124E95FFE4F01905D
:1043C000F081E02D1082789490E080E0C8CF84E006
:1043D00090E0C5CF90936501809364010895909318
:1043E00083028093820208950E947A15811103C08E
:1043F00080917D020895E0918202F09183023097CE
:1044000021F00190F081E02D099480E00895E09181
:104410008202F0918302309721F00280F381E02D37
:1044200009940895E0918202F0918302309739F067
:1044300022E0DC012C930480F581E02D099408959D
:1044400020918002309181022817390771F09093F2
:10445000810280938002E0918202F0918302309782
:1044600021F00680F781E02D0994089520917E02C5
:1044700030917F022817390771F090937F02809363
:104480007E02E0918202F0918302309721F0008455
:10449000F185E02D099408959C012E5F3F4FAC01FA
:1044A000485F5F4F80E02417350709F40895F9014C
:1044B00091919F019923B9F38F5FF5CF662349F05E
:1044C000FC01329608962191261729F0E817F90782
:1044D000D1F780E0089581E008959C01FC013296B7
:1044E0009FEF80E04191461751F09F3F19F4411131
:1044F00001C0982F8F5F8630A9F79F3F09F4089578
:10450000290F311D97FD3A95F90162830895FC0149
:10451000329608962191261303C0DF0111971C9251
:10452000E817F907B9F708950C946D220C948722C7
:10453000029626E0FC0111922A95E9F70895089564
:104540000C949F22811105C081E0809384020C9419
:10455000A02282E0FACF83E0809384020C94A02210
:104560000C94A22281E0809384020C94A0220C94EB
:10457000B22208958091AD02843031F10E94540737
:104580001092850288E190E020E40FB6F894A89597
:10459000809360000FBE2093600083B7817F8460AA
:1045A00083BF83B7816083BF7894889583B78E7FFC
:1045B00083BF0FB6F894A8958091600088618093BE
:1045C0006000109260000FBE089508950895CF9383
:1045D0000E94E5220E942B040E94E622C0E08C2F5C
:1045E0000E945803811105C0CF5FC431C1F7CF913C
:1045F000089581E0FCCF0E94650C0C94C4071F92C3
:104600001FB61F9211248F939F93AF93BF938091F6
:104610008502811113C08091A5029091A602A091FC
:10462000A702B091A8024196A11DB11D8093A502D9
:104630009093A602A093A702B093A802BF91AF9156
:104640009F918F911F901FBE1F90189582E084BD8F
:1046500093E095BD9AEF97BD80936E0008952FB7B4
:10466000F8948091A5029091A602A091A702B09122
:10467000A8022FBF08952FB7F8946091A5027091FA
:10468000A6028091A7029091A8022FBF08959C01D5
:104690004FB7F8948091A5029091A602A091A7022D
:1046A000B091A8024FBF821B930B0895CF92DF9267
:1046B000EF92FF922FB7F894C090A502D090A60277
:1046C000E090A702F090A8022FBFA7019601261B39
:1046D000370B480B590BCA01B901FF90EF90DF90DF
:1046E000CF90089578941F921FB61F9211248F9334
:1046F0009F93AF93BF938091A5029091A602A09142
:10470000A702B091A8020196A11DB11D8093A50238
:104710009093A602A093A702B093A802BF91AF9175
:104720009F918F911F901FBE1F90189587E797E765
:10473000909301088093000888E19AE00FB6F894FE
:10474000A895809360000FBE90936000FFCF80918A
:104750008E020895089508959C0184E08093E900F5
:104760009FEF8091E800915085FD06C085ED8A9508
:10477000F1F700009111F5CF8091E80085FF0CC0A2
:1047800050E040E066E070E0C9010E940C26809194
:10479000E8008E778093E8000895CF93DF93EC01D3
:1047A00081E08093E9008FEF9091E800815095FDC2
:1047B00006C095ED9A95F1F700008111F5CF809133
:1047C000E80085FF14C050E040E068E070E0CE01F2
:1047D0000E940C268091E8008E778093E80088E0A4
:1047E000FE01A6E8B2E001900D928A95E1F7DF9113
:1047F000CF9108950895CF93FC01603221F5809107
:10480000AD02843001F5C091E900CF702091EC0039
:10481000922F917020FD90E8C92B82E08093E900EF
:104820008091E80080FF0CC050E040E060E270E062
:10483000CF010E940C268091E8008E778093E800DB
:10484000CF70C093E900CF9108958091AC0281119F
:1048500009C00E94EB270E9448288091E2008460F2
:104860008093E20008951092AC0208950C94B22255
:104870006091A90281E0611101C080E00C94AB223B
:104880009091AD0281E0943009F080E06091A9023E
:104890000C94B02242E061EC81E00E94672742E282
:1048A00061EC84E00E94672742E261EC82E00E94B2
:1048B000672742E260EC83E00E9467279091AD0297
:1048C00081E0943009F080E06091A9020C94A2226A
:1048D0008091AF02833009F462C030F48130D9F1A5
:1048E000823009F49EC008958A3009F48AC08B3062
:1048F00009F470C0893009F051C08091AE02813254
:1049000009F04CC08091B2029091B302009719F067
:10491000029709F043C08091E800877F8093E80008
:104920008091E80082FF36C09091F3008091F20000
:10493000029731F48091F100813011F0863021F43A
:104940008091F10080938E028091E8008B778093B4
:10495000E8000C949B278091AE02813AF9F4809193
:10496000E800877F8093E8008091B2029091B302C3
:10497000892B61F468E086E892E070E00E94AA2644
:104980008091E8008B778093E800089560E090E0E4
:1049900080E0F3CF8091AD028111C2CF0895809164
:1049A000AE02813AD9F78091B2029091B302892B7D
:1049B000A9F78091E800877F8093E8008091E80064
:1049C00080FFFCCF809139018093F1008091E80055
:1049D0008E77BDCF8091AE02813201F78091B20215
:1049E0009091B302892BD1F68091E800877F809364
:1049F000E8000E949B278091B002809339010C94BB
:104A0000650C8091AE02813249F68091E800877F83
:104A10008093E8000E949B278091B10280938F02CF
:104A200008958091AE02813A09F0B8CF8091E800F4
:104A3000877F8093E8008091E80080FFFCCF809121
:104A40008F02C2CF84B7877F84BF0FB6F894A89532
:104A500080916000886180936000109260000FBEBA
:104A600080E890E00FB6F894809361009093610025
:104A70000FBE0C94B7220E94EB270E944828E2EE5A
:104A8000F0E080818460808378940C94D12A8DE258
:104A900091E00C94EF218091AD028530A9F48091D2
:104AA000AD02853011F00C94FB220E94BA22809155
:104AB000AB028823A1F30E94E722882381F30E949E
:104AC000F6250E94650CEBCF0895CF93DF93CDB709
:104AD000DEB7A0970FB6F894DEBF0FBECDBF8091B2
:104AE000AD02843009F583E08093E9008091E8000D
:104AF00082FF1AC08091E80090E085FF09C050E075
:104B000040E060E270E0CE0101960E945B2691E0F9
:104B10008091E8008B778093E800992329F060E288
:104B2000CE0101960E94591BA0960FB6F894DEBFE5
:104B30000FBECDBFDF91CF9108950C949F25292FF3
:104B400033272330310521F168F42130310509F490
:104B500043C02230310509F444C090E080E030E0E9
:104B600020E026C02132310551F122323105A9F76A
:104B70006330710590F7FB01EE0FFF1FE85AFE4FFF
:104B8000208131816B5A7E4FFB01808190E010C003
:104B900099278130910581F0009729F00297E9F675
:104BA000ECE7F4E002C0EAE9F4E0849190E09F01D0
:104BB000FA01318320830895E2E9F4E0F6CF63300F
:104BC000710558F6660F771FFB01E25AFE4F2081F0
:104BD000318189E090E0ECCF82E190E029EF34E090
:104BE000E7CF8BE590E02EE934E0E2CF80E189BDAC
:104BF00082E189BD09B400FEFDCF8091D8008F7D90
:104C00008093D8008091E00082608093E0008091E2
:104C1000E00081FDFCCF0895AF92BF92CF92DF926A
:104C2000FF920F931F93CF93DF936C01EB018A01E7
:104C30000E94BA27F82E811123C00115110539F001
:104C4000F80180819181C81BD90BC80ED91EB12CE7
:104C5000A12C2097A9F08091E80085FD22C08091C9
:104C6000E8008E778093E80001151105A1F0F801A6
:104C700080819181A80EB91EB182A08285E0F82EB4
:104C80008F2DDF91CF911F910F91FF90DF90CF90EB
:104C9000BF90AF9008950E94BA278823D1F2F82ED2
:104CA000EFCFF60181916F018093F1002197FFEF23
:104CB000AF1ABF0ACECFAF92BF92CF92DF92FF92D0
:104CC0000F931F93CF93DF936C01EB018A010E9436
:104CD000BA27F82E811123C00115110539F0F8010A
:104CE00080819181C81BD90BC80ED91EB12CA12C73
:104CF0002097A9F08091E80085FD22C08091E8000E
:104D00008B778093E80001151105A1F0F8018081EF
:104D10009181A80EB91EB182A08285E0F82E8F2D58
:104D2000DF91CF911F910F91FF90DF90CF90BF90B7
:104D3000AF9008950E94BA278823D1F2F82EEFCFC2
:104D40008091F100F60181936F012197FFEFAF1A77
:104D5000BF0ACECFFC018091B4029091B5028617B4
:104D60009707A0F06115710529F49091E8009E77EE
:104D70009093E80090E06115710551F4911108C01D
:104D80008091E80082FF34C080E00895BC01F2CF3A
:104D90008091AD028823C1F18530C1F18091E80096
:104DA00083FD30C08091E80082FDEACF8091E80069
:104DB00080FFE1CF8091F3002091F200382F611540
:104DC000710519F02830310558F091E0283031058F
:104DD00009F090E02091E8002E772093E800CBCFF7
:104DE00081918093F100615071092F5F3F4FE7CFB0
:104DF0008091AD02882341F0853041F08091E80038
:104E000083FFBECF81E0089582E0089583E0089596
:104E1000FC018091B4029091B50286179707A0F02B
:104E20006115710529F48091E8008E778093E80080
:104E300090E06115710551F4911108C08091E8006E
:104E400082FF35C080E00895BC01F2CF8091AD02B1
:104E50008823C9F18530C9F18091E80083FD31C014
:104E60008091E80082FDEACF8091E80080FFE1CFE9
:104E70008091F3002091F200382F6115710519F02F
:104E80002830310558F091E02830310509F090E0E4
:104E90008091E8008E778093E800CBCF8491809357
:104EA000F1003196615071092F5F3F4FE6CF80913D
:104EB000AD02882341F0853041F08091E80083FF06
:104EC000BDCF81E0089582E0089583E00895982F92
:104ED000973028F08F708093E90081E008959093D7
:104EE000E900242F762F50E0981731F07091EC00F4
:104EF0002091ED005091F00021FD02C09F5FE8CFAE
:104F00003091EB003E7F3093EB003091ED003D7F20
:104F10003093ED003091EB0031603093EB007093F3
:104F2000EC002093ED005093F0002091EE0027FD5F
:104F3000E5CF80E008958091AE0287FF13C0809195
:104F4000E80082FF06C08091E8008B778093E8003C
:104F500004C08091AD028111F2CF08958091AD021D
:104F60008823D9F38091E80080FFF8CF8091E80092
:104F70008E77ECCF2091E4003091E50095E6A90111
:104F80002091EC00822F817020FF06C08091E80004
:104F900080FF06C080E008952091E80022FD1AC03D
:104FA0008091AD02882389F0853089F08091EB00F3
:104FB00085FD0FC02091E4003091E50042175307B2
:104FC000F9F29150E1F684E0089582E0089583E0DB
:104FD000089581E008950E9459280E946128E0EE1A
:104FE000F0E0808181608083E8EDF0E080818F7760
:104FF000808319BCA7EDB0E08C918E7F8C9380816B
:105000008F7E80831092AC0208950F931F93CF93ED
:10501000DF930E9459280E946128C8EDD0E0888162
:105020008F77888388818068888388818F7D888353
:1050300019BC1092AD021092A9021092AB0210920C
:10504000AA0200EE10E0F80180818B7F80838881C6
:105050008160888342E060E080E00E946727E1EEA3
:10506000F0E080818E7F8083E2EEF0E080818160DD
:105070008083808188608083F80180818E7F808337
:10508000888180618883DF91CF911F910F9108956E
:10509000E8EDF0E080818F7E8083E7EDF0E08081B5
:1050A0008160808384E082BF81E08093AC020C94B5
:1050B0000528E8EDF0E080818E7F80831092E20089
:1050C00008951092DA001092E10008951F920F9255
:1050D0000FB60F9211242F933F934F935F936F93CB
:1050E0007F938F939F93AF93BF93EF93FF938091A1
:1050F000E10082FF0BC08091E20082FF07C0809137
:10510000E1008B7F8093E1000E94D02A8091DA0039
:1051100080FF19C08091D80080FF15C08091DA000F
:105120008E7F8093DA008091D90080FF96C080E165
:1051300089BD82E189BD09B400FEFDCF81E0809385
:10514000AD020E9425248091E10080FF19C080916A
:10515000E20080FF15C08091E2008E7F8093E20024
:105160008091E20080618093E2008091D8008062AB
:105170008093D80019BC85E08093AD020E9438244A
:105180008091E10084FF2BC08091E20084FF27C062
:1051900080E189BD82E189BD89B5982F917080FF3A
:1051A000FBCF8091D8008F7D8093D8008091E10063
:1051B0008F7E8093E1008091E2008F7E8093E200F9
:1051C0008091E20081608093E2008091A9028823AF
:1051D00009F449C084E08093AD020E94402480918C
:1051E000E10083FF29C08091E20083FF25C0809108
:1051F000E100877F8093E10082E08093AD0210920E
:10520000A9028091E1008E7F8093E1008091E2000D
:105210008E7F8093E2008091E20080618093E200C3
:1052200042E060E080E00E9467278091F0008860A3
:105230008093F0000E943624FF91EF91BF91AF91CF
:105240009F918F917F916F915F914F913F912F919E
:105250000F900FBE0F901F90189519BC1092AD02C1
:105260000E94332470CF8091E30087FD93E09093F8
:10527000AD02B3CF1F920F920FB60F9211242F934E
:105280003F934F935F936F937F938F939F93AF93CE
:10529000BF93CF93DF93EF93FF93D091E900DF703B
:1052A0008091EC00C82FC17080FDC0E81092E90029
:1052B0008091F000877F8093F00078940E947E298F
:1052C0001092E9008091F00088608093F000CD2B6F
:1052D000CF70C093E900FF91EF91DF91CF91BF9123
:1052E000AF919F918F917F916F915F914F913F917E
:1052F0002F910F900FBE0F901F9018951F93CF9373
:10530000DF93CDB7DEB7AA970FB6F894DEBF0FBE16
:10531000CDBF8EEA92E02091F100FC012193CF01F4
:10532000F2E0863B9F07B9F70E9468248091E8006D
:1053300083FF1EC18091AE029091AF029A3008F0B7
:1053400017C1E92FF0E0E654F44D0C94122B80388D
:1053500099F0823809F00CC18091B2028F708730C9
:1053600008F006C18093E9008091EB0085FB882757
:1053700080F91092E90006C08091AA029091AB02D8
:10538000911182609091E800977F9093E80080935C
:10539000F1001092F1008091E8008E77E5C088233B
:1053A00009F4D3C0823009F0E3C08091B0028111CA
:1053B000D6C08091B2028F702FEF280F263008F0F0
:1053C000D7C08093E9002091EB0020FFC8C0933044
:1053D00031F48091EB0080628093EB00C0C090912B
:1053E000EB0090619093EB0021E030E001C0220FD0
:1053F0008A95EAF72093EA001092EA008091EB0088
:105400008860EACF8111B4C01091B0021F778091FB
:10541000E3008078812B8093E3008091E800877F10
:105420008093E8000E949B278091E80080FFFCCFDA
:105430008091E30080688093E30082E0111183E0B3
:105440008093AD0295C08058823008F091C0809161
:10545000B0029091B1028C3D23E09207A1F583E068
:105460008A838AE289834FB7F894DE01139620E09D
:105470003EE051E2E32FF0E050935700E49120FF2B
:1054800003C0E295EF703F5FEF708E2F90E0EA303F
:10549000C0F0C7968D939D932F5F243159F74FBF6E
:1054A0008091E800877F8093E8006AE270E0CE0197
:1054B00001960E94AA268091E8008B778093E800ED
:1054C00057C0C096E7CF6091B2027091B302AE01AF
:1054D0004F5F5F4F0E949D25BC01892B09F448C096
:1054E0009091E800977F9093E80089819A810E94CB
:1054F0000827E1CF8038E1F58091E800877F80932D
:10550000E8008091A9028093F10045CF811130C05D
:105510009091B002923060F58091E800877F80938F
:10552000E8009093A9020E949B278091A9028823FA
:1055300011F084E005C08091E30087FDFACF81E09F
:105540008093AD020E944A2413C08091B002813042
:1055500079F481E0933009F080E08093AB021092FF
:10556000E9008091E800877F8093E8000E949B27F4
:105570008091E80083FF0AC08091E800877F8093D4
:10558000E8008091EB0080628093EB00AA960FB652
:10559000F894DEBF0FBECDBFDF91CF911F9108956C
:1055A0000895CF938091AD028823A1F0C091E900C6
:1055B000CF709091EC00892F817090FD80E8C82B0E
:1055C0001092E9008091E80083FD0E947E29CF704F
:1055D000C093E900CF9108950E94EB271092AD028D
:1055E0000895E8EDF0E08081806180838AE18A950A
:1055F000F1F700C08091D9008170089597FB072EC4
:1056000016F4009407D077FD09D00E941F2B07FCE9
:1056100005D03EF4909581959F4F089570956195C2
:105620007F4F0895EE0FFF1F0590F491E02D099430
:105630006927962769277827872778270895AA1B3F
:10564000BB1B51E107C0AA1FBB1FA617B70710F06D
:10565000A61BB70B881F991F5A95A9F7809590959F
:10566000BC01CD010895FB01DC0104C08D910190C6
:10567000801921F441505040C8F7881B990B0895B8
:10568000FB01DC0102C001900D9241505040D8F75F
:105690000895F999FECF92BD81BDF89A992780B5FA
:1056A0000895A8E1B0E042E050E00C947D2B262F55
:1056B000F999FECF92BD81BDF89A019700B4021608
:1056C00039F01FBA20BD0FB6F894FA9AF99A0FBEB6
:1056D00008950396272F0E94582B0E94572B252FA1
:1056E0000E94582B242F0C94582B0196272F0E9490
:1056F000582B0C94572BDC01CB01FC01F999FECF00
:1057000006C0F2BDE1BDF89A319600B40D92415049
:105710005040B8F70895F894FFCF510A510A820A11
:10572000820AB10A160BB10AB10A310B980BA70B0A
:10573000A70B740C740C7D0C7D0C7F0C7D0C7D0C08
:105740007D0C740C740C840C7D0C7D0C840C6B1B18
:10575000781B9F1BAB1BB61BC11BC41BC41BC41BEC
:10576000C41BC41BC71BCB1BD31BE01BED1BF01BB7
:10577000F31B001CA729CF29B82ACF29B82A022A4F
:08578000232AB82A7A2A862A9E
:105788001105C8000D0201A402000000010000007C
:1057980000A4020000000A01000000A402040B009B
:1057A80000000000002808641E140A321EA723CD3A
:1057B80023AC23AA23FA23AB230134C6663632F579
:1057C800F6F79735F5F6F79735000000000000006A
:1057D8000000003B0240224976050B052D05B00468
:0457E800C904E90403
:00000001FF
