:100000000C94DB020C9422030C9422030C94FF1F2B
:100010000C9422030C9422030C9422030C942203CC
:100020000C9422030C9422030C94F5270C94C928F9
:100030000C948E220C9422030C9422030C94220321
:100040000C9422030C9422030C9422030C9422039C
:100050000C9422030C9401230C9422030C9422038D
:100060000C9422030C9422030C9422030C9422037C
:100070000C9422030C9422030C9422030C9422036C
:100080000C9422030C9422030C9422030C9422035C
:100090000C9422030C9422030C9422030C9422034C
:1000A0000C9422030C9422030C9422031F002000C2
:1000B0002100220001001A000800150017000100AD
:1000C0001600070009000A0001001B0006001900C5
:1000D00005000100E2008B002C002C00115F1E00C7
:1000E000350000000000000014002B00000000009C
:1000F0000000040039000000000000001D00E100C5
:10010000000000000000E300E0000000000000002C
:1001100027002600250024002300130012000C00F5
:1001200018001C0033000F000E000D000B003800FB
:100130003700360010001100650088008A002C008E
:10014000105F2D002E008900000000002F003000FD
:100150002A000000000034003200280000000000E7
:1001600087005200E50000000000500051004F00E1
:100170000000000001000100F400F50001001F0074
:100180002000210022000100010001000100010007
:100190000100010001000100010001000100010057
:1001A000010001000100010001000000000000004A
:1001B0001E0001000000000000000100010000001E
:1001C000000000000100010000000000000001002C
:1001D000010000000000000001000100010001001A
:1001E0000100270026002500240023000100010053
:1001F00001000100010001000100010001000100F7
:1002000001000100010001000100010001000100E6
:1002100000000000010001000100000000000100DA
:1002200001000100000000000100010001000000C9
:1002300000000100010001000000000001000100B9
:1002400001000100C25C0100010001000100C95C65
:100250000100010001000100C55C01000100010076
:100260000100C75C01000100010001000100010064
:10027000010000000000000001000100000000007B
:10028000000001000100000000000000010001006A
:10029000000000000000010001000000000000005C
:1002A0000100010001000100010001000100010046
:1002B0000100010001000100010001000100010036
:1002C0000100010001000100010001000100010026
:1002D0000100010001000100000000000100010018
:1002E000010000000000010001000100000000000A
:1002F00001000100010000000000010001000100F8
:1003000000000000010001000100010001000100E7
:1003100001000100010001000100010001000100D5
:1003200001000100010001000100010001000100C5
:1003300001000100010001000100000000000000B8
:1003400001000100000000000000010001000000A9
:10035000000000000100010000000000000001009A
:100360000100000000000000010001000100010088
:100370000100010001000100010001000100010075
:100380000100010001000100010001000100010065
:100390000100010001000100010001000100010055
:1003A0000000000001000100010000000000010049
:1003B0000100010000000000010001000100000038
:1003C000000001000100010000000000000000002A
:1003D000000000002A2B28000000000000000000A0
:1003E0000000000000000029000000002C1E342046
:1003F000212224342627252E362D3738271E1F206C
:100400002122232425263333362E37381F040506B0
:100410000708090A0B0C0D0E0F10111213141516F4
:100420001718191A1B1C1D2F3130232D35040506F2
:100430000708090A0B0C0D0E0F10111213141516D4
:100440001718191A1B1C1D2F3130354C00000000E5
:10045000000000000000000000000000000000009C
:10046000000000000000000000000000000000008C
:100470007E0F00D4FFFFFFC7000000781403680060
:1004800061006C00660063006C0069006600660035
:10049000000006036E003200000004030904090294
:1004A0005B00030100A0FA09040000010301010040
:1004B0000921110100012240000705810308000AFB
:1004C00009040100020300000009211101000122BA
:1004D0002200070582032000010705030320000115
:1004E000090402000103000000092111010001229A
:1004F00049000705840320000A12010002000000E1
:1005000008350321000100010200010660FF0961B6
:10051000A1010962150026FF0095207508810209D6
:1005200063150026FF00952075089102C00501099A
:1005300002A10185020901A1000509190129081577
:100540000025019508750181020501093009311561
:1005500081257F95027508810609381581257F95CB
:100560000175088106050C0A38021581257F950161
:1005700075088106C0C005010906A101050719E03B
:1005800029E7150025019508750181029501750877
:1005900081010507190029FF150026FF0095067542
:1005A0000881000508190129059505750191029535
:1005B0000175039101C011241FBECFEFDAE0DEBF49
:1005C000CDBF04B603FE27C08091AD029091AE026C
:1005D000A091AF02B091B0028730904BA740B04BD2
:1005E000D1F41092AD021092AE021092AF021092AE
:1005F000B00214BE84B7877F84BF0FB6F894A89565
:1006000080916000886180936000109260000FBE4E
:10061000E0E0F8E3099511E0A0E0B1E0E6EAF6E5F4
:1006200002C005900D92A436B107D9F722E0A4E6E6
:10063000B1E001C01D92AD3AB207E1F70E940E177A
:100640000C941A2B0C940000F894E82FE295EF70AC
:10065000F0E031A1282F2F7081E090E001C0880FD9
:100660002A95EAF7382B31A392A18095892382A39A
:1006700078940895F894E82FE295EF70F0E031A1B6
:10068000282F2F7081E090E001C0880F2A95EAF7AB
:10069000982F9095932391A392A1892B82A378946C
:1006A000089508950C94510308950C9454030895EB
:1006B000E82FF0E0E558FE4F8081089508950F93EC
:1006C0001F93CF93DF930E942315809106018091A1
:1006D00006019AE0811190E090938E028AE0891BD6
:1006E00080938D02CFE3D1E08E01F80181918F01DB
:1006F0000E943A03F1E009341F07B9F784E30E942E
:100700003A0386EC0E943A0386E60E943A0386E3A7
:100710000E943A0382E30E943A0384E30E943A0370
:1007200086EC0E943A0386E60E943A0386E30E9422
:100730003A0382E30E943A0389910E943A0381E0DE
:10074000C934D807C9F7EFE8F1E0ABE7B1E011929F
:100750001D9281E0E33AF807D1F78AE00E94D214B3
:100760000E94DB06DF91CF911F910F910C942D1504
:10077000FF920F931F93CF93DF93CDB7DEB72A97E6
:100780000FB6F894DEBF0FBECDBF0E940915F82E3C
:1007900060918E02882309F451C08E010F5F1F4FB4
:1007A0008AE0F80111928A95E9F7862F90E0B80166
:1007B00085589E4F0E949015811123C080917A0127
:1007C0008F5F80937A018630B8F1E0918D02F0E07E
:1007D000E558FE4FD801CE010B9611921D92A81735
:1007E000B907D9F70E94E1068F2D2A960FB6F89423
:1007F000DEBF0FBECDBFDF91CF911F910F91FF9054
:10080000089510927A01A0918D02B0E0A558BE4FD4
:100810009E01255F3F4FF12C4D91F80191918F0181
:10082000491731F0AD0141505109FA019083F82E7A
:100830000217130789F7D6CFF12CD4CF70E0655893
:100840007E4F80918D0290E085589E4F0E949215B8
:100850000E945703C9CF6F927F929F92AF92BF922F
:10086000CF92DF92EF92FF920F931F93CF93DF937C
:100870000FE811E04FE3C42E41E0D42EC0E0D1E0F8
:10088000D601AD906D018A2D0E942403B0EABA957D
:10089000F1F73AE3E32E31E0F32EF70130E020E008
:1008A000B12C4191A42FA295AF70B0E090968C919D
:1008B00090E04F7002C0959587954A95E2F780FDCC
:1008C00094C08D2F022E01C0880F0A94EAF7B82A2F
:1008D0002F5F3F4F2530310521F78A2D0E943A03C3
:1008E000E0EAEA95F1F7D8018C91B81609F47FC0D7
:1008F000BC9281E0C82B0F5F1F4FB4E4CB16B1E070
:10090000DB0609F0BDCF10E000E0AA24A394B12CCF
:1009100020E7C22E21E0D22EF70191907F01892D90
:100920000E942403F0EAFA95F1F7C501002E01C0F8
:10093000880F0A94EAF7782F682F6095E6E6F1E0D1
:100940008FE3682E81E0782ED0E03191D3012D9194
:100950003D01422F42954F7050E0DA0190968C9104
:1009600090E02F7002C0959587952A95E2F780FD5B
:1009700040C0872F832B381731F09F012150310958
:10098000D9018C93D1E0CE16DF06F9F6892D0E94AD
:100990003A03043019F0B0EABA95F1F7CD2B61F5BE
:1009A0000F5F1F4F0530110509F0B6CF60918E0221
:1009B00070E065587E4F2C2F4AE08FE891E00E944E
:1009C000D3140E94B803C11101C0C82F8C2FDF912E
:1009D000CF911F910F91FF90EF90DF90CF90BF903C
:1009E000AF909F907F906F90089580E070CF80E0EF
:1009F00081CF862F8323BFCF80916B018093940199
:100A000080916C018093950180916D018093960196
:100A100080916E018093970180916F01809398017E
:100A2000BFCFCF93DF93FA016230710519F4223002
:100A3000310539F08FEF818381E090E0DF91CF9134
:100A400008951B9B33C02B9A239A47E050E02998C6
:100A5000EC01288130E0042E02C0359527950A94D8
:100A6000E2F720FF25C02B9A299A4150510978F7C7
:100A70002AE12A95F1F700C023982B9A118287E08A
:100A800090E02998299A23B123FBAA27A0F9B0E086
:100A9000AD01082E01C0440F0A94EAF72181242BEE
:100AA0002183019770F790E080E0C8CF2B98CCCFDE
:100AB0002B98DACF0F93CF93DF9300D000D0CDB730
:100AC000DEB71B828FEF8C8389838A83E0910001DC
:100AD000F09101010FEF22E030E0AE014F5F5F4F78
:100AE00062E070E0CE01039609958A810F900F9025
:100AF0000F900F90DF91CF910F910895219A239835
:100B00002B9A0895AF92BF92CF92DF92EF92FF920D
:100B10000F931F93CF93DF9300D000D0CDB7DEB7F4
:100B20005C016B017A0182E08B831FEF1C831983C8
:100B30001A83E0910001F09101010FEF22E030E013
:100B4000AE014F5F5F4F62E070E0CE010396099502
:100B50008A81F501808383E08B831C8319831A8348
:100B6000E0910001F091010122E030E0AE014F5F21
:100B70005F4F62E070E0CE01039609958A81F6012D
:100B8000808384E08B831C8319831A83E0910001A6
:100B9000F091010122E030E0AE014F5F5F4F62E073
:100BA00070E0CE01039609958A81F701808381E088
:100BB00090E00F900F900F900F90DF91CF911F91C9
:100BC0000F91FF90EF90DF90CF90BF90AF9008957E
:100BD000845F91098530910538F54091900221E0BC
:100BE00030E0F90102C0EE0FFF1F8A95E2F7CF0156
:100BF000FB0122812223A9F0842B80939002409153
:100C00008F025091900260919102709192028091B6
:100C10009302909194020E94361A0E94DB1980E0A0
:100C2000089580958423E9CF81E008950C947E0592
:100C3000CF93DF9300D00F92CDB7DEB78091A401A0
:100C40009091A5019C012F5F3F4F3093A501209308
:100C5000A40162E370E00E948D2A892B89F50E942D
:100C60005A05803319F581E08093A301AE014F5FEF
:100C70005F4FBE016E5F7F4FCE0103960E948205DB
:100C80006A81619560939102798171957093920266
:100C90008B8187FF0DC040918F025091900280910F
:100CA0009302909194020E94361A02C01092A301FE
:100CB0000E94DB190F900F900F90DF91CF91089554
:100CC0008091A3018823A1F3D1CF81E008950C94F2
:100CD000E80508950C9469061F93CF93DF9300D025
:100CE00000D00F92CDB7DEB749835A836B83309122
:100CF000A60189819A8131111DC06623B9F0222392
:100D0000A9F00E94F60C182F682F89819A810E9401
:100D10009F0C69817A81812F0F900F900F900F9017
:100D20000F90DF91CF911F910C94A61D0E94CD0CC6
:100D3000182FEFCF0E94F60C69817A81EDCFFC016C
:100D4000262F408151816281738184810C946C06CD
:100D500081E00895CF93DF93EC0160E00E949F064D
:100D6000BE01DF91CF910C946A06E1E0F0E0DF0173
:100D700002C0AA0FBB1F6A95E2F7BD01DF0102C0E6
:100D8000AA0FBB1F4A95E2F76A2B01C0EE0F2A9506
:100D9000EAF7962F9823961302C08E2B0895E095BC
:100DA0008E230895242F462F682F8091CE010E9414
:100DB000B5060C945C0C0E94B8140E9431080C9487
:100DC00052030C94550380E00E9432080C941806DC
:100DD000089508950E94F40B0E94E9062FEF84E322
:100DE0009CE0215080409040E1F700C000000C944E
:100DF00025230F931F93CF93DF938C0161E00E9413
:100E00009F06EC01B8010E94AC1A8823D9F1B80101
:100E1000CE010E9467068823A9F1B801CE010E9485
:100E2000051F882379F1B801CE010E94B41B8823E5
:100E300049F1B801CE010E946F1E882319F1F80113
:100E40008281882361F0CA35FDE5DF0721F170F466
:100E5000C115ECE5DE07A1F0CE3DDC45C9F0C801C7
:100E6000DF91CF911F910F910C946506CB358DE5E5
:100E7000D807A1F0CC35DD4591F70E940911EFCFDD
:100E80000E94EA0680E0DF91CF911F910F910895B3
:100E90000E94C211F7CF0E941211E1CF0E941511DA
:100EA000DECF0C94E8060E9483210E9432080C9445
:100EB0005107DF92EF92FF920F931F93CF93DF932F
:100EC000E82FF0E0E453FC4FD490282F2695269588
:100ED000269530E0F901E459FB4F0491877010E04A
:100EE000082E02C0159507950A94E2F701701127A4
:100EF000F901E45AFB4FE490F12C082E02C0F5945E
:100F0000E7940A94E2F791E0E922FF24F901E45B17
:100F1000FB4FC491D0E002C0D595C7958A95E2F702
:100F2000C170DD270115110519F081EE0E94A70897
:100F3000E114F10419F086EE0E94A7088D2D0E949D
:100F40008C09EF2819F086EE0E941F09012B19F079
:100F500081EE0E941F09CD2B51F08CE2DF91CF91E1
:100F60001F910F91FF90EF90DF900C948C09DF910F
:100F7000CF911F910F91FF90EF90DF900895EF9226
:100F8000FF920F931F93CF93DF93EC01162F0AE08C
:100F90008881882309F454C0813009F04EC08981CA
:100FA000813099F47E0122E0E20EF11C8A810E94D8
:100FB0008C09E7012196812F815050F3EFE9FFE082
:100FC0003197F1F700C00000F7CF823041F47E0185
:100FD00082E0E80EF11C8A810E94A708EACF8330E4
:100FE00041F47E01E2E0EE0EF11C8A810E941F09AD
:100FF000E0CF843011F02196DDCF2A81229690E057
:1010000080E0AE014F5F5F4F2053330B2A30310534
:1010100048F0019778F2EFE9FFE03197F1F700C06F
:101020000000F7CF089FB001099F700D1124C9017E
:10103000860F971F2981EA01E4CF0E945907BACF92
:10104000DF91CF911F910F91FF90EF90089560E095
:101050000C94BF0708950C942A0881E008950C941D
:101060002D080895CF93C82F0E942B088C2FCF9165
:101070000C942F08CF93DF93CDB7DEB72B970FB625
:10108000F894DEBF0FBECDBF4F83588769877A873C
:101090008B8761110E9464101E821D8285E0FE0113
:1010A0003796DE01119601900D928A95E1F78C81B9
:1010B0009D81892B89F449815A816B817C818D8145
:1010C0009E810E94850F2B960FB6F894DEBF0FBE4F
:1010D000CDBFDF91CF91089589819A8189238F3F78
:1010E00051F3CE0101960E94A8068111E4CFEBCF07
:1010F000FC01808191810C94230D0F931F93CF935A
:10110000DF9300D000D000D0CDB7DEB7082F162F68
:101110000E94151A29834B835C836D837E83002391
:1011200099F0312B4981532F6B817C818D819E8178
:1011300026960FB6F894DEBF0FBECDBFDF91CF91DC
:101140001F910F910C94361A10953123EBCFCF934A
:10115000C82F882309F471C08238C1F40E9483210A
:1011600081FD6BC089E30E941F100E9487102FEF42
:1011700081EE94E0215080409040E1F700C00000F3
:1011800089E30E942610CF910C9487108338A1F434
:101190000E94832180FD51C083E50E941F100E94A0
:1011A00087102FEF81EE94E0215080409040E1F7CE
:1011B00000C0000083E5E5CF8438A1F40E948321BC
:1011C00082FD3BC087E40E941F100E9487102FEF12
:1011D00081EE94E0215080409040E1F700C0000093
:1011E00087E4CFCF8CEF8C0F813A90F46C2F8091F5
:1011F0000401909105010E94ED21882329F08C2F94
:101200000E9426100E9487108C2F0E941F10BBCFB7
:1012100080E28C0F883048F4C77081E001C0880FED
:10122000CA95EAF70E944710AECFC03F30F08C2F2E
:101230000E949E17CF910C947118CF910895882326
:1012400009F452C0823871F40E94832181FF4CC09E
:1012500089E30E941F100E94871089E30E942610D4
:101260000C948710833859F40E94832180FF3CC07E
:1012700083E50E941F100E94871083E5EFCF84381A
:1012800059F40E94832182FF2FC087E40E941F101F
:101290000E94871087E4E2CF9CEF980F913AF0F21A
:1012A00090E2980F983050F4877091E001C0990F48
:1012B0008A95EAF7892F0E944D10D2CF9BE5980FAF
:1012C000933020F490E080E00C94AF2198E5980FE3
:1012D000973120F490E080E00C94C521803F20F00D
:1012E0000E94F8170C94711808951F93CF93DF9301
:1012F000182FEB010E94A708209731F4812FDF916E
:10130000CF911F910C941F098FE99FE00197F1F78E
:1013100000C000002197F0CF70E060E0893311F445
:1013200060E570E00C947509882321F00E94471055
:101330000C9487100895882321F00E944D100C947E
:1013400087100895BF92CF92DF92EF92FF920F9392
:101350001F93CF93DF936C01D62FC72FFC0112810F
:10136000F580F2949FE0F9220E943D10E82E882338
:10137000B9F0E12E1123A1F08C2F807F803421F071
:1013800080E28D0F8830D0F080919A0282FD16C0E5
:1013900082E00E94D8100E943D1091E0E82EE926DC
:1013A000BC2EB2948FE0B822FBE0FB1508F468C0B5
:1013B000EB2DF0E0E45EF44D0C94A12AE12CF0CF8B
:1013C0000C2F0F70C07F11F00295007F112399F050
:1013D000002359F080E28D0F883010F0D11107C042
:1013E000802F0E9447100E9487108D2F41C0802FB0
:1013F0000E945710F8CF8D2F0E941F09002309F477
:101400003FC080E28D0F883010F0D11104C0802FD2
:101410000E944D1003C0802F0E945D100E94871013
:101420002FC00C2F0F70C07FC03211F00295007FCB
:10143000DD2381F0D13009F46AC0112309F474C0AE
:10144000FF2009F46AC0F601858180FFCECF8F703E
:10145000858363C080919A0282FF39C0112359F0BD
:10146000002329F0802F0E9447100E94871080E0FF
:101470000E94A70805C080E00E941F090111C7CF84
:101480002B2D2850330B2430310520F40E9483216A
:101490000E943208EE2009F44CC10E94391080FDF0
:1014A00048C1F60112820E9433100E946D0CC601E1
:1014B0000E94BA0B0E943310DF91CF911F910F91C0
:1014C000FF90EF90DF90CF90BF900C94780C112399
:1014D00089F0F11006C00E946A10802B0E949409C6
:1014E000CFCF21E0F212F7CF0E946A10802B0E942A
:1014F0007010C6CFF11006C00E947D10802F0E9490
:101500009B09BECF31E0F31609F4BACFF5CF112312
:1015100031F085E08F1508F4B3CF802FDFCF94E052
:101520009F1508F4ADCFEACFFF2041F3D93349F43A
:10153000FFEF27EE33E0F15020403040E1F700C0EC
:1015400000008D2F0E941F099BCF8D2F112391F03A
:101550000E949E17ED2FE45FFF0BE530F10568F464
:1015600061E070E001C0660FEA95EAF7812F0E9402
:101570007D0886CF0E94F817EDCF0E94711880CFAA
:101580008C2F837079F511117BCF4D2F42954695A5
:101590004770440F440F8D2F8F70042E01C0880FA9
:1015A0000A94EAF72D2F2071D4FF07C02FE030E016
:1015B00001C0220F4A95EAF72095C695C695C370DB
:1015C000822BC23049F058F4C13019F00E944E0C01
:1015D00057CF0E94490C54CF0E94530C51CF0E9408
:1015E000470C4ECF8695112311F08C2F81708823E4
:1015F00009F446CF4D2F429546954770440F440F4E
:101600008D2F8F70042E01C0880F0A94EAF72D2FBA
:101610002071D4FF07C02FE030E001C0220F4A95AF
:10162000EAF72095C695C695C370822BC23049F063
:1016300058F4C13019F00E94940C22CF0E948F0CF4
:101640001FCF0E94990C1CCF0E945C0C19CFCF7049
:10165000112329F08C2F0E946D0C8D2F3FCF8D2FE1
:101660000E949B098C2F0E94780C0ACFD23F51F127
:1016700060F4D03FB9F0D13F81F0112309F449C0A3
:10168000F110B3CE8C2F8F7121C0D33F11F1D43F15
:10169000A1F780919A0282FF26C08C2F8F711123AF
:1016A00011F314C0112349F0F4E0FF1508F4E8CE5B
:1016B0008C2F8F710E94840CE3CE25E02F1508F447
:1016C000DFCEF6CF8C2F8F711111CDCF0E946D0C14
:1016D000D7CE112329F08C2F8F710E94650CD0CEAC
:1016E0000E94620CCDCE112349F0CF718C2F0E9445
:1016F0006D0C63E08C2F0E94BD10C2CE81E00E9471
:10170000D81031E03F1508F0BBCE82E00E94D8101F
:10171000B7CEFF2059F0D93309F013CF8FEF97EEF2
:10172000E3E081509040E040E1F709CF8C2F8F71CA
:101730009ACFDF91CF911F910F91FF90EF90DF90A3
:10174000CF90BF9008950F931F93CF93DF93EC0139
:10175000688179818A810E942D0D8C010E949E0CE6
:101760000E94460CB801CE01DF91CF911F910F91DD
:101770000C94A209CF93DF93EC018B819C81892B80
:1017800029F08881998189238F3F59F4DF91CF9186
:101790000895CE010E94A30BCE01DF91CF910C944E
:1017A000AA06CE010E94F9068111F3CF0E943D10D6
:1017B000882361F38A81882349F380919A0282FD0C
:1017C000E5CF82E0DF91CF910C94D8100E94641095
:1017D0000E9467100E9487100E9498190C9471183B
:1017E0000E942D100C94E60B0E9454100C94F00BE8
:1017F000E92FE295EF70E250EE3070F4F0E0E85D32
:10180000F44D0C94A12A803F19F020F4883E20F476
:1018100081E00895843FE1F380E00895883EC0F3BD
:10182000813FD1F7F5CF93FB882780F90895FC011C
:10183000808191810E94230D0C94F80BCF93DF934C
:1018400000D000D00F92CDB7DEB70F900F900F9061
:101850000F900F90DF91CF910895CF93DF9300D039
:1018600000D000D0CDB7DEB726960FB6F894DEBF15
:101870000FBECDBFDF91CF91089508950C943D0C1C
:101880000E943E0C8093CF010C94E60B08950C94BB
:10189000400C9091CF01892B0C94400C9091CF017A
:1018A00089230C94400C9091CF0189270C94400C13
:1018B0000C943D0C0C94580C0E945A0C8093CE0151
:1018C0000C94E60B80E00C945C0C91E001C0990F45
:1018D0008A95EAF7892F0C945C0C21E030E001C076
:1018E000220F8A95EAF78091CE01822B0C945C0C32
:1018F00021E030E001C0220F8A95EAF7209580911F
:10190000CE0182230C945C0C21E030E001C0220F58
:101910008A95EAF78091CE0182270C945C0C909115
:10192000CE01892B0C945C0C9091CE0189230C94F0
:101930005C0C9091CE0189270C945C0C0895E92FE2
:10194000EE0FEE0F9E0F890F982F977041E001C0A8
:10195000440F9A95EAF786958695869593E0899F38
:10196000F0011124E955FE4F30E020E070E0519184
:10197000DF011197CB01022E02C0969587950A943C
:10198000E2F7817081958527842385278C932F5FCB
:101990003F4F2330310559F70895E92FEE0FEE0F31
:1019A0009E0F890F982F977086958695869523E0D0
:1019B000829FF0011124E955FE4F50E040E080E0A5
:1019C000219130E0092E02C0369527950A94E2F75E
:1019D00021703327042E01C0220F0A94EAF7822BCC
:1019E0004F5F5F4F4330510559F70895CF92DF9213
:1019F000FF920F931F93CF93DF936C010091CE0161
:101A00008091CF01082BC7E0D0E010E0FC2EC80188
:101A10000C2E02C0959587950A94E2F780FD0CC0C4
:101A20002197A0F7F12C8F2DDF91CF911F910F916E
:101A3000FF90DF90CF900895B6018C2F0E947F1306
:101A4000019771F3F0CFCF93DF93EC010E94F60C76
:101A5000BE01DF91CF910C947F131F93CF93DF933F
:101A6000EB019091A601992331F0CB01DF91CF9149
:101A70001F910C94230D882379F0CB010E94F60C62
:101A8000182F682FCE010E949F0CBE01812FDF917D
:101A9000CF911F910C947F13CB010E94CD0C182F76
:101AA000F4CF1F93CF93DF93C091D00116E08091C4
:101AB000D1018C1304C0DF91CF911F910895D0E024
:101AC0001C9FF0011D9FF00D1124EE52FE4F40812E
:101AD000518162817381848195810E942D0C2196B0
:101AE000C770E5CF40910202509103026091040259
:101AF0007091050280910602909107020C942D0CC2
:101B0000FF920F931F93CF93DF9380910702807F03
:101B1000D1F4809104028823B1F08091D00110911A
:101B2000D1016091020270910302A0910502B0916F
:101B30000602062F0723C0910201D091030196E00F
:101B4000F92E181306C0DF91CF911F910F91FF90CE
:101B5000089590E0109711F00F3F19F401968770E7
:101B6000F0CFF89E9001F99E300D1124F901EE524C
:101B7000FE4F41814713F2CF40814613EFCF4281A0
:101B80004111ECCF438154814A1B5B0B4C175D071D
:101B900028F7809107028F70806180930702F90116
:101BA000E952FE4F80818F708061808382E092E0F5
:101BB0000E94BA0BDF91CF911F910F91FF900C946F
:101BC000510DAF92BF92CF92DF92EF92FF920F939F
:101BD0001F93CF93DF93CDB7DEB761970FB6F8941D
:101BE000DEBF0FBECDBF8C0185E0F801DE011D9682
:101BF00001900D928A95E1F7F801E28082E0C82E0B
:101C000082E0D82E6091050270910602611571057F
:101C100009F45FC19091020220910302892F82236F
:101C20008F3F09F456C140815181A380B480F09068
:101C30000402F501E61BF70BBF01E0910201F091F0
:101C40000301FF2009F4F6C080910702382F307F8E
:101C50006E177F0708F0AFC0311179C0FE2C251335
:101C600023C0941321C0E1101FC08F708061809346
:101C700007020E94720DC6010E94BA0B80910702F2
:101C8000F80185838F2D61960FB6F894DEBF0FBEE5
:101C9000CDBFDF91CF911F910F91FF90EF90DF901B
:101CA000CF90BF90AF900895AB2829F0842F852363
:101CB0008F3F09F027C180E0F82FF170DF2E80FF01
:101CC0003CC08091D0012091D10136E0821315C033
:101CD0004D875E878D859E850E94230D292F229535
:101CE0002F702230F0F0243018F59F70F1F0F801D9
:101CF0009581907FD1F4D12C1EC090E0389FF001E7
:101D0000399FF00D1124EE52FE4F6181651306C01C
:101D10006081641303C062816E110FC001968770E9
:101D2000D5CF9F7011F0882331F3805E883018F38F
:101D3000C8010E94BA0BFD2CA5CFEE2009F4A2CF5A
:101D400080910702816080930702F12C9BCF2513BD
:101D500006C0941304C0F801EE2009F487C0C8013E
:101D60000E94170C882319F1EE2009F180910702D7
:101D7000803270F0209102023091030238872F8365
:101D80001986BB86AA868C87CE0107960E94BA0B5D
:101D900086E0F801A2E0B2E001900D928A95E1F7A9
:101DA0000E94800D0E94720DFF24F3946BCFC80136
:101DB0000E94BA0BF9CF311113C07A2DB98AA88AC3
:101DC0006E2D89890E941E0C82E092E00E94BA0B5F
:101DD00086E0F60111928A95E9F70E94720DB5CF5F
:101DE00025130FC094130DC0E1100BC0F8018583BB
:101DF000C8010E94BA0B86E0F60111928A95E9F7B4
:101E000041CFC8010E94170C882389F2EE2079F295
:101E100080910702803208F4BBCF209102023091FA
:101E200003023A8329831B82BD82AC828E83CE015A
:101E30000196ACCF6E177F0708F03EC0FE2CEE2057
:101E400009F4B5CF25132AC0941328C08091070246
:101E500080FD1BC0982F907FC1F0F8018583903FD3
:101E600031F0982F907F905F8F70892B8583C80108
:101E70000E94BA0B86E0F801A2E0B2E001900D9258
:101E80008A95E1F70E94720DFDCE86E0F801A2E08E
:101E9000B2E001900D928A95E1F7F4CEC8010E945C
:101EA000170C811175CF8091070281608093070222
:101EB000C8010E94BA0BE6CE7A2DB98AA88A6E2D87
:101EC00089890E941E0C86E0F60111928A95E9F735
:101ED000D9CFEE2009F46BCFC8010E94170CF82E61
:101EE000882309F464CF86E0F801A2E0B2E0019013
:101EF0000D928A95E1F782E092E00E9478080E94B4
:101F0000800DC0CF81E08E25D7CE1F93CF93DF9376
:101F1000CDB7DEB72C970FB6F894DEBF0FBECDBF9E
:101F20004F83588769877A878B879C87CE0107966E
:101F30000E94E10D882369F08A859B85892B39F001
:101F40004F815885842F85238F3F09F071C016E09B
:101F50005FC086E0FE013796DE01119601900D927A
:101F60008A95E1F78A859B85892B89F38F819885EE
:101F700089238F3F61F32091D10130E0C90101969F
:101F8000877099274091D0014817190671F40E9473
:101F9000F40B1092D1011092D00186E0E2E0F2E061
:101FA000DF011D928A95E9F7D2CF96E0929FD0018A
:101FB000939FB00D1124AE52BE4FFE013196019099
:101FC0000D929A95E1F78093D1010E94510DBFCFF8
:101FD000819FC00111248E529E4F0E94E10D8823E3
:101FE000E9F0E091D0011E9FF0011124EE52FE4F66
:101FF0004081518162817381848195810E942D0C81
:102000008091D00190E00196877099278093D0014C
:102010008091D0019091D1018913DACF2C960FB61F
:10202000F894DEBF0FBECDBFDF91CF911F91089511
:1020300069857A858B859C850E942D0C88CF682FB9
:1020400080910401909105010C942322682F8091C6
:102050000401909105010C94252280910401909136
:1020600005010C9427228091080285958595859518
:1020700008958091080287700895909108029770E2
:1020800081E009F480E00895809114020895909110
:102090001402892B80931402089580959091140264
:1020A0009823909314020895109214020895909129
:1020B0001302892B80931302089580959091130247
:1020C000982390931302089510921302089510928A
:1020D0001202089580910902089508950C946D10DC
:1020E00090919A0292FD08C090910902981721F0F0
:1020F000809309020C946E10089580910902882340
:1021000029F01092090280E00C946E100895E0917D
:102110000401F0910501809114028083E091040193
:10212000F0910501808190911302892B8083E091C9
:102130000401F0910501808190911202892B808326
:1021400090910902992381F0E0910401F091050139
:102150008081892B808380910401909105010E94E8
:10216000DB2181110E947D10809104019091050175
:102170000C94962108950C94BA1090919A0292FDB5
:1021800010C098E0899F90011124622B609308028F
:102190000E946D0C809108028595859585950C941B
:1021A000BB100C946D0C1092080280E00C94BB10D4
:1021B000909108028095892380930802282F277028
:1021C00091F4282F082E000C330B9217130659F0A8
:1021D00090919A0292FD07C08595859585950E94FC
:1021E000780C0C94D310089590919A0292FB2227B8
:1021F00020F9281769F080FB92F990939A02809158
:10220000990290919A020E943F1182E00C94D8109A
:10221000089580919A0282FB882780F991E08927AE
:102220000C94F41081E00C94F41080E00C94F41001
:102230006FEF7FEF90E080E00C94042B90E080E063
:102240000E94E02A893E9E4F11F40C94551A80E0BA
:10225000089582E090E00C94D82A83E090E00C94FA
:10226000D82ACF9384E090E00E94D82AC82F82E237
:1022700090E00E94D82A982F8C2FCF910895CF9369
:10228000C92F682F84E090E00E94E62A6C2F82E23A
:1022900090E0CF910C94E62AAB01BC018FE090E076
:1022A0000C94F82AAB01BC0183E190E00C94F82A6D
:1022B00060E070E0CB010C94521160E070E0CB0163
:1022C0000E944C110C94581169EE7EEF90E080E072
:1022D0000E94042B60E082E090E00E94E62A60E029
:1022E00083E090E00E94E62A1092CF0160E084E053
:1022F00090E00E94E62A60E082E290E00E94E62AF6
:1023000060E085E090E00E94E62A60E086E090E0F0
:102310000E94E62A6FEF87E090E00E94E62A40E004
:1023200050E0BA0188E090E00E94F82A60E08DE079
:1023300090E00E94E62A40E050E0BA0188E190E097
:102340000E94F82A60E087E190E00E94E62A40E0DF
:1023500050E0BA018CE190E00E94F82A70E060E061
:1023600080E290E00E94042B40E050E0BA0188E156
:1023700090E00E94F82A80E00E946E1A0E94941A4F
:102380000C945D110C946411682F8EE090E00C9415
:10239000E62A0E94CA2260932E0270932F02809335
:1023A00030029093310260932A0270932B02809343
:1023B0002C0290932D02089585B7806885BF85B75C
:1023C000806885BF0895089508950C94E3110895D9
:1023D0000C94E7110E94DC118EE994E10E947921AE
:1023E0000E94E4110C94E5110C94091508950895C8
:1023F0000E94F6110C94F7110E94B5220E945D1400
:102400000E94A31A0E945F030E949C1B0E94160652
:102410000C94E811AF92BF92CF92DF92EF92FF92AD
:102420000F931F93CF93DF93CDB7DEB72A970FB6E5
:10243000F894DEBF0FBECDBF0E942B0481110E9415
:10244000C91186E1A82E82E0B82E10E000E0C02E6F
:10245000802F0E945803E82EF501F1905F01F816D5
:1024600009F44FC08091320281FD0E945E038F2DDE
:102470008E25D12CFF24F394982F9F21E9F10E94FF
:10248000F411882399F0DE82CF82EF2081E009F4F5
:1024900080E088870E94BE228160782F9A87898792
:1024A0004E815F8168858A850E943A08F801EA5E5C
:1024B000FD4F8081F826F0820E948C180E94180639
:1024C0000E94832190911502891791F10E94832126
:1024D000809315022A960FB6F894DEBF0FBECDBFCB
:1024E000DF91CF911F910F91FF90EF90DF90CF90F0
:1024F000BF90AF900C943208D394FF0CF5E0DF123C
:10250000BBCF0F5F1F4F0431110509F0A0CF8FEF34
:1025100089838A831B820E94BE228160782F9D83DB
:102520008C8349815A816B818D810E943A08C4CF86
:102530002A960FB6F894DEBF0FBECDBFDF91CF91C4
:102540001F910F91FF90EF90DF90CF90BF90AF90D1
:102550000895CF93DF930E948313EC01811522E548
:10256000920778F5811531E5930708F098C08F3F01
:10257000910509F0B8F4803F910508F06FC0853AE5
:10258000910540F48430910548F4019739F0D0E08A
:10259000C0E004C0805E91090897C8F7CE01DF91C2
:1025A000CF910895811540E5940708F05CC0C115EE
:1025B00080E4D80708F054C0C11590E2D90770F341
:1025C000E6CF811526E5920718F5811535E59307C5
:1025D00008F07DC0811544E5940708F073C0982F7A
:1025E000969596959E0123703327C115D34508F41F
:1025F0005BC0C1E0D0E002C0CC0FDD1F2A95E2F73E
:1026000030E2939FC0011124C82BD92BDA68C6CFC2
:10261000C1159AE5D90778F4C11529E5D20708F064
:1026200060C0C11538E5D30708F4B1CFDC2FCC2743
:10263000C06FD06AB3CFCE0190568115904208F09A
:10264000A6CF8D2F8F710E941A1490E0982F8827A3
:1026500088279F719C012C2BE90141C0D0659ECF3A
:10266000DF70D06A9BCFE4E096958795EA95E1F715
:1026700083702C2F26952695237090E2299F900138
:102680001124382B8C2F8370C1E0D0E002C0CC0F16
:10269000DD1F8A95E2F7C22BD32BDC687FCFD82FC2
:1026A000CC27C16FD06A7ACFC1E0D0E002C0CC0F96
:1026B000DD1F2A95E2F720E2929FC0011124C82B6A
:1026C000D92BEBCFD82FCC27C46FD06A67CF0E940D
:1026D0001A14C82FD0E0DC2FCC27CC27DF71D062B2
:1026E0005DCF8C2F8F700E941A1434E0D695C79559
:1026F0003A95E1F7CF709C2FEC01D0694FCF0E9443
:10270000A61D0C94A91282389105B1F1B0F4813361
:10271000910509F475C048F48932910509F469C03E
:102720008A32910509F473C008958533910509F43F
:1027300059C08933910501F10895833E9105A9F1AE
:1027400038F4803E9105F9F0823E910549F10895F3
:10275000863E9105A9F1873E9105C9F1843E910518
:1027600019F520919A0221FF1FC08091990284FDE2
:1027700014C087EE90E00895209199022370A1F093
:1027800080EE90E008952091990220FD47C030919D
:102790009A0230FF09C024FF44C090E080E004C0EA
:1027A0002091990222FDF7CF08952091990222FDF0
:1027B0003BC030919A0230FDE3CF24FFF5CFEDCF3F
:1027C0002091990223FFF0CF24FDE7CFD2CF2091B3
:1027D000990223FD2CC030919A0231FFEECF84EE96
:1027E00090E008952091990225FFDECF89E290E0E4
:1027F00008952091990225FFD7CF85E390E00895B1
:102800002091990226FFD0CF8AE290E0089520918E
:10281000990226FFC9CF81E390E0089589E390E013
:10282000089583EE90E0089582EE90E0089586EE9C
:1028300090E008959091990292FF06C0282F287188
:102840002830F9F4877F846093FF06C0282F287111
:102850002831F1F4877E846120919A0220FF06C01E
:10286000382F38713830D9F4877F816021FF06C056
:10287000282F28712831D1F4877E816194FD877ECD
:102880000895282F24712430F9F68B7F8860DCCFDF
:10289000282F2471243101F78B7E8861DDCF382FFA
:1028A0003171313019F78E7F8860E0CF282F217188
:1028B000213121F78E7E8861E1CF1092950210922E
:1028C000960210929702109298020895CF92DF928A
:1028D000EF92FF926B017C010E94091581110EC0DD
:1028E0000E94CA22C61AD70AE80AF90AC0929502BB
:1028F000D0929602E0929702F0929802FF90EF90A9
:10290000DF90CF9008950F931F930E94091588239D
:1029100021F01F910F910C94CA220E94CA220091AB
:102920009502109196022091970230919802600FC3
:10293000711F821F931F1F910F91089580E00895CA
:102940000C9418110E942B048FE39CE90197F1F776
:1029500000C000000E942B0480E00E94580380FF0A
:1029600004C00E94A0140C94252308950C94A21472
:102970000E941E11811102C00E94C2110E942911E1
:10298000809332020E94311190939A0280939902AF
:102990000E94B6140E942D110E94470C8091CE0116
:1029A0000C945A0C0895FF920F931F93CF93DF93CB
:1029B000F82E092F162FD72FC42F222349F081E09C
:1029C000809335020E94BE2290933402809333029A
:1029D000809135028823A1F08091330290913402D6
:1029E0000E94D622059760F0EF2DF02FA12FBD2F6A
:1029F000CE0FDF2FD11DEC17FD0741F410923502E9
:102A0000DF91CF911F910F91FF90089581918D9348
:102A1000F2CF80913602811107C00E94802A88235C
:102A200051F081E08093360281E09091360291303E
:102A300009F080E0089582E0809336020E947B2AAC
:102A4000F3CF0C9409150E942115809306010E9472
:102A5000091581110C943B1508950E9409158111E7
:102A600002C00C943D15089581E0909137029A3090
:102A700008F080E008950C94B81F0C94BB1FEF92EF
:102A8000FF920F931F93CF93DF937901C82F880F85
:102A9000DD0B41155105A9F08AE08C9FF0018D9F57
:102AA000F00D1124E95FFE4F83819481885C9D4F76
:102AB000228130E04217530708F49A01A9010E94CD
:102AC000CF2ACE010E94C520892B11F501151105D1
:102AD000E9F08AE08C9FF0018D9FF00D1124E95FF1
:102AE000FE4F458150E00417150708F4A8018AE05D
:102AF0008C9FF0018D9FF00D1124E95FFE4F6681E0
:102B00007781685C7D4FC7010E94CF2A81E001C0B8
:102B100080E0DF91CF911F910F91FF90EF9008958A
:102B20000C94AC160C94C8160F931F93CF93DF939D
:102B300000D000D0CDB7DEB76091590270915A0233
:102B400080915B0290915C020E94E52211E0643664
:102B500071058105910518F10E9483146E5F7F4F06
:102B60008F4F9F4F69837A838B839C8310E000E0B3
:102B700030E020E044E050E0BE016F5F7F4F82E034
:102B80000E943F15182F882351F00E94CA2260939B
:102B9000590270935A0280935B0290935C02812FDA
:102BA0000F900F900F900F90DF91CF911F910F9189
:102BB0000895AF92BF92CF92DF92EF92FF920F9360
:102BC0001F93CF93DF93CDB7DEB72B970FB6F89453
:102BD000DEBF0FBECDBF7B01C0905301D09054012A
:102BE00001E010E09E01255F3F4F50E040E070E0C3
:102BF00060E080E00E943F15182F882309F448C048
:102C000056018FEFA81AB80A6091550270915602CA
:102C100080915702909158020E94E5226436710516
:102C20008105910568F10AE010E09E012F5F3F4F9A
:102C300050E040E070E060E081E00E943F15D82E57
:102C40006AE070E0C5010E949D1B11E09B8598130E
:102C500010E01D2141F10E94CA2260935502709339
:102C6000560280935702909358028AE0FE013196F3
:102C7000ABE4B2E001900D928A95E1F711E013C048
:102C80006AE070E0C5010E949D1B9B858913CBCF34
:102C90008AE0F6013196DE01119601900D928A9537
:102CA000E1F71111E2CF8AE0EBE4F2E0D701019005
:102CB0000D928A95E1F7812F2B960FB6F894DEBF1F
:102CC0000FBECDBFDF91CF911F910F91FF90EF907D
:102CD000DF90CF90BF90AF900895AF92BF92CF9208
:102CE000DF92EF92FF920F931F93CF93DF937C01BC
:102CF0005B016A010E94341501E010E0882311F0A5
:102D00000AE010E0C1E0D0E0F894B501C701F60197
:102D100009957894811104C021960C171D075CF465
:102D2000DF91CF911F910F91FF90EF90DF90CF90A7
:102D3000BF90AF900895CC9F9001CD9F300D300D86
:102D4000112490E080E045E34A95F1F700000196F8
:102D500082179307C1F7D8CF0F931F93CF93DF93B9
:102D6000EC018B0149ED55E10E946D16882351F06D
:102D700044E955E1B801CE01DF91CF911F910F9148
:102D80000C946D1680E0DF91CF911F910F91089503
:102D90000F931F93CF93DF93F894C0915301D09179
:102DA0005401CE0101962AE0FB01DC0101900D9255
:102DB0002A95E1F76AE070E00E949D1B8883789471
:102DC000F8946B857C858D859E85009147021091D6
:102DD00048022091490230914A0260177107820728
:102DE000930751F060934702709348028093490221
:102DF00090934A020E9466147894DF91CF911F91BC
:102E00000F9108950E94CA240E94FC110C94D624AC
:102E10000E94DA240E940A120C94F4240E94482290
:102E20000E94B1240E94EA110E9402170E94081712
:102E30000E94F811FBCF8091630280FF12C0609165
:102E40002A0185E0689FB0011124759567957595F5
:102E5000679560387105A8F561157105A1F1862F98
:102E6000089581FF09C060912A0185E0689FB00143
:102E7000112475956795EDCF60912A0182FD0AC0F6
:102E8000809162028823D1F09091290160912A01FA
:102E9000891728F085E0689FB0011124DACF869F5A
:102EA000B001112485E0869F9001879F300D112489
:102EB000692F70E0C9010E948D2ACBCF65E070E0D8
:102EC000CECF8FE7089581E008958091630280FF5F
:102ED0000CC06091260170E07595679575956795B2
:102EE0006115710549F1862F089581FF06C0609133
:102EF000260170E075956795F3CF6091260182FDFC
:102F00000BC0909161029923A1F0609125018091FD
:102F10002601961738F0682F70E06038710500F3CD
:102F20008FE70895899FC001112470E00E948D2AC7
:102F3000F4CF61E070E0D7CF81E00895803F31F4B5
:102F40000E941B178195809367020895813F19F4B1
:102F50000E941B17F8CF823F31F40E941B17819506
:102F6000809366020895833F19F40E941B17F8CFDF
:102F7000893F29F40E9465178093680208958A3F6B
:102F800021F40E9465178195F7CF8B3F31F40E94A1
:102F9000651781958093690208958C3F19F40E940A
:102FA0006517F8CF9CE0980F953070F4845F990B0B
:102FB00021E030E001C0220F8A95EAF78091650296
:102FC000822B8093650208958D3F31F480916302D6
:102FD00081608093630208958E3F21F480916302A3
:102FE0008260F7CF8F3FB9F7809163028460F1CFA1
:102FF00040916602803F59F48091670287FF0DC0BF
:103000001092670241110BC01092620208C0813F0A
:1030100081F48091670218169CF3442381F080911B
:10302000680290916902892B09F05AC010926102DE
:103030000895823F49F447FFF0CF109266028091D5
:1030400067028111ECCFE0CF833F19F41416ACF383
:10305000E4CF90916802893F29F41916F4F6109292
:103060006802DBCF8A3F19F497FFD7CFF8CF909152
:1030700069028B3F29F497FFD0CF10926902CDCF20
:103080008C3F19F41916CCF3C8CF9CE0980F9530FB
:1030900090F4845F990B21E030E0B90102C0660F23
:1030A000771F8A95E2F7CB0180959091650289237D
:1030B00080936502B2CF8D3F31F4809163028E7FA1
:1030C00080936302AACF8E3F21F4809163028D7FAB
:1030D000F7CF8F3F09F0A1CF809163028B7FF0CFB4
:1030E00008950E94BE229C01909166028091670221
:1030F000982B21F03093600220935F029091680238
:1031000080916902982B21F030935E0220935D023A
:1031100084E692E00C94A121EF92FF920F931F930B
:10312000CF93DF9300D000D000D0CDB7DEB786E0DC
:10313000E4E6F2E0DE01119601900D928A95E1F746
:10314000E0906602F09067020091680210916902B7
:103150001092660210926702109268021092690241
:103160008E2D8F2991F080915F02909160020E94D4
:10317000D622AC0190916202992309F43FC080915C
:103180002B018417150608F447C0802F812B91F07E
:1031900080915D0290915E020E94D622AC019091D6
:1031A0006102992309F477C08091270184171506DD
:1031B00008F47FC08091660290916702892B9091FC
:1031C0006802892B90916902892B11F00E94711875
:1031D00086E0FE013196A4E6B2E001900D928A9558
:1031E000E1F726960FB6F894DEBF0FBECDBFDF9194
:1031F000CF911F910F91FF90EF90089520912C0196
:103200008AE0289F900111242417350708F0BDCFCC
:103210009F5F9093620202C09F3FD1F7EE2059F06A
:103220000E941B179FEF1E140CF491E0899F802DC4
:10323000112480936602FF2059F00E941B179FEF14
:103240001F140CF491E0899F802D11248093670254
:1032500030916602332309F498CF2091670222232C
:1032600009F493CF45EB3403C0011124992359F09D
:103270009093660245EB240390011124332339F027
:103280003093670282CF81E080936602F3CF81E0C2
:10329000809367027ACF209128018AE0289F9001CD
:1032A00011242417350708F085CF9F5F90936102A2
:1032B00002C09F3FD1F7002359F00E9465179FEF8E
:1032C00010160CF491E0899F802D112480936802E0
:1032D000112359F00E9465179FEF11160CF491E02D
:1032E000899F802D112480936902309168023323D5
:1032F00009F460CF20916902222309F45BCF45EBEA
:103300003403C0011124992359F09093680245EBCE
:10331000240390011124332339F0309369024ACFFA
:1033200081E080936802F3CF81E08093690242CF0D
:1033300086E0E4E6F2E0DF011D928A95E9F710925B
:10334000620210926102109263020895EF92FF925E
:103350000F931F93CF93DF93CDB7DEB72C970FB6A4
:10336000F894DEBF0FBECDBF49835A836B837C8345
:103370008D839E83EF82F88609871A872B873C8787
:1033800046E050E0BE01695F7F4FCE0101960E948A
:10339000C22A21E0892B09F420E0822F2C960FB657
:1033A000F894DEBF0FBECDBFDF91CF911F910F917B
:1033B000FF90EF900895EF92FF920F931F93E0908C
:1033C0006A02F0906B0200916C0210916D022091E4
:1033D0006E0230916F0240917002509171026091C3
:1033E00072027091730280917402909175020E9432
:1033F000A619882321F080E792E00E94A121109273
:10340000720210927302109274021092750286E09A
:10341000E0E7F2E0AAE6B2E001900D928A95E1F7CA
:103420001F910F91FF90EF900895CF93DF9300D0FD
:1034300000D000D0CDB7DEB786E0E0E7F2E0DE01F5
:10344000119601900D928A95E1F729813A814B817D
:103450005C816D817E8180E090E026960FB6F894C5
:10346000DEBF0FBECDBFDF91CF910895CF93DF9325
:1034700000D000D000D0CDB7DEB749835A836B832C
:103480007C838D839E8386E0FE013196A0E7B2E0C7
:1034900001900D928A95E1F726960FB6F894DEBF5B
:1034A0000FBECDBFDF91CF91089583E290E00E94DF
:1034B000D82A823289F484E290E00E94D82A8130AE
:1034C00059F485E290E00E94D82A91E0843009F016
:1034D00090E0892F8170089580E0FCCFCF93C82FB2
:1034E0006FEF811162E283E290E00E94E62A6FEFC3
:1034F000C11161E084E290E00E94E62A6FEFC11101
:1035000064E085E290E0CF910C94E62A089586E28B
:1035100090E00E94D82A682F70E090E080E0089543
:1035200086E290E00C94E62A80E00E946E1A60E049
:1035300070E0CB010E94901A0E941E1D0E94081E7E
:1035400081E00C946E1A0E94861A0E94551A81110D
:1035500002C00C94941A0895CF93FB01C281CC232E
:1035600009F19C0122513F452031310520F582515E
:103570000E94181EC0E08C2FCF91089581E00E9418
:103580006D0C43E062E081E00E94D206F3CF81E05F
:103590000E94780C43E062E081E00E94D206EBCF0B
:1035A00082E0F6CF8031FFE59F0789F381319F45A7
:1035B000B9F3C1E0E0CF8031EFE59E07F9F2813148
:1035C0009F45C9F682E0DBCF2FEFFC0120830895F1
:1035D000EF92FF920F931F93CF93DF93EC01062F8F
:1035E000E881E150E33108F05EC0F0E0EA5CF44DC0
:1035F0000C94A12A198289E08A83602FCE01DF9181
:10360000CF911F910F91FF90EF900C948A238981A5
:10361000823069F0833071F08130D9F40E94CA227F
:103620000E94A72A6A837B838C839D83E6CF0E94B6
:10363000871AF6CF7E0182E0E80EF11C10E0812FA0
:103640000E945803F70181937F011F5F1431B9F77E
:10365000D4CF602FCE010E94E41ACFCF898182306F
:10366000C1F76A817B818C819D810E94A72A0E947B
:10367000901AC3CF4B816A8189810E94F01C9827E0
:10368000892798279D838C83B8CF2C813D81322751
:10369000232732274B816A8189810E94091DADCF82
:1036A0000E941E1DAACF8FEF8883A7CF0E94B31D53
:1036B0008983A3CF0E94B51D9827892798279A83CD
:1036C00089839BCF6B8170E089819A81AE014C5FC9
:1036D0005F4F9827892798270E94B81D8ECF6B814E
:1036E00070E089819A81AE014C5F5F4F98278927EE
:1036F00098270E94DE1D81CF0E94081E7ECF0E9467
:10370000DE1CD6CF6B8170E089819A81AE014C5F5F
:103710005F4F9827892798270E94561D6ECF6B818F
:1037200070E089819A81AE014C5F5F4F98278927AD
:1037300098270E947C1D61CF0895FC01680F791FB6
:103740008FEF91E36E177F0709F408952191822787
:1037500028E030E087FF06C0880F89272150310913
:10376000C9F7F0CF880FFACFCF93DF93EC01FB01BD
:103770008281882309F420C1C330FDE5DF07C8F545
:10378000CA3F9CE5D90730F49E0122503C452431C4
:10379000310598F50E94311190939A028093990215
:1037A000C031FCE5DF0709F4E0C008F061C0C830B3
:1037B0009CE5D90709F4CBC088F5C430FCE5DF07E8
:1037C00009F4B3C0E8F4C2309CE5D90709F4A7C0F6
:1037D000809199028260C330DC4509F4A3C08091D6
:1037E000990290919A020E943F110E94F40B80E08E
:1037F00004C0C136EDE5DE0769F2DF91CF9108958F
:10380000809199028061C630FCE5DF0709F48AC027
:1038100008F48FC080919902806284C080919902DF
:103820008D7FCC309CE5D90709F47CC070F4809181
:1038300099028C60CA30FCE5DF0709F473C008F414
:103840008AC0809199028E7F6DC080919902877F96
:10385000CE309CE5D90709F465C0809199028B7F31
:10386000CF30DC4508F45EC0809199028F7E5AC04B
:10387000CC3FFCE5DF0709F474C040F5C4319CE59A
:10388000D90709F48AC058F4C231FCE5DF0709F40E
:1038900074C008F46EC080919902837F43C0CA3F10
:1038A0009CE5D90709F449C008F04DC0C531DC4595
:1038B00009F095CF8091990282FB992790F921E038
:1038C000922790FB82F990FB83F92CC0C1158DE5FE
:1038D000D80709F458C088F480919A028360CE3FDB
:1038E000ECE5DE0769F180919A028D7FCF3FDC45E0
:1038F00038F180919A028C7F23C0C2308DE5D807C1
:1039000009F458C008F452C0C136DD4509F067CF4C
:1039100090919902892F8F7E94FF806103C08091DE
:1039200099028160809399025ACF809199028460B4
:10393000F9CF809199028860F5CF80919A028160D9
:1039400080939A024CCF80919A028260F9CF809145
:1039500099028064E7CF0E94F40B809199028068FD
:10396000E1CF80919A028E7FEBCF809199028F7D7B
:10397000D9CF809199028F7BD5CF0E94F40B809193
:1039800099028F77CFCF80919A02982F909591705E
:103990008E7F892B90FB81F9D3CF0E94F40B9091FD
:1039A0009902892F97FB87F98058BCCF81E00E944C
:1039B000C41115CF80E0FBCF81E01FCF84E00895D4
:1039C00050E0440F551F9AE0699F400D511D11248E
:1039D00098EC899F400D511D1124CA0187960895C6
:1039E0000F931F93CF93DF930E94E01C8C010E94E2
:1039F000D82AC82FD0E0DC2FCC27C80101960E941E
:103A0000D82A9E01282BC901DF91CF911F910F91D8
:103A100008950F931F93CF93DF93122F032F0E94CC
:103A2000E01CEC01602F0E94E62A612FCE01019676
:103A3000DF91CF911F910F910C94E62AAF92BF9224
:103A4000CF92DF92EF92FF921F93CF93DF938CEA96
:103A5000C82E80E0D82ED0E07601C0E014C0F50179
:103A600025913491412F6C2F8D2F0E94091D82E0EA
:103A7000A80EB11C1F5F153091F78AE0E80EF11C0B
:103A8000CF5FC43119F0570110E0E9CFDF5F88EC58
:103A9000C80ED11CD43001F7DF91CF911F91FF9058
:103AA000EF90DF90CF90BF90AF900895EF92FF928C
:103AB0000F931F93CF93DF93EC018A017C01E60EF5
:103AC000F71ECE018796CE15DF0539F4DF91CF9131
:103AD0001F910F91FF90EF900895C03223E0D2071D
:103AE00040F40E94D82AF80180830F5F1F4F21966F
:103AF000E8CFF8011082F9CFCF92DF92EF92FF92D8
:103B00000F931F93CF93DF937C016A018C01060F03
:103B1000171FEC01CE018796C017D10749F4DF913A
:103B2000CF911F910F91FF90EF90DF90CF9008956C
:103B3000C03223E0D20740F4FE01EE19FF09EC0D7C
:103B4000FD1D60810E94E62A2196E4CF462F843035
:103B500038F4743128F4653018F4672F0C94F01C95
:103B600090E080E0089580E1089589EB90E0089569
:103B7000EF92FF920F931F93CF93DF93EC018A0193
:103B80007C01E60EF71ECE01895B9C4FCE15DF054A
:103B900039F4DF91CF911F910F91FF90EF9008952D
:103BA000C93BD10540F40E94D82AF80180830F5FF9
:103BB0001F4F2196E8CFF8011082F9CFCF92DF9204
:103BC000EF92FF920F931F93CF93DF937C016A01D3
:103BD0008C01060F171FEC01CE01895B9C4FC017AB
:103BE000D10749F4DF91CF911F910F91FF90EF9092
:103BF000DF90CF900895C93BD10540F4FE01EE1946
:103C0000FF09EC0DFD1D60810E94E62A2196E4CF9C
:103C1000CF93DF93C7E4D3E060E0CE010E94E62AB1
:103C20002196C11584E0D807B9F7DF91CF910895A7
:103C3000DF92EF92FF920F931F93CF93DF9300D009
:103C400000D0CDB7DEB7F82E8FE08F1540F08FEFA4
:103C500093E00E94D82A07E413E08823C1F00F9074
:103C60000F900F900F90DF91CF911F910F91FF90C8
:103C7000EF90DF900895011584E0180781F3C801E3
:103C80000E94D82A811101C0FA940F5F1F4FF110D2
:103C9000F2CF19821A821B821C82DD24D394780110
:103CA0008FEFE81AF80AC8010E94D82A89831A827D
:103CB0008823A9F29FEF980F933078F48A83D982F2
:103CC0000E5F1F4FC7010E94D82A8B83882339F2C9
:103CD000CE0101960E942708E2CF8701F9CFCF934A
:103CE000DF93EB0186319C4511F50E9444109A81C7
:103CF000992399F08A7A91E009F490E09093760202
:103D0000811109C089E20E941F100E94871080E083
:103D1000DF91CF91089585E3F6CF809176028111EE
:103D200004C089E20E942610F0CF85E3FBCF81E03A
:103D3000EFCF0F931F93CF93DF93C42FD22FFC01AC
:103D400082818823C9F0409379020E94BE22909319
:103D500078028093770280E28C0F883008F050C0A0
:103D6000C77081E001C0880FCA95EAF7DF91CF9153
:103D70001F910F910C94940910917902141335C07E
:103D800080917702909178020E94D622883C91051A
:103D900060F5C0E2CD0F1D17B9F080E2810F8830C9
:103DA00040F4177081E001C0880F1A95EAF70E946D
:103DB0009B09C83048F481E09D2F977001C0880F9F
:103DC0009A95EAF70E949409802F0E948C09C830C6
:103DD000B8F4D77081E001C0880FDA95EAF7DF9177
:103DE000CF911F910F910C949B0980E28C0F88302A
:103DF00038F4C77081E001C0880FCA95EAF7EFCFA9
:103E0000DF91CF911F910F9108950F939C01CB01EA
:103E1000233F4CE5340759F1A8F4283DFCE53F0762
:103E200001F1293D4CE53407D1F1273D3C4591F4A2
:103E300006E221EE41EE67ED7CE50E94991E80E0EE
:103E40000F910895253FFCE53F07E9F0B0F0263FCC
:103E50003C45F9F0FC018281882339F11092790206
:103E6000EFCF07E225EE45EE68ED7CE5E6CF06E212
:103E700021EE40EE63EF7CE5E0CF07E225EE44EE75
:103E800064EF7CE5DACF06E221EE42EE65EF7CE5F9
:103E9000D4CF07E225EE46EE66EF7CE5CECF08E212
:103EA00021E045EE69ED7CE5C8CF81E0C9CF8EE128
:103EB0004A9B02C08150E1F74A9BFECF08955A9871
:103EC00080E28A95F1F75A9A0895FC013BE03A9511
:103ED000F1F798E020E080E031E040E14A95F1F729
:103EE000880F4A9B02C08160232742E04A95F1F780
:103EF000000040E14A95F1F7915079F790E19A95E9
:103F0000F1F799B132E03A95F1F7000040E14A95B6
:103F1000F1F792FB992790F992272081920F9083D5
:103F20000895EF92FF920F931F93CF93DF930F9219
:103F3000CDB7DEB719828C017C01E60EF11C0E159F
:103F40001F0561F481E09981911180E00F90DF916C
:103F5000CF911F910F91FF90EF9008950E94571FEE
:103F6000CE0101960E94651FF80181938F01E7CF72
:103F7000529A5A9A089552985A9AEA9AE9E6F0E0C3
:103F800080818F7C808308956150770B91E001C020
:103F9000990F6A95EAF720E031E0911108C02223D9
:103FA00091F05A9A80E28A95F1F75A980895492F2C
:103FB000482339F05A9A232740E24A95F1F796951B
:103FC000ECCF5A98F9CF5A98EDCFFF920F931F93E9
:103FD000CF93DF93EC018C01060F111DC017D107A1
:103FE00031F4DF91CF911F910F91FF900895F990D7
:103FF0000E945F1F68E08F2D0E94C41FEFCF1F92A9
:104000000F920FB60F921124EF92FF920F931F930E
:104010002F933F934F935F936F937F938F939F93D0
:10402000AF93BF93EF93FF93CF93DF930F92CDB7EF
:10403000DEB719820E94571FCE0101960E94651FAC
:10404000A82FA695A695A695282F229525709A2F7C
:104050009570290F922F937026952695920F982789
:1040600097708981982B09F075C0A43008F072C050
:1040700080E18A95F1F75A9A529AB2E0BA95F1F72F
:1040800000C05A98EA2EF12CEAE0AE9FD00111242C
:10409000A95FBE4F1896ED91FC9119973097B1F03A
:1040A000609153017091540116962D913C91179790
:1040B000260F371F13968D919C911497680F791FC7
:1040C00015964C91159712968C9109958AE08E9DC4
:1040D000F0018F9DF00D1124E95FFE4F658166238D
:1040E00051F0209153013091540186819781820FC4
:1040F000931F0E94E51F0E945F1FF0E1FA95F1F700
:104100005A9852985A9A80E18A95F1F78AE08E9DE2
:1041100080018F9D100D1124095F1E4FD80112964A
:104120006C911297662371F12091530130915401E3
:1041300013968D919C91820F931F0E94911FD8011D
:10414000ED91FC91882311F088E001C082E080832A
:104150000E94571F0F90DF91CF91FF91EF91BF9178
:10416000AF919F918F917F916F915F914F913F910F
:104170002F911F910F91FF90EF900F900FBE0F9016
:104180001F901895ED91FC91DFCF0F931F93CF9364
:10419000DF93EC0104970CF0A9C08AE08C9FF0013A
:1041A0008D9FF00D1124E95FFE4F80819181892B55
:1041B00009F49CC0F894529A5A9885E08A95F1F7D0
:1041C00000008C2F869585709C2F9570890F982FF5
:1041D000937086958695890F8E0193E0000F111FCD
:1041E0009A95E1F7082B0E945F1F00C068E0802FBE
:1041F0000E94C41FA0E1AA95F1F752985A9A4A9BCF
:1042000027C087E090E04A9925C08AE08C9F800112
:104210008D9F100D1124095F1E4FF80165816623E3
:10422000A1F1209153013091540186819781820F31
:10423000931F0E94911F811128C0529A5A9AD80147
:10424000ED91FC9182E08083789482E090E016C04A
:1042500000C0D5CF0197B9F4529A5A9A8AE08C9F40
:10426000F0018D9FF00D1124E95FFE4F0190F08168
:10427000E02D81E08083789481E090E0DF91CF9120
:104280001F910F91089500C0BECF0E94571FB0E24A
:10429000BA95F1F75A98529AE0E1EA95F1F78AE077
:1042A0008C9FF0018D9FF00D1124E95FFE4F62811C
:1042B000662351F020915301309154018381948100
:1042C000820F931F0E94E51F0E945F1F8AE08C9F50
:1042D000F0018D9FF00D1124E95FFE4F0190F081F8
:1042E000E02D1082789490E080E0C8CF84E090E0E8
:1042F000C5CF9093650180936401089590938002E7
:1043000080937F0208950E940915811103C0809156
:104310007A020895E0917F02F0918002309721F0B7
:104320000190F081E02D099480E00895E0917F02F2
:10433000F0918002309721F00280F381E02D099402
:104340000895E0917F02F0918002309739F022E0E9
:10435000DC012C930480F581E02D099408952091CF
:104360007D0230917E022817390771F090937E020A
:1043700080937D02E0917F02F0918002309721F0DE
:104380000680F781E02D0994089520917B023091F9
:104390007C022817390771F090937C0280937B028E
:1043A000E0917F02F0918002309721F00084F18546
:1043B000E02D099408959C012E5F3F4FAC01485FAA
:1043C0005F4F80E02417350709F40895F9019191B2
:1043D0009F019923B9F38F5FF5CF662349F0FC0164
:1043E000329608962191261729F0E817F907D1F798
:1043F00080E0089581E008959C01FC0132969FEFD2
:1044000080E04191461751F09F3F19F4411101C0DE
:10441000982F8F5F8630A9F79F3F09F40895290FE1
:10442000311D97FD3A95F90162830895FC0132969A
:1044300008962191261303C0DF0111971C92E817FB
:10444000F907B9F708950C94FC210C9416220296F2
:1044500026E0FC0111922A95E9F7089508950C943D
:104460002E22811105C081E0809381020C942F22BD
:1044700082E0FACF83E0809381020C942F220C9487
:10448000312281E0809381020C942F220C944122EE
:1044900008958091A402843031F10E94E3061092C5
:1044A000820288E190E020E40FB6F894A89580930A
:1044B00060000FBE2093600083B7817F846083BF5C
:1044C00083B7816083BF7894889583B78E7F83BFDD
:1044D0000FB6F894A8958091600088618093600081
:1044E000109260000FBE089508950895CF930E9422
:1044F00074220E942B040E947522C0E08C2F0E941F
:104500005803811105C0CF5FC431C1F7CF91089521
:1045100081E0FCCF0E94F40B0C9453071F921FB64E
:104520001F9211248F939F93AF93BF938091820228
:10453000811113C080919C0290919D02A0919E02D6
:10454000B0919F024196A11DB11D80939C02909352
:104550009D02A0939E02B0939F02BF91AF919F9145
:104560008F911F901FBE1F90189582E084BD93E02D
:1045700095BD9AEF97BD80936E0008952FB7F8947C
:1045800080919C0290919D02A0919E02B0919F0209
:104590002FBF08952FB7F89460919C0270919D02EF
:1045A00080919E0290919F022FBF08959C014FB76A
:1045B000F89480919C0290919D02A0919E02B091EE
:1045C0009F024FBF821B930B0895CF92DF92EF9211
:1045D000FF922FB7F894C0909C02D0909D02E0907B
:1045E0009E02F0909F022FBFA7019601261B370B5A
:1045F000480B590BCA01B901FF90EF90DF90CF90A3
:10460000089578941F921FB61F9211248F939F9341
:10461000AF93BF9380919C0290919D02A0919E02C6
:10462000B0919F020196A11DB11D80939C029093B1
:104630009D02A0939E02B0939F02BF91AF919F9164
:104640008F911F901FBE1F90189587E797E7909353
:1046500001088093000888E19AE00FB6F894A895C5
:10466000809360000FBE90936000FFCF80918B021B
:104670000895089508959C0184E08093E9009FEFD8
:104680008091E800915085FD06C085ED8A95F1F78F
:1046900000009111F5CF8091E80085FF0CC050E03B
:1046A00040E066E070E0C9010E949B258091E8002F
:1046B0008E778093E8000895CF93DF93EC0181E03B
:1046C0008093E9008FEF9091E800815095FD06C03E
:1046D00095ED9A95F1F700008111F5CF8091E800F2
:1046E00085FF14C050E040E068E070E0CE010E9419
:1046F0009B258091E8008E778093E80088E0FE019A
:10470000A3E8B2E001900D928A95E1F7DF91CF9195
:1047100008950895CF93FC01603221F58091A402A1
:10472000843001F5C091E900CF702091EC00922F08
:10473000917020FD90E8C92B82E08093E900809180
:10474000E80080FF0CC050E040E060E270E0CF0184
:104750000E949B258091E8008E778093E800CF70BF
:10476000C093E900CF9108958091A302811109C0FF
:104770000E947A270E94D7278091E200846080936C
:10478000E20008951092A30208950C9441226091D2
:10479000A00281E0611101C080E00C943A22909166
:1047A000A40281E0943009F080E06091A0020C94B2
:1047B0003F2242E061EC81E00E94F62642E261EC99
:1047C00084E00E94F62642E261EC82E00E94F62636
:1047D00042E260EC83E00E94F6269091A40281E020
:1047E000943009F080E06091A0020C943122809115
:1047F000A602833009F462C030F48130D9F18230EE
:1048000009F49EC008958A3009F48AC08B3009F4F7
:1048100070C0893009F051C08091A502813209F041
:104820004CC08091A9029091AA02009719F00297BA
:1048300009F043C08091E800877F8093E800809171
:10484000E80082FF36C09091F3008091F200029759
:1048500031F48091F100813011F0863021F48091A3
:10486000F10080938B028091E8008B778093E800C1
:104870000C942A278091A502813AF9F48091E800EE
:10488000877F8093E8008091A9029091AA02892BEA
:1048900061F468E083E892E070E00E94392680913C
:1048A000E8008B778093E800089560E090E080E076
:1048B000F3CF8091A4028111C2CF08958091A50207
:1048C000813AD9F78091A9029091AA02892BA9F780
:1048D0008091E800877F8093E8008091E80080FF66
:1048E000FCCF809139018093F1008091E8008E77B0
:1048F000BDCF8091A502813201F78091A9029091EC
:10490000AA02892BD1F68091E800877F8093E80086
:104910000E942A278091A702809339010C94F40BFE
:104920008091A502813249F68091E800877F8093CB
:10493000E8000E942A278091A80280938C020895A3
:104940008091A502813A09F0B8CF8091E800877F75
:104950008093E8008091E80080FFFCCF80918C027A
:10496000C2CF84B7877F84BF0FB6F894A895809193
:104970006000886180936000109260000FBE80E844
:1049800090E00FB6F89480936100909361000FBEA1
:104990000C9446220E947A270E94D727E2EEF0E08C
:1049A00080818460808378940C94602A8DE291E009
:1049B0000C947E218091A4028530A9F48091A402F8
:1049C000853011F00C948A220E9449228091A20223
:1049D0008823A1F30E947622882381F30E948525F3
:1049E0000E94F40BEBCF0895CF93DF93CDB7DEB7E2
:1049F000A0970FB6F894DEBF0FBECDBF8091A40282
:104A0000843009F583E08093E9008091E80082FF1B
:104A10001AC08091E80090E085FF09C050E040E0B6
:104A200060E270E0CE0101960E94EA2591E080915B
:104A3000E8008B778093E800992329F060E2CE01AB
:104A400001960E94E81AA0960FB6F894DEBF0FBE3A
:104A5000CDBFDF91CF9108950C942E25292F3327B8
:104A60002330310521F168F42130310509F443C0C8
:104A70002230310509F444C090E080E030E020E0CD
:104A800026C02132310551F122323105A9F76330B8
:104A9000710590F7FB01EE0FFF1FE85AFE4F2081D2
:104AA00031816B5A7E4FFB01808190E010C09927C5
:104AB0008130910581F0009729F00297E9F6ECE743
:104AC000F4E002C0EAE9F4E0849190E09F01FA0189
:104AD000318320830895E2E9F4E0F6CF6330710575
:104AE00058F6660F771FFB01E25AFE4F2081318195
:104AF00089E090E0ECCF82E190E029EF34E0E7CF6D
:104B00008BE590E02EE934E0E2CF80E189BD82E1DF
:104B100089BD09B400FEFDCF8091D8008F7D8093C0
:104B2000D8008091E00082608093E0008091E000F6
:104B300081FDFCCF0895AF92BF92CF92DF92FF929A
:104B40000F931F93CF93DF936C01EB018A010E94B7
:104B50004927F82E811123C00115110539F0F801FC
:104B600080819181C81BD90BC80ED91EB12CA12CF4
:104B70002097A9F08091E80085FD22C08091E8008F
:104B80008E778093E80001151105A1F0F80180816E
:104B90009181A80EB91EB182A08285E0F82E8F2DDA
:104BA000DF91CF911F910F91FF90DF90CF90BF9039
:104BB000AF9008950E9449278823D1F2F82EEFCFB5
:104BC000F60181916F018093F1002197FFEFAF1AF9
:104BD000BF0ACECFAF92BF92CF92DF92FF920F93D8
:104BE0001F93CF93DF936C01EB018A010E94492749
:104BF000F82E811123C00115110539F0F8018081CB
:104C00009181C81BD90BC80ED91EB12CA12C20979D
:104C1000A9F08091E80085FD22C08091E8008B77A3
:104C20008093E80001151105A1F0F80180819181C0
:104C3000A80EB91EB182A08285E0F82E8F2DDF91DB
:104C4000CF911F910F91FF90DF90CF90BF90AF90C9
:104C500008950E9449278823D1F2F82EEFCF809142
:104C6000F100F60181936F012197FFEFAF1ABF0AA0
:104C7000CECFFC018091AB029091AC0286179707D2
:104C8000A0F06115710529F49091E8009E7790934A
:104C9000E80090E06115710551F4911108C0809110
:104CA000E80082FF34C080E00895BC01F2CF80911B
:104CB000A4028823C1F18530C1F18091E80083FD11
:104CC00030C08091E80082FDEACF8091E80080FF4B
:104CD000E1CF8091F3002091F200382F611571052A
:104CE00019F02830310558F091E02830310509F0ED
:104CF00090E02091E8002E772093E800CBCF8191BF
:104D00008093F100615071092F5F3F4FE7CF809191
:104D1000A402882341F0853041F08091E80083FFB0
:104D2000BECF81E0089582E0089583E00895FC01FC
:104D30008091AB029091AC0286179707A0F06115A5
:104D4000710529F48091E8008E778093E80090E067
:104D50006115710551F4911108C08091E80082FF3E
:104D600035C080E00895BC01F2CF8091A402882371
:104D7000C9F18530C9F18091E80083FD31C080918F
:104D8000E80082FDEACF8091E80080FFE1CF8091CA
:104D9000F3002091F200382F6115710519F02830C9
:104DA000310558F091E02830310509F090E080910C
:104DB000E8008E778093E800CBCF84918093F10058
:104DC0003196615071092F5F3F4FE6CF8091A40269
:104DD000882341F0853041F08091E80083FFBDCF0A
:104DE00081E0089582E0089583E00895982F973038
:104DF00028F08F708093E90081E008959093E90096
:104E0000242F762F50E0981731F07091EC0020910C
:104E1000ED005091F00021FD02C09F5FE8CF30917E
:104E2000EB003E7F3093EB003091ED003D7F3093FF
:104E3000ED003091EB0031603093EB007093EC00AB
:104E40002093ED005093F0002091EE0027FDE5CF78
:104E500080E008958091A50287FF13C08091E8004B
:104E600082FF06C08091E8008B778093E80004C041
:104E70008091A4028111F2CF08958091A402882329
:104E8000D9F38091E80080FFF8CF8091E8008E7719
:104E9000ECCF2091E4003091E50095E6A901209146
:104EA000EC00822F817020FF06C08091E80080FF17
:104EB00006C080E008952091E80022FD1AC080918C
:104EC000A402882389F0853089F08091EB0085FD6C
:104ED0000FC02091E4003091E50042175307F9F22A
:104EE0009150E1F684E0089582E0089583E008950A
:104EF00081E008950E94E8270E94F027E0EEF0E0AC
:104F0000808181608083E8EDF0E080818F7780830D
:104F100019BCA7EDB0E08C918E7F8C9380818F7E41
:104F200080831092A30208950F931F93CF93DF9372
:104F30000E94E8270E94F027C8EDD0E088818F7793
:104F4000888388818068888388818F7D888319BC65
:104F50001092A4021092A0021092A2021092A1023A
:104F600000EE10E0F80180818B7F80838881816072
:104F7000888342E060E080E00E94F626E1EEF0E007
:104F800080818E7F8083E2EEF0E08081816080838B
:104F9000808188608083F80180818E7F8083888112
:104FA00080618883DF91CF911F910F910895E8ED83
:104FB000F0E080818F7E8083E7EDF0E0808181608A
:104FC000808384E082BF81E08093A3020C949427C5
:104FD000E8EDF0E080818E7F80831092E2000895FA
:104FE0001092DA001092E10008951F920F920FB60E
:104FF0000F9211242F933F934F935F936F937F935F
:105000008F939F93AF93BF93EF93FF938091E100B2
:1050100082FF0BC08091E20082FF07C08091E10017
:105020008B7F8093E1000E945F2A8091DA0080FFED
:1050300019C08091D80080FF15C08091DA008E7F62
:105040008093DA008091D90080FF96C080E189BD0D
:1050500082E189BD09B400FEFDCF81E08093A40206
:105060000E94B4238091E10080FF19C08091E2008A
:1050700080FF15C08091E2008E7F8093E2008091D6
:10508000E20080618093E2008091D800806280938A
:10509000D80019BC85E08093A4020E94C7238091A8
:1050A000E10084FF2BC08091E20084FF27C080E1F3
:1050B00089BD82E189BD89B5982F917080FFFBCFB2
:1050C0008091D8008F7D8093D8008091E1008F7E01
:1050D0008093E1008091E2008F7E8093E2008091D6
:1050E000E20081608093E2008091A002882309F4AD
:1050F00049C084E08093A4020E94CF238091E10004
:1051000083FF29C08091E20083FF25C08091E100E8
:10511000877F8093E10082E08093A4021092A00236
:105120008091E1008E7F8093E1008091E2008E7F8C
:105130008093E2008091E20080618093E20042E08F
:1051400060E080E00E94F6268091F0008860809305
:10515000F0000E94C523FF91EF91BF91AF919F9105
:105160008F917F916F915F914F913F912F910F9010
:105170000FBE0F901F90189519BC1092A4020E94A8
:10518000C22370CF8091E30087FD93E09093A40247
:10519000B3CF1F920F920FB60F9211242F933F930C
:1051A0004F935F936F937F938F939F93AF93BF932F
:1051B000CF93DF93EF93FF93D091E900DF7080915D
:1051C000EC00C82FC17080FDC0E81092E90080910A
:1051D000F000877F8093F00078940E940D29109250
:1051E000E9008091F00088608093F000CD2BCF70B3
:1051F000C093E900FF91EF91DF91CF91BF91AF9103
:105200009F918F917F916F915F914F913F912F91DE
:105210000F900FBE0F901F9018951F93CF93DF93A1
:10522000CDB7DEB7AA970FB6F894DEBF0FBECDBFDD
:1052300085EA92E02091F100FC012193CF01F2E098
:105240008D3A9F07B9F70E94F7238091E80083FF0A
:105250001EC18091A5029091A6029A3008F017C154
:10526000E92FF0E0E75BF44D0C94A12A803899F027
:10527000823809F00CC18091A9028F70873008F044
:1052800006C18093E9008091EB0085FB882780F9B7
:105290001092E90006C08091A1029091A2029111A2
:1052A00082609091E800977F9093E8008093F100EE
:1052B0001092F1008091E8008E77E5C0882309F410
:1052C000D3C0823009F0E3C08091A7028111D6C01B
:1052D0008091A9028F702FEF280F263008F0D7C0D9
:1052E0008093E9002091EB0020FFC8C0933031F497
:1052F0008091EB0080628093EB00C0C09091EB0046
:1053000090619093EB0021E030E001C0220F8A957C
:10531000EAF72093EA001092EA008091EB0088609F
:10532000EACF8111B4C01091A7021F778091E300EA
:105330008078812B8093E3008091E800877F8093C1
:10534000E8000E942A278091E80080FFFCCF80912E
:10535000E30080688093E30082E0111183E0809392
:10536000A40295C08058823008F091C08091A702B5
:105370009091A8028C3D23E09207A1F583E08A83F7
:105380008AE289834FB7F894DE01139620E03EE06D
:1053900051E2E32FF0E050935700E49120FF03C067
:1053A000E295EF703F5FEF708E2F90E0EA30C0F033
:1053B000C7968D939D932F5F243159F74FBF8091EE
:1053C000E800877F8093E8006AE270E0CE010196F2
:1053D0000E9439268091E8008B778093E80057C0BF
:1053E000C096E7CF6091A9027091AA02AE014F5F0B
:1053F0005F4F0E942C25BC01892B09F448C0909175
:10540000E800977F9093E80089819A810E9497260F
:10541000E1CF8038E1F58091E800877F8093E80054
:105420008091A0028093F10045CF811130C090910E
:10543000A702923060F58091E800877F8093E800B2
:105440009093A0020E942A278091A002882311F045
:1054500084E005C08091E30087FDFACF81E080936E
:10546000A4020E94D92313C08091A702813079F44D
:1054700081E0933009F080E08093A2021092E9006D
:105480008091E800877F8093E8000E942A2780911E
:10549000E80083FF0AC08091E800877F8093E800DE
:1054A0008091EB0080628093EB00AA960FB6F8948F
:1054B000DEBF0FBECDBFDF91CF911F91089508953C
:1054C000CF938091A4028823A1F0C091E900CF700E
:1054D0009091EC00892F817090FD80E8C82B10928C
:1054E000E9008091E80083FD0E940D29CF70C093F0
:1054F000E900CF9108950E947A271092A40208959E
:10550000E8EDF0E08081806180838AE18A95F1F79F
:1055100000C08091D9008170089597FB072E16F482
:10552000009407D077FD09D00E94AE2A07FC05D071
:105530003EF4909581959F4F0895709561957F4FAA
:105540000895EE0FFF1F0590F491E02D099469274F
:10555000962769277827872778270895AA1BBB1BDA
:1055600051E107C0AA1FBB1FA617B70710F0A61B63
:10557000B70B881F991F5A95A9F780959095BC0184
:10558000CD010895FB01DC0104C08D9101908019CB
:1055900021F441505040C8F7881B990B0895FB0136
:1055A000DC0102C001900D9241505040D8F708959F
:1055B000F999FECF92BD81BDF89A992780B50895DB
:1055C000A8E1B0E042E050E00C940C2B262FF999B2
:1055D000FECF92BD81BDF89A019700B4021639F052
:1055E0001FBA20BD0FB6F894FA9AF99A0FBE089523
:1055F0000396272F0E94E72A0E94E62A252F0E9461
:10560000E72A242F0C94E72A0196272F0E94E72AE5
:105610000C94E62ADC01CB01FC01F999FECF06C00F
:10562000F2BDE1BDF89A319600B40D924150504060
:10563000B8F70895F894FFCFE009E009110A110ABC
:10564000400AA50A400A400AC00A270B360B360B4F
:10565000030C030C0C0C0C0C0E0C0C0C0C0C0C0C9A
:10566000030C030C130C0C0C0C0C130CFA1A071B78
:105670002E1B3A1B451B501B531B531B531B531B09
:10568000531B561B5A1B621B6F1B7C1B7F1B821BF1
:105690008F1B36295E29472A5E29472A9129B2297C
:0656A000472A092A152A21
:1056A6001105C8000A02019B02000000010000006B
:1056B600009B020000000A010000009B02040B0090
:1056C60000000000002808641E140A321E36235CFF
:1056D600233B23392389233A230134C6663632F520
:1056E600F6F79735F5F6F79735000000000000004D
:1056F600000000380240224976050B052D05B0044E
:04570600C904E904E5
:00000001FF
