:100000000C94DB020C9422030C9422030C94551FD5
:100010000C9422030C9422030C9422030C942203CC
:100020000C9422030C9422030C944B270C941F284D
:100030000C94E4210C9422030C9422030C942203CC
:100040000C9422030C9422030C9422030C9422039C
:100050000C9422030C9457220C9422030C94220338
:100060000C9422030C9422030C9422030C9422037C
:100070000C9422030C9422030C9422030C9422036C
:100080000C9422030C9422030C9422030C9422035C
:100090000C9422030C9422030C9422030C9422034C
:1000A0000C9422030C9422030C9422031F002000C2
:1000B0002100220001001A000800150017000100AD
:1000C0001600070009000A0001001B0006001900C5
:1000D00005000100E2008B002C002C00115F1E00C7
:1000E000350000000000000014002B00000000009C
:1000F0000000040039000000000000001D00E100C5
:10010000000000000000E300E0000000000000002C
:1001100027002600250024002300130012000C00F5
:1001200018001C0033000F000E000D000B003800FB
:100130003700360010001100650088008A002C008E
:10014000105F2D002E008900000000002F003000FD
:100150002A000000000034003200280000000000E7
:1001600087005200E50000000000500051004F00E1
:100170000000000001000100F400F50001001F0074
:100180002000210022000100010001000100010007
:100190000100010001000100010001000100010057
:1001A000010001000100010001000000000000004A
:1001B0001E0001000000000000000100010000001E
:1001C000000000000100010000000000000001002C
:1001D000010000000000000001000100010001001A
:1001E0000100270026002500240023000100010053
:1001F00001000100010001000100010001000100F7
:1002000001000100010001000100010001000100E6
:1002100000000000010001000100000000000100DA
:1002200001000100000000000100010001000000C9
:1002300000000100010001000000000001000100B9
:1002400001000100C25C0100010001000100C95C65
:100250000100010001000100C55C01000100010076
:100260000100C75C01000100010001000100010064
:10027000010000000000000001000100000000007B
:10028000000001000100000000000000010001006A
:10029000000000000000010001000000000000005C
:1002A0000100010001000100010001000100010046
:1002B0000100010001000100010001000100010036
:1002C0000100010001000100010001000100010026
:1002D0000100010001000100000000000100010018
:1002E000010000000000010001000100000000000A
:1002F00001000100010000000000010001000100F8
:1003000000000000010001000100010001000100E7
:1003100001000100010001000100010001000100D5
:1003200001000100010001000100010001000100C5
:1003300001000100010001000100000000000000B8
:1003400001000100000000000000010001000000A9
:10035000000000000100010000000000000001009A
:100360000100000000000000010001000100010088
:100370000100010001000100010001000100010075
:100380000100010001000100010001000100010065
:100390000100010001000100010001000100010055
:1003A0000000000001000100010000000000010049
:1003B0000100010000000000010001000100000038
:1003C000000001000100010000000000000000002A
:1003D000000000002A2B28000000000000000000A0
:1003E0000000000000000029000000002C1E342046
:1003F000212224342627252E362D3738271E1F206C
:100400002122232425263333362E37381F040506B0
:100410000708090A0B0C0D0E0F10111213141516F4
:100420001718191A1B1C1D2F3130232D35040506F2
:100430000708090A0B0C0D0E0F10111213141516D4
:100440001718191A1B1C1D2F3130354C00000000E5
:10045000000000000000000000000000000000009C
:10046000000000000000000000000000000000008C
:100470007E0F00D4FFFFFFC7000000781403680060
:1004800061006C00660063006C0069006600660035
:10049000000006036E003200000004030904090294
:1004A0005B00030100A0FA09040000010301010040
:1004B0000921110100012240000705810308000AFB
:1004C00009040100020300000009211101000122BA
:1004D0002200070582032000010705030320000115
:1004E000090402000103000000092111010001229A
:1004F00049000705840320000A12010002000000E1
:1005000008350321000100010200010660FF0961B6
:10051000A1010962150026FF0095207508810209D6
:1005200063150026FF00952075089102C00501099A
:1005300002A10185020901A1000509190129081577
:100540000025019508750181020501093009311561
:1005500081257F95027508810609381581257F95CB
:100560000175088106050C0A38021581257F950161
:1005700075088106C0C005010906A101050719E03B
:1005800029E7150025019508750181029501750877
:1005900081010507190029FF150026FF0095067542
:1005A0000881000508190129059505750191029535
:1005B0000175039101C011241FBECFEFDAE0DEBF49
:1005C000CDBF04B603FE27C08091CF029091D00228
:1005D000A091D102B091D2028730904BA740B04B8E
:1005E000D1F41092CF021092D0021092D102109248
:1005F000D20214BE84B7877F84BF0FB6F894A89543
:1006000080916000886180936000109260000FBE4E
:10061000E0E0F8E3099511E0A0E0B1E0E8E3F5E5FA
:1006200002C005900D92AA38B107D9F722E0AAE8D6
:10063000B1E001C01D92AF3CB207E1F70E94621623
:100640000C94632A0C940000F894E82FE295EF7064
:10065000F0E031A1282F2F7081E090E001C0880FD9
:100660002A95EAF7382B31A392A18095892382A39A
:1006700078940895F894E82FE295EF70F0E031A1B6
:10068000282F2F7081E090E001C0880F2A95EAF7AB
:10069000982F9095932391A392A1892B82A378946C
:1006A000089508950C94510308950895E82FF0E0FB
:1006B000EF55FE4F8081089508950F931F93CF93B8
:1006C000DF930E94161480910401809104019AE046
:1006D000811190E09093B6028AE0891B8093B50265
:1006E000C1E5D1E08E01F80181918F010E943A03AA
:1006F000F1E00B351F07B9F784E30E943A0386EC5B
:100700000E943A0386E60E943A0386E30E943A0377
:1007100082E30E943A0384E30E943A0386EC0E943B
:100720003A0386E60E943A0386E30E943A0382E394
:100730000E943A0389910E943A0381E0CB35D807A1
:10074000C9F7E5EBF1E0A1EAB1E011921D9281E079
:10075000E93CF807D1F78AE00E94C5130E94FF0523
:10076000DF91CF911F910F910C942014FF920F9362
:100770001F93CF93DF93CDB7DEB72A970FB6F894C8
:10078000DEBF0FBECDBF0E94FC13F82E6091B602F3
:10079000882309F451C08E010F5F1F4F8AE0F801D2
:1007A00011928A95E9F7862F90E0B8018F559E4FF8
:1007B0000E948314811123C08091A0018F5F8093D8
:1007C000A0018630B8F1E091B502F0E0EF55FE4FA0
:1007D000D801CE010B9611921D92A817B907D9F72F
:1007E0000E9405068F2D2A960FB6F894DEBF0FBE25
:1007F000CDBFDF91CF911F910F91FF90089510927F
:10080000A001A091B502B0E0AF55BE4F9E01255F9B
:100810003F4FF12C4D91F80191918F01491731F023
:10082000AD0141505109FA019083F82E02171307C8
:1008300089F7D6CFF12CD4CF70E06F557E4F8091E1
:10084000B50290E08F559E4F0E9485140E9455037B
:10085000C9CF6F927F929F92AF92BF92CF92DF9259
:10086000EF92FF920F931F93CF93DF9305EB11E06D
:1008700041E5C42E41E0D42EC0E0D1E0D601AD90D8
:100880006D018A2D0E942403B0EABA95F1F73CE489
:10089000E32E31E0F32EF70130E020E0B12C41915E
:1008A000A42FA295AF70B0E090968C9190E04F701D
:1008B00002C0959587954A95E2F780FD94C08D2FEB
:1008C000022E01C0880F0A94EAF7B82A2F5F3F4F23
:1008D0002530310521F78A2D0E943A03E0EAEA9596
:1008E000F1F7D8018C91B81609F47FC0BC9281E071
:1008F000C82B0F5F1F4FB6E5CB16B1E0DB0609F042
:10090000BDCF10E000E0AA24A394B12C26E9C22EAA
:1009100021E0D22EF70191907F01892D0E942403BE
:10092000F0EAFA95F1F7C501002E01C0880F0A948C
:10093000EAF7782F682F6095ECE8F1E081E5682E02
:1009400081E0782ED0E03191D3012D913D01422FED
:1009500042954F7050E0DA0190968C9190E02F70A4
:1009600002C0959587952A95E2F780FD40C0872FB4
:10097000832B381731F09F0121503109D9018C9315
:10098000D1E0CE16DF06F9F6892D0E943A03043035
:1009900019F0B0EABA95F1F7CD2B61F50F5F1F4F53
:1009A0000530110509F0B6CF6091B60270E06F55C1
:1009B0007E4F2C2F4AE085EB91E00E94C6130E94E7
:1009C000B603C11101C0C82F8C2FDF91CF911F91A9
:1009D0000F91FF90EF90DF90CF90BF90AF909F90DE
:1009E0007F906F90089580E070CF80E081CF862F58
:1009F0008323BFCF809191018093BA0180919201AE
:100A00008093BB01809193018093BC0180919401FC
:100A10008093BD01809195018093BE01BFCFCF939C
:100A2000DF9300D000D00F92CDB7DEB78091C9011F
:100A3000882301F18695C9F084E089831A821B829C
:100A40000E9414228160782F9D838C831092C901AB
:100A500049815A816B818D810F900F900F900F907B
:100A60000F90DF91CF910C945C0784E0898383E041
:100A70008A83E5CF0F900F900F900F900F90DF912A
:100A8000CF910895EF92FF920F931F93CF93DF932F
:100A900000D000D00F92CDB7DEB7162FE82EF12C84
:100AA000C701880F991F662339F189599E4FFC01B0
:100AB000808191819A83898301E00B830E941422B3
:100AC0008160782F9D838C83F701E753FE4F0127C8
:100AD000110F102B108349815A816B818D810F90EA
:100AE0000F900F900F900F90DF91CF911F910F916A
:100AF000FF90EF900C945C078B599E4FD8CF0E94CB
:100B00000F050C9454030E94420581E0089581E092
:100B1000089581E008950C94870508950C948D053F
:100B20001F93CF93DF9300D000D00F92CDB7DEB7E5
:100B300049835A836B833091CA0189819A8131112B
:100B40001DC06623B9F02223A9F00E94D20B182FF2
:100B5000682F89819A810E947B0B69817A81812F1C
:100B60000F900F900F900F900F90DF91CF911F91EA
:100B70000C944B1C0E94A90B182FEFCF0E94D20B94
:100B800069817A81EDCFFC01262F408151816281FC
:100B9000738184810C94900581E00895CF93DF9355
:100BA000EC0160E00E94C305BE01DF91CF910C947F
:100BB0008E05E1E0F0E0DF0102C0AA0FBB1F6A95DD
:100BC000E2F7BD01DF0102C0AA0FBB1F4A95E2F7A1
:100BD0006A2B01C0EE0F2A95EAF7962F98239613F9
:100BE00002C08E2B0895E0958E230895242F462F62
:100BF000682F8091F2010E94D9050C94380B0E9455
:100C0000AB130E9453070C9452030C947F0580E0B1
:100C10000C945407089508950E94D00A0E940B0670
:100C20002FEF84E39CE0215080409040E1F700C02A
:100C300000000C947B220F931F93CF93DF938C01C2
:100C400061E00E94C305EC01B8010E94511988239C
:100C5000D9F1B801CE010E948B058823A9F1B80112
:100C6000CE010E945B1E882379F1B801CE010E945B
:100C7000591A882349F1B801CE010E94C51D882365
:100C800019F1F8018281882361F0CA35FDE5DF079B
:100C900021F170F4C115ECE5DE07A1F0CE3DDC4595
:100CA000C9F0C801DF91CF911F910F910C94890574
:100CB000CB358DE5D807A1F0CC35DD4591F70E9405
:100CC000E50FEFCF0E940C0680E0DF91CF911F91DE
:100CD0000F9108950E949E10F7CF0E94EE0FE1CF72
:100CE0000E94F10FDECF0C940A060E94D9200E94C8
:100CF00054070C947306DF92EF92FF920F931F93A9
:100D0000CF93DF93E82FF0E0E453FC4FD490282FEB
:100D100026952695269530E0F901E459FB4F04917C
:100D2000877010E0082E02C0159507950A94E2F727
:100D300001701127F901E45AFB4FE490F12C082EC1
:100D400002C0F594E7940A94E2F791E0E922FF24C7
:100D5000F901E45BFB4FC491D0E002C0D595C79583
:100D60008A95E2F7C170DD270115110519F081EEB2
:100D70000E949F07E114F10419F086EE0E949F077C
:100D80008D2D0E948408EF2819F086EE0E94170826
:100D9000012B19F081EE0E941708CD2B51F08CE247
:100DA000DF91CF911F910F91FF90EF90DF900C9406
:100DB0008408DF91CF911F910F91FF90EF90DF900A
:100DC0000895EF92FF920F931F93CF93DF93EC015F
:100DD000162F0AE08881882309F454C0813009F075
:100DE0004EC08981813099F47E0122E0E20EF11C2F
:100DF0008A810E948408E7012196812F815050F357
:100E0000EFE9FFE03197F1F700C00000F7CF823043
:100E100041F47E0182E0E80EF11C8A810E949F0766
:100E2000EACF833041F47E01E2E0EE0EF11C8A81CC
:100E30000E941708E0CF843011F02196DDCF2A817F
:100E4000229690E080E0AE014F5F5F4F2053330B5E
:100E50002A30310548F0019778F2EFE9FFE0319749
:100E6000F1F700C00000F7CF089FB001099F700D97
:100E70001124C901860F971F2981EA01E4CF0E943E
:100E80007B06BACFDF91CF911F910F91FF90EF902A
:100E9000089560E00C94E10608950C944C0781E0FD
:100EA00008950C944F070895CF93C82F0E944D07C3
:100EB0008C2FCF910C945107CF93DF93CDB7DEB732
:100EC0002B970FB6F894DEBF0FBECDBF4F83588768
:100ED00069877A878B8761110E94400F1E821D826D
:100EE00085E0FE013796DE01119601900D928A95FC
:100EF000E1F78C819D81892B89F449815A816B812D
:100F00007C818D819E810E94610E2B960FB6F89494
:100F1000DEBF0FBECDBFDF91CF91089589819A8149
:100F200089238F3F51F3CE0101960E94CC05811198
:100F3000E4CFEBCFFC01808191810C94FF0BCF9328
:100F4000C82F882309F471C08238C1F40E94D920C7
:100F500081FD6BC089E30E94FB0E0E94630F2FEF9F
:100F600081EE94E0215080409040E1F700C0000005
:100F700089E30E94020FCF910C94630F8338A1F490
:100F80000E94D92080FD51C083E50E94FB0E0E9483
:100F9000630F2FEF81EE94E0215080409040E1F705
:100FA00000C0000083E5E5CF8438A1F40E94D92079
:100FB00082FD3BC087E40E94FB0E0E94630F2FEF6F
:100FC00081EE94E0215080409040E1F700C00000A5
:100FD00087E4CFCF8CEF8C0F813A90F46C2F809107
:100FE0000201909103010E944321882329F08C2F54
:100FF0000E94020F0E94630F8C2F0E94FB0EBBCF3A
:1010000080E28C0F883048F4C77081E001C0880FFF
:10101000CA95EAF70E94230FAECFC03F30F08C2F65
:101020000E94F216CF910C94C517CF910895882392
:1010300009F452C0823871F40E94D92081FF4CC05B
:1010400089E30E94FB0E0E94630F89E30E94020F56
:101050000C94630F833859F40E94D92080FF3CC060
:1010600083E50E94FB0E0E94630F83E5EFCF843877
:1010700059F40E94D92082FF2FC087E40E94FB0E02
:101080000E94630F87E4E2CF9CEF980F913AF0F251
:1010900090E2980F983050F4877091E001C0990F5A
:1010A0008A95EAF7892F0E94290FD2CF9BE5980FE6
:1010B000933020F490E080E00C94052198E5980F9F
:1010C000973120F490E080E00C941B21803F20F0C9
:1010D0000E944C170C94C51708951F93CF93DF936C
:1010E000182FEB010E949F07209731F4812FDF9189
:1010F000CF911F910C9417088FE99FE00197F1F7AA
:1011000000C000002197F0CF70E060E0893311F457
:1011100060E570E00C946D08882321F00E94230F95
:101120000C94630F0895882321F00E94290F0C94DA
:10113000630F0895BF92CF92DF92EF92FF920F93C9
:101140001F93CF93DF936C01D62FC72FFC01128121
:10115000F580F2949FE0F9220E94190FE82E88236F
:10116000B9F0E12E1123A1F08C2F807F803421F083
:1011700080E28D0F8830D0F08091BC0282FD16C0D5
:1011800082E00E94B40F0E94190F91E0E82EE92638
:10119000BC2EB2948FE0B822FBE0FB1508F468C0C7
:1011A000EB2DF0E0EB59F54D0C94F729E12CF0CF45
:1011B0000C2F0F70C07F11F00295007F112399F062
:1011C000002359F080E28D0F883010F0D11107C054
:1011D000802F0E94230F0E94630F8D2F41C0802F0C
:1011E0000E94330FF8CF8D2F0E941708002309F4B7
:1011F0003FC080E28D0F883010F0D11104C0802FE5
:101200000E94290F03C0802F0E94390F0E94630F94
:101210002FC00C2F0F70C07FC03211F00295007FDD
:10122000DD2381F0D13009F469C0112309F473C0C2
:10123000FF2009F469C0F601858180FFCECF8F7051
:10124000858362C08091BC0282FF38C0112359F0AF
:10125000002329F0802F0E94230F0E94630F80E05B
:101260000E949F0705C080E00E9417080111C7CFA8
:10127000EB2DE850FF0B349720F40E94D9200E94F8
:101280005407EE2009F431C10E94150F80FD2DC1D5
:10129000F60112820E940F0F0E94490BC6010E94A4
:1012A000960A0E940F0FDF91CF911F910F91FF902F
:1012B000EF90DF90CF90BF900C94540B112389F0E6
:1012C000F11006C00E94460F802B0E948C08D0CFE0
:1012D00021E0F212F7CF0E94460F802B0E944C0FA4
:1012E000C7CFF11006C00E94590F802F0E949308AB
:1012F000BFCF31E0F31609F4BBCFF5CF112331F0A6
:1013000085E08F1508F4B4CF802FDFCF94E09F15D0
:1013100008F4AECFEACFFF2041F3D93349F4FFEF11
:1013200027EE33E0F15020403040E1F700C00000EC
:101330008D2F0E9417089CCF8D2F112329F00E941A
:10134000F2160E94C51794CF0E944C17FACF8C2F2B
:10135000837079F511118CCF4D2F429546954770CA
:10136000440F440F8D2F8F70042E01C0880F0A94F4
:10137000EAF72D2F2071D4FF07C02FE030E001C025
:10138000220F4A95EAF72095C695C695C370822B21
:10139000C23049F058F4C13019F00E942A0B68CFCE
:1013A0000E94250B65CF0E942F0B62CF0E94230B5A
:1013B0005FCF8695112311F08C2F8170882309F45B
:1013C00057CF4D2F429546954770440F440F8D2FB0
:1013D0008F70042E01C0880F0A94EAF72D2F207118
:1013E000D4FF07C02FE030E001C0220F4A95EAF792
:1013F0002095C695C695C370822BC23049F058F42B
:10140000C13019F00E94700B33CF0E946B0B30CFAC
:101410000E94750B2DCF0E94380B2ACFCF7011235D
:1014200029F08C2F0E94490B8D2F4FCF8D2F0E94BA
:1014300093088C2F0E94540B1BCFD23F51F160F4C4
:10144000D03FB9F0D13F81F0112309F449C0F11028
:10145000C4CE8C2F8F7121C0D33F11F1D43FA1F79F
:101460008091BC0282FF26C08C2F8F71112311F353
:1014700014C0112349F084E08F1508F4F9CE8C2FA5
:101480008F710E94600BF4CE95E09F1508F4F0CEAA
:10149000F6CF8C2F8F711111CDCF0E94490BE8CE62
:1014A000112329F08C2F8F710E94410BE1CE0E94F5
:1014B0003E0BDECE112349F0CF718C2F0E94490BD9
:1014C00063E08C2F0E94990FD3CE81E00E94B40F6D
:1014D000E1E0EF1508F0CCCE82E00E94B40FC8CE58
:1014E000F1101BCF8C2F8F71A5CFDF91CF911F9162
:1014F0000F91FF90EF90DF90CF90BF9008950F93E2
:101500001F93CF93DF93EC01688179818A810E94D8
:10151000090C8C010E947A0B0E94220BB801CE01AB
:10152000DF91CF911F910F910C949A08CF93DF9385
:10153000EC018B819C81892B29F0888199818923F9
:101540008F3F59F4DF91CF910895CE010E947F0A19
:10155000CE01DF91CF910C94CE05CE010E941B06E7
:101560008111F3CF0E94190F882361F38A818823A8
:1015700049F38091BC0282FDE5CF82E0DF91CF91FB
:101580000C94B40F0E94400F0E94430F0E94630FFF
:101590000E94EC180C94C5170E94090F0C94C20A03
:1015A0000E94300F0C94CC0AE92FE295EF70E250C4
:1015B000EE3070F4F0E0EF58F54D0C94F729803FD1
:1015C00019F020F4883E20F481E00895843FE1F38F
:1015D00080E00895883EC0F3813FD1F7F5CF93FBBB
:1015E000882780F90895FC01808191810E94FF0B7A
:1015F0000C94D40ACF93DF9300D000D00F92CDB7D4
:10160000DEB70F900F900F900F900F90DF91CF915A
:101610000895CF93DF9300D000D000D0CDB7DEB7D0
:1016200026960FB6F894DEBF0FBECDBFDF91CF91E7
:10163000089508950C94190B0E941A0B8093F301DE
:101640000C94C20A08950C941C0B9091F301892B01
:101650000C941C0B9091F30189230C941C0B90911A
:10166000F30189270C941C0B0C94190B0C94340B6C
:101670000E94360B8093F2010C94C20A80E00C9415
:10168000380B91E001C0990F8A95EAF7892F0C94E5
:10169000380B21E030E001C0220F8A95EAF78091F3
:1016A000F201822B0C94380B21E030E001C0220FB4
:1016B0008A95EAF720958091F20182230C94380BE9
:1016C00021E030E001C0220F8A95EAF78091F20113
:1016D00082270C94380B9091F201892B0C94380BD3
:1016E0009091F20189230C94380B9091F201892793
:1016F0000C94380B0895E92FEE0FEE0F9E0F890F13
:10170000982F977041E001C0440F9A95EAF78695AB
:101710008695869593E0899FF0011124E553FE4F4D
:1017200030E020E070E05191DF011197CB01022EF3
:1017300002C0969587950A94E2F781708195852776
:10174000842385278C932F5F3F4F2330310559F732
:101750000895E92FEE0FEE0F9E0F890F982F9770C7
:1017600086958695869523E0829FF0011124E553A6
:10177000FE4F50E040E080E0219130E0092E02C0B1
:10178000369527950A94E2F721703327042E01C07D
:10179000220F0A94EAF7822B4F5F5F4F43305105C7
:1017A00059F70895CF92DF92FF920F931F93CF9333
:1017B000DF936C010091F2018091F301082BC7E0E7
:1017C000D0E010E0FC2EC8010C2E02C09595879544
:1017D0000A94E2F780FD0CC02197A0F7F12C8F2D21
:1017E000DF91CF911F910F91FF90DF90CF900895DF
:1017F000B6018C2F0E947212019771F3F0CFCF9334
:10180000DF93EC010E94D20BBE01DF91CF910C94CB
:1018100072121F93CF93DF93EB019091CA0199232A
:1018200031F0CB01DF91CF911F910C94FF0B8823F6
:1018300079F0CB010E94D20B182F682FCE010E94A5
:101840007B0BBE01812FDF91CF911F910C947212FF
:10185000CB010E94A90B182FF4CF1F93CF93DF93D6
:10186000C091F40116E08091F5018C1304C0DF9162
:10187000CF911F910895D0E01C9FF0011D9FF00DA6
:101880001124EA50FE4F408151816281738184812D
:1018900095810E94090B2196C770E5CF40912602E1
:1018A00050912702609128027091290280912A02AA
:1018B00090912B020C94090BFF920F931F93CF93DF
:1018C000DF9380912B02807FD1F4809128028823BE
:1018D000B1F08091F4011091F501609126027091B0
:1018E0002702A0912902B0912A02062F0723C09156
:1018F0000001D091010196E0F92E181306C0DF9186
:10190000CF911F910F91FF90089590E0109711F0E3
:101910000F3F19F401968770F0CFF89E9001F99E61
:10192000300D1124F901EA50FE4F41814713F2CFE7
:1019300040814613EFCF42814111ECCF4381548166
:101940004A1B5B0B4C175D0728F780912B028F70A9
:10195000806180932B02F901E550FE4F80818F70EA
:101960008061808386E292E00E94960ADF91CF91A7
:101970001F910F91FF900C942D0CAF92BF92CF92BC
:10198000DF92EF92FF920F931F93CF93DF93CDB728
:10199000DEB761970FB6F894DEBF0FBECDBF8C01E6
:1019A00085E0F801DE011D9601900D928A95E1F720
:1019B000F801E28086E2C82E82E0D82E60912902EA
:1019C00070912A026115710509F45FC19091260298
:1019D00020912702892F82238F3F09F456C140812D
:1019E0005181A380B480F0902802F501E61BF70B2B
:1019F000BF01E0910001F0910101FF2009F4F6C060
:101A000080912B02382F307F6E177F0708F0AFC010
:101A1000311179C0FE2C251323C0941321C0E1108D
:101A20001FC08F70806180932B020E944E0CC601F4
:101A30000E94960A80912B02F80185838F2D619672
:101A40000FB6F894DEBF0FBECDBFDF91CF911F91CF
:101A50000F91FF90EF90DF90CF90BF90AF900895DF
:101A6000AB2829F0842F85238F3F09F027C180E020
:101A7000F82FF170DF2E80FF3CC08091F40120919F
:101A8000F50136E0821315C04D875E878D859E85F2
:101A90000E94FF0B292F22952F702230F0F0243066
:101AA00018F59F70F1F0F8019581907FD1F4D12C59
:101AB0001EC090E0389FF001399FF00D1124EA50CC
:101AC000FE4F6181651306C06081641303C06281AB
:101AD0006E110FC001968770D5CF9F7011F08823CB
:101AE00031F3805E883018F3C8010E94960AFD2CFD
:101AF000A5CFEE2009F4A2CF80912B0281608093C4
:101B00002B02F12C9BCF251306C0941304C0F801BF
:101B1000EE2009F487C0C8010E94F30A882319F156
:101B2000EE2009F180912B02803270F02091260284
:101B30003091270238872F831986BB86AA868C8727
:101B4000CE0107960E94960A86E0F801A6E2B2E06E
:101B500001900D928A95E1F70E945C0C0E944E0C58
:101B6000FF24F3946BCFC8010E94960AF9CF31117C
:101B700013C07A2DB98AA88A6E2D89890E94FA0A23
:101B800086E292E00E94960A86E0F60111928A951A
:101B9000E9F70E944E0CB5CF25130FC094130DC06A
:101BA000E1100BC0F8018583C8010E94960A86E007
:101BB000F60111928A95E9F741CFC8010E94F30A14
:101BC000882389F2EE2079F280912B02803208F48A
:101BD000BBCF20912602309127023A8329831B82B2
:101BE000BD82AC828E83CE010196ACCF6E177F078B
:101BF00008F03EC0FE2CEE2009F4B5CF25132AC014
:101C0000941328C080912B0280FD1BC0982F907FD9
:101C1000C1F0F8018583903F31F0982F907F905F5D
:101C20008F70892B8583C8010E94960A86E0F8018F
:101C3000A6E2B2E001900D928A95E1F70E944E0C67
:101C4000FDCE86E0F801A6E2B2E001900D928A9501
:101C5000E1F7F4CEC8010E94F30A811175CF80919B
:101C60002B02816080932B02C8010E94960AE6CE67
:101C70007A2DB98AA88A6E2D89890E94FA0A86E08F
:101C8000F60111928A95E9F7D9CFEE2009F46BCFCE
:101C9000C8010E94F30AF82E882309F464CF86E075
:101CA000F801A6E2B2E001900D928A95E1F786E292
:101CB00092E00E949A070E945C0CC0CF81E08E25C2
:101CC000D7CE1F93CF93DF93CDB7DEB72C970FB648
:101CD000F894DEBF0FBECDBF4F83588769877A87E0
:101CE0008B879C87CE0107960E94BD0C882369F0E4
:101CF0008A859B85892B39F04F815885842F8523D0
:101D00008F3F09F071C016E05FC086E0FE01379694
:101D1000DE01119601900D928A95E1F78A859B85E7
:101D2000892B89F38F81988589238F3F61F32091D7
:101D3000F50130E0C9010196877099274091F401BF
:101D40004817190671F40E94D00A1092F5011092FA
:101D5000F40186E0E6E2F2E0DF011D928A95E9F700
:101D6000D2CF96E0929FD001939FB00D1124AA503C
:101D7000BE4FFE01319601900D929A95E1F7809346
:101D8000F5010E942D0CBFCF819FC00111248A5004
:101D90009E4F0E94BD0C8823E9F0E091F4011E9F44
:101DA000F0011124EA50FE4F40815181628173811C
:101DB000848195810E94090B8091F40190E0019645
:101DC000877099278093F4018091F4019091F50137
:101DD0008913DACF2C960FB6F894DEBF0FBECDBFB5
:101DE000DF91CF911F91089569857A858B859C85B8
:101DF0000E94090B88CF682F809102019091030106
:101E00000C947921682F80910201909103010C9428
:101E10007B2180910201909103010C947D2180919E
:101E20002C02859585958595089580912C02877063
:101E3000089590912C02977081E009F480E0089554
:101E400080913802089590913802892B809338024E
:101E500008958095909138029823909338020895C0
:101E600010923802089590913702892B809337029F
:101E700008958095909137029823909337020895A2
:101E800010923702089510923602089580912D0223
:101E9000089508950C94490F9091BC0292FD08C0DA
:101EA00090912D02981721F080932D020C944A0FE7
:101EB000089580912D02882329F010922D0280E050
:101EC0000C944A0F0895E0910201F0910301809172
:101ED00038028083E0910201F091030180819091AA
:101EE0003702892B8083E0910201F0910301808108
:101EF00090913602892B808390912D02992381F055
:101F0000E0910201F09103018081892B808380910F
:101F10000201909103010E94312181110E94590F09
:101F200080910201909103010C94EC2008950C948F
:101F3000960F9091BC0292FD10C098E0899F90018D
:101F40001124622B60932C020E94490B80912C0279
:101F50008595859585950C94970F0C94490B109257
:101F60002C0280E00C94970F90912C02809589238D
:101F700080932C02282F277091F4282F082E000C14
:101F8000330B9217130659F09091BC0292FD07C0D3
:101F90008595859585950E94540B0C94AF0F0895F7
:101FA0009091BC0292FB222720F9281769F080FB50
:101FB00092F99093BC028091BB029091BC020E9466
:101FC0001B1082E00C94B40F08958091BC0282FB38
:101FD000882780F991E089270C94D00F81E00C9438
:101FE000D00F80E00C94D00F6FEF7FEF90E080E097
:101FF0000C944D2A90E080E00E94292A893E9E4F51
:1020000011F40C94FA1880E0089582E090E00C94AA
:10201000212A83E090E00C94212ACF9384E090E081
:102020000E94212AC82F82E290E00E94212A982F44
:102030008C2FCF910895CF93C92F682F84E090E023
:102040000E942F2A6C2F82E290E0CF910C942F2ACD
:10205000AB01BC018FE090E00C94412AAB01BC01C4
:1020600083E190E00C94412A60E070E0CB010C9495
:102070002E1060E070E0CB010E9428100C94341008
:1020800069EE7EEF90E080E00E944D2A60E082E001
:1020900090E00E942F2A60E083E090E00E942F2AC7
:1020A0001092F30160E084E090E00E942F2A60E04B
:1020B00082E290E00E942F2A60E085E090E00E949A
:1020C0002F2A60E086E090E00E942F2A6FEF87E0E1
:1020D00090E00E942F2A40E050E0BA0188E090E0B2
:1020E0000E94412A60E08DE090E00E942F2A40E0AB
:1020F00050E0BA0188E190E00E94412A60E087E167
:1021000090E00E942F2A40E050E0BA018CE190E07C
:102110000E94412A70E060E080E290E00E944D2A37
:1021200040E050E0BA0188E190E00E94412A80E05E
:102130000E9413190E9439190C9439100C94401004
:10214000682F8EE090E00C942F2A0E94202260934A
:1021500056027093570280935802909359026093ED
:102160005202709353028093540290935502089543
:102170000E94202260935602709357028093580267
:102180009093590260934E0270934F0280935002D5
:1021900090935102089585B7806885BF85B78068A0
:1021A00085BF0895089508950C94D21008950C9455
:1021B000D6100E94CB1081E993E10E94CF200E94AB
:1021C000D3100C94D4100C94FC13089508950E941D
:1021D000E5100C94E6100E940B220E9450130E94FE
:1021E00048190E945D030E94411A0E94141D0C941C
:1021F000D710AF92BF92CF92DF92EF92FF920F93E0
:102200001F93CF93DF93CDB7DEB72A970FB6F8941D
:10221000DEBF0FBECDBF0E94290481110E94A51010
:102220008AE3A82E82E0B82E10E000E0C02E802FB6
:102230000E945603E82EF501F1905F01F81609F4AB
:1022400053C080915A0281FD0E945C038F2D8E2520
:10225000D12CFF24F394982F9F2109F440C00E94B1
:10226000E310882399F0DE82CF82EF2081E009F429
:1022700080E088870E9414228160782F9A8789875E
:102280004E815F8168858A850E945C07F801E65C63
:10229000FD4F8081F826F0820E942D1D81110E9441
:1022A000B8100E94E0170E94D92090913902891736
:1022B00091F10E94D920809339022A960FB6F894A2
:1022C000DEBF0FBECDBFDF91CF911F910F91FF9069
:1022D000EF90DF90CF90BF90AF900C945407D394C1
:1022E000FF0CF5E0DF12B7CF0F5F1F4F0431110570
:1022F00009F09CCF8FEF89838A831B820E9414226E
:102300008160782F9D838C8349815A816B818D8177
:102310000E945C07C1CF2A960FB6F894DEBF0FBEAD
:10232000CDBFDF91CF911F910F91FF90EF90DF9084
:10233000CF90BF90AF900895CF93DF930E94761215
:10234000EC01811522E5920778F5811531E59307B7
:1023500008F098C08F3F910509F0B8F4803F9105CF
:1023600008F06FC0853A910540F48430910548F437
:10237000019739F0D0E0C0E004C0805E9109089771
:10238000C8F7CE01DF91CF910895811540E59407FC
:1023900008F05CC0C11580E4D80708F054C0C1152E
:1023A00090E2D90770F3E6CF811526E5920718F57C
:1023B000811535E5930708F07DC0811544E5940744
:1023C00008F073C0982F969596959E012370332739
:1023D000C115D34508F45BC0C1E0D0E002C0CC0F0A
:1023E000DD1F2A95E2F730E2939FC0011124C82B2C
:1023F000D92BDA68C6CFC1159AE5D90778F4C1158B
:1024000029E5D20708F060C0C11538E5D30708F404
:10241000B1CFDC2FCC27C06FD06AB3CFCE0190569E
:102420008115904208F0A6CF8D2F8F710E940D1359
:1024300090E0982F882788279F719C012C2BE90119
:1024400041C0D0659ECFDF70D06A9BCFE4E0969507
:102450008795EA95E1F783702C2F269526952370B2
:1024600090E2299F90011124382B8C2F8370C1E0BA
:10247000D0E002C0CC0FDD1F8A95E2F7C22BD32B30
:10248000DC687FCFD82FCC27C16FD06A7ACFC1E06C
:10249000D0E002C0CC0FDD1F2A95E2F720E2929F28
:1024A000C0011124C82BD92BEBCFD82FCC27C46F58
:1024B000D06A67CF0E940D13C82FD0E0DC2FCC2745
:1024C000CC27DF71D0625DCF8C2F8F700E940D13EF
:1024D00034E0D695C7953A95E1F7CF709C2FEC0183
:1024E000D0694FCF0E944B1C0C949C1182389105EF
:1024F000B1F1B0F48133910509F475C048F4893223
:10250000910509F469C08A32910509F473C00895F0
:102510008533910509F459C08933910501F1089576
:10252000833E9105A9F138F4803E9105F9F0823E91
:10253000910549F10895863E9105A9F1873E9105DF
:10254000C9F1843E910519F52091BC0221FF1FC0FD
:102550008091BB0284FD14C087EE90E00895209125
:10256000BB022370A1F080EE90E008952091BB02A1
:1025700020FD47C03091BC0230FF09C024FF44C099
:1025800090E080E004C02091BB0222FDF7CF0895C7
:102590002091BB0222FD3BC03091BC0230FDE3CF55
:1025A00024FFF5CFEDCF2091BB0223FFF0CF24FD18
:1025B000E7CFD2CF2091BB0223FD2CC03091BC02CB
:1025C00031FFEECF84EE90E008952091BB0225FF0D
:1025D000DECF89E290E008952091BB0225FFD7CF9E
:1025E00085E390E008952091BB0226FFD0CF8AE2D8
:1025F00090E008952091BB0226FFC9CF81E390E0CF
:10260000089589E390E0089583EE90E0089582EEC6
:1026100090E0089586EE90E008959091BB0292FFBD
:1026200006C0282F28712830F9F4877F846093FF33
:1026300006C0282F28712831F1F4877E846120910B
:10264000BC0220FF06C0382F38713830D9F4877F9C
:10265000816021FF06C0282F28712831D1F4877EA0
:10266000816194FD877E0895282F24712430F9F626
:102670008B7F8860DCCF282F2471243101F78B7E7B
:102680008861DDCF382F3171313019F78E7F886046
:10269000E0CF282F2171213121F78E7E8861E1CF93
:1026A0001092B7021092B8021092B9021092BA02B8
:1026B0000895CF92DF92EF92FF926B017C010E940E
:1026C000FC1381110EC00E942022C61AD70AE80A04
:1026D000F90AC092B702D092B802E092B902F09221
:1026E000BA02FF90EF90DF90CF9008950F931F9361
:1026F0000E94FC13882321F01F910F910C9420223B
:102700000E9420220091B7021091B8022091B902D4
:102710003091BA02600F711F821F931F1F910F919A
:10272000089580E008950C94F40F0E9429048FE32B
:102730009CE90197F1F700C000000E94290480E0A5
:102740000E94560380FF04C00E9493130C947B22C6
:1027500008950C9495130E94FA0F811102C00E94F3
:102760009E100E94051080935A020E940D109093B3
:10277000BC028093BB020E94A9130E9409100E9410
:10278000230B8091F2010C94360B0895FF920F9366
:102790001F93CF93DF93F82E092F162FD72FC42F17
:1027A000222349F081E080935D020E9414229093DD
:1027B0005C0280935B0280915D028823A1F080918E
:1027C0005B0290915C020E942C22059760F0EF2D35
:1027D000F02FA12FBD2FCE0FDF2FD11DEC17FD073E
:1027E00041F410925D02DF91CF911F910F91FF9004
:1027F000089581918D93F2CF80915E02811107C07F
:102800000E94D629882351F081E080935E0281E006
:1028100090915E02913009F080E0089582E080930B
:102820005E020E94D129F3CF0C94FC130E94141471
:10283000809304010E94FC1381110C942E140895BE
:102840000E94FC13811102C00C943014089581E0A1
:1028500090915F029A3008F080E008950C940E1F6A
:102860000C94111FEF92FF920F931F93CF93DF935E
:102870007901C82F880FDD0B41155105A9F08AE0B9
:102880008C9FF0018D9FF00D1124EB5FFE4F838133
:102890009481805A9D4F228130E04217530708F4FB
:1028A0009A01A9010E94182ACE010E941B20892B9F
:1028B00011F501151105E9F08AE08C9FF0018D9F5B
:1028C000F00D1124EB5FFE4F458150E00417150712
:1028D00008F4A8018AE08C9FF0018D9FF00D11246F
:1028E000EB5FFE4F66817781605A7D4FC7010E9482
:1028F000182A81E001C080E0DF91CF911F910F91F4
:10290000FF90EF9008950C94E2150C9406160F9327
:102910001F93CF93DF9300D000D0CDB7DEB7609187
:102920008702709188028091890290918A020E94A8
:102930003B2211E0643671058105910518F10E9472
:1029400076136E5F7F4F8F4F9F4F69837A838B83A0
:102950009C8310E000E030E020E044E050E0BE0165
:102960006F5F7F4F84E00E943214182F882351F04C
:102970000E942022609387027093880280938902CC
:1029800090938A02812F0F900F900F900F90DF91FC
:10299000CF911F910F9108957F928F929F92AF9246
:1029A000BF92CF92DF92EF92FF920F931F93CF933C
:1029B000DF930F92CDB7DEB7762E4A015901680139
:1029C00001E010E09E012F5F3F4F50E040E070E0DB
:1029D00060E00E943214182F882309F43EC0F401ED
:1029E00060817181828193810E943B2264367105EE
:1029F0008105910558F18701950150E040E070E0B4
:102A000060E0872D0E943214B82EB701C6010E94E3
:102A1000421A11E09981981310E01B2139F00E94AD
:102A20002022F4016083718382839383812F0F902E
:102A3000DF91CF911F910F91FF90EF90DF90CF909A
:102A4000BF90AF909F908F907F900895B701C6017F
:102A50000E94421A99818913CECFA701B601C50100
:102A60000E94182AE3CFEF92FF920F931F93CF9308
:102A7000DF930F92CDB7DEB70091690110916A0123
:102A8000045F1F4FEE24E394F12C9E012F5F3F4F14
:102A900043E852E063E082E00E94CC14182F8823C0
:102AA00021F0CE0101960E94861D812F0F90DF91AB
:102AB000CF911F910F91FF90EF900895CF92DF92E9
:102AC000EF92FF920F931F93CF93DF93CDB7DEB7B3
:102AD0002A970FB6F894DEBF0FBECDBF6B010091F1
:102AE000690110916A010F5F1F4F8AE0E82EF12CF7
:102AF0009E012F5F3F4F4FE752E061E080E00E9470
:102B0000CC14882349F09AE0FE013196A5E7B2E0A3
:102B100001900D929A95E1F79AE0E5E7F2E0D6018F
:102B200001900D929A95E1F72A960FB6F894DEBFC0
:102B30000FBECDBFDF91CF911F910F91FF90EF900E
:102B4000DF90CF900895AF92BF92CF92DF92EF9235
:102B5000FF920F931F93CF93DF937C015B016A0178
:102B60000E94271401E010E0882311F00AE010E031
:102B7000C1E0D0E0F894B501C701F6010995789459
:102B8000811104C021960C171D075CF4DF91CF91D1
:102B90001F910F91FF90EF90DF90CF90BF90AF907B
:102BA0000895CC9F9001CD9F300D300D112490E001
:102BB00080E045E34A95F1F70000019682179307FC
:102BC000C1F7D8CF0F931F93CF93DF93EC018B0105
:102BD0004EE555E10E94A315882391F043E355E1AA
:102BE000B801CE010E94A315882351F047E854E1B3
:102BF000B801CE01DF91CF911F910F910C94A315D5
:102C000080E0DF91CF911F910F9108950F931F9353
:102C1000CF93DF930F92CDB7DEB7F894009169019F
:102C200010916A01C80101962AE0FB01DC010190C4
:102C30000D922A95E1F76AE070E00E94421AF801CD
:102C400080837894F894CE0101960E947D1D89813D
:102C5000F801848761E070E0CE0101960E94421A7B
:102C6000F80183877894F8946585768587859089BF
:102C700000917102109172022091730230917402DE
:102C8000601771078207930751F060937102709388
:102C9000720280937302909374020E945913789485
:102CA0000F90DF91CF911F910F9108950E942024E2
:102CB0000E94EB100C942C240E9430240E94F910E6
:102CC0000C944A240E949E210E9407240E94D9103D
:102CD0000E9456160E945C160E94E710FBCF80915E
:102CE000910280FF12C060913C0185E0689FB001B5
:102CF0001124759567957595679560387105A8F5E8
:102D000061157105A1F1862F089581FF09C06091B9
:102D10003C0185E0689FB001112475956795EDCF62
:102D200060913C0182FD0AC0809190028823D1F01D
:102D300090913B0160913C01891728F085E0689FE4
:102D4000B0011124DACF869FB001112485E0869F5F
:102D50009001879F300D1124692F70E0C9010E94F6
:102D6000E329CBCF65E070E0CECF8FE7089581E017
:102D700008958091910280FF0CC06091380170E04D
:102D800075956795759567956115710549F1862F5C
:102D9000089581FF06C06091380170E075956795D0
:102DA000F3CF6091380182FD0BC090918F0299237F
:102DB000A1F06091370180913801961738F0682FA3
:102DC00070E06038710500F38FE70895899FC001B6
:102DD000112470E00E94E329F4CF61E070E0D7CFC6
:102DE00081E00895803F31F40E946F1681958093B1
:102DF00095020895813F19F40E946F16F8CF823F23
:102E000031F40E946F168195809394020895833F58
:102E100019F40E946F16F8CF893F29F40E94B91661
:102E20008093960208958A3F21F40E94B9168195F5
:102E3000F7CF8B3F31F40E94B916819580939702AA
:102E400008958C3F19F40E94B916F8CF9CE0980FB2
:102E5000953070F4845F990B21E030E001C0220FBF
:102E60008A95EAF780919302822B809393020895CA
:102E70008D3F31F480919102816080939102089599
:102E80008E3F21F4809191028260F7CF8F3FB9F796
:102E9000809191028460F1CF40919402803F59F477
:102EA0008091950287FF0DC01092950241110BC0D1
:102EB0001092900208C0813F81F48091950218160B
:102EC0009CF3442381F08091960290919702892B84
:102ED00009F05AC010928F020895823F49F447FFCB
:102EE000F0CF10929402809195028111ECCFE0CF47
:102EF000833F19F41416ACF3E4CF90919602893F06
:102F000029F41916F4F610929602DBCF8A3F19F4D1
:102F100097FFD7CFF8CF909197028B3F29F497FF77
:102F2000D0CF10929702CDCF8C3F19F41916CCF365
:102F3000C8CF9CE0980F953090F4845F990B21E006
:102F400030E0B90102C0660F771F8A95E2F7CB0126
:102F5000809590919302892380939302B2CF8D3F05
:102F600031F4809191028E7F80939102AACF8E3F9F
:102F700021F4809191028D7FF7CF8F3F09F0A1CF8F
:102F8000809191028B7FF0CF08950E9414229C01C2
:102F90009091940280919502982B21F030938E02AB
:102FA00020938D029091960280919702982B21F0A8
:102FB00030938C0220938B0282E992E00C94F720EC
:102FC000EF92FF920F931F93CF93DF9300D000D027
:102FD00000D0CDB7DEB786E0E2E9F2E0DE0111967F
:102FE00001900D928A95E1F7E0909402F09095029D
:102FF00000919602109197021092940210929502FD
:1030000010929602109297028E2D8F2991F0809146
:103010008D0290918E020E942C22AC019091900220
:10302000992309F43FC080913D018417150608F4E7
:1030300047C0802F812B91F080918B0290918C0260
:103040000E942C22AC0190918F02992309F477C041
:10305000809139018417150608F47FC0809194028D
:1030600090919502892B90919602892B90919702CD
:10307000892B11F00E94C51786E0FE013196A2E966
:10308000B2E001900D928A95E1F726960FB6F8947A
:10309000DEBF0FBECDBFDF91CF911F910F91FF908B
:1030A000EF90089520913E018AE0289F900111241D
:1030B0002417350708F0BDCF9F5F9093900202C0A0
:1030C0009F3FD1F7EE2059F00E946F169FEF1E141C
:1030D0000CF491E0899F802D112480939402FF20AD
:1030E00059F00E946F169FEF1F140CF491E0899F16
:1030F000802D11248093950230919402332309F49A
:1031000098CF20919502222309F493CF45EB340305
:10311000C0011124992359F09093940245EB2403A4
:1031200090011124332339F03093950282CF81E04E
:1031300080939402F3CF81E0809395027ACF20911F
:103140003A018AE0289F900111242417350708F0DE
:1031500085CF9F5F90938F0202C09F3FD1F70023DE
:1031600059F00E94B9169FEF10160CF491E0899F58
:10317000802D112480939602112359F00E94B916D4
:103180009FEF11160CF491E0899F802D11248093FC
:10319000970230919602332309F460CF2091970271
:1031A000222309F45BCF45EB3403C001112499239A
:1031B00059F09093960245EB240390011124332398
:1031C00039F0309397024ACF81E080939602F3CF93
:1031D00081E08093970242CF86E0E2E9F2E0DF01EE
:1031E0001D928A95E9F71092900210928F02109228
:1031F0009102089583E290E00E94212A823289F4AC
:1032000084E290E00E94212A813059F485E290E026
:103210000E94212A91E0823009F090E0892F81708C
:10322000089580E0FCCFCF93C82F6FEF811162E249
:1032300083E290E00E942F2A6FEFC11161E084E2E7
:1032400090E00E942F2A6FEFC11162E085E290E0CA
:10325000CF910C942F2A089586E290E00E94212AB3
:10326000682F70E090E080E0089586E290E00C9492
:103270002F2A80E00E94131960E070E0CB010E94C9
:1032800035190E94C31B0E94AD1C81E00C941319D8
:103290000E942B190E94FA18811102C00C9439194E
:1032A0000895CF93FB01C281CC2309F19C012251E7
:1032B0003F452031310520F582510E94BD1CC0E000
:1032C0008C2FCF91089581E00E94490B43E062E08A
:1032D00081E00E94F605F3CF81E00E94540B43E0A9
:1032E00062E081E00E94F605EBCF82E0F6CF80310C
:1032F000FFE59F0789F381319F45B9F3C1E0E0CF36
:103300008031EFE59E07F9F281319F45C9F682E0F1
:10331000DBCF2FEFFC0120830895EF92FF920F93F4
:103320001F93CF93DF93EC01062FE881E150E33147
:1033300008F05EC0F0E0E158F54D0C94F7291982D1
:1033400089E08A83602FCE01DF91CF911F910F9189
:10335000FF90EF900C94E0228981823069F08330F5
:1033600071F08130D9F40E9420220E94FD296A83E5
:103370007B838C839D83E6CF0E942C19F6CF7E0140
:1033800082E0E80EF11C10E0812F0E945603F70145
:1033900081937F011F5F1431B9F7D4CF602FCE0125
:1033A0000E948919CFCF89818230C1F76A817B81E0
:1033B0008C819D810E94FD290E943519C3CF4B81CC
:1033C0006A8189810E94951B9827892798279D8368
:1033D0008C83B8CF2C813D813227232732274B8124
:1033E0006A8189810E94AE1BADCF0E94C31BAACF08
:1033F0008FEF8883A7CF0E94581C8983A3CF0E9498
:103400005A1C9827892798279A8389839BCF6B8199
:1034100070E089819A81AE014C5F5F4F98278927C0
:1034200098270E945D1C8ECF6B8170E089819A8104
:10343000AE014C5F5F4F9827892798270E94831C15
:1034400081CF0E94AD1C7ECF0E94831BD6CF6B81A3
:1034500070E089819A81AE014C5F5F4F9827892780
:1034600098270E94FB1B6ECF6B8170E089819A8147
:10347000AE014C5F5F4F9827892798270E94211C37
:1034800061CF0895FC01680F791F8FEF91E36E17EC
:103490007F0709F408952191822728E030E087FF13
:1034A00006C0880F892721503109C9F7F0CF880F4E
:1034B000FACFCF93DF93EC01FB018281882309F4DB
:1034C00020C1C330FDE5DF07C8F5CA3F9CE5D90739
:1034D00030F49E0122503C452431310598F50E947C
:1034E0000D109093BC028093BB02C031FCE5DF0756
:1034F00009F4E0C008F061C0C8309CE5D90709F4C0
:10350000CBC088F5C430FCE5DF0709F4B3C0E8F4AC
:10351000C2309CE5D90709F4A7C08091BB02826044
:10352000C330DC4509F4A3C08091BB029091BC027A
:103530000E941B100E94D00A80E004C0C136EDE555
:10354000DE0769F2DF91CF9108958091BB0280611F
:10355000C630FCE5DF0709F48AC008F48FC080910B
:10356000BB02806284C08091BB028D7FCC309CE521
:10357000D90709F47CC070F48091BB028C60CA301A
:10358000FCE5DF0709F473C008F48AC08091BB0230
:103590008E7F6DC08091BB02877FCE309CE5D907BE
:1035A00009F465C08091BB028B7FCF30DC4508F405
:1035B0005EC08091BB028F7E5AC0CC3FFCE5DF0726
:1035C00009F474C040F5C4319CE5D90709F48AC0F8
:1035D00058F4C231FCE5DF0709F474C008F46EC08A
:1035E0008091BB02837F43C0CA3F9CE5D90709F4A1
:1035F00049C008F04DC0C531DC4509F095CF809138
:10360000BB0282FB992790F921E0922790FB82F977
:1036100090FB83F92CC0C1158DE5D80709F458C07B
:1036200088F48091BC028360CE3FECE5DE0769F14F
:103630008091BC028D7FCF3FDC4538F18091BC0288
:103640008C7F23C0C2308DE5D80709F458C008F438
:1036500052C0C136DD4509F067CF9091BB02892F7A
:103660008F7E94FF806103C08091BB028160809354
:10367000BB025ACF8091BB028460F9CF8091BB021C
:103680008860F5CF8091BC0281608093BC024CCFF2
:103690008091BC028260F9CF8091BB028064E7CF49
:1036A0000E94D00A8091BB028068E1CF8091BC0269
:1036B0008E7FEBCF8091BB028F7DD9CF8091BB02F3
:1036C0008F7BD5CF0E94D00A8091BB028F77CFCF5E
:1036D0008091BC02982F909591708E7F892B90FBE2
:1036E00081F9D3CF0E94D00A9091BB02892F97FB1A
:1036F00087F98058BCCF81E00E94A01015CF80E0F0
:10370000FBCF81E01FCF84E0089550E0440F551FA8
:103710009AE0699F400D511D112498EC899F400D3E
:10372000511D1124CA01879608950F931F93CF93BB
:10373000DF930E94851B8C010E94212AC82FD0E0B4
:10374000DC2FCC27C80101960E94212A9E01282B3C
:10375000C901DF91CF911F910F9108950F931F938E
:10376000CF93DF93122F032F0E94851BEC01602F54
:103770000E942F2A612FCE010196DF91CF911F91D8
:103780000F910C942F2AAF92BF92CF92DF92EF92BB
:10379000FF921F93CF93DF938CEAC82E80E0D82E40
:1037A000D0E07601C0E014C0F50125913491412F9D
:1037B0006C2F8D2F0E94AE1B82E0A80EB11C1F5FE4
:1037C000153091F78AE0E80EF11CCF5FC43119F093
:1037D000570110E0E9CFDF5F88ECC80ED11CD43070
:1037E00001F7DF91CF911F91FF90EF90DF90CF9085
:1037F000BF90AF900895EF92FF920F931F93CF93D6
:10380000DF93EC018A017C01E60EF71ECE0187965C
:10381000CE15DF0539F4DF91CF911F910F91FF9005
:10382000EF900895C03223E0D20740F40E94212A8D
:10383000F80180830F5F1F4F2196E8CFF8011082B7
:10384000F9CFCF92DF92EF92FF920F931F93CF9316
:10385000DF937C016A018C01060F171FEC01CE017A
:103860008796C017D10749F4DF91CF911F910F912F
:10387000FF90EF90DF90CF900895C03223E0D20701
:1038800040F4FE01EE19FF09EC0DFD1D60810E9460
:103890002F2A2196E4CF462F843038F4743128F44F
:1038A000653018F4672F0C94951B90E080E0089524
:1038B00080E1089589EB90E00895EF92FF920F93D5
:1038C0001F93CF93DF93EC018A017C01E60EF71E74
:1038D000CE01895B9C4FCE15DF0539F4DF91CF9186
:1038E0001F910F91FF90EF900895C93BD10540F4CF
:1038F0000E94212AF80180830F5F1F4F2196E8CF95
:10390000F8011082F9CFCF92DF92EF92FF920F93DE
:103910001F93CF93DF937C016A018C01060F171F61
:10392000EC01CE01895B9C4FC017D10749F4DF91B0
:10393000CF911F910F91FF90EF90DF90CF9008955E
:10394000C93BD10540F4FE01EE19FF09EC0DFD1D48
:1039500060810E942F2A2196E4CFCF93DF93C7E4A2
:10396000D3E060E0CE010E942F2A2196C11584E0A9
:10397000D807B9F7DF91CF910895DF92EF92FF92C8
:103980000F931F93CF93DF9300D000D0CDB7DEB756
:10399000F82E8FE08F1540F08FEF93E00E94212AE0
:1039A00007E413E08823C1F00F900F900F900F9061
:1039B000DF91CF911F910F91FF90EF90DF900895CD
:1039C000011584E0180781F3C8010E94212A8111A2
:1039D00001C0FA940F5F1F4FF110F2CF19821A82C3
:1039E0001B821C82DD24D39478018FEFE81AF80A39
:1039F000C8010E94212A89831A828823A9F29FEF95
:103A0000980F933078F48A83D9820E5F1F4FC701D5
:103A10000E94212A8B83882339F2CE0101960E94CD
:103A20004907E2CF8701F9CF54985C9A84988C9A21
:103A300089B1829581707C990EC090E0892B80932A
:103A40009D029091040181E0982790939902891B2F
:103A500080939802089592E0F1CFCF93E0919D0278
:103A6000EE0FEE0FE0939D0249B144FB882780F9E9
:103A70004FB144FB222720F944FF02C022E030E08E
:103A8000822BE82BE0939D02C0919902EF70F0E049
:103A9000E559FE4F808190919C02890F80939C0292
:103AA00020E0843064F0EC2FF0E0E656FD4F80819A
:103AB0008F5F808360E08C2F0E94830521E08091DE
:103AC0009C028D3F64F4EC2FF0E0E656FD4F8081C0
:103AD0008150808361E08C2F0E94830521E08091DA
:103AE0009C02082E000C990B64E070E00E94E32910
:103AF00080939C02822FCF910895E0919902F0E08B
:103B0000E656FD4F2081FC0120830895FF920F931C
:103B10001F93CF93DF93D09198020D2F10E006569C
:103B20001D4FFC01C081F8018081C81BFC2E80E084
:103B30001F147CF09C2FC7FD90E0C91BC11114C05D
:103B40008823E9F0DF91CF911F910F91FF900C94A2
:103B5000B810FA94F80180818F5F808360E08D2F28
:103B60000E94830581E0E4CFCF5FF801808181501E
:103B7000808361E08D2F0E94830581E0DFCFDF919C
:103B8000CF911F910F91FF900895CF93DF93EB0199
:103B900086319C4511F50E94200F9A81992399F056
:103BA0008A7A91E009F490E090939E02811109C015
:103BB00089E20E94FB0E0E94630F80E0DF91CF91AB
:103BC000089585E3F6CF80919E02811104C089E2B9
:103BD0000E94020FF0CF85E3FBCF81E0EFCF0F9380
:103BE0001F93CF93DF93C42FD22FFC0182818823B0
:103BF000C9F04093A1020E9414229093A0028093E6
:103C00009F0280E28C0F883008F050C0C77081E0BE
:103C100001C0880FCA95EAF7DF91CF911F910F91EC
:103C20000C948C081091A102141335C080919F024E
:103C30009091A0020E942C22883C910560F5C0E280
:103C4000CD0F1D17B9F080E2810F883040F4177056
:103C500081E001C0880F1A95EAF70E949308C830E6
:103C600048F481E09D2F977001C0880F9A95EAF77C
:103C70000E948C08802F0E948408C830B8F4D77046
:103C800081E001C0880FDA95EAF7DF91CF911F91AB
:103C90000F910C94930880E28C0F883038F4C77031
:103CA00081E001C0880FCA95EAF7EFCFDF91CF918D
:103CB0001F910F9108950F939C01CB01233F4CE579
:103CC000340759F1A8F4283DFCE53F0701F1293DEF
:103CD0004CE53407D1F1273D3C4591F406E221EE55
:103CE00041EE67ED7CE50E94EF1D80E00F910895A5
:103CF000253FFCE53F07E9F0B0F0263F3C45F9F0F1
:103D0000FC018281882339F11092A102EFCF07E2F2
:103D100025EE45EE68ED7CE5E6CF06E221EE40EECD
:103D200063EF7CE5E0CF07E225EE44EE64EF7CE54F
:103D3000DACF06E221EE42EE65EF7CE5D4CF07E272
:103D400025EE46EE66EF7CE5CECF08E221E045EEBB
:103D500069ED7CE5C8CF81E0C9CF8EE14A9B02C006
:103D60008150E1F74A9BFECF08955A9880E28A95E8
:103D7000F1F75A9A0895FC013BE03A95F1F798E083
:103D800020E080E031E040E14A95F1F7880F4A9B5E
:103D900002C08160232742E04A95F1F7000040E12C
:103DA0004A95F1F7915079F790E19A95F1F799B129
:103DB00032E03A95F1F7000040E14A95F1F792FBC5
:103DC000992790F992272081920F90830895EF927E
:103DD000FF920F931F93CF93DF930F92CDB7DEB770
:103DE00019828C017C01E60EF11C0E151F0561F491
:103DF00081E09981911180E00F90DF91CF911F9127
:103E00000F91FF90EF9008950E94AD1ECE01019694
:103E10000E94BB1EF80181938F01E7CF529A5A9AF4
:103E2000089552985A9AEA9AE9E6F0E080818F7CE8
:103E3000808308956150770B91E001C0990F6A95D6
:103E4000EAF720E031E0911108C0222391F05A9A5C
:103E500080E28A95F1F75A980895492F482339F05E
:103E60005A9A232740E24A95F1F79695ECCF5A9853
:103E7000F9CF5A98EDCFFF920F931F93CF93DF9313
:103E8000EC018C01060F111DC017D10731F4DF9131
:103E9000CF911F910F91FF900895F9900E94B51E48
:103EA00068E08F2D0E941A1FEFCF1F920F920FB65E
:103EB0000F921124EF92FF920F931F932F933F9332
:103EC0004F935F936F937F938F939F93AF93BF9322
:103ED000EF93FF93CF93DF930F92CDB7DEB71982A5
:103EE0000E94AD1ECE0101960E94BB1EA82FA69572
:103EF000A695A695282F229525709A2F9570290FA3
:103F0000922F937026952695920F98279770898106
:103F1000982B09F075C0A63008F072C080E18A9530
:103F2000F1F75A9A529AB2E0BA95F1F700C05A984E
:103F3000EA2EF12CEAE0AE9FD0011124AB5FBE4F18
:103F40001896ED91FC9119973097B1F06091690145
:103F500070916A0116962D913C911797260F371F85
:103F600013968D919C911497680F791F15964C911B
:103F7000159712968C9109958AE08E9DF0018F9D80
:103F8000F00D1124EB5FFE4F6581662351F0209107
:103F9000690130916A0186819781820F931F0E9487
:103FA0003B1F0E94B51EF0E1FA95F1F75A9852981E
:103FB0005A9A80E18A95F1F78AE08E9D80018F9D63
:103FC000100D11240B5F1E4FD80112966C911297A1
:103FD000662371F12091690130916A0113968D91E8
:103FE0009C91820F931F0E94E71ED801ED91FC91D6
:103FF000882311F088E001C082E080830E94AD1E1A
:104000000F90DF91CF91FF91EF91BF91AF919F9171
:104010008F917F916F915F914F913F912F911F9160
:104020000F91FF90EF900F900FBE0F901F9018957B
:10403000ED91FC91DFCF0F931F93CF93DF93EC01B2
:1040400006970CF0A9C08AE08C9FF0018D9FF00DBF
:104050001124EB5FFE4F80819181892B09F49CC074
:10406000F894529A5A9885E08A95F1F700008C2FBF
:10407000869585709C2F9570890F982F93708695E3
:104080008695890F8E0193E0000F111F9A95E1F735
:10409000082B0E94B51E00C068E0802F0E941A1FE6
:1040A000A0E1AA95F1F752985A9A4A9B27C087E057
:1040B00090E04A9925C08AE08C9F80018D9F100D69
:1040C00011240B5F1E4FF80165816623A1F1209139
:1040D000690130916A0186819781820F931F0E9446
:1040E000E71E811128C0529A5A9AD801ED91FC918D
:1040F00082E08083789482E090E016C000C0D5CF43
:104100000197B9F4529A5A9A8AE08C9FF0018D9FD8
:10411000F00D1124EB5FFE4F0190F081E02D81E066
:104120008083789481E090E0DF91CF911F910F918F
:10413000089500C0BECF0E94AD1EB0E2BA95F1F75F
:104140005A98529AE0E1EA95F1F78AE08C9FF001E3
:104150008D9FF00D1124EB5FFE4F6281662351F0BD
:104160002091690130916A0183819481820F931FAC
:104170000E943B1F0E94B51E8AE08C9FF0018D9F1C
:10418000F00D1124EB5FFE4F0190F081E02D1082C5
:10419000789490E080E0C8CF84E090E0C5CF909321
:1041A0008B0180938A0108959093A8028093A702BF
:1041B00008950E94FC13811103C08091A20208950A
:1041C000E091A702F091A802309721F00190F081D0
:1041D000E02D099480E00895E091A702F091A802F3
:1041E000309721F00280F381E02D09940895E09149
:1041F000A702F091A802309739F022E0DC012C935D
:104200000480F581E02D099408952091A502309154
:10421000A6022817390771F09093A6028093A50291
:10422000E091A702F091A802309721F00680F78173
:10423000E02D099408952091A3023091A40228173B
:10424000390771F09093A4028093A302E091A70232
:10425000F091A802309721F00084F185E02D0994B7
:1042600008959C012E5F3F4FAC01485F5F4F80E097
:104270002417350709F40895F90191919F019923B5
:10428000B9F38F5FF5CF662349F0FC0132960896AB
:104290002191261729F0E817F907D1F780E0089552
:1042A00081E008959C01FC0132969FEF80E04191EE
:1042B000461751F09F3F19F4411101C0982F8F5FAD
:1042C0008630A9F79F3F09F40895290F311D97FD06
:1042D0003A95F90162830895FC013296089621917E
:1042E000261303C0DF0111971C92E817F907B9F7ED
:1042F00008950C9452210C946C21029626E0FC0146
:1043000011922A95E9F7089508950C94842181115A
:1043100005C081E08093A9020C94852182E0FACF48
:1043200083E08093A9020C9485210C94872181E07D
:104330008093A9020C9485210C9497210895809173
:10434000C602843031F10E9407061092AA0288E169
:1043500090E020E40FB6F894A895809360000FBE1B
:104360002093600083B7817F846083BF83B78160BF
:1043700083BF7894889583B78E7F83BF0FB6F894F8
:10438000A895809160008861809360001092600021
:104390000FBE089508950895CF930E94CA210E94E8
:1043A00029040E94CB21C0E08C2F0E94560381116A
:1043B00005C0CF5FC431C1F7CF91089581E0FCCF34
:1043C0000E94D00A0C9475061F921FB61F921124EA
:1043D0008F939F93AF93BF938091AA02811113C0D3
:1043E0008091BE029091BF02A091C002B091C10223
:1043F0004196A11DB11D8093BE029093BF02A09370
:10440000C002B093C102BF91AF919F918F911F9055
:104410001FBE1F90189582E084BD93E095BD9AEF72
:1044200097BD80936E0008952FB7F8948091BE02D7
:104430009091BF02A091C002B091C1022FBF089518
:104440002FB7F8946091BE027091BF028091C002B4
:104450009091C1022FBF08959C014FB7F8948091AD
:10446000BE029091BF02A091C002B091C1024FBFA5
:10447000821B930B0895CF92DF92EF92FF922FB79A
:10448000F894C090BE02D090BF02E090C002F090BD
:10449000C1022FBFA7019601261B370B480B590BF2
:1044A000CA01B901FF90EF90DF90CF900895789402
:1044B0001F921FB61F9211248F939F93AF93BF93A8
:1044C0008091BE029091BF02A091C002B091C10242
:1044D0000196A11DB11D8093BE029093BF02A093CF
:1044E000C002B093C102BF91AF919F918F911F9075
:1044F0001FBE1F90189587E797E790930108809358
:10450000000888E19AE00FB6F894A89580936000BF
:104510000FBE90936000FFCF8091B302089508957D
:1045200008959C0184E08093E9009FEF8091E8006A
:10453000915085FD06C085ED8A95F1F70000911137
:10454000F5CF8091E80085FF0CC050E040E066E0C8
:1045500070E0C9010E94F1248091E8008E77809379
:10456000E8000895CF93DF93EC0181E08093E900A8
:104570008FEF9091E800815095FD06C095ED9A95DA
:10458000F1F700008111F5CF8091E80085FF14C09C
:1045900050E040E068E070E0CE010E94F12480919C
:1045A000E8008E778093E80088E0FE01ABEAB2E095
:1045B00001900D928A95E1F7DF91CF9108950895CA
:1045C000CF93FC01603221F58091C602843001F561
:1045D000C091E900CF702091EC00922F917020FDE6
:1045E00090E8C92B82E08093E9008091E80080FF89
:1045F0000CC050E040E060E270E0CF010E94F12486
:104600008091E8008E778093E800CF70C093E90036
:10461000CF9108958091C502811109C00E94D026D2
:104620000E942D278091E20084608093E20008952B
:104630001092C50208950C9497216091C20281E006
:10464000611101C080E00C9490219091C60281E03C
:10465000943009F080E06091C2020C94952142E010
:1046600061EC81E00E944C2642E261EC84E00E9411
:104670004C2642E261EC82E00E944C2642E260EC71
:1046800083E00E944C269091C60281E0943009F0AC
:1046900080E06091C2020C9487218091C80283302F
:1046A00009F462C030F48130D9F1823009F49EC03F
:1046B00008958A3009F48AC08B3009F470C08930BB
:1046C00009F051C08091C702813209F04CC080913D
:1046D000CB029091CC02009719F0029709F043C0E9
:1046E0008091E800877F8093E8008091E80082FF56
:1046F00036C09091F3008091F200029731F48091DE
:10470000F100813011F0863021F48091F100809326
:10471000B3028091E8008B778093E8000C948026A8
:104720008091C702813AF9F48091E800877F8093F5
:10473000E8008091CB029091CC02892B61F468E073
:104740008BEA92E070E00E948F258091E8008B77E1
:104750008093E800089560E090E080E0F3CF8091DE
:10476000C6028111C2CF08958091C702813AD9F75C
:104770008091CB029091CC02892BA9F78091E8001F
:10478000877F8093E8008091E80080FFFCCF8091D4
:104790004B018093F1008091E8008E77BDCF80912E
:1047A000C702813201F78091CB029091CC02892B14
:1047B000D1F68091E800877F8093E8000E948026F0
:1047C0008091C90280934B010C94D00A8091C7025A
:1047D000813249F68091E800877F8093E8000E944B
:1047E00080268091CA028093B40208958091C70206
:1047F000813A09F0B8CF8091E800877F8093E80084
:104800008091E80080FFFCCF8091B402C2CF84B7D2
:10481000877F84BF0FB6F894A89580916000886167
:1048200080936000109260000FBE80E890E00FB6A9
:10483000F89480936100909361000FBE0C949C21CA
:104840000E94D0260E942D27E2EEF0E08081846055
:10485000808378940C94B6298FE391E00C94D42053
:104860008091C6028530A9F48091C602853011F08E
:104870000C94E0210E949F218091C4028823A1F31F
:104880000E94CC21882381F30E94DB240E94D00A5D
:10489000EBCF0895CF93DF93CDB7DEB7A0970FB6D8
:1048A000F894DEBF0FBECDBF8091C602843009F5FB
:1048B00083E08093E9008091E80082FF1AC0809134
:1048C000E80090E085FF09C050E040E060E270E061
:1048D000CE0101960E94402591E08091E8008B77FF
:1048E0008093E800992329F060E2CE0101960E94AE
:1048F0008D19A0960FB6F894DEBF0FBECDBFDF9125
:10490000CF9108950C948424292F33272330310527
:1049100021F168F42130310509F443C0223031051A
:1049200009F444C090E080E030E020E026C021326D
:10493000310551F122323105A9F76330710590F745
:10494000FB01EE0FFF1FE258FE4F208131816558B9
:104950007E4FFB01808190E010C099278130910546
:1049600081F0009729F00297E9F6ECE7F4E002C045
:10497000EAE9F4E0849190E09F01FA013183208319
:104980000895E2E9F4E0F6CF6330710558F6660F5A
:10499000771FFB01EC57FE4F2081318189E090E0C9
:1049A000ECCF82E190E029EF34E0E7CF8BE590E0B7
:1049B0002EE934E0E2CF80E189BD82E189BD09B40E
:1049C00000FEFDCF8091D8008F7D8093D80080912C
:1049D000E00082608093E0008091E00081FDFCCFE8
:1049E0000895AF92BF92CF92DF92FF920F931F93E1
:1049F000CF93DF936C01EB018A010E949F26F82E72
:104A0000811123C00115110539F0F80180819181D0
:104A1000C81BD90BC80ED91EB12CA12C2097A9F008
:104A20008091E80085FD22C08091E8008E77809318
:104A3000E80001151105A1F0F80180819181A80E0F
:104A4000B91EB182A08285E0F82E8F2DDF91CF9123
:104A50001F910F91FF90DF90CF90BF90AF9008957E
:104A60000E949F268823D1F2F82EEFCFF601819184
:104A70006F018093F1002197FFEFAF1ABF0ACECFED
:104A8000AF92BF92CF92DF92FF920F931F93CF937B
:104A9000DF936C01EB018A010E949F26F82E8111A1
:104AA00023C00115110539F0F80180819181C81BDF
:104AB000D90BC80ED91EB12CA12C2097A9F080913A
:104AC000E80085FD22C08091E8008B778093E800A4
:104AD00001151105A1F0F80180819181A80EB91E80
:104AE000B182A08285E0F82E8F2DDF91CF911F91AA
:104AF0000F91FF90DF90CF90BF90AF9008950E94EC
:104B00009F268823D1F2F82EEFCF8091F100F60195
:104B100081936F012197FFEFAF1ABF0ACECFFC013F
:104B20008091CD029091CE0286179707A0F0611573
:104B3000710529F49091E8009E779093E80090E049
:104B40006115710551F4911108C08091E80082FF50
:104B500034C080E00895BC01F2CF8091C602882362
:104B6000C1F18530C1F18091E80083FD30C08091B2
:104B7000E80082FDEACF8091E80080FFE1CF8091DC
:104B8000F3002091F200382F6115710519F02830DB
:104B9000310558F091E02830310509F090E020917E
:104BA000E8002E772093E800CBCF81918093F1002D
:104BB000615071092F5F3F4FE7CF8091C602882374
:104BC00041F0853041F08091E80083FFBECF81E065
:104BD000089582E0089583E00895FC018091CD025C
:104BE0009091CE0286179707A0F06115710529F400
:104BF0008091E8008E778093E80090E06115710560
:104C000051F4911108C08091E80082FF35C080E026
:104C10000895BC01F2CF8091C6028823C9F1853086
:104C2000C9F18091E80083FD31C08091E80082FDE8
:104C3000EACF8091E80080FFE1CF8091F3002091DE
:104C4000F200382F6115710519F02830310558F040
:104C500091E02830310509F090E08091E8008E77EE
:104C60008093E800CBCF84918093F100319661501E
:104C700071092F5F3F4FE6CF8091C602882341F034
:104C8000853041F08091E80083FFBDCF81E0089539
:104C900082E0089583E00895982F973028F08F7070
:104CA0008093E90081E008959093E900242F762F06
:104CB00050E0981731F07091EC002091ED00509188
:104CC000F00021FD02C09F5FE8CF3091EB003E7FF6
:104CD0003093EB003091ED003D7F3093ED0030914B
:104CE000EB0031603093EB007093EC002093ED000B
:104CF0005093F0002091EE0027FDE5CF80E008956D
:104D00008091C70287FF13C08091E80082FF06C030
:104D10008091E8008B778093E80004C08091C60200
:104D20008111F2CF08958091C6028823D9F3809132
:104D3000E80080FFF8CF8091E8008E77ECCF2091DB
:104D4000E4003091E50095E6A9012091EC00822F66
:104D5000817020FF06C08091E80080FF06C080E0DF
:104D600008952091E80022FD1AC08091C602882390
:104D700089F0853089F08091EB0085FD0FC020918E
:104D8000E4003091E50042175307F9F29150E1F643
:104D900084E0089582E0089583E0089581E0089515
:104DA0000E943E270E944627E0EEF0E0808181606D
:104DB0008083E8EDF0E080818F77808319BCA7EDD8
:104DC000B0E08C918E7F8C9380818F7E8083109257
:104DD000C50208950F931F93CF93DF930E943E2740
:104DE0000E944627C8EDD0E088818F77888388812C
:104DF0008068888388818F7D888319BC1092C60261
:104E00001092C2021092C4021092C30200EE10E08F
:104E1000F80180818B7F808388818160888342E074
:104E200060E080E00E944C26E1EEF0E080818E7F21
:104E30008083E2EEF0E08081816080838081886001
:104E40008083F80180818E7F808388818061888360
:104E5000DF91CF911F910F910895E8EDF0E08081EF
:104E60008F7E8083E7EDF0E080818160808384E045
:104E700082BF81E08093C5020C94EA26E8EDF0E061
:104E800080818E7F80831092E20008951092DA0074
:104E90001092E10008951F920F920FB60F92112405
:104EA0002F933F934F935F936F937F938F939F9332
:104EB000AF93BF93EF93FF938091E10082FF0BC00C
:104EC0008091E20082FF07C08091E1008B7F809398
:104ED000E1000E94B5298091DA0080FF19C080911D
:104EE000D80080FF15C08091DA008E7F8093DA00B1
:104EF0008091D90080FF96C080E189BD82E189BDA3
:104F000009B400FEFDCF81E08093C6020E940A230F
:104F10008091E10080FF19C08091E20080FF15C000
:104F20008091E2008E7F8093E2008091E2008061B8
:104F30008093E2008091D80080628093D80019BCF1
:104F400085E08093C6020E941D238091E10084FFCA
:104F50002BC08091E20084FF27C080E189BD82E1FF
:104F600089BD89B5982F917080FFFBCF8091D800C3
:104F70008F7D8093D8008091E1008F7E8093E10047
:104F80008091E2008F7E8093E2008091E200816058
:104F90008093E2008091C202882309F449C084E032
:104FA0008093C6020E9425238091E10083FF29C0DF
:104FB0008091E20083FF25C08091E100877F80938C
:104FC000E10082E08093C6021092C2028091E1006B
:104FD0008E7F8093E1008091E2008E7F8093E200DB
:104FE0008091E20080618093E20042E060E080E036
:104FF0000E944C268091F00088608093F0000E940F
:105000001B23FF91EF91BF91AF919F918F917F9162
:105010006F915F914F913F912F910F900FBE0F9025
:105020001F90189519BC1092C6020E94182370CFC9
:105030008091E30087FD93E09093C602B3CF1F9267
:105040000F920FB60F9211242F933F934F935F93BC
:105050006F937F938F939F93AF93BF93CF93DF9380
:10506000EF93FF93D091E900DF708091EC00C82F9F
:10507000C17080FDC0E81092E9008091F000877F48
:105080008093F00078940E9463281092E900809148
:10509000F00088608093F000CD2BCF70C093E900C2
:1050A000FF91EF91DF91CF91BF91AF919F918F9140
:1050B0007F916F915F914F913F912F910F900FBE14
:1050C0000F901F9018951F93CF93DF93CDB7DEB746
:1050D000AA970FB6F894DEBF0FBECDBF87EC92E063
:1050E0002091F100FC012193CF01F2E08F3C9F075A
:1050F000B9F70E944D238091E80083FF1EC1809183
:10510000C7029091C8029A3008F017C1E92FF0E069
:10511000EE56F54D0C94F729803899F0823809F055
:105120000CC18091CB028F70873008F006C180934C
:10513000E9008091EB0085FB882780F91092E90057
:1051400006C08091C3029091C40291118260909137
:10515000E800977F9093E8008093F1001092F100AF
:105160008091E8008E77E5C0882309F4D3C08230AF
:1051700009F0E3C08091C9028111D6C08091CB02B1
:105180008F702FEF280F263008F0D7C08093E900EA
:105190002091EB0020FFC8C0933031F48091EB00E8
:1051A00080628093EB00C0C09091EB00906190937F
:1051B000EB0021E030E001C0220F8A95EAF720934E
:1051C000EA001092EA008091EB008860EACF81113A
:1051D000B4C01091C9021F778091E3008078812BC1
:1051E0008093E3008091E800877F8093E8000E942D
:1051F00080268091E80080FFFCCF8091E3008068EA
:105200008093E30082E0111183E08093C60295C091
:105210008058823008F091C08091C9029091CA02F2
:105220008C3D23E09207A1F583E08A838AE289839B
:105230004FB7F894DE01139620E03EE051E2E32FF1
:10524000F0E050935700E49120FF03C0E295EF7027
:105250003F5FEF708E2F90E0EA30C0F0C7968D93DD
:105260009D932F5F243159F74FBF8091E800877FCE
:105270008093E8006AE270E0CE0101960E948F25DB
:105280008091E8008B778093E80057C0C096E7CF05
:105290006091CB027091CC02AE014F5F5F4F0E94D4
:1052A0008224BC01892B09F448C09091E800977FC3
:1052B0009093E80089819A810E94ED25E1CF8038A2
:1052C000E1F58091E800877F8093E8008091C20239
:1052D0008093F10045CF811130C09091C902923086
:1052E00060F58091E800877F8093E8009093C20288
:1052F0000E9480268091C202882311F084E005C0BC
:105300008091E30087FDFACF81E08093C6020E947E
:105310002F2313C08091C902813079F481E093304A
:1053200009F080E08093C4021092E9008091E800C7
:10533000877F8093E8000E9480268091E80083FFA9
:105340000AC08091E800877F8093E8008091EB009D
:1053500080628093EB00AA960FB6F894DEBF0FBE72
:10536000CDBFDF91CF911F9108950895CF93809184
:10537000C6028823A1F0C091E900CF709091EC00A3
:10538000892F817090FD80E8C82B1092E9008091F0
:10539000E80083FD0E946328CF70C093E900CF919D
:1053A00008950E94D0261092C6020895E8EDF0E01C
:1053B0008081806180838AE18A95F1F700C08091C5
:1053C000D9008170089597FB072E16F4009407D03A
:1053D00077FD09D00E94042A07FC05D03EF4909581
:1053E00081959F4F0895709561957F4F0895EE0FB9
:1053F000FF1F0590F491E02D0994692796276927EE
:105400007827872778270895AA1BBB1B51E107C07F
:10541000AA1FBB1FA617B70710F0A61BB70B881F44
:10542000991F5A95A9F780959095BC01CD010895D3
:10543000FB01DC0102C001900D9241505040D8F7B1
:105440000895F999FECF92BD81BDF89A992780B54C
:105450000895A8E1B0E042E050E00C94552A262FD0
:10546000F999FECF92BD81BDF89A019700B402165A
:1054700039F01FBA20BD0FB6F894FA9AF99A0FBE08
:1054800008950396272F0E94302A0E942F2A252F45
:105490000E94302A242F0C94302A0196272F0E9434
:1054A000302A0C942F2ADC01CB01FC01F999FECFA4
:1054B00006C0F2BDE1BDF89A319600B40D9241509C
:1054C0005040B8F70895F894FFCFD808D8080909D4
:1054D000090938099C0938093809A7090E0A1D0A63
:1054E0001D0ADF0ADF0AE80AE80AEA0AE80AE80A07
:1054F000E80ADF0ADF0AEF0AE80AE80AEF0A9F195A
:10550000AC19D319DF19EA19F519F819F819F819AE
:10551000F819F819FB19FF19071A141A211A241A75
:10552000271A341A8C28B4289D29B4289D29E728E5
:0855300008299D295F296B2960
:10553800C8002E0201BD020000000100000000BDED
:10554800020000000A01000000BD02000000010B7B
:10555800000000BD02000000010C000000BD0204B4
:105568000D0000000000002808641E140A321E8C7A
:1055780022B22291228F22DF2290220134C666367F
:1055880032F5F6F79735F5F6F79735000000000085
:10559800000000000004030400600200FF01000195
:1055A8000000FFFF0000010001FF004022497605CE
:0A55B8000B052D05B004C904E90439
:00000001FF
