:100000000C94DE050C9425060C9425060C94F6271A
:100010000C9425060C9425060C9425060C942506B4
:100020000C9425060C9425060C94EF2F0C94C330E9
:100030000C94882A0C9425060C9425060C9425060D
:100040000C9425060C9425060C9425060C94250684
:100050000C9425060C94FB2A0C9425060C9425067A
:100060000C9425060C9425060C9425060C94250664
:100070000C9425060C9425060C9425060C94250654
:100080000C9425060C9425060C9425060C94250644
:100090000C9425060C9425060C9425060C94250634
:1000A0000C9425060C9425060C942506202020206F
:1000B00020200A005343524C434B0A0020202020AA
:1000C000202020004341504C434B20002020202082
:1000D000202020004E554D4C434B2000556E64654A
:1000E00066696E65640041444A5553540A004C4F9A
:1000F0005745520A0052414953450A00444546417A
:10010000554C540A004C617965723A200080818216
:10011000838485868788898A8B8C8D8E8F90919237
:100120009394A0A1A2A3A4A5A6A7A8A9AAABACAD8D
:10013000AEAFB0B1B2B3B4C0C1C2C3C4C5C6C7C804
:10014000C9CACBCCCDCECFD0D1D2D3D4001F0020C2
:10015000002100220001001A00080015001700010C
:10016000001600070009000A0001001B0006001924
:100170000005000100E2008B002C002C00115F1E26
:1001800000350000000000000014002B00000000FB
:10019000000000040039000000000000001D00E124
:1001A00000000000000000E300E00000000000008C
:1001B0000027002600250024002300130012000C55
:1001C0000018001C0033000F000E000D000B00385B
:1001D000003700360010001100650088008A002CEE
:1001E00000105F2D002E008900000000002F00305D
:1001F000002A000000000034003200280000000047
:100200000087005200E50000000000500051004F40
:10021000000000000001000100F400F50001001FD3
:100220000020002100220001000100010001000166
:1002300000010001000100010001000100010001B6
:1002400000010001000100010001000000000000A9
:10025000001E00010000000000000001000100007D
:10026000000000000001000100000000000000018B
:100270000001000000000000000100010001000179
:1002800000010027002600250024002300010001B2
:100290000001000100010001000100010001000156
:1002A0000001000100010001000100010001000146
:1002B000000000000001000100010000000000013A
:1002C0000001000100000000000100010001000029
:1002D0000000000100010001000000000001000119
:1002E0000001000100C25C0100010001000100C921
:1002F0005C0100010001000100C55C01000100017A
:10030000000100C75C0100010001000100010001C3
:1003100000010000000000000001000100000000DA
:1003200000000001000100000000000000010001C9
:1003300000000000000000010001000000000000BB
:1003400000010001000100010001000100010001A5
:100350000001000100010001000100010001000195
:100360000001000100010001000100010001000185
:100370000001000100010001000000000001000177
:100380000001000000000001000100010000000069
:100390000001000100010000000000010001000157
:1003A0000000000000010001000100010001000147
:1003B0000001000100010001000100010001000135
:1003C0000001000100010001000100010001000125
:1003D0000001000100010001000100000000000018
:1003E0000001000100000000000000010001000009
:1003F00000000000000100010000000000000001FA
:1004000000010000000000000001000100010001E7
:1004100000010001000100010001000100010001D4
:1004200000010001000100010001000100010001C4
:1004300000010001000100010001000100010001B4
:1004400000000000000100010001000000000001A8
:100450000001000100000000000100010001000097
:100460000000000100010001000000000000000089
:1004700000000000002A2B280000000000000000FF
:10048000000000000000000029000000002C1E34C5
:1004900020212224342627252E362D3738271E1FCB
:1004A000202122232425263333362E37381F0405F6
:1004B000060708090A0B0C0D0E0F10111213141564
:1004C000161718191A1B1C1D2F3130232D35040542
:1004D000060708090A0B0C0D0E0F10111213141544
:1004E000161718191A1B1C1D2F3130354C0000002F
:1004F00000000000000000000000000000000000FC
:1005000000000000000000000000000000000000EB
:10051000007E0F00D4FFFFFFC70000007800AE0090
:10052000AF00DA0281FFD9F1DB20A4A62EAF00A034
:10053000C000A1C800AED580A81FD300408D1420F4
:10054000000000000000003E5B4F5B3E003E6B4F32
:100550006B3E001C3E7C3E1C00183C7E3C18001C80
:10056000577D571C001C5E7F5E1C0000183C180065
:1005700000FFE7C3E7FF00001824180000FFE7DBD7
:10058000E7FF0030483A060E002629792926004068
:100590007F05050700407F05253F005A3CE73C5A90
:1005A000007F3E1C1C0800081C1C3E7F0014227F9C
:1005B0002214005F5F005F5F0006097F017F00007B
:1005C0006689956A0060606060600094A2FFA294F2
:1005D0000008047E04080010207E20100008082A6D
:1005E0001C0800081C2A0808001E10101010000C1F
:1005F0001E0C1E0C0030383E383000060E3E0E0633
:100600000000000000000000005F00000000070084
:10061000070000147F147F1400242A7F2A1200236D
:100620001308646200364956205000000807030092
:1006300000001C224100000041221C00002A1C7FF7
:100640001C2A0008083E08080000807030000008DE
:10065000080808080000006060000020100804027C
:10066000003E5149453E0000427F4000007249492A
:100670004946002141494D33001814127F100027CC
:1006800045454539003C4A49493100412111090796
:1006900000364949493600464949291E00000014E0
:1006A0000000000040340000000008142241001443
:1006B0001414141400004122140800020159090600
:1006C000003E415D594E007C1211127C007F494969
:1006D0004936003E41414122007F4141413E007F79
:1006E00049494941007F09090901003E41415173CF
:1006F000007F0808087F0000417F41000020404142
:100700003F01007F08142241007F40404040007FAD
:10071000021C027F007F0408107F003E4141413EE1
:10072000007F09090906003E4151215E007F091939
:1007300029460026494949320003017F0103003F51
:100740004040403F001F2040201F003F4038403FB6
:10075000006314081463000304780403006159491A
:100760004D4300007F414141000204081020000079
:100770004141417F000402010204004040404040EA
:10078000000003070800002054547840007F2844EC
:10079000443800384444442800384444287F003812
:1007A000545454180000087E09020018A4A49C7830
:1007B000007F080404780000447D40000020404091
:1007C0003D00007F102844000000417F4000007C75
:1007D00004780478007C08040478003844444438E1
:1007E00000FC182424180018242418FC007C080499
:1007F00004080048545454240004043F4424003C9A
:100800004040207C001C2040201C003C4030403CEC
:10081000004428102844004C9090907C004464547C
:100820004C44000008364100000000770000000042
:1008300041360800000201020402003C2623263C47
:1008400000000000000000404040F0F8F8FF38FFD2
:10085000F8F83FF8F8FF38FFF8F8F04040400000A3
:100860000000000080C0C0C0800000C0C080000048
:100870000080C0C000C0C0000080C0C000000000F8
:1008800000C0C0C0C0C000C0C00000000000000028
:100890000000000000000000000000000000000058
:1008A0000000000000000000000000000000000048
:1008B0000000000000000000000000000000000038
:1008C000C0F0F8FC3E1E06010000007F4141417F60
:1008D000007F4141417F000080C0E07E5B4F5BFEB6
:1008E000C00000C000DCD7DEDEDED7DC00C00000C8
:1008F00000000000000000000000000000000000F8
:1009000000000000000000494949FFFFFFFFE0DF51
:10091000BFBF00BFBFDFE0FFFFFFFF494949000045
:100920000000001F3F6060E0BF1F007F7F071E3890
:100930001E077F7F007F7F0E1F3B7160000000005D
:10094000007F7F0C0C0C007E7E007F7E0303007F07
:100950007E03037E7E03037F7E000F3E703C063CD9
:10096000703E0F00327B49493F7E007F7E030300CB
:100970001E3F69696F2600000000000000000000B3
:10098000030F1F3F3C7870600000007F4141417FB2
:10099000007F4141417F00307B7F783020203078DC
:1009A0007F3B0003000F7F0F0F0F7F0F000300003E
:1009B0000000000000000000000000000000000037
:1009C00000000000000000010101070F0F7F0F7FF2
:1009D0000F0F7E0F0F7F0F7F0F0F07010101000028
:1009E0000000000000000000010100000000000005
:1009F00000000000000000000000000000000000F7
:100A000000000000000000000000000000000000E6
:100A100000000000000000000000000000000000D6
:100A200000000000000000000000000000000000C6
:100A300000000000000000000000000000000000B6
:100A400000000000000000000000000000000000A6
:100A50000000000000000000000000000000000096
:100A60000000000000000000000000000000000086
:100A70000000000000000000000000000000000076
:100A8000001403680061006C00660063006C00697C
:100A90000066006600000006036E003200000004DD
:100AA00003090409025B00030100A0FA0904000025
:100AB0000103010100092111010001224000070585
:100AC000810308000A090401000203000000092153
:100AD0001101000122220007058203200001070501
:100AE00003032000010904020001030000000921A2
:100AF000110100012249000705840320000A1201A8
:100B0000000200000008350321000100010200017D
:100B10000660FF0961A1010962150026FF0095200A
:100B2000750881020963150026FF0095207508915C
:100B300002C005010902A10185020901A100050900
:100B40001901290815002501950875018102050183
:100B5000093009311581257F95027508810609380C
:100B60001581257F950175088106050C0A38021547
:100B700081257F950175088106C0C005010906A180
:100B800001050719E029E715002501950875018180
:100B9000029501750881010507190029FF15002636
:100BA000FF009506750881000508190129059505BE
:100BB00075019102950175039101C00011241FBEBA
:100BC000CFEFDAE0DEBFCDBF04B603FE27C08091D1
:100BD000FB049091FC04A091FD04B091FE048730C9
:100BE000904BA740B04BD1F41092FB041092FC0440
:100BF0001092FD041092FE0414BE84B7877F84BF58
:100C00000FB6F894A8958091600088618093600089
:100C1000109260000FBEE0E0F8E3099511E0A0E05B
:100C2000B1E0E4ECF6E602C005900D92A437B107FE
:100C3000D9F724E0A4E7B1E001C01D92AB3FB207B1
:100C4000E1F70E94011B0C9429330C940000F894E6
:100C5000E82FE295EF70F0E031A1282F2F7081E0AE
:100C600090E001C0880F2A95EAF7382B31A392A1B2
:100C70008095892382A378940895F894E82FE295CB
:100C8000EF70F0E031A1282F2F7081E090E001C0DB
:100C9000880F2A95EAF7982F9095932391A392A114
:100CA000892B82A37894089508950C94540608958E
:100CB0000C9457060895E82FF0E0E557FE4F808129
:100CC000089508950F931F93CF93DF930E941619F1
:100CD00080910601809106019AE0811190E0909345
:100CE000CE028AE0891B8093CD02C6E4D1E08E015A
:100CF000F80181918F010E943D06F1E000351F0748
:100D0000B9F784E30E943D0686EC0E943D0686E624
:100D10000E943D0686E30E943D0682E30E943D0656
:100D200084E30E943D0686EC0E943D0686E60E9412
:100D30003D0686E30E943D0682E30E943D068991BE
:100D40000E943D0681E0C035D807C9F7EFE9F1E020
:100D5000ABE8B1E011921D9281E0E33BF807D1F7D7
:100D60008AE00E94C5180E94AE0ADF91CF911F91C0
:100D70000F910C942019FF920F931F93CF93DF9341
:100D8000CDB7DEB72A970FB6F894DEBF0FBECDBF42
:100D90000E94FC18F82E6091CE02882309F451C0FD
:100DA0008E010F5F1F4F8AE0F80111928A95E9F7D3
:100DB000862F90E0B80185579E4F0E9483198111BC
:100DC00023C080918A018F5F80938A018630B8F1B9
:100DD000E091CD02F0E0E557FE4FD801CE010B9631
:100DE00011921D92A817B907D9F70E94B40A8F2D46
:100DF0002A960FB6F894DEBF0FBECDBFDF91CF911C
:100E00001F910F91FF90089510928A01A091CD0239
:100E1000B0E0A557BE4F9E01255F3F4FF12C4D918D
:100E2000F80191918F01491731F0AD0141505109FD
:100E3000FA019083F82E0217130789F7D6CFF12C09
:100E4000D4CF70E065577E4F8091CD0290E08557FA
:100E50009E4F0E9485190E945A06C9CF6F927F92B9
:100E60009F92AF92BF92CF92DF92EF92FF920F9339
:100E70001F93CF93DF930FE911E046E4C42E41E0C6
:100E8000D42EC0E0D1E0D601AD906D018A2D0E9434
:100E90002706B0EABA95F1F731E4E32E31E0F32EFC
:100EA000F70130E020E0B12C4191A42FA295AF7062
:100EB000B0E090968C9190E04F7002C09595879528
:100EC0004A95E2F780FD94C08D2F022E01C0880F55
:100ED0000A94EAF7B82A2F5F3F4F2530310521F7F2
:100EE0008A2D0E943D06E0EAEA95F1F7D8018C913F
:100EF000B81609F47FC0BC9281E0C82B0F5F1F4F6A
:100F0000BBE4CB16B1E0DB0609F0BDCF10E000E09A
:100F1000AA24A394B12C20E8C22E21E0D22EF701FE
:100F200091907F01892D0E942706F0EAFA95F1F74A
:100F3000C501002E01C0880F0A94EAF7782F682FA8
:100F40006095E6E7F1E086E4682E81E0782ED0E057
:100F50003191D3012D913D01422F42954F7050E0C8
:100F6000DA0190968C9190E02F7002C0959587954C
:100F70002A95E2F780FD40C0872F832B381731F088
:100F80009F0121503109D9018C93D1E0CE16DF06A3
:100F9000F9F6892D0E943D06043019F0B0EABA95A1
:100FA000F1F7CD2B61F50F5F1F4F0530110509F0EB
:100FB000B6CF6091CE0270E065577E4F2C2F4AE08D
:100FC0008FE991E00E94C6180E94BB06C11101C0C2
:100FD000C82F8C2FDF91CF911F910F91FF90EF9031
:100FE000DF90CF90BF90AF909F907F906F900895CB
:100FF00080E070CF80E081CF862F8323BFCF8091A8
:101000007B018093A40180917C018093A501809154
:101010007D018093A60180917E018093A70180913C
:101020007F018093A801BFCFCF93DF93FA01623095
:10103000710519F42230310539F08FEF818381E099
:1010400090E0DF91CF9108951B9B33C02B9A239A98
:1010500047E050E02998EC01288130E0042E02C0DE
:10106000359527950A94E2F720FF25C02B9A299AF7
:101070004150510978F72AE12A95F1F700C02398E9
:101080002B9A118287E090E02998299A23B123FBBB
:10109000AA27A0F9B0E0AD01082E01C0440F0A94C0
:1010A000EAF72181242B2183019770F790E080E0FB
:1010B000C8CF2B98CCCF2B98DACF0F93CF93DF9359
:1010C00000D000D0CDB7DEB71B828FEF8C83898331
:1010D0008A83E0910001F09101010FEF22E030E0FE
:1010E000AE014F5F5F4F62E070E0CE01039609955D
:1010F0008A810F900F900F900F90DF91CF910F91F9
:101100000895219A23982B9A0895AF92BF92CF9277
:10111000DF92EF92FF920F931F93CF93DF9300D054
:1011200000D0CDB7DEB75C016B017A0182E08B8322
:101130001FEF1C8319831A83E0910001F0910101D4
:101140000FEF22E030E0AE014F5F5F4F62E070E0F2
:10115000CE01039609958A81F501808383E08B8314
:101160001C8319831A83E0910001F091010122E0B0
:1011700030E0AE014F5F5F4F62E070E0CE0103965A
:1011800009958A81F601808384E08B831C8319830F
:101190001A83E0910001F091010122E030E0AE01FC
:1011A0004F5F5F4F62E070E0CE01039609958A8140
:1011B000F701808381E090E00F900F900F900F90E7
:1011C000DF91CF911F910F91FF90EF90DF90CF9023
:1011D000BF90AF900895CF93C82F0E94FC18811143
:1011E00001C0C2E08C2FCF910895CF930E94682256
:1011F000882349F00E94FC1860E0811107C08DE04F
:1012000091E00E941A2180E0CF91089585E091E05D
:101210000E941A218091E1010E94FF0B813071F13F
:10122000882351F0823071F1833081F160E08CEDE0
:1012300090E00E942C2105C060E08CEF90E00E94BD
:101240001A210E948D29C82F8CEC90E0C0FF02C0AB
:1012500084ED90E060E00E941A218CEB90E0C1FFE9
:1012600002C084EC90E060E00E941A218CEA90E0D9
:10127000C2FF02C084EB90E060E0C3CF60E085EF86
:1012800090E0DDCF60E08EEE90E0D9CF60E086EEBA
:1012900090E0D5CFFB01893F910509F43FC028F4C8
:1012A000843F910598F481E057C08B3F910509F484
:1012B00054C008F445C08C3F9105A9F7828188236A
:1012C00009F459C081E08093D4022EC04091D60227
:1012D000845F910921E030E0B90102C0660F771FF9
:1012E0008A95E2F7CB0122812223A9F0842B8093F7
:1012F000D6024091D5025091D6026091D7027091EA
:10130000D8028091D9029091DA020E94291E0E948F
:10131000CE1D80E0089580958423E9CF82818823C3
:1013200031F081E08093D3028093B601F2CF9091A7
:10133000D30219168CF41092D3021092B601E9CFA1
:101340008281882329F08FEF8093D30281E0ECCF54
:101350009091D30297FDEFCF08958281882321F0E9
:101360008FEF8093D402F2CF9091D40297FFF4CF05
:101370001092D402E2CF9091D4021916CCF30895C2
:101380000C948108CF93DF9300D00F92CDB7DEB7D6
:101390008091B601882329F18091B7019091B8011D
:1013A00001969093B8018093B7010197D1F4809191
:1013B000D3028093D9029091D4029093DA024091A3
:1013C000D5025091D6026091D7027091D8020E9446
:1013D000291E1092D9021092DA021092B8011092CE
:1013E000B7018091B4019091B5019C012F5F3F4FEF
:1013F0003093B5012093B40162E370E00E94A732FC
:10140000892B89F50E945D08803319F581E080936E
:10141000B301AE014F5F5F4FBE016E5F7F4FCE01E4
:1014200003960E9485086A8161956093D70279814D
:1014300071957093D8028B8187FF0DC04091D502C2
:101440005091D6028091D9029091DA020E94291E11
:1014500002C01092B3010E94CE1D0F900F900F900A
:10146000DF91CF9108958091B3018823A1F3D1CF6B
:1014700081E008950C944A0908950C943C0A1F9346
:10148000CF93DF9300D000D00F92CDB7DEB7498362
:101490005A836B833091B90189819A8131111DC0C2
:1014A0006623B9F02223A9F00E94DC10182F682FC0
:1014B00089819A810E94851069817A81812F0F909C
:1014C0000F900F900F900F90DF91CF911F910C9480
:1014D00096240E94B310182FEFCF0E94DC10698170
:1014E0007A81EDCFFC01262F408151816281738189
:1014F00084810C943F0A81E00895CF93DF93EC013F
:1015000060E00E94720ABE01DF91CF910C943D0A07
:10151000E1E0F0E0DF0102C0AA0FBB1F6A95E2F72D
:10152000BD01DF0102C0AA0FBB1F4A95E2F76A2B7B
:1015300001C0EE0F2A95EAF7962F9823961302C062
:101540008E2B0895E0958E230895242F462F682F23
:101550008091E1010E94880A0C9442100E94AB180D
:101560000E94170C0C9455060C94580680E00E94BB
:10157000180C0E944D220C94C209089508950E94EF
:10158000DA0F0E94BE0A2FEF84E39CE021508040D6
:101590009040E1F700C000000C941F2B0F931F93A5
:1015A000CF93DF938C0161E00E94720AEC01B801D5
:1015B0000E949F1E8823D9F1B801CE010E943A0AE9
:1015C0008823A9F1B801CE010E94F525882379F17D
:1015D000B801CE010E94A422882349F1B801CE01AE
:1015E0000E945F25882319F1F8018281882361F028
:1015F000CA35FDE5DF0721F170F4C115ECE5DE0722
:10160000A1F0CE3DDC45C9F0C801DF91CF911F911B
:101610000F910C94380ACB358DE5D807A1F0CC3565
:10162000DD4591F70E94EF14EFCF0E94BF0A80E0E2
:10163000DF91CF911F910F9108950E94A815F7CFC8
:101640000E94F814E1CF0E94FB14DECF0C94BD0A77
:101650000E947A290E94180C0C94260BDF92EF92BC
:10166000FF920F931F93CF93DF93E82FF0E0E3599E
:10167000FB4FD490282F26952695269530E0F9012A
:10168000E35FFA4F0491877010E0082E02C01595B1
:1016900007950A94E2F701701127F901E350FB4F17
:1016A000E490F12C082E02C0F594E7940A94E2F736
:1016B00091E0E922FF24F901E351FB4FC491D0E00E
:1016C00002C0D595C7958A95E2F7C170DD2701154F
:1016D000110519F081EE0E948D0CE114F10419F04E
:1016E00086EE0E948D0C8D2D0E94720DEF2819F050
:1016F00086EE0E94050D012B19F081EE0E94050D6A
:10170000CD2B51F08CE2DF91CF911F910F91FF9083
:10171000EF90DF900C94720DDF91CF911F910F919C
:10172000FF90EF90DF900895EF92FF920F931F9339
:10173000CF93DF93EC01162F0AE08881882309F408
:1017400054C0813009F04EC08981813099F47E0106
:1017500022E0E20EF11C8A810E94720DE7012196BF
:10176000812F815050F3EFE9FFE03197F1F700C08E
:101770000000F7CF823041F47E0182E0E80EF11CD8
:101780008A810E948D0CEACF833041F47E01E2E031
:10179000EE0EF11C8A810E94050DE0CF843011F01D
:1017A0002196DDCF2A81229690E080E0AE014F5F46
:1017B0005F4F2053330B2A30310548F0019778F200
:1017C000EFE9FFE03197F1F700C00000F7CF089F85
:1017D000B001099F700D1124C901860F971F29813F
:1017E000EA01E4CF0E942E0BBACFDF91CF911F9177
:1017F0000F91FF90EF90089560E00C94940B982F58
:1018000092959F7011F0892F94E0282F26952695A8
:1018100011F09E5F822F869509F09F5F892F0895B2
:1018200008950C94100C81E008950C94130C089505
:10183000CF93C82F0E94110C8C2FCF910C94150CB4
:10184000CF93DF93CDB7DEB72B970FB6F894DEBFFB
:101850000FBECDBF4F83588769877A878B87611109
:101860000E944A141E821D8285E0FE013796DE0129
:10187000119601900D928A95E1F78C819D81892BBB
:1018800089F449815A816B817C818D819E810E947E
:101890006B132B960FB6F894DEBF0FBECDBFDF9152
:1018A000CF91089589819A8189238F3F51F3CE0189
:1018B00001960E947B0A8111E4CFEBCFFC0180816D
:1018C00091810C9409110F931F93CF93DF9300D054
:1018D00000D000D0CDB7DEB7082F162F0E94081E0B
:1018E00029834B835C836D837E83002399F0312BA6
:1018F0004981532F6B817C818D819E8126960FB605
:10190000F894DEBF0FBECDBFDF91CF911F910F9135
:101910000C94291E10953123EBCFCF93C82F882329
:1019200009F471C08238C1F40E947A2981FD6BC02C
:1019300089E30E9405140E946D142FEF81EE94E05C
:10194000215080409040E1F700C0000089E30E94F0
:101950000C14CF910C946D148338A1F40E947A2951
:1019600080FD51C083E50E9405140E946D142FEF85
:1019700081EE94E0215080409040E1F700C00000EB
:1019800083E5E5CF8438A1F40E947A2982FD3BC02B
:1019900087E40E9405140E946D142FEF81EE94E0FD
:1019A000215080409040E1F700C0000087E4CFCF95
:1019B0008CEF8C0F813A90F46C2F80910401909100
:1019C00005010E94E729882329F08C2F0E940C141E
:1019D0000E946D148C2F0E940514BBCF80E28C0FE7
:1019E000883048F4C77081E001C0880FCA95EAF7D3
:1019F0000E942D14AECFC03F30F08C2F0E94911B5F
:101A0000CF910C94641CCF910895882309F452C09F
:101A1000823871F40E947A2981FF4CC089E30E94C8
:101A200005140E946D1489E30E940C140C946D142B
:101A3000833859F40E947A2980FF3CC083E50E94D4
:101A400005140E946D1483E5EFCF843859F40E9489
:101A50007A2982FF2FC087E40E9405140E946D142A
:101A600087E4E2CF9CEF980F913AF0F290E2980F62
:101A7000983050F4877091E001C0990F8A95EAF789
:101A8000892F0E943314D2CF9BE5980F933020F416
:101A900090E080E00C94A92998E5980F973120F404
:101AA00090E080E00C94BF29803F20F00E94EB1B67
:101AB0000C94641C08951F93CF93DF93182FEB01B0
:101AC0000E948D0C209731F4812FDF91CF911F91CF
:101AD0000C94050D8FE99FE00197F1F700C000001D
:101AE0002197F0CF70E060E0893311F460E570E099
:101AF0000C945B0D882321F00E942D140C946D141E
:101B00000895882321F00E9433140C946D140895D5
:101B1000BF92CF92DF92EF92FF920F931F93CF93DA
:101B2000DF936C01D62FC72FFC011281F580F29450
:101B30009FE0F9220E942314E82E8823B9F0E12EB9
:101B40001123A1F08C2F807F803421F080E28D0F53
:101B50008830D0F08091E00282FD16C082E00E94C1
:101B6000BE140E94231491E0E82EE926BC2EB29404
:101B70008FE0B822FBE0FB1508F468C0EB2DF0E025
:101B8000E55DFC4C0C94BB32E12CF0CF0C2F0F70B8
:101B9000C07F11F00295007F112399F0002359F0C6
:101BA00080E28D0F883010F0D11107C0802F0E9485
:101BB0002D140E946D148D2F41C0802F0E943D1462
:101BC000F8CF8D2F0E94050D002309F43FC080E25D
:101BD0008D0F883010F0D11104C0802F0E94331473
:101BE00003C0802F0E9443140E946D142FC00C2F3D
:101BF0000F70C07FC03211F00295007FDD2381F0AD
:101C0000D13009F46AC0112309F474C0FF2009F42B
:101C10006AC0F601858180FFCECF8F70858363C057
:101C20008091E00282FF39C0112359F0002329F08E
:101C3000802F0E942D140E946D1480E00E948D0C54
:101C400005C080E00E94050D0111C7CF2B2D285043
:101C5000330B2430310520F40E947A290E94180C9D
:101C6000EE2009F44CC10E941F1480FD48C1F6010A
:101C700012820E9419140E945310C6010E94A00FE4
:101C80000E941914DF91CF911F910F91FF90EF9057
:101C9000DF90CF90BF900C945E10112389F0F1106B
:101CA00006C00E945014802B0E947A0DCFCF21E0F5
:101CB000F212F7CF0E945014802B0E945614C6CF08
:101CC000F11006C00E946314802F0E94810DBECFC8
:101CD00031E0F31609F4BACFF5CF112331F085E0E6
:101CE0008F1508F4B3CF802FDFCF94E09F1508F451
:101CF000ADCFEACFFF2041F3D93349F4FFEF27EE10
:101D000033E0F15020403040E1F700C000008D2F5B
:101D10000E94050D9BCF8D2F112391F00E94911BE6
:101D2000ED2FE45FFF0BE530F10568F461E070E052
:101D300001C0660FEA95EAF7812F0E94630C86CFF7
:101D40000E94EB1BEDCF0E94641C80CF8C2F837010
:101D500079F511117BCF4D2F429546954770440F71
:101D6000440F8D2F8F70042E01C0880F0A94EAF75C
:101D70002D2F2071D4FF07C02FE030E001C0220FCB
:101D80004A95EAF72095C695C695C370822BC23056
:101D900049F058F4C13019F00E94341057CF0E9416
:101DA0002F1054CF0E94391051CF0E942D104ECFCA
:101DB0008695112311F08C2F8170882309F446CF6A
:101DC0004D2F429546954770440F440F8D2F8F70CD
:101DD000042E01C0880F0A94EAF72D2F2071D4FF3A
:101DE00007C02FE030E001C0220F4A95EAF72095A6
:101DF000C695C695C370822BC23049F058F4C130E5
:101E000019F00E947A1022CF0E9475101FCF0E94F5
:101E10007F101CCF0E94421019CFCF70112329F0E0
:101E20008C2F0E9453108D2F3FCF8D2F0E94810D3C
:101E30008C2F0E945E100ACFD23F51F160F4D03F48
:101E4000B9F0D13F81F0112309F449C0F110B3CEAC
:101E50008C2F8F7121C0D33F11F1D43FA1F7809116
:101E6000E00282FF26C08C2F8F71112311F314C062
:101E7000112349F0F4E0FF1508F4E8CE8C2F8F71A0
:101E80000E946A10E3CE25E02F1508F4DFCEF6CFCE
:101E90008C2F8F711111CDCF0E945310D7CE1123EB
:101EA00029F08C2F8F710E944B10D0CE0E944810C9
:101EB000CDCE112349F0CF718C2F0E94531063E0D7
:101EC0008C2F0E94A314C2CE81E00E94BE1431E088
:101ED0003F1508F0BBCE82E00E94BE14B7CEFF20B3
:101EE00059F0D93309F013CF8FEF97EEE3E081502B
:101EF0009040E040E1F709CF8C2F8F719ACFDF91AE
:101F0000CF911F910F91FF90EF90DF90CF90BF90F6
:101F100008950F931F93CF93DF93EC01688179812C
:101F20008A810E9413118C010E9484100E942C103F
:101F3000B801CE01DF91CF911F910F910C94880DC4
:101F4000CF93DF93EC018B819C81892B29F08881D1
:101F5000998189238F3F59F4DF91CF910895CE0164
:101F60000E94890FCE01DF91CF910C947D0ACE01A2
:101F70000E94CE0A8111F3CF0E942314882361F3BB
:101F80008A81882349F38091E00282FDE5CF82E0D7
:101F9000DF91CF910C94BE140E944A140E944D14FC
:101FA0000E946D140E948B1D0C94641C0E941314DB
:101FB0000C94CC0F0E943A140C94D60FE92FE295A2
:101FC000EF70E250EE3070F4F0E0E95CFC4C0C9401
:101FD000BB32803F19F020F4883E20F481E0089560
:101FE000843FE1F380E00895883EC0F3813FD1F75C
:101FF000F5CF93FB882780F90895FC0180819181BA
:102000000E9409110C94DE0FCF93DF9300D000D013
:102010000F92CDB7DEB70F900F900F900F900F90EB
:10202000DF91CF910895CF93DF9300D000D000D0FF
:10203000CDB7DEB726960FB6F894DEBF0FBECDBF84
:10204000DF91CF91089508950C9423100E942410DD
:102050008093E2010C94CC0F08950C94261090917B
:10206000E201892B0C9426109091E20189230C94B3
:1020700026109091E20189270C9426100C942310CD
:102080000C943E100E9440108093E1010C94CC0F00
:1020900080E00C94421091E001C0990F8A95EAF714
:1020A000892F0C94421021E030E001C0220F8A9564
:1020B000EAF78091E101822B0C94421021E030E09C
:1020C00001C0220F8A95EAF720958091E1018223D1
:1020D0000C94421021E030E001C0220F8A95EAF70B
:1020E0008091E10182270C9442109091E101892BAB
:1020F0000C9442109091E10189230C94421090912C
:10210000E10189270C9442100895E92FEE0FEE0F9C
:102110009E0F890F982F977041E001C0440F9A9548
:10212000EAF786958695869593E0899FF0011124BC
:10213000E654FE4F30E020E070E05191DF0111974E
:10214000CB01022E02C0969587950A94E2F7817022
:1021500081958527842385278C932F5F3F4F2330DC
:10216000310559F70895E92FEE0FEE0F9E0F890FF5
:10217000982F977086958695869523E0829FF0012B
:102180001124E654FE4F50E040E080E0219130E021
:10219000092E02C0369527950A94E2F7217033275D
:1021A000042E01C0220F0A94EAF7822B4F5F5F4F83
:1021B0004330510559F70895CF92DF92FF920F9364
:1021C0001F93CF93DF936C010091E1018091E201B5
:1021D000082BC7E0D0E010E0FC2EC8010C2E02C096
:1021E000959587950A94E2F780FD0CC02197A0F79A
:1021F000F12C8F2DDF91CF911F910F91FF90DF90E8
:10220000CF900895B6018C2F0E947217019771F339
:10221000F0CFCF93DF93EC010E94DC10BE01DF9181
:10222000CF910C9472171F93CF93DF93EB01909192
:10223000B901992331F0CB01DF91CF911F910C941B
:102240000911882379F0CB010E94DC10182F682F28
:10225000CE010E948510BE01812FDF91CF911F9189
:102260000C947217CB010E94B310182FF4CF1F9358
:10227000CF93DF93C091E30116E08091E4018C13CA
:1022800004C0DF91CF911F910895D0E01C9FF00111
:102290001D9FF00D1124EB51FE4F40815181628151
:1022A0007381848195810E9413102196C770E5CFB8
:1022B0004091150250911602609117027091180218
:1022C0008091190290911A020C941310FF920F93AF
:1022D0001F93CF93DF9380911A02807FD1F4809176
:1022E00017028823B1F08091E3011091E40160911D
:1022F000150270911602A0911802B0911902062FD2
:102300000723C0910201D091030196E0F92E181322
:1023100006C0DF91CF911F910F91FF90089590E03B
:10232000109711F00F3F19F401968770F0CFF89EC7
:102330009001F99E300D1124F901EB51FE4F4181BE
:102340004713F2CF40814613EFCF42814111ECCFCA
:10235000438154814A1B5B0B4C175D0728F7809122
:102360001A028F70806180931A02F901E651FE4FC4
:1023700080818F708061808385E192E00E94A00F50
:10238000DF91CF911F910F91FF900C943711AF9275
:10239000BF92CF92DF92EF92FF920F931F93CF9352
:1023A000DF93CDB7DEB761970FB6F894DEBF0FBEEF
:1023B000CDBF8C0185E0F801DE011D9601900D92E4
:1023C0008A95E1F7F801E28085E1C82E82E0D82EF7
:1023D00060911802709119026115710509F45FC1CD
:1023E0009091150220911602892F82238F3F09F4C4
:1023F00056C140815181A380B480F0901702F5014D
:10240000E61BF70BBF01E0910201F0910301FF20F1
:1024100009F4F6C080911A02382F307F6E177F07BB
:1024200008F0AFC0311179C0FE2C251323C09413DE
:1024300021C0E1101FC08F70806180931A020E943A
:102440005811C6010E94A00F80911A02F8018583DD
:102450008F2D61960FB6F894DEBF0FBECDBFDF9112
:10246000CF911F910F91FF90EF90DF90CF90BF9091
:10247000AF900895AB2829F0842F85238F3F09F072
:1024800027C180E0F82FF170DF2E80FF3CC08091E3
:10249000E3012091E40136E0821315C04D875E8789
:1024A0008D859E850E940911292F22952F7022303B
:1024B000F0F0243018F59F70F1F0F8019581907FCD
:1024C000D1F4D12C1EC090E0389FF001399FF00D5F
:1024D0001124EB51FE4F6181651306C060816413C6
:1024E00003C062816E110FC001968770D5CF9F70B7
:1024F00011F0882331F3805E883018F3C8010E9400
:10250000A00FFD2CA5CFEE2009F4A2CF80911A02D6
:10251000816080931A02F12C9BCF251306C094137F
:1025200004C0F801EE2009F487C0C8010E94FD0F25
:10253000882319F1EE2009F180911A02803270F09F
:10254000209115023091160238872F831986BB8699
:10255000AA868C87CE0107960E94A00F86E0F8011C
:10256000A5E1B2E001900D928A95E1F70E94661113
:102570000E945811FF24F3946BCFC8010E94A00F52
:10258000F9CF311113C07A2DB98AA88A6E2D8989A5
:102590000E94041085E192E00E94A00F86E0F601FF
:1025A00011928A95E9F70E945811B5CF25130FC0F3
:1025B00094130DC0E1100BC0F8018583C8010E947F
:1025C000A00F86E0F60111928A95E9F741CFC80184
:1025D0000E94FD0F882389F2EE2079F280911A0281
:1025E000803208F4BBCF20911502309116023A8355
:1025F00029831B82BD82AC828E83CE010196ACCF33
:102600006E177F0708F03EC0FE2CEE2009F4B5CF10
:1026100025132AC0941328C080911A0280FD1BC084
:10262000982F907FC1F0F8018583903F31F0982F6B
:10263000907F905F8F70892B8583C8010E94A00FC7
:1026400086E0F801A5E1B2E001900D928A95E1F7EC
:102650000E945811FDCE86E0F801A5E1B2E001909C
:102660000D928A95E1F7F4CEC8010E94FD0F811109
:1026700075CF80911A02816080931A02C8010E946E
:10268000A00FE6CE7A2DB98AA88A6E2D89890E947C
:10269000041086E0F60111928A95E9F7D9CFEE2071
:1026A00009F46BCFC8010E94FD0FF82E882309F4AE
:1026B00064CF86E0F801A5E1B2E001900D928A9521
:1026C000E1F785E192E00E945E0C0E946611C0CFA6
:1026D00081E08E25D7CE1F93CF93DF93CDB7DEB7A2
:1026E0002C970FB6F894DEBF0FBECDBF4F8358872F
:1026F00069877A878B879C87CE0107960E94C711CE
:10270000882369F08A859B85892B39F04F8158850C
:10271000842F85238F3F09F071C016E05FC086E0EB
:10272000FE013796DE01119601900D928A95E1F730
:102730008A859B85892B89F38F81988589238F3F93
:1027400061F32091E40130E0C90101968770992777
:102750004091E3014817190671F40E94DA0F1092B4
:10276000E4011092E30186E0E5E1F2E0DF011D9271
:102770008A95E9F7D2CF96E0929FD001939FB00D52
:102780001124AB51BE4FFE01319601900D929A95E6
:10279000E1F78093E4010E943711BFCF819FC00110
:1027A00011248B519E4F0E94C7118823E9F0E091BC
:1027B000E3011E9FF0011124EB51FE4F4081518136
:1027C00062817381848195810E9413108091E3015D
:1027D00090E00196877099278093E3018091E3014F
:1027E0009091E4018913DACF2C960FB6F894DEBFEE
:1027F0000FBECDBFDF91CF911F91089569857A8576
:102800008B859C850E94131088CF682F80910401CE
:10281000909105010C941D2A682F809104019091DC
:1028200005010C941F2A80910401909105010C94DC
:10283000212A80911B028595859585950895809123
:102840001B028770089590911B02977081E009F434
:1028500080E0089580912702089590912702892BA6
:102860008093270208958095909127029823909352
:102870002702089510922702089590912602892B2D
:102880008093260208958095909126029823909334
:1028900026020895109226020895109225020895A6
:1028A00080911C02089508950C9453149091E002B5
:1028B00092FD08C090911C02981721F080931C0291
:1028C0000C945414089580911C02882329F01092CE
:1028D0001C0280E00C9454140895E0910401F091DE
:1028E0000501809127028083E0910401F0910501A8
:1028F000808190912602892B8083E0910401F091E0
:102900000501808190912502892B808390911C0282
:10291000992381F0E0910401F09105018081892BD8
:10292000808380910401909105010E94D529811135
:102930000E94631480910401909105010C949029E8
:1029400008950C94A0149091E00292FD10C098E0BC
:10295000899F90011124622B60931B020E945310E7
:1029600080911B028595859585950C94A1140C94F6
:10297000531010921B0280E00C94A11490911B0242
:102980008095892380931B02282F277091F4282F8C
:10299000082E000C330B9217130659F09091E002A9
:1029A00092FD07C08595859585950E945E100C94D3
:1029B000B91408959091E00292FB222720F928177C
:1029C00069F080FB92F99093E0028091DF02909190
:1029D000E0020E94251582E00C94BE1408958091B7
:1029E000E00282FB882780F991E089270C94DA14B1
:1029F00081E00C94DA1480E00C94DA146FEF7FEF2E
:102A000090E080E00C94133390E080E00E94EF327D
:102A1000893E9E4F11F40C94481E80E0089582E098
:102A200090E00C94E73283E090E00C94E732CF938F
:102A300084E090E00E94E732C82F82E290E00E949A
:102A4000E732982F8C2FCF910895CF93C92F682FFD
:102A500084E090E00E94F5326C2F82E290E0CF910A
:102A60000C94F532AB01BC018FE090E00C9407337D
:102A7000AB01BC0183E190E00C94073360E070E0AF
:102A8000CB010C94381560E070E0CB010E94321548
:102A90000C943E1569EE7EEF90E080E00E941333C7
:102AA00060E082E090E00E94F53260E083E090E038
:102AB0000E94F5321092E20160E084E090E00E9412
:102AC000F53260E082E290E00E94F53260E085E05D
:102AD00090E00E94F53260E086E090E00E94F532DE
:102AE0006FEF87E090E00E94F53240E050E0BA01DD
:102AF00088E090E00E94073360E08DE090E00E9463
:102B0000F53240E050E0BA0188E190E00E940733DE
:102B100060E087E190E00E94F53240E050E0BA01C9
:102B20008CE190E00E94073370E060E080E290E08A
:102B30000E94133340E050E0BA0188E190E00E9427
:102B4000073380E00E94611E0E94871E0C9443158B
:102B50000C944A15682F8EE090E00C94F5320E9498
:102B6000C42A60934102709342028093430290937F
:102B7000440260933D0270933E0280933F02909323
:102B80004002089585B7806885BF85B7806885BF96
:102B90000895089508950C94C91508950C94CD15C1
:102BA0000E94C21581E998E10E9470290E94CA150D
:102BB0000C94CB150C94FC18089508950E94DC1514
:102BC0000C94DD150E94AF2A0E9450180E94961E98
:102BD0000E9462060E948F1F80E00E94EF1F0E94E9
:102BE000C0090C94CE159F92AF92BF92CF92DF9204
:102BF000EF92FF920F931F93CF93DF93CDB7DEB782
:102C00002A970FB6F894DEBF0FBECDBF0E942E07E5
:102C1000C82E81110E94AF1589E2A82E82E0B82E3D
:102C200010E000E0902E802F0E945B06E82EF50158
:102C3000F1905F01F81609F456C08091450281FDBC
:102C40000E9461068F2D8E25D12CFF24F394982F9E
:102C50009F2109F443C00E94DA15882399F0DE828F
:102C60009F82EF2081E009F480E088870E94B82AE3
:102C70008160782F9A8789874E815F8168858A85F0
:102C80000E94200CF801E75DFD4F8081F826F0825C
:102C90000E946A22C1100E9431210E947F1C0E9462
:102CA000C2090E947A2990912802891799F10E94FD
:102CB0007A29809328022A960FB6F894DEBF0FBEB9
:102CC000CDBFDF91CF911F910F91FF90EF90DF90DB
:102CD000CF90BF90AF909F900C94180CD394FF0CA2
:102CE000F5E0DF12B4CF0F5F1F4F0431110509F07B
:102CF00099CF8FEF89838A831B820E94B82A8160D3
:102D0000782F9D838C8349815A816B818D810E94AC
:102D1000200CBECF2A960FB6F894DEBF0FBECDBFF3
:102D2000DF91CF911F910F91FF90EF90DF90CF90A7
:102D3000BF90AF909F900895CF93DF930E94761736
:102D4000EC01811522E5920778F5811531E59307AD
:102D500008F098C08F3F910509F0B8F4803F9105C5
:102D600008F06FC0853A910540F48430910548F42D
:102D7000019739F0D0E0C0E004C0805E9109089767
:102D8000C8F7CE01DF91CF910895811540E59407F2
:102D900008F05CC0C11580E4D80708F054C0C11524
:102DA00090E2D90770F3E6CF811526E5920718F572
:102DB000811535E5930708F07DC0811544E594073A
:102DC00008F073C0982F969596959E01237033272F
:102DD000C115D34508F45BC0C1E0D0E002C0CC0F00
:102DE000DD1F2A95E2F730E2939FC0011124C82B22
:102DF000D92BDA68C6CFC1159AE5D90778F4C11581
:102E000029E5D20708F060C0C11538E5D30708F4FA
:102E1000B1CFDC2FCC27C06FD06AB3CFCE01905694
:102E20008115904208F0A6CF8D2F8F710E940D184A
:102E300090E0982F882788279F719C012C2BE9010F
:102E400041C0D0659ECFDF70D06A9BCFE4E09695FD
:102E50008795EA95E1F783702C2F269526952370A8
:102E600090E2299F90011124382B8C2F8370C1E0B0
:102E7000D0E002C0CC0FDD1F8A95E2F7C22BD32B26
:102E8000DC687FCFD82FCC27C16FD06A7ACFC1E062
:102E9000D0E002C0CC0FDD1F2A95E2F720E2929F1E
:102EA000C0011124C82BD92BEBCFD82FCC27C46F4E
:102EB000D06A67CF0E940D18C82FD0E0DC2FCC2736
:102EC000CC27DF71D0625DCF8C2F8F700E940D18E0
:102ED00034E0D695C7953A95E1F7CF709C2FEC0179
:102EE000D0694FCF0E9496240C949C16823891058D
:102EF000B1F1B0F48133910509F475C048F4893219
:102F0000910509F469C08A32910509F473C00895E6
:102F10008533910509F459C08933910501F108956C
:102F2000833E9105A9F138F4803E9105F9F0823E87
:102F3000910549F10895863E9105A9F1873E9105D5
:102F4000C9F1843E910519F52091E00221FF1FC0CF
:102F50008091DF0284FD14C087EE90E008952091F7
:102F6000DF022370A1F080EE90E008952091DF024F
:102F700020FD47C03091E00230FF09C024FF44C06B
:102F800090E080E004C02091DF0222FDF7CF089599
:102F90002091DF0222FD3BC03091E00230FDE3CF03
:102FA00024FFF5CFEDCF2091DF0223FFF0CF24FDEA
:102FB000E7CFD2CF2091DF0223FD2CC03091E00279
:102FC00031FFEECF84EE90E008952091DF0225FFDF
:102FD000DECF89E290E008952091DF0225FFD7CF70
:102FE00085E390E008952091DF0226FFD0CF8AE2AA
:102FF00090E008952091DF0226FFC9CF81E390E0A1
:10300000089589E390E0089583EE90E0089582EEBC
:1030100090E0089586EE90E008959091DF0292FF8F
:1030200006C0282F28712830F9F4877F846093FF29
:1030300006C0282F28712831F1F4877E8461209101
:10304000E00220FF06C0382F38713830D9F4877F6E
:10305000816021FF06C0282F28712831D1F4877E96
:10306000816194FD877E0895282F24712430F9F61C
:103070008B7F8860DCCF282F2471243101F78B7E71
:103080008861DDCF382F3171313019F78E7F88603C
:10309000E0CF282F2171213121F78E7E8861E1CF89
:1030A0001092DB021092DC021092DD021092DE021E
:1030B0000895CF92DF92EF92FF926B017C010E9404
:1030C000FC1881110EC00E94C42AC61AD70AE80A49
:1030D000F90AC092DB02D092DC02E092DD02F092AB
:1030E000DE02FF90EF90DF90CF9008950F931F9333
:1030F0000E94FC18882321F01F910F910C94C42A80
:103100000E94C42A0091DB021091DC022091DD02B2
:103110003091DE02600F711F821F931F1F910F916C
:10312000089580E008950C94FE140E942E078FE30A
:103130009CE90197F1F700C000000E942E0780E093
:103140000E945B0680FF04C00E9493180C941F2B02
:1031500008950C9495180E940415811102C00E94D4
:10316000A8150E940F15809345020E941715909391
:10317000E0028093DF020E94A9180E9413150E94AA
:103180002D108091E1010C9440100895FF920F934F
:103190001F93CF93DF93F82E092F162FD72FC42F0D
:1031A000222349F081E0809348020E94B82A90933C
:1031B000470280934602809148028823A1F08091C3
:1031C0004602909147020E94D02A059760F0EF2DA9
:1031D000F02FA12FBD2FCE0FDF2FD11DEC17FD0734
:1031E00041F410924802DF91CF911F910F91FF900F
:1031F000089581918D93F2CF80914902811107C08A
:103200000E947A32882351F081E08093490281E064
:1032100090914902913009F080E0089582E0809316
:1032200049020E947532F3CF0C94FC180E941419C5
:10323000809306010E94FC1881110C942E190895A8
:103240000E94FC18811102C00C943019089581E08D
:1032500090914A029A3008F080E008950C94AF27CC
:103260000C94B227EF92FF920F931F93CF93DF93AB
:103270007901C82F880FDD0B41155105A9F08AE0AF
:103280008C9FF0018D9FF00D1124E95FFE4F83812B
:103290009481855B9D4F228130E04217530708F4EB
:1032A0009A01A9010E94DE32CE010E94BC28892B1E
:1032B00011F501151105E9F08AE08C9FF0018D9F51
:1032C000F00D1124E95FFE4F458150E0041715070A
:1032D00008F4A8018AE08C9FF0018D9FF00D112465
:1032E000E95FFE4F66817781655B7D4FC7010E9474
:1032F000DE3281E001C080E0DF91CF911F910F911C
:10330000FF90EF9008950C949F1A0C94BB1A0F93A2
:103310001F93CF93DF9300D000D0CDB7DEB760917D
:103320006C0270916D0280916E0290916F020E940A
:10333000DF2A11E0643671058105910518F10E94BC
:1033400076186E5F7F4F8F4F9F4F69837A838B8391
:103350009C8310E000E030E020E044E050E0BE015B
:103360006F5F7F4F82E00E943219182F882351F03F
:103370000E94C42A60936C0270936D0280936E0267
:1033800090936F02812F0F900F900F900F90DF910D
:10339000CF911F910F910895AF92BF92CF92DF927C
:1033A000EF92FF920F931F93CF93DF93CDB7DEB7CA
:1033B0002B970FB6F894DEBF0FBECDBF7B01C09038
:1033C0005A01D0905B0101E010E09E01255F3F4F64
:1033D00050E040E070E060E080E00E943219182F79
:1033E000882309F448C056018FEFA81AB80A6091E3
:1033F00068027091690280916A0290916B020E944A
:10340000DF2A643671058105910568F10AE010E054
:103410009E012F5F3F4F50E040E070E060E081E0B0
:103420000E943219D82E6AE070E0C5010E94901FF8
:1034300011E09B85981310E01D2141F10E94C42AE0
:10344000609368027093690280936A0290936B02A2
:103450008AE0FE013196AEE5B2E001900D928A95C8
:10346000E1F711E013C06AE070E0C5010E94901F0F
:103470009B858913CBCF8AE0F6013196DE01119648
:1034800001900D928A95E1F71111E2CF8AE0EEE505
:10349000F2E0D70101900D928A95E1F7812F2B96EA
:1034A0000FB6F894DEBF0FBECDBFDF91CF911F9155
:1034B0000F91FF90EF90DF90CF90BF90AF90089565
:1034C000AF92BF92CF92DF92EF92FF920F931F9332
:1034D000CF93DF937C015B016A010E94271901E011
:1034E00010E0882311F00AE010E0C1E0D0E0F89489
:1034F000B501C701F60109957894811104C02196A0
:103500000C171D075CF4DF91CF911F910F91FF9075
:10351000EF90DF90CF90BF90AF900895CC9F900137
:10352000CD9F300D300D112490E080E045E34A95A9
:10353000F1F70000019682179307C1F7D8CF0F93D8
:103540001F93CF93DF93EC018B014CEC59E10E9468
:10355000601A882351F047E859E1B801CE01DF91A4
:10356000CF911F910F910C94601A80E0DF91CF9161
:103570001F910F9108950F931F93CF93DF93F894AA
:10358000C0915A01D0915B01CE0101962AE0FB0166
:10359000DC0101900D922A95E1F76AE070E00E944B
:1035A000901F88837894F8946B857C858D859E85A3
:1035B00000915A0210915B0220915C0230915D02F1
:1035C000601771078207930751F060935A02709356
:1035D0005B0280935C0290935D020E94591878947C
:1035E000DF91CF911F910F9108950E94C42C0E94EA
:1035F000E2150C94D02C0E94D42C0E94F3150C944C
:10360000EE2C0E94422A0E94AB2C0E94D0150E94F0
:10361000F51A0E94FB1A0E94DE15FBCF80917602FC
:1036200080FF12C060912A0185E0689FB0011124DB
:10363000759567957595679560387105A8F561155D
:103640007105A1F1862F089581FF09C060912A01BB
:1036500085E0689FB001112475956795EDCF609165
:103660002A0182FD0AC0809175028823D1F09091D1
:10367000290160912A01891728F085E0689FB0012F
:103680001124DACF869FB001112485E0869F900136
:10369000879F300D1124692F70E0C9010E94A73265
:1036A000CBCF65E070E0CECF8FE7089581E008953D
:1036B0008091760280FF0CC06091260170E07595C4
:1036C0006795759567956115710549F1862F089580
:1036D00081FF06C06091260170E075956795F3CF74
:1036E0006091260182FD0BC0909174029923A1F094
:1036F0006091250180912601961738F0682F70E0BF
:103700006038710500F38FE70895899FC001112487
:1037100070E00E94A732F4CF61E070E0D7CF81E083
:103720000895803F31F40E940E1B819580937A02A8
:103730000895813F19F40E940E1BF8CF823F31F4A7
:103740000E940E1B8195809379020895833F19F49E
:103750000E940E1BF8CF893F29F40E94581B8093CA
:103760007B0208958A3F21F40E94581B8195F7CF70
:103770008B3F31F40E94581B819580937C02089501
:103780008C3F19F40E94581BF8CF9CE0980F95309D
:1037900070F4845F990B21E030E001C0220F8A951C
:1037A000EAF780917802822B8093780208958D3F0A
:1037B00031F48091760281608093760208958E3F85
:1037C00021F4809176028260F7CF8F3FB9F7809124
:1037D00076028460F1CF40917902803F59F4809164
:1037E0007A0287FF0DC010927A0241110BC010922D
:1037F000750208C0813F81F480917A0218169CF30B
:10380000442381F080917B0290917C02892B09F006
:103810005AC0109274020895823F49F447FFF0CFD6
:103820001092790280917A028111ECCFE0CF833F30
:1038300019F41416ACF3E4CF90917B02893F29F47C
:103840001916F4F610927B02DBCF8A3F19F497FF2A
:10385000D7CFF8CF90917C028B3F29F497FFD0CF40
:1038600010927C02CDCF8C3F19F41916CCF3C8CF3F
:103870009CE0980F953090F4845F990B21E030E044
:10388000B90102C0660F771F8A95E2F7CB018095D8
:1038900090917802892380937802B2CF8D3F31F4E2
:1038A000809176028E7F80937602AACF8E3F21F49C
:1038B000809176028D7FF7CF8F3F09F0A1CF809165
:1038C00076028B7FF0CF08950E94B82A9C019091D8
:1038D000790280917A02982B21F030937302209321
:1038E000720290917B0280917C02982B21F03093A0
:1038F00071022093700287E792E00C949B29EF926B
:10390000FF920F931F93CF93DF9300D000D000D08E
:10391000CDB7DEB786E0E7E7F2E0DE011196019071
:103920000D928A95E1F7E0907902F0907A02009189
:103930007B0210917C021092790210927A0210920E
:103940007B0210927C028E2D8F2991F08091720261
:10395000909173020E94D02AAC0190917502992334
:1039600009F43FC080912B018417150608F447C065
:10397000802F812B91F080917002909171020E94B2
:10398000D02AAC0190917402992309F477C08091F8
:1039900027018417150608F47FC080917902909161
:1039A0007A02892B90917B02892B90917C02892B42
:1039B00011F00E94641C86E0FE013196A7E7B2E098
:1039C00001900D928A95E1F726960FB6F894DEBF26
:1039D0000FBECDBFDF91CF911F910F91FF90EF9060
:1039E000089520912C018AE0289F9001112424172A
:1039F000350708F0BDCF9F5F9093750202C09F3FCF
:103A0000D1F7EE2059F00E940E1B9FEF1E140CF40C
:103A100091E0899F802D112480937902FF2059F035
:103A20000E940E1B9FEF1F140CF491E0899F802DC4
:103A3000112480937A0230917902332309F498CFCC
:103A400020917A02222309F493CF45EB3403C0017D
:103A50001124992359F09093790245EB24039001A6
:103A60001124332339F030937A0282CF81E080939E
:103A70007902F3CF81E080937A027ACF20912801F6
:103A80008AE0289F900111242417350708F085CF7C
:103A90009F5F9093740202C09F3FD1F7002359F0BB
:103AA0000E94581B9FEF10160CF491E0899F802D07
:103AB000112480937B02112359F00E94581B9FEF21
:103AC00011160CF491E0899F802D112480937C02C3
:103AD00030917B02332309F460CF20917C022223B2
:103AE00009F45BCF45EB3403C0011124992359F04D
:103AF00090937B0245EB240390011124332339F08A
:103B000030937C024ACF81E080937B02F3CF81E047
:103B100080937C0242CF86E0E7E7F2E0DF011D926E
:103B20008A95E9F71092750210927402109276024B
:103B30000895EF92FF920F931F93CF93DF93CDB72A
:103B4000DEB72C970FB6F894DEBF0FBECDBF49830A
:103B50005A836B837C838D839E83EF82F8860987EB
:103B60001A872B873C8746E050E0BE01695F7F4F94
:103B7000CE0101960E94D13221E0892B09F420E088
:103B8000822F2C960FB6F894DEBF0FBECDBFDF910B
:103B9000CF911F910F91FF90EF900895EF92FF92B8
:103BA0000F931F93E0907D02F0907E0200917F02C0
:103BB0001091800220918102309182024091830213
:103BC00050918402609185027091860280918702F3
:103BD000909188020E94991D882321F083E892E049
:103BE0000E949B29109285021092860210928702F1
:103BF0001092880286E0E3E8F2E0ADE7B2E00190DF
:103C00000D928A95E1F71F910F91FF90EF90089523
:103C1000CF93DF9300D000D000D0CDB7DEB786E0E1
:103C2000E3E8F2E0DE01119601900D928A95E1F74A
:103C300029813A814B815C816D817E8180E090E0B9
:103C400026960FB6F894DEBF0FBECDBFDF91CF91A1
:103C50000895CF93DF9300D000D000D0CDB7DEB76A
:103C600049835A836B837C838D839E8386E0FE0128
:103C70003196A3E8B2E001900D928A95E1F726967D
:103C80000FB6F894DEBF0FBECDBFDF91CF91089580
:103C900083E290E00E94E732823289F484E290E08D
:103CA0000E94E732813059F485E290E00E94E732C9
:103CB00091E0823009F090E0892F8170089580E0D2
:103CC000FCCFCF93C82F6FEF811162E283E290E0C7
:103CD0000E94F5326FEFC11161E084E290E00E9432
:103CE000F5326FEFC11162E085E290E0CF910C9464
:103CF000F532089586E290E00E94E732682F70E086
:103D000090E080E0089586E290E00C94F53280E047
:103D10000E94611E60E070E0CB010E94831E0E9441
:103D20000E240E94F82481E00C94611E0E94791EEA
:103D30000E94481E811102C00C94871E0895CF93E3
:103D4000FB01C281CC2309F19C0122513F45203166
:103D5000310520F582510E940825C0E08C2FCF91BB
:103D6000089581E00E94531043E062E081E00E94E8
:103D7000A50AF3CF81E00E945E1043E062E081E09B
:103D80000E94A50AEBCF82E0F6CF8031FFE59F07C6
:103D900089F381319F45B9F3C1E0E0CF8031EFE590
:103DA0009E07F9F281319F45C9F682E0DBCF2FEF04
:103DB000FC0120830895EF92FF920F931F93CF93FE
:103DC000DF93EC01062FE881E150E33108F05EC09B
:103DD000F0E0EB5BFC4C0C94BB32198289E08A83E7
:103DE000602FCE01DF91CF911F910F91FF90EF9047
:103DF0000C94842B8981823069F0833071F081309A
:103E0000D9F40E94C42A0E94C1326A837B838C83C6
:103E10009D83E6CF0E947A1EF6CF7E0182E0E80EF7
:103E2000F11C10E0812F0E945B06F70181937F0156
:103E30001F5F1431B9F7D4CF602FCE010E94D71E77
:103E4000CFCF89818230C1F76A817B818C819D814E
:103E50000E94C1320E94831EC3CF4B816A81898137
:103E60000E94E0239827892798279D838C83B8CFC9
:103E70002C813D813227232732274B816A8189811A
:103E80000E94F923ADCF0E940E24AACF8FEF888322
:103E9000A7CF0E94A3248983A3CF0E94A52498279B
:103EA000892798279A8389839BCF6B8170E08981CA
:103EB0009A81AE014C5F5F4F9827892798270E940F
:103EC000A8248ECF6B8170E089819A81AE014C5F0E
:103ED0005F4F9827892798270E94CE2481CF0E9480
:103EE000F8247ECF0E94CE23D6CF6B8170E08981EB
:103EF0009A81AE014C5F5F4F9827892798270E94CF
:103F000046246ECF6B8170E089819A81AE014C5F4F
:103F10005F4F9827892798270E946C2461CF0895C6
:103F2000FC01680F791F8FEF91E36E177F0709F48B
:103F300008952191822728E030E087FF06C0880F8E
:103F4000892721503109C9F7F0CF880FFACFCF92D6
:103F5000DF92EF92FF920F931F93CF93DF936C0149
:103F60007B0164E670E088E70E944D26EC0197FD36
:103F700012C010E000E0F601E00FF11F849164E64A
:103F800070E00E94C726EC01892B29F40F5F1F4FB8
:103F90000E151F0581F70E944A27CE01DF91CF91B0
:103FA0001F910F91FF90EF90DF90CF9008950895AB
:103FB0000C94D71FE2EEF2E080E092E0DF019C017A
:103FC0001D9221503040E1F7F093E904E093E804BA
:103FD0008FEF9FEF9093B5028093B40208950E94F3
:103FE000EB080E94D81F8093B00280FD0FC080E8CC
:103FF0008093AF020E9447266DE070E084E395E075
:104000000E94A71F892B21F080E0089580E2F0CF65
:104010008091B00263E070E081FD26C081E395E00D
:104020000E94A71F892B81F76DE070E081E295E087
:104030000E94A71F892B41F70E94C42A605A75412C
:104040008F4F9F4F6093E4047093E5048093E604E0
:104050009093E7040E94DA1F81E08093B30280937B
:10406000B2021092B10208958EE295E0D9CF20916C
:10407000AF0236E0839FC0011124629F800D911D25
:104080001124811522E0920714F090E080E08E5117
:104090009D4F9093E9048093E80408952091E804EB
:1040A0003091E9042C5D32404091AF02642F70E002
:1040B000C9010E949332481B463010F4240F311D71
:1040C000211582E0380710F030E020E02E513D4FFE
:1040D0003093E9042093E80408951F93CF93DF936E
:1040E000162F8A3031F481E0DF91CF911F910C942B
:1040F000E7208D3011F480E0F7CFC091E804D09133
:10410000E90496E0FE01A9E8B2E001900D929A95CB
:10411000E1F7803EC8F086E0FE0111928A95E9F74A
:1041200011111EC0C091E804D091E90446E050E0AE
:10413000BE0189E892E00E94D132892BF9F4DF9127
:10414000CF911F910C944E20F6E08F9FB001112467
:104150006F5B7A4F46E050E0CE010E94C832E0CF5C
:10416000E091E804F091E9049F012A5F3F4F2E1788
:104170003F07C1F2808180958193F9CFC25ED24022
:10418000CE0125E0969587952A95E1F721E030E06C
:10419000A90102C0440F551F8A95E2F7CA01409158
:1041A000B4025091B502842B952B259645E0D69507
:1041B000C7954A95E1F702C0220F331FCA95E2F76F
:1041C000822B932B9093B5028093B402B8CFCF93F8
:1041D000382FE091E804F091E904E25EF24020918A
:1041E000AF02622F70E0CF010E949332281B822F12
:1041F000332369F066E00E948732C82FC15010F463
:10420000CF91089560E080E20E946D20F7CF9F017A
:10421000280F311D2115324018F080E0F0E0E0E079
:104220008E0F9F2F911D8E519D4F9093E904809387
:10423000E804E6CF1F93CF93DF93EC01162FFE0126
:104240008491811104C0DF91CF911F910895612F56
:104250000E946D202196F3CF0E941A2181E00C94D8
:10426000E7208091B302811103C08091B2020895CA
:104270000E94C42A605A75418F4F9F4F6093E40497
:104280007093E5048093E6049093E7048091B20272
:104290008111EBCF62E070E08FE195E00E94A71FF3
:1042A000892B19F781E08093B202DFCF2F923F92E2
:1042B0005F926F927F928F929F92AF92BF92CF92B6
:1042C000DF92EF92FF920F931F93CF93DF93809132
:1042D000B302882369F02091B4023091B502211510
:1042E000310531F08091B10261E070E0882399F0EE
:1042F000DF91CF911F910F91FF90EF90DF90CF90C2
:10430000BF90AF909F908F907F906F905F903F9005
:104310002F9008958F5F082F10E01B01082E02C018
:10432000220C331C0A94E2F7A90142215321452BA8
:1043300089F39091B00290FD44C08295880F8076F9
:1043400080932F01980136952795369527952093D0
:104350003201815E809330011092330124E630E017
:1043600047E050E06DE271E088E70E94F626892B75
:1043700009F0BECFA80125E0440F551F2A95E1F7AB
:104380008091B00280FD2BC04E515D4F04E610E0DD
:1043900020E230E060E488E70E941D27892B09F0C5
:1043A000A7CF0E943121E101C095D0958091B40240
:1043B0009091B502C823D923D093B502C093B4021B
:1043C00097CF880F880F880F80932F0110923201AA
:1043D000895F8093300183E080933301BFCFEFE8A2
:1043E000F2E080E2DF011D928A95E9F7A0E6B1E0F4
:1043F0000CE511E084E6C82E81E0D82E97E0592E16
:10440000772473948D91E80129918E01240F352F23
:10441000311D2E513D4FE82FF0E0E157FD4F90E068
:1044200080E0652C681A872C082E01C0880C0A943D
:10443000EAF77901A12CE701B9907E01B820662D39
:104440006A196770962E062E000C770BDB2D01C0C3
:10445000DD0F9A94EAF77195619571096770772776
:1044600001C0B6946A95EAF7BD2A6081962E9B2812
:104470009082A39468E0A612DECF01963196883030
:10448000910579F6CA16DB0609F0BCCF04E610E008
:1044900020E230E04FE852E07DCF8091B20290916F
:1044A000B302911103C091E089270895882369F030
:1044B00062E070E08DE195E00E94A71F892B19F062
:1044C0008091B20208951092B2028091B202EBCFB5
:1044D00081E008950F931F938091B302882389F19F
:1044E0008091E2049091E3040E94D02AC29760F088
:1044F0000E94B82A9093E3048093E20460E080E095
:104500000E9437200E94F5080E9456218091B20235
:104510008823B9F00E94C42A0091E4041091E504B4
:104520002091E6043091E704601B710B820B930B22
:104530006F3F7F4F8F4F9F4720F41F910F910C9437
:104540004D221F910F910895CF93DF93EC01FB0152
:104550008281882309F420C1C330FDE5DF07C8F557
:10456000CA3F9CE5D90730F49E0122503C452431D6
:10457000310598F50E9417159093E0028093DF02B1
:10458000C031FCE5DF0709F4E0C008F061C0C830C5
:104590009CE5D90709F4CBC088F5C430FCE5DF07FA
:1045A00009F4B3C0E8F4C2309CE5D90709F4A7C008
:1045B0008091DF028260C330DC4509F4A3C08091A2
:1045C000DF029091E0020E9425150E94DA0F80E040
:1045D00004C0C136EDE5DE0769F2DF91CF910895A1
:1045E0008091DF028061C630FCE5DF0709F48AC0F4
:1045F00008F48FC08091DF02806284C08091DF0266
:104600008D7FCC309CE5D90709F47CC070F4809193
:10461000DF028C60CA30FCE5DF0709F473C008F4E0
:104620008AC08091DF028E7F6DC08091DF02877F1C
:10463000CE309CE5D90709F465C08091DF028B7FFD
:10464000CF30DC4508F45EC08091DF028F7E5AC017
:10465000CC3FFCE5DF0709F474C040F5C4319CE5AC
:10466000D90709F48AC058F4C231FCE5DF0709F420
:1046700074C008F46EC08091DF02837F43C0CA3FDC
:104680009CE5D90709F449C008F04DC0C531DC45A7
:1046900009F095CF8091DF0282FB992790F921E004
:1046A000922790FB82F990FB83F92CC0C1158DE510
:1046B000D80709F458C088F48091E0028360CE3FA7
:1046C000ECE5DE0769F18091E0028D7FCF3FDC45AC
:1046D00038F18091E0028C7F23C0C2308DE5D8078D
:1046E00009F458C008F452C0C136DD4509F067CF5F
:1046F0009091DF02892F8F7E94FF806103C08091AB
:10470000DF0281608093DF025ACF8091DF028460F4
:10471000F9CF8091DF028860F5CF8091E00281605F
:104720008093E0024CCF8091E0028260F9CF8091CB
:10473000DF028064E7CF0E94DA0F8091DF02806899
:10474000E1CF8091E0028E7FEBCF8091DF028F7D01
:10475000D9CF8091DF028F7BD5CF0E94DA0F809175
:10476000DF028F77CFCF8091E002982F90959170E4
:104770008E7F892B90FB81F9D3CF0E94DA0F909125
:10478000DF02892F97FB87F98058BCCF81E00E9418
:10479000AA1515CF80E0FBCF81E01FCF84E00895FC
:1047A00050E0440F551F9AE0699F400D511D1124A0
:1047B00098EC899F400D511D1124CA0187960895D8
:1047C0000F931F93CF93DF930E94D0238C010E94FD
:1047D000E732C82FD0E0DC2FCC27C80101960E9419
:1047E000E7329E01282BC901DF91CF911F910F91D4
:1047F00008950F931F93CF93DF93122F032F0E94DF
:10480000D023EC01602F0E94F532612FCE0101967A
:10481000DF91CF911F910F910C94F532AF92BF921F
:10482000CF92DF92EF92FF921F93CF93DF938DE4AD
:10483000C82E81E0D82ED0E07601C0E014C0F5018A
:1048400025913491412F6C2F8D2F0E94F92382E006
:10485000A80EB11C1F5F153091F78AE0E80EF11C1D
:10486000CF5FC43119F0570110E0E9CFDF5F88EC6A
:10487000C80ED11CD43001F7DF91CF911F91FF906A
:10488000EF90DF90CF90BF90AF900895EF92FF929E
:104890000F931F93CF93DF93EC018A017C01E60E07
:1048A000F71ECE018796CE15DF0539F4DF91CF9143
:1048B0001F910F91FF90EF900895C03223E0D2072F
:1048C00040F40E94E732F80180830F5F1F4F21966A
:1048D000E8CFF8011082F9CFCF92DF92EF92FF92EA
:1048E0000F931F93CF93DF937C016A018C01060F16
:1048F000171FEC01CE018796C017D10749F4DF914D
:10490000CF911F910F91FF90EF90DF90CF9008957E
:10491000C03223E0D20740F4FE01EE19FF09EC0D8E
:10492000FD1D60810E94F5322196E4CF462F843030
:1049300038F4743128F4653018F4672F0C94E023B0
:1049400090E080E0089580E1089589EB90E008957B
:10495000EF92FF920F931F93CF93DF93EC018A01A5
:104960007C01E60EF71ECE01895B9C4FCE15DF055C
:1049700039F4DF91CF911F910F91FF90EF9008953F
:10498000C93BD10540F40E94E732F80180830F5FF4
:104990001F4F2196E8CFF8011082F9CFCF92DF9216
:1049A000EF92FF920F931F93CF93DF937C016A01E5
:1049B0008C01060F171FEC01CE01895B9C4FC017BD
:1049C000D10749F4DF91CF911F910F91FF90EF90A4
:1049D000DF90CF900895C93BD10540F4FE01EE1958
:1049E000FF09EC0DFD1D60810E94F5322196E4CF98
:1049F000CF93DF93C7E4D3E060E0CE010E94F532AD
:104A00002196C11584E0D807B9F7DF91CF910895B9
:104A1000DF92EF92FF920F931F93CF93DF9300D01B
:104A200000D0CDB7DEB7F82E8FE08F1540F08FEFB6
:104A300093E00E94E73207E413E08823C1F00F906F
:104A40000F900F900F90DF91CF911F910F91FF90DA
:104A5000EF90DF900895011584E0180781F3C801F5
:104A60000E94E732811101C0FA940F5F1F4FF110CD
:104A7000F2CF19821A821B821C82DD24D394780122
:104A80008FEFE81AF80AC8010E94E73289831A8278
:104A90008823A9F29FEF980F933078F48A83D98204
:104AA0000E5F1F4FC7010E94E7328B83882339F2C4
:104AB000CE0101960E94FC0BE2CF8701F9CFCF9384
:104AC000DF93EB0186319C4511F50E942A149A81EF
:104AD000992399F08A7A91E009F490E09093B602D4
:104AE000811109C089E20E9405140E946D1480E0C2
:104AF000DF91CF91089585E3F6CF8091B6028111C1
:104B000004C089E20E940C14F0CF85E3FBCF81E062
:104B1000EFCF0F931F93CF93DF93C42FD22FFC01BE
:104B200082818823C9F04093B9020E94B82A9093E9
:104B3000B8028093B70280E28C0F883008F050C032
:104B4000C77081E001C0880FCA95EAF7DF91CF9165
:104B50001F910F910C947A0D1091B902141335C066
:104B60008091B7029091B8020E94D02A883C9105AA
:104B700060F5C0E2CD0F1D17B9F080E2810F8830DB
:104B800040F4177081E001C0880F1A95EAF70E947F
:104B9000810DC83048F481E09D2F977001C0880FC7
:104BA0009A95EAF70E947A0D802F0E94720DC83004
:104BB000B8F4D77081E001C0880FDA95EAF7DF9189
:104BC000CF911F910F910C94810D80E28C0F883052
:104BD00038F4C77081E001C0880FCA95EAF7EFCFBB
:104BE000DF91CF911F910F9108950F939C01CB01FD
:104BF000233F4CE5340759F1A8F4283DFCE53F0775
:104C000001F1293D4CE53407D1F1273D3C4591F4B4
:104C100006E221EE41EE67ED7CE50E94892580E009
:104C20000F910895253FFCE53F07E9F0B0F0263FDE
:104C30003C45F9F0FC018281882339F11092B902D8
:104C4000EFCF07E225EE45EE68ED7CE5E6CF06E224
:104C500021EE40EE63EF7CE5E0CF07E225EE44EE87
:104C600064EF7CE5DACF06E221EE42EE65EF7CE50B
:104C7000D4CF07E225EE46EE66EF7CE5CECF08E224
:104C800021E045EE69ED7CE5C8CF81E0C9CF109207
:104C9000B9008CE08093B80008959F92AF92BF92C4
:104CA000CF92DF92EF92FF920F931F93CF93DF93F8
:104CB000B82EEB010E94B82A6C01EE24E394F12C8B
:104CC000C431D10560F025E0E22EF12CCF3FDC07A6
:104CD00031F0CE0164E170E00E9493327B0184EAFE
:104CE000A82E94E8992E1092BC00A092BC000E94BD
:104CF000B82A8C018091BC0087FF0DC08091B9005B
:104D0000887F883039F18091B900887F803111F136
:104D10000FEF1FEF09C00E94B82A801B910B8E1560
:104D20009F0540F30EEF1FEFCF3FDC07E1F2C60116
:104D30000E94D02A8C179D07B0F2C801DF91CF9155
:104D40001F910F91FF90EF90DF90CF90BF90AF90A9
:104D50009F900895B092BB009092BC000E94B82A28
:104D60008C018091BC0087FF0AC08091B900887FC8
:104D7000883111F0803461F610E000E0DECF0E944F
:104D8000B82A801B910B8E159F0558F3CBCF0F933C
:104D90001F93CF93DF93EB018093BB0084E8809354
:104DA000BC000E94B82A8C018091BC0087FF11C012
:104DB0002091B900287F81E090E0283211F490E042
:104DC00080E0919581959109DF91CF911F910F918D
:104DD0000895CF3FDC0741F30E94B82A801B910B56
:104DE0008C179D0708F38EEF9FEFEECFCF92DF92E7
:104DF000EF92FF920F931F93CF93DF936B018A0182
:104E00007901B9010E944D26E6010C0D1D1DC01748
:104E1000D10761F424E92093BC00DF91CF911F9169
:104E20000F91FF90EF90DF90CF90089597FDF2CF14
:104E3000B70189910E94C726EACFCF92DF92EF9205
:104E4000FF920F931F93CF93DF93C62F6A017901CF
:104E5000B8010E944D2697FD0CC0B8018C2F0E940E
:104E6000C726E601EC0CFD1CCE15DF0511F097FFFF
:104E70000CC024E92093BC00DF91CF911F910F91CA
:104E8000FF90EF90DF90CF900895B80189910E9434
:104E9000C726EACF84E98093BC0008958EE14A9B3F
:104EA00002C08150E1F74A9BFECF08955A9880E2F4
:104EB0008A95F1F75A9A0895FC013BE03A95F1F78B
:104EC00098E020E080E031E040E14A95F1F7880F7A
:104ED0004A9B02C08160232742E04A95F1F7000017
:104EE00040E14A95F1F7915079F790E19A95F1F701
:104EF00099B132E03A95F1F7000040E14A95F1F7B7
:104F000092FB992790F992272081920F9083089520
:104F1000EF92FF920F931F93CF93DF930F92CDB732
:104F2000DEB719828C017C01E60EF11C0E151F05FF
:104F300061F481E09981911180E00F90DF91CF9130
:104F40001F910F91FF90EF9008950E944E27CE0180
:104F500001960E945C27F80181938F01E7CF529A56
:104F60005A9A089552985A9AEA9AE9E6F0E08081AE
:104F70008F7C808308956150770B91E001C0990F79
:104F80006A95EAF720E031E0911108C0222391F000
:104F90005A9A80E28A95F1F75A980895492F482342
:104FA00039F05A9A232740E24A95F1F79695ECCFCB
:104FB0005A98F9CF5A98EDCFFF920F931F93CF9342
:104FC000DF93EC018C01060F111DC017D10731F4DE
:104FD000DF91CF911F910F91FF900895F9900E945A
:104FE000562768E08F2D0E94BB27EFCF1F920F92AC
:104FF0000FB60F921124EF92FF920F931F932F93EE
:105000003F934F935F936F937F938F939F93AF9350
:10501000BF93EF93FF93CF93DF930F92CDB7DEB79C
:1050200019820E944E27CE0101960E945C27A82F6C
:10503000A695A695A695282F229525709A2F95704E
:10504000290F922F937026952695920F9827977087
:105050008981982B09F075C0A43008F072C080E1F6
:105060008A95F1F75A9A529AB2E0BA95F1F700C0D0
:105070005A98EA2EF12CEAE0AE9FD0011124A95FE4
:10508000BE4F1896ED91FC9119973097B1F0609151
:105090005A0170915B0116962D913C911797260F3E
:1050A000371F13968D919C911497680F791F159651
:1050B0004C91159712968C9109958AE08E9DF0017E
:1050C0008F9DF00D1124E95FFE4F6581662351F03D
:1050D00020915A0130915B0186819781820F931F45
:1050E0000E94DC270E945627F0E1FA95F1F75A98C2
:1050F00052985A9A80E18A95F1F78AE08E9D800154
:105100008F9D100D1124095F1E4FD80112966C91CE
:105110001297662371F120915A0130915B01139629
:105120008D919C91820F931F0E948827D801ED9149
:10513000FC91882311F088E001C082E080830E9406
:105140004E270F90DF91CF91FF91EF91BF91AF91DB
:105150009F918F917F916F915F914F913F912F918F
:105160001F910F91FF90EF900F900FBE0F901F9027
:105170001895ED91FC91DFCF0F931F93CF93DF93A1
:10518000EC0104970CF0A9C08AE08C9FF0018D9F80
:10519000F00D1124E95FFE4F80819181892B09F484
:1051A0009CC0F894529A5A9885E08A95F1F70000CD
:1051B0008C2F869585709C2F9570890F982F9370F2
:1051C00086958695890F8E0193E0000F111F9A95A1
:1051D000E1F7082B0E94562700C068E0802F0E944C
:1051E000BB27A0E1AA95F1F752985A9A4A9B27C08B
:1051F00087E090E04A9925C08AE08C9F80018D9FCE
:10520000100D1124095F1E4FF80165816623A1F17D
:1052100020915A0130915B0186819781820F931F03
:105220000E948827811128C0529A5A9AD801ED917C
:10523000FC9182E08083789482E090E016C000C008
:10524000D5CF0197B9F4529A5A9A8AE08C9FF0010F
:105250008D9FF00D1124E95FFE4F0190F081E02D4C
:1052600081E08083789481E090E0DF91CF911F917D
:105270000F91089500C0BECF0E944E27B0E2BA95AC
:10528000F1F75A98529AE0E1EA95F1F78AE08C9F9B
:10529000F0018D9FF00D1124E95FFE4F62816623BE
:1052A00051F020915A0130915B0183819481820FEA
:1052B000931F0E94DC270E9456278AE08C9FF001F2
:1052C0008D9FF00D1124E95FFE4F0190F081E02DDC
:1052D0001082789490E080E0C8CF84E090E0C5CF61
:1052E000909375018093740108959093C002809308
:1052F000BF0208950E94FC18811103C08091BA0278
:105300000895E091BF02F091C002309721F0019022
:10531000F081E02D099480E008950E947A29089593
:10532000E091BF02F091C002309721F00280F3813A
:10533000E02D09940895E091BF02F091C0023097EA
:1053400039F022E0DC012C930480F581E02D0994F2
:1053500008952091BD023091BE022817390771F0DF
:105360009093BE028093BD02E091BF02F091C00213
:10537000309721F00680F781E02D0994089520915F
:10538000BB023091BC022817390771F09093BC0220
:105390008093BB02E091BF02F091C002309721F0F0
:1053A0000084F185E02D099408959C012E5F3F4F04
:1053B000AC01485F5F4F80E02417350709F408957A
:1053C000F90191919F019923B9F38F5FF5CF66237E
:1053D00049F0FC01329608962191261729F0E8172A
:1053E000F907D1F780E0089581E008959C01FC0160
:1053F00032969FEF80E04191461751F09F3F19F49C
:10540000411101C0982F8F5F8630A9F79F3F09F4A3
:105410000895290F311D97FD3A95F901628308958A
:10542000FC01329608962191261303C0DF011197E3
:105430001C92E817F907B9F708950C94F6290C9413
:10544000102A029626E0FC0111922A95E9F70895A8
:1054500008950C94282A811105C081E08093C1022F
:105460000C94292A82E0FACF83E08093C1020C9445
:10547000292A0C942B2A81E08093C1020C94292ABA
:105480000C943B2A08958091F204843031F10E94FB
:10549000B60A1092C20288E190E020E40FB6F894B8
:1054A000A895809360000FBE2093600083B7817F32
:1054B000846083BF83B7816083BF7894889583B706
:1054C0008E7F83BF0FB6F894A895809160008861A5
:1054D00080936000109260000FBE089508950895B3
:1054E000CF930E946E2A0E942E070E946F2AC0E06E
:1054F0008C2F0E945B06811105C0CF5FC431C1F7BC
:10550000CF91089581E0FCCF0E94DA0F0C94280B14
:105510001F921FB61F9211248F939F93AF93BF9337
:105520008091C202811113C08091EA049091EB0432
:10553000A091EC04B091ED044196A11DB11D8093A2
:10554000EA049093EB04A093EC04B093ED04BF91B4
:10555000AF919F918F911F901FBE1F90189582E071
:1055600084BD93E095BD9AEF97BD80936E0008953A
:105570002FB7F8948091EA049091EB04A091EC0489
:10558000B091ED042FBF08952FB7F8946091EA040D
:105590007091EB048091EC049091ED042FBF08957D
:1055A0009C014FB7F8948091EA049091EB04A0918C
:1055B000EC04B091ED044FBF821B930B0895CF9282
:1055C000DF92EF92FF922FB7F894C090EA04D09048
:1055D000EB04E090EC04F090ED042FBFA7019601DE
:1055E000261B370B480B590BCA01B901FF90EF90EE
:1055F000DF90CF90089578941F921FB61F921124C8
:105600008F939F93AF93BF938091EA049091EB04A3
:10561000A091EC04B091ED040196A11DB11D809301
:10562000EA049093EB04A093EC04B093ED04BF91D3
:10563000AF919F918F911F901FBE1F90189587E784
:1056400097E7909301088093000888E19AE00FB6ED
:10565000F894A895809360000FBE90936000FFCFF0
:105660008091CB020895089508959C0184E0809371
:10567000E9009FEF8091E800915085FD06C085ED1F
:105680008A95F1F700009111F5CF8091E80085FF30
:105690000CC050E040E066E070E0C9010E94952D2A
:1056A0008091E8008E778093E8000895CF93DF9390
:1056B000EC0181E08093E9008FEF9091E800815048
:1056C00095FD06C095ED9A95F1F700008111F5CF93
:1056D0008091E80085FF14C050E040E068E070E091
:1056E000CE010E94952D8091E8008E778093E8008E
:1056F00088E0FE01A3ECB2E001900D928A95E1F7FB
:10570000DF91CF9108950895CF93FC01603221F588
:105710008091F204843001F5C091E900CF702091AE
:10572000EC00922F917020FD90E8C92B82E08093CD
:10573000E9008091E80080FF0CC050E040E060E2AA
:1057400070E0CF010E94952D8091E8008E778093C4
:10575000E800CF70C093E900CF9108958091F104E3
:10576000811109C00E94742F0E94D12F8091E20004
:1057700084608093E20008951092F10408950C94DF
:105780003B2A6091EE0481E0611101C080E00C943D
:10579000342A9091F20481E0943009F080E0609125
:1057A000EE040C94392A42E061EC81E00E94F02E74
:1057B00042E261EC84E00E94F02E42E261EC82E081
:1057C0000E94F02E42E260EC83E00E94F02E909165
:1057D000F20481E0943009F080E06091EE040C94D2
:1057E0002B2A8091F404833009F462C030F48130B4
:1057F000D9F1823009F49EC008958A3009F48AC034
:105800008B3009F470C0893009F051C08091F304E5
:10581000813209F04CC08091F7049091F804009710
:1058200019F0029709F043C08091E800877F8093C8
:10583000E8008091E80082FF36C09091F3008091EB
:10584000F200029731F48091F100813011F086303E
:1058500021F48091F1008093CB028091E8008B7756
:105860008093E8000C94242F8091F304813AF9F49A
:105870008091E800877F8093E8008091F704909101
:10588000F804892B61F468E083EC92E070E00E94F8
:10589000332E8091E8008B778093E800089560E0D4
:1058A00090E080E0F3CF8091F2048111C2CF08959F
:1058B0008091F304813AD9F78091F7049091F8042C
:1058C000892BA9F78091E800877F8093E800809179
:1058D000E80080FFFCCF809140018093F10080912F
:1058E000E8008E77BDCF8091F304813201F780917B
:1058F000F7049091F804892BD1F68091E800877F16
:105900008093E8000E94242F8091F5048093400149
:105910000C94DA0F8091F304813249F68091E8000B
:10592000877F8093E8000E94242F8091F604809363
:10593000CC0208958091F304813A09F0B8CF8091A8
:10594000E800877F8093E8008091E80080FFFCCF2B
:105950008091CC02C2CF84B7877F84BF0FB6F89402
:10596000A89580916000886180936000109260002B
:105970000FBE80E890E00FB6F8948093610090939A
:1059800061000FBE0C94402A0E94742F0E94D12FF8
:10599000E2EEF0E080818460808378940C945A3247
:1059A00084E391E00C9475298091F2048530A9F488
:1059B0008091F204853011F00C94842A0E94432ACD
:1059C0008091F0048823A1F30E94702A882381F338
:1059D0000E947F2D0E94DA0FEBCF0895CF93DF93C3
:1059E000CDB7DEB7A0970FB6F894DEBF0FBECDBF20
:1059F0008091F204843009F583E08093E90080917E
:105A0000E80082FF1AC08091E80090E085FF09C09D
:105A100050E040E060E270E0CE0101960E94E42D8B
:105A200091E08091E8008B778093E800992329F03A
:105A300060E2CE0101960E94DB1EA0960FB6F8949C
:105A4000DEBF0FBECDBFDF91CF9108950C94282DFE
:105A5000292F33272330310521F168F42130310516
:105A600009F443C02230310509F444C090E080E0DD
:105A700030E020E026C02132310551F122323105DB
:105A8000A9F76330710590F7FB01EE0FFF1FE9598D
:105A9000FE4F208131816C597E4FFB01808190E067
:105AA00010C099278130910581F0009729F0029765
:105AB000E9F6E1E8FAE002C0EFE9FAE0849190E06B
:105AC0009F01FA01318320830895E7E9FAE0F6CFD8
:105AD0006330710558F6660F771FFB01E359FE4FDF
