:100000000C94DE050C9425060C9425060C9485278B
:100010000C9425060C9425060C9425060C942506B4
:100020000C9425060C9425060C947E2F0C945230CB
:100030000C94172A0C9425060C9425060C9425067E
:100040000C9425060C9425060C9425060C94250684
:100050000C9425060C948A2A0C9425060C942506EB
:100060000C9425060C9425060C9425060C94250664
:100070000C9425060C9425060C9425060C94250654
:100080000C9425060C9425060C9425060C94250644
:100090000C9425060C9425060C9425060C94250634
:1000A0000C9425060C9425060C942506202020206F
:1000B00020200A005343524C434B0A0020202020AA
:1000C000202020004341504C434B20002020202082
:1000D000202020004E554D4C434B2000556E64654A
:1000E00066696E65640041444A5553540A004C4F9A
:1000F0005745520A0052414953450A00444546417A
:10010000554C540A004C617965723A200080818216
:10011000838485868788898A8B8C8D8E8F90919237
:100120009394A0A1A2A3A4A5A6A7A8A9AAABACAD8D
:10013000AEAFB0B1B2B3B4C0C1C2C3C4C5C6C7C804
:10014000C9CACBCCCDCECFD0D1D2D3D4001F0020C2
:10015000002100220001001A00080015001700010C
:10016000001600070009000A0001001B0006001924
:100170000005000100E2008B002C002C00115F1E26
:1001800000350000000000000014002B00000000FB
:10019000000000040039000000000000001D00E124
:1001A00000000000000000E300E00000000000008C
:1001B0000027002600250024002300130012000C55
:1001C0000018001C0033000F000E000D000B00385B
:1001D000003700360010001100650088008A002CEE
:1001E00000105F2D002E008900000000002F00305D
:1001F000002A000000000034003200280000000047
:100200000087005200E50000000000500051004F40
:10021000000000000001000100F400F50001001FD3
:100220000020002100220001000100010001000166
:1002300000010001000100010001000100010001B6
:1002400000010001000100010001000000000000A9
:10025000001E00010000000000000001000100007D
:10026000000000000001000100000000000000018B
:100270000001000000000000000100010001000179
:1002800000010027002600250024002300010001B2
:100290000001000100010001000100010001000156
:1002A0000001000100010001000100010001000146
:1002B000000000000001000100010000000000013A
:1002C0000001000100000000000100010001000029
:1002D0000000000100010001000000000001000119
:1002E0000001000100C25C0100010001000100C921
:1002F0005C0100010001000100C55C01000100017A
:10030000000100C75C0100010001000100010001C3
:1003100000010000000000000001000100000000DA
:1003200000000001000100000000000000010001C9
:1003300000000000000000010001000000000000BB
:1003400000010001000100010001000100010001A5
:100350000001000100010001000100010001000195
:100360000001000100010001000100010001000185
:100370000001000100010001000000000001000177
:100380000001000000000001000100010000000069
:100390000001000100010000000000010001000157
:1003A0000000000000010001000100010001000147
:1003B0000001000100010001000100010001000135
:1003C0000001000100010001000100010001000125
:1003D0000001000100010001000100000000000018
:1003E0000001000100000000000000010001000009
:1003F00000000000000100010000000000000001FA
:1004000000010000000000000001000100010001E7
:1004100000010001000100010001000100010001D4
:1004200000010001000100010001000100010001C4
:1004300000010001000100010001000100010001B4
:1004400000000000000100010001000000000001A8
:100450000001000100000000000100010001000097
:100460000000000100010001000000000000000089
:1004700000000000002A2B280000000000000000FF
:10048000000000000000000029000000002C1E34C5
:1004900020212224342627252E362D3738271E1FCB
:1004A000202122232425263333362E37381F0405F6
:1004B000060708090A0B0C0D0E0F10111213141564
:1004C000161718191A1B1C1D2F3130232D35040542
:1004D000060708090A0B0C0D0E0F10111213141544
:1004E000161718191A1B1C1D2F3130354C0000002F
:1004F00000000000000000000000000000000000FC
:1005000000000000000000000000000000000000EB
:10051000007E0F00D4FFFFFFC70000007800AE0090
:10052000AF00DA0281FFD9F1DB20A4A62EAF00A034
:10053000C000A1C800AED580A81FD300408D1420F4
:10054000000000000000003E5B4F5B3E003E6B4F32
:100550006B3E001C3E7C3E1C00183C7E3C18001C80
:10056000577D571C001C5E7F5E1C0000183C180065
:1005700000FFE7C3E7FF00001824180000FFE7DBD7
:10058000E7FF0030483A060E002629792926004068
:100590007F05050700407F05253F005A3CE73C5A90
:1005A000007F3E1C1C0800081C1C3E7F0014227F9C
:1005B0002214005F5F005F5F0006097F017F00007B
:1005C0006689956A0060606060600094A2FFA294F2
:1005D0000008047E04080010207E20100008082A6D
:1005E0001C0800081C2A0808001E10101010000C1F
:1005F0001E0C1E0C0030383E383000060E3E0E0633
:100600000000000000000000005F00000000070084
:10061000070000147F147F1400242A7F2A1200236D
:100620001308646200364956205000000807030092
:1006300000001C224100000041221C00002A1C7FF7
:100640001C2A0008083E08080000807030000008DE
:10065000080808080000006060000020100804027C
:10066000003E5149453E0000427F4000007249492A
:100670004946002141494D33001814127F100027CC
:1006800045454539003C4A49493100412111090796
:1006900000364949493600464949291E00000014E0
:1006A0000000000040340000000008142241001443
:1006B0001414141400004122140800020159090600
:1006C000003E415D594E007C1211127C007F494969
:1006D0004936003E41414122007F4141413E007F79
:1006E00049494941007F09090901003E41415173CF
:1006F000007F0808087F0000417F41000020404142
:100700003F01007F08142241007F40404040007FAD
:10071000021C027F007F0408107F003E4141413EE1
:10072000007F09090906003E4151215E007F091939
:1007300029460026494949320003017F0103003F51
:100740004040403F001F2040201F003F4038403FB6
:10075000006314081463000304780403006159491A
:100760004D4300007F414141000204081020000079
:100770004141417F000402010204004040404040EA
:10078000000003070800002054547840007F2844EC
:10079000443800384444442800384444287F003812
:1007A000545454180000087E09020018A4A49C7830
:1007B000007F080404780000447D40000020404091
:1007C0003D00007F102844000000417F4000007C75
:1007D00004780478007C08040478003844444438E1
:1007E00000FC182424180018242418FC007C080499
:1007F00004080048545454240004043F4424003C9A
:100800004040207C001C2040201C003C4030403CEC
:10081000004428102844004C9090907C004464547C
:100820004C44000008364100000000770000000042
:1008300041360800000201020402003C2623263C47
:1008400000000000000000404040F0F8F8FF38FFD2
:10085000F8F83FF8F8FF38FFF8F8F04040400000A3
:100860000000000080C0C0C0800000C0C080000048
:100870000080C0C000C0C0000080C0C000000000F8
:1008800000C0C0C0C0C000C0C00000000000000028
:100890000000000000000000000000000000000058
:1008A0000000000000000000000000000000000048
:1008B0000000000000000000000000000000000038
:1008C000C0F0F8FC3E1E06010000007F4141417F60
:1008D000007F4141417F000080C0E07E5B4F5BFEB6
:1008E000C00000C000DCD7DEDEDED7DC00C00000C8
:1008F00000000000000000000000000000000000F8
:1009000000000000000000494949FFFFFFFFE0DF51
:10091000BFBF00BFBFDFE0FFFFFFFF494949000045
:100920000000001F3F6060E0BF1F007F7F071E3890
:100930001E077F7F007F7F0E1F3B7160000000005D
:10094000007F7F0C0C0C007E7E007F7E0303007F07
:100950007E03037E7E03037F7E000F3E703C063CD9
:10096000703E0F00327B49493F7E007F7E030300CB
:100970001E3F69696F2600000000000000000000B3
:10098000030F1F3F3C7870600000007F4141417FB2
:10099000007F4141417F00307B7F783020203078DC
:1009A0007F3B0003000F7F0F0F0F7F0F000300003E
:1009B0000000000000000000000000000000000037
:1009C00000000000000000010101070F0F7F0F7FF2
:1009D0000F0F7E0F0F7F0F7F0F0F07010101000028
:1009E0000000000000000000010100000000000005
:1009F00000000000000000000000000000000000F7
:100A000000000000000000000000000000000000E6
:100A100000000000000000000000000000000000D6
:100A200000000000000000000000000000000000C6
:100A300000000000000000000000000000000000B6
:100A400000000000000000000000000000000000A6
:100A50000000000000000000000000000000000096
:100A60000000000000000000000000000000000086
:100A70000000000000000000000000000000000076
:100A8000001403680061006C00660063006C00697C
:100A90000066006600000006036E003200000004DD
:100AA00003090409025B00030100A0FA0904000025
:100AB0000103010100092111010001224000070585
:100AC000810308000A090401000203000000092153
:100AD0001101000122220007058203200001070501
:100AE00003032000010904020001030000000921A2
:100AF000110100012249000705840320000A1201A8
:100B0000000200000008350321000100010200017D
:100B10000660FF0961A1010962150026FF0095200A
:100B2000750881020963150026FF0095207508915C
:100B300002C005010902A10185020901A100050900
:100B40001901290815002501950875018102050183
:100B5000093009311581257F95027508810609380C
:100B60001581257F950175088106050C0A38021547
:100B700081257F950175088106C0C005010906A180
:100B800001050719E029E715002501950875018180
:100B9000029501750881010507190029FF15002636
:100BA000FF009506750881000508190129059505BE
:100BB00075019102950175039101C00011241FBEBA
:100BC000CFEFDAE0DEBFCDBF04B603FE27C08091D1
:100BD000F2049091F304A091F404B091F5048730ED
:100BE000904BA740B04BD1F41092F2041092F30452
:100BF0001092F4041092F50414BE84B7877F84BF6A
:100C00000FB6F894A8958091600088618093600089
:100C1000109260000FBEE0E0F8E3099511E0A0E05B
:100C2000B1E0E2EEF5E602C005900D92A437B107FF
:100C3000D9F724E0A4E7B1E001C01D92A23FB207BA
:100C4000E1F70E94901A0C94B8320C940000F894CA
:100C5000E82FE295EF70F0E031A1282F2F7081E0AE
:100C600090E001C0880F2A95EAF7382B31A392A1B2
:100C70008095892382A378940895F894E82FE295CB
:100C8000EF70F0E031A1282F2F7081E090E001C0DB
:100C9000880F2A95EAF7982F9095932391A392A114
:100CA000892B82A37894089508950C94540608958E
:100CB0000C9457060895E82FF0E0E557FE4F808129
:100CC000089508950F931F93CF93DF930E94A51863
:100CD00080910601809106019AE0811190E0909345
:100CE000CB028AE0891B8093CA02C6E4D1E08E0160
:100CF000F80181918F010E943D06F1E000351F0748
:100D0000B9F784E30E943D0686EC0E943D0686E624
:100D10000E943D0686E30E943D0682E30E943D0656
:100D200084E30E943D0686EC0E943D0686E60E9412
:100D30003D0686E30E943D0682E30E943D068991BE
:100D40000E943D0681E0C035D807C9F7EFE9F1E020
:100D5000ABE8B1E011921D9281E0E33BF807D1F7D7
:100D60008AE00E9454180E943D0ADF91CF911F91A2
:100D70000F910C94AF18FF920F931F93CF93DF93B3
:100D8000CDB7DEB72A970FB6F894DEBF0FBECDBF42
:100D90000E948B18F82E6091CB02882309F451C071
:100DA0008E010F5F1F4F8AE0F80111928A95E9F7D3
:100DB000862F90E0B80185579E4F0E94121981112D
:100DC00023C080918A018F5F80938A018630B8F1B9
:100DD000E091CA02F0E0E557FE4FD801CE010B9634
:100DE00011921D92A817B907D9F70E94430A8F2DB7
:100DF0002A960FB6F894DEBF0FBECDBFDF91CF911C
:100E00001F910F91FF90089510928A01A091CA023C
:100E1000B0E0A557BE4F9E01255F3F4FF12C4D918D
:100E2000F80191918F01491731F0AD0141505109FD
:100E3000FA019083F82E0217130789F7D6CFF12C09
:100E4000D4CF70E065577E4F8091CA0290E08557FD
:100E50009E4F0E9414190E945A06C9CF6F927F922A
:100E60009F92AF92BF92CF92DF92EF92FF920F9339
:100E70001F93CF93DF930FE911E046E4C42E41E0C6
:100E8000D42EC0E0D1E0D601AD906D018A2D0E9434
:100E90002706B0EABA95F1F731E4E32E31E0F32EFC
:100EA000F70130E020E0B12C4191A42FA295AF7062
:100EB000B0E090968C9190E04F7002C09595879528
:100EC0004A95E2F780FD94C08D2F022E01C0880F55
:100ED0000A94EAF7B82A2F5F3F4F2530310521F7F2
:100EE0008A2D0E943D06E0EAEA95F1F7D8018C913F
:100EF000B81609F47FC0BC9281E0C82B0F5F1F4F6A
:100F0000BBE4CB16B1E0DB0609F0BDCF10E000E09A
:100F1000AA24A394B12C20E8C22E21E0D22EF701FE
:100F200091907F01892D0E942706F0EAFA95F1F74A
:100F3000C501002E01C0880F0A94EAF7782F682FA8
:100F40006095E6E7F1E086E4682E81E0782ED0E057
:100F50003191D3012D913D01422F42954F7050E0C8
:100F6000DA0190968C9190E02F7002C0959587954C
:100F70002A95E2F780FD40C0872F832B381731F088
:100F80009F0121503109D9018C93D1E0CE16DF06A3
:100F9000F9F6892D0E943D06043019F0B0EABA95A1
:100FA000F1F7CD2B61F50F5F1F4F0530110509F0EB
:100FB000B6CF6091CB0270E065577E4F2C2F4AE090
:100FC0008FE991E00E9455180E94BB06C11101C033
:100FD000C82F8C2FDF91CF911F910F91FF90EF9031
:100FE000DF90CF90BF90AF909F907F906F900895CB
:100FF00080E070CF80E081CF862F8323BFCF8091A8
:101000007B018093A40180917C018093A501809154
:101010007D018093A60180917E018093A70180913C
:101020007F018093A801BFCFCF93DF93FA01623095
:10103000710519F42230310539F08FEF818381E099
:1010400090E0DF91CF9108951B9B33C02B9A239A98
:1010500047E050E02998EC01288130E0042E02C0DE
:10106000359527950A94E2F720FF25C02B9A299AF7
:101070004150510978F72AE12A95F1F700C02398E9
:101080002B9A118287E090E02998299A23B123FBBB
:10109000AA27A0F9B0E0AD01082E01C0440F0A94C0
:1010A000EAF72181242B2183019770F790E080E0FB
:1010B000C8CF2B98CCCF2B98DACF0F93CF93DF9359
:1010C00000D000D0CDB7DEB71B828FEF8C83898331
:1010D0008A83E0910001F09101010FEF22E030E0FE
:1010E000AE014F5F5F4F62E070E0CE01039609955D
:1010F0008A810F900F900F900F90DF91CF910F91F9
:101100000895219A23982B9A0895AF92BF92CF9277
:10111000DF92EF92FF920F931F93CF93DF9300D054
:1011200000D0CDB7DEB75C016B017A0182E08B8322
:101130001FEF1C8319831A83E0910001F0910101D4
:101140000FEF22E030E0AE014F5F5F4F62E070E0F2
:10115000CE01039609958A81F501808383E08B8314
:101160001C8319831A83E0910001F091010122E0B0
:1011700030E0AE014F5F5F4F62E070E0CE0103965A
:1011800009958A81F601808384E08B831C8319830F
:101190001A83E0910001F091010122E030E0AE01FC
:1011A0004F5F5F4F62E070E0CE01039609958A8140
:1011B000F701808381E090E00F900F900F900F90E7
:1011C000DF91CF911F910F91FF90EF90DF90CF9023
:1011D000BF90AF900895CF93C82F0E948B188111B4
:1011E00001C0C2E08C2FCF910895CF930E94F721C8
:1011F000882349F00E948B1860E0811107C08DE0C0
:1012000091E00E94A92080E0CF91089585E091E0CF
:101210000E94A9208091DE010E948E0B813071F125
:10122000882351F0823071F1833081F160E08CEDE0
:1012300090E00E94BB2005C060E08CEF90E00E942F
:10124000A9200E941C29C82F8CEC90E0C0FF02C08E
:1012500084ED90E060E00E94A9208CEB90E0C1FF5B
:1012600002C084EC90E060E00E94A9208CEA90E04B
:10127000C2FF02C084EB90E060E0C3CF60E085EF86
:1012800090E0DDCF60E08EEE90E0D9CF60E086EEBA
:1012900090E0D5CF845F91098530910538F5409174
:1012A000CD0221E030E0F90102C0EE0FFF1F8A9568
:1012B000E2F7CF01FB0122812223A9F0842B809346
:1012C000CD024091CC025091CD026091CE0270913E
:1012D000CF028091D0029091D1020E94B81D0E944D
:1012E0005D1D80E0089580958423E9CF81E0089515
:1012F0000C948108CF93DF9300D00F92CDB7DEB767
:101300008091B4019091B5019C012F5F3F4F3093C4
:10131000B5012093B40162E370E00E943632892B5C
:1013200089F50E945D08803319F581E08093B3014F
:10133000AE014F5F5F4FBE016E5F7F4FCE010396E0
:101340000E9485086A8161956093CE0279817195CA
:101350007093CF028B8187FF0DC04091CC025091DA
:10136000CD028091D0029091D1020E94B81D02C09E
:101370001092B3010E945D1D0F900F900F90DF91AE
:10138000CF9108958091B3018823A1F3D1CF81E05B
:1013900008950C944A0908950C94CB091F93CF9398
:1013A000DF9300D000D00F92CDB7DEB749835A83C8
:1013B0006B833091B60189819A8131111DC06623FA
:1013C000B9F02223A9F00E946B10182F682F898191
:1013D0009A810E94141069817A81812F0F900F9059
:1013E0000F900F900F90DF91CF911F910C942524B7
:1013F0000E944210182FEFCF0E946B1069817A81F2
:10140000EDCFFC01262F408151816281738184815F
:101410000C94CE0981E00895CF93DF93EC0160E056
:101420000E94010ABE01DF91CF910C94CC09E1E04A
:10143000F0E0DF0102C0AA0FBB1F6A95E2F7BD0111
:10144000DF0102C0AA0FBB1F4A95E2F76A2B01C059
:10145000EE0F2A95EAF7962F9823961302C08E2B4B
:101460000895E0958E230895242F462F682F8091AC
:10147000DE010E94170A0C94D10F0E943A180E94B4
:10148000A60B0C9455060C94580680E00E94A70BFE
:101490000E94DC210C947A09089508950E94690F36
:1014A0000E944D0A2FEF84E39CE021508040904041
:1014B000E1F700C000000C94AE2A0F931F93CF9366
:1014C000DF938C0161E00E94010AEC01B8010E94E7
:1014D0002E1E8823D9F1B801CE010E94C9098823A4
:1014E000A9F1B801CE010E948425882379F1B801C1
:1014F000CE010E943322882349F1B801CE010E9417
:10150000EE24882319F1F8018281882361F0CA351D
:10151000FDE5DF0721F170F4C115ECE5DE07A1F070
:10152000CE3DDC45C9F0C801DF91CF911F910F91ED
:101530000C94C709CB358DE5D807A1F0CC35DD4536
:1015400091F70E947E14EFCF0E944E0A80E0DF9157
:10155000CF911F910F9108950E943715F7CF0E94E8
:101560008714E1CF0E948A14DECF0C944C0A0E94AB
:1015700009290E94A70B0C94B50ADF92EF92FF9203
:101580000F931F93CF93DF93E82FF0E0E359FB4FC6
:10159000D490282F26952695269530E0F901E35F13
:1015A000FA4F0491877010E0082E02C01595079538
:1015B0000A94E2F701701127F901E350FB4FE49020
:1015C000F12C082E02C0F594E7940A94E2F791E01A
:1015D000E922FF24F901E351FB4FC491D0E002C09E
:1015E000D595C7958A95E2F7C170DD2701151105DC
:1015F00019F081EE0E941C0CE114F10419F086EE42
:101600000E941C0C8D2D0E94010DEF2819F086EE12
:101610000E94940C012B19F081EE0E94940CCD2BAA
:1016200051F08CE2DF91CF911F910F91FF90EF90DD
:10163000DF900C94010DDF91CF911F910F91FF90DE
:10164000EF90DF900895EF92FF920F931F93CF9347
:10165000DF93EC01162F0AE08881882309F454C037
:10166000813009F04EC08981813099F47E0122E0F9
:10167000E20EF11C8A810E94010DE7012196812F63
:10168000815050F3EFE9FFE03197F1F700C000001F
:10169000F7CF823041F47E0182E0E80EF11C8A81AE
:1016A0000E941C0CEACF833041F47E01E2E0EE0E92
:1016B000F11C8A810E94940CE0CF843011F02196B5
:1016C000DDCF2A81229690E080E0AE014F5F5F4F30
:1016D0002053330B2A30310548F0019778F2EFE9B7
:1016E000FFE03197F1F700C00000F7CF089FB0018D
:1016F000099F700D1124C901860F971F2981EA01E6
:10170000E4CF0E94BD0ABACFDF91CF911F910F9114
:10171000FF90EF90089560E00C94230B982F929522
:101720009F7011F0892F94E0282F2695269511F0AF
:101730009E5F822F869509F09F5F892F08950895F7
:101740000C949F0B81E008950C94A20B0895CF9305
:10175000C82F0E94A00B8C2FCF910C94A40BCF9379
:10176000DF93CDB7DEB72B970FB6F894DEBF0FBE71
:10177000CDBF4F83588769877A878B8761110E9415
:10178000D9131E821D8285E0FE013796DE01119677
:1017900001900D928A95E1F78C819D81892B89F4C6
:1017A00049815A816B817C818D819E810E94FA12D0
:1017B0002B960FB6F894DEBF0FBECDBFDF91CF9151
:1017C000089589819A8189238F3F51F3CE01019633
:1017D0000E940A0A8111E4CFEBCFFC018081918144
:1017E0000C9498100F931F93CF93DF9300D000D0E9
:1017F00000D0CDB7DEB7082F162F0E94971D298382
:101800004B835C836D837E83002399F0312B498168
:10181000532F6B817C818D819E8126960FB6F89423
:10182000DEBF0FBECDBFDF91CF911F910F910C9402
:10183000B81D10953123EBCFCF93C82F882309F41F
:1018400071C08238C1F40E94092981FD6BC089E30F
:101850000E9494130E94FC132FEF81EE94E021501C
:1018600080409040E1F700C0000089E30E949B1394
:10187000CF910C94FC138338A1F40E94092980FDB8
:1018800051C083E50E9494130E94FC132FEF81EE58
:1018900094E0215080409040E1F700C0000083E5D3
:1018A000E5CF8438A1F40E94092982FD3BC087E47A
:1018B0000E9494130E94FC132FEF81EE94E02150BC
:1018C00080409040E1F700C0000087E4CFCF8CEF6C
:1018D0008C0F813A90F46C2F809104019091050156
:1018E0000E947629882329F08C2F0E949B130E9446
:1018F000FC138C2F0E949413BBCF80E28C0F883096
:1019000048F4C77081E001C0880FCA95EAF70E94C9
:10191000BC13AECFC03F30F08C2F0E94201BCF9164
:101920000C94F31BCF910895882309F452C0823898
:1019300071F40E94092981FF4CC089E30E9494132D
:101940000E94FC1389E30E949B130C94FC138338C0
:1019500059F40E94092980FF3CC083E50E9494133A
:101960000E94FC1383E5EFCF843859F40E940929C3
:1019700082FF2FC087E40E9494130E94FC1387E427
:10198000E2CF9CEF980F913AF0F290E2980F9830E6
:1019900050F4877091E001C0990F8A95EAF7892F7A
:1019A0000E94C213D2CF9BE5980F933020F490E0B1
:1019B00080E00C94382998E5980F973120F490E056
:1019C00080E00C944E29803F20F00E947A1B0C94FA
:1019D000F31B08951F93CF93DF93182FEB010E9401
:1019E0001C0C209731F4812FDF91CF911F910C9423
:1019F000940C8FE99FE00197F1F700C00000219758
:101A0000F0CF70E060E0893311F460E570E00C9491
:101A1000EA0C882321F00E94BC130C94FC13089557
:101A2000882321F00E94C2130C94FC130895BF92E6
:101A3000CF92DF92EF92FF920F931F93CF93DF939A
:101A40006C01D62FC72FFC011281F580F2949FE024
:101A5000F9220E94B213E82E8823B9F0E12E112357
:101A6000A1F08C2F807F803421F080E28D0F8830B0
:101A7000D0F08091D70282FD16C082E00E944D1402
:101A80000E94B21391E0E82EE926BC2EB2948FE0BA
:101A9000B822FBE0FB1508F468C0EB2DF0E0E6543B
:101AA000FD4C0C944A32E12CF0CF0C2F0F70C07F0C
:101AB00011F00295007F112399F0002359F080E284
:101AC0008D0F883010F0D11107C0802F0E94BC13F9
:101AD0000E94FC138D2F41C0802F0E94CC13F8CFA1
:101AE0008D2F0E94940C002309F43FC080E28D0FDB
:101AF000883010F0D11104C0802F0E94C21303C09F
:101B0000802F0E94D2130E94FC132FC00C2F0F7045
:101B1000C07FC03211F00295007FDD2381F0D1300B
:101B200009F46AC0112309F474C0FF2009F46AC0E3
:101B3000F601858180FFCECF8F70858363C0809151
:101B4000D70282FF39C0112359F0002329F0802FDA
:101B50000E94BC130E94FC1380E00E941C0C05C074
:101B600080E00E94940C0111C7CF2B2D2850330B1D
:101B70002430310520F40E9409290E94A70BEE2091
:101B800009F44CC10E94AE1380FD48C1F6011282D7
:101B90000E94A8130E94E20FC6010E942F0F0E940C
:101BA000A813DF91CF911F910F91FF90EF90DF90DD
:101BB000CF90BF900C94ED0F112389F0F11006C067
:101BC0000E94DF13802B0E94090DCFCF21E0F2127B
:101BD000F7CF0E94DF13802B0E94E513C6CFF110D0
:101BE00006C00E94F213802F0E94100DBECF31E07C
:101BF000F31609F4BACFF5CF112331F085E08F1534
:101C000008F4B3CF802FDFCF94E09F1508F4ADCF59
:101C1000EACFFF2041F3D93349F4FFEF27EE33E059
:101C2000F15020403040E1F700C000008D2F0E94AD
:101C3000940C9BCF8D2F112391F00E94201BED2F30
:101C4000E45FFF0BE530F10568F461E070E001C08E
:101C5000660FEA95EAF7812F0E94F20B86CF0E9469
:101C60007A1BEDCF0E94F31B80CF8C2F837079F508
:101C700011117BCF4D2F429546954770440F440F6D
:101C80008D2F8F70042E01C0880F0A94EAF72D2F34
:101C90002071D4FF07C02FE030E001C0220F4A9529
:101CA000EAF72095C695C695C370822BC23049F0DD
:101CB00058F4C13019F00E94C30F57CF0E94BE0FD5
:101CC00054CF0E94C80F51CF0E94BC0F4ECF8695B3
:101CD000112311F08C2F8170882309F446CF4D2FEA
:101CE000429546954770440F440F8D2F8F70042EF8
:101CF00001C0880F0A94EAF72D2F2071D4FF07C086
:101D00002FE030E001C0220F4A95EAF72095C695F2
:101D1000C695C370822BC23049F058F4C13019F017
:101D20000E94091022CF0E9404101FCF0E940E10A3
:101D30001CCF0E94D10F19CFCF70112329F08C2F07
:101D40000E94E20F8D2F3FCF8D2F0E94100D8C2F00
:101D50000E94ED0F0ACFD23F51F160F4D03FB9F0AD
:101D6000D13F81F0112309F449C0F110B3CE8C2F7B
:101D70008F7121C0D33F11F1D43FA1F78091D702D9
:101D800082FF26C08C2F8F71112311F314C01123F1
:101D900049F0F4E0FF1508F4E8CE8C2F8F710E9413
:101DA000F90FE3CE25E02F1508F4DFCEF6CF8C2F08
:101DB0008F711111CDCF0E94E20FD7CE112329F0E0
:101DC0008C2F8F710E94DA0FD0CE0E94D70FCDCE0C
:101DD000112349F0CF718C2F0E94E20F63E08C2F0A
:101DE0000E943214C2CE81E00E944D1431E03F15B2
:101DF00008F0BBCE82E00E944D14B7CEFF2059F010
:101E0000D93309F013CF8FEF97EEE3E08150904084
:101E1000E040E1F709CF8C2F8F719ACFDF91CF91FE
:101E20001F910F91FF90EF90DF90CF90BF9008959A
:101E30000F931F93CF93DF93EC01688179818A819F
:101E40000E94A2108C010E9413100E94BB0FB801C7
:101E5000CE01DF91CF911F910F910C94170DCF936D
:101E6000DF93EC018B819C81892B29F088819981FA
:101E700089238F3F59F4DF91CF910895CE010E94BD
:101E8000180FCE01DF91CF910C940C0ACE010E9465
:101E90005D0A8111F3CF0E94B213882361F38A8116
:101EA000882349F38091D70282FDE5CF82E0DF915C
:101EB000CF910C944D140E94D9130E94DC130E9400
:101EC000FC130E941A1D0C94F31B0E94A2130C9485
:101ED0005B0F0E94C9130C94650FE92FE295EF7018
:101EE000E250EE3070F4F0E0EA53FD4C0C944A32CC
:101EF000803F19F020F4883E20F481E00895843F6B
:101F0000E1F380E00895883EC0F3813FD1F7F5CF3B
:101F100093FB882780F90895FC01808191810E94BC
:101F200098100C946D0FCF93DF9300D000D00F92D8
:101F3000CDB7DEB70F900F900F900F900F90DF91FD
:101F4000CF910895CF93DF9300D000D000D0CDB7CC
:101F5000DEB726960FB6F894DEBF0FBECDBFDF9179
:101F6000CF91089508950C94B20F0E94B30F8093FF
:101F7000DF010C945B0F08950C94B50F9091DF0175
:101F8000892B0C94B50F9091DF0189230C94B50F28
:101F90009091DF0189270C94B50F0C94B20F0C942B
:101FA000CD0F0E94CF0F8093DE010C945B0F80E079
:101FB0000C94D10F91E001C0990F8A95EAF7892F0F
:101FC0000C94D10F21E030E001C0220F8A95EAF78E
:101FD0008091DE01822B0C94D10F21E030E001C012
:101FE000220F8A95EAF720958091DE0182230C94D6
:101FF000D10F21E030E001C0220F8A95EAF78091ED
:10200000DE0182270C94D10F9091DE01892B0C9474
:10201000D10F9091DE0189230C94D10F9091DE01B4
:1020200089270C94D10F0895E92FEE0FEE0F9E0F24
:10203000890F982F977041E001C0440F9A95EAF7F5
:1020400086958695869593E0899FF0011124E95441
:10205000FE4F30E020E070E05191DF011197CB019D
:10206000022E02C0969587950A94E2F781708195B9
:102070008527842385278C932F5F3F4F233031059D
:1020800059F70895E92FEE0FEE0F9E0F890F982F45
:10209000977086958695869523E0829FF00111249E
:1020A000E954FE4F50E040E080E0219130E0092EFD
:1020B00002C0369527950A94E2F721703327042E43
:1020C00001C0220F0A94EAF7822B4F5F5F4F433023
:1020D000510559F70895CF92DF92FF920F931F9306
:1020E000CF93DF936C010091DE018091DF01082B1B
:1020F000C7E0D0E010E0FC2EC8010C2E02C0959580
:1021000087950A94E2F780FD0CC02197A0F7F12C87
:102110008F2DDF91CF911F910F91FF90DF90CF9086
:102120000895B6018C2F0E940117019771F3F0CF2B
:10213000CF93DF93EC010E946B10BE01DF91CF9132
:102140000C9401171F93CF93DF93EB019091B6018D
:10215000992331F0CB01DF91CF911F910C9498100E
:10216000882379F0CB010E946B10182F682FCE01C5
:102170000E941410BE01812FDF91CF911F910C940A
:102180000117CB010E944210182FF4CF1F93CF9359
:10219000DF93C091E00116E08091E1018C1304C04F
:1021A000DF91CF911F910895D0E01C9FF0011D9FFA
:1021B000F00D1124EE51FE4F4081518162817381F7
:1021C000848195810E94A20F2196C770E5CF40912E
:1021D00012025091130260911402709115028091C5
:1021E0001602909117020C94A20FFF920F931F9367
:1021F000CF93DF9380911702807FD1F480911402F6
:102200008823B1F08091E0011091E1016091120208
:1022100070911302A0911502B0911602062F0723A8
:10222000C0910201D091030196E0F92E181306C067
:10223000DF91CF911F910F91FF90089590E010973B
:1022400011F00F3F19F401968770F0CFF89E9001BE
:10225000F99E300D1124F901EE51FE4F41814713D3
:10226000F2CF40814613EFCF42814111ECCF438141
:1022700054814A1B5B0B4C175D0728F780911702AE
:102280008F70806180931702F901E951FE4F8081C0
:102290008F708061808382E192E00E942F0FDF9136
:1022A000CF911F910F91FF900C94C610AF92BF92E7
:1022B000CF92DF92EF92FF920F931F93CF93DF9312
:1022C000CDB7DEB761970FB6F894DEBF0FBECDBFB6
:1022D0008C0185E0F801DE011D9601900D928A9532
:1022E000E1F7F801E28082E1C82E82E0D82E609109
:1022F0001502709116026115710509F45FC1909184
:10230000120220911302892F82238F3F09F456C1B4
:1023100040815181A380B480F0901402F501E61B46
:10232000F70BBF01E0910201F0910301FF2009F4D6
:10233000F6C080911702382F307F6E177F0708F0A4
:10234000AFC0311179C0FE2C251323C0941321C0D6
:10235000E1101FC08F708061809317020E94E71008
:10236000C6010E942F0F80911702F80185838F2DDF
:1023700061960FB6F894DEBF0FBECDBFDF91CF914F
:102380001F910F91FF90EF90DF90CF90BF90AF9093
:102390000895AB2829F0842F85238F3F09F027C1AA
:1023A00080E0F82FF170DF2E80FF3CC08091E001CB
:1023B0002091E10136E0821315C04D875E878D853F
:1023C0009E850E949810292F22952F702230F0F0C0
:1023D000243018F59F70F1F0F8019581907FD1F4C9
:1023E000D12C1EC090E0389FF001399FF00D1124D0
:1023F000EE51FE4F6181651306C06081641303C016
:1024000062816E110FC001968770D5CF9F7011F059
:10241000882331F3805E883018F3C8010E942F0FA3
:10242000FD2CA5CFEE2009F4A2CF80911702816088
:1024300080931702F12C9BCF251306C0941304C080
:10244000F801EE2009F487C0C8010E948C0F882390
:1024500019F1EE2009F180911702803270F020917D
:1024600012023091130238872F831986BB86AA8601
:102470008C87CE0107960E942F0F86E0F801A2E11B
:10248000B2E001900D928A95E1F70E94F5100E944A
:10249000E710FF24F3946BCFC8010E942F0FF9CFF0
:1024A000311113C07A2DB98AA88A6E2D89890E94AC
:1024B000930F82E192E00E942F0F86E0F6011192C5
:1024C0008A95E9F70E94E710B5CF25130FC0941342
:1024D0000DC0E1100BC0F8018583C8010E942F0FC9
:1024E00086E0F60111928A95E9F741CFC8010E9472
:1024F0008C0F882389F2EE2079F2809117028032C6
:1025000008F4BBCF20911202309113023A83298341
:102510001B82BD82AC828E83CE010196ACCF6E173A
:102520007F0708F03EC0FE2CEE2009F4B5CF25133E
:102530002AC0941328C08091170280FD1BC0982FD9
:10254000907FC1F0F8018583903F31F0982F907F04
:10255000905F8F70892B8583C8010E942F0F86E0C2
:10256000F801A2E1B2E001900D928A95E1F70E9494
:10257000E710FDCE86E0F801A2E1B2E001900D92F5
:102580008A95E1F7F4CEC8010E948C0F811175CFB6
:1025900080911702816080931702C8010E942F0F5B
:1025A000E6CE7A2DB98AA88A6E2D89890E94930F6A
:1025B00086E0F60111928A95E9F7D9CFEE2009F469
:1025C0006BCFC8010E948C0FF82E882309F464CFCA
:1025D00086E0F801A2E1B2E001900D928A95E1F760
:1025E00082E192E00E94ED0B0E94F510C0CF81E0E5
:1025F0008E25D7CE1F93CF93DF93CDB7DEB72C9721
:102600000FB6F894DEBF0FBECDBF4F8358876987E2
:102610007A878B879C87CE0107960E945611882364
:1026200069F08A859B85892B39F04F815885842FE5
:1026300085238F3F09F071C016E05FC086E0FE0180
:102640003796DE01119601900D928A95E1F78A8501
:102650009B85892B89F38F81988589238F3F61F32F
:102660002091E10130E0C9010196877099274091DE
:10267000E0014817190671F40E94690F1092E101F8
:102680001092E00186E0E2E1F2E0DF011D928A951E
:10269000E9F7D2CF96E0929FD001939FB00D11241D
:1026A000AE51BE4FFE01319601900D929A95E1F721
:1026B0008093E1010E94C610BFCF819FC001112409
:1026C0008E519E4F0E9456118823E9F0E091E0015F
:1026D0001E9FF0011124EE51FE4F40815181628115
:1026E0007381848195810E94A20F8091E00190E026
:1026F0000196877099278093E0018091E001909185
:10270000E1018913DACF2C960FB6F894DEBF0FBE25
:10271000CDBFDF91CF911F91089569857A858B8513
:102720009C850E94A20F88CF682F80910401909110
:1027300005010C94AC29682F80910401909105014A
:102740000C94AE2980910401909105010C94B0295C
:102750008091180285958595859508958091180238
:102760008770089590911802977081E009F480E0D5
:10277000089580912402089590912402892B8093DA
:102780002402089580959091240298239093240226
:10279000089510922402089590912302892B80932A
:1027A0002302089580959091230298239093230209
:1027B00008951092230208951092220208958091A4
:1027C0001902089508950C94E2139091D70292FD96
:1027D00008C090911902981721F0809319020C9467
:1027E000E313089580911902882329F010921902A9
:1027F00080E00C94E3130895E0910401F091050149
:10280000809124028083E0910401F0910501808190
:1028100090912302892B8083E0910401F0910501BE
:10282000808190912202892B8083909119029923B3
:1028300081F0E0910401F09105018081892B808372
:1028400080910401909105010E94642981110E94E8
:10285000F21380910401909105010C941F290895B1
:102860000C942F149091D70292FD10C098E0899F8C
:1028700090011124622B609318020E94E20F809154
:1028800018028595859585950C9430140C94E20F6B
:102890001092180280E00C943014909118028095E8
:1028A000892380931802282F277091F4282F082E4F
:1028B000000C330B9217130659F09091D70292FD3A
:1028C00007C08595859585950E94ED0F0C94481459
:1028D00008959091D70292FB222720F9281769F0DA
:1028E00080FB92F99093D7028091D6029091D70203
:1028F0000E94B41482E00C944D1408958091D70284
:1029000082FB882780F991E089270C94691481E083
:102910000C94691480E00C9469146FEF7FEF90E0E1
:1029200080E00C94A23290E080E00E947E32893EEA
:102930009E4F11F40C94D71D80E0089582E090E042
:102940000C94763283E090E00C947632CF9384E05E
:1029500090E00E947632C82F82E290E00E947632A8
:10296000982F8C2FCF910895CF93C92F682F84E093
:1029700090E00E9484326C2F82E290E0CF910C9420
:102980008432AB01BC018FE090E00C949632AB0135
:10299000BC0183E190E00C94963260E070E0CB01E2
:1029A0000C94C71460E070E0CB010E94C1140C9439
:1029B000CD1469EE7EEF90E080E00E94A23260E0EC
:1029C00082E090E00E94843260E083E090E00E9428
:1029D00084321092DF0160E084E090E00E94843253
:1029E00060E082E290E00E94843260E085E090E066
:1029F0000E94843260E086E090E00E9484326FEFB3
:102A000087E090E00E94843240E050E0BA0188E024
:102A100090E00E94963260E08DE090E00E94843267
:102A200040E050E0BA0188E190E00E94963260E018
:102A300087E190E00E94843240E050E0BA018CE1EE
:102A400090E00E94963270E060E080E290E00E94A8
:102A5000A23240E050E0BA0188E190E00E94963254
:102A600080E00E94F01D0E94161E0C94D2140C945B
:102A7000D914682F8EE090E00C9484320E94532A7F
:102A800060933E0270933F02809340029093410214
:102A900060933A0270933B0280933C0290933D0214
:102AA000089585B7806885BF85B7806885BF08951C
:102AB000089508950C94581508950C945C150E947F
:102AC000511580E298E10E94FF280E9459150C944C
:102AD0005A150C948B18089508950E946B150C9448
:102AE0006C150E943E2A0E94DF170E94251E0E943C
:102AF00062060E941E1F80E00E947E1F0E947809CD
:102B00000C945D159F92AF92BF92CF92DF92EF929D
:102B1000FF920F931F93CF93DF93CDB7DEB72A9722
:102B20000FB6F894DEBF0FBECDBF0E942E07C82E91
:102B300081110E943E1586E2A82E82E0B82E10E098
:102B400000E0902E802F0E945B06E82EF501F190A8
:102B50005F01F81609F456C08091420281FD0E947F
:102B600061068F2D8E25D12CFF24F394982F9F2161
:102B700009F443C00E946915882399F0DE829F8280
:102B8000EF2081E009F480E088870E94472A816075
:102B9000782F9A8789874E815F8168858A850E9410
:102BA000AF0BF801EA5DFD4F8081F826F0820E94AC
:102BB000F921C1100E94C0200E940E1C0E947A09B7
:102BC0000E94092990912502891799F10E940929EB
:102BD000809325022A960FB6F894DEBF0FBECDBFB4
:102BE000DF91CF911F910F91FF90EF90DF90CF90E9
:102BF000BF90AF909F900C94A70BD394FF0CF5E07F
:102C0000DF12B4CF0F5F1F4F0431110509F099CFC8
:102C10008FEF89838A831B820E94472A8160782FE5
:102C20009D838C8349815A816B818D810E94AF0B7A
:102C3000BECF2A960FB6F894DEBF0FBECDBFDF9190
:102C4000CF911F910F91FF90EF90DF90CF90BF90A9
:102C5000AF909F900895CF93DF930E940517EC01EA
:102C6000811522E5920778F5811531E5930708F083
:102C700098C08F3F910509F0B8F4803F910508F0A6
:102C80006FC0853A910540F48430910548F401976E
:102C900039F0D0E0C0E004C0805E91090897C8F721
:102CA000CE01DF91CF910895811540E5940708F09A
:102CB0005CC0C11580E4D80708F054C0C11590E28B
:102CC000D90770F3E6CF811526E5920718F581152F
:102CD00035E5930708F07DC0811544E5940708F0B9
:102CE00073C0982F969596959E0123703327C11532
:102CF000D34508F45BC0C1E0D0E002C0CC0FDD1FBB
:102D00002A95E2F730E2939FC0011124C82BD92BFA
:102D1000DA68C6CFC1159AE5D90778F4C11529E557
:102D2000D20708F060C0C11538E5D30708F4B1CF69
:102D3000DC2FCC27C06FD06AB3CFCE01905681155F
:102D4000904208F0A6CF8D2F8F710E949C1790E0C3
:102D5000982F882788279F719C012C2BE90141C05F
:102D6000D0659ECFDF70D06A9BCFE4E096958795C3
:102D7000EA95E1F783702C2F26952695237090E233
:102D8000299F90011124382B8C2F8370C1E0D0E053
:102D900002C0CC0FDD1F8A95E2F7C22BD32BDC6873
:102DA0007FCFD82FCC27C16FD06A7ACFC1E0D0E0D7
:102DB00002C0CC0FDD1F2A95E2F720E2929FC001EE
:102DC0001124C82BD92BEBCFD82FCC27C46FD06AB6
:102DD00067CF0E949C17C82FD0E0DC2FCC27CC27D0
:102DE000DF71D0625DCF8C2F8F700E949C1734E012
:102DF000D695C7953A95E1F7CF709C2FEC01D06935
:102E00004FCF0E9425240C942B1682389105B1F1E6
:102E1000B0F48133910509F475C048F48932910505
:102E200009F469C08A32910509F473C008958533A5
:102E3000910509F459C08933910501F10895833E44
:102E40009105A9F138F4803E9105F9F0823E910593
:102E500049F10895863E9105A9F1873E9105C9F192
:102E6000843E910519F52091D70221FF1FC0809162
:102E7000D60284FD14C087EE90E008952091D6021A
:102E80002370A1F080EE90E008952091D60220FDFD
:102E900047C03091D70230FF09C024FF44C090E002
:102EA00080E004C02091D60222FDF7CF0895209142
:102EB000D60222FD3BC03091D70230FDE3CF24FF84
:102EC000F5CFEDCF2091D60223FFF0CF24FDE7CF41
:102ED000D2CF2091D60223FD2CC03091D70231FFF2
:102EE000EECF84EE90E008952091D60225FFDECF4C
:102EF00089E290E008952091D60225FFD7CF85E39F
:102F000090E008952091D60226FFD0CF8AE290E08B
:102F100008952091D60226FFC9CF81E390E008955D
:102F200089E390E0089583EE90E0089582EE90E0CA
:102F3000089586EE90E008959091D60292FF06C023
:102F4000282F28712830F9F4877F846093FF06C00A
:102F5000282F28712831F1F4877E84612091D702CF
:102F600020FF06C0382F38713830D9F4877F816050
:102F700021FF06C0282F28712831D1F4877E816176
:102F800094FD877E0895282F24712430F9F68B7FD5
:102F90008860DCCF282F2471243101F78B7E886173
:102FA000DDCF382F3171313019F78E7F8860E0CF57
:102FB000282F2171213121F78E7E8861E1CF109277
:102FC000D2021092D3021092D4021092D502089528
:102FD000CF92DF92EF92FF926B017C010E948B18DF
:102FE00081110EC00E94532AC61AD70AE80AF90AAC
:102FF000C092D202D092D302E092D402F092D502D3
:10300000FF90EF90DF90CF9008950F931F930E9451
:103010008B18882321F01F910F910C94532A0E9442
:10302000532A0091D2021091D3022091D402309100
:10303000D502600F711F821F931F1F910F9108957A
:1030400080E008950C948D140E942E078FE39CE974
:103050000197F1F700C000000E942E0780E00E9457
:103060005B0680FF04C00E9422180C94AE2A0895CB
:103070000C9424180E949314811102C00E943715E9
:103080000E949E14809342020E94A6149093D7023D
:103090008093D6020E9438180E94A2140E94BC0F8E
:1030A0008091DE010C94CF0F0895FF920F931F9330
:1030B000CF93DF93F82E092F162FD72FC42F22235B
:1030C00049F081E0809345020E94472A9093440290
:1030D00080934302809145028823A1F080914302AE
:1030E000909144020E945F2A059760F0EF2DF02F27
:1030F000A12FBD2FCE0FDF2FD11DEC17FD0741F4FF
:1031000010924502DF91CF911F910F91FF9008958A
:1031100081918D93F2CF80914602811107C00E9468
:103120000932882351F081E08093460281E090913A
:103130004602913009F080E0089582E080934602D3
:103140000E940432F3CF0C948B180E94A318809332
:1031500006010E948B1881110C94BD1808950E94DD
:103160008B18811102C00C94BF18089581E09091D2
:1031700047029A3008F080E008950C943E270C94A2
:103180004127EF92FF920F931F93CF93DF93790123
:10319000C82F880FDD0B41155105A9F08AE08C9FDF
:1031A000F0018D9FF00D1124E95FFE4F8381948122
:1031B000885B9D4F228130E04217530708F49A0143
:1031C000A9010E946D32CE010E944B28892B11F576
:1031D00001151105E9F08AE08C9FF0018D9FF00D3B
:1031E0001124E95FFE4F458150E00417150708F4EC
:1031F000A8018AE08C9FF0018D9FF00D1124E95FFA
:10320000FE4F66817781685B7D4FC7010E946D32FA
:1032100081E001C080E0DF91CF911F910F91FF907D
:10322000EF9008950C942E1A0C944A1A0F931F9342
:10323000CF93DF9300D000D0CDB7DEB760916902A5
:1032400070916A0280916B0290916C020E946E2ACA
:1032500011E0643671058105910518F10E94051889
:103260006E5F7F4F8F4F9F4F69837A838B839C83E1
:1032700010E000E030E020E044E050E0BE016F5F8D
:103280007F4F82E00E94C118182F882351F00E94BE
:10329000532A6093690270936A0280936B02909341
:1032A0006C02812F0F900F900F900F90DF91CF91B4
:1032B0001F910F910895AF92BF92CF92DF92EF923C
:1032C000FF920F931F93CF93DF93CDB7DEB72B976A
:1032D0000FB6F894DEBF0FBECDBF7B01C0905A0180
:1032E000D0905B0101E010E09E01255F3F4F50E070
:1032F00040E070E060E080E00E94C118182F882351
:1033000009F448C056018FEFA81AB80A6091650207
:103310007091660280916702909168020E946E2A05
:10332000643671058105910568F10AE010E09E019F
:103330002F5F3F4F50E040E070E060E081E00E948E
:10334000C118D82E6AE070E0C5010E941F1F11E06D
:103350009B85981310E01D2141F10E94532A609330
:1033600065027093660280936702909368028AE018
:10337000FE013196ABE5B2E001900D928A95E1F73E
:1033800011E013C06AE070E0C5010E941F1F9B8519
:103390008913CBCF8AE0F6013196DE0111960190B8
:1033A0000D928A95E1F71111E2CF8AE0EBE5F2E0A8
:1033B000D70101900D928A95E1F7812F2B960FB6D8
:1033C000F894DEBF0FBECDBFDF91CF911F910F915B
:1033D000FF90EF90DF90CF90BF90AF900895AF92A5
:1033E000BF92CF92DF92EF92FF920F931F93CF93F2
:1033F000DF937C015B016A010E94B61801E010E0D6
:10340000882311F00AE010E0C1E0D0E0F894B501A3
:10341000C701F60109957894811104C021960C1713
:103420001D075CF4DF91CF911F910F91FF90EF90FA
:10343000DF90CF90BF90AF900895CC9F9001CD9F2B
:10344000300D300D112490E080E045E34A95F1F70E
:103450000000019682179307C1F7D8CF0F931F93EF
:10346000CF93DF93EC018B014BE559E10E94EF19FB
:10347000882351F046E159E1B801CE01DF91CF91A7
:103480001F910F910C94EF1980E0DF91CF911F9164
:103490000F9108950F931F93CF93DF93F894C091EA
:1034A0005A01D0915B01CE0101962AE0FB01DC01BB
:1034B00001900D922A95E1F76AE070E00E941F1FCB
:1034C00088837894F8946B857C858D859E850091A2
:1034D0005702109158022091590230915A026017F8
:1034E00071078207930751F0609357027093580257
:1034F0008093590290935A020E94E8177894DF91C2
:10350000CF911F910F9108950E94532C0E94711525
:103510000C945F2C0E94632C0E9482150C947D2CCD
:103520000E94D1290E943A2C0E945F150E94841AA1
:103530000E948A1A0E946D15FBCF8091730280FF52
:1035400012C060912A0185E0689FB0011124759531
:1035500067957595679560387105A8F561157105D2
:10356000A1F1862F089581FF09C060912A0185E0AD
:10357000689FB001112475956795EDCF60912A0180
:1035800082FD0AC0809172028823D1F090912901B6
:1035900060912A01891728F085E0689FB001112405
:1035A000DACF869FB001112485E0869F9001879F26
:1035B000300D1124692F70E0C9010E943632CBCF43
:1035C00065E070E0CECF8FE7089581E008958091A7
:1035D000730280FF0CC06091260170E075956795BD
:1035E000759567956115710549F1862F089581FFDD
:1035F00006C06091260170E075956795F3CF6091E4
:10360000260182FD0BC0909171029923A1F0609177
:10361000250180912601961738F0682F70E06038F8
:10362000710500F38FE70895899FC001112470E0B0
:103630000E943632F4CF61E070E0D7CF81E0089588
:10364000803F31F40E949D1A8195809377020895FE
:10365000813F19F40E949D1AF8CF823F31F40E94F5
:103660009D1A8195809376020895833F19F40E94F4
:103670009D1AF8CF893F29F40E94E71A80937802B7
:1036800008958A3F21F40E94E71A8195F7CF8B3F76
:1036900031F40E94E71A81958093790208958C3F56
:1036A00019F40E94E71AF8CF9CE0980F953070F457
:1036B000845F990B21E030E001C0220F8A95EAF780
:1036C00080917502822B8093750208958D3F31F4AD
:1036D0008091730281608093730208958E3F21F47C
:1036E000809173028260F7CF8F3FB9F780917302A8
:1036F0008460F1CF40917602803F59F48091770247
:1037000087FF0DC01092770241110BC01092720218
:1037100008C0813F81F48091770218169CF34423FE
:1037200081F08091780290917902892B09F05AC03A
:10373000109271020895823F49F447FFF0CF109232
:103740007602809177028111ECCFE0CF833F19F4AC
:103750001416ACF3E4CF90917802893F29F419163E
:10376000F4F610927802DBCF8A3F19F497FFD7CF97
:10377000F8CF909179028B3F29F497FFD0CF109228
:103780007902CDCF8C3F19F41916CCF3C8CF9CE049
:10379000980F953090F4845F990B21E030E0B901E7
:1037A00002C0660F771F8A95E2F7CB018095909152
:1037B0007502892380937502B2CF8D3F31F48091D9
:1037C00073028E7F80937302AACF8E3F21F4809183
:1037D00073028D7FF7CF8F3F09F0A1CF80917302E5
:1037E0008B7FF0CF08950E94472A9C01909176022A
:1037F00080917702982B21F03093700220936F0212
:103800009091780280917902982B21F030936E028A
:1038100020936D0284E792E00C942A29EF92FF92A4
:103820000F931F93CF93DF9300D000D000D0CDB77C
:10383000DEB786E0E4E7F2E0DE01119601900D923A
:103840008A95E1F7E0907602F09077020091780295
:1038500010917902109276021092770210927802FB
:10386000109279028E2D8F2991F080916F029091A4
:1038700070020E945F2AAC0190917202992309F4B0
:103880003FC080912B018417150608F447C0802F94
:10389000812B91F080916D0290916E020E945F2ABF
:1038A000AC0190917102992309F477C080912701AE
:1038B0008417150608F47FC08091760290917702F4
:1038C000892B90917802892B90917902892B11F0A4
:1038D0000E94F31B86E0FE013196A4E7B2E001905E
:1038E0000D928A95E1F726960FB6F894DEBF0FBECB
:1038F000CDBFDF91CF911F910F91FF90EF90089571
:1039000020912C018AE0289F90011124241735076B
:1039100008F0BDCF9F5F9093720202C09F3FD1F726
:10392000EE2059F00E949D1A9FEF1E140CF491E0B6
:10393000899F802D112480937602FF2059F00E94E8
:103940009D1A9FEF1F140CF491E0899F802D112484
:103950008093770230917602332309F498CF209137
:103960007702222309F493CF45EB3403C0011124DD
:10397000992359F09093760245EB2403900111248A
:10398000332339F03093770282CF81E0809376023F
:10399000F3CF81E0809377027ACF209128018AE0EB
:1039A000289F900111242417350708F085CF9F5FC9
:1039B0009093710202C09F3FD1F7002359F00E94FB
:1039C000E71A9FEF10160CF491E0899F802D1124C7
:1039D00080937802112359F00E94E71A9FEF111685
:1039E0000CF491E0899F802D11248093790230910D
:1039F0007802332309F460CF20917902222309F45D
:103A00005BCF45EB3403C0011124992359F0909307
:103A1000780245EB240390011124332339F03093CD
:103A200079024ACF81E080937802F3CF81E08093DE
:103A3000790242CF86E0E4E7F2E0DF011D928A9549
:103A4000E9F71092720210927102109273020895B7
:103A5000EF92FF920F931F93CF93DF93CDB7DEB713
:103A60002C970FB6F894DEBF0FBECDBF49835A83A3
:103A70006B837C838D839E83EF82F88609871A8708
:103A80002B873C8746E050E0BE01695F7F4FCE0147
:103A900001960E94603221E0892B09F420E0822FF8
:103AA0002C960FB6F894DEBF0FBECDBFDF91CF913D
:103AB0001F910F91FF90EF900895EF92FF920F9357
:103AC0001F93E0907A02F0907B0200917C021091AB
:103AD0007D0220917E0230917F02409180025091C0
:103AE00081026091820270918302809184029091A0
:103AF00085020E94281D882321F080E892E00E9420
:103B00002A2910928202109283021092840210924B
:103B1000850286E0E0E8F2E0AAE7B2E001900D92CB
:103B20008A95E1F71F910F91FF90EF900895CF9341
:103B3000DF9300D000D000D0CDB7DEB786E0E0E85C
:103B4000F2E0DE01119601900D928A95E1F729814C
:103B50003A814B815C816D817E8180E090E0269688
:103B60000FB6F894DEBF0FBECDBFDF91CF910895A1
:103B7000CF93DF9300D000D000D0CDB7DEB749831C
:103B80005A836B837C838D839E8386E0FE0131960E
:103B9000A0E8B2E001900D928A95E1F726960FB663
:103BA000F894DEBF0FBECDBFDF91CF91089583E2C1
:103BB00090E00E947632823289F484E290E00E94A2
:103BC0007632813059F485E290E00E94763291E0BD
:103BD000843009F090E0892F8170089580E0FCCF57
:103BE000CF93C82F6FEF811162E283E290E00E94D1
:103BF00084326FEFC11161E084E290E00E94843270
:103C00006FEFC11164E085E290E0CF910C948432B3
:103C1000089586E290E00E947632682F70E090E08E
:103C200080E0089586E290E00C94843280E00E9467
:103C3000F01D60E070E0CB010E94121E0E949D23E7
:103C40000E94872481E00C94F01D0E94081E0E94AF
:103C5000D71D811102C00C94161E0895CF93FB014D
:103C6000C281CC2309F19C0122513F45203131050D
:103C700020F582510E949724C0E08C2FCF910895A7
:103C800081E00E94E20F43E062E081E00E94340A9A
:103C9000F3CF81E00E94ED0F43E062E081E00E94FB
:103CA000340AEBCF82E0F6CF8031FFE59F0789F33E
:103CB00081319F45B9F3C1E0E0CF8031EFE59E0748
:103CC000F9F281319F45C9F682E0DBCF2FEFFC018D
:103CD00020830895EF92FF920F931F93CF93DF936A
:103CE000EC01062FE881E150E33108F05EC0F0E01E
:103CF000EC52FD4C0C944A32198289E08A83602F81
:103D0000CE01DF91CF911F910F91FF90EF900C9416
:103D1000132B8981823069F0833071F08130D9F4BE
:103D20000E94532A0E9450326A837B838C839D8336
:103D3000E6CF0E94091EF6CF7E0182E0E80EF11C5C
:103D400010E0812F0E945B06F70181937F011F5FC6
:103D50001431B9F7D4CF602FCE010E94661ECFCFA9
:103D600089818230C1F76A817B818C819D810E942B
:103D700050320E94121EC3CF4B816A8189810E94FA
:103D80006F239827892798279D838C83B8CF2C8110
:103D90003D813227232732274B816A8189810E9406
:103DA0008823ADCF0E949D23AACF8FEF8883A7CF12
:103DB0000E9432248983A3CF0E9434249827892724
:103DC00098279A8389839BCF6B8170E089819A8140
:103DD000AE014C5F5F4F9827892798270E943724B0
:103DE0008ECF6B8170E089819A81AE014C5F5F4F0D
:103DF0009827892798270E945D2481CF0E948724D5
:103E00007ECF0E945D23D6CF6B8170E089819A813D
:103E1000AE014C5F5F4F9827892798270E94D523D2
:103E20006ECF6B8170E089819A81AE014C5F5F4FEC
:103E30009827892798270E94FB2361CF0895FC01CA
:103E4000680F791F8FEF91E36E177F0709F40895CC
:103E50002191822728E030E087FF06C0880F89275C
:103E600021503109C9F7F0CF880FFACFCF92DF92F6
:103E7000EF92FF920F931F93CF93DF936C017B011F
:103E800064E670E088E70E94DC25EC0197FD12C033
:103E900010E000E0F601E00FF11F849164E670E0AD
:103EA0000E945626EC01892B29F40F5F1F4F0E1537
:103EB0001F0581F70E94D926CE01DF91CF911F9176
:103EC0000F91FF90EF90DF90CF90089508950C949C
:103ED000661FE9EDF2E080E092E0DF019C011D92B7
:103EE00021503040E1F7F093E004E093DF048FEFDE
:103EF0009FEF9093B2028093B10208950E94EB0865
:103F00000E94671F8093AD0280FD0FC080E8809300
:103F1000AC020E94D6256DE070E084E395E00E943B
:103F2000361F892B21F080E0089580E2F0CF809148
:103F3000AD0263E070E081FD26C081E395E00E9460
:103F4000361F892B81F76DE070E081E295E00E94D9
:103F5000361F892B41F70E94532A605A75418F4FB3
:103F60009F4F6093DB047093DC048093DD04909397
:103F7000DE040E94691F81E08093B0028093AF024B
:103F80001092AE0208958EE295E0D9CF2091AC0256
:103F900036E0839FC0011124629F800D911D112482
:103FA000811522E0920714F090E080E087529D4F47
:103FB0009093E0048093DF0408952091DF04309112
:103FC000E004235D32404091AC02642F70E0C901EF
:103FD0000E942232481B463010F4240F311D211557
:103FE00082E0380710F030E020E027523D4F309358
:103FF000E0042093DF0408951F93CF93DF93162FDF
:104000008A3031F481E0DF91CF911F910C947620BA
:104010008D3011F480E0F7CFC091DF04D091E0043F
:1040200096E0FE01A6E8B2E001900D929A95E1F7C4
:10403000803EC8F086E0FE0111928A95E9F71111E1
:104040001EC0C091DF04D091E00446E050E0BE0104
:1040500086E892E00E946032892BF9F4DF91CF91DB
:104060001F910C94DD1FF6E08F9FB00111246F5B50
:104070007A4F46E050E0CE010E945732E0CFE09107
:10408000DF04F091E0049F012A5F3F4F2E173F07A6
:10409000C1F2808180958193F9CFC95DD240CE0174
:1040A00025E0969587952A95E1F721E030E0A90172
:1040B00002C0440F551F8A95E2F7CA014091B10230
:1040C0005091B202842B952B259645E0D695C79545
:1040D0004A95E1F702C0220F331FCA95E2F7822BFF
:1040E000932B9093B2028093B102B8CFCF93382F25
:1040F000E091DF04F091E004E95DF2402091AC0230
:10410000622F70E0CF010E942232281B822F3323BE
:1041100069F066E00E941632C82FC15010F4CF91AA
:10412000089560E080E20E94FC1FF7CF9F01280FF6
:10413000311D2115324018F080E0F0E0E0E08E0FF4
:104140009F2F911D87529D4F9093E0048093DF0431
:10415000E6CF1F93CF93DF93EC01162FFE018491DE
:10416000811104C0DF91CF911F910895612F0E94AA
:10417000FC1F2196F3CF0E94A92081E00C947620A9
:104180008091B002811103C08091AF0208950E9416
:10419000532A605A75418F4F9F4F6093DB04709391
:1041A000DC048093DD049093DE048091AF028111E2
:1041B000EBCF62E070E08FE195E00E94361F892B23
:1041C00019F781E08093AF02DFCF2F923F925F9289
:1041D0006F927F928F929F92AF92BF92CF92DF9217
:1041E000EF92FF920F931F93CF93DF938091B002D2
:1041F000882369F02091B1023091B2022115310576
:1042000031F08091AE0261E070E0882399F0DF9197
:10421000CF911F910F91FF90EF90DF90CF90BF90C3
:10422000AF909F908F907F906F905F903F902F9076
:1042300008958F5F082F10E01B01082E02C0220C8A
:10424000331C0A94E2F7A90142215321452B89F33B
:104250009091AD0290FD44C08295880F8076809346
:104260002F01980136952795369527952093320191
:10427000815E809330011092330124E630E047E004
:1042800050E06DE271E088E70E948526892B09F0F5
:10429000BECFA80125E0440F551F2A95E1F7809174
:1042A000AD0280FD2BC047525D4F04E610E020E2D6
:1042B00030E060E488E70E94AC26892B09F0A7CFA4
:1042C0000E94C020E101C095D0958091B1029091EB
:1042D000B202C823D923D093B202C093B10297CFC0
:1042E000880F880F880F80932F0110923201895F09
:1042F0008093300183E080933301BFCFECE8F2E09C
:1043000080E2DF011D928A95E9F7A0E6B1E00CE5B5
:1043100011E084E6C82E81E0D82E97E0592E77244C
:1043200073948D91E80129918E01240F352F311D51
:1043300027523D4FE82FF0E0E457FD4F90E080E03A
:10434000652C681A872C082E01C0880C0A94EAF79D
:104350007901A12CE701B9907E01B820662D6A1978
:104360006770962E062E000C770BDB2D01C0DD0F3B
:104370009A94EAF77195619571096770772701C082
:10438000B6946A95EAF7BD2A6081962E9B289082A2
:10439000A39468E0A612DECF01963196883091058D
:1043A00079F6CA16DB0609F0BCCF04E610E020E27D
:1043B00030E04CE852E07DCF8091AF029091B002A6
:1043C000911103C091E089270895882369F062E084
:1043D00070E08DE195E00E94361F892B19F08091E5
:1043E000AF0208951092AF028091AF02EBCF81E04F
:1043F00008950F931F938091B002882389F18091D3
:10440000D9049091DA040E945F2AC29760F00E945A
:10441000472A9093DA048093D90460E080E00E94F8
:10442000C61F0E94F5080E94E5208091AF028823F4
:10443000B9F00E94532A0091DB041091DC04209112
:10444000DD043091DE04601B710B820B930B6F3F18
:104450007F4F8F4F9F4720F41F910F910C94DC21C9
:104460001F910F910895CF93DF93EC01FB0182819F
:10447000882309F420C1C330FDE5DF07C8F5CA3F32
:104480009CE5D90730F49E0122503C45243131058A
:1044900098F50E94A6149093D7028093D602C0315B
:1044A000FCE5DF0709F4E0C008F061C0C8309CE516
:1044B000D90709F4CBC088F5C430FCE5DF0709F45F
:1044C000B3C0E8F4C2309CE5D90709F4A7C08091D5
:1044D000D6028260C330DC4509F4A3C08091D602C5
:1044E0009091D7020E94B4140E94690F80E004C02A
:1044F000C136EDE5DE0769F2DF91CF910895809135
:10450000D6028061C630FCE5DF0709F48AC008F4F2
:104510008FC08091D602806284C08091D6028D7F48
:10452000CC309CE5D90709F47CC070F48091D602A8
:104530008C60CA30FCE5DF0709F473C008F48AC058
:104540008091D6028E7F6DC08091D602877FCE305B
:104550009CE5D90709F465C08091D6028B7FCF30E6
:10456000DC4508F45EC08091D6028F7E5AC0CC3FF5
:10457000FCE5DF0709F474C040F5C4319CE5D907B8
:1045800009F48AC058F4C231FCE5DF0709F474C0AD
:1045900008F46EC08091D602837F43C0CA3F9CE579
:1045A000D90709F449C008F04DC0C531DC4509F010
:1045B00095CF8091D60282FB992790F921E092272E
:1045C00090FB82F990FB83F92CC0C1158DE5D807CB
:1045D00009F458C088F48091D7028360CE3FECE59F
:1045E000DE0769F18091D7028D7FCF3FDC4538F13E
:1045F0008091D7028C7F23C0C2308DE5D80709F4A3
:1046000058C008F452C0C136DD4509F067CF90911B
:10461000D602892F8F7E94FF806103C08091D602DD
:1046200081608093D6025ACF8091D6028460F9CF00
:104630008091D6028860F5CF8091D7028160809307
:10464000D7024CCF8091D7028260F9CF8091D602F9
:104650008064E7CF0E94690F8091D6028068E1CF25
:104660008091D7028E7FEBCF8091D6028F7DD9CFFC
:104670008091D6028F7BD5CF0E94690F8091D602A0
:104680008F77CFCF8091D702982F909591708E7FA2
:10469000892B90FB81F9D3CF0E94690F9091D602AC
:1046A000892F97FB87F98058BCCF81E00E9439158C
:1046B00015CF80E0FBCF81E01FCF84E0089550E06C
:1046C000440F551F9AE0699F400D511D112498EC2D
:1046D000899F400D511D1124CA01879608950F939B
:1046E0001F93CF93DF930E945F238C010E94763249
:1046F000C82FD0E0DC2FCC27C80101960E9476326B
:104700009E01282BC901DF91CF911F910F91089530
:104710000F931F93CF93DF93122F032F0E945F23DA
:10472000EC01602F0E948432612FCE010196DF914F
:10473000CF911F910F910C948432AF92BF92CF9280
:10474000DF92EF92FF921F93CF93DF938DE4C82EF9
:1047500081E0D82ED0E07601C0E014C0F5012591AB
:104760003491412F6C2F8D2F0E94882382E0A80E58
:10477000B11C1F5F153091F78AE0E80EF11CCF5F86
:10478000C43119F0570110E0E9CFDF5F88ECC80EA3
:10479000D11CD43001F7DF91CF911F91FF90EF90A2
:1047A000DF90CF90BF90AF900895EF92FF920F935C
:1047B0001F93CF93DF93EC018A017C01E60EF71E75
:1047C000CE018796CE15DF0539F4DF91CF911F9189
:1047D0000F91FF90EF900895C03223E0D20740F48C
:1047E0000E947632F80180830F5F1F4F2196E8CF39
:1047F000F8011082F9CFCF92DF92EF92FF920F93E0
:104800001F93CF93DF937C016A018C01060F171F62
:10481000EC01CE018796C017D10749F4DF91CF9103
:104820001F910F91FF90EF90DF90CF900895C032CD
:1048300023E0D20740F4FE01EE19FF09EC0DFD1D47
:1048400060810E9484322196E4CF462F843038F470
:10485000743128F4653018F4672F0C946F2390E0BE
:1048600080E0089580E1089589EB90E00895EF924B
:10487000FF920F931F93CF93DF93EC018A017C018A
:10488000E60EF71ECE01895B9C4FCE15DF0539F48D
:10489000DF91CF911F910F91FF90EF900895C93B49
:1048A000D10540F40E947632F80180830F5F1F4FDC
:1048B0002196E8CFF8011082F9CFCF92DF92EF92E4
:1048C000FF920F931F93CF93DF937C016A018C01BA
:1048D000060F171FEC01CE01895B9C4FC017D10753
:1048E00049F4DF91CF911F910F91FF90EF90DF90EE
:1048F000CF900895C93BD10540F4FE01EE19FF09A0
:10490000EC0DFD1D60810E9484322196E4CFCF938F
:10491000DF93C7E4D3E060E0CE010E9484322196A9
:10492000C11584E0D807B9F7DF91CF910895DF92E0
:10493000EF92FF920F931F93CF93DF9300D000D09D
:10494000CDB7DEB7F82E8FE08F1540F08FEF93E0F4
:104950000E94763207E413E08823C1F00F900F9095
:104960000F900F90DF91CF911F910F91FF90EF90DB
:10497000DF900895011584E0180781F3C8010E94B3
:104980007632811101C0FA940F5F1F4FF110F2CF00
:1049900019821A821B821C82DD24D39478018FEF46
:1049A000E81AF80AC8010E94763289831A8288239D
:1049B000A9F29FEF980F933078F48A83D9820E5F23
:1049C0001F4FC7010E9476328B83882339F2CE01B4
:1049D00001960E948B0BE2CF8701F9CFCF93DF9333
:1049E000EB0186319C4511F50E94B9139A819923F8
:1049F00099F08A7A91E009F490E09093B3028111E2
:104A000009C089E20E9494130E94FC1380E0DF91A8
:104A1000CF91089585E3F6CF8091B302811104C050
:104A200089E20E949B13F0CF85E3FBCF81E0EFCFBB
:104A30000F931F93CF93DF93C42FD22FFC0182815A
:104A40008823C9F04093B6020E94472A9093B5028A
:104A50008093B40280E28C0F883008F050C0C77099
:104A600081E001C0880FCA95EAF7DF91CF911F91CD
:104A70000F910C94090D1091B602141335C080915A
:104A8000B4029091B5020E945F2A883C910560F5BE
:104A9000C0E2CD0F1D17B9F080E2810F883040F4DD
:104AA000177081E001C0880F1A95EAF70E94100D77
:104AB000C83048F481E09D2F977001C0880F9A9507
:104AC000EAF70E94090D802F0E94010DC830B8F44A
:104AD000D77081E001C0880FDA95EAF7DF91CF91B6
:104AE0001F910F910C94100D80E28C0F883038F4D8
:104AF000C77081E001C0880FCA95EAF7EFCFDF9158
:104B0000CF911F910F9108950F939C01CB01233FEB
:104B10004CE5340759F1A8F4283DFCE53F0701F1C5
:104B2000293D4CE53407D1F1273D3C4591F406E29F
:104B300021EE41EE67ED7CE50E94182580E00F91A3
:104B40000895253FFCE53F07E9F0B0F0263F3C45DE
:104B5000F9F0FC018281882339F11092B602EFCF7F
:104B600007E225EE45EE68ED7CE5E6CF06E221EEB4
:104B700040EE63EF7CE5E0CF07E225EE44EE64EF24
:104B80007CE5DACF06E221EE42EE65EF7CE5D4CF9C
:104B900007E225EE46EE66EF7CE5CECF08E221E0A7
:104BA00045EE69ED7CE5C8CF81E0C9CF1092B90030
:104BB0008CE08093B80008959F92AF92BF92CF92FD
:104BC000DF92EF92FF920F931F93CF93DF93B82E54
:104BD000EB010E94472A6C01EE24E394F12CC431CE
:104BE000D10560F025E0E22EF12CCF3FDC0731F05B
:104BF000CE0164E170E00E9422327B0184EAA82E9B
:104C000094E8992E1092BC00A092BC000E94472A02
:104C10008C018091BC0087FF0DC08091B900887F16
:104C2000883039F18091B900887F803111F10FEF20
:104C30001FEF09C00E94472A801B910B8E159F050C
:104C400040F30EEF1FEFCF3FDC07E1F2C6010E94F9
:104C50005F2A8C179D07B0F2C801DF91CF911F9199
:104C60000F91FF90EF90DF90CF90BF90AF909F900B
:104C70000895B092BB009092BC000E94472A8C011C
:104C80008091BC0087FF0AC08091B900887F88317D
:104C900011F0803461F610E000E0DECF0E94472A78
:104CA000801B910B8E159F0558F3CBCF0F931F934D
:104CB000CF93DF93EB018093BB0084E88093BC002B
:104CC0000E94472A8C018091BC0087FF11C020916F
:104CD000B900287F81E090E0283211F490E080E074
:104CE000919581959109DF91CF911F910F91089531
:104CF000CF3FDC0741F30E94472A801B910B8C17A2
:104D00009D0708F38EEF9FEFEECFCF92DF92EF92E9
:104D1000FF920F931F93CF93DF936B018A01790169
:104D2000B9010E94DC25E6010C0D1D1DC017D1073D
:104D300061F424E92093BC00DF91CF911F910F9182
:104D4000FF90EF90DF90CF90089597FDF2CFB701DD
:104D500089910E945626EACFCF92DF92EF92FF927E
:104D60000F931F93CF93DF93C62F6A017901B80188
:104D70000E94DC2597FD0CC0B8018C2F0E9456269E
:104D8000E601EC0CFD1CCE15DF0511F097FF0CC001
:104D900024E92093BC00DF91CF911F910F91FF90E8
:104DA000EF90DF90CF900895B80189910E94562628
:104DB000EACF84E98093BC0008958EE14A9B02C04B
:104DC0008150E1F74A9BFECF08955A9880E28A9578
:104DD000F1F75A9A0895FC013BE03A95F1F798E013
:104DE00020E080E031E040E14A95F1F7880F4A9BEE
:104DF00002C08160232742E04A95F1F7000040E1BC
:104E00004A95F1F7915079F790E19A95F1F799B1B8
:104E100032E03A95F1F7000040E14A95F1F792FB54
:104E2000992790F992272081920F90830895EF920D
:104E3000FF920F931F93CF93DF930F92CDB7DEB7FF
:104E400019828C017C01E60EF11C0E151F0561F420
:104E500081E09981911180E00F90DF91CF911F91B6
:104E60000F91FF90EF9008950E94DD26CE010196EC
:104E70000E94EB26F80181938F01E7CF529A5A9A4C
:104E8000089552985A9AEA9AE9E6F0E080818F7C78
:104E9000808308956150770B91E001C0990F6A9566
:104EA000EAF720E031E0911108C0222391F05A9AEC
:104EB00080E28A95F1F75A980895492F482339F0EE
:104EC0005A9A232740E24A95F1F79695ECCF5A98E3
:104ED000F9CF5A98EDCFFF920F931F93CF93DF93A3
:104EE000EC018C01060F111DC017D10731F4DF91C1
:104EF000CF911F910F91FF900895F9900E94E526A0
:104F000068E08F2D0E944A27EFCF1F920F920FB6B5
:104F10000F921124EF92FF920F931F932F933F93C1
:104F20004F935F936F937F938F939F93AF93BF93B1
:104F3000EF93FF93CF93DF930F92CDB7DEB7198234
:104F40000E94DD26CE0101960E94EB26A82FA69591
:104F5000A695A695282F229525709A2F9570290F32
:104F6000922F937026952695920F98279770898196
:104F7000982B09F075C0A43008F072C080E18A95C2
:104F8000F1F75A9A529AB2E0BA95F1F700C05A98DE
:104F9000EA2EF12CEAE0AE9FD0011124A95FBE4FAA
:104FA0001896ED91FC9119973097B1F060915A01E4
:104FB00070915B0116962D913C911797260F371F24
:104FC00013968D919C911497680F791F15964C91AB
:104FD000159712968C9109958AE08E9DF0018F9D10
:104FE000F00D1124E95FFE4F6581662351F0209199
:104FF0005A0130915B0186819781820F931F0E9435
:105000006B270E94E526F0E1FA95F1F75A9852983D
:105010005A9A80E18A95F1F78AE08E9D80018F9DF2
:10502000100D1124095F1E4FD80112966C91129732
:10503000662371F120915A0130915B0113968D9195
:105040009C91820F931F0E941727D801ED91FC912C
:10505000882311F088E001C082E080830E94DD2671
:105060000F90DF91CF91FF91EF91BF91AF919F9101
:105070008F917F916F915F914F913F912F911F91F0
:105080000F91FF90EF900F900FBE0F901F9018950B
:10509000ED91FC91DFCF0F931F93CF93DF93EC0142
:1050A00004970CF0A9C08AE08C9FF0018D9FF00D51
:1050B0001124E95FFE4F80819181892B09F49CC006
:1050C000F894529A5A9885E08A95F1F700008C2F4F
:1050D000869585709C2F9570890F982F9370869573
:1050E0008695890F8E0193E0000F111F9A95E1F7C5
:1050F000082B0E94E52600C068E0802F0E944A2706
:10510000A0E1AA95F1F752985A9A4A9B27C087E0E6
:1051100090E04A9925C08AE08C9F80018D9F100DF8
:105120001124095F1E4FF80165816623A1F12091CA
:105130005A0130915B0186819781820F931F0E94F3
:105140001727811128C0529A5A9AD801ED91FC91E3
:1051500082E08083789482E090E016C000C0D5CFD2
:105160000197B9F4529A5A9A8AE08C9FF0018D9F68
:10517000F00D1124E95FFE4F0190F081E02D81E0F8
:105180008083789481E090E0DF91CF911F910F911F
:10519000089500C0BECF0E94DD26B0E2BA95F1F7B7
:1051A0005A98529AE0E1EA95F1F78AE08C9FF00173
:1051B0008D9FF00D1124E95FFE4F6281662351F04F
:1051C00020915A0130915B0183819481820F931F5A
:1051D0000E946B270E94E5268AE08C9FF0018D9F3C
:1051E000F00D1124E95FFE4F0190F081E02D108257
:1051F000789490E080E0C8CF84E090E0C5CF9093B1
:1052000075018093740108959093BD028093BC0250
:1052100008950E948B18811103C08091B7020895F0
:10522000E091BC02F091BD02309721F00190F08135
:10523000E02D099480E008950E9409290895E091E5
:10524000BC02F091BD02309721F00280F381E02D85
:1052500009940895E091BC02F091BD02309739F0B5
:1052600022E0DC012C930480F581E02D099408955F
:105270002091BA023091BB022817390771F0909340
:10528000BB028093BA02E091BC02F091BD0230975C
:1052900021F00680F781E02D099408952091B8024D
:1052A0003091B9022817390771F09093B9028093B1
:1052B000B802E091BC02F091BD02309721F0008469
:1052C000F185E02D099408959C012E5F3F4FAC01BC
:1052D000485F5F4F80E02417350709F40895F9010E
:1052E00091919F019923B9F38F5FF5CF662349F020
:1052F000FC01329608962191261729F0E817F90744
:10530000D1F780E0089581E008959C01FC01329678
:105310009FEF80E04191461751F09F3F19F44111F2
:1053200001C0982F8F5F8630A9F79F3F09F4089539
:10533000290F311D97FD3A95F90162830895FC010B
:10534000329608962191261303C0DF0111971C9213
:10535000E817F907B9F708950C9485290C949F294B
:10536000029626E0FC0111922A95E9F70895089526
:105370000C94B729811105C081E08093BE020C9482
:10538000B82982E0FACF83E08093BE020C94B8295A
:105390000C94BA2981E08093BE020C94B8290C9435
:1053A000CA2908958091E904843031F10E94450AA8
:1053B0001092BF0288E190E020E40FB6F894A8951F
:1053C000809360000FBE2093600083B7817F84606C
:1053D00083BF83B7816083BF7894889583B78E7FBE
:1053E00083BF0FB6F894A895809160008861809380
:1053F0006000109260000FBE089508950895CF9345
:105400000E94FD290E942E070E94FE29C0E08C2FD9
:105410000E945B06811105C0CF5FC431C1F7CF91F7
:10542000089581E0FCCF0E94690F0C94B70A1F9287
:105430001FB61F9211248F939F93AF93BF938091B8
:10544000BF02811113C08091E1049091E204A09108
:10545000E304B091E4044196A11DB11D8093E104E1
:105460009093E204A093E304B093E404BF91AF915E
:105470009F918F911F901FBE1F90189582E084BD51
:1054800093E095BD9AEF97BD80936E0008952FB776
:10549000F8948091E1049091E204A091E304B0912A
:1054A000E4042FBF08952FB7F8946091E104709140
:1054B000E2048091E3049091E4042FBF08959C01DD
:1054C0004FB7F8948091E1049091E204A091E30435
:1054D000B091E4044FBF821B930B0895CF92DF92EB
:1054E000EF92FF922FB7F894C090E104D090E204BD
:1054F000E090E304F090E4042FBFA7019601261B7F
:10550000370B480B590BCA01B901FF90EF90DF90A0
:10551000CF90089578941F921FB61F9211248F93F5
:105520009F93AF93BF938091E1049091E204A09187
:10553000E304B091E4040196A11DB11D8093E10440
:105540009093E204A093E304B093E404BF91AF917D
:105550009F918F911F901FBE1F90189587E797E727
:10556000909301088093000888E19AE00FB6F894C0
:10557000A895809360000FBE90936000FFCF80914C
:10558000C8020895089508959C0184E08093E9007D
:105590009FEF8091E800915085FD06C085ED8A95CA
:1055A000F1F700009111F5CF8091E80085FF0CC064
:1055B00050E040E066E070E0C9010E94242D809137
:1055C000E8008E778093E8000895CF93DF93EC0195
:1055D00081E08093E9008FEF9091E800815095FD84
:1055E00006C095ED9A95F1F700008111F5CF8091F5
:1055F000E80085FF14C050E040E068E070E0CE01B4
:105600000E94242D8091E8008E778093E80088E046
:10561000FE01A0ECB2E001900D928A95E1F7DF91D6
:10562000CF9108950895CF93FC01603221F58091C8
:10563000E904843001F5C091E900CF702091EC00BD
:10564000922F917020FD90E8C92B82E08093E900B1
:105650008091E80080FF0CC050E040E060E270E024
:10566000CF010E94242D8091E8008E778093E8007E
:10567000CF70C093E900CF9108958091E804811123
:1056800009C00E94032F0E94602F8091E200846075
:105690008093E20008951092E80408950C94CA29BA
:1056A0006091E50481E0611101C080E00C94C329A0
:1056B0009091E90481E0943009F080E06091E50484
:1056C0000C94C82942E061EC81E00E947F2E42E206
:1056D00061EC84E00E947F2E42E261EC82E00E9455
:1056E0007F2E42E260EC83E00E947F2E9091E904DD
:1056F00081E0943009F080E06091E5040C94BA29CF
:105700008091EB04833009F462C030F48130D9F128
:10571000823009F49EC008958A3009F48AC08B3023
:1057200009F470C0893009F051C08091EA048132D7
:1057300009F04CC08091EE049091EF04009719F0AD
:10574000029709F043C08091E800877F8093E800CA
:105750008091E80082FF36C09091F3008091F200C2
:10576000029731F48091F100813011F0863021F4FC
:105770008091F1008093C8028091E8008B7780933C
:10578000E8000C94B32E8091EA04813AF9F48091F8
:10579000E800877F8093E8008091EE049091EF0409
:1057A000892B61F468E080EC92E070E00E94C22DE9
:1057B0008091E8008B778093E800089560E090E0A6
:1057C00080E0F3CF8091E9048111C2CF08958091E8
:1057D000EA04813AD9F78091EE049091EF04892B85
:1057E000A9F78091E800877F8093E8008091E80026
:1057F00080FFFCCF809140018093F1008091E80010
:105800008E77BDCF8091EA04813201F78091EE045A
:105810009091EF04892BD1F68091E800877F8093E7
:10582000E8000E94B32E8091EC04809340010C9418
:10583000690F8091EA04813249F68091E800877F00
:105840008093E8000E94B32E8091ED048093C902FA
:1058500008958091EA04813A09F0B8CF8091E80078
:10586000877F8093E8008091E80080FFFCCF8091E3
:10587000C902C2CF84B7877F84BF0FB6F894A895BA
:1058800080916000886180936000109260000FBE7C
:1058900080E890E00FB6F8948093610090936100E7
:1058A0000FBE0C94CF290E94032F0E94602FE2EEBE
:1058B000F0E080818460808378940C94E93184E303
:1058C00091E00C9404298091E9048530A9F4809139
:1058D000E904853011F00C94132A0E94D22980919A
:1058E000E7048823A1F30E94FF29882381F30E9403
:1058F0000E2D0E94690FEBCF0895CF93DF93CDB7A4
:10590000DEB7A0970FB6F894DEBF0FBECDBF809173
:10591000E904843009F583E08093E9008091E80090
:1059200082FF1AC08091E80090E085FF09C050E036
:1059300040E060E270E0CE0101960E94732D91E09C
:105940008091E8008B778093E800992329F060E24A
:10595000CE0101960E946A1EA0960FB6F894DEBF93
:105960000FBECDBFDF91CF9108950C94B72C292F96
:1059700033272330310521F168F42130310509F452
:1059800043C02230310509F444C090E080E030E0AB
:1059900020E026C02132310551F122323105A9F72C
:1059A0006330710590F7FB01EE0FFF1FE959FE4FC1
:1059B000208131816C597E4FFB01808190E010C0C5
:1059C00099278130910581F0009729F00297E9F637
:1059D000E1E8FAE002C0EFE9FAE0849190E09F018B
:1059E000FA01318320830895E7E9FAE0F6CF6330C6
:1059F000710558F6660F771FFB01E359FE4F2081B2
:105A0000318189E090E0ECCF82E190E02EEF3AE046
:105A1000E7CF8BE590E023EA3AE0E2CF80E189BD71
:105A200082E189BD09B400FEFDCF8091D8008F7D51
:105A30008093D8008091E00082608093E0008091A4
:105A4000E00081FDFCCF0895AF92BF92CF92DF922C
:105A5000FF920F931F93CF93DF936C01EB018A01A9
:105A60000E94D22EF82E811123C00115110539F0A4
:105A7000F80180819181C81BD90BC80ED91EB12CA9
:105A8000A12C2097A9F08091E80085FD22C080918B
:105A9000E8008E778093E80001151105A1F0F80168
:105AA00080819181A80EB91EB182A08285E0F82E76
:105AB0008F2DDF91CF911F910F91FF90DF90CF90AD
:105AC000BF90AF9008950E94D22E8823D1F2F82E75
:105AD000EFCFF60181916F018093F1002197FFEFE5
