:100000000C9431020C9478020C9478020C94820ABD
:100010000C9478020C9478020C9478020C94780278
:100020000C9478020C9478020C94421B0C94161CCD
:100030000C94BB160C9478020C9478020C94780201
:100040000C9478020C9478020C9478020C94780248
:100050000C9478020C9412170C9478020C94780289
:100060000C9478020C9478020C9478020C94780228
:100070000C9478020C9478020C9478020C94780218
:100080000C9478020C9478020C9478020C94780208
:100090000C9478020C9478020C9478020C947802F8
:1000A0000C9478020C9478020C9478021F002000C3
:1000B0002100220001001A000800150017000100AD
:1000C0001600070009000A0001001B0006001900C5
:1000D00005000100E2008B002C002C0002511E00E4
:1000E000350000000000000014002B00000000009C
:1000F0000000040039000000000000001D00E100C5
:10010000000000000000E300E0000000000000002C
:1001100027002600250024002300130012000C00F5
:1001200018001C0033000F000E000D000B003800FB
:100130003700360010001100650088008A002C008E
:1001400001512D002E008900000000002F0030001A
:100150002A000000000034003200280000000000E7
:1001600087005200E50000000000500051004F00E1
:1001700000000000010001000100010001001F005B
:100180002000210022000100010001000100010007
:100190000100010001000100010001000100010057
:1001A000010001000100010001000000000000004A
:1001B0001E0001000000000000000100010000001E
:1001C000000000000100010000000000000001002C
:1001D000010000000000000001000100010001001A
:1001E0000100270026002500240023000100010053
:1001F00001000100010001000100010001000100F7
:1002000001000100010001000100010001000100E6
:1002100000000000010001000100000000000100DA
:1002200001000100000000000100010001000000C9
:1002300000000100010001000000000001000100B9
:1002400001000100C35C0100010001000100CA5C63
:100250000100010001000100C65C01000100010075
:100260000100C85C01000100010001000100010063
:10027000010000000000000001000100000000007B
:10028000000001000100000000000000010001006A
:10029000000000000000010001000000000000005C
:1002A0000100010001000100010001000100010046
:1002B0000100010001000100010001000100010036
:1002C0000100010001000100010001000100010026
:1002D0000100010001000100000000000100010018
:1002E000010000000000010001000100000000000A
:1002F00001000100010000000000010001000100F8
:1003000000000000010001000100010001000100E7
:1003100001000100010001000100010001000100D5
:1003200001000100010001000100010001000100C5
:1003300001000100010001000100000000000000B8
:1003400001000100000000000000010001000000A9
:10035000000000000100010000000000000001009A
:100360000100000000000000010001000100010088
:100370000100010001000100010001000100010075
:100380000100010001000100010001000100010065
:100390000100010001000100010001000100010055
:1003A0000000000001000100010000000000010049
:1003B0000100010000000000010001000100000038
:1003C00000000100010001000000000014036800AB
:1003D00061006C00660063006C00690066006600E6
:1003E000000006036E003200000004030904090245
:1003F0002200010100A0FA0904000001030101002C
:100400000921110100012240000705810308000AAB
:100410001201100100000008350321000100010253
:10042000000105010906A101050719E029E71500EA
:10043000250195087501810295017508810105075F
:10044000190029FF150026FF009506750881000593
:10045000081901290595057501910295017503910A
:1004600001C011241FBECFEFDAE0DEBFCDBF04B65E
:1004700003FE27C080915F0290916002A09161020B
:10048000B09162028730904BA740B04BD1F41092EC
:100490005F0210926002109261021092620214BE1A
:1004A00084B7877F84BF0FB6F894A89580916000C9
:1004B000886180936000109260000FBEE0E0F8E376
:1004C000099511E0A0E0B1E0E0E9FCE302C005908D
:1004D0000D92A033B107D9F722E0A0E3B1E001C04B
:1004E0001D92AF35B207E1F70E9490180C94221EBE
:1004F0000C940000F894E82FE295EF70F0E031A141
:10050000282F2F7081E090E001C0880F2A95EAF72C
:10051000382B31A392A18095892382A378940895E2
:10052000F894E82FE295EF70F0E031A1282F2F70BA
:1005300081E090E001C0880F2A95EAF7982F909506
:10054000932391A392A1892B82A37894089508956F
:100550000C94A70208950C94AA020895E82FF0E0E5
:10056000E95BFE4F8081089508950F931F93CF9309
:10057000DF930E94650780910001809100019AE05D
:10058000811190E0909347028AE0891B8093460294
:10059000CBE1D1E08E01F80181918F010E949002A0
:1005A000F1E005321F07B9F784E30E94900286EC60
:1005B0000E94900286E60E94900286E30E949002CA
:1005C00082E30E94900284E30E94900286EC0E94E3
:1005D000900286E60E94900286E30E94900282E3E7
:1005E0000E94900289910E94900281E0C532D80752
:1005F000C9F7EBE5F1E0A7E4B1E011921D9281E0CB
:10060000EF36F807D1F78AE00E9414070E94B7047A
:10061000DF91CF911F910F910C946F07FF920F9371
:100620001F93CF93DF93CDB7DEB72A970FB6F89419
:10063000DEBF0FBECDBF0E944B07F82E6091470270
:10064000882309F451C08E010F5F1F4F8AE0F80123
:1006500011928A95E9F7862F90E0B801895B9E4F49
:100660000E948D09811123C0809146018F5F809384
:1006700046018630B8F1E0914602F0E0E95BFE4FBA
:10068000D801CE010B9611921D92A817B907D9F780
:100690000E94BB048F2D2A960FB6F894DEBF0FBEC2
:1006A000CDBFDF91CF911F910F91FF9008951092D0
:1006B0004601A0914602B0E0A95BBE4F9E01255FB6
:1006C0003F4FF12C4D91F80191918F01491731F075
:1006D000AD0141505109FA019083F82E021713071A
:1006E00089F7D6CFF12CD4CF70E0695B7E4F809133
:1006F000460290E0895B9E4F0E94B4090E94AD02C1
:10070000C9CF6F927F929F92AF92BF92CF92DF92AA
:10071000EF92FF920F931F93CF93DF930BE511E0BE
:100720004BE1C42E41E0D42EC0E0D1E0D601AD9023
:100730006D018A2D0E947A02B0EABA95F1F736E18E
:10074000E32E31E0F32EF70130E020E0B12C4191AF
:10075000A42FA295AF70B0E090968C9190E04F706E
:1007600002C0959587954A95E2F780FD94C08D2F3C
:10077000022E01C0880F0A94EAF7B82A2F5F3F4F74
:100780002530310521F78A2D0E949002E0EAEA9592
:10079000F1F7D8018C91B81609F47FC0BC9281E0C2
:1007A000C82B0F5F1F4FB0E2CB16B1E0DB0609F09C
:1007B000BDCF10E000E0AA24A394B12C2CE3C22EFC
:1007C00021E0D22EF70191907F01892D0E947A02BB
:1007D000F0EAFA95F1F7C501002E01C0880F0A94DE
:1007E000EAF7782F682F6095E2E3F1E08BE1682E5D
:1007F00081E0782ED0E03191D3012D913D01422F3F
:1008000042954F7050E0DA0190968C9190E02F70F5
:1008100002C0959587952A95E2F780FD40C0872F05
:10082000832B381731F09F0121503109D9018C9366
:10083000D1E0CE16DF06F9F6892D0E949002043031
:1008400019F0B0EABA95F1F7CD2B61F50F5F1F4FA4
:100850000530110509F0B6CF6091470270E0695B81
:100860007E4F2C2F4AE08BE591E00E9415070E94F5
:100870000E03C11101C0C82F8C2FDF91CF911F91A2
:100880000F91FF90EF90DF90CF90BF90AF909F902F
:100890007F906F90089580E070CF80E081CF862FA9
:1008A0008323BFCF8091370180936001809138010D
:1008B00080936101809139018093620180913A01B6
:1008C0008093630180913B0180936401BFCF81E0FD
:1008D000089581E008950C94690408950C946D04C2
:1008E0001F93CF93DF9300D000D00F92CDB7DEB728
:1008F00049835A836B833091AB0189819A8131118D
:100900001DC06623B9F02223A9F00E940214182FFB
:10091000682F89819A810E94AB1369817A81812F26
:100920000F900F900F900F900F90DF91CF911F912C
:100930000C942E050E94D913182FEFCF0E94021499
:1009400069817A81EDCFFC01262F4081518162813E
:10095000738184810C947004CF93DF93EC0160E089
:100960000E94A304BE01DF91CF910C946E040E94FB
:10097000F0060C94A8020C94AB0208950E948D0F0F
:100980000E94BD042FEF84E39CE021508040904002
:10099000E1F700C000000C9477170F931F93CF93DB
:1009A000DF938C0161E00E94A304EC01B8010E9476
:1009B0006B048823A9F1B801CE010E94E2078823C5
:1009C00079F1B801CE010E943408882349F1B801B9
:1009D000CE010E945709882319F1F80182818823EA
:1009E00061F0CB35FDE5DF0721F170F4C115ECE5D1
:1009F000DE07A1F0CF3DDC45C9F0C801DF91CF9102
:100A00001F910F910C946704CC358DE5D807A1F0A8
:100A1000CD35DD4591F70E94A914EFCF0E94BE04A9
:100A200080E0DF91CF911F910F9108950E940F16E2
:100A3000F7CF0E94B214E1CF0E94B514DECF089523
:100A40000C941F0581E008950C942205CF93C82FC4
:100A50000E9420058C2FCF910C942405972F70E0D5
:100A600025E0929F600D711D1124FB0194E6899F82
:100A7000E00DF11D1124EE0FFF1FE455FF4F85918E
:100A800094910895CF93DF930E942E050E9415063E
:100A9000EC01811523E5920790F5811532E5930766
:100AA00008F096C081159042C8F4C11581E0D807BE
:100AB00088F4C53AD10548F4C430D10558F4C130A2
:100AC000D10541F0D0E0C0E005C0CE01805E9109C3
:100AD0000897C0F7CE01DF91CF910895C11591E538
:100AE000D90708F070C0C11520E5D20708F04EC044
:100AF000C11530E4D30730F3DF70D06AEBCF811536
:100B000046E59407F0F4C11585E5D80708F075C0EF
:100B1000C11594E5D90708F06BC0CE018370992701
:100B200021E030E002C0220F331F8A95E2F7C6951C
:100B3000C69590E2C99FE0011124C22BD32BDA683D
:100B4000C9CF81152AE5920778F4811539E5930715
:100B500008F05EC0811548E5940708F4B3CFD82F9C
:100B6000CC27C06FD06AB6CF90568115904208F05E
:100B7000A9CF8D2F8F710E94AC0690E0982F882707
:100B800088279F719C012C2BE90140C0CE01E4E035
:100B900096958795EA95E1F783702C2F26952695F3
:100BA000237040E2249F90011124382B8C2F8370F6
:100BB000C1E0D0E002C0CC0FDD1F8A95E2F7C22B66
:100BC000D32BDC6887CFDC2FCC27C16FD06A82CFD4
:100BD0008370992721E030E002C0220F331F8A95ED
:100BE000E2F7C695C69580E2C89FE0011124E7CFE1
:100BF000DC2FCC27C46FD06A6DCF8C2F0E94AC063F
:100C0000C82FD0E0DC2FCC27CC27DF71D06262CF99
:100C10008F700E94AC0634E0D695C7953A95E1F7FF
:100C2000CF709C2FEC01D06955CF82389105B1F17E
:100C3000B0F48133910509F475C048F48932910507
:100C400009F469C08A32910509F473C008958533A7
:100C5000910509F459C08933910501F10895833E46
:100C60009105A9F138F4803E9105F9F0823E910595
:100C700049F10895863E9105A9F1873E9105C9F194
:100C8000843E910519F52091490221FF1FC08091F2
:100C9000480284FD14C087EE90E008952091480238
:100CA0002370A1F080EE90E008952091480220FD8D
:100CB00047C03091490230FF09C024FF44C090E092
:100CC00080E004C02091480222FDF7CF08952091D2
:100CD000480222FD3BC03091490230FDE3CF24FFA2
:100CE000F5CFEDCF2091480223FFF0CF24FDE7CFD1
:100CF000D2CF2091480223FD2CC03091490231FF10
:100D0000EECF84EE90E008952091480225FFDECFDB
:100D100089E290E008952091480225FFD7CF85E32E
:100D200090E008952091480226FFD0CF8AE290E01B
:100D300008952091480226FFC9CF81E390E00895ED
:100D400089E390E0089583EE90E0089582EE90E0CC
:100D5000089586EE90E008959091480292FF06C0B3
:100D6000282F28712830F9F4877F846093FF06C00C
:100D7000282F28712831F1F4877E8461209149025F
:100D800020FF06C0382F38713830D9F4877F816052
:100D900021FF06C0282F28712831D1F4877E816178
:100DA00094FD877E0895282F24712430F9F68B7FD7
:100DB0008860DCCF282F2471243101F78B7E886175
:100DC000DDCF382F3171313019F78E7F8860E0CF59
:100DD000282F2171213121F78E7E8861E1CF08957E
:100DE0000E946A15811102C00E940F160E9475159B
:100DF00080933A020E947D159093490280934802A5
:100E00000E94EF060E947915682F70E090E080E064
:100E10000E94AD12609125027091260280912702F6
:100E2000909128020C94E7120895FF920F931F935C
:100E3000CF93DF93F82E092F162FD72FC42F2223FD
:100E400049F081E0809371010E94EB16909370014C
:100E500080936F01809171018823A1F080916F01CF
:100E6000909170010E940317069760F0EF2DF02F0C
:100E7000A12FBD2FCE0FDF2FD11DEC17FD0741F4A1
:100E800010927101DF91CF911F910F91FF90089502
:100E900081918D93F2CF80917201811107C00E94E0
:100EA000CD1D882351F081E08093720181E0909103
:100EB0007201913009F080E0089582E08093720120
:100EC0000E94C81DF3CF0C944B070E9463078093C8
:100ED00000010E944B0781110C94810908950E9422
:100EE0004B07811102C00C94870908950F931F933B
:100EF000CF93DF93C42FD22FFC0182818823C9F0C6
:100F0000409375010E94EB169093740180937301D6
:100F100080E28C0F883008F050C0C77081E001C0BB
:100F2000880FCA95EAF7DF91CF911F910F910C942A
:100F3000540D10917501141335C080917301909177
:100F400074010E940317883C910560F5C0E2CD0F43
:100F50001D17B9F080E2810F883040F4177081E0EE
:100F600001C0880F1A95EAF70E945B0DC83048F45B
:100F700081E09D2F977001C0880F9A95EAF70E9433
:100F8000540D802F0E944C0DC830B8F4D77081E00A
:100F900001C0880FDA95EAF7DF91CF911F910F9189
:100FA0000C945B0D80E28C0F883038F4C77081E0C0
:100FB00001C0880FCA95EAF7EFCFDF91CF911F915B
:100FC0000F9108950F939C01CB01243F4CE534070A
:100FD00059F1A8F4293DFCE53F0701F12A3D4CE514
:100FE0003407D1F1283D3C4591F406E221EE41EE73
:100FF00068ED7CE50E94760780E00F910895263F1A
:10100000FCE53F07E9F0B0F0273F3C45F9F0FC0173
:101010008281882339F110927501EFCF07E225EE26
:1010200045EE69ED7CE5E6CF06E221EE40EE64EFA9
:101030007CE5E0CF07E225EE44EE65EF7CE5DACF14
:1010400006E221EE42EE66EF7CE5D4CF07E225EE24
:1010500046EE67EF7CE5CECF08E221E045EE6AED93
:101060007CE5C8CF81E0C9CFCF93DF93EC01FB01D2
:101070008281882309F419C1C230FCE5DF07C0F181
:10108000C6319CE5D90730F09E012B5F3C452930E5
:10109000310570F50E947D159093490280934802B6
:1010A000C031ECE5DE0709F4CFC008F05BC0C83002
:1010B0008CE5D80709F4B6C088F5C430ECE5DE0746
:1010C00009F4A8C0C0F4C2308CE5D80709F49CC06C
:1010D000809148028260C330DC4509F498C0809159
:1010E0004802909149020E948B150E948D0F80E06A
:1010F000DF91CF910895809148028061C630ECE580
:10110000DE0709F484C0809148028860C730DC455E
:1011100008F47DC080914802806279C0CC308CE5B3
:10112000D80709F489C070F4809148028C60CA30F5
:10113000ECE5DE0709F46BC008F478C08091480242
:101140008E7F65C0CE308CE5D80709F479C08091D8
:1011500048028B7FCF30DC4508F459C080914802AB
:101160008F7E55C0CC3FECE5DE0709F457C030F563
:10117000C3318CE5D80709F46FC078F4C131ECE5D0
:10118000DE0709F465C0C231DC4509F0A8CF0E9432
:101190008D0F809148028F773AC0C5318CE5D80712
:1011A00009F462C008F476C0809149028160CB3FA7
:1011B000DC4509F094CF8093490291CFC115FDE53C
:1011C000DF0709F44DC088F4809149028D7FCE3F3E
:1011D0009CE5D90781F3809149028E7FCF3FDC45A2
:1011E00050F3809149028360E6CFC230FDE5DF070E
:1011F00009F459C008F444C080E0C330DD4509F06B
:101200006ECF0E9411166BCF80914802816080934F
:10121000480265CF809148028460F9CF80914902ED
:101220008260C9CF809148028064F1CF0E948D0F07
:10123000809148028068EBCF809148028D7FE7CF94
:1012400080914802877FE3CF809148028F7DDFCF76
:10125000809148028F7BDBCF80914802837FD7CF7C
:10126000809149028C7FA7CF8091480282FB992709
:1012700090F921E0922790FB82F990FB83F9C7CF88
:1012800080914902982F909591708E7F892B90FBC9
:1012900081F991CF0E948D0F90914802892F97FB81
:1012A00087F98058B4CF81E0ACCF81E021CFCF93D4
:1012B000DF93EB0186319C4511F50E94B8149A81A9
:1012C000992399F08A7A91E009F490E0909376015D
:1012D000811109C089E20E9472140E94FB1480E00F
:1012E000DF91CF91089585E3F6CF8091760181114A
:1012F00004C089E20E947914F0CF85E3FBCF81E03E
:10130000EFCF61E070E081E091E00C94330A61E09E
:1013100070E081E091E00C943A0ACF93DF93D62FEE
:10132000C72F0E94D40A0097E9F4ED2FFC2FDC01AF
:10133000A458BE4F2C91219301968A309105B9F79C
:101340000E945C176E5F7F4F8F4F9F4F60937801B5
:101350007093790180937A0190937B0181E0DF9112
:10136000CF91089580E0FBCFCF93DF93D62FC72F87
:10137000609178017091790180917A0190917B015F
:101380000E943F17ED2FFC2F90E080E02191DC01BF
:10139000A458BE4F2C9301968A309105B9F7DF917E
:1013A000CF9108958EE14A9B02C08150E1F74A9B9C
:1013B000FECF08955A9880E28A95F1F75A9A0895D7
:1013C000FC013BE03A95F1F798E020E080E031E065
:1013D00040E14A95F1F7880F4A9B02C081602327BC
:1013E00042E04A95F1F7000040E14A95F1F791504B
:1013F00079F790E19A95F1F799B132E03A95F1F7E2
:10140000000040E14A95F1F792FB992790F9922765
:101410002081920F90830895EF92FF920F931F9374
:10142000CF93DF930F92CDB7DEB719828C017C0189
:10143000E60EF11C0E151F0561F481E099819111F2
:1014400080E00F90DF91CF911F910F91FF90EF906F
:1014500008950E94D209CE0101960E94E009F80188
:1014600081938F01E7CF9093870180938601529AF1
:101470005A9A0895909387018093860152985A9AB8
:10148000EA9AE9E6F0E080818F7C808308956150DC
:10149000770B91E001C0990F6A95EAF720E031E0FF
:1014A000911108C0222391F05A9A80E28A95F1F7AF
:1014B0005A980895492F482339F05A9A232740E231
:1014C0004A95F1F79695ECCF5A98F9CF5A98EDCF07
:1014D000FF920F931F93CF93DF93EC018C01060FC4
:1014E000111DC017D10731F4DF91CF911F910F91DA
:1014F000FF900895F9900E94DA0968E08F2D0E940C
:10150000470AEFCF1F920F920FB60F9211242F931D
:101510003F934F935F936F937F938F939F93AF937B
:10152000BF93CF93DF93EF93FF935A98529AC09152
:101530008601D09187016D81662321F08E819F8184
:101540000E94680A0E94DA0980E18A95F1F75A98A8
:1015500052985A9A80E18A95F1F76A81662309F1D7
:101560008B819C810E940C0AE881F981882311F00B
:1015700088E001C082E080830E94D209FF91EF9150
:10158000DF91CF91BF91AF919F918F917F916F919B
:101590005F914F913F912F910F900FBE0F901F9031
:1015A0001895E881F981E4CFCF93DF93C09186014C
:1015B000D0918701F894529A5A9885E08A95F1F76C
:1015C000000052985A9A80E28A95F1F74A9B0CC023
:1015D000529A5A9AE881F98181E08083789481E077
:1015E00090E0DF91CF9108956D81662381F08E8127
:1015F0009F810E940C0A81110AC0529A5A9AE8816E
:10160000F98182E08083789482E090E0EACF0E94C2
:10161000D20980E28A95F1F75A98529A80E18A9528
:10162000F1F76A81662321F08B819C810E94680A10
:101630000E94DA09E881F9811082789490E080E0D4
:10164000D0CF90938D0180938C010895E0918C010F
:10165000F0918D01309721F00190F081E02D0994F7
:1016600080E00895E0918C01F0918D01309721F098
:101670000280F381E02D0994089520918A01309130
:101680008B012817390771F090938B0180938A01A1
:10169000E0918C01F0918D01309721F00680F78167
:1016A000E02D09940895209188013091890128172F
:1016B000390771F09093890180938801E0918C0142
:1016C000F0918D01309721F00084F185E02D09948F
:1016D00008950E94F7166093A7017093A801809364
:1016E000A9019093AA016093A3017093A401809330
:1016F000A5019093A601089585B7806885BF85B739
:10170000806885BF0895089508950C94830B08950B
:101710000C94870B0E947C0B88E695E10E94881749
:101720000E94840B0C94850B0C944B07089508952C
:101730000E94960B0C94970B0E94E2160E9436179B
:101740000E94B5020C94880BAF92BF92CF92DF92A9
:10175000EF92FF920F931F93CF93DF93CDB7DEB736
:101760002A970FB6F894DEBF0FBECDBF0E9481034B
:1017700081110E94690B8FE8A82E81E0B82E10E03D
:1017800000E0C02E802F0E94AE02E82EF501F190FD
:101790005F01F81609F44BC080913A0281FD0E9466
:1017A000B4028F2D8E25D12CFF24F394982F9F21E6
:1017B000C9F10E94940B882399F0DE82CF82EF203A
:1017C00081E009F480E088870E94EB168160782F21
:1017D0009A8789874E815F8168858A850E943F0C40
:1017E000F801E157FE4F8081F826F0820E94260B17
:1017F00090918E01891791F10E94260B80938E01A2
:101800002A960FB6F894DEBF0FBECDBFDF91CF9101
:101810001F910F91FF90EF90DF90CF90BF90AF900E
:101820000C942605D394FF0CF5E0DF12BFCF0F5FB9
:101830001F4F0431110509F0A4CF8FEF89838A83EC
:101840001B820E94EB168160782F9D838C834981D7
:101850005A816B818D810E943F0CC8CF2A960FB6AA
:10186000F894DEBF0FBECDBFDF91CF911F910F91D6
:10187000FF90EF90DF90CF90BF90AF900895DF92F0
:10188000EF92FF920F931F93CF93DF93CDB7DEB705
:101890002B970FB6F894DEBF0FBECDBF7A878B872C
:1018A000F42E052F162FE72ED82E61110E94D81482
:1018B0001E821D827E2DEC82DD824F2D502F612FE6
:1018C0008D2D9E812B960FB6F894DEBF0FBECDBF37
:1018D000DF91CF911F910F91FF90EF90DF900C94CB
:1018E0000312FC01808191810C944414CF93C82F82
:1018F000882309F469C08238C1F40E94260B81FD57
:1019000063C089E30E9472140E94FB142FEF81EEE2
:1019100094E0215080409040E1F700C0000089E34E
:101920000E947914CF910C94FB148338A1F40E9487
:10193000260B80FD49C083E50E9472140E94FB14AF
:101940002FEF81EE94E0215080409040E1F700C0FD
:10195000000083E5E5CF8438A1F40E94260B82FDC8
:1019600033C087E40E9472140E94FB142FEF81EEB3
:1019700094E0215080409040E1F700C0000087E4EF
:10198000CFCF8CEF8C0F813A90F46C2F80910901AE
:1019900090910A010E942816882329F08C2F0E941A
:1019A00079140E94FB148C2F0E947214BBCF80E22A
:1019B0008C0F883048F4C77081E001C0880FCA9549
:1019C000EAF70E94BB14AECFCF910895882309F4A3
:1019D0004BC0823871F40E94260B81FF45C089E319
:1019E0000E9472140E94FB1489E30E9479140C94E3
:1019F000FB14833859F40E94260B80FF35C083E521
:101A00000E9472140E94FB1483E5EFCF843859F4CE
:101A10000E94260B82FF28C087E40E9472140E9455
:101A2000FB1487E4E2CF9CEF980F913AF0F290E23A
:101A3000980F983050F4877091E001C0990F8A9503
:101A4000EAF7892F0E94C114D2CF9BE5980F9330FB
:101A500020F490E080E00C943D0B885A873120F40C
:101A600090E080E00C94530B08951F93CF93DF9385
:101A7000182FEB010E94760C209731F4812FDF9113
:101A8000CF911F910C94E60C8FE99FE00197F1F73D
:101A900000C000002197F0CF70E060E0893311F4BE
:101AA00060E570E00C94350D882321F00E94BB1492
:101AB0000C94FB140895882321F00E94C1140C9407
:101AC000FB140895BF92CF92DF92EF92FF920F9393
:101AD0001F93CF93DF936C01D62FC72FFC01028198
:101AE000158112951F700E949014E82E8823A1F092
:101AF000E02E002389F08C2F807F803429F080E253
:101B00008D0FE12C883040F082E00E944C150E943D
:101B1000901491E0E82EE926BC2EB2949FE0B92201
:101B2000FBE0FB1598F1EB2DF0E0EC5DF14E0C9431
:101B3000DA1D1C2F1F70C07F11F01295107F00233B
:101B4000A9F0112359F080E28D0F883010F0D111E7
:101B500009C0812F0E94BB140E94FB148D2F0E948C
:101B6000760C14C0812F0E94CB14F6CF8D2F0E94CB
:101B7000E60C112359F080E28D0F883010F0D1115E
:101B80002CC0812F0E94C1140E94FB142B2D2850C1
:101B9000330B2430310520F40E94260B0E942605C9
:101BA000EE2009F467C10E948C1480FD63C1F60128
:101BB00012820E9486140E940F13C6010E945B0FBE
:101BC0000E948614DF91CF911F910F91FF90EF90AB
:101BD000DF90CF90BF900C943013812F0E94D114CE
:101BE000D3CF2C2F2F70F22EC07FC03219F0F29479
:101BF00080EFF822DD2369F0D13049F1002391F123
:101C0000112351F1F601858180FFA8CF8F70858364
:101C100023C0002381F0111106C00E94DE148F2919
:101C20000E94540DB3CF1130C1F70E94DE148F29EA
:101C30000E94E414ABCF111106C00E94F1148F2D45
:101C40000E945B0DA3CF113009F4A0CFF6CF002383
:101C500029F0163008F09ACF8F2DE2CF153008F01A
:101C600095CFEDCF112359F3D93349F4FFEF27EE88
:101C700033E0F15020403040E1F700C000008D2FEC
:101C80000E94E60C83CF8C2F837009F041C00111B4
:101C90007DCF4D2F429546954770440F440F0D2F31
:101CA0000F7010E030E020E0042E04C0000F111F80
:101CB000221F331F0A94D2F760E070E0CB01D4FFFB
:101CC0000FC06FE070E080E090E004C0660F771F07
:101CD000881F991F4A95D2F76095709580959095C9
:101CE000C695C695C370602B712B822B932BC23087
:101CF00049F058F4C13019F00E94C11247CF0E9438
:101D0000AF1244CF0E94D31241CF0E94AD123ECFFA
:101D10008695002311F08C2F8170882309F436CF2B
:101D20004D2F429546954770440F440F0D2F0F706D
:101D300010E030E020E0042E04C0000F111F221F2D
:101D4000331F0A94D2F760E070E0CB01D4FF0FC0DC
:101D50006FE070E080E090E004C0660F771F881F9E
:101D6000991F4A95D2F76095709580959095C69584
:101D7000C695C370602B712B822B932BC23049F018
:101D800058F4C13019F00E94861300CF0E947413DA
:101D9000FDCE0E949813FACE0E94E912F7CECF70C2
:101DA000002329F08C2F0E940F138D2F39CF8D2FF8
:101DB0000E945B0D8C2F0E943013E8CED23F89F138
:101DC00060F4D03FC9F0D13F29F1002309F442C0AB
:101DD0001111C4CE8C2F8F7121C0D33F39F1D43F64
:101DE000A1F7002369F1CF718C2F0E940F1363E0DC
:101DF0008C2F0E943115CACE002341F0153008F017
:101E0000C5CE8C2F8F710E945313C0CE163008F0B0
:101E1000BDCEF7CF8C2F8F71002369F20E940F1374
:101E2000B5CE8C2F8F710023C9F3C5CF002329F0C5
:101E30008C2F8F710E94FA12A9CE0E94F512A6CEA5
:101E400081E00E944C15123008F4A0CE82E00E947E
:101E50004C159CCE112359F0D93309F010CF8FEFD8
:101E600097EEE3E081509040E040E1F706CF8C2F01
:101E70008F71A1CFDF91CF911F910F91FF90EF90C4
:101E8000DF90CF90BF9008950F931F93CF93DF9370
:101E9000EC01688179818A810E944E148C010E9434
:101EA000AA130E94AC12B801CE01DF91CF911F910D
:101EB0000F910C94620DCF93DF93EC018B819C8189
:101EC000892B29F08881998189238F3F59F4DF91EB
:101ED000CF910895CE010E94440FCE01DF91CF91A2
:101EE0000C94AC04CE010E94CD048111F3CF0E946A
:101EF0009014882361F38A81882349F382E0DF917B
:101F0000CF910C944C150E94D8140E94DB140C94B1
:101F1000FB140E9480140C94830F0E94C8140C942C
:101F2000890FE92FE295EF70E250EE3070F4F0E0A7
:101F3000E05DF14E0C94DA1D803F19F020F4883EEC
:101F400020F481E00895843FE1F380E00895883E25
:101F5000C0F3813FD1F7F5CF93FB882780F908952F
:101F60000E9444140C94910FCF93DF9300D000D0C3
:101F70000F92CDB7DEB70F900F900F900F900F908C
:101F8000DF91CF910895CF93DF9300D000D000D0A0
:101F9000CDB7DEB726960FB6F894DEBF0FBECDBF25
:101FA000DF91CF9108951F93CF93DF93C091AC0140
:101FB00016E08091AD018C1304C0DF91CF911F9189
:101FC0000895D0E01C9FF0011D9FF00D1124E255F3
:101FD000FE4F4081518162817381848195810E948D
:101FE000C30F2196C770E5CF4091DE015091DF010C
:101FF0006091E0017091E1018091E2019091E30133
:102000000C94C30F1F93CF93DF938091E301807FE4
:10201000A9F48091E001882389F08091AC01C091FE
:10202000AD016091DE017091DF01A091E101B091FD
:10203000E201D62FD72316E0C81304C0DF91CF9159
:102040001F91089590E0109711F0DF3F19F4019669
:102050008770F2CF189F9001199F300D1124F9015C
:10206000E255FE4F41814713F2CF40814613EFCF37
:1020700042814111ECCF438154814A1B5B0B483CA8
:10208000510528F78091E3018F7080618093E3010F
:10209000F901ED54FE4F80818F70806180838EED59
:1020A00091E00E945B0FDF91CF911F910C94D30FB1
:1020B000AF92BF92CF92DF92EF92FF920F931F9356
:1020C000CF93DF93CDB7DEB761970FB6F894DEBF3D
:1020D0000FBECDBF8C0185E0F801DE011D96019099
:1020E0000D928A95E1F7F80140815181E2808EEDF1
:1020F000C82E81E0D82E6091E1017091E201611556
:10210000710509F461C19091DE012091DF01892FF1
:1021100082238F3F09F458C1A380B480F090E0017E
:10212000F501E61BF70BFF2009F4FCC08091E301E9
:10213000382F307FE83CF10508F0B2C0311179C08A
:10214000FE2C251323C0941321C0E1101FC08F70F3
:1021500080618093E3010E94F40FC6010E945B0F2F
:102160008091E301F80185838F2D61960FB6F89475
:10217000DEBF0FBECDBFDF91CF911F910F91FF90BA
:10218000EF90DF90CF90BF90AF900895AB2829F0EB
:10219000842F85238F3F09F033C180E0F82FF17041
:1021A000DF2E80FF3CC08091AC012091AD0136E074
:1021B000821315C04D875E878D859E850E944414CD
:1021C000292F22952F702230F0F0243018F59F70BF
:1021D000F1F0F8019581907FD1F4D12C1EC090E0F0
:1021E000389FF001399FF00D1124E255FE4F6181B7
:1021F000651306C06081641303C062816E110FC055
:1022000001968770D5CF9F7011F0882331F3805EDF
:10221000883018F3C8010E945B0FFD2CA5CFEE207B
:1022200009F4A2CF8091E30181608093E301F12C56
:102230009BCF251306C0941304C0F801EE2009F4C7
:102240008DC04D875E878D859E850E94B00F882347
:1022500019F1EE2009F18091E301803270F02091B4
:10226000DE013091DF0138872F831986BB86AA866D
:102270008C87CE0107960E945B0F86E0F801AEEDD9
:10228000B1E001900D928A95E1F70E9402100E9440
:10229000F40FFF24F39468CFC8010E945B0FF9CFBD
:1022A000311113C07A2DB98AA88A6E2D89890E94AE
:1022B000B40F8EED91E00E945B0F86E0F601119263
:1022C0008A95E9F70E94F40FB2CF25130FC094133B
:1022D0000DC0E1100BC0F8018583C8010E945B0F9F
:1022E00086E0F60111928A95E9F73ECF4D875E8729
:1022F0008D859E850E94B00F882371F2EE2061F2D9
:102300008091E301803208F4B8CF2091DE01309152
:10231000DF013A8329831B82BD82AC828E83CE018A
:102320000196A9CFE83CF10508F041C0FE2CEE2053
:1023300009F4B2CF25132AC0941328C08091E30179
:1023400080FD1BC0982F907FC1F0F8018583903FDE
:1023500031F0982F907F905F8F70892B8583C80113
:102360000E945B0F86E0F801AEEDB1E001900D92A6
:102370008A95E1F70E94F40FF7CE86E0F801AEED02
:10238000B1E001900D928A95E1F7EECE4D875E8720
:102390008D859E850E94B00F81116FCF8091E301E2
:1023A00081608093E301C8010E945B0FDDCE7A2D2E
:1023B000B98AA88A6E2D89890E94B40F86E0F60139
:1023C00011928A95E9F7D6CFEE2009F465CF4D87B3
:1023D0005E878D859E850E94B00FF82E882309F4B4
:1023E0005BCF86E0F801AEEDB1E001900D928A95E9
:1023F000E1F78EED91E00E94710C0E940210BACFBD
:1024000081E08E25CBCE1F93CF93DF93CDB7DEB780
:102410002C970FB6F894DEBF0FBECDBF4F83588701
:1024200069877A878B879C87CE0107960E94581010
:10243000882369F08A859B85892B39F04F815885DF
:10244000842F85238F3F09F071C016E05FC086E0BE
:10245000FE013796DE01119601900D928A95E1F703
:102460008A859B85892B89F38F81988589238F3F66
:1024700061F32091AD0130E0C90101968770992781
:102480004091AC014817190671F40E948D0F10920B
:10249000AD011092AC0186E0EEEDF1E0DF011D929E
:1024A0008A95E9F7D2CF96E0929FD001939FB00D25
:1024B0001124A255BE4FFE01319601900D929A95BE
:1024C000E1F78093AD010E94D30FBFCF819FC00180
:1024D000112482559E4F0E9458108823E9F0E09104
:1024E000AC011E9FF0011124E255FE4F4081518145
:1024F00062817381848195810E94C30F8091AC01B8
:1025000090E00196877099278093AC018091AC018F
:102510009091AD018913DACF2C960FB6F894DEBFF7
:102520000FBECDBFDF91CF911F91089569857A8548
:102530008B859C850E94C30F88CF08950C949D12B3
:102540000E949E126093290270932A0280932B02AC
:1025500090932C020C94830F08950C94A0120F9367
:102560001F930091290210912A0220912B02309191
:102570002C02602B712B822B932B1F910F910C94AB
:10258000A0120F931F930091290210912A0220910B
:102590002B0230912C0260237123822393231F91FD
:1025A0000F910C94A0120F931F9300912902109188
:1025B0002A0220912B0230912C026027712782275A
:1025C00093271F910F910C94A0120C949D120C94C0
:1025D000E5120E94E7126093250270932602809311
:1025E0002702909328020C94830F60E070E0CB01E7
:1025F0000C94E9120F931F9341E050E060E070E00B
:102600008A019B0104C0000F111F221F331F8A95EE
:10261000D2F7C901B8011F910F910C94E9120F93E1
:102620001F9341E050E060E070E004C0440F551F8C
:10263000661F771F8A95D2F7809125029091260216
:10264000A0912702B09128028A019B01082B192B27
:102650002A2B3B2BC901B8011F910F910C94E91251
:102660000F931F9341E050E060E070E004C0440F1E
:10267000551F661F771F8A95D2F7CB01BA01609567
:1026800070958095909500912502109126022091D9
:1026900027023091280260237123822393231F9104
:1026A0000F910C94E9120F931F9341E050E060E00A
:1026B00070E004C0440F551F661F771F8A95D2F73C
:1026C0008091250290912602A0912702B0912802C4
:1026D0008A019B01082719272A273B27C901B8012E
:1026E0001F910F910C94E9120F931F9300912502F3
:1026F000109126022091270230912802602B712B25
:10270000822B932B1F910F910C94E9120F931F931F
:102710000091250210912602209127023091280273
:1027200060237123822393231F910F910C94E9124C
:102730000F931F93009125021091260220912702EA
:102740003091280260277127822793271F910F91CC
:102750000C94E9120895E92FEE0FEE0F9E0F890FEA
:10276000982F977041E001C0440F9A95EAF786953B
:102770008695869595E0899FF0011124EC51FE4FD6
:1027800030E020E070E05191DF011197CB01022E83
:1027900002C0969587950A94E2F781708195852706
:1027A000842385278C932F5F3F4F2530310559F7C0
:1027B0000895E92FEE0FEE0F9E0F890F982F977057
:1027C00086958695869525E0829FF0011124EC512F
:1027D000FE4F50E040E080E0219130E0092E02C041
:1027E000369527950A94E2F721703327042E01C00D
:1027F000220F0A94EAF7822B4F5F5F4F4530510555
:1028000059F70895BF92CF92DF92EF92FF920F9304
:102810001F93CF93DF938C01C0902502D0902602A6
:10282000E0902702F09028028091290290912A02DC
:10283000A0912B02B0912C02C82AD92AEA2AFB2A9D
:10284000CFE1D0E0BC2ED701C6010C2E04C0B69556
:10285000A795979587950A94D2F780FD0EC021978A
:1028600088F7B12C8B2DDF91CF911F910F91FF90A5
:10287000EF90DF90CF90BF900895B8018C2F0E9409
:102880004205019761F3EECFCF93DF93EC010E94F5
:102890000214BE01DF91CF910C9442051F93CF9398
:1028A000DF93EB019091AB01992331F0CB01DF91E4
:1028B000CF911F910C944414882379F0CB010E948E
:1028C0000214182F682FCE010E94AB13BE01812F76
:1028D000DF91CF911F910C944205CB010E94D91337
:1028E000182FF4CF682F8091090190910A010C9460
:1028F0005E16682F8091090190910A010C94601670
:102900008091090190910A010C94621680912D0228
:10291000859585958595089580912D0287700895F8
:1029200090912D02977081E009F480E008959091D4
:10293000490292FB222720F9281751F080FB92F9D7
:102940009093490280914802909149020C948B1512
:1029500008958091490282FB882780F991E08927B8
:102960000C94971481E00C94971480E00C949714C5
:1029700080913902089590913902892B8093390210
:102980000895809590913902982390933902089583
:1029900010923902089590913802892B8093380261
:1029A0000895809590913802982390933802089565
:1029B00010923802089510923702089580912E02E5
:1029C000089508950C94E1149091490292FD08C075
:1029D00090912E02981721F080932E020C94E2140D
:1029E000089580912E02882329F010922E0280E013
:1029F0000C94E2140895E0910901F0910A0180918C
:102A000039028083E0910901F0910A01808190915F
:102A10003802892B8083E0910901F0910A018081BD
:102A200090913702892B808390912E02992381F017
:102A3000E0910901F0910A018081892B80838091C6
:102A4000090190910A010E94161681110E94F11449
:102A50008091090190910A010C94320B08950C9415
:102A60002E159091490292FD10C098E0899F900127
:102A70001124622B60932D020E940F1380912D026E
:102A80008595859585950C942F150C940F131092B0
:102A90002D0280E00C942F1590912D0280958923B2
:102AA00080932D02282F277039F4282F082E000C30
:102AB000330B9217130621F49091490292FF07C03D
:102AC0008595859585950E9430130C94471508953A
:102AD00080E0089590E080E00E94E81D21E08A3EB9
:102AE0009E4F09F020E0822F089582E090E00C9440
:102AF000E01D83E090E00C94E01DCF9384E090E033
:102B00000E94E01DC82F82E290E00E94E01D982FF5
:102B10008C2FCF910895CF93C92F682F84E090E038
:102B20000E94EE1D6C2F82E290E0CF910C94EE1D7E
:102B3000AB01BC018FE090E00C94001EAB01BC0126
:102B400083E190E00C94001E60E070E0CB010C94F7
:102B50009E1560E070E0CB010E9498150C94A415BE
:102B60006AEE7EEF90E080E00E940C1E60E082E062
:102B700090E00E94EE1D60E083E090E00E94EE1D78
:102B80001092290210922A0210922B0210922C020B
:102B900060E084E090E00E94EE1D60E082E290E060
:102BA0000E94EE1D60E085E090E00E94EE1D60E076
:102BB00086E090E00E94EE1D6FEF87E090E00E94BB
:102BC000EE1D40E050E0BA0188E090E00E94001E57
:102BD00060E08DE090E00E94EE1D40E050E0BA0120
:102BE00088E190E00E94001E60E087E190E00E9492
:102BF000EE1D40E050E0BA018CE190E00E94001E22
:102C000070E060E080E290E00E940C1E40E050E046
:102C1000BA0188E190E00E94001E0C94A9150C9462
:102C2000B015682F8EE090E00C94EE1D9C012E5F95
:102C30003F4FAC01485F5F4F80E02417350709F430
:102C40000895F90191919F019923B9F38F5FF5CF11
:102C5000662349F0FC01329608962191261729F047
:102C6000E817F907D1F780E0089581E008959C0105
:102C7000FC0132969FEF80E04191461751F09F3F53
:102C800019F4411101C0982F8F5F8630A9F79F3F3B
:102C900009F40895290F311D97FD3A95F9016283D2
:102CA0000895FC01329608962191261303C0DF0196
:102CB00011971C92E817F907B9F708950C94371685
:102CC0000C945116029626E0FC0111922A95E9F720
:102CD0000895089508950C946A16809156028430E0
:102CE00049F10E946B1680E00E94260510923B027B
:102CF00088E190E020E40FB6F894A89580936000F6
:102D00000FBE2093600083B7817F846083BF83B749
:102D1000816083BF7894889583B78E7F83BF0FB619
:102D2000F894A8958091600088618093600010926B
:102D300060000FBE08950895CF930E9469160E9407
:102D400081030E949B16C0E08C2F0E94AE0281116D
:102D500005C0CF5FC431C1F7CF91089581E0FCCFAA
:102D600008950C94B0160E948D0F0E94260B0E94AD
:102D700026050C94B1161F921FB61F9211248F9333
:102D80009F93AF93BF9380913B02811113C08091B9
:102D90004A0290914B02A0914C02B0914D02419693
:102DA000A11DB11D80934A0290934B02A0934C0247
:102DB000B0934D02BF91AF919F918F911F901FBE15
:102DC0001F90189582E084BD93E095BD9AEF97BD62
:102DD00080936E0008952FB7F89480914A029091E5
:102DE0004B02A0914C02B0914D022FBF08952FB716
:102DF000F89460914A0270914B0280914C0290913C
:102E00004D022FBF08959C014FB7F89480914A025C
:102E100090914B02A0914C02B0914D024FBF821B8A
:102E2000930B089578941F921FB61F9211248F93CD
:102E30009F93AF93BF9380914A0290914B02A091D0
:102E40004C02B0914D020196A11DB11D80934A0222
:102E500090934B02A0934C02B0934D02BF91AF915F
:102E60009F918F911F901FBE1F90189510924E0238
:102E700010924F0210925002109251020895CF9278
:102E8000DF92EF92FF926B017C010E944B07811150
:102E90000EC00E94F716C61AD70AE80AF90AC092AD
:102EA0004E02D0924F02E0925002F0925102FF90F7
:102EB000EF90DF90CF9008950F931F930E944B07E0
:102EC000882321F01F910F910C94F7160E94F7169A
:102ED00000914E0210914F02209150023091510208
:102EE000600F711F821F931F1F910F91089587E735
:102EF00097E7909301088093000888E19AE00FB665
:102F0000F894A895809360000FBE90936000FFCF67
:102F10009093310180933001089580914402089587
:102F200008950895CF93DF93EC0181E08093E90049
:102F30008FEF9091E800815095FD06C095ED9A9530
:102F4000F1F700008111F5CF8091E80085FF14C0F2
:102F500050E040E068E070E0CE010E9437198091B7
:102F6000E8008E778093E80088E0FE01ACE3B2E0F1
:102F700001900D928A95E1F7DF91CF910895089520
:102F800080915502811109C00E94C71A0E94241B1A
:102F90008091E20084608093E200089510925502CF
:102FA000089508950895089542E061EC81E00C943D
:102FB000431A80915802833009F45FC030F48130A5
:102FC000C1F1823009F49BC008958A3009F487C0AA
:102FD0008B3009F46DC0893009F04EC080915702E2
:102FE000813209F049C080915B0290915C02892B8B
:102FF00009F042C08091E800877F8093E8008091CB
:10300000E80082FF35C09091F3008091F2000297B2
:1030100029F48091F1008B7F813021F48091F100BF
:10302000809344028091E8008B778093E8000C94B1
:10303000771A80915702813AF9F48091E800877FEE
:103040008093E80080915B0290915C02892B61F48F
:1030500068E08CE392E070E00E9486198091E800BD
:103060008B778093E800089560E090E080E0F3CFF4
:10307000809156028111C3CF089580915702813A01
:10308000D9F780915B0290915C02892BA9F780911E
:10309000E800877F8093E8008091E80080FFFCCF04
:1030A000809115018093F1008091E8008E77BDCF6B
:1030B00080915702813201F780915B0290915C020E
:1030C000892BD1F68091E800877F8093E8000E94E9
:1030D000771A80915902809315010C948D0F80917D
:1030E0005702813249F68091E800877F8093E8009B
:1030F0000E94771A80915A02809345020895809128
:103100005702813A09F0B8CF8091E800877F809319
:10311000E8008091E80080FFFCCF80914502C2CF9B
:1031200084B7877F84BF0FB6F894A895809160001C
:10313000886180936000109260000FBE80E890E08C
:103140000FB6F89480936100909361000FBE0E94C7
:103150008A0B0E94C71A0E94241B8091E20084609F
:103160008093E20078940E94AD1D0E949C0B8BE03E
:1031700091E00E94210B80915602853099F00E94C7
:10318000A40B0E94980BF7CF0E946D1680915402F9
:10319000882341F00E949C16882321F00E94211967
:1031A0000E948D0F80915602853071F30E94B316F4
:1031B000E6CF0C94DB18292F332723303105C9F0D3
:1031C00058F42130310599F122303105A9F190E010
:1031D00080E030E020E01DC02132310509F12232CB
:1031E0003105A9F780E490E022E234E0672B79F71B
:1031F00010C099278130910581F0009729F002973E
:1032000031F7ECECF3E002C0EAEEF3E0849190E0F9
:103210009F01FA01318320830895E2EEF3E0F6CFB7
:1032200089E090E020E034E0672B89F6F2CF82E17C
:1032300090E020E134E0EDCF82E290E02EEE33E04A
:10324000E8CF80E189BD82E189BD09B400FEFDCFF0
:103250008091D8008F7D8093D8008091E0008260BB
:103260008093E0008091E00081FDFCCF0895AF9253
:10327000BF92CF92DF92FF920F931F93CF93DF9372
:103280006C01EB018A010E94961AF82E811123C06D
:103290000115110539F0F80180819181C81BD90B06
:1032A000C80ED91EB12CA12C2097A9F08091E8005E
:1032B00085FD22C08091E8008E778093E80001159B
:1032C0001105A1F0F80180819181A80EB91EB1828B
:1032D000A08285E0F82E8F2DDF91CF911F910F9165
:1032E000FF90DF90CF90BF90AF9008950E94961A04
:1032F0008823D1F2F82EEFCFF60181916F018093F0
:10330000F1002197FFEFAF1ABF0ACECFFC018091E9
:103310005D0290915E0286179707A0F06115710516
:1033200029F49091E8009E779093E80090E0611571
:10333000710551F4911108C08091E80082FF34C0FA
:1033400080E00895BC01F2CF809156028823C1F13C
:103350008530C1F18091E80083FD30C08091E800A4
:1033600082FDEACF8091E80080FFE1CF8091F300F9
:103370002091F200382F6115710519F028303105C0
:1033800058F091E02830310509F090E02091E800F4
:103390002E772093E800CBCF81918093F10061508C
:1033A00071092F5F3F4FE7CF80915602882341F08C
:1033B000853041F08091E80083FFBECF81E0089521
:1033C00082E0089583E00895FC0180915D02909170
:1033D0005E0286179707A0F06115710529F48091A8
:1033E000E8008E778093E80090E06115710551F454
:1033F000911108C08091E80082FF35C080E00895F7
:10340000BC01F2CF809156028823C9F18530C9F101
:103410008091E80083FD31C08091E80082FDEACF11
:103420008091E80080FFE1CF8091F3002091F200CD
:10343000382F6115710519F02830310558F091E0E9
:103440002830310509F090E08091E8008E77809374
:10345000E800CBCF84918093F100319661507109DF
:103460002F5F3F4FE6CF80915602882341F0853091
:1034700041F08091E80083FFBDCF81E0089582E0B4
:10348000089583E00895982F973028F08F708093E7
:10349000E90081E008959093E900242F762F50E011
:1034A000981731F07091EC002091ED005091F000F0
:1034B00021FD02C09F5FE8CF3091EB003E7F30934B
:1034C000EB003091ED003D7F3093ED003091EB004B
:1034D00031603093EB007093EC002093ED0050933B
:1034E000F0002091EE0027FDE5CF80E00895809167
:1034F000570287FF13C08091E80082FF06C08091C9
:10350000E8008B778093E80004C080915602811117
:10351000F2CF0895809156028823D9F38091E80074
:1035200080FFF8CF8091E8008E77ECCF2091E40007
:103530003091E50095E6A9012091EC00822F817081
:1035400020FF06C08091E80080FF06C080E008955B
:103550002091E80022FD1AC080915602882389F04C
:10356000853089F08091EB0085FD0FC02091E4004B
:103570003091E50042175307F9F29150E1F684E0EB
:10358000089582E0089583E0089581E008950E94FF
:10359000351B0E943D1BE0EEF0E08081816080835E
:1035A000E8EDF0E080818F77808319BCA7EDB0E073
:1035B0008C918E7F8C9380818F7E808310925502B8
:1035C00008950F931F93CF93DF930E94351B0E94A2
:1035D0003D1BC8EDD0E088818F7788838881806823
:1035E000888388818F7D888319BC1092560210923F
:1035F0005202109254021092530200EE10E0F801B1
:1036000080818B7F808388818160888342E060E055
:1036100080E00E94431AE1EEF0E080818E7F80839B
:10362000E2EEF0E080818160808380818860808329
:10363000F80180818E7F8083888180618883DF911B
:10364000CF911F910F910895E8EDF0E080818F7E7A
:103650008083E7EDF0E080818160808384E082BF39
:1036600081E0809355020C94E11AE8EDF0E080814E
:103670008E7F80831092E20008951092DA001092FB
:10368000E10008951F920F920FB60F9211242F930D
:103690003F934F935F936F937F938F939F93AF93DA
:1036A000BF93EF93FF938091E10082FF0BC0809165
:1036B000E20082FF07C08091E1008B7F8093E100F0
:1036C0000E94AC1D8091DA0080FF19C08091D80063
:1036D00080FF15C08091DA008E7F8093DA008091A0
:1036E000D90080FF96C080E189BD82E189BD09B41F
:1036F00000FEFDCF81E0809356020E94C0178091AA
:10370000E10080FF19C08091E20080FF15C0809128
:10371000E2008E7F8093E2008091E20080618093DE
:10372000E2008091D80080628093D80019BC85E0C7
:10373000809356020E94D2178091E10084FF2BC033
:103740008091E20084FF27C080E189BD82E189BDCC
:1037500089B5982F917080FFFBCF8091D8008F7D25
:103760008093D8008091E1008F7E8093E10080916A
:10377000E2008F7E8093E2008091E200816080937E
:10378000E20080915202882309F449C084E08093CA
:1037900056020E94D3178091E10083FF29C08091D7
:1037A000E20083FF25C08091E100877F8093E100E4
:1037B00082E080935602109252028091E1008E7F47
:1037C0008093E1008091E2008E7F8093E2008091FF
:1037D000E20080618093E20042E060E080E00E94CD
:1037E000431A8091F00088608093F0000E94D11706
:1037F000FF91EF91BF91AF919F918F917F916F91C9
:103800005F914F913F912F910F900FBE0F901F909E
:10381000189519BC109256020E94CE1770CF809155
:10382000E30087FD93E090935602B3CF1F920F926F
:103830000FB60F9211242F933F934F935F936F9383
:103840007F938F939F93AF93BF93CF93DF93EF9328
:10385000FF93D091E900DF708091EC00C82FC17018
:1038600080FDC0E81092E9008091F000877F80938E
:10387000F00078940E945A1C1092E9008091F000A8
:1038800088608093F000CD2BCF70C093E900FF914A
:10389000EF91DF91CF91BF91AF919F918F917F91E8
:1038A0006F915F914F913F912F910F900FBE0F90AD
:1038B0001F9018951F93CF93DF93CDB7DEB7AA97CC
:1038C0000FB6F894DEBF0FBECDBF87E592E0209122
:1038D000F100FC012193CF01F2E08F359F07B9F78A
:1038E0000E94D9178091E80083FF1EC18091570282
:1038F000909158029A3008F017C1E92FF0E0E25C8D
:10390000F14E0C94DA1D803899F0823809F00CC120
:1039100080915B028F70873008F006C18093E900C8
:103920008091EB0085FB882780F91092E90006C0A2
:103930008091530290915402911182609091E8001D
:10394000977F9093E8008093F1001092F1008091AE
:10395000E8008E77E5C0882309F4D3C0823009F0EF
:10396000E3C0809159028111D6C080915B028F70B3
:103970002FEF280F263008F0D7C08093E900209160
:10398000EB0020FFC8C0933031F48091EB008062DF
:103990008093EB00C0C09091EB0090619093EB009E
:1039A00021E030E001C0220F8A95EAF72093EA0077
:1039B0001092EA008091EB008860EACF8111B4C0D8
:1039C000109159021F778091E3008078812B8093BA
:1039D000E3008091E800877F8093E8000E94771AD7
:1039E0008091E80080FFFCCF8091E30080688093A5
:1039F000E30082E0111183E08093560295C0805865
:103A0000823008F091C08091590290915A028C3D09
:103A100023E09207A1F583E08A838AE289834FB786
:103A2000F894DE01139620E03EE051E2E32FF0E04F
:103A300050935700E49120FF03C0E295EF703F5F81
:103A4000EF708E2F90E0EA30C0F0C7968D939D9373
:103A50002F5F243159F74FBF8091E800877F809313
:103A6000E8006AE270E0CE0101960E94861980911A
:103A7000E8008B778093E80057C0C096E7CF60914D
:103A80005B0270915C02AE014F5F5F4F0E94D918DC
:103A9000BC01892B09F448C09091E800977F90936E
:103AA000E80089819A810E94E419E1CF8038E1F52C
:103AB0008091E800877F8093E80080915202809394
:103AC000F10045CF811130C090915902923060F5DC
:103AD0008091E800877F8093E800909352020E94D3
:103AE000771A80915202882311F084E005C08091FA
:103AF000E30087FDFACF81E0809356020E94D4173D
:103B000013C080915902813079F481E0933009F03B
:103B100080E0809354021092E9008091E800877F52
:103B20008093E8000E94771A8091E80083FF0AC022
:103B30008091E800877F8093E8008091EB008062AD
:103B40008093EB00AA960FB6F894DEBF0FBECDBFF0
:103B5000DF91CF911F9108950895CF9380915602E0
:103B60008823A1F0C091E900CF709091EC00892FDB
:103B7000817090FD80E8C82B1092E9008091E800E8
:103B800083FD0E945A1CCF70C093E900CF91089525
:103B90000E94C71A109256020895E8EDF0E0808165
:103BA000806180838AE18A95F1F700C08091D90015
:103BB00081700895EE0FFF1F0590F491E02D099498
:103BC000F999FECF92BD81BDF89A992780B50895E5
:103BD000A8E1B0E042E050E00C94141E262FF999C1
:103BE000FECF92BD81BDF89A019700B4021639F05C
:103BF0001FBA20BD0FB6F894FA9AF99A0FBE08952D
:103C00000396272F0E94EF1D0E94EE1D252F0E9474
:103C1000EF1D242F0C94EF1D0196272F0E94EF1DFE
:103C20000C94EE1DDC01CB01FC01F999FECF06C01E
:103C3000F2BDE1BDF89A319600B40D92415050406A
:103C4000B8F70895F894FFCF990D990DF10DF10D86
:103C5000C60DC60DC60DC60D430ECF0EDE0EDE0E12
:103C60009C0F9C0FA50FA50FA70FA50FA50FA50FC4
:103C70009C0F9C0FAC0FA50FA50FAC0F831CAB1CAA
:103C8000941DAB1C941DDE1CFF1C941D561D621D53
:103C90000177010478010A7C012F028D1792179099
:103CA000179117BF170134C6663632F5F6F7973508
:103CB000F5F6F79735000000000000000000000056
:00000001FF
