:100000000C94AA020C94F1020C94F1020C94D11AF3
:100010000C94F1020C94F1020C94F1020C94F10294
:100020000C94F1020C94F1020C949C220C94702319
:100030000C94521D0C94F1020C94F1020C94F102F8
:100040000C94F1020C94F1020C94F1020C94F10264
:100050000C94F1020C94C51D0C94F1020C94F10265
:100060000C94F1020C94F1020C94F1020C94F10244
:100070000C94F1020C94F1020C94F1020C94F10234
:100080000C94F1020C94F1020C94F1020C94F10224
:100090000C94F1020C94F1020C94F1020C94F10214
:1000A0000C94F1020C94F1020C94F1021F00200058
:1000B0002100220001001A000800150017000100AD
:1000C0001600070009000A0001001B0006001900C5
:1000D00005000100E2008B002C002C00115F1E00C7
:1000E000350000000000000014002B00000000009C
:1000F0000000040039000000000000001D00E100C5
:10010000000000000000E300E0000000000000002C
:1001100027002600250024002300130012000C00F5
:1001200018001C0033000F000E000D000B003800FB
:100130003700360010001100650088008A002C008E
:10014000105F2D002E008900000000002F003000FD
:100150002A000000000034003200280000000000E7
:1001600087005200E50000000000500051004F00E1
:1001700000000000010001000100010001001F005B
:100180002000210022000100010001000100010007
:100190000100010001000100010001000100010057
:1001A000010001000100010001000000000000004A
:1001B0001E0001000000000000000100010000001E
:1001C000000000000100010000000000000001002C
:1001D000010000000000000001000100010001001A
:1001E0000100270026002500240023000100010053
:1001F00001000100010001000100010001000100F7
:1002000001000100010001000100010001000100E6
:1002100000000000010001000100000000000100DA
:1002200001000100000000000100010001000000C9
:1002300000000100010001000000000001000100B9
:1002400001000100C25C0100010001000100C95C65
:100250000100010001000100C55C01000100010076
:100260000100C75C01000100010001000100010064
:10027000010000000000000001000100000000007B
:10028000000001000100000000000000010001006A
:10029000000000000000010001000000000000005C
:1002A0000100010001000100010001000100010046
:1002B0000100010001000100010001000100010036
:1002C0000100010001000100010001000100010026
:1002D0000100010001000100000000000100010018
:1002E000010000000000010001000100000000000A
:1002F00001000100010000000000010001000100F8
:1003000000000000010001000100010001000100E7
:1003100001000100010001000100010001000100D5
:1003200001000100010001000100010001000100C5
:1003300001000100010001000100000000000000B8
:1003400001000100000000000000010001000000A9
:10035000000000000100010000000000000001009A
:100360000100000000000000010001000100010088
:100370000100010001000100010001000100010075
:100380000100010001000100010001000100010065
:100390000100010001000100010001000100010055
:1003A0000000000001000100010000000000010049
:1003B0000100010000000000010001000100000038
:1003C000000001000100010000000000000000002A
:1003D000000000002A2B28000000000000000000A0
:1003E0000000000000000029000000002C1E342046
:1003F000212224342627252E362D3738271E1F206C
:100400002122232425263333362E37381F040506B0
:100410000708090A0B0C0D0E0F10111213141516F4
:100420001718191A1B1C1D2F3130232D35040506F2
:100430000708090A0B0C0D0E0F10111213141516D4
:100440001718191A1B1C1D2F3130354C00000000E5
:10045000000000000000000000000000000000009C
:10046000000000000000000000000000000000008C
:100470007E0F00D4FFFFFFC7000000781403680060
:1004800061006C00660063006C0069006600660035
:10049000000006036E003200000004030904090294
:1004A0004200020100A0FA0904000001030101005A
:1004B0000921110100012240000705810308000AFB
:1004C00009040100020300000009211101000122BA
:1004D0002200070582032000010705030320000115
:1004E0001201000200000008350321000100010292
:1004F00000010660FF0961A1010962150026FF00E5
:100500009520750881020963150026FF0095207566
:10051000089102C005010906A101050719E029E7B4
:100520001500250195087501810295017508810165
:100530000507190029FF150026FF0095067508819B
:1005400000050819012905950575019102950175A8
:10055000039101C011241FBECFEFDAE0DEBFCDBF93
:1005600004B603FE27C08091730290917402A0919B
:100570007502B09176028730904BA740B04BD1F412
:100580001092730210927402109275021092760209
:1005900014BE84B7877F84BF0FB6F894A895809166
:1005A0006000886180936000109260000FBEE0E000
:1005B000F8E3099511E0A0E0B1E0EAE8FBE402C04D
:1005C00005900D92AC34B107D9F722E0ACE4B1E06C
:1005D00001C01D92A337B207E1F70E941A150C94CF
:1005E0008C250C940000F894E82FE295EF70F0E071
:1005F00031A1282F2F7081E090E001C0880F2A954B
:10060000EAF7382B31A392A18095892382A37894AD
:100610000895F894E82FE295EF70F0E031A1282FCB
:100620002F7081E090E001C0880F2A95EAF7982F9B
:100630009095932391A392A1892B82A378940895F6
:1006400008950C94200308950C9423030895E82F33
:10065000F0E0ED59FE4F8081089508950F931F93A8
:10066000CF93DF930E942F138091040180910401A6
:100670009AE0811190E090935A028AE0891B80935E
:100680005902C5E3D1E08E01F80181918F010E94EA
:100690000903F1E00F331F07B9F784E30E94090350
:1006A00086EC0E94090386E60E94090386E30E9405
:1006B000090382E30E94090384E30E94090386EC94
:1006C0000E94090386E60E94090386E30E9409034B
:1006D00082E30E94090389910E94090381E0CF33DC
:1006E000D807C9F7E7E7F1E0A3E6B1E011921D9260
:1006F00081E0EB38F807D1F78AE00E94DE120E9411
:100700005805DF91CF911F910F910C943913FF92EF
:100710000F931F93CF93DF93CDB7DEB72A970FB612
:10072000F894DEBF0FBECDBF0E941513F82E609166
:100730005A02882309F451C08E010F5F1F4F8AE0CF
:10074000F80111928A95E9F7862F90E0B8018D594A
:100750009E4F0E949C13811123C0809162018F5F84
:10076000809362018630B8F1E0915902F0E0ED59D2
:10077000FE4FD801CE010B9611921D92A817B90712
:10078000D9F70E945E058F2D2A960FB6F894DEBF2A
:100790000FBECDBFDF91CF911F910F91FF900895B4
:1007A00010926201A0915902B0E0AD59BE4F9E0176
:1007B000255F3F4FF12C4D91F80191918F01491721
:1007C00031F0AD0141505109FA019083F82E021722
:1007D000130789F7D6CFF12CD4CF70E06D597E4F37
:1007E0008091590290E08D599E4F0E949E130E9465
:1007F0002603C9CF6F927F929F92AF92BF92CF9202
:10080000DF92EF92FF920F931F93CF93DF9307E74F
:1008100011E045E3C42E41E0D42EC0E0D1E0D60182
:10082000AD906D018A2D0E94F302B0EABA95F1F7FE
:1008300030E3E32E31E0F32EF70130E020E0B12C7D
:100840004191A42FA295AF70B0E090968C9190E06A
:100850004F7002C0959587954A95E2F780FD94C048
:100860008D2F022E01C0880F0A94EAF7B82A2F5F55
:100870003F4F2530310521F78A2D0E940903E0EA18
:10088000EA95F1F7D8018C91B81609F47FC0BC92B3
:1008900081E0C82B0F5F1F4FBAE3CB16B1E0DB0638
:1008A00009F0BDCF10E000E0AA24A394B12C28E504
:1008B000C22E21E0D22EF70191907F01892D0E9456
:1008C000F302F0EAFA95F1F7C501002E01C0880F96
:1008D0000A94EAF7782F682F6095EEE4F1E085E35B
:1008E000682E81E0782ED0E03191D3012D913D0129
:1008F000422F42954F7050E0DA0190968C9190E033
:100900002F7002C0959587952A95E2F780FD40C02B
:10091000872F832B381731F09F0121503109D901DE
:100920008C93D1E0CE16DF06F9F6892D0E940903DB
:10093000043019F0B0EABA95F1F7CD2B61F50F5FED
:100940001F4F0530110509F0B6CF60915A0270E0D3
:100950006D597E4F2C2F4AE087E791E00E94DF120D
:100960000E948703C11101C0C82F8C2FDF91CF9146
:100970001F910F91FF90EF90DF90CF90BF90AF90BD
:100980009F907F906F90089580E070CF80E081CF3E
:10099000862F8323BFCF8091530180937C01809168
:1009A000540180937D018091550180937E01809157
:1009B000560180937F018091570180938001BFCFC2
:1009C00081E0089581E008950C94E20408950C9468
:1009D000E6041F93CF93DF9300D000D00F92CDB7E2
:1009E000DEB749835A836B8330918B0189819A8169
:1009F00031111DC06623B9F02223A9F00E940D0B0E
:100A0000182F682F89819A810E94B60A69817A819C
:100A1000812F0F900F900F900F900F90DF91CF913B
:100A20001F910C9478180E94E40A182FEFCF0E94AF
:100A30000D0B69817A81EDCFFC01262F4081518118
:100A40006281738184810C94E90481E00895CF93DD
:100A5000DF93EC0160E00E941C05BE01DF91CF91A5
:100A60000C94E704E1E0F0E0DF0102C0AA0FBB1F35
:100A70006A95E2F7BD01DF0102C0AA0FBB1F4A95CC
:100A8000E2F76A2B01C0EE0F2A95EAF7962F98231A
:100A9000961302C08E2B0895E0958E230895242F7F
:100AA000462F682F8091B3010E9432050C94730A7F
:100AB0000E94C4120E94AC060C9421030C942403DF
:100AC00080E00C94AD06089508950E940B0A0E94E0
:100AD00064052FEF84E39CE0215080409040E1F7D3
:100AE00000C000000C94E91D0F931F93CF93DF9378
:100AF0008C0161E00E941C05EC01B8010E947E158A
:100B00008823D9F1B801CE010E94E4048823A9F119
:100B1000B801CE010E94D719882379F1B801CE011E
:100B20000E948616882349F1B801CE010E9441191E
:100B3000882319F1F8018281882361F0CA35FDE527
:100B4000DF0721F170F4C115ECE5DE07A1F0CE3D21
:100B5000DC45C9F0C801DF91CF911F910F910C9432
:100B6000E004CB358DE5D807A1F0CC35DD4591F714
:100B70000E94200FEFCF0E94650580E0DF91CF91AA
:100B80001F910F9108950E94D90FF7CF0E94290F4E
:100B9000E1CF0E942C0FDECF0C9463050E94551C00
:100BA0000E94AD060C94CC05DF92EF92FF920F935A
:100BB0001F93CF93DF93E82FF0E0E453FC4FD490E2
:100BC000282F26952695269530E0F901E459FB4F0C
:100BD0000491877010E0082E02C0159507950A94BD
:100BE000E2F701701127F901E45AFB4FE490F12C70
:100BF000082E02C0F594E7940A94E2F791E0E92206
:100C0000FF24F901E45BFB4FC491D0E002C0D5950D
:100C1000C7958A95E2F7C170DD270115110519F016
:100C200081EE0E94F806E114F10419F086EE0E94AC
:100C3000F8068D2D0E94CE07EF2819F086EE0E944F
:100C40006807012B19F081EE0E946807CD2B51F047
:100C50008CE2DF91CF911F910F91FF90EF90DF9089
:100C60000C94CE07DF91CF911F910F91FF90EF90E1
:100C7000DF900895EF92FF920F931F93CF93DF932E
:100C8000EC01162F0AE08881882309F454C08130D2
:100C900009F04EC08981813099F47E0122E0E20E94
:100CA000F11C8A810E94CE07E7012196812F815095
:100CB00050F3EFE9FFE03197F1F700C00000F7CF04
:100CC000823041F47E0182E0E80EF11C8A810E94AC
:100CD000F806EACF833041F47E01E2E0EE0EF11C2B
:100CE0008A810E946807E0CF843011F02196DDCF21
:100CF0002A81229690E080E0AE014F5F5F4F205343
:100D0000330B2A30310548F0019778F2EFE9FFE024
:100D10003197F1F700C00000F7CF089FB001099F9D
:100D2000700D1124C901860F971F2981EA01E4CFB4
:100D30000E94D405BACFDF91CF911F910F91FF9000
:100D4000EF90089560E00C943A0608950C94A5067F
:100D500081E008950C94A8060895CF93C82F0E94AF
:100D6000A6068C2FCF910C94AA06CF93DF93CDB714
:100D7000DEB72B970FB6F894DEBF0FBECDBF4F8303
:100D8000588769877A878B8761110E947B0E1E8244
:100D90001D8285E0FE013796DE01119601900D92CD
:100DA0008A95E1F78C819D81892B89F449815A814B
:100DB0006B817C818D819E810E949C0D2B960FB64C
:100DC000F894DEBF0FBECDBFDF91CF91089589812A
:100DD0009A8189238F3F51F3CE0101960E94250508
:100DE0008111E4CFEBCFFC01808191810C943A0B0F
:100DF000CF93C82F882309F469C08238C1F40E94B8
:100E0000551C81FD63C089E30E94360E0E949E0E30
:100E10002FEF81EE94E0215080409040E1F700C038
:100E2000000089E30E943D0ECF910C949E0E833802
:100E3000A1F40E94551C80FD49C083E50E94360E36
:100E40000E949E0E2FEF81EE94E021508040904052
:100E5000E1F700C0000083E5E5CF8438A1F40E94EB
:100E6000551C82FD33C087E40E94360E0E949E0E00
:100E70002FEF81EE94E0215080409040E1F700C0D8
:100E8000000087E4CFCF8CEF8C0F813A90F46C2F69
:100E900080910201909103010E94B11C882329F0E6
:100EA0008C2F0E943D0E0E949E0E8C2F0E94360EAB
:100EB000BBCF80E28C0F883048F4C77081E001C05E
:100EC000880FCA95EAF70E945E0EAECFCF910895C3
:100ED000882309F44BC0823871F40E94551C81FFAD
:100EE00045C089E30E94360E0E949E0E89E30E944F
:100EF0003D0E0C949E0E833859F40E94551C80FFC1
:100F000035C083E50E94360E0E949E0E83E5EFCF2A
:100F1000843859F40E94551C82FF28C087E40E943F
:100F2000360E0E949E0E87E4E2CF9CEF980F913A16
:100F3000F0F290E2980F983050F4877091E001C081
:100F4000990F8A95EAF7892F0E94640ED2CF9BE50C
:100F5000980F933020F490E080E00C94731C885A32
:100F6000873120F490E080E00C94891C08951F9351
:100F7000CF93DF93182FEB010E94F806209731F4EE
:100F8000812FDF91CF911F910C9468078FE99FE02B
:100F90000197F1F700C000002197F0CF70E060E00A
:100FA000893311F460E570E00C94B707882321F0D1
:100FB0000E945E0E0C949E0E0895882321F00E94DC
:100FC000640E0C949E0E0895BF92CF92DF92EF9222
:100FD000FF920F931F93CF93DF936C01D62FC72FF0
:100FE000FC011281F580F2949FE0F9220E94540ED8
:100FF000E82E8823B9F0E12E1123A1F08C2F807FF9
:10100000803421F080E28D0F8830D0F08091600232
:1010100082FD16C082E00E94EF0E0E94540E91E005
:10102000E82EE926BC2EB2948FE0B822FBE0FB1537
:1010300008F468C0EB2DF0E0E257FA4D0C9434252B
:10104000E12CF0CF0C2F0F70C07F11F00295007FC4
:10105000112399F0002359F080E28D0F883010F0B1
:10106000D11107C0802F0E945E0E0E949E0E8D2F10
:1010700041C0802F0E946E0EF8CF8D2F0E9468070E
:10108000002309F43FC080E28D0F883010F0D111A9
:1010900004C0802F0E94640E03C0802F0E94740E33
:1010A0000E949E0E2FC00C2F0F70C07FC03211F017
:1010B0000295007FDD2381F0D13009F469C011234E
:1010C00009F473C0FF2009F469C0F601858180FF2F
:1010D000CECF8F70858362C08091600282FF38C05E
:1010E000112359F0002329F0802F0E945E0E0E94E8
:1010F0009E0E80E00E94F80605C080E00E9468070E
:101100000111C7CFEB2DE850FF0B349720F40E945C
:10111000551C0E94AD06EE2009F426C10E94500E17
:1011200080FD22C1F60112820E944A0E0E94840AAA
:10113000C6010E94D5090E944A0EDF91CF911F91EE
:101140000F91FF90EF90DF90CF90BF900C948F0A9B
:10115000112389F0F11006C00E94810E802B0E949D
:10116000D607D0CF21E0F212F7CF0E94810E802B5C
:101170000E94870EC7CFF11006C00E94940E802FE8
:101180000E94DD07BFCF31E0F31609F4BBCFF5CFE6
:10119000112331F085E08F1508F4B4CF802FDFCF15
:1011A00094E09F1508F4AECFEACFFF2041F3D93386
:1011B00049F4FFEF27EE33E0F15020403040E1F7F3
:1011C00000C000008D2F0E9468079CCF8C2F837079
:1011D00079F5111197CF4D2F429546954770440FE1
:1011E000440F8D2F8F70042E01C0880F0A94EAF7E8
:1011F0002D2F2071D4FF07C02FE030E001C0220F57
:101200004A95EAF72095C695C695C370822BC230E1
:1012100049F058F4C13019F00E94650A73CF0E945A
:10122000600A70CF0E946A0A6DCF0E945E0A6ACF80
:101230008695112311F08C2F8170882309F462CFD9
:101240004D2F429546954770440F440F8D2F8F7058
:10125000042E01C0880F0A94EAF72D2F2071D4FFC5
:1012600007C02FE030E001C0220F4A95EAF7209531
:10127000C695C695C370822BC23049F058F4C13070
:1012800019F00E94AB0A3ECF0E94A60A3BCF0E94F3
:10129000B00A38CF0E94730A35CFCF70112329F0DE
:1012A0008C2F0E94840A8D2F5ACF8D2F0E94DD072C
:1012B0008C2F0E948F0A26CFD23F51F160F4D03F8D
:1012C000B9F0D13F81F0112309F449C0F110CFCE1C
:1012D0008C2F8F7121C0D33F11F1D43FA1F78091A2
:1012E000600282FF26C08C2F8F71112311F314C06E
:1012F000112349F084E08F1508F404CF8C2F8F71EF
:101300000E949B0AFFCE95E09F1508F4FBCEF6CF16
:101310008C2F8F711111CDCF0E94840AF3CE11232F
:1013200029F08C2F8F710E947C0AECCE0E94790AE2
:10133000E9CE112349F0CF718C2F0E94840A63E01B
:101340008C2F0E94D40EDECE81E00E94EF0EE1E0F1
:10135000EF1508F0D7CE82E00E94EF0ED3CEF11049
:1013600026CF8C2F8F71A5CFDF91CF911F910F9139
:10137000FF90EF90DF90CF90BF9008950F931F9351
:10138000CF93DF93EC01688179818A810E94440BBD
:101390008C010E94B50A0E945D0AB801CE01DF915E
:1013A000CF911F910F910C94E407CF93DF93EC0141
:1013B0008B819C81892B29F08881998189238F3F9A
:1013C00059F4DF91CF910895CE010E94BE09CE015C
:1013D000DF91CF910C942705CE010E9474058111F5
:1013E000F3CF0E94540E882361F38A81882349F346
:1013F0008091600282FDE5CF82E0DF91CF910C9475
:10140000EF0E0E947B0E0E947E0E0C949E0E0E9498
:10141000440E0C94010A0E946B0E0C94070AE92FEB
:10142000E295EF70E250EE3070F4F0E0E656FA4DDF
:101430000C943425803F19F020F4883E20F481E09C
:101440000895843FE1F380E00895883EC0F3813F32
:10145000D1F7F5CF93FB882780F90895FC018081AF
:1014600091810E943A0B0C940F0ACF93DF9300D026
:1014700000D00F92CDB7DEB70F900F900F900F9066
:101480000F90DF91CF910895CF93DF9300D000D0DC
:1014900000D0CDB7DEB726960FB6F894DEBF0FBEEC
:1014A000CDBFDF91CF91089508950C94540A0E9406
:1014B000550A8093B4010C94010A08950C94570ABC
:1014C0009091B401892B0C94570A9091B40189230F
:1014D0000C94570A9091B40189270C94570A0C94E4
:1014E000540A0C946F0A0E94710A8093B3010C9401
:1014F000010A80E00C94730A91E001C0990F8A956B
:10150000EAF7892F0C94730A21E030E001C0220F22
:101510008A95EAF78091B301822B0C94730A21E03B
:1015200030E001C0220F8A95EAF720958091B3013F
:1015300082230C94730A21E030E001C0220F8A95C7
:10154000EAF78091B30182270C94730A9091B3015A
:10155000892B0C94730A9091B30189230C94730A1C
:101560009091B30189270C94730A0895E92FEE0F27
:10157000EE0F9E0F890F982F977041E001C0440F26
:101580009A95EAF786958695869593E0899FF0016E
:101590001124E457FE4F30E020E070E05191DF016C
:1015A0001197CB01022E02C0969587950A94E2F717
:1015B000817081958527842385278C932F5F3F4FEA
:1015C0002330310559F70895E92FEE0FEE0F9E0FE6
:1015D000890F982F977086958695869523E0829F30
:1015E000F0011124E457FE4F50E040E080E02191EB
:1015F00030E0092E02C0369527950A94E2F7217053
:101600003327042E01C0220F0A94EAF7822B4F5F82
:101610005F4F4330510559F70895CF92DF92FF9203
:101620000F931F93CF93DF936C010091B3018091CF
:10163000B401082BC7E0D0E010E0FC2EC8010C2E4E
:1016400002C0959587950A94E2F780FD0CC021971A
:10165000A0F7F12C8F2DDF91CF911F910F91FF906B
:10166000DF90CF900895B6018C2F0E948B110197C7
:1016700071F3F0CFCF93DF93EC010E940D0BBE010D
:10168000DF91CF910C948B111F93CF93DF93EB01DC
:1016900090918B01992331F0CB01DF91CF911F9174
:1016A0000C943A0B882379F0CB010E940D0B182F74
:1016B000682FCE010E94B60ABE01812FDF91CF9123
:1016C0001F910C948B11CB010E94E40A182FF4CFC8
:1016D0001F93CF93DF93C091B50116E08091B601BF
:1016E0008C1304C0DF91CF911F910895D0E01C9F0F
:1016F000F0011D9FF00D1124E954FE4F40815181EE
:1017000062817381848195810E94440A2196C77009
:10171000E5CF4091E7015091E8016091E9017091B6
:10172000EA018091EB019091EC010C94440AFF9244
:101730000F931F93CF93DF938091EC01807FD1F4BF
:101740008091E9018823B1F08091B5011091B60133
:101750006091E7017091E801A091EA01B091EB017D
:10176000062F0723C0910001D091010196E0F92EC8
:10177000181306C0DF91CF911F910F91FF9008952C
:1017800090E0109711F00F3F19F401968770F0CF99
:10179000F89E9001F99E300D1124F901E954FE4F95
:1017A00041814713F2CF40814613EFCF428141116F
:1017B000ECCF438154814A1B5B0B4C175D0728F724
:1017C0008091EC018F7080618093EC01F901E45409
:1017D000FE4F80818F708061808387EE91E00E9450
:1017E000D509DF91CF911F910F91FF900C94680B59
:1017F000AF92BF92CF92DF92EF92FF920F931F931F
:10180000CF93DF93CDB7DEB761970FB6F894DEBF05
:101810000FBECDBF8C0185E0F801DE011D96019061
:101820000D928A95E1F7F801E28087EEC82E81E0FB
:10183000D82E6091EA017091EB016115710509F4F0
:101840005FC19091E7012091E801892F82238F3FAA
:1018500009F456C140815181A380B480F090E90120
:10186000F501E61BF70BBF01E0910001F0910101CA
:10187000FF2009F4F6C08091EC01382F307F6E17FD
:101880007F0708F0AFC0311179C0FE2C251323C0AB
:10189000941321C0E1101FC08F7080618093EC0110
:1018A0000E94890BC6010E94D5098091EC01F801C4
:1018B00085838F2D61960FB6F894DEBF0FBECDBF26
:1018C000DF91CF911F910F91FF90EF90DF90CF901C
:1018D000BF90AF900895AB2829F0842F85238F3FC8
:1018E00009F027C180E0F82FF170DF2E80FF3CC0A7
:1018F0008091B5012091B60136E0821315C04D8765
:101900005E878D859E850E943A0B292F22952F7028
:101910002230F0F0243018F59F70F1F0F801958135
:10192000907FD1F4D12C1EC090E0389FF001399FF8
:10193000F00D1124E954FE4F6181651306C06081EA
:10194000641303C062816E110FC001968770D5CFFA
:101950009F7011F0882331F3805E883018F3C8013E
:101960000E94D509FD2CA5CFEE2009F4A2CF8091CD
:10197000EC0181608093EC01F12C9BCF251306C014
:10198000941304C0F801EE2009F487C0C8010E9436
:101990002E0A882319F1EE2009F18091EC018032A2
:1019A00070F02091E7013091E80138872F83198684
:1019B000BB86AA868C87CE0107960E94D50986E051
:1019C000F801A7EEB1E001900D928A95E1F70E942F
:1019D000970B0E94890BFF24F3946BCFC8010E94E0
:1019E000D509F9CF311113C07A2DB98AA88A6E2D85
:1019F00089890E94350A87EE91E00E94D50986E028
:101A0000F60111928A95E9F70E94890BB5CF25134B
:101A10000FC094130DC0E1100BC0F8018583C801FD
:101A20000E94D50986E0F60111928A95E9F741CF27
:101A3000C8010E942E0A882389F2EE2079F2809153
:101A4000EC01803208F4BBCF2091E7013091E8012E
:101A50003A8329831B82BD82AC828E83CE0101969C
:101A6000ACCF6E177F0708F03EC0FE2CEE2009F4C5
:101A7000B5CF25132AC0941328C08091EC0180FDB6
:101A80001BC0982F907FC1F0F8018583903F31F003
:101A9000982F907F905F8F70892B8583C8010E945B
:101AA000D50986E0F801A7EEB1E001900D928A9584
:101AB000E1F70E94890BFDCE86E0F801A7EEB1E0C8
:101AC00001900D928A95E1F7F4CEC8010E942E0A8A
:101AD000811175CF8091EC0181608093EC01C80188
:101AE0000E94D509E6CE7A2DB98AA88A6E2D8989F9
:101AF0000E94350A86E0F60111928A95E9F7D9CF5E
:101B0000EE2009F46BCFC8010E942E0AF82E88231C
:101B100009F464CF86E0F801A7EEB1E001900D92E0
:101B20008A95E1F787EE91E00E94F3060E94970BF9
:101B3000C0CF81E08E25D7CE1F93CF93DF93CDB753
:101B4000DEB72C970FB6F894DEBF0FBECDBF4F8324
:101B5000588769877A878B879C87CE0107960E9472
:101B6000F80B882369F08A859B85892B39F04F8192
:101B70005885842F85238F3F09F071C016E05FC020
:101B800086E0FE013796DE01119601900D928A954E
:101B9000E1F78A859B85892B89F38F819885892335
:101BA0008F3F61F32091B60130E0C9010196877043
:101BB00099274091B5014817190671F40E940B0A44
:101BC0001092B6011092B50186E0E7EEF1E0DF0178
:101BD0001D928A95E9F7D2CF96E0929FD001939F0C
:101BE000B00D1124A954BE4FFE01319601900D9203
:101BF0009A95E1F78093B6010E94680BBFCF819F51
:101C0000C001112489549E4F0E94F80B8823E9F0EB
:101C1000E091B5011E9FF0011124E954FE4F40816F
:101C2000518162817381848195810E94440A8091EF
:101C3000B50190E00196877099278093B501809156
:101C4000B5019091B6018913DACF2C960FB6F894AE
:101C5000DEBF0FBECDBFDF91CF911F910895698583
:101C60007A858B859C850E94440A88CF682F809155
:101C70000201909103010C94E71C682F80910201EE
:101C8000909103010C94E91C809102019091030151
:101C90000C94EB1C8091ED018595859585950895B3
:101CA0008091ED01877008959091ED01977081E02A
:101CB00009F480E008958091F90108959091F90167
:101CC000892B8093F901089580959091F9019823CB
:101CD0009093F90108951092F90108959091F801F7
:101CE000892B8093F801089580959091F8019823AD
:101CF0009093F80108951092F80108951092F70159
:101D000008958091EE01089508950C94840E9091A9
:101D1000600292FD08C09091EE01981721F0809327
:101D2000EE010C94850E08958091EE01882329F030
:101D30001092EE0180E00C94850E0895E09102016E
:101D4000F09103018091F9018083E0910201F0910B
:101D5000030180819091F801892B8083E091020139
:101D6000F091030180819091F701892B80839091FC
:101D7000EE01992381F0E0910201F091030180814D
:101D8000892B808380910201909103010E949F1C06
:101D900081110E94940E80910201909103010C9494
:101DA000681C08950C94D10E9091600292FD10C0B1
:101DB00098E0899F90011124622B6093ED010E94AD
:101DC000840A8091ED018595859585950C94D20EB8
:101DD0000C94840A1092ED0180E00C94D20E909144
:101DE000ED01809589238093ED01282F277091F4D0
:101DF000282F082E000C330B9217130659F09091E0
:101E0000600292FD07C08595859585950E948F0A91
:101E10000C94EA0E08959091600292FB222720F91B
:101E2000281769F080FB92F99093600280915F021D
:101E3000909160020E94560F82E00C94EF0E08957C
:101E40008091600282FB882780F991E089270C94B9
:101E50000B0F81E00C940B0F80E00C940B0F6FEFD5
:101E60007FEF90E080E00C94762590E080E00E9487
:101E70005225893E9E4F11F40C94271580E0089559
:101E800082E090E00C944A2583E090E00C944A258F
:101E9000CF9384E090E00E944A25C82F82E290E030
:101EA0000E944A25982F8C2FCF910895CF93C92F48
:101EB000682F84E090E00E9458256C2F82E290E029
:101EC000CF910C945825AB01BC018FE090E00C94AD
:101ED0006A25AB01BC0183E190E00C946A2560E0C7
:101EE00070E0CB010C94690F60E070E0CB010E94C0
:101EF000630F0C946F0F69EE7EEF90E080E00E941C
:101F0000762560E082E090E00E94582560E083E062
:101F100090E00E9458251092B40160E084E090E0C7
:101F20000E94582560E082E290E00E94582560E01F
:101F300085E090E00E94582560E086E090E00E94F5
:101F400058256FEF87E090E00E94582540E050E070
:101F5000BA0188E090E00E946A2560E08DE090E0A0
:101F60000E94582540E050E0BA0188E190E00E94CC
:101F70006A2560E087E190E00E94582540E050E04B
:101F8000BA018CE190E00E946A2570E060E080E296
:101F900090E00E94762540E050E0BA0188E190E0B0
:101FA0000E946A2580E00E9440150E9466150C94EC
:101FB000740F0C947B0F682F8EE090E00C945825E2
:101FC0000E948E1D60931302709314028093150279
:101FD0009093160260930F02709310028093110287
:101FE00090931202089585B7806885BF85B7806891
:101FF00085BF0895089508950C94FA0F08950C94E0
:10200000FE0F0E94F30F8AEA92E10E944B1C0E948D
:10201000FB0F0C94FC0F0C941513089508950E9467
:102020000D100C940E100E94791D0E9469120E94DE
:1020300075150E942E030E946E160C94FF0FAF922E
:10204000BF92CF92DF92EF92FF920F931F93CF93A5
:10205000DF93CDB7DEB72A970FB6F894DEBF0FBE79
:10206000CDBF0E94FA0381110E94E00F8BEFA82ED2
:1020700081E0B82E10E000E0C02E802F0E942703E0
:10208000E82EF501F1905F01F81609F44BC080913C
:10209000170281FD0E942D038F2D8E25D12CFF2448
:1020A000F394982F9F21C9F10E940B10882399F077
:1020B000DE82CF82EF2081E009F480E088870E94F1
:1020C000821D8160782F9A8789874E815F8168851C
:1020D0008A850E94B506F801E550FE4F8081F826FA
:1020E000F0820E94551C9091FA01891791F10E948B
:1020F000551C8093FA012A960FB6F894DEBF0FBEE6
:10210000CDBFDF91CF911F910F91FF90EF90DF90A6
:10211000CF90BF90AF900C94AD06D394FF0CF5E038
:10212000DF12BFCF0F5F1F4F0431110509F0A4CF9D
:102130008FEF89838A831B820E94821D8160782FA2
:102140009D838C8349815A816B818D810E94B50664
:10215000C8CF2A960FB6F894DEBF0FBECDBFDF9171
:10216000CF911F910F91FF90EF90DF90CF90BF9094
:10217000AF900895CF93DF930E948F11EC018115EA
:1021800023E5920790F5811532E5930708F096C094
:1021900081159042C8F4C11581E0D80788F4C53A8A
:1021A000D10548F4C430D10558F4C130D10541F00F
:1021B000D0E0C0E005C0CE01805E91090897C0F76D
:1021C000CE01DF91CF910895C11591E5D90708F0AF
:1021D00070C0C11520E5D20708F04EC0C11530E42B
:1021E000D30730F3DF70D06AEBCF811546E5940753
:1021F000F0F4C11585E5D80708F075C0C11594E560
:10220000D90708F06BC0CE018370992721E030E038
:1022100002C0220F331F8A95E2F7C695C69590E259
:10222000C99FE0011124C22BD32BDA68C9CF8115D5
:102230002AE5920778F4811539E5930708F05EC026
:10224000811548E5940708F4B3CFD82FCC27C06F89
:10225000D06AB6CF90568115904208F0A9CF8D2F45
:102260008F710E94261290E0982F882788279F71EF
:102270009C012C2BE90140C0CE01E4E096958795A6
:10228000EA95E1F783702C2F26952695237040E27E
:10229000249F90011124382B8C2F8370C1E0D0E053
:1022A00002C0CC0FDD1F8A95E2F7C22BD32BDC686E
:1022B00087CFDC2FCC27C16FD06A82CF837099275C
:1022C00021E030E002C0220F331F8A95E2F7C69565
:1022D000C69580E2C89FE0011124E7CFDC2FCC2710
:1022E000C46FD06A6DCF8C2F0E942612C82FD0E009
:1022F000DC2FCC27CC27DF71D06262CF8F700E9499
:10230000261234E0D695C7953A95E1F7CF709C2F09
:10231000EC01D06955CF0E9478180C94BA1082381D
:102320009105B1F1B0F48133910509F475C048F419
:102330008932910509F469C08A32910509F473C0A4
:1023400008958533910509F459C08933910501F148
:102350000895833E9105A9F138F4803E9105F9F086
:10236000823E910549F10895863E9105A9F1873E87
:102370009105C9F1843E910519F52091600221FF74
:102380001FC080915F0284FD14C087EE90E0089525
:1023900020915F022370A1F080EE90E008952091DB
:1023A0005F0220FD47C03091600230FF09C024FF6A
:1023B00044C090E080E004C020915F0222FDF7CF8E
:1023C000089520915F0222FD3BC03091600230FDF4
:1023D000E3CF24FFF5CFEDCF20915F0223FFF0CFB5
:1023E00024FDE7CFD2CF20915F0223FD2CC0309196
:1023F000600231FFEECF84EE90E0089520915F02FD
:1024000025FFDECF89E290E0089520915F0225FF4D
:10241000D7CF85E390E0089520915F0226FFD0CFCB
:102420008AE290E0089520915F0226FFC9CF81E300
:1024300090E0089589E390E0089583EE90E0089598
:1024400082EE90E0089586EE90E0089590915F020C
:1024500092FF06C0282F28712830F9F4877F846006
:1024600093FF06C0282F28712831F1F4877E8461FC
:102470002091600220FF06C0382F38713830D9F41F
:10248000877F816021FF06C0282F28712831D1F471
:10249000877E816194FD877E0895282F24712430E2
:1024A000F9F68B7F8860DCCF282F2471243101F767
:1024B0008B7E8861DDCF382F3171313019F78E7FF7
:1024C0008860E0CF282F2171213121F78E7E88612D
:1024D000E1CF10925B0210925C0210925D021092AA
:1024E0005E020895CF92DF92EF92FF926B017C0122
:1024F0000E94151381110EC00E948E1DC61AD70AA4
:10250000E80AF90AC0925B02D0925C02E0925D0296
:10251000F0925E02FF90EF90DF90CF9008950F93BE
:102520001F930E941513882321F01F910F910C9483
:102530008E1D0E948E1D00915B0210915C02209105
:102540005D0230915E02600F711F821F931F1F9109
:102550000F91089580E008950C942F0F0E94FA03C4
:102560008FE39CE90197F1F700C000000E94FA0395
:1025700080E00E94270380FF04C00E94AC120C94EC
:10258000E91D08950C94AE120E94350F811102C00E
:102590000E94D90F0E94400F809317020E94480F9B
:1025A0009093600280935F020E94C2120E94440FC7
:1025B0000E945E0A8091B3010C94710A0895FF9203
:1025C0000F931F93CF93DF93F82E092F162FD72F3A
:1025D000C42F222349F081E080931A020E94821DB9
:1025E000909319028093180280911A028823A1F017
:1025F00080911802909119020E949A1D059760F02F
:10260000EF2DF02FA12FBD2FCE0FDF2FD11DEC17F7
:10261000FD0741F410921A02DF91CF911F910F91A3
:10262000FF90089581918D93F2CF80911B028111CB
:1026300007C00E942725882351F081E080931B0268
:1026400081E090911B02913009F080E0089582E0D2
:1026500080931B020E942225F3CF0C9415130E9435
:102660002D13809304010E94151381110C944713BC
:1026700008950E941513811102C00C944913089506
:1026800081E090911C029A3008F080E008950C944B
:102690008A1A0C948D1AEF92FF920F931F93CF9387
:1026A000DF937901C82F880FDD0B41155105A9F083
:1026B0008AE08C9FF0018D9FF00D1124EB5FFE4F9F
:1026C00083819481835E9D4F228130E042175307BE
:1026D00008F49A01A9010E944125CE010E94971B8E
:1026E000892B11F501151105E9F08AE08C9FF001A5
:1026F0008D9FF00D1124EB5FFE4F458150E00417D4
:10270000150708F4A8018AE08C9FF0018D9FF00D59
:102710001124EB5FFE4F66817781635E7D4FC701B9
:102720000E94412581E001C080E0DF91CF911F919F
:102730000F91FF90EF9008950C94B8140C94D4145A
:102740000F931F93CF93DF9300D000D0CDB7DEB7A8
:1027500060913E0270913F0280914002909141024F
:102760000E94A91D11E0643671058105910518F1DB
:102770000E948F126E5F7F4F8F4F9F4F69837A83C6
:102780008B839C8310E000E030E020E044E050E0E8
:10279000BE016F5F7F4F82E00E944B13182F88238A
:1027A00051F00E948E1D60933E0270933F02809311
:1027B000400290934102812F0F900F900F900F9045
:1027C000DF91CF911F910F910895AF92BF92CF9259
:1027D000DF92EF92FF920F931F93CF93DF93CDB7CA
:1027E000DEB72B970FB6F894DEBF0FBECDBF7B01CF
:1027F000C0904901D0904A0101E010E09E01255FA0
:102800003F4F50E040E070E060E080E00E944B13FA
:10281000182F882309F448C056018FEFA81AB80A68
:1028200060913A0270913B0280913C0290913D028E
:102830000E94A91D643671058105910568F10AE0C1
:1028400010E09E012F5F3F4F50E040E070E060E0FD
:1028500081E00E944B13D82E6AE070E0C5010E940F
:102860006F1611E09B85981310E01D2141F10E9425
:102870008E1D60933A0270933B0280933C029093CA
:102880003D028AE0FE013196A0E3B2E001900D9294
:102890008A95E1F711E013C06AE070E0C5010E947B
:1028A0006F169B858913CBCF8AE0F6013196DE0146
:1028B000119601900D928A95E1F71111E2CF8AE00D
:1028C000E0E3F2E0D70101900D928A95E1F7812FC4
:1028D0002B960FB6F894DEBF0FBECDBFDF91CF9120
:1028E0001F910F91FF90EF90DF90CF90BF90AF902E
:1028F0000895AF92BF92CF92DF92EF92FF920F9323
:102900001F93CF93DF937C015B016A010E94401308
:1029100001E010E0882311F00AE010E0C1E0D0E00F
:10292000F894B501C701F60109957894811104C0A6
:1029300021960C171D075CF4DF91CF911F910F9129
:10294000FF90EF90DF90CF90BF90AF900895CC9F15
:102950009001CD9F300D300D112490E080E045E3D3
:102960004A95F1F70000019682179307C1F7D8CF77
:102970000F931F93CF93DF93EC018B0145EE53E14F
:102980000E947914882351F040EA53E1B801CE0146
:10299000DF91CF911F910F910C94791480E0DF911A
:1029A000CF911F910F9108950F931F93CF93DF93B2
:1029B000F894C0914901D0914A01CE0101962AE0D4
:1029C000FB01DC0101900D922A95E1F76AE070E0CD
:1029D0000E946F1688837894F8946B857C858D852A
:1029E0009E8500912C0210912D0220912E02309193
:1029F0002F02601771078207930751F060932C0232
:102A000070932D0280932E0290932F020E947212D7
:102A10007894DF91CF911F910F9108950E94671FC5
:102A20000E9413100C94731F0E94771F0E941F10A6
:102A30000C94911F0E940C1D0E944E1F0E940110B9
:102A40000E940E150E9414150E940F10FBCF83E206
:102A500090E00E944A25813289F484E290E00E944D
:102A60004A25823159F485E290E00E944A2591E09E
:102A7000863009F090E0892F8170089580E0FCCFC6
:102A8000CF93C82F6FEF811161E283E290E00E9443
:102A900058256FEFC11162E184E290E00E94582551
:102AA0006FEFC11166E085E290E0CF910C9458255C
:102AB000089586E290E00E944A25682F70E090E039
:102AC00080E0089586E290E00C94582580E00E9412
:102AD000401560E070E0CB010E9462150E94F01783
:102AE0000E94DA1881E00C9440150E9458150E944B
:102AF0002715811102C00C9466150895CF93FB0130
:102B0000C281CC2309F19C0122513F45203131057E
:102B100020F582510E94EA18C0E08C2FCF910895D1
:102B200081E00E94840A43E062E081E00E944F0558
:102B3000F3CF81E00E948F0A43E062E081E00E94CF
:102B40004F05EBCF82E0F6CF8031FFE59F0789F399
:102B500081319F45B9F3C1E0E0CF8031EFE59E07B9
:102B6000F9F281319F45C9F682E0DBCF2FEFFC01FE
:102B700020830895EF92FF920F931F93CF93DF93DB
:102B8000EC01062FE881E150E33108F05EC0F0E08F
:102B9000E855FA4D0C943425198289E08A83602F18
:102BA000CE01DF91CF911F910F91FF90EF900C9488
:102BB0002E1E8981823069F0833071F08130D9F422
:102BC0000E948E1D0E943A256A837B838C839D839D
:102BD000E6CF0E945915F6CF7E0182E0E80EF11C87
:102BE00010E0812F0E942703F70181937F011F5F6F
:102BF0001431B9F7D4CF602FCE010E94B615CFCFD4
:102C000089818230C1F76A817B818C819D810E949C
:102C10003A250E946215C3CF4B816A8189810E9447
:102C2000C2179827892798279D838C83B8CF2C813A
:102C30003D813227232732274B816A8189810E9477
:102C4000DB17ADCF0E94F017AACF8FEF8883A7CFF5
:102C50000E9485188983A3CF0E9487189827892707
:102C600098279A8389839BCF6B8170E089819A81B1
:102C7000AE014C5F5F4F9827892798270E948A18DA
:102C80008ECF6B8170E089819A81AE014C5F5F4F7E
:102C90009827892798270E94B01881CF0E94DA18B8
:102CA0007ECF0E94B017D6CF6B8170E089819A8168
:102CB000AE014C5F5F4F9827892798270E942818FC
:102CC0006ECF6B8170E089819A81AE014C5F5F4F5E
:102CD0009827892798270E944E1861CF0895FC01F4
:102CE000680F791F8FEF91E36E177F0709F408953E
:102CF0002191822728E030E087FF06C0880F8927CE
:102D000021503109C9F7F0CF880FFACFCF93DF9365
:102D1000EC01FB018281882309F420C1C330FDE569
:102D2000DF07C8F5CA3F9CE5D90730F49E01225061
:102D30003C452431310598F50E94480F909360027C
:102D400080935F02C031FCE5DF0709F4E0C008F0C2
:102D500061C0C8309CE5D90709F4CBC088F5C43000
:102D6000FCE5DF0709F4B3C0E8F4C2309CE5D907FD
:102D700009F4A7C080915F028260C330DC4509F48A
:102D8000A3C080915F02909160020E94560F0E9442
:102D90000B0A80E004C0C136EDE5DE0769F2DF9181
:102DA000CF91089580915F028061C630FCE5DF0716
:102DB00009F48AC008F48FC080915F02806284C0E9
:102DC00080915F028D7FCC309CE5D90709F47CC0EF
:102DD00070F480915F028C60CA30FCE5DF0709F473
:102DE00073C008F48AC080915F028E7F6DC08091AD
:102DF0005F02877FCE309CE5D90709F465C08091DA
:102E00005F028B7FCF30DC4508F45EC080915F02AB
:102E10008F7E5AC0CC3FFCE5DF0709F474C040F553
:102E2000C4319CE5D90709F48AC058F4C231FCE5E5
:102E3000DF0709F474C008F46EC080915F02837FDD
:102E400043C0CA3F9CE5D90709F449C008F04DC00A
:102E5000C531DC4509F095CF80915F0282FB99274F
:102E600090F921E0922790FB82F990FB83F92CC026
:102E7000C1158DE5D80709F458C088F48091600227
:102E80008360CE3FECE5DE0769F1809160028D7FC3
:102E9000CF3FDC4538F1809160028C7F23C0C23087
:102EA0008DE5D80709F458C008F452C0C136DD4595
:102EB00009F067CF90915F02892F8F7E94FF806128
:102EC00003C080915F02816080935F025ACF80913E
:102ED0005F028460F9CF80915F028860F5CF8091B6
:102EE00060028160809360024CCF809160028260BA
:102EF000F9CF80915F028064E7CF0E940B0A809136
:102F00005F028068E1CF809160028E7FEBCF80917D
:102F10005F028F7DD9CF80915F028F7BD5CF0E94DA
:102F20000B0A80915F028F77CFCF80916002982F3C
:102F3000909591708E7F892B90FB81F9D3CF0E9461
:102F40000B0A90915F02892F97FB87F98058BCCFBD
:102F500081E00E94DB0F15CF80E0FBCF81E01FCF27
:102F600084E0089550E0440F551F9AE0699F400D9A
:102F7000511D112498EC899F400D511D1124CA0147
:102F8000879608950F931F93CF93DF930E94B217F4
:102F90008C010E944A25C82FD0E0DC2FCC27C80125
:102FA00001960E944A259E01282BC901DF91CF91ED
:102FB0001F910F9108950F931F93CF93DF93122FBB
:102FC000032F0E94B217EC01602F0E945825612F39
:102FD000CE010196DF91CF911F910F910C9458254E
:102FE000AF92BF92CF92DF92EF92FF921F93CF9357
:102FF000DF938CEAC82E80E0D82ED0E07601C0E0C6
:1030000014C0F50125913491412F6C2F8D2F0E9412
:10301000DB1782E0A80EB11C1F5F153091F78AE024
:10302000E80EF11CCF5FC43119F0570110E0E9CF71
:10303000DF5F88ECC80ED11CD43001F7DF91CF914F
:103040001F91FF90EF90DF90CF90BF90AF900895C9
:10305000EF92FF920F931F93CF93DF93EC018A01BE
:103060007C01E60EF71ECE018796CE15DF0539F4FA
:10307000DF91CF911F910F91FF90EF900895C03293
:1030800023E0D20740F40E944A25F80180830F5FB5
:103090001F4F2196E8CFF8011082F9CFCF92DF922F
:1030A000EF92FF920F931F93CF93DF937C016A01FE
:1030B0008C01060F171FEC01CE018796C017D107B0
:1030C00049F4DF91CF911F910F91FF90EF90DF9026
:1030D000CF900895C03223E0D20740F4FE01EE19EC
:1030E000FF09EC0DFD1D60810E9458252196E4CF5B
:1030F000462F843038F4743128F4653018F4672F83
:103100000C94C21790E080E0089580E1089589EB67
:1031100090E00895EF92FF920F931F93CF93DF9368
:10312000EC018A017C01E60EF71ECE01895B9C4F03
:10313000CE15DF0539F4DF91CF911F910F91FF90EC
:10314000EF900895C93BD10540F40E944A25F8014B
:1031500080830F5F1F4F2196E8CFF8011082F9CFCF
:10316000CF92DF92EF92FF920F931F93CF93DF9353
:103170007C016A018C01060F171FEC01CE01895BEF
:103180009C4FC017D10749F4DF91CF911F910F9148
:10319000FF90EF90DF90CF900895C93BD10540F4A8
:1031A000FE01EE19FF09EC0DFD1D60810E945825FE
:1031B0002196E4CFCF93DF93C7E4D3E060E0CE0164
:1031C0000E9458252196C11584E0D807B9F7DF91F0
:1031D000CF910895DF92EF92FF920F931F93CF93B9
:1031E000DF9300D000D0CDB7DEB7F82E8FE08F157B
:1031F00040F08FEF93E00E944A2507E413E0882314
:10320000C1F00F900F900F900F90DF91CF911F9111
:103210000F91FF90EF90DF900895011584E018075B
:1032200081F3C8010E944A25811101C0FA940F5F01
:103230001F4FF110F2CF19821A821B821C82DD24EB
:10324000D39478018FEFE81AF80AC8010E944A2542
:1032500089831A828823A9F29FEF980F933078F41C
:103260008A83D9820E5F1F4FC7010E944A258B8334
:10327000882339F2CE0101960E94A206E2CF87018F
:10328000F9CFCF93DF93EB0186319C4511F50E9476
:103290005B0E9A81992399F08A7A91E009F490E083
:1032A00090934202811109C089E20E94360E0E9469
:1032B0009E0E80E0DF91CF91089585E3F6CF809157
:1032C0004202811104C089E20E943D0EF0CF85E3E5
:1032D000FBCF81E0EFCF0F931F93CF93DF93C42FEA
:1032E000D22FFC0182818823C9F0409345020E94BD
:1032F000821D909344028093430280E28C0F8830B9
:1033000008F050C0C77081E001C0880FCA95EAF785
:10331000DF91CF911F910F910C94D6071091450228
:10332000141335C080914302909144020E949A1D6B
:10333000883C910560F5C0E2CD0F1D17B9F080E221
:10334000810F883040F4177081E001C0880F1A9512
:10335000EAF70E94DD07C83048F481E09D2F97709E
:1033600001C0880F9A95EAF70E94D607802F0E9425
:10337000CE07C830B8F4D77081E001C0880FDA9565
:10338000EAF7DF91CF911F910F910C94DD0780E256
:103390008C0F883038F4C77081E001C0880FCA955F
:1033A000EAF7EFCFDF91CF911F910F9108950F931F
:1033B0009C01CB01233F4CE5340759F1A8F4283D8B
:1033C000FCE53F0701F1293D4CE53407D1F1273DEC
:1033D0003C4591F406E221EE41EE67ED7CE50E946A
:1033E0006B1980E00F910895253FFCE53F07E9F058
:1033F000B0F0263F3C45F9F0FC018281882339F189
:1034000010924502EFCF07E225EE45EE68ED7CE530
:10341000E6CF06E221EE40EE63EF7CE5E0CF07E287
:1034200025EE44EE64EF7CE5DACF06E221EE42EED3
:1034300065EF7CE5D4CF07E225EE46EE66EF7CE54E
:10344000CECF08E221E045EE69ED7CE5C8CF81E012
:10345000C9CF8EE14A9B02C08150E1F74A9BFECF63
:1034600008955A9880E28A95F1F75A9A0895FC01D6
:103470003BE03A95F1F798E020E080E031E040E170
:103480004A95F1F7880F4A9B02C08160232742E0EA
:103490004A95F1F7000040E14A95F1F7915079F72C
:1034A00090E19A95F1F799B132E03A95F1F7000081
:1034B00040E14A95F1F792FB992790F992272081F4
:1034C000920F90830895EF92FF920F931F93CF93E3
:1034D000DF930F92CDB7DEB719828C017C01E60E27
:1034E000F11C0E151F0561F481E09981911180E0B6
:1034F0000F90DF91CF911F910F91FF90EF90089562
:103500000E94291ACE0101960E94371AF801819370
:103510008F01E7CF529A5A9A089552985A9AEA9A86
:10352000E9E6F0E080818F7C808308956150770B1D
:1035300091E001C0990F6A95EAF720E031E091111E
:1035400008C0222391F05A9A80E28A95F1F75A989E
:103550000895492F482339F05A9A232740E24A9583
:10356000F1F79695ECCF5A98F9CF5A98EDCFFF9294
:103570000F931F93CF93DF93EC018C01060F111D66
:10358000C017D10731F4DF91CF911F910F91FF90B8
:103590000895F9900E94311A68E08F2D0E94961AC2
:1035A000EFCF1F920F920FB60F921124EF92FF925E
:1035B0000F931F932F933F934F935F936F937F933B
:1035C0008F939F93AF93BF93EF93FF93CF93DF932B
:1035D0000F92CDB7DEB719820E94291ACE0101964B
:1035E0000E94371AA82FA695A695A695282F229552
:1035F00025709A2F9570290F922F937026952695F6
:10360000920F982797708981982B09F075C0A43084
:1036100008F072C080E18A95F1F75A9A529AB2E0A6
:10362000BA95F1F700C05A98EA2EF12CEAE0AE9F65
:10363000D0011124AB5FBE4F1896ED91FC91199704
:103640003097B1F06091490170914A0116962D9121
:103650003C911797260F371F13968D919C911497C5
:10366000680F791F15964C91159712968C910995B4
:103670008AE08E9DF0018F9DF00D1124EB5FFE4FCF
:103680006581662351F02091490130914A0186817C
:103690009781820F931F0E94B71A0E94311AF0E19E
:1036A000FA95F1F75A9852985A9A80E18A95F1F76B
:1036B0008AE08E9D80018F9D100D11240B5F1E4F9F
:1036C000D80112966C911297662371F120914901ED
:1036D00030914A0113968D919C91820F931F0E9405
:1036E000631AD801ED91FC91882311F088E001C0A4
:1036F00082E080830E94291A0F90DF91CF91FF9181
:10370000EF91BF91AF919F918F917F916F915F9159
:103710004F913F912F911F910F91FF90EF900F903C
:103720000FBE0F901F901895ED91FC91DFCF0F9376
:103730001F93CF93DF93EC0104970CF0A9C08AE0AC
:103740008C9FF0018D9FF00D1124EB5FFE4F808167
:103750009181892B09F49CC0F894529A5A9885E07B
:103760008A95F1F700008C2F869585709C2F9570B7
:10377000890F982F937086958695890F8E0193E017
:10378000000F111F9A95E1F7082B0E94311A00C013
:1037900068E0802F0E94961AA0E1AA95F1F752984E
:1037A0005A9A4A9B27C087E090E04A9925C08AE050
:1037B0008C9F80018D9F100D11240B5F1E4FF8010F
:1037C00065816623A1F12091490130914A018681EA
:1037D0009781820F931F0E94631A811128C0529A09
:1037E0005A9AD801ED91FC9182E08083789482E02E
:1037F00090E016C000C0D5CF0197B9F4529A5A9AFA
:103800008AE08C9FF0018D9FF00D1124EB5FFE4F3D
:103810000190F081E02D81E08083789481E090E058
:10382000DF91CF911F910F91089500C0BECF0E94EC
:10383000291AB0E2BA95F1F75A98529AE0E1EA955E
:10384000F1F78AE08C9FF0018D9FF00D1124EB5F62
:10385000FE4F6281662351F02091490130914A0167
:1038600083819481820F931F0E94B71A0E94311A9C
:103870008AE08C9FF0018D9FF00D1124EB5FFE4FCD
:103880000190F081E02D1082789490E080E0C8CF24
:1038900084E090E0C5CF90934D0180934C01089552
:1038A00090934C0280934B0208950E94151381114E
:1038B00003C0809146020895E0914B02F0914C02C2
:1038C000309721F00190F081E02D099480E0089577
:1038D000E0914B02F0914C02309721F00280F3818D
:1038E000E02D099408952091490230914A02281749
:1038F000390771F090934A0280934902E0914B029C
:10390000F0914C02309721F00680F781E02D099468
:10391000089520914702309148022817390771F025
:103920009093480280934702E0914B02F0914C0241
:10393000309721F00084F185E02D099408959C01D1
:103940002E5F3F4FAC01485F5F4F80E02417350783
:1039500009F40895F90191919F019923B9F38F5FBB
:10396000F5CF662349F0FC0132960896219126177F
:1039700029F0E817F907D1F780E0089581E008956C
:103980009C01FC0132969FEF80E04191461751F077
:103990009F3F19F4411101C0982F8F5F8630A9F71E
:1039A0009F3F09F40895290F311D97FD3A95F901BC
:1039B00062830895FC01329608962191261303C074
:1039C000DF0111971C92E817F907B9F708950C94D5
:1039D000C01C0C94DA1C029626E0FC0111922A9578
:1039E000E9F7089508950C94F21C811105C081E057
:1039F00080934D020C94F31C82E0FACF83E0809315
:103A00004D020C94F31C0C94F51C81E080934D0244
:103A10000C94F31C0C94051D089580916A02843067
:103A200031F10E94600510924E0288E190E020E49E
:103A30000FB6F894A895809360000FBE20936000A5
:103A400083B7817F846083BF83B7816083BF7894AD
:103A5000889583B78E7F83BF0FB6F894A895809121
:103A60006000886180936000109260000FBE08952E
:103A700008950895CF930E94381D0E94FA030E9472
:103A8000391DC0E08C2F0E942703811105C0CF5F34
:103A9000C431C1F7CF91089581E0FCCF0E940B0A99
:103AA0000C94CE051F921FB61F9211248F939F93E3
:103AB000AF93BF9380914E02811113C08091620237
:103AC00090916302A0916402B09165024196A11D9C
:103AD000B11D8093620290936302A0936402B0933D
:103AE0006502BF91AF919F918F911F901FBE1F9054
:103AF000189582E084BD93E095BD9AEF97BD8093C1
:103B00006E0008952FB7F89480916202909163023D
:103B1000A0916402B09165022FBF08952FB7F89469
:103B200060916202709163028091640290916502DB
:103B30002FBF08959C014FB7F89480916202909135
:103B40006302A0916402B09165024FBF821B930B88
:103B50000895CF92DF92EF92FF922FB7F894C09022
:103B60006202D0906302E0906402F09065022FBF81
:103B7000A7019601261B370B480B590BCA01B90147
:103B8000FF90EF90DF90CF90089578941F921FB62A
:103B90001F9211248F939F93AF93BF9380916202E2
:103BA00090916302A0916402B09165020196A11DFB
:103BB000B11D8093620290936302A0936402B0935C
:103BC0006502BF91AF919F918F911F901FBE1F9073
:103BD000189587E797E7909301088093000888E19C
:103BE0009AE00FB6F894A895809360000FBE90936A
:103BF0006000FFCF80915702089508950895CF93F4
:103C0000DF93EC0181E08093E9008FEF9091E80071
:103C1000815095FD06C095ED9A95F1F70000811150
:103C2000F5CF8091E80085FF14C050E040E068E0E7
:103C300070E0CE010E9442208091E8008E77809350
:103C4000E80088E0FE01AFE4B2E001900D928A95B1
:103C5000E1F7DF91CF91089508950895CF93FC0186
:103C6000603221F580916A02843001F5C091E9004B
:103C7000CF702091EC00922F917020FD90E8C92B1D
:103C800082E08093E9008091E80080FF0CC050E062
:103C900040E060E270E0CF010E9442208091E800A5
:103CA0008E778093E800CF70C093E900CF9108959C
:103CB00080916902811109C00E9421220E947E2206
:103CC0008091E20084608093E2000895109269027E
:103CD00008950C94051D6091660281E0611101C098
:103CE00080E00C94FE1C90916A0281E0943009F00F
:103CF00080E0609166020C94031D42E061EC81E07B
:103D00000E949D2142E261EC82E00E949D2142E2FC
:103D100060EC83E00E949D2190916A0281E09430E2
:103D200009F080E0609166020C94F51C80916C02B1
:103D3000833009F460C030F48130C9F1823009F475
:103D40009CC008958A3009F488C08B3009F46EC095
:103D5000893009F04FC080916B02813209F04AC06E
:103D600080916F0290917002892B09F043C080917D
:103D7000E800877F8093E8008091E80082FF36C0EA
:103D80009091F3008091F200029731F48091F1005C
:103D9000813011F0863021F48091F1008093570238
:103DA0008091E8008B778093E8000C94D12180917A
:103DB0006B02813AF9F48091E800877F8093E800F4
:103DC00080916F0290917002892B61F468E08FE41A
:103DD00092E070E00E94E0208091E8008B77809371
:103DE000E800089560E090E080E0F3CF80916A02FF
:103DF0008111C2CF089580916B02813AD9F78091E9
:103E00006F0290917002892BA9F78091E800877F5B
:103E10008093E8008091E80080FFFCCF80912F0123
:103E20008093F1008091E8008E77BDCF80916B0286
:103E3000813201F780916F0290917002892BD1F647
:103E40008091E800877F8093E8000E94D1218091D3
:103E50006D0280932F010C940B0A80916B028132CA
:103E600049F68091E800877F8093E8000E94D12185
:103E700080916E0280935802089580916B02813A7E
:103E800009F0B8CF8091E800877F8093E8008091A7
:103E9000E80080FFFCCF80915802C2CF84B7877FB3
:103EA00084BF0FB6F894A8958091600088618093D4
:103EB0006000109260000FBE80E890E00FB6F894AA
:103EC00080936100909361000FBE0C940A1D0E94C4
:103ED00021220E947E22E2EEF0E0808184608083D5
:103EE00078940C94072583E291E00C94501C809107
:103EF0006A028530A9F480916A02853011F00C9431
:103F00004E1D0E940D1D809168028823A1F30E941E
:103F10003A1D882381F30E942C200E940B0AEBCFCC
:103F20000895CF93DF93CDB7DEB7A0970FB6F8947F
:103F3000DEBF0FBECDBF80916A02843009F583E0F9
:103F40008093E9008091E80082FF1AC08091E80028
:103F500090E085FF09C050E040E060E270E0CE01F3
:103F600001960E94912091E08091E8008B778093E8
:103F7000E800992329F060E2CE0101960E94BA156B
:103F8000A0960FB6F894DEBF0FBECDBFDF91CF91E4
:103F900008950C94CB1FE92FFF27E330F105E9F0DA
:103FA00060F4E130F10509F448C0329709F44AC0E1
:103FB000F0E0E0E090E080E025C0E132F10571F151
:103FC000E232F105A9F76115710509F440C082EFED
:103FD00094E061307105B1F0EBCF99278130910504
:103FE000B1F0009749F0029719F7ECE7F4E0E4919B
:103FF000F0E08CE794E006C0EAE9F4E0E491F0E058
:104000008AE994E0DA018D939C93CF010895E2E967
:10401000F4E0E491F0E082E994E0F4CFE9E0F0E04C
:1040200080EB94E06115710569F3E9E0F0E089EC5B
:1040300094E06130710531F3BBCFE2E1F0E080EE56
:1040400094E0E0CFE2E4F0E08EE994E0DBCFE0E45E
:10405000F0E084E195E0D6CF80E189BD82E189BDC1
:1040600009B400FEFDCF8091D8008F7D8093D800E9
:104070008091E00082608093E0008091E00081FD0B
:10408000FCCF0895AF92BF92CF92DF92FF920F9331
:104090001F93CF93DF936C01EB018A010E94F02103
:1040A000F82E811123C00115110539F0F801808126
:1040B0009181C81BD90BC80ED91EB12CA12C2097F9
:1040C000A9F08091E80085FD22C08091E8008E77FC
:1040D0008093E80001151105A1F0F801808191811C
:1040E000A80EB91EB182A08285E0F82E8F2DDF9137
:1040F000CF911F910F91FF90DF90CF90BF90AF9025
:1041000008950E94F0218823D1F2F82EEFCFF60116
:1041100081916F018093F1002197FFEFAF1ABF0AE1
:10412000CECFAF92BF92CF92DF92FF920F931F93A9
:10413000CF93DF936C01EB018A010E94F021F82EEE
:10414000811123C00115110539F0F8018081918199
:10415000C81BD90BC80ED91EB12CA12C2097A9F0D1
:104160008091E80085FD22C08091E8008B778093E4
:10417000E80001151105A1F0F80180819181A80ED8
:10418000B91EB182A08285E0F82E8F2DDF91CF91EC
:104190001F910F91FF90DF90CF90BF90AF90089547
:1041A0000E94F0218823D1F2F82EEFCF8091F10008
:1041B000F60181936F012197FFEFAF1ABF0ACECFAF
:1041C000FC01809171029091720286179707A0F00E
:1041D0006115710529F49091E8009E779093E800AD
:1041E00090E06115710551F4911108C08091E800CB
:1041F00082FF34C080E00895BC01F2CF80916A0252
:104200008823C1F18530C1F18091E80083FD30C081
:104210008091E80082FDEACF8091E80080FFE1CF45
:104220008091F3002091F200382F6115710519F08B
:104230002830310558F091E02830310509F090E040
:104240002091E8002E772093E800CBCF81918093D6
:10425000F100615071092F5F3F4FE7CF80916A02F3
:10426000882341F0853041F08091E80083FFBECF84
:1042700081E0089582E0089583E00895FC01809133
:1042800071029091720286179707A0F0611571056F
:1042900029F48091E8008E778093E80090E0611522
:1042A000710551F4911108C08091E80082FF35C07A
:1042B00080E00895BC01F2CF80916A028823C9F1A1
:1042C0008530C9F18091E80083FD31C08091E8001C
:1042D00082FDEACF8091E80080FFE1CF8091F3007A
:1042E0002091F200382F6115710519F02830310541
:1042F00058F091E02830310509F090E08091E80015
:104300008E778093E800CBCF84918093F100319633
:10431000615071092F5F3F4FE6CF80916A02882379
:1043200041F0853041F08091E80083FFBDCF81E00E
:10433000089582E0089583E00895982F973028F03B
:104340008F708093E90081E008959093E900242F15
:10435000762F50E0981731F07091EC002091ED002D
:104360005091F00021FD02C09F5FE8CF3091EB003B
:104370003E7F3093EB003091ED003D7F3093ED00B8
:104380003091EB0031603093EB007093EC002093A0
:10439000ED005093F0002091EE0027FDE5CF80E086
:1043A000089580916B0287FF13C08091E80082FF1F
:1043B00006C08091E8008B778093E80004C080916C
:1043C0006A028111F2CF089580916A028823D9F39D
:1043D0008091E80080FFF8CF8091E8008E77ECCFE5
:1043E0002091E4003091E50095E6A9012091EC00D0
:1043F000822F817020FF06C08091E80080FF06C0F8
:1044000080E008952091E80022FD1AC080916A02A0
:10441000882389F0853089F08091EB0085FD0FC0FD
:104420002091E4003091E50042175307F9F29150D2
:10443000E1F684E0089582E0089583E0089581E044
:1044400008950E948F220E949722E0EEF0E0808182
:1044500081608083E8EDF0E080818F77808319BCF4
:10446000A7EDB0E08C918E7F8C9380818F7E8083CE
:104470001092690208950F931F93CF93DF930E94C8
:104480008F220E949722C8EDD0E088818F778883A1
:1044900088818068888388818F7D888319BC109289
:1044A0006A0210926602109268021092670200EE91
:1044B00010E0F80180818B7F808388818160888310
:1044C00042E060E080E00E949D21E1EEF0E080812A
:1044D0008E7F8083E2EEF0E0808181608083808146
:1044E00088608083F80180818E7F808388818061ED
:1044F0008883DF91CF911F910F910895E8EDF0E04F
:1045000080818F7E8083E7EDF0E080818160808311
:1045100084E082BF81E0809369020C943B22E8ED45
:10452000F0E080818E7F80831092E20008951092E7
:10453000DA001092E10008951F920F920FB60F92C9
:1045400011242F933F934F935F936F937F938F9398
:104550009F93AF93BF93EF93FF938091E10082FF0E
:104560000BC08091E20082FF07C08091E1008B7F49
:104570008093E1000E9406258091DA0080FF19C037
:104580008091D80080FF15C08091DA008E7F8093E3
:10459000DA008091D90080FF96C080E189BD82E178
:1045A00089BD09B400FEFDCF81E080936A020E94BC
:1045B000581E8091E10080FF19C08091E20080FFC9
:1045C00015C08091E2008E7F8093E2008091E2002E
:1045D00080618093E2008091D80080628093D8004F
:1045E00019BC85E080936A020E946B1E8091E100F5
:1045F00084FF2BC08091E20084FF27C080E189BD49
:1046000082E189BD89B5982F917080FFFBCF8091A1
:10461000D8008F7D8093D8008091E1008F7E8093B9
:10462000E1008091E2008F7E8093E2008091E200C1
:1046300081608093E20080916602882309F449C07A
:1046400084E080936A020E94731E8091E10083FFE0
:1046500029C08091E20083FF25C08091E100877F1F
:104660008093E10082E080936A021092660280915A
:10467000E1008E7F8093E1008091E2008E7F809345
:10468000E2008091E20080618093E20042E060E01D
:1046900080E00E949D218091F00088608093F0006E
:1046A0000E94691EFF91EF91BF91AF919F918F91F1
:1046B0007F916F915F914F913F912F910F900FBE1E
:1046C0000F901F90189519BC10926A020E94661EE6
:1046D00070CF8091E30087FD93E090936A02B3CF9F
:1046E0001F920F920FB60F9211242F933F934F9367
:1046F0005F936F937F938F939F93AF93BF93CF936A
:10470000DF93EF93FF93D091E900DF708091EC008D
:10471000C82FC17080FDC0E81092E9008091F000C0
:10472000877F8093F00078940E94B4231092E90070
:104730008091F00088608093F000CD2BCF70C09303
:10474000E900FF91EF91DF91CF91BF91AF919F91E0
:104750008F917F916F915F914F913F912F910F902A
:104760000FBE0F901F9018951F93CF93DF93CDB777
:10477000DEB7AA970FB6F894DEBF0FBECDBF8BE6AB
:1047800092E02091F100FC012193CF01F2E0833708
:104790009F07B9F70E94961E8091E80083FF1EC113
:1047A00080916B0290916C029A3008F017C1E92F4A
:1047B000F0E0E554FA4D0C943425803899F08238B5
:1047C00009F00CC180916F028F70873008F006C12C
:1047D0008093E9008091EB0085FB882780F9109297
:1047E000E90006C080916702909168029111826091
:1047F0009091E800977F9093E8008093F1001092E9
:10480000F1008091E8008E77E5C0882309F4D3C0D9
:10481000823009F0E3C080916D028111D6C0809191
:104820006F028F702FEF280F263008F0D7C08093CB
:10483000E9002091EB0020FFC8C0933031F4809153
:10484000EB0080628093EB00C0C09091EB00906120
:104850009093EB0021E030E001C0220F8A95EAF747
:104860002093EA001092EA008091EB008860EACF82
:104870008111B4C010916D021F778091E3008078A0
:10488000812B8093E3008091E800877F8093E8008C
:104890000E94D1218091E80080FFFCCF8091E3004D
:1048A00080688093E30082E0111183E080936A02C4
:1048B00095C08058823008F091C080916D0290912F
:1048C0006E028C3D23E09207A1F583E08A838AE2A1
:1048D00089834FB7F894DE01139620E03EE051E261
:1048E000E32FF0E050935700E49120FF03C0E295DE
:1048F000EF703F5FEF708E2F90E0EA30C0F0C79608
:104900008D939D932F5F243159F74FBF8091E8001D
:10491000877F8093E8006AE270E0CE0101960E94F2
:10492000E0208091E8008B778093E80057C0C09624
:10493000E7CF60916F0270917002AE014F5F5F4FE1
:104940000E94C91FBC01892B09F448C09091E8005E
:10495000977F9093E80089819A810E943E21E1CF60
:104960008038E1F58091E800877F8093E8008091AE
:1049700066028093F10045CF811130C090916D02A5
:10498000923060F58091E800877F8093E8009093F3
:1049900066020E94D12180916602882311F084E092
:1049A00005C08091E30087FDFACF81E080936A0221
:1049B0000E947D1E13C080916D02813079F481E0E8
:1049C000933009F080E0809368021092E9008091B2
:1049D000E800877F8093E8000E94D1218091E80061
:1049E00083FF0AC08091E800877F8093E800809170
:1049F000EB0080628093EB00AA960FB6F894DEBFBE
:104A00000FBECDBFDF91CF911F9108950895CF9331
:104A100080916A028823A1F0C091E900CF70909143
:104A2000EC00892F817090FD80E8C82B1092E9007E
:104A30008091E80083FD0E94B423CF70C093E90009
:104A4000CF9108950E94212210926A020895E8ED04
:104A5000F0E08081806180838AE18A95F1F700C06F
:104A60008091D90081700895EE0FFF1F0590F49199
:104A7000E02D0994692796276927782787277827C3
:104A80000895FB01DC0102C001900D92415050409D
:104A9000D8F70895F999FECF92BD81BDF89A99276C
:104AA00080B50895A8E1B0E042E050E00C947E2586
:104AB000262FF999FECF92BD81BDF89A019700B4D7
:104AC000021639F01FBA20BD0FB6F894FA9AF99A77
:104AD0000FBE08950396272F0E9459250E9458253E
:104AE000252F0E945925242F0C9459250196272FF4
:104AF0000E9459250C945825DC01CB01FC01F99941
:104B0000FECF06C0F2BDE1BDF89A319600B40D9219
:104B100041505040B8F70895F894FFCF220822087A
:104B2000530853088208820882088208E6084D0963
:104B30005C095C091A0A1A0A230A230A250A230AAD
:104B4000230A230A1A0A1A0A2A0A230A230A2A0A01
:104B5000CC15D91500160C16171622162516251673
:104B600025162516251628162C16341641164E160F
:104B7000511654166116DD230524EE240524EE2477
:0A4B800038245924EE24B024BC248C
:104B8A00C800EF010161020000000100000000619D
:104B9A00020000000A010000006102040B0000008C
:104BAA00000000FA1DFF1D2C1EFD1D2D1EFE1D01FD
:104BBA0034C6663632F5F6F79735F5F6F7973500C7
:0C4BCA000000000000000000001D0200C0
:00000001FF
