:100000000C94DB020C9422030C9422030C94132214
:100010000C9422030C9422030C9422030C942203CC
:100020000C9422030C9422030C94092A0C94DD2ACC
:100030000C94A2240C9422030C9422030C9422030B
:100040000C9422030C9422030C9422030C9422039C
:100050000C9422030C9415250C9422030C94220377
:100060000C9422030C9422030C9422030C9422037C
:100070000C9422030C9422030C9422030C9422036C
:100080000C9422030C9422030C9422030C9422035C
:100090000C9422030C9422030C9422030C9422034C
:1000A0000C9422030C9422030C9422031F002000C2
:1000B0002100220001001A000800150017000100AD
:1000C0001600070009000A0001001B0006001900C5
:1000D00005000100E2008B002C002C00115F1E00C7
:1000E000350000000000000014002B00000000009C
:1000F0000000040039000000000000001D00E100C5
:10010000000000000000E300E0000000000000002C
:1001100027002600250024002300130012000C00F5
:1001200018001C0033000F000E000D000B003800FB
:100130003700360010001100650088008A002C008E
:10014000105F2D002E008900000000002F003000FD
:100150002A000000000034003200280000000000E7
:1001600087005200E50000000000500051004F00E1
:100170000000000001000100F400F50001001F0074
:100180002000210022000100010001000100010007
:100190000100010001000100010001000100010057
:1001A000010001000100010001000000000000004A
:1001B0001E0001000000000000000100010000001E
:1001C000000000000100010000000000000001002C
:1001D000010000000000000001000100010001001A
:1001E0000100270026002500240023000100010053
:1001F00001000100010001000100010001000100F7
:1002000001000100010001000100010001000100E6
:1002100000000000010001000100000000000100DA
:1002200001000100000000000100010001000000C9
:1002300000000100010001000000000001000100B9
:1002400001000100C25C0100010001000100C95C65
:100250000100010001000100C55C01000100010076
:100260000100C75C01000100010001000100010064
:10027000010000000000000001000100000000007B
:10028000000001000100000000000000010001006A
:10029000000000000000010001000000000000005C
:1002A0000100010001000100010001000100010046
:1002B0000100010001000100010001000100010036
:1002C0000100010001000100010001000100010026
:1002D0000100010001000100000000000100010018
:1002E000010000000000010001000100000000000A
:1002F00001000100010000000000010001000100F8
:1003000000000000010001000100010001000100E7
:1003100001000100010001000100010001000100D5
:1003200001000100010001000100010001000100C5
:1003300001000100010001000100000000000000B8
:1003400001000100000000000000010001000000A9
:10035000000000000100010000000000000001009A
:100360000100000000000000010001000100010088
:100370000100010001000100010001000100010075
:100380000100010001000100010001000100010065
:100390000100010001000100010001000100010055
:1003A0000000000001000100010000000000010049
:1003B0000100010000000000010001000100000038
:1003C000000001000100010000000000000000002A
:1003D000000000002A2B28000000000000000000A0
:1003E0000000000000000029000000002C1E342046
:1003F000212224342627252E362D3738271E1F206C
:100400002122232425263333362E37381F040506B0
:100410000708090A0B0C0D0E0F10111213141516F4
:100420001718191A1B1C1D2F3130232D35040506F2
:100430000708090A0B0C0D0E0F10111213141516D4
:100440001718191A1B1C1D2F3130354C00000000E5
:10045000000000000000000000000000000000009C
:10046000000000000000000000000000000000008C
:100470007E0F00D4FFFFFFC7000000781403680060
:1004800061006C00660063006C0069006600660035
:10049000000006036E003200000004030904090294
:1004A0005B00030100A0FA09040000010301010040
:1004B0000921110100012240000705810308000AFB
:1004C00009040100020300000009211101000122BA
:1004D0002200070582032000010705030320000115
:1004E000090402000103000000092111010001229A
:1004F00049000705840320000A12010002000000E1
:1005000008350321000100010200010660FF0961B6
:10051000A1010962150026FF0095207508810209D6
:1005200063150026FF00952075089102C00501099A
:1005300002A10185020901A1000509190129081577
:100540000025019508750181020501093009311561
:1005500081257F95027508810609381581257F95CB
:100560000175088106050C0A38021581257F950161
:1005700075088106C0C005010906A101050719E03B
:1005800029E7150025019508750181029501750877
:1005900081010507190029FF150026FF0095067542
:1005A0000881000508190129059505750191029535
:1005B0000175039101C011241FBECFEFDAE0DEBF49
:1005C000CDBF04B603FE27C08091EF029091F002E8
:1005D000A091F102B091F2028730904BA740B04B4E
:1005E000D1F41092EF021092F0021092F1021092E8
:1005F000F20214BE84B7877F84BF0FB6F894A89523
:1006000080916000886180936000109260000FBE4E
:10061000E0E0F8E3099511E0A0E0B1E0EEECFAE5E6
:1006200002C005900D92AC38B107D9F722E0ACE8D2
:10063000B1E001C01D92AF3EB207E1F70E94711810
:100640000C942E2D0C940000F894E82FE295EF7096
:10065000F0E031A1282F2F7081E090E001C0880FD9
:100660002A95EAF7382B31A392A18095892382A39A
:1006700078940895F894E82FE295EF70F0E031A1B6
:10068000282F2F7081E090E001C0880F2A95EAF7AB
:10069000982F9095932391A392A1892B82A378946C
:1006A000089508950C94510308950895E82FF0E0FB
:1006B000ED55FE4F8081089508950F931F93CF93BA
:1006C000DF930E94251680910601809106019AE031
:1006D000811190E09093CA028AE0891B8093C9023D
:1006E000C3E5D1E08E01F80181918F010E943A03A8
:1006F000F1E00D351F07B9F784E30E943A0386EC59
:100700000E943A0386E60E943A0386E30E943A0377
:1007100082E30E943A0384E30E943A0386EC0E943B
:100720003A0386E60E943A0386E30E943A0382E394
:100730000E943A0389910E943A0381E0CD35D8079F
:10074000C9F7E7EBF1E0A3EAB1E011921D9281E075
:10075000EB3CF807D1F78AE00E94D4150E94C2074B
:10076000DF91CF911F910F910C942F16FF920F9351
:100770001F93CF93DF93CDB7DEB72A970FB6F894C8
:10078000DEBF0FBECDBF0E940B16F82E6091CA02CD
:10079000882309F451C08E010F5F1F4F8AE0F801D2
:1007A00011928A95E9F7862F90E0B8018D559E4FFA
:1007B0000E949216811123C08091A2018F5F8093C5
:1007C000A2018630B8F1E091C902F0E0ED55FE4F8C
:1007D000D801CE010B9611921D92A817B907D9F72F
:1007E0000E94C8078F2D2A960FB6F894DEBF0FBE61
:1007F000CDBFDF91CF911F910F91FF90089510927F
:10080000A201A091C902B0E0AD55BE4F9E01255F87
:100810003F4FF12C4D91F80191918F01491731F023
:10082000AD0141505109FA019083F82E02171307C8
:1008300089F7D6CFF12CD4CF70E06D557E4F8091E3
:10084000C90290E08D559E4F0E9494160E94550358
:10085000C9CF6F927F929F92AF92BF92CF92DF9259
:10086000EF92FF920F931F93CF93DF9307EB11E06B
:1008700043E5C42E41E0D42EC0E0D1E0D601AD90D6
:100880006D018A2D0E942403B0EABA95F1F73EE487
:10089000E32E31E0F32EF70130E020E0B12C41915E
:1008A000A42FA295AF70B0E090968C9190E04F701D
:1008B00002C0959587954A95E2F780FD94C08D2FEB
:1008C000022E01C0880F0A94EAF7B82A2F5F3F4F23
:1008D0002530310521F78A2D0E943A03E0EAEA9596
:1008E000F1F7D8018C91B81609F47FC0BC9281E071
:1008F000C82B0F5F1F4FB8E5CB16B1E0DB0609F040
:10090000BDCF10E000E0AA24A394B12C28E9C22EA8
:1009100021E0D22EF70191907F01892D0E942403BE
:10092000F0EAFA95F1F7C501002E01C0880F0A948C
:10093000EAF7782F682F6095EEE8F1E083E5682EFE
:1009400081E0782ED0E03191D3012D913D01422FED
:1009500042954F7050E0DA0190968C9190E02F70A4
:1009600002C0959587952A95E2F780FD40C0872FB4
:10097000832B381731F09F0121503109D9018C9315
:10098000D1E0CE16DF06F9F6892D0E943A03043035
:1009900019F0B0EABA95F1F7CD2B61F50F5F1F4F53
:1009A0000530110509F0B6CF6091CA0270E06D55AF
:1009B0007E4F2C2F4AE087EB91E00E94D5150E94D4
:1009C000B603C11101C0C82F8C2FDF91CF911F91A9
:1009D0000F91FF90EF90DF90CF90BF90AF909F90DE
:1009E0007F906F90089580E070CF80E081CF862F58
:1009F0008323BFCF809193018093BC0180919401A8
:100A00008093BD01809195018093BE0180919601F4
:100A10008093BF01809197018093C001BFCFCF9396
:100A2000DF93FA016230710519F42230310539F093
:100A30008FEF818381E090E0DF91CF9108951B9B40
:100A400033C02B9A239A47E050E02998EC01288183
:100A500030E0042E02C0359527950A94E2F720FF76
:100A600025C02B9A299A4150510978F72AE12A95F5
:100A7000F1F700C023982B9A118287E090E0299823
:100A8000299A23B123FBAA27A0F9B0E0AD01082ED3
:100A900001C0440F0A94EAF72181242B2183019796
:100AA00070F790E080E0C8CF2B98CCCF2B98DACFAE
:100AB0000F93CF93DF9300D000D0CDB7DEB71B826A
:100AC0008FEF8C8389838A83E0910001F09101018B
:100AD0000FEF22E030E0AE014F5F5F4F62E070E069
:100AE000CE01039609958A810F900F900F900F9079
:100AF000DF91CF910F910895219A23982B9A089511
:100B0000AF92BF92CF92DF92EF92FF920F931F931B
:100B1000CF93DF9300D000D0CDB7DEB75C016B017F
:100B20007A0182E08B831FEF1C8319831A83E09183
:100B30000001F09101010FEF22E030E0AE014F5FC4
:100B40005F4F62E070E0CE01039609958A81F5015E
:100B5000808383E08B831C8319831A83E0910001D7
:100B6000F091010122E030E0AE014F5F5F4F62E0A3
:100B700070E0CE01039609958A81F601808384E0B6
:100B80008B831C8319831A83E0910001F09101018A
:100B900022E030E0AE014F5F5F4F62E070E0CE01D7
:100BA000039609958A81F701808381E090E00F9098
:100BB0000F900F900F90DF91CF911F910F91FF90A9
:100BC000EF90DF90CF90BF90AF900895CF93DF93D9
:100BD00000D000D00F92CDB7DEB78091CB01882333
:100BE00001F18695C9F084E089831A821B820E94F4
:100BF000D2248160782F9D838C831092CB01498110
:100C00005A816B818D810F900F900F900F900F90F4
:100C1000DF91CF910C94210984E0898383E08A835A
:100C2000E5CF0F900F900F900F900F90DF91CF9125
:100C30000895EF92FF920F931F93CF93DF9300D00D
:100C400000D00F92CDB7DEB7162FE82EF12CC701DA
:100C5000880F991F662339F187599E4FFC018081C7
:100C600091819A83898301E00B830E94D224816061
:100C7000782F9D838C83F701E553FE4F0127110FD9
:100C8000102B108349815A816B818D810F900F90B9
:100C90000F900F900F90DF91CF911F910F91FF90C8
:100CA000EF900C94210989599E4FD8CF0E94E605F8
:100CB0000C9454030E94190681E00895FB01893FBA
:100CC000910509F43FC028F4843F910598F481E030
:100CD00057C08B3F910509F454C008F445C08C3FC0
:100CE0009105A9F78281882309F459C081E0809396
:100CF000D0022EC04091D202845F910921E030E001
:100D0000B90102C0660F771F8A95E2F7CB012281F5
:100D10002223A9F0842B8093D2024091D1025091DA
:100D2000D2026091D3027091D4028091D502909149
:100D3000D6020E94991B0E943E1B80E00895809578
:100D40008423E9CF8281882331F081E08093CF0230
:100D50008093CF01F2CF9091CF0219168CF41092AC
:100D6000CF021092CF01E9CF8281882329F08FEF43
:100D70008093CF0281E0ECCF9091CF0297FDEFCF2F
:100D800008958281882321F08FEF8093D002F2CFE3
:100D90009091D00297FFF4CF1092D002E2CF9091C1
:100DA000D0021916CCF308950C947C05CF93DF93F1
:100DB00000D00F92CDB7DEB78091CF01882329F103
:100DC0008091D0019091D10101969093D1018093AF
:100DD000D0010197D1F48091CF028093D5029091F8
:100DE000D0029093D6024091D1025091D2026091EC
:100DF000D3027091D4020E94991B1092D5021092D6
:100E0000D6021092D1011092D0018091CD01909123
:100E1000CE019C012F5F3F4F3093CE012093CD0137
:100E200062E370E00E94A12C892B89F50E9458058D
:100E3000803319F581E08093CC01AE014F5F5F4FA5
:100E4000BE016E5F7F4FCE0103960E9480056A81CE
:100E500061956093D302798171957093D4028B81EF
:100E600087FF0DC04091D1025091D2028091D502EE
:100E70009091D6020E94991B02C01092CC010E9450
:100E80003E1B0F900F900F90DF91CF9108958091AE
:100E9000CC018823A1F3D1CF81E008950C945E06A4
:100EA00008950C9450071F93CF93DF9300D000D088
:100EB0000F92CDB7DEB749835A836B833091D2014D
:100EC00089819A8131111DC06623B9F02223A9F0CE
:100ED0000E94DD0D182F682F89819A810E94860D4E
:100EE00069817A81812F0F900F900F900F900F9052
:100EF000DF91CF911F910C94091F0E94B40D182F00
:100F0000EFCF0E94DD0D69817A81EDCFFC01262FA4
:100F1000408151816281738184810C94530781E007
:100F20000895CF93DF93EC0160E00E948607BE0135
:100F3000DF91CF910C945107E1E0F0E0DF0102C0B6
:100F4000AA0FBB1F6A95E2F7BD01DF0102C0AA0F1D
:100F5000BB1F4A95E2F76A2B01C0EE0F2A95EAF70C
:100F6000962F9823961302C08E2B0895E0958E231A
:100F70000895242F462F682F8091FA010E949C0724
:100F80000C94430D0E94BA150E9418090C94520348
:100F90000C94560680E00E9419090C94D606089518
:100FA00008950E94DB0C0E94D0072FEF84E39CE0A1
:100FB000215080409040E1F700C000000C9439259A
:100FC0000F931F93CF93DF938C0161E00E948607FC
:100FD000EC01B8010E940F1C8823D9F1B801CE01A1
:100FE0000E944E078823A9F1B801CE010E94192161
:100FF000882379F1B801CE010E94171D882349F199
:10100000B801CE010E948320882319F1F801828162
:10101000882361F0CA35FDE5DF0721F170F4C115C1
:10102000ECE5DE07A1F0CE3DDC45C9F0C801DF915B
:10103000CF911F910F910C944C07CB358DE5D807BC
:10104000A1F0CC35DD4591F70E94F011EFCF0E9461
:10105000D10780E0DF91CF911F910F9108950E94F9
:10106000A912F7CF0E94F911E1CF0E94FC11DECF47
:101070000C94CF070E9497230E9419090C943808FA
:10108000DF92EF92FF920F931F93CF93DF93E82F9E
:10109000F0E0E453FC4FD490282F26952695269512
:1010A00030E0F901E459FB4F0491877010E0082EFD
:1010B00002C0159507950A94E2F701701127F9010E
:1010C000E45AFB4FE490F12C082E02C0F594E7940B
:1010D0000A94E2F791E0E922FF24F901E45BFB4F77
:1010E000C491D0E002C0D595C7958A95E2F7C1704A
:1010F000DD270115110519F081EE0E948E09E1141A
:10110000F10419F086EE0E948E098D2D0E94730A5B
:10111000EF2819F086EE0E94060A012B19F081EEE5
:101120000E94060ACD2B51F08CE2DF91CF911F91E6
:101130000F91FF90EF90DF900C94730ADF91CF91A5
:101140001F910F91FF90EF90DF900895EF92FF9223
:101150000F931F93CF93DF93EC01162F0AE0888142
:10116000882309F454C0813009F04EC08981813050
:1011700099F47E0122E0E20EF11C8A810E94730A3A
:10118000E7012196812F815050F3EFE9FFE031977D
:10119000F1F700C00000F7CF823041F47E0182E019
:1011A000E80EF11C8A810E948E09EACF833041F457
:1011B0007E01E2E0EE0EF11C8A810E94060AE0CF79
:1011C000843011F02196DDCF2A81229690E080E0D4
:1011D000AE014F5F5F4F2053330B2A30310548F08B
:1011E000019778F2EFE9FFE03197F1F700C00000D6
:1011F000F7CF089FB001099F700D1124C901860F18
:10120000971F2981EA01E4CF0E944008BACFDF91FD
:10121000CF911F910F91FF90EF90089560E00C9493
:10122000A60808950C94110981E008950C941409FE
:101230000895CF93C82F0E9412098C2FCF910C9440
:101240001609CF93DF93CDB7DEB72B970FB6F8947F
:10125000DEBF0FBECDBF4F83588769877A878B87E4
:1012600061110E944B111E821D8285E0FE0137969E
:10127000DE01119601900D928A95E1F78C819D8196
:10128000892B89F449815A816B817C818D819E8172
:101290000E946C102B960FB6F894DEBF0FBECDBF28
:1012A000DF91CF91089589819A8189238F3F51F3EE
:1012B000CE0101960E948F078111E4CFEBCFFC0194
:1012C000808191810C940A0E0F931F93CF93DF932B
:1012D00000D000D000D0CDB7DEB7082F162F0E9467
:1012E000781B29834B835C836D837E83002399F075
:1012F000312B4981532F6B817C818D819E81269674
:101300000FB6F894DEBF0FBECDBFDF91CF911F9116
:101310000F910C94991B10953123EBCFCF93C82FCD
:10132000882309F471C08238C1F40E94972381FD9B
:101330006BC089E30E9406110E946E112FEF81EEAF
:1013400094E0215080409040E1F700C0000089E324
:101350000E940D11CF910C946E118338A1F40E945C
:10136000972380FD51C083E50E9406110E946E11F3
:101370002FEF81EE94E0215080409040E1F700C0D3
:10138000000083E5E5CF8438A1F40E94972382FD15
:101390003BC087E40E9406110E946E112FEF81EE80
:1013A00094E0215080409040E1F700C0000087E4C5
:1013B000CFCF8CEF8C0F813A90F46C2F8091040189
:1013C000909105010E940124882329F08C2F0E940E
:1013D0000D110E946E118C2F0E940611BBCF80E26E
:1013E0008C0F883048F4C77081E001C0880FCA951F
:1013F000EAF70E942E11AECFC03F30F08C2F0E9432
:101400000119CF910C94D419CF910895882309F430
:1014100052C0823871F40E94972381FF4CC089E347
:101420000E9406110E946E1189E30E940D110C9416
:101430006E11833859F40E94972380FF3CC083E5E6
:101440000E9406110E946E1183E5EFCF843859F493
:101450000E94972382FF2FC087E40E9406110E94FA
:101460006E1187E4E2CF9CEF980F913AF0F290E290
:10147000980F983050F4877091E001C0990F8A95C9
:10148000EAF7892F0E943411D2CF9BE5980F933051
:1014900020F490E080E00C94C32398E5980F9731F6
:1014A00020F490E080E00C94D923803F20F00E944B
:1014B0005B190C94D41908951F93CF93DF93182FC1
:1014C000EB010E948E09209731F4812FDF91CF919B
:1014D0001F910C94060A8FE99FE00197F1F700C075
:1014E00000002197F0CF70E060E0893311F460E5EF
:1014F00070E00C945C0A882321F00E942E110C9459
:101500006E110895882321F00E9434110C946E11FD
:101510000895BF92CF92DF92EF92FF920F931F93A5
:10152000CF93DF936C01D62FC72FFC011281F5807A
:10153000F2949FE0F9220E942411E82E8823B9F04A
:10154000E12E1123A1F08C2F807F803421F080E2E6
:101550008D0F8830D0F08091DC0282FD16C082E0D1
:101560000E94BF110E94241191E0E82EE926BC2EB2
:10157000B2948FE0B822FBE0FB1508F468C0EB2DB5
:10158000F0E0E05DF24D0C94B52CE12CF0CF0C2F87
:101590000F70C07F11F00295007F112399F0002396
:1015A00059F080E28D0F883010F0D11107C0802FE4
:1015B0000E942E110E946E118D2F41C0802F0E941B
:1015C0003E11F8CF8D2F0E94060A002309F43FC078
:1015D00080E28D0F883010F0D11104C0802F0E945E
:1015E000341103C0802F0E9444110E946E112FC03D
:1015F0000C2F0F70C07FC03211F00295007FDD23E9
:1016000081F0D13009F46AC0112309F474C0FF20BD
:1016100009F46AC0F601858180FFCECF8F70858383
:1016200063C08091DC0282FF39C0112359F000238E
:1016300029F0802F0E942E110E946E1180E00E94DE
:101640008E0905C080E00E94060A0111C7CF2B2D2C
:101650002850330B2430310520F40E9497230E9438
:101660001909EE2009F44CC10E94201180FD48C1E7
:10167000F60112820E941A110E94540DC6010E94A6
:10168000A10C0E941A11DF91CF911F910F91FF9031
:10169000EF90DF90CF90BF900C945F0D112389F0F5
:1016A000F11006C00E945111802B0E947B0ACFCFFF
:1016B00021E0F212F7CF0E945111802B0E945711A6
:1016C000C6CFF11006C00E946411802F0E94820ACA
:1016D000BECF31E0F31609F4BACFF5CF112331F0C4
:1016E00085E08F1508F4B3CF802FDFCF94E09F15EE
:1016F00008F4ADCFEACFFF2041F3D93349F4FFEF2F
:1017000027EE33E0F15020403040E1F700C0000008
:101710008D2F0E94060A9BCF8D2F112391F00E94DE
:101720000119ED2FE45FFF0BE530F10568F461E08E
:1017300070E001C0660FEA95EAF7812F0E94640904
:1017400086CF0E945B19EDCF0E94D41980CF8C2FD9
:10175000837079F511117BCF4D2F429546954770D7
:10176000440F440F8D2F8F70042E01C0880F0A94F0
:10177000EAF72D2F2071D4FF07C02FE030E001C021
:10178000220F4A95EAF72095C695C695C370822B1D
:10179000C23049F058F4C13019F00E94350D57CFCE
:1017A0000E94300D54CF0E943A0D51CF0E942E0D51
:1017B0004ECF8695112311F08C2F8170882309F468
:1017C00046CF4D2F429546954770440F440F8D2FBD
:1017D0008F70042E01C0880F0A94EAF72D2F207114
:1017E000D4FF07C02FE030E001C0220F4A95EAF78E
:1017F0002095C695C695C370822BC23049F058F427
:10180000C13019F00E947B0D22CF0E94760D1FCFB0
:101810000E94800D1CCF0E94430D19CFCF70112361
:1018200029F08C2F0E94540D8D2F3FCF8D2F0E94B9
:10183000820A8C2F0E945F0D0ACFD23F51F160F4D3
:10184000D03FB9F0D13F81F0112309F449C0F11024
:10185000B3CE8C2F8F7121C0D33F11F1D43FA1F7AC
:101860008091DC0282FF26C08C2F8F71112311F32F
:1018700014C0112349F0F4E0FF1508F4E8CE8C2FD2
:101880008F710E946B0DE3CE25E02F1508F4DFCE9B
:10189000F6CF8C2F8F711111CDCF0E94540DD7CE62
:1018A000112329F08C2F8F710E944C0DD0CE0E94F5
:1018B000490DCDCE112349F0CF718C2F0E94540DCC
:1018C00063E08C2F0E94A411C2CE81E00E94BF1160
:1018D00031E03F1508F0BBCE82E00E94BF11B7CEC9
:1018E000FF2059F0D93309F013CF8FEF97EEE3E0E3
:1018F00081509040E040E1F709CF8C2F8F719ACF53
:10190000DF91CF911F910F91FF90EF90DF90CF90DB
:10191000BF9008950F931F93CF93DF93EC016881DD
:1019200079818A810E94140E8C010E94850D0E948B
:101930002D0DB801CE01DF91CF911F910F910C9425
:10194000890ACF93DF93EC018B819C81892B29F04D
:101950008881998189238F3F59F4DF91CF91089530
:10196000CE010E948A0CCE01DF91CF910C94910799
:10197000CE010E94E0078111F3CF0E942411882339
:1019800061F38A81882349F38091DC0282FDE5CFEF
:1019900082E0DF91CF910C94BF110E944B110E9405
:1019A0004E110E946E110E94FB1A0C94D4190E94D1
:1019B00014110C94CD0C0E943B110C94D70CE92F00
:1019C000E295EF70E250EE3070F4F0E0E45CF24D3E
:1019D0000C94B52C803F19F020F4883E20F481E06F
:1019E0000895843FE1F380E00895883EC0F3813F8D
:1019F000D1F7F5CF93FB882780F90895FC0180810A
:101A000091810E940A0E0C94DF0CCF93DF9300D0DB
:101A100000D00F92CDB7DEB70F900F900F900F90C0
:101A20000F90DF91CF910895CF93DF9300D000D036
:101A300000D0CDB7DEB726960FB6F894DEBF0FBE46
:101A4000CDBFDF91CF91089508950C94240D0E948D
:101A5000250D8093FB010C94CD0C08950C94270D5B
:101A60009091FB01892B0C94270D9091FB01892308
:101A70000C94270D9091FB0189270C94270D0C9451
:101A8000240D0C943F0D0E94410D8093FA010C949B
:101A9000CD0C80E00C94430D91E001C0990F8A9524
:101AA000EAF7892F0C94430D21E030E001C0220FAA
:101AB0008A95EAF78091FA01822B0C94430D21E07C
:101AC00030E001C0220F8A95EAF720958091FA0153
:101AD00082230C94430D21E030E001C0220F8A954F
:101AE000EAF78091FA0182270C94430D9091FA0154
:101AF000892B0C94430D9091FA0189230C94430D8A
:101B00009091FA0189270C94430D0895E92FEE0F67
:101B1000EE0F9E0F890F982F977041E001C0440F80
:101B20009A95EAF786958695869593E0899FF001C8
:101B30001124ED52FE4F30E020E070E05191DF01C2
:101B40001197CB01022E02C0969587950A94E2F771
:101B5000817081958527842385278C932F5F3F4F44
:101B60002330310559F70895E92FEE0FEE0F9E0F40
:101B7000890F982F977086958695869523E0829F8A
:101B8000F0011124ED52FE4F50E040E080E0219141
:101B900030E0092E02C0369527950A94E2F72170AD
:101BA0003327042E01C0220F0A94EAF7822B4F5FDD
:101BB0005F4F4330510559F70895CF92DF92FF925E
:101BC0000F931F93CF93DF936C010091FA018091E3
:101BD000FB01082BC7E0D0E010E0FC2EC8010C2E62
:101BE00002C0959587950A94E2F780FD0CC0219775
:101BF000A0F7F12C8F2DDF91CF911F910F91FF90C6
:101C0000DF90CF900895B6018C2F0E948114019728
:101C100071F3F0CFCF93DF93EC010E94DD0DBE0195
:101C2000DF91CF910C9481141F93CF93DF93EB013D
:101C30009091D201992331F0CB01DF91CF911F9187
:101C40000C940A0E882379F0CB010E94DD0D182F29
:101C5000682FCE010E94860DBE01812FDF91CF91AA
:101C60001F910C948114CB010E94B40D182FF4CF56
:101C70001F93CF93DF93C091FC0116E08091FD018B
:101C80008C1304C0DF91CF911F910895D0E01C9F69
:101C9000F0011D9FF00D1124E250FE4F4081518153
:101CA00062817381848195810E94140D2196C77091
:101CB000E5CF40912E0250912F0260913002709139
:101CC000310280913202909133020C94140DFF92F4
:101CD0000F931F93CF93DF9380913302807FD1F4D2
:101CE000809130028823B1F08091FC011091FD01B8
:101CF00060912E0270912F02A0913102B0913202B8
:101D0000062F0723C0910201D091030196E0F92E1E
:101D1000181306C0DF91CF911F910F91FF90089586
:101D200090E0109711F00F3F19F401968770F0CFF3
:101D3000F89E9001F99E300D1124F901E250FE4FFA
:101D400041814713F2CF40814613EFCF42814111C9
:101D5000ECCF438154814A1B5B0B4C175D0728F77E
:101D6000809133028F70806180933302F901ED5FBF
:101D7000FD4F80818F70806180838EE292E00E94AF
:101D8000A10CDF91CF911F910F91FF900C94380E11
:101D9000AF92BF92CF92DF92EF92FF920F931F9379
:101DA000CF93DF93CDB7DEB761970FB6F894DEBF60
:101DB0000FBECDBF8C0185E0F801DE011D960190BC
:101DC0000D928A95E1F7F801E2808EE2C82E82E05A
:101DD000D82E60913102709132026115710509F4BB
:101DE0005FC190912E0220912F02892F82238F3F75
:101DF00009F456C140815181A380B480F090300233
:101E0000F501E61BF70BBF01E0910201F091030120
:101E1000FF2009F4F6C080913302382F307F6E170F
:101E20007F0708F0AFC0311179C0FE2C251323C005
:101E3000941321C0E1101FC08F7080618093330222
:101E40000E94590EC6010E94A10C80913302F80134
:101E500085838F2D61960FB6F894DEBF0FBECDBF80
:101E6000DF91CF911F910F91FF90EF90DF90CF9076
:101E7000BF90AF900895AB2829F0842F85238F3F22
:101E800009F027C180E0F82FF170DF2E80FF3CC001
:101E90008091FC012091FD0136E0821315C04D8731
:101EA0005E878D859E850E940A0E292F22952F70B0
:101EB0002230F0F0243018F59F70F1F0F801958190
:101EC000907FD1F4D12C1EC090E0389FF001399F53
:101ED000F00D1124E250FE4F6181651306C0608150
:101EE000641303C062816E110FC001968770D5CF55
:101EF0009F7011F0882331F3805E883018F3C80199
:101F00000E94A10CFD2CA5CFEE2009F4A2CF809158
:101F10003302816080933302F12C9BCF251306C0DE
:101F2000941304C0F801EE2009F487C0C8010E9490
:101F3000FE0C882319F1EE2009F1809133028032E2
:101F400070F020912E0230912F0238872F8319864E
:101F5000BB86AA868C87CE0107960E94A10C86E0DC
:101F6000F801AEE2B2E001900D928A95E1F70E948D
:101F7000670E0E94590EFF24F3946BCFC8010E9494
:101F8000A10CF9CF311113C07A2DB98AA88A6E2D10
:101F900089890E94050D8EE292E00E94A10C86E0E4
:101FA000F60111928A95E9F70E94590EB5CF2513D3
:101FB0000FC094130DC0E1100BC0F8018583C80158
:101FC0000E94A10C86E0F60111928A95E9F741CFB3
:101FD000C8010E94FE0C882389F2EE2079F28091DC
:101FE0003302803208F4BBCF20912E0230912F02B1
:101FF0003A8329831B82BD82AC828E83CE010196F7
:10200000ACCF6E177F0708F03EC0FE2CEE2009F41F
:10201000B5CF25132AC0941328C08091330280FDC8
:102020001BC0982F907FC1F0F8018583903F31F05D
:10203000982F907F905F8F70892B8583C8010E94B5
:10204000A10C86E0F801AEE2B2E001900D928A9513
:10205000E1F70E94590EFDCE86E0F801AEE2B2E053
:1020600001900D928A95E1F7F4CEC8010E94FE0C12
:10207000811175CF80913302816080933302C80152
:102080000E94A10CE6CE7A2DB98AA88A6E2D898984
:102090000E94050D86E0F60111928A95E9F7D9CFE5
:1020A000EE2009F46BCFC8010E94FE0CF82E8823A5
:1020B00009F464CF86E0F801AEE2B2E001900D923F
:1020C0008A95E1F78EE292E00E945F090E94670E16
:1020D000C0CF81E08E25D7CE1F93CF93DF93CDB7AE
:1020E000DEB72C970FB6F894DEBF0FBECDBF4F837F
:1020F000588769877A878B879C87CE0107960E94CD
:10210000C80E882369F08A859B85892B39F04F8119
:102110005885842F85238F3F09F071C016E05FC07A
:1021200086E0FE013796DE01119601900D928A95A8
:10213000E1F78A859B85892B89F38F81988589238F
:102140008F3F61F32091FD0130E0C9010196877056
:1021500099274091FC014817190671F40E94DB0C85
:102160001092FD011092FC0186E0EEE2F2E0DF0148
:102170001D928A95E9F7D2CF96E0929FD001939F66
:10218000B00D1124A250BE4FFE01319601900D9268
:102190009A95E1F78093FD010E94380EBFCF819F91
:1021A000C001112482509E4F0E94C80E8823E9F07E
:1021B000E091FC011E9FF0011124E250FE4F40818E
:1021C000518162817381848195810E94140D809177
:1021D000FC0190E00196877099278093FC01809123
:1021E000FC019091FD018913DACF2C960FB6F8947B
:1021F000DEBF0FBECDBFDF91CF911F9108956985DE
:102200007A858B859C850E94140D88CF682F8091DC
:102210000401909105010C943724682F80910401EA
:10222000909105010C94392480910401909105014D
:102230000C943B248091340285958595859508956D
:10224000809134028770089590913402977081E0F4
:1022500009F480E008958091400208959091400231
:10226000892B809340020895809590914002982395
:1022700090934002089510924002089590913F0279
:10228000892B80933F020895809590913F02982377
:1022900090933F02089510923F02089510923E02DB
:1022A000089580913502089508950C9454119091E9
:1022B000DC0292FD08C090913502981721F08093BE
:1022C00035020C945511089580913502882329F028
:1022D0001092350280E00C9455110895E0910401AC
:1022E000F0910501809140028083E0910401F0911A
:1022F0000501808190913F02892B8083E091040148
:10230000F0910501808190913E02892B808390910C
:102310003502992381F0E0910401F091050180815B
:10232000892B808380910401909105010E94EF2305
:1023300081110E94641180910401909105010C9417
:10234000AA2308950C94A1119091DC0292FD10C073
:1023500098E0899F90011124622B609334020E94BF
:10236000540D809134028595859585950C94A21124
:102370000C94540D1092340280E00C94A2119091B0
:1023800034028095892380933402282F277091F49A
:10239000282F082E000C330B9217130659F090913A
:1023A000DC0292FD07C08595859585950E945F0D9D
:1023B0000C94BA1108959091DC0292FB222720F927
:1023C000281769F080FB92F99093DC028091DB0280
:1023D0009091DC020E94261282E00C94BF110895B5
:1023E0008091DC0282FB882780F991E089270C9498
:1023F000DB1181E00C94DB1180E00C94DB116FEFBA
:102400007FEF90E080E00C94182D90E080E00E9437
:10241000F42C893E9E4F11F40C94B81B80E0089573
:1024200082E090E00C94EC2C83E090E00C94EC2C97
:10243000CF9384E090E00E94EC2CC82F82E290E0E1
:102440000E94EC2C982F8C2FCF910895CF93C92FF9
:10245000682F84E090E00E94FA2C6C2F82E290E0DA
:10246000CF910C94FA2CAB01BC018FE090E00C945E
:102470000C2DAB01BC0183E190E00C940C2D60E0CD
:1024800070E0CB010C94391260E070E0CB010E9447
:1024900033120C943F1269EE7EEF90E080E00E94D0
:1024A000182D60E082E090E00E94FA2C60E083E06A
:1024B00090E00E94FA2C1092FB0160E084E090E032
:1024C0000E94FA2C60E082E290E00E94FA2C60E028
:1024D00085E090E00E94FA2C60E086E090E00E94A7
:1024E000FA2C6FEF87E090E00E94FA2C40E050E079
:1024F000BA0188E090E00E940C2D60E08DE090E051
:102500000E94FA2C40E050E0BA0188E190E00E947D
:102510000C2D60E087E190E00E94FA2C40E050E052
:10252000BA018CE190E00E940C2D70E060E080E246
:1025300090E00E94182D40E050E0BA0188E190E060
:102540000E940C2D80E00E94D11B0E94F71B0C946E
:1025500044120C944B12682F8EE090E00C94FA2CED
:102560000E94DE2460935E0270935F02809360029B
:102570009093610260935A0270935B0280935C02B5
:1025800090935D0208950E94DE2460935E02709332
:102590005F02809360029093610260935602709391
:1025A00057028093580290935902089585B7806826
:1025B00085BF85B7806885BF0895089508950C94F8
:1025C000DD1208950C94E1120E94D61280EA95E182
:1025D0000E948D230E94DE120C94DF120C940B16C5
:1025E000089508950E94F0120C94F1120E94C924DB
:1025F0000E945F150E94061C0E945D030E94FF1C42
:102600000E94D21F0E94D4060C94E212AF92BF9295
:10261000CF92DF92EF92FF920F931F93CF93DF93AE
:10262000CDB7DEB72A970FB6F894DEBF0FBECDBF89
:102630000E94290481110E94B01282E4A82E82E037
:10264000B82E10E000E0C02E802F0E945603E82E26
:10265000F501F1905F01F81609F455C0809162020E
:1026600081FD0E945C038F2D8E25D12CFF24F394D5
:10267000982F9F2109F442C00E94EE12882399F0FE
:10268000DE82CF82EF2081E009F480E088870E941B
:10269000D2248160782F9A8789874E815F816885EF
:1026A0008A850E942109F801EE5BFD4F8081F826A2
:1026B000F0820E94EB1F81110E94C3120E94EF1949
:1026C0000E94D6060E94972390914102891791F1AA
:1026D0000E949723809341022A960FB6F894DEBF9A
:1026E0000FBECDBFDF91CF911F910F91FF90EF9063
:1026F000DF90CF90BF90AF900C941909D394FF0C4A
:10270000F5E0DF12B5CF0F5F1F4F0431110509F05F
:102710009ACF8FEF89838A831B820E94D2248160A3
:10272000782F9D838C8349815A816B818D810E9492
:102730002109BFCF2A960FB6F894DEBF0FBECDBFDA
:10274000DF91CF911F910F91FF90EF90DF90CF908D
:10275000BF90AF900895CF93DF930E948514EC0152
:10276000811522E5920778F5811531E5930708F088
:1027700098C08F3F910509F0B8F4803F910508F0AB
:102780006FC0853A910540F48430910548F4019773
:1027900039F0D0E0C0E004C0805E91090897C8F726
:1027A000CE01DF91CF910895811540E5940708F09F
:1027B0005CC0C11580E4D80708F054C0C11590E290
:1027C000D90770F3E6CF811526E5920718F5811534
:1027D00035E5930708F07DC0811544E5940708F0BE
:1027E00073C0982F969596959E0123703327C11537
:1027F000D34508F45BC0C1E0D0E002C0CC0FDD1FC0
:102800002A95E2F730E2939FC0011124C82BD92BFF
:10281000DA68C6CFC1159AE5D90778F4C11529E55C
:10282000D20708F060C0C11538E5D30708F4B1CF6E
:10283000DC2FCC27C06FD06AB3CFCE019056811564
:10284000904208F0A6CF8D2F8F710E941C1590E04A
:10285000982F882788279F719C012C2BE90141C064
:10286000D0659ECFDF70D06A9BCFE4E096958795C8
:10287000EA95E1F783702C2F26952695237090E238
:10288000299F90011124382B8C2F8370C1E0D0E058
:1028900002C0CC0FDD1F8A95E2F7C22BD32BDC6878
:1028A0007FCFD82FCC27C16FD06A7ACFC1E0D0E0DC
:1028B00002C0CC0FDD1F2A95E2F720E2929FC001F3
:1028C0001124C82BD92BEBCFD82FCC27C46FD06ABB
:1028D00067CF0E941C15C82FD0E0DC2FCC27CC2757
:1028E000DF71D0625DCF8C2F8F700E941C1534E099
:1028F000D695C7953A95E1F7CF709C2FEC01D0693A
:102900004FCF0E94091F0C94AB1382389105B1F18F
:10291000B0F48133910509F475C048F4893291050A
:1029200009F469C08A32910509F473C008958533AA
:10293000910509F459C08933910501F10895833E49
:102940009105A9F138F4803E9105F9F0823E910598
:1029500049F10895863E9105A9F1873E9105C9F197
:10296000843E910519F52091DC0221FF1FC0809162
:10297000DB0284FD14C087EE90E008952091DB0215
:102980002370A1F080EE90E008952091DB0220FDFD
:1029900047C03091DC0230FF09C024FF44C090E002
:1029A00080E004C02091DB0222FDF7CF0895209142
:1029B000DB0222FD3BC03091DC0230FDE3CF24FF7F
:1029C000F5CFEDCF2091DB0223FFF0CF24FDE7CF41
:1029D000D2CF2091DB0223FD2CC03091DC0231FFED
:1029E000EECF84EE90E008952091DB0225FFDECF4C
:1029F00089E290E008952091DB0225FFD7CF85E39F
:102A000090E008952091DB0226FFD0CF8AE290E08B
:102A100008952091DB0226FFC9CF81E390E008955D
:102A200089E390E0089583EE90E0089582EE90E0CF
:102A3000089586EE90E008959091DB0292FF06C023
:102A4000282F28712830F9F4877F846093FF06C00F
:102A5000282F28712831F1F4877E84612091DC02CF
:102A600020FF06C0382F38713830D9F4877F816055
:102A700021FF06C0282F28712831D1F4877E81617B
:102A800094FD877E0895282F24712430F9F68B7FDA
:102A90008860DCCF282F2471243101F78B7E886178
:102AA000DDCF382F3171313019F78E7F8860E0CF5C
:102AB000282F2171213121F78E7E8861E1CF10927C
:102AC000D7021092D8021092D9021092DA02089519
:102AD000CF92DF92EF92FF926B017C010E940B1666
:102AE00081110EC00E94DE24C61AD70AE80AF90A2C
:102AF000C092D702D092D802E092D902F092DA02C4
:102B0000FF90EF90DF90CF9008950F931F930E9456
:102B10000B16882321F01F910F910C94DE240E9444
:102B2000DE240091D7021091D8022091D902309171
:102B3000DA02600F711F821F931F1F910F9108957A
:102B400080E008950C94FF110E9429048FE39CE912
:102B50000197F1F700C000000E94290480E00E9464
:102B6000560380FF04C00E94A2150C9439250895D5
:102B70000C94A4150E940512811102C00E94A91292
:102B80000E941012809362020E9418129093DC023D
:102B90008093DB020E94B8150E9414120E942E0D31
:102BA0008091FA010C94410D0895FF920F931F93A9
:102BB000CF93DF93F82E092F162FD72FC42F222360
:102BC00049F081E0809365020E94D22490936402D0
:102BD00080936302809165028823A1F08091630253
:102BE000909164020E94EA24059760F0EF2DF02F87
:102BF000A12FBD2FCE0FDF2FD11DEC17FD0741F404
:102C000010926502DF91CF911F910F91FF9008956F
:102C100081918D93F2CF80916602811107C00E944D
:102C2000942C882351F081E08093660281E090919A
:102C30006602913009F080E0089582E08093660298
:102C40000E948F2CF3CF0C940B160E9423168093B6
:102C500006010E940B1681110C943D1608950E94E6
:102C60000B16811102C00C943F16089581E09091DB
:102C700067029A3008F080E008950C94CC210C94FF
:102C8000CF21EF92FF920F931F93CF93DF937901A0
:102C9000C82F880FDD0B41155105A9F08AE08C9FE4
:102CA000F0018D9FF00D1124E95FFE4F8381948127
:102CB00088599D4F228130E04217530708F49A014A
:102CC000A9010E94E32CCE010E94D922892B11F583
:102CD00001151105E9F08AE08C9FF0018D9FF00D40
:102CE0001124E95FFE4F458150E00417150708F4F1
:102CF000A8018AE08C9FF0018D9FF00D1124E95FFF
:102D0000FE4F6681778168597D4FC7010E94E32C91
:102D100081E001C080E0DF91CF911F910F91FF9082
:102D2000EF9008950C94F1170C9415180F931F93BE
:102D3000CF93DF9300D000D0CDB7DEB760918F0284
:102D40007091900280919102909192020E94F924D8
:102D500011E0643671058105910518F10E94851511
:102D60006E5F7F4F8F4F9F4F69837A838B839C83E6
:102D700010E000E030E020E044E050E0BE016F5F92
:102D80007F4F84E00E944116182F882351F00E9443
:102D9000DE2460938F02709390028093910290934F
:102DA0009202812F0F900F900F900F90DF91CF9193
:102DB0001F910F9108957F928F929F92AF92BF9231
:102DC000CF92DF92EF92FF920F931F93CF93DF93F7
:102DD0000F92CDB7DEB7762E4A015901680101E0A6
:102DE00010E09E012F5F3F4F50E040E070E060E058
:102DF0000E944116182F882309F43EC0F401608117
:102E00007181828193810E94F92464367105810564
:102E1000910558F18701950150E040E070E060E0D5
:102E2000872D0E944116B82EB701C6010E94001DD1
:102E300011E09981981310E01B2139F00E94DE24E3
:102E4000F4016083718382839383812F0F90DF91DC
:102E5000CF911F910F91FF90EF90DF90CF90BF9097
:102E6000AF909F908F907F900895B701C6010E9408
:102E7000001D99818913CECFA701B601C5010E941B
:102E8000E32CE3CFEF92FF920F931F93CF93DF9347
:102E90000F92CDB7DEB700916B0110916C01045F0A
:102EA0001F4FEE24E394F12C9E012F5F3F4F4BE820
:102EB00052E063E082E00E94DB16182F882321F0A5
:102EC000CE0101960E944420812F0F90DF91CF9177
:102ED0001F910F91FF90EF900895CF92DF92EF92A4
:102EE000FF920F931F93CF93DF93CDB7DEB72A974F
:102EF0000FB6F894DEBF0FBECDBF6B0100916B0122
:102F000010916C010F5F1F4F8AE0E82EF12C9E019B
:102F10002F5F3F4F47E852E061E080E00E94DB1600
:102F2000882349F09AE0FE013196ADE7B2E00190C6
:102F30000D929A95E1F79AE0EDE7F2E0D601019063
:102F40000D929A95E1F72A960FB6F894DEBF0FBE60
:102F5000CDBFDF91CF911F910F91FF90EF90DF9048
:102F6000CF900895AF92BF92CF92DF92EF92FF92EF
:102F70000F931F93CF93DF937C015B016A010E9443
:102F8000361601E010E0882311F00AE010E0C1E0FD
:102F9000D0E0F894B501C701F60109957894811144
:102FA00004C021960C171D075CF4DF91CF911F918F
:102FB0000F91FF90EF90DF90CF90BF90AF9008956A
:102FC000CC9F9001CD9F300D300D112490E080E01A
:102FD00045E34A95F1F70000019682179307C1F780
:102FE000D8CF0F931F93CF93DF93EC018B014DE666
:102FF00057E10E94B217882391F042E457E1B801EB
:10300000CE010E94B217882351F046E956E1B8017B
:10301000CE01DF91CF911F910F910C94B21780E0F8
:10302000DF91CF911F910F9108950F931F93CF932D
:10303000DF930F92CDB7DEB7F89400916B0110913A
:103040006C01C80101962AE0FB01DC0101900D92A0
:103050002A95E1F76AE070E00E94001DF801808384
:103060007894F894CE0101960E943B208981F80162
:10307000848761E070E0CE0101960E94001DF80196
:1030800083877894F8946585768587859089009103
:10309000790210917A0220917B0230917C026017B4
:1030A00071078207930751F06093790270937A0257
:1030B00080937B0290937C020E94681578940F9015
:1030C000DF91CF911F910F9108950E94DE260E94FB
:1030D000F6120C94EA260E94EE260E9406130C9427
:1030E00008270E945C240E94C5260E94E4120E94C8
:1030F00065180E946B180E94F212FBCF8091990212
:1031000080FF12C060913E0185E0689FB0011124EC
:10311000759567957595679560387105A8F5611582
:103120007105A1F1862F089581FF09C060913E01CC
:1031300085E0689FB001112475956795EDCF60918A
:103140003E0182FD0AC0809198028823D1F09091BF
:103150003D0160913E01891728F085E0689FB0012C
:103160001124DACF869FB001112485E0869F90015B
:10317000879F300D1124692F70E0C9010E94A12C96
:10318000CBCF65E070E0CECF8FE7089581E0089562
:103190008091990280FF0CC060913A0170E07595B2
:1031A0006795759567956115710549F1862F0895A5
:1031B00081FF06C060913A0170E075956795F3CF85
:1031C00060913A0182FD0BC0909197029923A1F082
:1031D0006091390180913A01961738F0682F70E0BC
:1031E0006038710500F38FE70895899FC0011124AD
:1031F00070E00E94A12CF4CF61E070E0D7CF81E0B5
:103200000895803F31F40E947E18819580939D023D
:103210000895813F19F40E947E18F8CF823F31F45F
:103220000E947E18819580939C020895833F19F433
:103230000E947E18F8CF893F29F40E94C818809315
:103240009E0208958A3F21F40E94C8188195F7CF05
:103250008B3F31F40E94C818819580939F02089596
:103260008C3F19F40E94C818F8CF9CE0980F953055
:1032700070F4845F990B21E030E001C0220F8A9541
:10328000EAF780919B02822B80939B0208958D3FE9
:1032900031F48091990281608093990208958E3F64
:1032A00021F4809199028260F7CF8F3FB9F7809126
:1032B00099028460F1CF40919C02803F59F4809143
:1032C0009D0287FF0DC010929D0241110BC010920C
:1032D000980208C0813F81F480919D0218169CF3EA
:1032E000442381F080919E0290919F02892B09F0E6
:1032F0005AC0109297020895823F49F447FFF0CFD9
:1033000010929C0280919D028111ECCFE0CF833F0F
:1033100019F41416ACF3E4CF90919E02893F29F47E
:103320001916F4F610929E02DBCF8A3F19F497FF2C
:10333000D7CFF8CF90919F028B3F29F497FFD0CF42
:1033400010929F02CDCF8C3F19F41916CCF3C8CF41
:103350009CE0980F953090F4845F990B21E030E069
:10336000B90102C0660F771F8A95E2F7CB018095FD
:1033700090919B02892380939B02B2CF8D3F31F4C1
:10338000809199028E7F80939902AACF8E3F21F47B
:10339000809199028D7FF7CF8F3F09F0A1CF809167
:1033A00099028B7FF0CF08950E94D2249C019091C6
:1033B0009C0280919D02982B21F0309396022093DD
:1033C000950290919E0280919F02982B21F030935C
:1033D0009402209393028AE992E00C94B523EF9231
:1033E000FF920F931F93CF93DF9300D000D000D0B4
:1033F000CDB7DEB786E0EAE9F2E0DE011196019092
:103400000D928A95E1F7E0909C02F0909D02009168
:103410009E0210919F0210929C0210929D021092A7
:103420009E0210929F028E2D8F2991F0809195021D
:10343000909196020E94EA24AC01909198029923FF
:1034400009F43FC080913F018417150608F447C076
:10345000802F812B91F080919302909194020E9491
:10346000EA24AC0190919702992309F477C08091E6
:103470003B018417150608F47FC080919C0290914F
:103480009D02892B90919E02892B90919F02892BFE
:1034900011F00E94D41986E0FE013196AAE9B2E04B
:1034A00001900D928A95E1F726960FB6F894DEBF4B
:1034B0000FBECDBFDF91CF911F910F91FF90EF9085
:1034C0000895209140018AE0289F9001112424173B
:1034D000350708F0BDCF9F5F9093980202C09F3FD1
:1034E000D1F7EE2059F00E947E189FEF1E140CF4C5
:1034F00091E0899F802D112480939C02FF2059F038
:103500000E947E189FEF1F140CF491E0899F802D7C
:10351000112480939D0230919C02332309F498CFAB
:1035200020919D02222309F493CF45EB3403C0017F
:103530001124992359F090939C0245EB24039001A8
:103540001124332339F030939D0282CF81E08093A0
:103550009C02F3CF81E080939D027ACF20913C01C1
:103560008AE0289F900111242417350708F085CFA1
:103570009F5F9093970202C09F3FD1F7002359F0BD
:103580000E94C8189FEF10160CF491E0899F802DBF
:10359000112480939E02112359F00E94C8189FEFB6
:1035A00011160CF491E0899F802D112480939F02C5
:1035B00030919E02332309F460CF20919F02222391
:1035C00009F45BCF45EB3403C0011124992359F072
:1035D00090939E0245EB240390011124332339F08C
:1035E00030939F024ACF81E080939E02F3CF81E027
:1035F00080939F0242CF86E0EAE9F2E0DF011D926C
:103600008A95E9F710929802109297021092990207
:103610000895EF92FF920F931F93CF93DF93CDB74F
:10362000DEB72C970FB6F894DEBF0FBECDBF49832F
:103630005A836B837C838D839E83EF82F886098710
:103640001A872B873C8746E050E0BE01695F7F4FB9
:10365000CE0101960E94D62C21E0892B09F420E0AE
:10366000822F2C960FB6F894DEBF0FBECDBFDF9130
:10367000CF911F910F91FF90EF900895EF92FF92DD
:103680000F931F93E090A002F090A1020091A2027C
:103690001091A3022091A4023091A5024091A602AC
:1036A0005091A7026091A8027091A9028091AA028C
:1036B0009091AB020E94091B882321F086EA92E0D8
:1036C0000E94B5231092A8021092A9021092AA0299
:1036D0001092AB0286E0E6EAF2E0A0EAB2E00190E6
:1036E0000D928A95E1F71F910F91FF90EF90089549
:1036F000CF93DF9300D000D000D0CDB7DEB786E007
:10370000E6EAF2E0DE01119601900D928A95E1F76A
:1037100029813A814B815C816D817E8180E090E0DE
:1037200026960FB6F894DEBF0FBECDBFDF91CF91C6
:103730000895CF93DF9300D000D000D0CDB7DEB78F
:1037400049835A836B837C838D839E8386E0FE014D
:103750003196A6EAB2E001900D928A95E1F726969D
:103760000FB6F894DEBF0FBECDBFDF91CF910895A5
:1037700083E290E00E94EC2C823289F484E290E0B3
:103780000E94EC2C813059F485E290E00E94EC2CF0
:1037900091E0823009F090E0892F8170089580E0F7
:1037A000FCCFCF93C82F6FEF811162E283E290E0EC
:1037B0000E94FA2C6FEFC11161E084E290E00E9458
:1037C000FA2C6FEFC11162E085E290E0CF910C948A
:1037D000FA2C089586E290E00E94EC2C682F70E0AD
:1037E00090E080E0089586E290E00C94FA2C80E06E
:1037F0000E94D11B60E070E0CB010E94F31B0E948D
:10380000811E0E946B1F81E00C94D11B0E94E91B5A
:103810000E94B81B811102C00C94F71B0895CF932E
:10382000FB01C281CC2309F19C0122513F4520318B
:10383000310520F582510E947B1FC0E08C2FCF9173
:10384000089581E00E94540D43E062E081E00E940F
:10385000B907F3CF81E00E945F0D43E062E081E0B1
:103860000E94B907EBCF82E0F6CF8031FFE59F07DA
:1038700089F381319F45B9F3C1E0E0CF8031EFE5B5
:103880009E07F9F281319F45C9F682E0DBCF2FEF29
:10389000FC0120830895EF92FF920F931F93CF9323
:1038A000DF93EC01062FE881E150E33108F05EC0C0
:1038B000F0E0E65BF24D0C94B52C198289E08A8326
:1038C000602FCE01DF91CF911F910F91FF90EF906C
:1038D0000C949E258981823069F0833071F08130AB
:1038E000D9F40E94DE240E94BB2C6A837B838C83E4
:1038F0009D83E6CF0E94EA1BF6CF7E0182E0E80EB0
:10390000F11C10E0812F0E945603F70181937F0183
:103910001F5F1431B9F7D4CF602FCE010E94471C2E
:10392000CFCF89818230C1F76A817B818C819D8173
:103930000E94BB2C0E94F31BC3CF4B816A818981FB
:103940000E94531E9827892798279D838C83B8CF80
:103950002C813D813227232732274B816A8189813F
:103960000E946C1EADCF0E94811EAACF8FEF88836C
:10397000A7CF0E94161F8983A3CF0E94181F9827E4
:10398000892798279A8389839BCF6B8170E08981EF
:103990009A81AE014C5F5F4F9827892798270E9434
:1039A0001B1F8ECF6B8170E089819A81AE014C5FC5
:1039B0005F4F9827892798270E94411F81CF0E9437
:1039C0006B1F7ECF0E94411ED6CF6B8170E0898134
:1039D0009A81AE014C5F5F4F9827892798270E94F4
:1039E000B91E6ECF6B8170E089819A81AE014C5F08
:1039F0005F4F9827892798270E94DF1E61CF08957F
:103A0000FC01680F791F8FEF91E36E177F0709F4B0
:103A100008952191822728E030E087FF06C0880FB3
:103A2000892721503109C9F7F0CF880FFACFCF93FA
:103A3000DF93EC01FB018281882309F420C1C330AC
:103A4000FDE5DF07C8F5CA3F9CE5D90730F49E01C4
:103A500022503C452431310598F50E94181290936C
:103A6000DC028093DB02C031FCE5DF0709F4E0C033
:103A700008F061C0C8309CE5D90709F4CBC088F5CF
:103A8000C430FCE5DF0709F4B3C0E8F4C2309CE5BC
:103A9000D90709F4A7C08091DB028260C330DC45FE
:103AA00009F4A3C08091DB029091DC020E942612EF
:103AB0000E94DB0C80E004C0C136EDE5DE0769F250
:103AC000DF91CF9108958091DB028061C630FCE5E3
:103AD000DF0709F48AC008F48FC08091DB0280629E
:103AE00084C08091DB028D7FCC309CE5D90709F43E
:103AF0007CC070F48091DB028C60CA30FCE5DF078B
:103B000009F473C008F48AC08091DB028E7F6DC017
:103B10008091DB02877FCE309CE5D90709F465C030
:103B20008091DB028B7FCF30DC4508F45EC0809152
:103B3000DB028F7E5AC0CC3FFCE5DF0709F474C07E
:103B400040F5C4319CE5D90709F48AC058F4C23164
:103B5000FCE5DF0709F474C008F46EC08091DB0255
:103B6000837F43C0CA3F9CE5D90709F449C008F0E8
:103B70004DC0C531DC4509F095CF8091DB0282FB59
:103B8000992790F921E0922790FB82F990FB83F925
:103B90002CC0C1158DE5D80709F458C088F4809170
:103BA000DC028360CE3FECE5DE0769F18091DC0248
:103BB0008D7FCF3FDC4538F18091DC028C7F23C0C4
:103BC000C2308DE5D80709F458C008F452C0C13698
:103BD000DD4509F067CF9091DB02892F8F7E94FF3E
:103BE000806103C08091DB0281608093DB025ACF49
:103BF0008091DB028460F9CF8091DB028860F5CF91
:103C00008091DC0281608093DC024CCF8091DC02E9
:103C10008260F9CF8091DB028064E7CF0E94DB0CE9
:103C20008091DB028068E1CF8091DC028E7FEBCF58
:103C30008091DB028F7DD9CF8091DB028F7BD5CF46
:103C40000E94DB0C8091DB028F77CFCF8091DC026A
:103C5000982F909591708E7F892B90FB81F9D3CF0F
:103C60000E94DB0C9091DB02892F97FB87F980582B
:103C7000BCCF81E00E94AB1215CF80E0FBCF81E08A
:103C80001FCF84E0089550E0440F551F9AE0699FCC
:103C9000400D511D112498EC899F400D511D112498
:103CA000CA01879608950F931F93CF93DF930E94C5
:103CB000431E8C010E94EC2CC82FD0E0DC2FCC27B7
:103CC000C80101960E94EC2C9E01282BC901DF91AE
:103CD000CF911F910F9108950F931F93CF93DF936F
:103CE000122F032F0E94431EEC01602F0E94FA2C1A
:103CF000612FCE010196DF91CF911F910F910C940E
:103D0000FA2CAF92BF92CF92DF92EF92FF921F9365
:103D1000CF93DF938CEAC82E80E0D82ED0E07601D6
:103D2000C0E014C0F50125913491412F6C2F8D2FE7
:103D30000E946C1E82E0A80EB11C1F5F153091F727
:103D40008AE0E80EF11CCF5FC43119F0570110E092
:103D5000E9CFDF5F88ECC80ED11CD43001F7DF91CA
:103D6000CF911F91FF90EF90DF90CF90BF90AF90D9
:103D70000895EF92FF920F931F93CF93DF93EC017F
:103D80008A017C01E60EF71ECE018796CE15DF056F
:103D900039F4DF91CF911F910F91FF90EF9008952B
:103DA000C03223E0D20740F40E94EC2CF80180835B
:103DB0000F5F1F4F2196E8CFF8011082F9CFCF9205
:103DC000DF92EF92FF920F931F93CF93DF937C01CB
:103DD0006A018C01060F171FEC01CE018796C017F0
:103DE000D10749F4DF91CF911F910F91FF90EF9090
:103DF000DF90CF900895C03223E0D20740F4FE0157
:103E0000EE19FF09EC0DFD1D60810E94FA2C219630
:103E1000E4CF462F843038F4743128F4653018F438
:103E2000672F0C94531E90E080E0089580E1089580
:103E300089EB90E00895EF92FF920F931F93CF9339
:103E4000DF93EC018A017C01E60EF71ECE01895B4F
:103E50009C4FCE15DF0539F4DF91CF911F910F9163
:103E6000FF90EF900895C93BD10540F40E94EC2CDF
:103E7000F80180830F5F1F4F2196E8CFF801108271
:103E8000F9CFCF92DF92EF92FF920F931F93CF93D0
:103E9000DF937C016A018C01060F171FEC01CE0134
:103EA000895B9C4FC017D10749F4DF91CF911F91D7
:103EB0000F91FF90EF90DF90CF900895C93BD1050F
:103EC00040F4FE01EE19FF09EC0DFD1D60810E941A
:103ED000FA2C2196E4CFCF93DF93C7E4D3E060E0E0
:103EE000CE010E94FA2C2196C11584E0D807B9F7BB
:103EF000DF91CF910895DF92EF92FF920F931F937E
:103F0000CF93DF9300D000D0CDB7DEB7F82E8FE08F
:103F10008F1540F08FEF93E00E94EC2C07E413E044
:103F20008823C1F00F900F900F900F90DF91CF91E9
:103F30001F910F91FF90EF90DF900895011584E09D
:103F4000180781F3C8010E94EC2C811101C0FA947A
:103F50000F5F1F4FF110F2CF19821A821B821C8251
:103F6000DD24D39478018FEFE81AF80AC8010E9483
:103F7000EC2C89831A828823A9F29FEF980F933043
:103F800078F48A83D9820E5F1F4FC7010E94EC2C00
:103F90008B83882339F2CE0101960E940E09E2CF6D
:103FA0008701F9CF54985C9A84988C9A89B182954C
:103FB00081707C990EC090E0892B8093B102909122
:103FC000060181E098279093AD02891B8093AC0293
:103FD000089592E0F1CFCF93E091B102EE0FEE0F92
:103FE000E093B10249B144FB882780F94FB144FB0B
:103FF000222720F944FF02C022E030E0822BE82B88
:10400000E093B102C091AD02EF70F0E0E359FE4FD2
:1040100080819091B002890F8093B00220E08430BB
:1040200064F0EC2FF0E0E255FD4F80818F5F8083DC
:1040300060E08C2F0E945A0621E08091B0028D3FF3
:1040400064F4EC2FF0E0E255FD4F808181508083D5
:1040500061E08C2F0E945A0621E08091B002082E68
:10406000000C990B64E070E00E94A12C8093B002D8
:10407000822FCF910895E091AD02F0E0E255FD4F1F
:104080002081FC0120830895FF920F931F93CF930B
:10409000DF93D091AC020D2F10E002551D4FFC01B3
:1040A000C081F8018081C81BFC2E80E01F147CF0C9
:1040B0009C2FC7FD90E0C91BC11114C08823E9F0F3
:1040C000DF91CF911F910F91FF900C94C312FA943E
:1040D000F80180818F5F808360E08D2F0E945A06F7
:1040E00081E0E4CFCF5FF80180818150808361E07F
:1040F0008D2F0E945A0681E0DFCFDF91CF911F9173
:104100000F91FF900895CF93DF93EB0186319C458B
:1041100011F50E942B119A81992399F08A7A91E0E6
:1041200009F490E09093B202811109C089E20E94E3
:1041300006110E946E1180E0DF91CF91089585E312
:10414000F6CF8091B202811104C089E20E940D1164
:10415000F0CF85E3FBCF81E0EFCF0F931F93CF9399
:10416000DF93C42FD22FFC0182818823C9F04093B2
:10417000B5020E94D2249093B4028093B30280E2ED
:104180008C0F883008F050C0C77081E001C0880FE4
:10419000CA95EAF7DF91CF911F910F910C947B0A9A
:1041A0001091B502141335C08091B3029091B402FE
:1041B0000E94EA24883C910560F5C0E2CD0F1D17EE
:1041C000B9F080E2810F883040F4177081E001C0BF
:1041D000880F1A95EAF70E94820AC83048F481E0F5
:1041E0009D2F977001C0880F9A95EAF70E947B0A6D
:1041F000802F0E94730AC830B8F4D77081E001C0E4
:10420000880FDA95EAF7DF91CF911F910F910C9407
:10421000820A80E28C0F883038F4C77081E001C0D8
:10422000880FCA95EAF7EFCFDF91CF911F910F91D9
:1042300008950F939C01CB01233F4CE5340759F1BE
:10424000A8F4283DFCE53F0701F1293D4CE5340782
:10425000D1F1273D3C4591F406E221EE41EE67EDB8
:104260007CE50E94AD2080E00F910895253FFCE59C
:104270003F07E9F0B0F0263F3C45F9F0FC018281B0
:10428000882339F11092B502EFCF07E225EE45EE13
:1042900068ED7CE5E6CF06E221EE40EE63EF7CE5DB
:1042A000E0CF07E225EE44EE64EF7CE5DACF06E2EC
:1042B00021EE42EE65EF7CE5D4CF07E225EE46EE37
:1042C00066EF7CE5CECF08E221E045EE69ED7CE5C6
:1042D000C8CF81E0C9CF8EE14A9B02C08150E1F78F
:1042E0004A9BFECF08955A9880E28A95F1F75A9A30
:1042F0000895FC013BE03A95F1F798E020E080E07A
:1043000031E040E14A95F1F7880F4A9B02C0816095
:10431000232742E04A95F1F7000040E14A95F1F782
:10432000915079F790E19A95F1F799B132E03A9589
:10433000F1F7000040E14A95F1F792FB992790F9D7
:1043400092272081920F90830895EF92FF920F930E
:104350001F93CF93DF930F92CDB7DEB719828C01F5
:104360007C01E60EF11C0E151F0561F481E09981B8
:10437000911180E00F90DF91CF911F910F91FF90ED
:10438000EF9008950E946B21CE0101960E94792141
:10439000F80181938F01E7CF529A5A9A0895529863
:1043A0005A9AEA9AE9E6F0E080818F7C808308954A
:1043B0006150770B91E001C0990F6A95EAF720E010
:1043C00031E0911108C0222391F05A9A80E28A9537
:1043D000F1F75A980895492F482339F05A9A23271C
:1043E00040E24A95F1F79695ECCF5A98F9CF5A9852
:1043F000EDCFFF920F931F93CF93DF93EC018C01CE
:10440000060F111DC017D10731F4DF91CF911F9115
:104410000F91FF900895F9900E94732168E08F2D0D
:104420000E94D821EFCF1F920F920FB60F92112446
:10443000EF92FF920F931F932F933F934F935F93AE
:104440006F937F938F939F93AF93BF93EF93FF935C
:10445000CF93DF930F92CDB7DEB719820E946B2105
:10446000CE0101960E947921A82FA695A695A69522
:10447000282F229525709A2F9570290F922F9370CF
:1044800026952695920F982797708981982B09F089
:1044900075C0A63008F072C080E18A95F1F75A9A8B
:1044A000529AB2E0BA95F1F700C05A98EA2EF12C70
:1044B000EAE0AE9FD0011124A95FBE4F1896ED919E
:1044C000FC9119973097B1F060916B0170916C017C
:1044D00016962D913C911797260F371F13968D91A5
:1044E0009C911497680F791F15964C911597129609
:1044F0008C9109958AE08E9DF0018F9DF00D11241D
:10450000E95FFE4F6581662351F020916B01309188
:104510006C0186819781820F931F0E94F9210E946E
:104520007321F0E1FA95F1F75A9852985A9A80E17E
:104530008A95F1F78AE08E9D80018F9D100D1124E0
:10454000095F1E4FD80112966C911297662371F184
:1045500020916B0130916C0113968D919C91820F8B
:10456000931F0E94A521D801ED91FC91882311F0A1
:1045700088E001C082E080830E946B210F90DF9170
:10458000CF91FF91EF91BF91AF919F918F917F91CB
:104590006F915F914F913F912F911F910F91FF90DC
:1045A000EF900F900FBE0F901F901895ED91FC911A
:1045B000DFCF0F931F93CF93DF93EC0106970CF09F
:1045C000A9C08AE08C9FF0018D9FF00D1124E95F56
:1045D000FE4F80819181892B09F49CC0F894529AF6
:1045E0005A9885E08A95F1F700008C2F86958570A2
:1045F0009C2F9570890F982F937086958695890FBB
:104600008E0193E0000F111F9A95E1F7082B0E948D
:10461000732100C068E0802F0E94D821A0E1AA95F4
:10462000F1F752985A9A4A9B27C087E090E04A993E
:1046300025C08AE08C9F80018D9F100D1124095F99
:104640001E4FF80165816623A1F120916B01309125
:104650006C0186819781820F931F0E94A521811191
:1046600028C0529A5A9AD801ED91FC9182E0808339
:10467000789482E090E016C000C0D5CF0197B9F4DD
:10468000529A5A9A8AE08C9FF0018D9FF00D112466
:10469000E95FFE4F0190F081E02D81E08083789406
:1046A00081E090E0DF91CF911F910F91089500C0BC
:1046B000BECF0E946B21B0E2BA95F1F75A98529A98
:1046C000E0E1EA95F1F78AE08C9FF0018D9FF00D13
:1046D0001124E95FFE4F6281662351F020916B0146
:1046E00030916C0183819481820F931F0E94F92184
:1046F0000E9473218AE08C9FF0018D9FF00D1124A0
:10470000E95FFE4F0190F081E02D1082789490E0F7
:1047100080E0C8CF84E090E0C5CF90938D01809376
:104720008C0108959093BC028093BB0208950E946F
:104730000B16811103C08091B6020895E091BB026F
:10474000F091BC02309721F00190F081E02D0994A6
:1047500080E00895E091BB02F091BC02309721F017
:104760000280F381E02D09940895E091BB02F0915D
:10477000BC02309739F022E0DC012C930480F581F3
:10478000E02D099408952091B9023091BA022817BA
:10479000390771F09093BA028093B902E091BB029D
:1047A000F091BC02309721F00680F781E02D09944A
:1047B00008952091B7023091B8022817390771F097
:1047C0009093B8028093B702E091BB02F091BC02D3
:1047D000309721F00084F185E02D099408959C0123
:1047E0002E5F3F4FAC01485F5F4F80E024173507D5
:1047F00009F40895F90191919F019923B9F38F5F0D
:10480000F5CF662349F0FC013296089621912617D0
:1048100029F0E817F907D1F780E0089581E00895BD
:104820009C01FC0132969FEF80E04191461751F0C8
:104830009F3F19F4411101C0982F8F5F8630A9F76F
:104840009F3F09F40895290F311D97FD3A95F9010D
:1048500062830895FC01329608962191261303C0C5
:10486000DF0111971C92E817F907B9F708950C9426
:1048700010240C942A24029626E0FC0111922A9519
:10488000E9F7089508950C944224811105C081E050
:104890008093BD020C94432482E0FACF83E080939E
:1048A000BD020C9443240C94452481E08093BD0206
:1048B0000C9443240C94552408958091E60284308E
:1048C00031F10E94CA071092BE0288E190E020E414
:1048D0000FB6F894A895809360000FBE20936000F7
:1048E00083B7817F846083BF83B7816083BF7894FF
:1048F000889583B78E7F83BF0FB6F894A895809173
:104900006000886180936000109260000FBE08957F
:1049100008950895CF930E9488240E9429040E943C
:104920008924C0E08C2F0E945603811105C0CF5FFF
:10493000C431C1F7CF91089581E0FCCF0E94DB0C18
:104940000C943A081F921FB61F9211248F939F93C5
:10495000AF93BF938091BE02811113C08091DE029C
:104960009091DF02A091E002B091E1024196A11D79
:10497000B11D8093DE029093DF02A093E002B0931A
:10498000E102BF91AF919F918F911F901FBE1F9029
:10499000189582E084BD93E095BD9AEF97BD809312
:1049A0006E0008952FB7F8948091DE029091DF0297
:1049B000A091E002B091E1022FBF08952FB7F894C3
:1049C0006091DE027091DF028091E0029091E1023D
:1049D0002FBF08959C014FB7F8948091DE0290910B
:1049E000DF02A091E002B091E1024FBF821B930B66
:1049F0000895CF92DF92EF92FF922FB7F894C09074
:104A0000DE02D090DF02E090E002F090E1022FBFE2
:104A1000A7019601261B370B480B590BCA01B90198
:104A2000FF90EF90DF90CF90089578941F921FB67B
:104A30001F9211248F939F93AF93BF938091DE02B7
:104A40009091DF02A091E002B091E1020196A11DD8
:104A5000B11D8093DE029093DF02A093E002B09339
:104A6000E102BF91AF919F918F911F901FBE1F9048
:104A7000189587E797E7909301088093000888E1ED
:104A80009AE00FB6F894A895809360000FBE9093BB
:104A90006000FFCF8091C7020895089508959C019A
:104AA00084E08093E9009FEF8091E800915085FDBC
:104AB00006C085ED8A95F1F700009111F5CF809140
:104AC000E80085FF0CC050E040E066E070E0C901FE
:104AD0000E94AF278091E8008E778093E8000895C8
:104AE000CF93DF93EC0181E08093E9008FEF909109
:104AF000E800815095FD06C095ED9A95F1F700000C
:104B00008111F5CF8091E80085FF14C050E040E0AE
:104B100068E070E0CE010E94AF278091E8008E77B8
:104B20008093E80088E0FE01AFEBB2E001900D92C7
:104B30008A95E1F7DF91CF9108950895CF93FC0115
:104B4000603221F58091E602843001F5C091E900E0
:104B5000CF702091EC00922F917020FD90E8C92B2E
:104B600082E08093E9008091E80080FF0CC050E073
:104B700040E060E270E0CF010E94AF278091E80042
:104B80008E778093E800CF70C093E900CF910895AD
:104B90008091E502811109C00E948E290E94EB29B3
:104BA0008091E20084608093E20008951092E50213
:104BB00008950C9455246091E20281E0611101C0D6
:104BC00080E00C944E249091E60281E0943009F04C
:104BD00080E06091E2020C94532442E061EC81E0B9
:104BE0000E940A2942E261EC84E00E940A2942E222
:104BF00061EC82E00E940A2942E260EC83E00E94BC
:104C00000A299091E60281E0943009F080E06091F9
:104C1000E2020C9445248091E802833009F462C0DA
:104C200030F48130D9F1823009F49EC008958A3081
:104C300009F48AC08B3009F470C0893009F051C082
:104C40008091E702813209F04CC08091EB02909193
:104C5000EC02009719F0029709F043C08091E80038
:104C6000877F8093E8008091E80082FF36C09091B2
:104C7000F3008091F200029731F48091F1008130CD
:104C800011F0863021F48091F1008093C702809169
:104C9000E8008B778093E8000C943E298091E7022E
:104CA000813AF9F48091E800877F8093E800809151
:104CB000EB029091EC02892B61F468E08FEB92E0BB
:104CC00070E00E944D288091E8008B778093E80087
:104CD000089560E090E080E0F3CF8091E6028111DA
:104CE000C2CF08958091E702813AD9F78091EB0213
:104CF0009091EC02892BA9F78091E800877F80933F
:104D0000E8008091E80080FFFCCF80914D01809306
:104D1000F1008091E8008E77BDCF8091E70281326B
:104D200001F78091EB029091EC02892BD1F68091F2
:104D3000E800877F8093E8000E943E298091E90285
:104D400080934D010C94DB0C8091E702813249F68F
:104D50008091E800877F8093E8000E943E2980913F
:104D6000EA028093C80208958091E702813A09F02F
:104D7000B8CF8091E800877F8093E8008091E800B9
:104D800080FFFCCF8091C802C2CF84B7877F84BFE9
:104D90000FB6F894A89580916000886180936000B8
:104DA000109260000FBE80E890E00FB6F8948093F8
:104DB0006100909361000FBE0C945A240E948E29CA
:104DC0000E94EB29E2EEF0E0808184608083789499
:104DD0000C94742C81E491E00C9492238091E6026F
:104DE0008530A9F48091E602853011F00C949E2460
:104DF0000E945D248091E4028823A1F30E948A240A
:104E0000882381F30E9499270E94DB0CEBCF089541
:104E1000CF93DF93CDB7DEB7A0970FB6F894DEBF80
:104E20000FBECDBF8091E602843009F583E0809308
:104E3000E9008091E80082FF1AC08091E80090E0CC
:104E400085FF09C050E040E060E270E0CE010196CD
:104E50000E94FE2791E08091E8008B778093E80024
:104E6000992329F060E2CE0101960E944B1CA09686
:104E70000FB6F894DEBF0FBECDBFDF91CF9108957E
:104E80000C944227292F33272330310521F168F470
:104E90002130310509F443C02230310509F444C002
:104EA00090E080E030E020E026C02132310551F171
:104EB00022323105A9F76330710590F7FB01EE0F3F
:104EC000FF1FE058FE4F2081318163587E4FFB0168
:104ED000808190E010C099278130910581F0009782
:104EE00029F00297E9F6ECE7F4E002C0EAE9F4E021
:104EF000849190E09F01FA01318320830895E2E9D3
:104F0000F4E0F6CF6330710558F6660F771FFB01AA
:104F1000EA57FE4F2081318189E090E0ECCF82E1B9
:104F200090E029EF34E0E7CF8BE590E02EE934E024
:104F3000E2CF80E189BD82E189BD09B400FEFDCFE9
:104F40008091D8008F7D8093D8008091E0008260AE
:104F50008093E0008091E00081FDFCCF0895AF9246
:104F6000BF92CF92DF92FF920F931F93CF93DF9365
:104F70006C01EB018A010E945D29F82E811123C08A
:104F80000115110539F0F80180819181C81BD90BF9
:104F9000C80ED91EB12CA12C2097A9F08091E80051
:104FA00085FD22C08091E8008E778093E80001158E
:104FB0001105A1F0F80180819181A80EB91EB1827E
:104FC000A08285E0F82E8F2DDF91CF911F910F9158
:104FD000FF90DF90CF90BF90AF9008950E945D2921
:104FE0008823D1F2F82EEFCFF60181916F018093E3
:104FF000F1002197FFEFAF1ABF0ACECFAF92BF9259
:10500000CF92DF92FF920F931F93CF93DF936C01A8
:10501000EB018A010E945D29F82E811123C0011540
:10502000110539F0F80180819181C81BD90BC80E98
:10503000D91EB12CA12C2097A9F08091E80085FD04
:1050400022C08091E8008B778093E800011511055C
:10505000A1F0F80180819181A80EB91EB182A082D1
:1050600085E0F82E8F2DDF91CF911F910F91FF904A
:10507000DF90CF90BF90AF9008950E945D29882364
:10508000D1F2F82EEFCF8091F100F60181936F01FC
:105090002197FFEFAF1ABF0ACECFFC018091ED023E
:1050A0009091EE0286179707A0F06115710529F41B
:1050B0009091E8009E779093E80090E0611571056B
:1050C00051F4911108C08091E80082FF34C080E063
:1050D0000895BC01F2CF8091E6028823C1F18530AA
:1050E000C1F18091E80083FD30C08091E80082FD2D
:1050F000EACF8091E80080FFE1CF8091F30020911A
:10510000F200382F6115710519F02830310558F07B
:1051100091E02830310509F090E02091E8002E77E9
:105120002093E800CBCF81918093F1006150710909
:105130002F5F3F4FE7CF8091E602882341F0853013
:1051400041F08091E80083FFBECF81E0089582E0C6
:10515000089583E00895FC018091ED029091EE02A4
:1051600086179707A0F06115710529F48091E80072
:105170008E778093E80090E06115710551F49111EC
:1051800008C08091E80082FF35C080E00895BC012E
:10519000F2CF8091E6028823C9F18530C9F1809170
:1051A000E80083FD31C08091E80082FDEACF809164
:1051B000E80080FFE1CF8091F3002091F200382FCA
:1051C0006115710519F02830310558F091E028304B
:1051D000310509F090E08091E8008E778093E80037
:1051E000CBCF84918093F1003196615071092F5F8C
:1051F0003F4FE6CF8091E602882341F0853041F0B1
:105200008091E80083FFBDCF81E0089582E008959A
:1052100083E00895982F973028F08F708093E900ED
:1052200081E008959093E900242F762F50E098179D
:1052300031F07091EC002091ED005091F00021FDD3
:1052400002C09F5FE8CF3091EB003E7F3093EB00D0
:105250003091ED003D7F3093ED003091EB003160F7
:105260003093EB007093EC002093ED005093F0002E
:105270002091EE0027FDE5CF80E008958091E702C0
:1052800087FF13C08091E80082FF06C08091E8008C
:105290008B778093E80004C08091E6028111F2CF01
:1052A00008958091E6028823D9F38091E80080FF79
:1052B000F8CF8091E8008E77ECCF2091E400309118
:1052C000E50095E6A9012091EC00822F817020FF76
:1052D00006C08091E80080FF06C080E0089520911C
:1052E000E80022FD1AC08091E602882389F085300B
:1052F00089F08091EB0085FD0FC02091E400309192
:10530000E50042175307F9F29150E1F684E0089561
:1053100082E0089583E0089581E008950E94FC29C9
:105320000E94042AE0EEF0E0808181608083E8ED55
:10533000F0E080818F77808319BCA7EDB0E08C917D
:105340008E7F8C9380818F7E80831092E5020895FA
:105350000F931F93CF93DF930E94FC290E94042A8E
:10536000C8EDD0E088818F778883888180688883C2
:1053700088818F7D888319BC1092E6021092E20228
:105380001092E4021092E30200EE10E0F801808136
:105390008B7F808388818160888342E060E080E049
:1053A0000E940A29E1EEF0E080818E7F8083E2EEA8
:1053B000F0E0808181608083808188608083F80153
:1053C00080818E7F8083888180618883DF91CF9107
:1053D0001F910F910895E8EDF0E080818F7E80832A
:1053E000E7EDF0E080818160808384E082BF81E02E
:1053F0008093E5020C94A829E8EDF0E080818E7F8F
:1054000080831092E20008951092DA001092E10079
:1054100008951F920F920FB60F9211242F933F936E
:105420004F935F936F937F938F939F93AF93BF93AC
:10543000EF93FF938091E10082FF0BC08091E20027
:1054400082FF07C08091E1008B7F8093E1000E9482
:10545000732C8091DA0080FF19C08091D80080FF02
:1054600015C08091DA008E7F8093DA008091D90098
:1054700080FF96C080E189BD82E189BD09B400FE4C
:10548000FDCF81E08093E6020E94C8258091E10073
:1054900080FF19C08091E20080FF15C08091E2007A
:1054A0008E7F8093E2008091E20080618093E20031
:1054B0008091D80080628093D80019BC85E08093E9
:1054C000E6020E94DB258091E10084FF2BC08091E1
:1054D000E20084FF27C080E189BD82E189BD89B5F2
:1054E000982F917080FFFBCF8091D8008F7D8093A3
:1054F000D8008091E1008F7E8093E1008091E200EE
:105500008F7E8093E2008091E20081608093E200D0
:105510008091E202882309F449C084E08093E60286
:105520000E94E3258091E10083FF29C08091E20081
:1055300083FF25C08091E100877F8093E10082E0B6
:105540008093E6021092E2028091E1008E7F8093C8
:10555000E1008091E2008E7F8093E2008091E20082
:1055600080618093E20042E060E080E00E940A29CE
:105570008091F00088608093F0000E94D925FF910F
:10558000EF91BF91AF919F918F917F916F915F91BB
:105590004F913F912F910F900FBE0F901F90189534
:1055A00019BC1092E6020E94D62570CF8091E300CC
:1055B00087FD93E09093E602B3CF1F920F920FB650
:1055C0000F9211242F933F934F935F936F937F9389
:1055D0008F939F93AF93BF93CF93DF93EF93FF93FB
:1055E000D091E900DF708091EC00C82FC17080FD80
:1055F000C0E81092E9008091F000877F8093F0006E
:1056000078940E94212B1092E9008091F00088602C
:105610008093F000CD2BCF70C093E900FF91EF9104
:10562000DF91CF91BF91AF919F918F917F916F91BA
:105630005F914F913F912F910F900FBE0F901F9050
:1056400018951F93CF93DF93CDB7DEB7AA970FB608
:10565000F894DEBF0FBECDBF87EE92E02091F1003F
:10566000FC012193CF01F2E08F3E9F07B9F70E9422
:105670000B268091E80083FF1EC18091E702909184
:10568000E8029A3008F017C1E92FF0E0E35AF24D32
:105690000C94B52C803899F0823809F00CC18091B7
:1056A000EB028F70873008F006C18093E90080918B
:1056B000EB0085FB882780F91092E90006C08091F5
:1056C000E3029091E402911182609091E800977F4B
:1056D0009093E8008093F1001092F1008091E8002F
:1056E0008E77E5C0882309F4D3C0823009F0E3C087
:1056F0008091E9028111D6C08091EB028F702FEF6B
:10570000280F263008F0D7C08093E9002091EB00E5
:1057100020FFC8C0933031F48091EB008062809309
:10572000EB00C0C09091EB0090619093EB0021E002
:1057300030E001C0220F8A95EAF72093EA00109228
:10574000EA008091EB008860EACF8111B4C010912B
:10575000E9021F778091E3008078812B8093E3003A
:105760008091E800877F8093E8000E943E29809125
:10577000E80080FFFCCF8091E30080688093E30025
:1057800082E0111183E08093E60295C08058823058
:1057900008F091C08091E9029091EA028C3D23E0EB
:1057A0009207A1F583E08A838AE289834FB7F89450
:1057B000DE01139620E03EE051E2E32FF0E050934B
:1057C0005700E49120FF03C0E295EF703F5FEF7058
:1057D0008E2F90E0EA30C0F0C7968D939D932F5F97
:1057E000243159F74FBF8091E800877F8093E8000C
:1057F0006AE270E0CE0101960E944D288091E80097
:105800008B778093E80057C0C096E7CF6091EB029A
:105810007091EC02AE014F5F5F4F0E944027BC01C8
:10582000892B09F448C09091E800977F9093E80095
:1058300089819A810E94AB28E1CF8038E1F580917F
:10584000E800877F8093E8008091E2028093F10076
:1058500045CF811130C09091E902923060F580917E
:10586000E800877F8093E8009093E2020E943E293F
:105870008091E202882311F084E005C08091E3006A
:1058800087FDFACF81E08093E6020E94ED2513C0E8
:105890008091E902813079F481E0933009F080E071
:1058A0008093E4021092E9008091E800877F809362
:1058B000E8000E943E298091E80083FF0AC08091A1
:1058C000E800877F8093E8008091EB0080628093FE
:1058D000EB00AA960FB6F894DEBF0FBECDBFDF91E6
:1058E000CF911F9108950895CF938091E602882368
:1058F000A1F0C091E900CF709091EC00892F8170E8
:1059000090FD80E8C82B1092E9008091E80083FDAB
:105910000E94212BCF70C093E900CF9108950E947F
:105920008E291092E6020895E8EDF0E08081806112
:1059300080838AE18A95F1F700C08091D900817057
:10594000089597FB072E16F4009407D077FD09D031
:105950000E94C22C07FC05D03EF4909581959F4F84
:105960000895709561957F4F0895EE0FFF1F059084
:10597000F491E02D099469279627692778278727CE
:1059800078270895AA1BBB1B51E107C0AA1FBB1FA4
:10599000A617B70710F0A61BB70B881F991F5A95BB
:1059A000A9F780959095BC01CD010895FB01DC011C
:1059B00004C08D910190801921F441505040C8F7E6
:1059C000881B990B0895FB01DC0102C001900D9228
:1059D00041505040D8F70895F999FECF92BD81BD4E
:1059E000F89A992780B50895A8E1B0E042E050E028
:1059F0000C94202D262FF999FECF92BD81BDF89AE7
:105A0000019700B4021639F01FBA20BD0FB6F89402
:105A1000FA9AF99A0FBE08950396272F0E94FB2C3D
:105A20000E94FA2C252F0E94FB2C242F0C94FB2C77
:105A30000196272F0E94FB2C0C94FA2CDC01CB0141
:105A4000FC01F999FECF06C0F2BDE1BDF89A31968E
:105A500000B40D9241505040B8F70895F894FFCF2C
:105A6000C70AC70AF80AF80A270B8C0B270B270B63
:105A7000A70B0E0C1D0C1D0CEA0CEA0CF30CF30C1E
:105A8000F50CF30CF30CF30CEA0CEA0CFA0CF30C27
:105A9000F30CFA0C5D1C6A1C911C9D1CA81CB31C09
:105AA000B61CB61CB61CB61CB61CB91CBD1CC51C4D
:105AB000D21CDF1CE21CE51CF21C4A2B722B5B2C57
:0E5AC000722B5B2CA52BC62B5B2C1D2C292CCE
:105ACE000F05C800360201DD0200000001000000D3
