:100000000C94DB020C9422030C9422030C94B22176
:100010000C9422030C9422030C9422030C942203CC
:100020000C9422030C9422030C94A8290C947C2A8F
:100030000C9441240C9422030C9422030C9422036C
:100040000C9422030C9422030C9422030C9422039C
:100050000C9422030C94B4240C9422030C942203D9
:100060000C9422030C9422030C9422030C9422037C
:100070000C9422030C9422030C9422030C9422036C
:100080000C9422030C9422030C9422030C9422035C
:100090000C9422030C9422030C9422030C9422034C
:1000A0000C9422030C9422030C9422031F002000C2
:1000B0002100220001001A000800150017000100AD
:1000C0001600070009000A0001001B0006001900C5
:1000D00005000100E2008B002C002C00115F1E00C7
:1000E000350000000000000014002B00000000009C
:1000F0000000040039000000000000001D00E100C5
:10010000000000000000E300E0000000000000002C
:1001100027002600250024002300130012000C00F5
:1001200018001C0033000F000E000D000B003800FB
:100130003700360010001100650088008A002C008E
:10014000105F2D002E008900000000002F003000FD
:100150002A000000000034003200280000000000E7
:1001600087005200E50000000000500051004F00E1
:100170000000000001000100F400F50001001F0074
:100180002000210022000100010001000100010007
:100190000100010001000100010001000100010057
:1001A000010001000100010001000000000000004A
:1001B0001E0001000000000000000100010000001E
:1001C000000000000100010000000000000001002C
:1001D000010000000000000001000100010001001A
:1001E0000100270026002500240023000100010053
:1001F00001000100010001000100010001000100F7
:1002000001000100010001000100010001000100E6
:1002100000000000010001000100000000000100DA
:1002200001000100000000000100010001000000C9
:1002300000000100010001000000000001000100B9
:1002400001000100C25C0100010001000100C95C65
:100250000100010001000100C55C01000100010076
:100260000100C75C01000100010001000100010064
:10027000010000000000000001000100000000007B
:10028000000001000100000000000000010001006A
:10029000000000000000010001000000000000005C
:1002A0000100010001000100010001000100010046
:1002B0000100010001000100010001000100010036
:1002C0000100010001000100010001000100010026
:1002D0000100010001000100000000000100010018
:1002E000010000000000010001000100000000000A
:1002F00001000100010000000000010001000100F8
:1003000000000000010001000100010001000100E7
:1003100001000100010001000100010001000100D5
:1003200001000100010001000100010001000100C5
:1003300001000100010001000100000000000000B8
:1003400001000100000000000000010001000000A9
:10035000000000000100010000000000000001009A
:100360000100000000000000010001000100010088
:100370000100010001000100010001000100010075
:100380000100010001000100010001000100010065
:100390000100010001000100010001000100010055
:1003A0000000000001000100010000000000010049
:1003B0000100010000000000010001000100000038
:1003C000000001000100010000000000000000002A
:1003D000000000002A2B28000000000000000000A0
:1003E0000000000000000029000000002C1E342046
:1003F000212224342627252E362D3738271E1F206C
:100400002122232425263333362E37381F040506B0
:100410000708090A0B0C0D0E0F10111213141516F4
:100420001718191A1B1C1D2F3130232D35040506F2
:100430000708090A0B0C0D0E0F10111213141516D4
:100440001718191A1B1C1D2F3130354C00000000E5
:10045000000000000000000000000000000000009C
:10046000000000000000000000000000000000008C
:100470007E0F00D4FFFFFFC7000000781403680060
:1004800061006C00660063006C0069006600660035
:10049000000006036E003200000004030904090294
:1004A0005B00030100A0FA09040000010301010040
:1004B0000921110100012240000705810308000AFB
:1004C00009040100020300000009211101000122BA
:1004D0002200070582032000010705030320000115
:1004E000090402000103000000092111010001229A
:1004F00049000705840320000A12010002000000E1
:1005000008350321000100010200010660FF0961B6
:10051000A1010962150026FF0095207508810209D6
:1005200063150026FF00952075089102C00501099A
:1005300002A10185020901A1000509190129081577
:100540000025019508750181020501093009311561
:1005500081257F95027508810609381581257F95CB
:100560000175088106050C0A38021581257F950161
:1005700075088106C0C005010906A101050719E03B
:1005800029E7150025019508750181029501750877
:1005900081010507190029FF150026FF0095067542
:1005A0000881000508190129059505750191029535
:1005B0000175039101C011241FBECFEFDAE0DEBF49
:1005C000CDBF04B603FE27C08091EB029091EC02F0
:1005D000A091ED02B091EE028730904BA740B04B56
:1005E000D1F41092EB021092EC021092ED021092F4
:1005F000EE0214BE84B7877F84BF0FB6F894A89527
:1006000080916000886180936000109260000FBE4E
:10061000E0E0F8E3099511E0A0E0B1E0ECE0FAE5F4
:1006200002C005900D92A039B107D9F722E0A0E9E8
:10063000B1E001C01D92AB3EB207E1F70E94101875
:100640000C94CD2C0C940000F894E82FE295EF70F8
:10065000F0E031A1282F2F7081E090E001C0880FD9
:100660002A95EAF7382B31A392A18095892382A39A
:1006700078940895F894E82FE295EF70F0E031A1B6
:10068000282F2F7081E090E001C0880F2A95EAF7AB
:10069000982F9095932391A392A1892B82A378946C
:1006A000089508950C94510308950895E82FF0E0FB
:1006B000E955FE4F8081089508950F931F93CF93BE
:1006C000DF930E94C41580910601809106019AE093
:1006D000811190E09093CC028AE0891B8093CB0239
:1006E000C3E5D1E08E01F80181918F010E943A03A8
:1006F000F1E00D351F07B9F784E30E943A0386EC59
:100700000E943A0386E60E943A0386E30E943A0377
:1007100082E30E943A0384E30E943A0386EC0E943B
:100720003A0386E60E943A0386E30E943A0382E394
:100730000E943A0389910E943A0381E0CD35D8079F
:10074000C9F7EBEBF1E0A7EAB1E011921D9281E06D
:10075000EF3CF807D1F78AE00E9473150E94610709
:10076000DF91CF911F910F910C94CE15FF920F93B3
:100770001F93CF93DF93CDB7DEB72A970FB6F894C8
:10078000DEBF0FBECDBF0E94AA15F82E6091CC022D
:10079000882309F451C08E010F5F1F4F8AE0F801D2
:1007A00011928A95E9F7862F90E0B80189559E4FFE
:1007B0000E943116811123C08091A6018F5F809322
:1007C000A6018630B8F1E091CB02F0E0E955FE4F8A
:1007D000D801CE010B9611921D92A817B907D9F72F
:1007E0000E9467078F2D2A960FB6F894DEBF0FBEC2
:1007F000CDBFDF91CF911F910F91FF90089510927F
:10080000A601A091CB02B0E0A955BE4F9E01255F85
:100810003F4FF12C4D91F80191918F01491731F023
:10082000AD0141505109FA019083F82E02171307C8
:1008300089F7D6CFF12CD4CF70E069557E4F8091E7
:10084000CB0290E089559E4F0E9433160E945503BB
:10085000C9CF6F927F929F92AF92BF92CF92DF9259
:10086000EF92FF920F931F93CF93DF930BEB11E067
:1008700043E5C42E41E0D42EC0E0D1E0D601AD90D6
:100880006D018A2D0E942403B0EABA95F1F73EE487
:10089000E32E31E0F32EF70130E020E0B12C41915E
:1008A000A42FA295AF70B0E090968C9190E04F701D
:1008B00002C0959587954A95E2F780FD94C08D2FEB
:1008C000022E01C0880F0A94EAF7B82A2F5F3F4F23
:1008D0002530310521F78A2D0E943A03E0EAEA9596
:1008E000F1F7D8018C91B81609F47FC0BC9281E071
:1008F000C82B0F5F1F4FB8E5CB16B1E0DB0609F040
:10090000BDCF10E000E0AA24A394B12C2CE9C22EA4
:1009100021E0D22EF70191907F01892D0E942403BE
:10092000F0EAFA95F1F7C501002E01C0880F0A948C
:10093000EAF7782F682F6095E2E9F1E083E5682E09
:1009400081E0782ED0E03191D3012D913D01422FED
:1009500042954F7050E0DA0190968C9190E02F70A4
:1009600002C0959587952A95E2F780FD40C0872FB4
:10097000832B381731F09F0121503109D9018C9315
:10098000D1E0CE16DF06F9F6892D0E943A03043035
:1009900019F0B0EABA95F1F7CD2B61F50F5F1F4F53
:1009A0000530110509F0B6CF6091CC0270E06955B1
:1009B0007E4F2C2F4AE08BEB91E00E9474150E9431
:1009C000B603C11101C0C82F8C2FDF91CF911F91A9
:1009D0000F91FF90EF90DF90CF90BF90AF909F90DE
:1009E0007F906F90089580E070CF80E081CF862F58
:1009F0008323BFCF809197018093C001809198019C
:100A00008093C101809199018093C20180919A01E4
:100A10008093C30180919B018093C401BFCFCF938A
:100A2000DF93FA016230710519F42230310539F093
:100A30008FEF818381E090E0DF91CF9108951B9B40
:100A400033C02B9A239A47E050E02998EC01288183
:100A500030E0042E02C0359527950A94E2F720FF76
:100A600025C02B9A299A4150510978F72AE12A95F5
:100A7000F1F700C023982B9A118287E090E0299823
:100A8000299A23B123FBAA27A0F9B0E0AD01082ED3
:100A900001C0440F0A94EAF72181242B2183019796
:100AA00070F790E080E0C8CF2B98CCCF2B98DACFAE
:100AB0000F93CF93DF9300D000D0CDB7DEB71B826A
:100AC0008FEF8C8389838A83E0910001F09101018B
:100AD0000FEF22E030E0AE014F5F5F4F62E070E069
:100AE000CE01039609958A810F900F900F900F9079
:100AF000DF91CF910F910895219A23982B9A089511
:100B0000AF92BF92CF92DF92EF92FF920F931F931B
:100B1000CF93DF9300D000D0CDB7DEB75C016B017F
:100B20007A0182E08B831FEF1C8319831A83E09183
:100B30000001F09101010FEF22E030E0AE014F5FC4
:100B40005F4F62E070E0CE01039609958A81F5015E
:100B5000808383E08B831C8319831A83E0910001D7
:100B6000F091010122E030E0AE014F5F5F4F62E0A3
:100B700070E0CE01039609958A81F601808384E0B6
:100B80008B831C8319831A83E0910001F09101018A
:100B900022E030E0AE014F5F5F4F62E070E0CE01D7
:100BA000039609958A81F701808381E090E00F9098
:100BB0000F900F900F90DF91CF911F910F91FF90A9
:100BC000EF90DF90CF90BF90AF900895EF92FF929B
:100BD0000F931F93CF93DF9300D000D00F92CDB728
:100BE000DEB78FECE82E81E0F82E10E000E0F70190
:100BF00081917F018823C9F08695F80139F1E55983
:100C0000FE4F808191819A8389831B820E94712487
:100C10008160782F9D838C83F70131971082498101
:100C20005A816B818D810E94C0080E5F1F4F043076
:100C30001105E9F60F900F900F900F900F90DF9134
:100C4000CF911F910F91FF90EF900895E959FE4FBA
:100C5000D8CFEF92FF920F931F93CF93DF9300D0E3
:100C600000D00F92CDB7DEB7162FE82EF12CC701BA
:100C7000880F991F662339F185599E4FFC018081A9
:100C800091819A83898301E00B830E9471248160A2
:100C9000782F9D838C83F701E153FE4F0127110FBD
:100CA000102B108349815A816B818D810F900F9099
:100CB0000F900F900F90DF91CF911F910F91FF90A8
:100CC000EF900C94C00889599E4FD8CF0E94E6053A
:100CD0000C9454030E94290681E00895845F9109D1
:100CE0008530910538F54091CE0221E030E0F901E0
:100CF00002C0EE0FFF1F8A95E2F7CF01FB012281B0
:100D00002223A9F0842B8093CE024091CD025091F2
:100D1000CE026091CF027091D0028091D102909169
:100D2000D2020E94381B0E94DD1A80E0089580954F
:100D30008423E9CF81E008950C947C05CF93DF9361
:100D400000D00F92CDB7DEB78091D2019091D30140
:100D50009C012F5F3F4F3093D3012093D20162E378
:100D600070E00E94402C892B89F50E945805803341
:100D700019F581E08093D101AE014F5F5F4FBE0155
:100D80006E5F7F4FCE0103960E9480056A81619558
:100D90006093CF02798171957093D0028B8187FF28
:100DA0000DC04091CD025091CE028091D102909120
:100DB000D2020E94381B02C01092D1010E94DD1A9B
:100DC0000F900F900F90DF91CF9108958091D101F6
:100DD0008823A1F3D1CF81E008950C946E06089585
:100DE0000C94EF061F93CF93DF9300D000D00F92A7
:100DF000CDB7DEB749835A836B833091D4018981A3
:100E00009A8131111DC06623B9F02223A9F00E94F6
:100E10007C0D182F682F89819A810E94250D698188
:100E20007A81812F0F900F900F900F900F90DF918C
:100E3000CF911F910C94A81E0E94530D182FEFCF35
:100E40000E947C0D69817A81EDCFFC01262F4081C3
:100E500051816281738184810C94F20681E008954E
:100E6000CF93DF93EC0160E00E942507BE01DF9184
:100E7000CF910C94F006E1E0F0E0DF0102C0AA0F90
:100E8000BB1F6A95E2F7BD01DF0102C0AA0FBB1FBD
:100E90004A95E2F76A2B01C0EE0F2A95EAF7962FE2
:100EA0009823961302C08E2B0895E0958E23089503
:100EB000242F462F682F8091FC010E943B070C9441
:100EC000E20C0E9459150E94B7080C9452030C942E
:100ED000660680E00E94B8080C949E060895089566
:100EE0000E947A0C0E946F072FEF84E39CE0215050
:100EF00080409040E1F700C000000C94D8240F938C
:100F00001F93CF93DF938C0161E00E942507EC01D2
:100F1000B8010E94AE1B8823D9F1B801CE010E940E
:100F2000ED068823A9F1B801CE010E94B8208823DC
:100F300079F1B801CE010E94B61C882349F1B801AD
:100F4000CE010E942220882319F1F8018281882392
:100F500061F0CA35FDE5DF0721F170F4C115ECE55C
:100F6000DE07A1F0CE3DDC45C9F0C801DF91CF918D
:100F70001F910F910C94EB06CB358DE5D807A1F0AE
:100F8000CC35DD4591F70E948F11EFCF0E9470079D
:100F900080E0DF91CF911F910F9108950E94481238
:100FA000F7CF0E949811E1CF0E949B11DECF0C94E5
:100FB0006E070E9436230E94B8080C94D707DF9270
:100FC000EF92FF920F931F93CF93DF93E82FF0E000
:100FD000E453FC4FD490282F26952695269530E093
:100FE000F901E459FB4F0491877010E0082E02C00C
:100FF000159507950A94E2F701701127F901E45A53
:10100000FB4FE490F12C082E02C0F594E7940A946B
:10101000E2F791E0E922FF24F901E45BFB4FC49180
:10102000D0E002C0D595C7958A95E2F7C170DD275B
:101030000115110519F081EE0E942D09E114F1044A
:1010400019F086EE0E942D098D2D0E94120AEF28BC
:1010500019F086EE0E94A509012B19F081EE0E947D
:10106000A509CD2B51F08CE2DF91CF911F910F910B
:10107000FF90EF90DF900C94120ADF91CF911F91B7
:101080000F91FF90EF90DF900895EF92FF920F93F2
:101090001F93CF93DF93EC01162F0AE088818823FA
:1010A00009F454C0813009F04EC08981813099F42F
:1010B0007E0122E0E20EF11C8A810E94120AE70101
:1010C0002196812F815050F3EFE9FFE03197F1F73E
:1010D00000C00000F7CF823041F47E0182E0E80ECC
:1010E000F11C8A810E942D09EACF833041F47E01F0
:1010F000E2E0EE0EF11C8A810E94A509E0CF843067
:1011000011F02196DDCF2A81229690E080E0AE0199
:101110004F5F5F4F2053330B2A30310548F0019762
:1011200078F2EFE9FFE03197F1F700C00000F7CF68
:10113000089FB001099F700D1124C901860F971FE8
:101140002981EA01E4CF0E94DF07BACFDF91CF9176
:101150001F910F91FF90EF90089560E00C94450867
:1011600008950C94B00881E008950C94B308089594
:10117000CF93C82F0E94B1088C2FCF910C94B50843
:10118000CF93DF93CDB7DEB72B970FB6F894DEBFC2
:101190000FBECDBF4F83588769877A878B876111D0
:1011A0000E94EA101E821D8285E0FE013796DE0154
:1011B000119601900D928A95E1F78C819D81892B82
:1011C00089F449815A816B817C818D819E810E9445
:1011D0000B102B960FB6F894DEBF0FBECDBFDF917C
:1011E000CF91089589819A8189238F3F51F3CE0150
:1011F00001960E942E078111E4CFEBCFFC01808184
:1012000091810C94A90D0F931F93CF93DF9300D07E
:1012100000D000D0CDB7DEB7082F162F0E94171BC5
:1012200029834B835C836D837E83002399F0312B6C
:101230004981532F6B817C818D819E8126960FB6CB
:10124000F894DEBF0FBECDBFDF91CF911F910F91FC
:101250000C94381B10953123EBCFCF93C82F8823E4
:1012600009F471C08238C1F40E94362381FD6BC03D
:1012700089E30E94A5100E940D112FEF81EE94E0EA
:10128000215080409040E1F700C0000089E30E94B7
:10129000AC10CF910C940D118338A1F40E94362329
:1012A00080FD51C083E50E94A5100E940D112FEF13
:1012B00081EE94E0215080409040E1F700C00000B2
:1012C00083E5E5CF8438A1F40E94362382FD3BC03C
:1012D00087E40E94A5100E940D112FEF81EE94E08B
:1012E000215080409040E1F700C0000087E4CFCF5C
:1012F0008CEF8C0F813A90F46C2F809104019091C7
:1013000005010E94A023882329F08C2F0E94AC1095
:101310000E940D118C2F0E94A510BBCF80E28C0F74
:10132000883048F4C77081E001C0880FCA95EAF799
:101330000E94CD10AECFC03F30F08C2F0E94A0187D
:10134000CF910C947319CF910895882309F452C05A
:10135000823871F40E94362381FF4CC089E30E94D9
:10136000A5100E940D1189E30E94AC100C940D1180
:10137000833859F40E94362380FF3CC083E50E94E5
:10138000A5100E940D1183E5EFCF843859F40E9417
:10139000362382FF2FC087E40E94A5100E940D1102
:1013A00087E4E2CF9CEF980F913AF0F290E2980F29
:1013B000983050F4877091E001C0990F8A95EAF750
:1013C000892F0E94D310D2CF9BE5980F933020F441
:1013D00090E080E00C94622398E5980F973120F418
:1013E00090E080E00C947823803F20F00E94FA186F
:1013F0000C94731908951F93CF93DF93182FEB016B
:101400000E942D09209731F4812FDF91CF911F91F8
:101410000C94A5098FE99FE00197F1F700C0000047
:101420002197F0CF70E060E0893311F460E570E05F
:101430000C94FB09882321F00E94CD100C940D110F
:101440000895882321F00E94D3100C940D11089563
:10145000BF92CF92DF92EF92FF920F931F93CF93A1
:10146000DF936C01D62FC72FFC011281F580F29417
:101470009FE0F9220E94C310E82E8823B9F0E12EE4
:101480001123A1F08C2F807F803421F080E28D0F1A
:101490008830D0F08091D80282FD16C082E00E9490
:1014A0005E110E94C31091E0E82EE926BC2EB29492
:1014B0008FE0B822FBE0FB1508F468C0EB2DF0E0EC
:1014C000E153F34D0C94542CE12CF0CF0C2F0F7002
:1014D000C07F11F00295007F112399F0002359F08D
:1014E00080E28D0F883010F0D11107C0802F0E944C
:1014F000CD100E940D118D2F41C0802F0E94DD1054
:10150000F8CF8D2F0E94A509002309F43FC080E287
:101510008D0F883010F0D11104C0802F0E94D3109D
:1015200003C0802F0E94E3100E940D112FC00C2FCA
:101530000F70C07FC03211F00295007FDD2381F073
:10154000D13009F46AC0112309F474C0FF2009F4F2
:101550006AC0F601858180FFCECF8F70858363C01E
:101560008091D80282FF39C0112359F0002329F05D
:10157000802F0E94CD100E940D1180E00E942D0945
:1015800005C080E00E94A5090111C7CF2B2D28506E
:10159000330B2430310520F40E9436230E94B80812
:1015A000EE2009F44CC10E94BF1080FD48C1F60135
:1015B00012820E94B9100E94F30CC6010E94400CD6
:1015C0000E94B910DF91CF911F910F91FF90EF9082
:1015D000DF90CF90BF900C94FE0C112389F0F11096
:1015E00006C00E94F010802B0E941A0ACFCF21E083
:1015F000F212F7CF0E94F010802B0E94F610C6CF97
:10160000F11006C00E940311802F0E94210ABECF54
:1016100031E0F31609F4BACFF5CF112331F085E0AC
:101620008F1508F4B3CF802FDFCF94E09F1508F417
:10163000ADCFEACFFF2041F3D93349F4FFEF27EED6
:1016400033E0F15020403040E1F700C000008D2F22
:101650000E94A5099BCF8D2F112391F00E94A01805
:10166000ED2FE45FFF0BE530F10568F461E070E019
:1016700001C0660FEA95EAF7812F0E94030986CF21
:101680000E94FA18EDCF0E94731980CF8C2F8370BF
:1016900079F511117BCF4D2F429546954770440F38
:1016A000440F8D2F8F70042E01C0880F0A94EAF723
:1016B0002D2F2071D4FF07C02FE030E001C0220F92
:1016C0004A95EAF72095C695C695C370822BC2301D
:1016D00049F058F4C13019F00E94D40C57CF0E9441
:1016E000CF0C54CF0E94D90C51CF0E94CD0C4ECFBD
:1016F0008695112311F08C2F8170882309F446CF31
:101700004D2F429546954770440F440F8D2F8F7093
:10171000042E01C0880F0A94EAF72D2F2071D4FF00
:1017200007C02FE030E001C0220F4A95EAF720956C
:10173000C695C695C370822BC23049F058F4C130AB
:1017400019F00E941A0D22CF0E94150D1FCF0E9482
:101750001F0D1CCF0E94E20C19CFCF70112329F06E
:101760008C2F0E94F30C8D2F3FCF8D2F0E94210ACA
:101770008C2F0E94FE0C0ACFD23F51F160F4D03F73
:10178000B9F0D13F81F0112309F449C0F110B3CE73
:101790008C2F8F7121C0D33F11F1D43FA1F78091DD
:1017A000D80282FF26C08C2F8F71112311F314C031
:1017B000112349F0F4E0FF1508F4E8CE8C2F8F7167
:1017C0000E940A0DE3CE25E02F1508F4DFCEF6CFF8
:1017D0008C2F8F711111CDCF0E94F30CD7CE112316
:1017E00029F08C2F8F710E94EB0CD0CE0E94E80C58
:1017F000CDCE112349F0CF718C2F0E94F30C63E002
:101800008C2F0E944311C2CE81E00E945E1131E014
:101810003F1508F0BBCE82E00E945E11B7CEFF20DC
:1018200059F0D93309F013CF8FEF97EEE3E08150F1
:101830009040E040E1F709CF8C2F8F719ACFDF9174
:10184000CF911F910F91FF90EF90DF90CF90BF90BD
:1018500008950F931F93CF93DF93EC0168817981F3
:101860008A810E94B30D8C010E94240D0E94CC0C31
:10187000B801CE01DF91CF911F910F910C94280AEE
:10188000CF93DF93EC018B819C81892B29F0888198
:10189000998189238F3F59F4DF91CF910895CE012B
:1018A0000E94290CCE01DF91CF910C943007CE011C
:1018B0000E947F078111F3CF0E94C310882361F338
:1018C0008A81882349F38091D80282FDE5CF82E0A6
:1018D000DF91CF910C945E110E94EA100E94ED10EE
:1018E0000E940D110E949A1A0C9473190E94B31051
:1018F0000C946C0C0E94DA100C94760CE92FE29593
:10190000EF70E250EE3070F4F0E0E552F34D0C94DD
:10191000542C803F19F020F4883E20F481E0089593
:10192000843FE1F380E00895883EC0F3813FD1F722
:10193000F5CF93FB882780F90895FC018081918180
:101940000E94A90D0C947E0CCF93DF9300D000D0A1
:101950000F92CDB7DEB70F900F900F900F900F90B2
:10196000DF91CF910895CF93DF9300D000D000D0C6
:10197000CDB7DEB726960FB6F894DEBF0FBECDBF4B
:10198000DF91CF91089508950C94C30C0E94C40C6C
:101990008093FD010C946C0C08950C94C60C9091EE
:1019A000FD01892B0C94C60C9091FD0189230C94A8
:1019B000C60C9091FD0189270C94C60C0C94C30CA5
:1019C0000C94DE0C0E94E00C8093FC010C946C0CD7
:1019D00080E00C94E20C91E001C0990F8A95EAF73F
:1019E000892F0C94E20C21E030E001C0220F8A958F
:1019F000EAF78091FC01822B0C94E20C21E030E0AC
:101A000001C0220F8A95EAF720958091FC0182237C
:101A10000C94E20C21E030E001C0220F8A95EAF735
:101A20008091FC0182270C94E20C9091FC01892B9F
:101A30000C94E20C9091FC0189230C94E20C90919F
:101A4000FC0189270C94E20C0895E92FEE0FEE0FAC
:101A50009E0F890F982F977041E001C0440F9A950F
:101A6000EAF786958695869593E0899FF001112483
:101A7000EB52FE4F30E020E070E05191DF01119712
:101A8000CB01022E02C0969587950A94E2F78170E9
:101A900081958527842385278C932F5F3F4F2330A3
:101AA000310559F70895E92FEE0FEE0F9E0F890FBC
:101AB000982F977086958695869523E0829FF001F2
:101AC0001124EB52FE4F50E040E080E0219130E0E5
:101AD000092E02C0369527950A94E2F72170332724
:101AE000042E01C0220F0A94EAF7822B4F5F5F4F4A
:101AF0004330510559F70895CF92DF92FF920F932B
:101B00001F93CF93DF936C010091FC018091FD0145
:101B1000082BC7E0D0E010E0FC2EC8010C2E02C05C
:101B2000959587950A94E2F780FD0CC02197A0F760
:101B3000F12C8F2DDF91CF911F910F91FF90DF90AE
:101B4000CF900895B6018C2F0E942014019771F355
:101B5000F0CFCF93DF93EC010E947C0DBE01DF91AB
:101B6000CF910C9420141F93CF93DF93EB019091AE
:101B7000D401992331F0CB01DF91CF911F910C94C7
:101B8000A90D882379F0CB010E947C0D182F682FB6
:101B9000CE010E94250DBE01812FDF91CF911F91B3
:101BA0000C942014CB010E94530D182FF4CF1F93D7
:101BB000CF93DF93C091FE0116E08091FF018C135B
:101BC00004C0DF91CF911F910895D0E01C9FF001D8
:101BD0001D9FF00D1124E050FE4F40815181628124
:101BE0007381848195810E94B30C2196C770E5CFE3
:101BF0004091300250913102609132027091330273
:101C000080913402909135020C94B30CFF920F93A3
:101C10001F93CF93DF9380913502807FD1F4809121
:101C200032028823B1F08091FE011091FF01609192
:101C3000300270913102A0913302B0913402062F2C
:101C40000723C0910201D091030196E0F92E1813E9
:101C500006C0DF91CF911F910F91FF90089590E002
:101C6000109711F00F3F19F401968770F0CFF89E8E
:101C70009001F99E300D1124F901E050FE4F418191
:101C80004713F2CF40814613EFCF42814111ECCF91
:101C9000438154814A1B5B0B4C175D0728F78091E9
:101CA00035028F70806180933502F901EB5FFD4F43
:101CB00080818F708061808380E392E00E94400C7D
:101CC000DF91CF911F910F91FF900C94D70DAF92A0
:101CD000BF92CF92DF92EF92FF920F931F93CF9319
:101CE000DF93CDB7DEB761970FB6F894DEBF0FBEB6
:101CF000CDBF8C0185E0F801DE011D9601900D92AB
:101D00008A95E1F7F801E28080E3C82E82E0D82EC0
:101D100060913302709134026115710509F45FC15D
:101D20009091300220913102892F82238F3F09F454
:101D300056C140815181A380B480F0903202F501F8
:101D4000E61BF70BBF01E0910201F0910301FF20B8
:101D500009F4F6C080913502382F307F6E177F0767
:101D600008F0AFC0311179C0FE2C251323C09413A5
:101D700021C0E1101FC08F708061809335020E94E6
:101D8000F80DC6010E94400C80913502F801858350
:101D90008F2D61960FB6F894DEBF0FBECDBFDF91D9
:101DA000CF911F910F91FF90EF90DF90CF90BF9058
:101DB000AF900895AB2829F0842F85238F3F09F039
:101DC00027C180E0F82FF170DF2E80FF3CC08091AA
:101DD000FE012091FF0136E0821315C04D875E871A
:101DE0008D859E850E94A90D292F22952F70223066
:101DF000F0F0243018F59F70F1F0F8019581907F94
:101E0000D1F4D12C1EC090E0389FF001399FF00D25
:101E10001124E050FE4F6181651306C06081641398
:101E200003C062816E110FC001968770D5CF9F707D
:101E300011F0882331F3805E883018F3C8010E94C6
:101E4000400CFD2CA5CFEE2009F4A2CF80913502E5
:101E5000816080933502F12C9BCF251306C094132B
:101E600004C0F801EE2009F487C0C8010E949D0C4F
:101E7000882319F1EE2009F180913502803270F04B
:101E8000209130023091310238872F831986BB862A
:101E9000AA868C87CE0107960E94400C86E0F80146
:101EA000A0E3B2E001900D928A95E1F70E94060E40
:101EB0000E94F80DFF24F3946BCFC8010E94400CE0
:101EC000F9CF311113C07A2DB98AA88A6E2D89896C
:101ED0000E94A40C80E392E00E94400C86E0F60190
:101EE00011928A95E9F70E94F80DB5CF25130FC01E
:101EF00094130DC0E1100BC0F8018583C8010E9446
:101F0000400C86E0F60111928A95E9F741CFC801AD
:101F10000E949D0C882389F2EE2079F2809135028F
:101F2000803208F4BBCF20913002309131023A83E5
:101F300029831B82BD82AC828E83CE010196ACCFF9
:101F40006E177F0708F03EC0FE2CEE2009F4B5CFD7
:101F500025132AC0941328C08091350280FD1BC030
:101F6000982F907FC1F0F8018583903F31F0982F32
:101F7000907F905F8F70892B8583C8010E94400CF1
:101F800086E0F801A0E3B2E001900D928A95E1F7B6
:101F90000E94F80DFDCE86E0F801A0E3B2E00190CA
:101FA0000D928A95E1F7F4CEC8010E949D0C811133
:101FB00075CF80913502816080933502C8010E94FF
:101FC000400CE6CE7A2DB98AA88A6E2D89890E94A6
:101FD000A40C86E0F60111928A95E9F7D9CFEE209C
:101FE00009F46BCFC8010E949D0CF82E882309F4D8
:101FF00064CF86E0F801A0E3B2E001900D928A95EB
:10200000E1F780E392E00E94FE080E94060EC0CF36
:1020100081E08E25D7CE1F93CF93DF93CDB7DEB768
:102020002C970FB6F894DEBF0FBECDBF4F835887F5
:1020300069877A878B879C87CE0107960E94670EF7
:10204000882369F08A859B85892B39F04F815885D3
:10205000842F85238F3F09F071C016E05FC086E0B2
:10206000FE013796DE01119601900D928A95E1F7F7
:102070008A859B85892B89F38F81988589238F3F5A
:1020800061F32091FF0130E0C90101968770992723
:102090004091FE014817190671F40E947A0C1092C3
:1020A000FF011092FE0186E0E0E3F2E0DF011D9205
:1020B0008A95E9F7D2CF96E0929FD001939FB00D19
:1020C0001124A050BE4FFE01319601900D929A95B9
:1020D000E1F78093FF010E94D70DBFCF819FC00120
:1020E000112480509E4F0E94670E8823E9F0E091F2
:1020F000FE011E9FF0011124E050FE4F40815181EE
:1021000062817381848195810E94B30C8091FE016C
:1021100090E00196877099278093FE018091FE01DF
:102120009091FF018913DACF2C960FB6F894DEBF99
:102130000FBECDBFDF91CF911F91089569857A853C
:102140008B859C850E94B30C88CF682F80910401F9
:10215000909105010C94D623682F809104019091F1
:1021600005010C94D82380910401909105010C94F1
:10217000DA2380913602859585958595089580911D
:1021800036028770089590913602977081E009F4C5
:1021900080E0089580914202089590914202892B37
:1021A00080934202089580959091420298239093E3
:1021B0004202089510924202089590914102892BA3
:1021C00080934102089580959091410298239093C5
:1021D000410208951092410208951092400208951C
:1021E00080913702089508950C94F3109091D802CD
:1021F00092FD08C090913702981721F08093370222
:102200000C94F410089580913702882329F01092DD
:10221000370280E00C94F4100895E0910401F091ED
:102220000501809142028083E0910401F091050153
:10223000808190914102892B8083E0910401F0918B
:102240000501808190914002892B80839091370213
:10225000992381F0E0910401F09105018081892B9F
:10226000808380910401909105010E948E23811149
:102270000E94031180910401909105010C9449235F
:1022800008950C9440119091D80292FD10C098E0EE
:10229000899F90011124622B609336020E94F30CF7
:1022A000809136028595859585950C9441110C9405
:1022B000F30C1092360280E00C944111909136029A
:1022C0008095892380933602282F277091F4282F38
:1022D000082E000C330B9217130659F09091D80278
:1022E00092FD07C08595859585950E94FE0C0C94FE
:1022F000591108959091D80292FB222720F92817AE
:1023000069F080FB92F99093D8028091D702909166
:10231000D8020E94C51182E00C945E11089580914C
:10232000D80282FB882780F991E089270C947A11E2
:1023300081E00C947A1180E00C947A116FEF7FEFBA
:1023400090E080E00C94B72C90E080E00E94932C09
:10235000893E9E4F11F40C94571B80E0089582E053
:1023600090E00C948B2C83E090E00C948B2CCF931A
:1023700084E090E00E948B2CC82F82E290E00E94C3
:102380008B2C982F8C2FCF910895CF93C92F682F26
:1023900084E090E00E94992C6C2F82E290E0CF9133
:1023A0000C94992CAB01BC018FE090E00C94AB2C09
:1023B000AB01BC0183E190E00C94AB2C60E070E0D9
:1023C000CB010C94D81160E070E0CB010E94D211D7
:1023D0000C94DE1169EE7EEF90E080E00E94B72C55
:1023E00060E082E090E00E94992C60E083E090E061
:1023F0000E94992C1092FD0160E084E090E00E9420
:10240000992C60E082E290E00E94992C60E085E0E7
:1024100090E00E94992C60E086E090E00E94992C68
:102420006FEF87E090E00E94992C40E050E0BA0105
:1024300088E090E00E94AB2C60E08DE090E00E948C
:10244000992C40E050E0BA0188E190E00E94AB2C6A
:1024500060E087E190E00E94992C40E050E0BA01F2
:102460008CE190E00E94AB2C70E060E080E290E0B4
:102470000E94B72C40E050E0BA0188E190E00E9451
:10248000AB2C80E00E94701B0E94961B0C94E31101
:102490000C94EA11682F8EE090E00C94992C0E9425
:1024A0007D24609360027093610280936202909336
:1024B000630260935C0270935D0280935E0290936E
:1024C0005F0208950E947D24609360027093610210
:1024D0008093620290936302609358027093590252
:1024E00080935A0290935B02089585B7806885BFF8
:1024F00085B7806885BF0895089508950C947C126F
:1025000008950C9480120E9475128FE395E10E9449
:102510002C230E947D120C947E120C94AA1508950F
:1025200008950E948F120C9490120E9468240E94B9
:10253000FE140E94A51B0E945D030E949E1C0E9427
:10254000711F0E949C060C948112AF92BF92CF9291
:10255000DF92EF92FF920F931F93CF93DF93CDB74C
:10256000DEB72A970FB6F894DEBF0FBECDBF0E942C
:10257000290481110E944F1284E4A82E82E0B82E13
:1025800010E000E0C02E802F0E945603E82EF501D7
:10259000F1905F01F81609F455C08091640281FD45
:1025A0000E945C038F2D8E25D12CFF24F394982F4D
:1025B0009F2109F442C00E948D12882399F0DE8287
:1025C000CF82EF2081E009F480E088870E947124A7
:1025D0008160782F9A8789874E815F8168858A8597
:1025E0000E94C008F801EC5BFD4F8081F826F08264
:1025F0000E948A1F81110E9462120E948E190E94FD
:102600009E060E94362390914302891791F10E9401
:102610003623809343022A960FB6F894DEBF0FBE8E
:10262000CDBFDF91CF911F910F91FF90EF90DF9081
:10263000CF90BF90AF900C94B808D394FF0CF5E006
:10264000DF12B5CF0F5F1F4F0431110509F09ACF8C
:102650008FEF89838A831B820E9471248160782F87
:102660009D838C8349815A816B818D810E94C00832
:10267000BFCF2A960FB6F894DEBF0FBECDBFDF9155
:10268000CF911F910F91FF90EF90DF90CF90BF906F
:10269000AF900895CF93DF930E942414EC0181152D
:1026A00022E5920778F5811531E5930708F098C087
:1026B0008F3F910509F0B8F4803F910508F06FC095
:1026C000853A910540F48430910548F4019739F03A
:1026D000D0E0C0E004C0805E91090897C8F7CE0141
:1026E000DF91CF910895811540E5940708F05CC013
:1026F000C11580E4D80708F054C0C11590E2D9078D
:1027000070F3E6CF811526E5920718F5811535E5BA
:10271000930708F07DC0811544E5940708F073C065
:10272000982F969596959E0123703327C115D34512
:1027300008F45BC0C1E0D0E002C0CC0FDD1F2A95D9
:10274000E2F730E2939FC0011124C82BD92BDA683D
:10275000C6CFC1159AE5D90778F4C11529E5D20786
:1027600008F060C0C11538E5D30708F4B1CFDC2FFD
:10277000CC27C06FD06AB3CFCE019056811590425E
:1027800008F0A6CF8D2F8F710E94BB1490E0982F78
:10279000882788279F719C012C2BE90141C0D065B7
:1027A0009ECFDF70D06A9BCFE4E096958795EA953F
:1027B000E1F783702C2F26952695237090E2299FB0
:1027C00090011124382B8C2F8370C1E0D0E002C01F
:1027D000CC0FDD1F8A95E2F7C22BD32BDC687FCFAD
:1027E000D82FCC27C16FD06A7ACFC1E0D0E002C029
:1027F000CC0FDD1F2A95E2F720E2929FC001112441
:10280000C82BD92BEBCFD82FCC27C46FD06A67CF7A
:102810000E94BB14C82FD0E0DC2FCC27CC27DF715F
:10282000D0625DCF8C2F8F700E94BB1434E0D695A0
:10283000C7953A95E1F7CF709C2FEC01D0694FCF47
:102840000E94A81E0C944A1382389105B1F1B0F48D
:102850008133910509F475C048F48932910509F472
:1028600069C08A32910509F473C0089585339105D2
:1028700009F459C08933910501F10895833E91050A
:10288000A9F138F4803E9105F9F0823E910549F1B5
:102890000895863E9105A9F1873E9105C9F1843ED0
:1028A000910519F52091D80221FF1FC08091D70210
:1028B00084FD14C087EE90E008952091D702237024
:1028C000A1F080EE90E008952091D70220FD47C04E
:1028D0003091D80230FF09C024FF44C090E080E06E
:1028E00004C02091D70222FDF7CF08952091D7028E
:1028F00022FD3BC03091D80230FDE3CF24FFF5CF5D
:10290000EDCF2091D70223FFF0CF24FDE7CFD2CF28
:102910002091D70223FD2CC03091D80231FFEECF99
:1029200084EE90E008952091D70225FFDECF89E262
:1029300090E008952091D70225FFD7CF85E390E05E
:1029400008952091D70226FFD0CF8AE290E0089523
:102950002091D70226FFC9CF81E390E0089589E353
:1029600090E0089583EE90E0089582EE90E008955F
:1029700086EE90E008959091D70292FF06C0282F2E
:1029800028712830F9F4877F846093FF06C0282FD0
:1029900028712831F1F4877E84612091D80220FFCC
:1029A00006C0382F38713830D9F4877F816021FF15
:1029B00006C0282F28712831D1F4877E816194FDCB
:1029C000877E0895282F24712430F9F68B7F886044
:1029D000DCCF282F2471243101F78B7E8861DDCF75
:1029E000382F3171313019F78E7F8860E0CF282F72
:1029F0002171213121F78E7E8861E1CF1092D302BF
:102A00001092D4021092D5021092D6020895CF925D
:102A1000DF92EF92FF926B017C010E94AA15811157
:102A20000EC00E947D24C61AD70AE80AF90AC0928D
:102A3000D302D092D402E092D502F092D602FF9057
:102A4000EF90DF90CF9008950F931F930E94AA15E7
:102A5000882321F01F910F910C947D240E947D24E6
:102A60000091D3021091D4022091D5023091D60268
:102A7000600F711F821F931F1F910F91089580E0B7
:102A800008950C949E110E9429048FE39CE90197FC
:102A9000F1F700C000000E94290480E00E94560364
:102AA00080FF04C00E9441150C94D82408950C9412
:102AB00043150E94A411811102C00E9448120E9475
:102AC000AF11809364020E94B7119093D802809353
:102AD000D7020E9457150E94B3110E94CD0C80911D
:102AE000FC010C94E00C0895FF920F931F93CF9379
:102AF000DF93F82E092F162FD72FC42F222349F04A
:102B000081E0809367020E94712490936602809313
:102B10006502809167028823A1F0809165029091FF
:102B200066020E948924059760F0EF2DF02FA12FF7
:102B3000BD2FCE0FDF2FD11DEC17FD0741F41092F2
:102B40006702DF91CF911F910F91FF9008958191BE
:102B50008D93F2CF80916802811107C00E94332CBF
:102B6000882351F081E08093680281E090916802AF
:102B7000913009F080E0089582E0809368020E941D
:102B80002E2CF3CF0C94AA150E94C2158093060137
:102B90000E94AA1581110C94DC1508950E94AA15B3
:102BA000811102C00C94DE15089581E090916902B4
:102BB0009A3008F080E008950C946B210C946E21FB
:102BC000EF92FF920F931F93CF93DF937901C82F5A
:102BD000880FDD0B41155105A9F08AE08C9FF001AB
:102BE0008D9FF00D1124E95FFE4F838194818659FA
:102BF0009D4F228130E04217530708F49A01A90142
:102C00000E94822CCE010E947822892B11F5011599
:102C10001105E9F08AE08C9FF0018D9FF00D1124E1
:102C2000E95FFE4F458150E00417150708F4A8013D
:102C30008AE08C9FF0018D9FF00D1124E95FFE4F1B
:102C40006681778166597D4FC7010E94822C81E0A1
:102C500001C080E0DF91CF911F910F91FF90EF9025
:102C600008950C9490170C94B4170F931F93CF935F
:102C7000DF9300D000D0CDB7DEB7609191027091A4
:102C8000920280919302909194020E94982411E004
:102C9000643671058105910518F10E9424156E5F57
:102CA0007F4F8F4F9F4F69837A838B839C8310E084
:102CB00000E030E020E044E050E0BE016F5F7F4F75
:102CC00084E00E94E015182F882351F00E947D2493
:102CD0006093910270939202809393029093940276
:102CE000812F0F900F900F900F90DF91CF911F9138
:102CF0000F9108957F928F929F92AF92BF92CF9241
:102D0000DF92EF92FF920F931F93CF93DF930F9277
:102D1000CDB7DEB7762E4A015901680101E010E017
:102D20009E012F5F3F4F50E040E070E060E00E9466
:102D3000E015182F882309F43EC0F40160817181E9
:102D4000828193810E9498246436710581059105E2
:102D500058F18701950150E040E070E060E0872D78
:102D60000E94E015B82EB701C6010E949F1C11E019
:102D70009981981310E01B2139F00E947D24F40101
:102D80006083718382839383812F0F90DF91CF9132
:102D90001F910F91FF90EF90DF90CF90BF90AF9079
:102DA0009F908F907F900895B701C6010E949F1C4D
:102DB00099818913CECFA701B601C5010E94822C4B
:102DC000E3CFEF92FF920F931F93CF93DF930F9276
:102DD000CDB7DEB700916F0110917001045F1F4FF6
:102DE000EE24E394F12C9E012F5F3F4F4DE852E01B
:102DF00063E082E00E947A16182F882321F0CE012A
:102E000001960E94E31F812F0F90DF91CF911F91B8
:102E10000F91FF90EF900895CF92DF92EF92FF9283
:102E20000F931F93CF93DF93CDB7DEB72A970FB6DB
:102E3000F894DEBF0FBECDBF6B0100916F01109102
:102E400070010F5F1F4F8AE0E82EF12C9E012F5F6B
:102E50003F4F49E852E061E080E00E947A16882303
:102E600049F09AE0FE013196AFE7B2E001900D9291
:102E70009A95E1F79AE0EFE7F2E0D60101900D9222
:102E80009A95E1F72A960FB6F894DEBF0FBECDBF34
:102E9000DF91CF911F910F91FF90EF90DF90CF9036
:102EA0000895AF92BF92CF92DF92EF92FF920F936D
:102EB0001F93CF93DF937C015B016A010E94D515BC
:102EC00001E010E0882311F00AE010E0C1E0D0E05A
:102ED000F894B501C701F60109957894811104C0F1
:102EE00021960C171D075CF4DF91CF911F910F9174
:102EF000FF90EF90DF90CF90BF90AF900895CC9F60
:102F00009001CD9F300D300D112490E080E045E31D
:102F10004A95F1F70000019682179307C1F7D8CFC1
:102F20000F931F93CF93DF93EC018B014CE057E19C
:102F30000E945117882391F041EE56E1B801CE016D
:102F40000E945117882351F045E356E1B801CE01A4
:102F5000DF91CF911F910F910C94511780E0DF9179
:102F6000CF911F910F9108950F931F93CF93DF93EC
:102F70000F92CDB7DEB7F89400916F0110917001F8
:102F8000C80101962AE0FB01DC0101900D922A950F
:102F9000E1F76AE070E00E949F1CF801808378945A
:102FA000F894CE0101960E94DA1F8981F801848786
:102FB00061E070E0CE0101960E949F1CF8018387BA
:102FC0007894F894658576858785908900917B0251
:102FD00010917C0220917D0230917E026017710772
:102FE0008207930751F060937B0270937C02809379
:102FF0007D0290937E020E94071578940F90DF91D6
:10300000CF911F910F9108950E947D260E949512E5
:103010000C9489260E948D260E94A5120C94A72646
:103020000E94FB230E9464260E9483120E940418BF
:103030000E940A180E949112FBCF80919B0280FF90
:1030400012C060913E0185E0689FB0011124759522
:1030500067957595679560387105A8F561157105D7
:10306000A1F1862F089581FF09C060913E0185E09E
:10307000689FB001112475956795EDCF60913E0171
:1030800082FD0AC080919A028823D1F090913D017F
:1030900060913E01891728F085E0689FB0011124F6
:1030A000DACF869FB001112485E0869F9001879F2B
:1030B000300D1124692F70E0C9010E94402CCBCF44
:1030C00065E070E0CECF8FE7089581E008958091AC
:1030D0009B0280FF0CC060913A0170E07595679586
:1030E000759567956115710549F1862F089581FFE2
:1030F00006C060913A0170E075956795F3CF6091D5
:103100003A0182FD0BC0909199029923A1F0609140
:10311000390180913A01961738F0682F70E06038D5
:10312000710500F38FE70895899FC001112470E0B5
:103130000E94402CF4CF61E070E0D7CF81E0089589
:10314000803F31F40E941D18819580939F0208955D
:10315000813F19F40E941D18F8CF823F31F40E947C
:103160001D18819580939E020895833F19F40E9453
:103170001D18F8CF893F29F40E9467188093A00298
:1031800008958A3F21F40E9467188195F7CF8B3FFD
:1031900031F40E94671881958093A10208958C3FB5
:1031A00019F40E946718F8CF9CE0980F953070F4DE
:1031B000845F990B21E030E001C0220F8A95EAF785
:1031C00080919D02822B80939D0208958D3F31F462
:1031D00080919B02816080939B0208958E3F21F431
:1031E00080919B028260F7CF8F3FB9F780919B025D
:1031F0008460F1CF40919E02803F59F480919F02FC
:1032000087FF0DC010929F0241110BC010929A02CD
:1032100008C0813F81F480919F0218169CF34423DB
:1032200081F08091A0029091A102892B09F05AC0EF
:10323000109299020895823F49F447FFF0CF10920F
:103240009E0280919F028111ECCFE0CF833F19F461
:103250001416ACF3E4CF9091A002893F29F419161B
:10326000F4F61092A002DBCF8A3F19F497FFD7CF74
:10327000F8CF9091A1028B3F29F497FFD0CF109205
:10328000A102CDCF8C3F19F41916CCF3C8CF9CE026
:10329000980F953090F4845F990B21E030E0B901EC
:1032A00002C0660F771F8A95E2F7CB018095909157
:1032B0009D02892380939D02B2CF8D3F31F480918E
:1032C0009B028E7F80939B02AACF8E3F21F4809138
:1032D0009B028D7FF7CF8F3F09F0A1CF80919B029A
:1032E0008B7FF0CF08950E9471249C0190919E02E3
:1032F00080919F02982B21F030939802209397029F
:103300009091A0028091A102982B21F03093960217
:10331000209395028CE992E00C945423EF92FF9253
:103320000F931F93CF93DF9300D000D000D0CDB781
:10333000DEB786E0ECE9F2E0DE01119601900D9235
:103340008A95E1F7E0909E02F0909F020091A00222
:103350001091A10210929E0210929F021092A00260
:103360001092A1028E2D8F2991F080919702909159
:1033700098020E948924AC0190919A02992309F441
:103380003FC080913F018417150608F447C0802F85
:10339000812B91F080919502909196020E94892450
:1033A000AC0190919902992309F477C080913B0177
:1033B0008417150608F47FC080919E0290919F02A9
:1033C000892B9091A002892B9091A102892B11F059
:1033D0000E94731986E0FE013196ACE9B2E00190DB
:1033E0000D928A95E1F726960FB6F894DEBF0FBED0
:1033F000CDBFDF91CF911F910F91FF90EF90089576
:10340000209140018AE0289F90011124241735075C
:1034100008F0BDCF9F5F90939A0202C09F3FD1F703
:10342000EE2059F00E941D189FEF1E140CF491E03D
:10343000899F802D112480939E02FF2059F00E94C5
:103440001D189FEF1F140CF491E0899F802D11240B
:1034500080939F0230919E02332309F498CF2091EC
:103460009F02222309F493CF45EB3403C0011124BA
:10347000992359F090939E0245EB24039001112467
:10348000332339F030939F0282CF81E080939E02F4
:10349000F3CF81E080939F027ACF20913C018AE0B4
:1034A000289F900111242417350708F085CF9F5FCE
:1034B0009093990202C09F3FD1F7002359F00E94D8
:1034C00067189FEF10160CF491E0899F802D11244E
:1034D0008093A002112359F00E9467189FEF1116E4
:1034E0000CF491E0899F802D11248093A1023091EA
:1034F000A002332309F460CF2091A102222309F412
:103500005BCF45EB3403C0011124992359F090930C
:10351000A00245EB240390011124332339F03093AA
:10352000A1024ACF81E08093A002F3CF81E0809393
:10353000A10242CF86E0ECE9F2E0DF011D928A951C
:10354000E9F710929A021092990210929B02089544
:10355000EF92FF920F931F93CF93DF93CDB7DEB718
:103560002C970FB6F894DEBF0FBECDBF49835A83A8
:103570006B837C838D839E83EF82F88609871A870D
:103580002B873C8746E050E0BE01695F7F4FCE014C
:1035900001960E94752C21E0892B09F420E0822FEE
:1035A0002C960FB6F894DEBF0FBECDBFDF91CF9142
:1035B0001F910F91FF90EF900895EF92FF920F935C
:1035C0001F93E090A202F090A3020091A402109138
:1035D000A5022091A6023091A7024091A802509125
:1035E000A9026091AA027091AB028091AC02909105
:1035F000AD020E94A81A882321F088EA92E00E9476
:1036000054231092AA021092AB021092AC021092B4
:10361000AD0286E0E8EAF2E0A2EAB2E001900D92A3
:103620008A95E1F71F910F91FF90EF900895CF9346
:10363000DF9300D000D000D0CDB7DEB786E0E8EA57
:10364000F2E0DE01119601900D928A95E1F7298151
:103650003A814B815C816D817E8180E090E026968D
:103660000FB6F894DEBF0FBECDBFDF91CF910895A6
:10367000CF93DF9300D000D000D0CDB7DEB7498321
:103680005A836B837C838D839E8386E0FE01319613
:10369000A8EAB2E001900D928A95E1F726960FB65E
:1036A000F894DEBF0FBECDBFDF91CF91089583E2C6
:1036B00090E00E948B2C823289F484E290E00E9498
:1036C0008B2C813059F485E290E00E948B2C91E0A4
:1036D000843009F090E0892F8170089580E0FCCF5C
:1036E000CF93C82F6FEF811162E283E290E00E94D6
:1036F000992C6FEFC11161E084E290E00E94992C57
:103700006FEFC11164E085E290E0CF910C94992CA9
:10371000089586E290E00E948B2C682F70E090E084
:1037200080E0089586E290E00C94992C80E00E945D
:10373000701B60E070E0CB010E94921B0E94201E73
:103740000E940A1F81E00C94701B0E94881B0E943B
:10375000571B811102C00C94961B0895CF93FB0157
:10376000C281CC2309F19C0122513F452031310512
:1037700020F582510E941A1FC0E08C2FCF9108952E
:1037800081E00E94F30C43E062E081E00E94580770
:10379000F3CF81E00E94FE0C43E062E081E00E94F2
:1037A0005807EBCF82E0F6CF8031FFE59F0789F322
:1037B00081319F45B9F3C1E0E0CF8031EFE59E074D
:1037C000F9F281319F45C9F682E0DBCF2FEFFC0192
:1037D00020830895EF92FF920F931F93CF93DF936F
:1037E000EC01062FE881E150E33108F05EC0F0E023
:1037F000E751F34D0C94542C198289E08A83602F91
:10380000CE01DF91CF911F910F91FF90EF900C941B
:103810003D258981823069F0833071F08130D9F49F
:103820000E947D240E945A2C6A837B838C839D8313
:10383000E6CF0E94891BF6CF7E0182E0E80EF11CE4
:1038400010E0812F0E945603F70181937F011F5FD3
:103850001431B9F7D4CF602FCE010E94E61BCFCF31
:1038600089818230C1F76A817B818C819D810E9430
:103870005A2C0E94921BC3CF4B816A8189810E947E
:10388000F21D9827892798279D838C83B8CF2C8198
:103890003D813227232732274B816A8189810E940B
:1038A0000B1EADCF0E94201EAACF8FEF8883A7CF1B
:1038B0000E94B51E8983A3CF0E94B71E982789272F
:1038C00098279A8389839BCF6B8170E089819A8145
:1038D000AE014C5F5F4F9827892798270E94BA1E38
:1038E0008ECF6B8170E089819A81AE014C5F5F4F12
:1038F0009827892798270E94E01E81CF0E940A1FDF
:103900007ECF0E94E01DD6CF6B8170E089819A81C5
:10391000AE014C5F5F4F9827892798270E94581E59
:103920006ECF6B8170E089819A81AE014C5F5F4FF1
:103930009827892798270E947E1E61CF0895FC0151
:10394000680F791F8FEF91E36E177F0709F40895D1
:103950002191822728E030E087FF06C0880F892761
:1039600021503109C9F7F0CF880FFACFCF93DF93F9
:10397000EC01FB018281882309F420C1C330FDE5FD
:10398000DF07C8F5CA3F9CE5D90730F49E012250F5
:103990003C452431310598F50E94B7119093D80227
:1039A0008093D702C031FCE5DF0709F4E0C008F0DE
:1039B00061C0C8309CE5D90709F4CBC088F5C43094
:1039C000FCE5DF0709F4B3C0E8F4C2309CE5D90791
:1039D00009F4A7C08091D7028260C330DC4509F4A6
:1039E000A3C08091D7029091D8020E94C5110E9475
:1039F0007A0C80E004C0C136EDE5DE0769F2DF91A4
:103A0000CF9108958091D7028061C630FCE5DF0731
:103A100009F48AC008F48FC08091D702806284C004
:103A20008091D7028D7FCC309CE5D90709F47CC00A
:103A300070F48091D7028C60CA30FCE5DF0709F48E
:103A400073C008F48AC08091D7028E7F6DC08091C8
:103A5000D702877FCE309CE5D90709F465C08091F5
:103A6000D7028B7FCF30DC4508F45EC08091D7024F
:103A70008F7E5AC0CC3FFCE5DF0709F474C040F5E7
:103A8000C4319CE5D90709F48AC058F4C231FCE579
:103A9000DF0709F474C008F46EC08091D702837FF9
:103AA00043C0CA3F9CE5D90709F449C008F04DC09E
:103AB000C531DC4509F095CF8091D70282FB99276B
:103AC00090F921E0922790FB82F990FB83F92CC0BA
:103AD000C1158DE5D80709F458C088F48091D80243
:103AE0008360CE3FECE5DE0769F18091D8028D7FDF
:103AF000CF3FDC4538F18091D8028C7F23C0C230A3
:103B00008DE5D80709F458C008F452C0C136DD4528
:103B100009F067CF9091D702892F8F7E94FF806143
:103B200003C08091D70281608093D7025ACF8091E1
:103B3000D7028460F9CF8091D7028860F5CF809159
:103B4000D80281608093D8024CCF8091D8028260E5
:103B5000F9CF8091D7028064E7CF0E947A0C8091E0
:103B6000D7028068E1CF8091D8028E7FEBCF809121
:103B7000D7028F7DD9CF8091D7028F7BD5CF0E947E
:103B80007A0C8091D7028F77CFCF8091D802982F6F
:103B9000909591708E7F892B90FB81F9D3CF0E94F5
:103BA0007A0C9091D702892F97FB87F98058BCCF68
:103BB00081E00E944A1215CF80E0FBCF81E01FCF49
:103BC00084E0089550E0440F551F9AE0699F400D2E
:103BD000511D112498EC899F400D511D1124CA01DB
:103BE000879608950F931F93CF93DF930E94E21D52
:103BF0008C010E948B2CC82FD0E0DC2FCC27C80171
:103C000001960E948B2C9E01282BC901DF91CF9138
:103C10001F910F9108950F931F93CF93DF93122F4E
:103C2000032F0E94E21DEC01602F0E94992C612F4E
:103C3000CE010196DF91CF911F910F910C94992C99
:103C4000AF92BF92CF92DF92EF92FF921F93CF93EA
:103C5000DF938CEAC82E80E0D82ED0E07601C0E059
:103C600014C0F50125913491412F6C2F8D2F0E94A6
:103C70000B1E82E0A80EB11C1F5F153091F78AE081
:103C8000E80EF11CCF5FC43119F0570110E0E9CF05
:103C9000DF5F88ECC80ED11CD43001F7DF91CF91E3
:103CA0001F91FF90EF90DF90CF90BF90AF9008955D
:103CB000EF92FF920F931F93CF93DF93EC018A0152
:103CC0007C01E60EF71ECE018796CE15DF0539F48E
:103CD000DF91CF911F910F91FF90EF900895C03227
:103CE00023E0D20740F40E948B2CF80180830F5F01
:103CF0001F4F2196E8CFF8011082F9CFCF92DF92C3
:103D0000EF92FF920F931F93CF93DF937C016A0191
:103D10008C01060F171FEC01CE018796C017D10743
:103D200049F4DF91CF911F910F91FF90EF90DF90B9
:103D3000CF900895C03223E0D20740F4FE01EE197F
:103D4000FF09EC0DFD1D60810E94992C2196E4CFA6
:103D5000462F843038F4743128F4653018F4672F16
:103D60000C94F21D90E080E0089580E1089589EBC5
:103D700090E00895EF92FF920F931F93CF93DF93FC
:103D8000EC018A017C01E60EF71ECE01895B9C4F97
:103D9000CE15DF0539F4DF91CF911F910F91FF9080
:103DA000EF900895C93BD10540F40E948B2CF80197
:103DB00080830F5F1F4F2196E8CFF8011082F9CF63
:103DC000CF92DF92EF92FF920F931F93CF93DF93E7
:103DD0007C016A018C01060F171FEC01CE01895B83
:103DE0009C4FC017D10749F4DF91CF911F910F91DC
:103DF000FF90EF90DF90CF900895C93BD10540F43C
:103E0000FE01EE19FF09EC0DFD1D60810E94992C49
:103E10002196E4CFCF93DF93C7E4D3E060E0CE01F7
:103E20000E94992C2196C11584E0D807B9F7DF913B
:103E3000CF910895DF92EF92FF920F931F93CF934C
:103E4000DF9300D000D0CDB7DEB7F82E8FE08F150E
:103E500040F08FEF93E00E948B2C07E413E088235F
:103E6000C1F00F900F900F900F90DF91CF911F91A5
:103E70000F91FF90EF90DF900895011584E01807EF
:103E800081F3C8010E948B2C811101C0FA940F5F4D
:103E90001F4FF110F2CF19821A821B821C82DD247F
:103EA000D39478018FEFE81AF80AC8010E948B2C8E
:103EB00089831A828823A9F29FEF980F933078F4B0
:103EC0008A83D9820E5F1F4FC7010E948B2C8B8380
:103ED000882339F2CE0101960E94AD08E2CF870116
:103EE000F9CF54985C9A84988C9A89B182958170A4
:103EF0007C990EC090E0892B8093B30290910601CB
:103F000081E098279093AF02891B8093AE020895B9
:103F100092E0F1CFCF93E091B302EE0FEE0FE0937A
:103F2000B30249B144FB882780F94FB144FB2227F3
:103F300020F944FF02C022E030E0822BE82BE0931E
:103F4000B302C091AF02EF70F0E0EF58FE4F8081F6
:103F50009091B202890F8093B20220E0843064F025
:103F6000EC2FF0E0E055FD4F80818F5F808360E0B3
:103F70008C2F0E946A0621E08091B2028D3F64F48A
:103F8000EC2FF0E0E055FD4F80818150808361E0AF
:103F90008C2F0E946A0621E08091B202082E000C4C
:103FA000990B64E070E00E94402C8093B202822F53
:103FB000CF910895E091AF02F0E0E055FD4F2081F0
:103FC000FC0120830895FF920F931F93CF93DF93FB
:103FD000D091AE020D2F10E000551D4FFC01C081A5
:103FE000F8018081C81BFC2E80E01F147CF09C2F00
:103FF000C7FD90E0C91BC11114C08823E9F0DF910F
:10400000CF911F910F91FF900C946212FA94F801D6
:1040100080818F5F808360E08D2F0E946A0681E03F
:10402000E4CFCF5FF80180818150808361E08D2FE4
:104030000E946A0681E0DFCFDF91CF911F910F913F
:10404000FF900895CF93DF93EB0186319C4511F5E6
:104050000E94CA109A81992399F08A7A91E009F412
:1040600090E09093B402811109C089E20E94A510EA
:104070000E940D1180E0DF91CF91089585E3F6CF86
:104080008091B402811104C089E20E94AC10F0CF8B
:1040900085E3FBCF81E0EFCF0F931F93CF93DF93A7
:1040A000C42FD22FFC0182818823C9F04093B7022C
:1040B0000E9471249093B6028093B50280E28C0F27
:1040C000883008F050C0C77081E001C0880FCA95E1
:1040D000EAF7DF91CF911F910F910C941A0A10917A
:1040E000B702141335C08091B5029091B6020E94B8
:1040F0008924883C910560F5C0E2CD0F1D17B9F009
:1041000080E2810F883040F4177081E001C0880F91
:104110001A95EAF70E94210AC83048F481E09D2FE1
:10412000977001C0880F9A95EAF70E941A0A802FAB
:104130000E94120AC830B8F4D77081E001C0880F1D
:10414000DA95EAF7DF91CF911F910F910C94210A34
:1041500080E28C0F883038F4C77081E001C0880F8E
:10416000CA95EAF7EFCFDF91CF911F910F91089594
:104170000F939C01CB01233F4CE5340759F1A8F480
:10418000283DFCE53F0701F1293D4CE53407D1F11D
:10419000273D3C4591F406E221EE41EE67ED7CE5DA
:1041A0000E944C2080E00F910895253FFCE53F07D9
:1041B000E9F0B0F0263F3C45F9F0FC01828188230C
:1041C00039F11092B702EFCF07E225EE45EE68ED28
:1041D0007CE5E6CF06E221EE40EE63EF7CE5E0CF42
:1041E00007E225EE44EE64EF7CE5DACF06E221EE4D
:1041F00042EE65EF7CE5D4CF07E225EE46EE66EFB2
:104200007CE5CECF08E221E045EE69ED7CE5C8CF44
:1042100081E0C9CF8EE14A9B02C08150E1F74A9B01
:10422000FECF08955A9880E28A95F1F75A9A089538
:10423000FC013BE03A95F1F798E020E080E031E0C6
:1042400040E14A95F1F7880F4A9B02C0816023271D
:1042500042E04A95F1F7000040E14A95F1F79150AC
:1042600079F790E19A95F1F799B132E03A95F1F743
:10427000000040E14A95F1F792FB992790F99227C7
:104280002081920F90830895EF92FF920F931F93D6
:10429000CF93DF930F92CDB7DEB719828C017C01EB
:1042A000E60EF11C0E151F0561F481E09981911154
:1042B00080E00F90DF91CF911F910F91FF90EF90D1
:1042C00008950E940A21CE0101960E941821F8014A
:1042D00081938F01E7CF529A5A9A089552985A9A29
:1042E000EA9AE9E6F0E080818F7C8083089561504E
:1042F000770B91E001C0990F6A95EAF720E031E071
:10430000911108C0222391F05A9A80E28A95F1F720
:104310005A980895492F482339F05A9A232740E2A2
:104320004A95F1F79695ECCF5A98F9CF5A98EDCF78
:10433000FF920F931F93CF93DF93EC018C01060F35
:10434000111DC017D10731F4DF91CF911F910F914B
:10435000FF900895F9900E94122168E08F2D0E942D
:104360007721EFCF1F920F920FB60F921124EF9289
:10437000FF920F931F932F933F934F935F936F93EE
:104380007F938F939F93AF93BF93EF93FF93CF93BD
:10439000DF930F92CDB7DEB719820E940A21CE01BA
:1043A00001960E941821A82FA695A695A695282FBC
:1043B000229525709A2F9570290F922F937026952C
:1043C0002695920F982797708981982B09F075C0D0
:1043D000A63008F072C080E18A95F1F75A9A529A95
:1043E000B2E0BA95F1F700C05A98EA2EF12CEAE053
:1043F000AE9FD0011124A95FBE4F1896ED91FC919C
:1044000019973097B1F060916F0170917001169615
:104410002D913C911797260F371F13968D919C91E4
:104420001497680F791F15964C91159712968C91D9
:1044300009958AE08E9DF0018F9DF00D1124E95FB2
:10444000FE4F6581662351F020916F01309170011C
:1044500086819781820F931F0E9498210E941221CA
:10446000F0E1FA95F1F75A9852985A9A80E18A95B4
:10447000F1F78AE08E9D80018F9D100D1124095F58
:104480001E4FD80112966C911297662371F12091FC
:104490006F013091700113968D919C91820F931F43
:1044A0000E944421D801ED91FC91882311F088E00D
:1044B00001C082E080830E940A210F90DF91CF919A
:1044C000FF91EF91BF91AF919F918F917F916F91EC
:1044D0005F914F913F912F911F910F91FF90EF901E
:1044E0000F900FBE0F901F901895ED91FC91DFCFAC
:1044F0000F931F93CF93DF93EC0106970CF0A9C0A5
:104500008AE08C9FF0018D9FF00D1124E95FFE4F32
:1045100080819181892B09F49CC0F894529A5A9811
:1045200085E08A95F1F700008C2F869585709C2F89
:104530009570890F982F937086958695890F8E01B7
:1045400093E0000F111F9A95E1F7082B0E941221AA
:1045500000C068E0802F0E947721A0E1AA95F1F7C2
:1045600052985A9A4A9B27C087E090E04A9925C002
:104570008AE08C9F80018D9F100D1124095F1E4FD2
:10458000F80165816623A1F120916F0130917001DE
:1045900086819781820F931F0E944421811128C038
:1045A000529A5A9AD801ED91FC9182E080837894D6
:1045B00082E090E016C000C0D5CF0197B9F4529ABE
:1045C0005A9A8AE08C9FF0018D9FF00D1124E95FCB
:1045D000FE4F0190F081E02D81E08083789481E0AE
:1045E00090E0DF91CF911F910F91089500C0BECF51
:1045F0000E940A21B0E2BA95F1F75A98529AE0E186
:10460000EA95F1F78AE08C9FF0018D9FF00D11245F
:10461000E95FFE4F6281662351F020916F01309176
:10462000700183819481820F931F0E9498210E94C0
:1046300012218AE08C9FF0018D9FF00D1124E95F1B
:10464000FE4F0190F081E02D1082789490E080E0A0
:10465000C8CF84E090E0C5CF909391018093900102
:1046600008959093BE028093BD0208950E94AA15FA
:10467000811103C08091B8020895E091BD02F091CC
:10468000BE02309721F00190F081E02D099480E086
:104690000895E091BD02F091BE02309721F00280B2
:1046A000F381E02D09940895E091BD02F091BE02DE
:1046B000309739F022E0DC012C930480F581E02D65
:1046C000099408952091BB023091BC022817390744
:1046D00071F09093BC028093BB02E091BD02F09117
:1046E000BE02309721F00680F781E02D09940895ED
:1046F0002091B9023091BA022817390771F09093CE
:10470000BA028093B902E091BD02F091BE023097E7
:1047100021F00084F185E02D099408959C012E5F1D
:104720003F4FAC01485F5F4F80E02417350709F425
:104730000895F90191919F019923B9F38F5FF5CF06
:10474000662349F0FC01329608962191261729F03C
:10475000E817F907D1F780E0089581E008959C01FA
:10476000FC0132969FEF80E04191461751F09F3F48
:1047700019F4411101C0982F8F5F8630A9F79F3F30
:1047800009F40895290F311D97FD3A95F9016283C7
:104790000895FC01329608962191261303C0DF018B
:1047A00011971C92E817F907B9F708950C94AF23F5
:1047B0000C94C923029626E0FC0111922A95E9F790
:1047C000089508950C94E123811105C081E0809340
:1047D000BF020C94E22382E0FACF83E08093BF0211
:1047E0000C94E2230C94E42381E08093BF020C94A8
:1047F000E2230C94F42308958091E202843031F195
:104800000E9469071092C00288E190E020E40FB690
:10481000F894A895809360000FBE2093600083B742
:10482000817F846083BF83B7816083BF78948895DC
:1048300083B78E7F83BF0FB6F894A89580916000F0
:10484000886180936000109260000FBE0895089503
:104850000895CF930E9427240E9429040E942824AF
:10486000C0E08C2F0E945603811105C0CF5FC43178
:10487000C1F7CF91089581E0FCCF0E947A0C0C948F
:10488000D9071F921FB61F9211248F939F93AF9346
:10489000BF938091C002811113C08091DA02909180
:1048A000DB02A091DC02B091DD024196A11DB11D99
:1048B0008093DA029093DB02A093DC02B093DD02D6
:1048C000BF91AF919F918F911F901FBE1F90189520
:1048D00082E084BD93E095BD9AEF97BD80936E0012
:1048E00008952FB7F8948091DA029091DB02A0919D
:1048F000DC02B091DD022FBF08952FB7F8946091CC
:10490000DA027091DB028091DC029091DD022FBF10
:1049100008959C014FB7F8948091DA029091DB02E0
:10492000A091DC02B091DD024FBF821B930B089572
:10493000CF92DF92EF92FF922FB7F894C090DA02F5
:10494000D090DB02E090DC02F090DD022FBFA701E7
:104950009601261B370B480B590BCA01B901FF9072
:10496000EF90DF90CF90089578941F921FB61F921A
:1049700011248F939F93AF93BF938091DA0290910C
:10498000DB02A091DC02B091DD020196A11DB11DF8
:104990008093DA029093DB02A093DC02B093DD02F5
:1049A000BF91AF919F918F911F901FBE1F9018953F
:1049B00087E797E7909301088093000888E19AE0E1
:1049C0000FB6F894A895809360000FBE9093600096
:1049D000FFCF8091C9020895089508959C0184E055
:1049E0008093E9009FEF8091E800915085FD06C01B
:1049F00085ED8A95F1F700009111F5CF8091E800DF
:104A000085FF0CC050E040E066E070E0C9010E9404
:104A10004E278091E8008E778093E8000895CF9329
:104A2000DF93EC0181E08093E9008FEF9091E80043
:104A3000815095FD06C095ED9A95F1F70000811122
:104A4000F5CF8091E80085FF14C050E040E068E0B9
:104A500070E0CE010E944E278091E8008E7780930F
:104A6000E80088E0FE01A1ECB2E001900D928A9589
:104A7000E1F7DF91CF9108950895CF93FC01603263
:104A800021F58091E202843001F5C091E900CF70F8
:104A90002091EC00922F917020FD90E8C92B82E0CC
:104AA0008093E9008091E80080FF0CC050E040E076
:104AB00060E270E0CF010E944E278091E8008E777F
:104AC0008093E800CF70C093E900CF910895809162
:104AD000E102811109C00E942D290E948A2980913A
:104AE000E20084608093E20008951092E10208954C
:104AF0000C94F4236091DE0281E0611101C080E03A
:104B00000C94ED239091E20281E0943009F080E072
:104B10006091DE020C94F22342E061EC81E00E949D
:104B2000A92842E261EC84E00E94A92842E261ECFB
:104B300082E00E94A92842E260EC83E00E94A9285A
:104B40009091E20281E0943009F080E06091DE0211
:104B50000C94E4238091E402833009F462C030F4C1
:104B60008130D9F1823009F49EC008958A3009F469
:104B70008AC08B3009F470C0893009F051C080912F
:104B8000E302813209F04CC08091E7029091E80283
:104B9000009719F0029709F043C08091E800877FE1
:104BA0008093E8008091E80082FF36C09091F30086
:104BB0008091F200029731F48091F100813011F080
:104BC000863021F48091F1008093C9028091E80041
:104BD0008B778093E8000C94DD288091E302813A82
:104BE000F9F48091E800877F8093E8008091E702E4
:104BF0009091E802892B61F468E081EC92E070E02A
:104C00000E94EC278091E8008B778093E80008955C
:104C100060E090E080E0F3CF8091E2028111C2CFAA
:104C200008958091E302813AD9F78091E70290914B
:104C3000E802892BA9F78091E800877F8093E8003C
:104C40008091E80080FFFCCF80914D018093F100BE
:104C50008091E8008E77BDCF8091E302813201F729
:104C60008091E7029091E802892BD1F68091E800CB
:104C7000877F8093E8000E94DD288091E502809381
:104C80004D010C947A0C8091E302813249F68091B7
:104C9000E800877F8093E8000E94DD288091E6028B
:104CA0008093CA0208958091E302813A09F0B8CF57
:104CB0008091E800877F8093E8008091E80080FF82
:104CC000FCCF8091CA02C2CF84B7877F84BF0FB662
:104CD000F894A8958091600088618093600010929C
:104CE00060000FBE80E890E00FB6F89480936100FA
:104CF000909361000FBE0C94F9230E942D290E940D
:104D00008A29E2EEF0E080818460808378940C94BC
:104D1000132C81E491E00C9431238091E2028530E0
:104D2000A9F48091E202853011F00C943D240E9498
:104D3000FC238091E0028823A1F30E942924882388
:104D400081F30E9438270E947A0CEBCF0895CF930D
:104D5000DF93CDB7DEB7A0970FB6F894DEBF0FBED6
:104D6000CDBF8091E202843009F583E08093E900B1
:104D70008091E80082FF1AC08091E80090E085FFF2
:104D800009C050E040E060E270E0CE0101960E9470
:104D90009D2791E08091E8008B778093E80099232C
:104DA00029F060E2CE0101960E94EA1BA0960FB6A0
:104DB000F894DEBF0FBECDBFDF91CF9108950C9464
:104DC000E126292F33272330310521F168F42130E2
:104DD000310509F443C02230310509F444C090E0A4
:104DE00080E030E020E026C02132310551F122324E
:104DF0003105A9F76330710590F7FB01EE0FFF1F36
:104E0000EC57FE4F208131816F577E4FFB0180812F
:104E100090E010C099278130910581F0009729F02A
:104E20000297E9F6ECE7F4E002C0EAE9F4E08491E5
:104E300090E09F01FA01318320830895E2E9F4E0D4
:104E4000F6CF6330710558F6660F771FFB01E65702
:104E5000FE4F2081318189E090E0ECCF82E190E04B
:104E600029EF34E0E7CF8BE590E02EE934E0E2CFA4
:104E700080E189BD82E189BD09B400FEFDCF80914A
:104E8000D8008F7D8093D8008091E000826080936D
:104E9000E0008091E00081FDFCCF0895AF92BF92C9
:104EA000CF92DF92FF920F931F93CF93DF936C010A
:104EB000EB018A010E94FC28F82E811123C0011504
:104EC000110539F0F80180819181C81BD90BC80EFA
:104ED000D91EB12CA12C2097A9F08091E80085FD66
:104EE00022C08091E8008E778093E80001151105BB
:104EF000A1F0F80180819181A80EB91EB182A08233
:104F000085E0F82E8F2DDF91CF911F910F91FF90AB
:104F1000DF90CF90BF90AF9008950E94FC28882327
:104F2000D1F2F82EEFCFF60181916F018093F1005D
:104F30002197FFEFAF1ABF0ACECFAF92BF92CF92A9
:104F4000DF92FF920F931F93CF93DF936C01EB01DE
:104F50008A010E94FC28F82E811123C00115110539
:104F600039F0F80180819181C81BD90BC80ED91E78
:104F7000B12CA12C2097A9F08091E80085FD22C0DA
:104F80008091E8008B778093E80001151105A1F06E
:104F9000F80180819181A80EB91EB182A08285E0BE
:104FA000F82E8F2DDF91CF911F910F91FF90DF9001
:104FB000CF90BF90AF9008950E94FC288823D1F233
:104FC000F82EEFCF8091F100F60181936F012197C8
:104FD000FFEFAF1ABF0ACECFFC018091E90290919A
:104FE000EA0286179707A0F06115710529F49091E0
:104FF000E8009E779093E80090E06115710551F408
:10500000911108C08091E80082FF34C080E00895CB
:10501000BC01F2CF8091E2028823C1F18530C1F159
:105020008091E80083FD30C08091E80082FDEACFE6
:105030008091E80080FFE1CF8091F3002091F200A1
:10504000382F6115710519F02830310558F091E0BD
:105050002830310509F090E02091E8002E77209368
:10506000E800CBCF81918093F100615071092F5FEF
:105070003F4FE7CF8091E202882341F0853041F035
:105080008091E80083FFBECF81E0089582E008951B
:1050900083E00895FC018091E9029091EA0286176D
:1050A0009707A0F06115710529F48091E8008E77CB
:1050B0008093E80090E06115710551F4911108C0EA
:1050C0008091E80082FF35C080E00895BC01F2CFF6
:1050D0008091E2028823C9F18530C9F18091E8000E
:1050E00083FD31C08091E80082FDEACF8091E80025
:1050F00080FFE1CF8091F3002091F200382F6115FD
:10510000710519F02830310558F091E0283031054B
:1051100009F090E08091E8008E778093E800CBCF93
:1051200084918093F1003196615071092F5F3F4F58
:10513000E6CF8091E202882341F0853041F08091F2
:10514000E80083FFBDCF81E0089582E0089583E009
:105150000895982F973028F08F708093E90081E0B0
:1051600008959093E900242F762F50E0981731F09E
:105170007091EC002091ED005091F00021FD02C0F3
:105180009F5FE8CF3091EB003E7F3093EB00309192
:10519000ED003D7F3093ED003091EB0031603093B6
:1051A000EB007093EC002093ED005093F000209101
:1051B000EE0027FDE5CF80E008958091E30287FFB0
:1051C00013C08091E80082FF06C08091E8008B77D1
:1051D0008093E80004C08091E2028111F2CF08952B
:1051E0008091E2028823D9F38091E80080FFF8CF14
:1051F0008091E8008E77ECCF2091E4003091E500BB
:1052000095E6A9012091EC00822F817020FF06C055
:105210008091E80080FF06C080E008952091E800BA
:1052200022FD1AC08091E202882389F0853089F03E
:105230008091EB0085FD0FC02091E4003091E500E6
:1052400042175307F9F29150E1F684E0089582E0A5
:10525000089583E0089581E008950E949B290E94AB
:10526000A329E0EEF0E0808181608083E8EDF0E04A
:1052700080818F77808319BCA7EDB0E08C918E7F01
:105280008C9380818F7E80831092E10208950F932A
:105290001F93CF93DF930E949B290E94A329C8EDFF
:1052A000D0E088818F77888388818068888388812F
:1052B0008F7D888319BC1092E2021092DE02109258
:1052C000E0021092DF0200EE10E0F80180818B7F97
:1052D000808388818160888342E060E080E00E9472
:1052E000A928E1EEF0E080818E7F8083E2EEF0E09D
:1052F000808181608083808188608083F8018081E3
:105300008E7F8083888180618883DF91CF911F9118
:105310000F910895E8EDF0E080818F7E8083E7EDC6
:10532000F0E080818160808384E082BF81E08093AF
:10533000E1020C944729E8EDF0E080818E7F8083C4
:105340001092E20008951092DA001092E1000895A0
:105350001F920F920FB60F9211242F933F934F93EA
:105360005F936F937F938F939F93AF93BF93EF93CD
:10537000FF938091E10082FF0BC08091E20082FFE9
:1053800007C08091E1008B7F8093E1000E94122C86
:105390008091DA0080FF19C08091D80080FF15C08D
:1053A0008091DA008E7F8093DA008091D90080FFAF
:1053B00096C080E189BD82E189BD09B400FEFDCFC0
:1053C00081E08093E2020E9467258091E10080FFE6
:1053D00019C08091E20080FF15C08091E2008E7FAD
:1053E0008093E2008091E20080618093E2008091EE
:1053F000D80080628093D80019BC85E08093E202D7
:105400000E947A258091E10084FF2BC08091E20008
:1054100084FF27C080E189BD82E189BD89B5982FCD
:10542000917080FFFBCF8091D8008F7D8093D80052
:105430008091E1008F7E8093E1008091E2008F7E79
:105440008093E2008091E20081608093E20080918D
:10545000DE02882309F449C084E08093E2020E94BE
:1054600082258091E10083FF29C08091E20083FFC3
:1054700025C08091E100877F8093E10082E08093E6
:10548000E2021092DE028091E1008E7F8093E100C3
:105490008091E2008E7F8093E2008091E200806143
:1054A0008093E20042E060E080E00E94A9288091C1
:1054B000F00088608093F0000E947825FF91EF91C2
:1054C000BF91AF919F918F917F916F915F914F911C
:1054D0003F912F910F900FBE0F901F90189519BC00
:1054E0001092E2020E94752570CF8091E30087FD43
:1054F00093E09093E202B3CF1F920F920FB60F92F8
:1055000011242F933F934F935F936F937F938F93C8
:105510009F93AF93BF93CF93DF93EF93FF93D0917C
:10552000E900DF708091EC00C82FC17080FDC0E8F9
:105530001092E9008091F000877F8093F0007894CA
:105540000E94C02A1092E9008091F0008860809348
:10555000F000CD2BCF70C093E900FF91EF91DF9168
:10556000CF91BF91AF919F918F917F916F915F91FB
:105570004F913F912F910F900FBE0F901F90189554
:105580001F93CF93DF93CDB7DEB7AA970FB6F894EA
:10559000DEBF0FBECDBF83EE92E02091F100FC0193
:1055A0002193CF01F2E08B3E9F07B9F70E94AA2515
:1055B0008091E80083FF1EC18091E3029091E40294
:1055C0009A3008F017C1E92FF0E0E450F34D0C9445
:1055D000542C803899F0823809F00CC18091E70290
:1055E0008F70873008F006C18093E9008091EB004E
:1055F00085FB882780F91092E90006C08091DF02C0
:105600009091E002911182609091E800977F9093D1
:10561000E8008093F1001092F1008091E8008E770D
:10562000E5C0882309F4D3C0823009F0E3C080913B
:10563000E5028111D6C08091E7028F702FEF280F0D
:10564000263008F0D7C08093E9002091EB0020FFBE
:10565000C8C0933031F48091EB0080628093EB00FE
:10566000C0C09091EB0090619093EB0021E030E09E
:1056700001C0220F8A95EAF72093EA001092EA000F
:105680008091EB008860EACF8111B4C01091E502EF
:105690001F778091E3008078812B8093E3008091D5
:1056A000E800877F8093E8000E94DD288091E80071
:1056B00080FFFCCF8091E30080688093E30082E06C
:1056C000111183E08093E20295C08058823008F087
:1056D00091C08091E5029091E6028C3D23E0920713
:1056E000A1F583E08A838AE289834FB7F894DE01CB
:1056F000139620E03EE051E2E32FF0E05093570094
:10570000E49120FF03C0E295EF703F5FEF708E2FB2
:1057100090E0EA30C0F0C7968D939D932F5F2431BF
:1057200059F74FBF8091E800877F8093E8006AE2D5
:1057300070E0CE0101960E94EC278091E8008B7703
:105740008093E80057C0C096E7CF6091E702709160
:10575000E802AE014F5F5F4F0E94DF26BC01892B3C
:1057600009F448C09091E800977F9093E800898100
:105770009A810E944A28E1CF8038E1F58091E800C3
:10578000877F8093E8008091DE028093F10045CF0F
:10579000811130C09091E502923060F58091E8006F
:1057A000877F8093E8009093DE020E94DD2880913D
:1057B000DE02882311F084E005C08091E30087FDBC
:1057C000FACF81E08093E2020E948C2513C0809181
:1057D000E502813079F481E0933009F080E0809334
:1057E000E0021092E9008091E800877F8093E80052
:1057F0000E94DD288091E80083FF0AC08091E800C4
:10580000877F8093E8008091EB0080628093EB00BB
:10581000AA960FB6F894DEBF0FBECDBFDF91CF9131
:105820001F9108950895CF938091E2028823A1F0FB
:10583000C091E900CF709091EC00892F817090FDAC
:1058400080E8C82B1092E9008091E80083FD0E9457
:10585000C02ACF70C093E900CF9108950E942D29EE
:105860001092E2020895E8EDF0E08081806180838B
:105870008AE18A95F1F700C08091D900817008957E
:1058800097FB072E16F4009407D077FD09D00E94ED
:10589000612C07FC05D03EF4909581959F4F0895AB
:1058A000709561957F4F0895EE0FFF1F0590F4915D
:1058B000E02D099469279627692778278727782775
:1058C0000895AA1BBB1B51E107C0AA1FBB1FA61747
:1058D000B70710F0A61BB70B881F991F5A95A9F799
:1058E00080959095BC01CD010895FB01DC0104C0B9
:1058F0008D910190801921F441505040C8F7881BC8
:10590000990B0895FB01DC0102C001900D924150FA
:105910005040D8F70895F999FECF92BD81BDF89A0D
:10592000992780B50895A8E1B0E042E050E00C94DA
:10593000BF2C262FF999FECF92BD81BDF89A019711
:1059400000B4021639F01FBA20BD0FB6F894FA9AC7
:10595000F99A0FBE08950396272F0E949A2C0E9451
:10596000992C252F0E949A2C242F0C949A2C019666
:10597000272F0E949A2C0C94992CDC01CB01FC015E
:10598000F999FECF06C0F2BDE1BDF89A319600B498
:105990000D9241505040B8F70895F894FFCF660A31
:1059A000660A970A970AC60A2B0BC60AC60A460B4E
:1059B000AD0BBC0BBC0B890C890C920C920C940C9B
:1059C000920C920C920C890C890C990C920C920CF2
:1059D000990CFC1B091C301C3C1C471C521C551C00
:1059E000551C551C551C551C581C5C1C641C711CFA
:1059F0007E1C811C841C911CE92A112BFA2B112B73
:0C5A0000FA2B442B652BFA2BBC2BC82B77
:105A0C000F05C800380201D9020000000100000097
:105A1C0000D9020000000A01000000D902000000B9
:105A2C00010B000000D902000000010C000000D99D
:105A3C0002040D0000000000002808641E140A3245
:105A4C001EE9240F25EE24EC243C25ED240134C65C
:105A5C00663632F5F6F79735F5F6F7973500000010
:105A6C00000000000000000403040D0400040A6A96
:105A7C000200FF0100010000FFFF0000010001FF18
:105A8C000040224976050B052D05B004C904E90434
:00000001FF
