:100000000C94DE050C9425060C9425060C943825DA
:100010000C9425060C9425060C9425060C942506B4
:100020000C9425060C9425060C94312D0C94052E69
:100030000C94CA270C9425060C9425060C942506CE
:100040000C9425060C9425060C9425060C94250684
:100050000C9425060C943D280C9425060C9425063A
:100060000C9425060C9425060C9425060C94250664
:100070000C9425060C9425060C9425060C94250654
:100080000C9425060C9425060C9425060C94250644
:100090000C9425060C9425060C9425060C94250634
:1000A0000C9425060C9425060C942506202020206F
:1000B00020200A005343524C434B0A0020202020AA
:1000C000202020004341504C434B20002020202082
:1000D000202020004E554D4C434B2000556E64654A
:1000E00066696E65640041444A5553540A004C4F9A
:1000F0005745520A0052414953450A00444546417A
:10010000554C540A004C617965723A200080818216
:10011000838485868788898A8B8C8D8E8F90919237
:100120009394A0A1A2A3A4A5A6A7A8A9AAABACAD8D
:10013000AEAFB0B1B2B3B4C0C1C2C3C4C5C6C7C804
:10014000C9CACBCCCDCECFD0D1D2D3D4001F0020C2
:10015000002100220001001A00080015001700010C
:10016000001600070009000A0001001B0006001924
:100170000005000100E2008B002C002C00115F1E26
:1001800000350000000000000014002B00000000FB
:10019000000000040039000000000000001D00E124
:1001A00000000000000000E300E00000000000008C
:1001B0000027002600250024002300130012000C55
:1001C0000018001C0033000F000E000D000B00385B
:1001D000003700360010001100650088008A002CEE
:1001E00000105F2D002E008900000000002F00305D
:1001F000002A000000000034003200280000000047
:100200000087005200E50000000000500051004F40
:10021000000000000001000100F400F50001001FD3
:100220000020002100220001000100010001000166
:1002300000010001000100010001000100010001B6
:1002400000010001000100010001000000000000A9
:10025000001E00010000000000000001000100007D
:10026000000000000001000100000000000000018B
:100270000001000000000000000100010001000179
:1002800000010027002600250024002300010001B2
:100290000001000100010001000100010001000156
:1002A0000001000100010001000100010001000146
:1002B000000000000001000100010000000000013A
:1002C0000001000100000000000100010001000029
:1002D0000000000100010001000000000001000119
:1002E0000001000100C25C0100010001000100C921
:1002F0005C0100010001000100C55C01000100017A
:10030000000100C75C0100010001000100010001C3
:1003100000010000000000000001000100000000DA
:1003200000000001000100000000000000010001C9
:1003300000000000000000010001000000000000BB
:1003400000010001000100010001000100010001A5
:100350000001000100010001000100010001000195
:100360000001000100010001000100010001000185
:100370000001000100010001000000000001000177
:100380000001000000000001000100010000000069
:100390000001000100010000000000010001000157
:1003A0000000000000010001000100010001000147
:1003B0000001000100010001000100010001000135
:1003C0000001000100010001000100010001000125
:1003D0000001000100010001000100000000000018
:1003E0000001000100000000000000010001000009
:1003F00000000000000100010000000000000001FA
:1004000000010000000000000001000100010001E7
:1004100000010001000100010001000100010001D4
:1004200000010001000100010001000100010001C4
:1004300000010001000100010001000100010001B4
:1004400000000000000100010001000000000001A8
:100450000001000100000000000100010001000097
:100460000000000100010001000000000000000089
:1004700000000000002A2B280000000000000000FF
:10048000000000000000000029000000002C1E34C5
:1004900020212224342627252E362D3738271E1FCB
:1004A000202122232425263333362E37381F0405F6
:1004B000060708090A0B0C0D0E0F10111213141564
:1004C000161718191A1B1C1D2F3130232D35040542
:1004D000060708090A0B0C0D0E0F10111213141544
:1004E000161718191A1B1C1D2F3130354C0000002F
:1004F00000000000000000000000000000000000FC
:1005000000000000000000000000000000000000EB
:10051000007E0F00D4FFFFFFC70000007800AE0090
:10052000AF00DA0281FFD9F1DB20A4A62EAF00A034
:10053000C000A1C800AED580A81FD300408D1420F4
:10054000000000000000003E5B4F5B3E003E6B4F32
:100550006B3E001C3E7C3E1C00183C7E3C18001C80
:10056000577D571C001C5E7F5E1C0000183C180065
:1005700000FFE7C3E7FF00001824180000FFE7DBD7
:10058000E7FF0030483A060E002629792926004068
:100590007F05050700407F05253F005A3CE73C5A90
:1005A000007F3E1C1C0800081C1C3E7F0014227F9C
:1005B0002214005F5F005F5F0006097F017F00007B
:1005C0006689956A0060606060600094A2FFA294F2
:1005D0000008047E04080010207E20100008082A6D
:1005E0001C0800081C2A0808001E10101010000C1F
:1005F0001E0C1E0C0030383E383000060E3E0E0633
:100600000000000000000000005F00000000070084
:10061000070000147F147F1400242A7F2A1200236D
:100620001308646200364956205000000807030092
:1006300000001C224100000041221C00002A1C7FF7
:100640001C2A0008083E08080000807030000008DE
:10065000080808080000006060000020100804027C
:10066000003E5149453E0000427F4000007249492A
:100670004946002141494D33001814127F100027CC
:1006800045454539003C4A49493100412111090796
:1006900000364949493600464949291E00000014E0
:1006A0000000000040340000000008142241001443
:1006B0001414141400004122140800020159090600
:1006C000003E415D594E007C1211127C007F494969
:1006D0004936003E41414122007F4141413E007F79
:1006E00049494941007F09090901003E41415173CF
:1006F000007F0808087F0000417F41000020404142
:100700003F01007F08142241007F40404040007FAD
:10071000021C027F007F0408107F003E4141413EE1
:10072000007F09090906003E4151215E007F091939
:1007300029460026494949320003017F0103003F51
:100740004040403F001F2040201F003F4038403FB6
:10075000006314081463000304780403006159491A
:100760004D4300007F414141000204081020000079
:100770004141417F000402010204004040404040EA
:10078000000003070800002054547840007F2844EC
:10079000443800384444442800384444287F003812
:1007A000545454180000087E09020018A4A49C7830
:1007B000007F080404780000447D40000020404091
:1007C0003D00007F102844000000417F4000007C75
:1007D00004780478007C08040478003844444438E1
:1007E00000FC182424180018242418FC007C080499
:1007F00004080048545454240004043F4424003C9A
:100800004040207C001C2040201C003C4030403CEC
:10081000004428102844004C9090907C004464547C
:100820004C44000008364100000000770000000042
:1008300041360800000201020402003C2623263C47
:1008400000000000000000404040F0F8F8FF38FFD2
:10085000F8F83FF8F8FF38FFF8F8F04040400000A3
:100860000000000080C0C0C0800000C0C080000048
:100870000080C0C000C0C0000080C0C000000000F8
:1008800000C0C0C0C0C000C0C00000000000000028
:100890000000000000000000000000000000000058
:1008A0000000000000000000000000000000000048
:1008B0000000000000000000000000000000000038
:1008C000C0F0F8FC3E1E06010000007F4141417F60
:1008D000007F4141417F000080C0E07E5B4F5BFEB6
:1008E000C00000C000DCD7DEDEDED7DC00C00000C8
:1008F00000000000000000000000000000000000F8
:1009000000000000000000494949FFFFFFFFE0DF51
:10091000BFBF00BFBFDFE0FFFFFFFF494949000045
:100920000000001F3F6060E0BF1F007F7F071E3890
:100930001E077F7F007F7F0E1F3B7160000000005D
:10094000007F7F0C0C0C007E7E007F7E0303007F07
:100950007E03037E7E03037F7E000F3E703C063CD9
:10096000703E0F00327B49493F7E007F7E030300CB
:100970001E3F69696F2600000000000000000000B3
:10098000030F1F3F3C7870600000007F4141417FB2
:10099000007F4141417F00307B7F783020203078DC
:1009A0007F3B0003000F7F0F0F0F7F0F000300003E
:1009B0000000000000000000000000000000000037
:1009C00000000000000000010101070F0F7F0F7FF2
:1009D0000F0F7E0F0F7F0F7F0F0F07010101000028
:1009E0000000000000000000010100000000000005
:1009F00000000000000000000000000000000000F7
:100A000000000000000000000000000000000000E6
:100A100000000000000000000000000000000000D6
:100A200000000000000000000000000000000000C6
:100A300000000000000000000000000000000000B6
:100A400000000000000000000000000000000000A6
:100A50000000000000000000000000000000000096
:100A60000000000000000000000000000000000086
:100A70000000000000000000000000000000000076
:100A8000001403680061006C00660063006C00697C
:100A90000066006600000006036E003200000004DD
:100AA00003090409025B00030100A0FA0904000025
:100AB0000103010100092111010001224000070585
:100AC000810308000A090401000203000000092153
:100AD0001101000122220007058203200001070501
:100AE00003032000010904020001030000000921A2
:100AF000110100012249000705840320000A1201A8
:100B0000000200000008350321000100010200017D
:100B10000660FF0961A1010962150026FF0095200A
:100B2000750881020963150026FF0095207508915C
:100B300002C005010902A10185020901A100050900
:100B40001901290815002501950875018102050183
:100B5000093009311581257F95027508810609380C
:100B60001581257F950175088106050C0A38021547
:100B700081257F950175088106C0C005010906A180
:100B800001050719E029E715002501950875018180
:100B9000029501750881010507190029FF15002636
:100BA000FF009506750881000508190129059505BE
:100BB00075019102950175039101C00011241FBEBA
:100BC000CFEFDAE0DEBFCDBF04B603FE27C08091D1
:100BD000DB049091DC04A091DD04B091DE04873049
:100BE000904BA740B04BD1F41092DB041092DC0480
:100BF0001092DD041092DE0414BE84B7877F84BF98
:100C00000FB6F894A8958091600088618093600089
:100C1000109260000FBEE0E0F8E3099511E0A0E05B
:100C2000B1E0E8E4F1E602C005900D92A237B10709
:100C3000D9F724E0A2E7B1E001C01D92AB3DB207B5
:100C4000E1F70E94F2180C946B300C940000F894B9
:100C5000E82FE295EF70F0E031A1282F2F7081E0AE
:100C600090E001C0880F2A95EAF7382B31A392A1B2
:100C70008095892382A378940895F894E82FE295CB
:100C8000EF70F0E031A1282F2F7081E090E001C0DB
:100C9000880F2A95EAF7982F9095932391A392A114
:100CA000892B82A37894089508950C94540608958E
:100CB0000C9457060895E82FF0E0E757FE4F808127
:100CC000089508950F931F93CF93DF930E94071702
:100CD00080910401809104019AE0811190E0909349
:100CE000BA028AE0891B8093B902C4E4D1E08E0184
:100CF000F80181918F010E943D06F1E00E341F073B
:100D0000B9F784E30E943D0686EC0E943D0686E624
:100D10000E943D0686E30E943D0682E30E943D0656
:100D200084E30E943D0686EC0E943D0686E60E9412
:100D30003D0686E30E943D0682E30E943D068991BE
:100D40000E943D0681E0CE34D807C9F7EDE9F1E015
:100D5000A9E8B1E011921D9281E0E13BF807D1F7DB
:100D60008AE00E94B6160E94EB08DF91CF911F9196
:100D70000F910C941117FF920F931F93CF93DF9352
:100D8000CDB7DEB72A970FB6F894DEBF0FBECDBF42
:100D90000E94ED16F82E6091BA02882309F451C022
:100DA0008E010F5F1F4F8AE0F80111928A95E9F7D3
:100DB000862F90E0B80187579E4F0E9474178111CB
:100DC00023C0809188018F5F809388018630B8F1BD
:100DD000E091B902F0E0E757FE4FD801CE010B9643
:100DE00011921D92A817B907D9F70E94F1088F2D0B
:100DF0002A960FB6F894DEBF0FBECDBFDF91CF911C
:100E00001F910F91FF90089510928801A091B9024F
:100E1000B0E0A757BE4F9E01255F3F4FF12C4D918B
:100E2000F80191918F01491731F0AD0141505109FD
:100E3000FA019083F82E0217130789F7D6CFF12C09
:100E4000D4CF70E067577E4F8091B90290E087570A
:100E50009E4F0E9476170E945A06C9CF6F927F92CA
:100E60009F92AF92BF92CF92DF92EF92FF920F9339
:100E70001F93CF93DF930DE911E044E4C42E41E0CA
:100E8000D42EC0E0D1E0D601AD906D018A2D0E9434
:100E90002706B0EABA95F1F73FE3E32E31E0F32EEF
:100EA000F70130E020E0B12C4191A42FA295AF7062
:100EB000B0E090968C9190E04F7002C09595879528
:100EC0004A95E2F780FD94C08D2F022E01C0880F55
:100ED0000A94EAF7B82A2F5F3F4F2530310521F7F2
:100EE0008A2D0E943D06E0EAEA95F1F7D8018C913F
:100EF000B81609F47FC0BC9281E0C82B0F5F1F4F6A
:100F0000B9E4CB16B1E0DB0609F0BDCF10E000E09C
:100F1000AA24A394B12C2EE7C22E21E0D22EF701F1
:100F200091907F01892D0E942706F0EAFA95F1F74A
:100F3000C501002E01C0880F0A94EAF7782F682FA8
:100F40006095E4E7F1E084E4682E81E0782ED0E05B
:100F50003191D3012D913D01422F42954F7050E0C8
:100F6000DA0190968C9190E02F7002C0959587954C
:100F70002A95E2F780FD40C0872F832B381731F088
:100F80009F0121503109D9018C93D1E0CE16DF06A3
:100F9000F9F6892D0E943D06043019F0B0EABA95A1
:100FA000F1F7CD2B61F50F5F1F4F0530110509F0EB
:100FB000B6CF6091BA0270E067577E4F2C2F4AE09F
:100FC0008DE991E00E94B7160E94BB06C11101C0D5
:100FD000C82F8C2FDF91CF911F910F91FF90EF9031
:100FE000DF90CF90BF90AF909F907F906F900895CB
:100FF00080E070CF80E081CF862F8323BFCF8091A8
:1010000079018093A20180917A018093A30180915C
:101010007B018093A40180917C018093A501809144
:101020007D018093A601BFCFCF93C82F0E94ED16FC
:10103000811101C0C2E08C2FCF910895CF930E94FF
:10104000AA1F882349F00E94ED1660E0811107C0B5
:101050008DE091E00E945C1E80E0CF91089585E0D4
:1010600091E00E945C1E8091D9010E943A0A813071
:1010700071F1882351F0823071F1833081F160E0A9
:101080008CED90E00E946E1E05C060E08CEF90E059
:101090000E945C1E0E94CF26C82F8CEC90E0C0FFFF
:1010A00002C084ED90E060E00E945C1E8CEB90E05A
:1010B000C1FF02C084EC90E060E00E945C1E8CEAFC
:1010C00090E0C2FF02C084EB90E060E0C3CF60E03C
:1010D00085EF90E0DDCF60E08EEE90E0D9CF60E06C
:1010E00086EE90E0D5CF81E0089581E008950C94DC
:1010F000730808950C9479081F93CF93DF9300D061
:1011000000D00F92CDB7DEB749835A836B833091FD
:10111000B10189819A8131111DC06623B9F0222362
:10112000A9F00E94D10E182F682F89819A810E9400
:101130007A0E69817A81812F0F900F900F900F9016
:101140000F90DF91CF911F910C94D8210E94A80E8F
:10115000182FEFCF0E94D10E69817A81EDCFFC016B
:10116000262F408151816281738184810C947C0897
:1011700081E00895CF93DF93EC0160E00E94AF0817
:10118000BE01DF91CF910C947A08E1E0F0E0DF013D
:1011900002C0AA0FBB1F6A95E2F7BD01DF0102C0C2
:1011A000AA0FBB1F4A95E2F76A2B01C0EE0F2A95E2
:1011B000EAF7962F9823961302C08E2B0895E09598
:1011C0008E230895242F462F682F8091D9010E94E5
:1011D000C5080C94370E0E949C160E94520A0C946B
:1011E00055060C94580680E00E94530A0C948F1FF9
:1011F000089508950E94CF0D0E94F9082FEF84E30F
:101200009CE0215080409040E1F700C000000C9429
:1012100061280F931F93CF93DF938C0161E00E94AD
:10122000AF08EC01B8010E94E11B8823D9F1B80195
:10123000CE010E9477088823A9F1B801CE010E944F
:101240003723882379F1B801CE010E94E61F882355
:1012500049F1B801CE010E94A122882319F1F801B9
:101260008281882361F0CA35FDE5DF0721F170F442
:10127000C115ECE5DE07A1F0CE3DDC45C9F0C801A3
:10128000DF91CF911F910F910C947508CB358DE5AF
:10129000D807A1F0CC35DD4591F70E94E412EFCFDD
:1012A0000E94FA0880E0DF91CF911F910F9108957D
:1012B0000E949D13F7CF0E94ED12E1CF0E94F01221
:1012C000DECF0C94F8080E94BC260E94530A0C94AE
:1012D0006109DF92EF92FF920F931F93CF93DF93F9
:1012E000E82FF0E0E359FB4FD490282F2695269560
:1012F000269530E0F901E35FFA4F0491877010E022
:10130000082E02C0159507950A94E2F7017011277F
:10131000F901E350FB4FE490F12C082E02C0F59444
:10132000E7940A94E2F791E0E922FF24F901E351FE
:10133000FB4FC491D0E002C0D595C7958A95E2F7DE
:10134000C170DD270115110519F081EE0E949E0A7A
:10135000E114F10419F086EE0E949E0A8D2D0E9480
:10136000830BEF2819F086EE0E94160B012B19F063
:1013700081EE0E94160BCD2B51F08CE2DF91CF91C4
:101380001F910F91FF90EF90DF900C94830BDF91F2
:10139000CF911F910F91FF90EF90DF900895EF9202
:1013A000FF920F931F93CF93DF93EC01162F0AE068
:1013B0008881882309F454C0813009F04EC08981A6
:1013C000813099F47E0122E0E20EF11C8A810E94B4
:1013D000830BE7012196812F815050F3EFE9FFE065
:1013E0003197F1F700C00000F7CF823041F47E0161
:1013F00082E0E80EF11C8A810E949E0AEACF8330C7
:1014000041F47E01E2E0EE0EF11C8A810E94160B8F
:10141000E0CF843011F02196DDCF2A81229690E032
:1014200080E0AE014F5F5F4F2053330B2A30310510
:1014300048F0019778F2EFE9FFE03197F1F700C04B
:101440000000F7CF089FB001099F700D1124C9015A
:10145000860F971F2981EA01E4CF0E946909BACF5C
:10146000DF91CF911F910F91FF90EF90089560E071
:101470000C94CF09982F92959F7011F0892F94E0CA
:10148000282F2695269511F09E5F822F869509F0CC
:101490009F5F892F089508950C944B0A81E0089569
:1014A0000C944E0A0895CF93C82F0E944C0A8C2F9B
:1014B000CF910C94500ACF93DF93CDB7DEB72B9723
:1014C0000FB6F894DEBF0FBECDBF4F835887698734
:1014D0007A878B8761110E943F121E821D8285E0F0
:1014E000FE013796DE01119601900D928A95E1F783
:1014F0008C819D81892B89F449815A816B817C8102
:101500008D819E810E9460112B960FB6F894DEBFEC
:101510000FBECDBFDF91CF91089589819A81892334
:101520008F3F51F3CE0101960E94B8088111E4CF9C
:10153000EBCFFC01808191810C94FE0ECF93C82FDC
:10154000882309F471C08238C1F40E94BC2681FD51
:101550006BC089E30E94FA110E9462122FEF81EEA4
:1015600094E0215080409040E1F700C0000089E302
:101570000E940112CF910C9462128338A1F40E9450
:10158000BC2680FD51C083E50E94FA110E946212C0
:101590002FEF81EE94E0215080409040E1F700C0B1
:1015A000000083E5E5CF8438A1F40E94BC2682FDCB
:1015B0003BC087E40E94FA110E9462122FEF81EE75
:1015C00094E0215080409040E1F700C0000087E4A3
:1015D000CFCF8CEF8C0F813A90F46C2F8091020169
:1015E000909103010E942927882329F08C2F0E94C3
:1015F00001120E9462128C2F0E94FA11BBCF80E26E
:101600008C0F883048F4C77081E001C0880FCA95FC
:10161000EAF70E942212AECFC03F30F08C2F0E941A
:101620008219CF910C94551ACF910895882309F40B
:1016300052C0823871F40E94BC2681FF4CC089E3FD
:101640000E94FA110E94621289E30E9401120C9416
:101650006212833859F40E94BC2680FF3CC083E5A7
:101660000E94FA110E94621283E5EFCF843859F488
:101670000E94BC2682FF2FC087E40E94FA110E94BC
:10168000621287E4E2CF9CEF980F913AF0F290E279
:10169000980F983050F4877091E001C0990F8A95A7
:1016A000EAF7892F0E942812D2CF9BE5980F93303A
:1016B00020F490E080E00C94EB2698E5980F9731A9
:1016C00020F490E080E00C940127803F20F00E94FD
:1016D000DC190C94551A08951F93CF93DF93182F9C
:1016E000EB010E949E0A209731F4812FDF91CF9168
:1016F0001F910C94160B8FE99FE00197F1F700C042
:1017000000002197F0CF70E060E0893311F460E5CC
:1017100070E00C946C0B882321F00E9422120C9430
:1017200062120895882321F00E9428120C946212FC
:101730000895BF92CF92DF92EF92FF920F931F9383
:10174000CF93DF936C01D62FC72FFC011281F58058
:10175000F2949FE0F9220E941812E82E8823B9F033
:10176000E12E1123A1F08C2F807F803421F080E2C4
:101770008D0F8830D0F08091C00282FD16C082E0CB
:101780000E94B3120E94181291E0E82EE926BC2EA6
:10179000B2948FE0B822FBE0FB1508F468C0EB2D93
:1017A000F0E0E359FF4C0C94FD2FE12CF0CF0C2F0F
:1017B0000F70C07F11F00295007F112399F0002374
:1017C00059F080E28D0F883010F0D11107C0802FC2
:1017D0000E9422120E9462128D2F41C0802F0E940F
:1017E0003212F8CF8D2F0E94160B002309F43FC050
:1017F00080E28D0F883010F0D11104C0802F0E943C
:10180000281203C0802F0E9438120E9462122FC03B
:101810000C2F0F70C07FC03211F00295007FDD23C6
:1018200081F0D13009F469C0112309F473C0FF209D
:1018300009F469C0F601858180FFCECF8F70858362
:1018400062C08091C00282FF38C0112359F000238A
:1018500029F0802F0E9422120E94621280E00E94D2
:101860009E0A05C080E00E94160B0111C7CFEB2D28
:10187000E850FF0B349720F40E94BC260E94530AC4
:10188000EE2009F431C10E94141280FD2DC1F60131
:1018900012820E940E120E94480EC6010E94950DEF
:1018A0000E940E12DF91CF911F910F91FF90EF9048
:1018B000DF90CF90BF900C94530E112389F0F1105C
:1018C00006C00E944512802B0E948B0BD0CF21E0D6
:1018D000F212F7CF0E944512802B0E944B12C7CF05
:1018E000F11006C00E945812802F0E94920BBFCFA9
:1018F00031E0F31609F4BBCFF5CF112331F085E0C9
:101900008F1508F4B4CF802FDFCF94E09F1508F433
:10191000AECFEACFFF2041F3D93349F4FFEF27EEF2
:1019200033E0F15020403040E1F700C000008D2F3F
:101930000E94160B9CCF8D2F112329F00E94821933
:101940000E94551A94CF0E94DC19FACF8C2F837015
:1019500079F511118CCF4D2F429546954770440F64
:10196000440F8D2F8F70042E01C0880F0A94EAF760
:101970002D2F2071D4FF07C02FE030E001C0220FCF
:101980004A95EAF72095C695C695C370822BC2305A
:1019900049F058F4C13019F00E94290E68CF0E9416
:1019A000240E65CF0E942E0E62CF0E94220E5FCFC2
:1019B0008695112311F08C2F8170882309F457CF5D
:1019C0004D2F429546954770440F440F8D2F8F70D1
:1019D000042E01C0880F0A94EAF72D2F2071D4FF3E
:1019E00007C02FE030E001C0220F4A95EAF72095AA
:1019F000C695C695C370822BC23049F058F4C130E9
:101A000019F00E946F0E33CF0E946A0E30CF0E94F1
:101A1000740E2DCF0E94370E2ACFCF70112329F0DC
:101A20008C2F0E94480E8D2F4FCF8D2F0E94920B2E
:101A30008C2F0E94530E1BCFD23F51F160F4D03F48
:101A4000B9F0D13F81F0112309F449C0F110C4CE9F
:101A50008C2F8F7121C0D33F11F1D43FA1F780911A
:101A6000C00282FF26C08C2F8F71112311F314C086
:101A7000112349F084E08F1508F4F9CE8C2F8F7173
:101A80000E945F0EF4CE95E09F1508F4F0CEF6CFDD
:101A90008C2F8F711111CDCF0E94480EE8CE1123EB
:101AA00029F08C2F8F710E94400EE1CE0E943D0ED6
:101AB000DECE112349F0CF718C2F0E94480E63E0D7
:101AC0008C2F0E949812D3CE81E00E94B312E1E0E5
:101AD000EF1508F0CCCE82E00E94B312C8CEF11010
:101AE0001BCF8C2F8F71A5CFDF91CF911F910F91BD
:101AF000FF90EF90DF90CF90BF9008950F931F93CA
:101B0000CF93DF93EC01688179818A810E94080F6D
:101B10008C010E94790E0E94210EB801CE01DF9146
:101B2000CF911F910F910C94990BCF93DF93EC0100
:101B30008B819C81892B29F08881998189238F3F12
:101B400059F4DF91CF910895CE010E947E0DCE0110
:101B5000DF91CF910C94BA08CE010E94090981113E
:101B6000F3CF0E941812882361F38A81882349F3F6
:101B70008091C00282FDE5CF82E0DF91CF910C948D
:101B8000B3120E943F120E9442120E9462120E94EF
:101B90007C1B0C94551A0E9408120C94C10D0E94D3
:101BA0002F120C94CB0DE92FE295EF70E250EE303E
:101BB00070F4F0E0E758FF4C0C94FD2F803F19F0D3
:101BC00020F4883E20F481E00895843FE1F380E032
:101BD0000895883EC0F3813FD1F7F5CF93FB882766
:101BE00080F90895FC01808191810E94FE0E0C9481
:101BF000D30DCF93DF9300D000D00F92CDB7DEB7D7
:101C00000F900F900F900F900F90DF91CF9108954C
:101C1000CF93DF9300D000D000D0CDB7DEB72696AB
:101C20000FB6F894DEBF0FBECDBFDF91CF91089500
:101C300008950C94180E0E94190E8093DA010C94EA
:101C4000C10D08950C941B0E9091DA01892B0C9410
:101C50001B0E9091DA0189230C941B0E9091DA01EE
:101C600089270C941B0E0C94180E0C94330E0E94B2
:101C7000350E8093D9010C94C10D80E00C94370E81
:101C800091E001C0990F8A95EAF7892F0C94370EDD
:101C900021E030E001C0220F8A95EAF78091D90156
:101CA000822B0C94370E21E030E001C0220F8A9580
:101CB000EAF720958091D90182230C94370E21E018
:101CC00030E001C0220F8A95EAF78091D90182277E
:101CD0000C94370E9091D901892B0C94370E90916A
:101CE000D90189230C94370E9091D90189270C943E
:101CF000370E0895E92FEE0FEE0F9E0F890F982FE4
:101D0000977041E001C0440F9A95EAF78695869551
:101D1000869593E0899FF0011124EE54FE4F30E048
:101D200020E070E05191DF011197CB01022E02C03B
:101D3000969587950A94E2F781708195852784238B
:101D400085278C932F5F3F4F2330310559F7089536
:101D5000E92FEE0FEE0F9E0F890F982F9770869543
:101D60008695869523E0829FF0011124EE54FE4F64
:101D700050E040E080E0219130E0092E02C036952D
:101D800027950A94E2F721703327042E01C0220F11
:101D90000A94EAF7822B4F5F5F4F4330510559F7A2
:101DA0000895CF92DF92FF920F931F93CF93DF930B
:101DB0006C010091D9018091DA01082BC7E0D0E0D5
:101DC00010E0FC2EC8010C2E02C0959587950A9450
:101DD000E2F780FD0CC02197A0F7F12C8F2DDF9149
:101DE000CF911F910F91FF90DF90CF900895B60192
:101DF0008C2F0E946315019771F3F0CFCF93DF937F
:101E0000EC010E94D10EBE01DF91CF910C946315BD
:101E10001F93CF93DF93EB019091B101992331F0A0
:101E2000CB01DF91CF911F910C94FE0E882379F0A6
:101E3000CB010E94D10E182F682FCE010E947A0E7E
:101E4000BE01812FDF91CF911F910C946315CB01BF
:101E50000E94A80E182FF4CF1F93CF93DF93C09149
:101E6000DB0116E08091DC018C1304C0DF91CF917F
:101E70001F910895D0E01C9FF0011D9FF00D1124CB
:101E8000E352FE4F4081518162817381848195814B
:101E90000E94080E2196C770E5CF40910D02509127
:101EA0000E0260910F0270911002809111029091C8
:101EB00012020C94080EFF920F931F93CF93DF939F
:101EC00080911202807FD1F480910F028823B1F0BB
:101ED0008091DB011091DC0160910D0270910E0286
:101EE000A0911002B0911102062F0723C0910001AA
:101EF000D091010196E0F92E181306C0DF91CF9121
:101F00001F910F91FF90089590E0109711F00F3FEF
:101F100019F401968770F0CFF89E9001F99E300D6C
:101F20001124F901E352FE4F41814713F2CF408162
:101F30004613EFCF42814111ECCF438154814A1BBC
:101F40005B0B4C175D0728F7809112028F70806140
:101F500080931202F901EE51FE4F80818F708061F3
:101F600080838DE092E00E94950DDF91CF911F91CB
:101F70000F91FF900C942C0FAF92BF92CF92DF92F3
:101F8000EF92FF920F931F93CF93DF93CDB7DEB7FE
:101F900061970FB6F894DEBF0FBECDBF8C0185E010
:101FA000F801DE011D9601900D928A95E1F7F80186
:101FB000E2808DE0C82E82E0D82E609110027091F0
:101FC00011026115710509F45FC190910D02209114
:101FD0000E02892F82238F3F09F456C1408151811F
:101FE000A380B480F0900F02F501E61BF70BBF0150
:101FF000E0910001F0910101FF2009F4F6C0809109
:102000001202382F307F6E177F0708F0AFC03111F2
:1020100079C0FE2C251323C0941321C0E1101FC0EA
:102020008F708061809312020E944D0FC6010E9442
:10203000950D80911202F80185838F2D61960FB660
:10204000F894DEBF0FBECDBFDF91CF911F910F91EE
:10205000FF90EF90DF90CF90BF90AF900895AB28A6
:1020600029F0842F85238F3F09F027C180E0F82FC6
:10207000F170DF2E80FF3CC08091DB012091DC01FC
:1020800036E0821315C04D875E878D859E850E9440
:10209000FE0E292F22952F702230F0F0243018F5F3
:1020A0009F70F1F0F8019581907FD1F4D12C1EC082
:1020B00090E0389FF001399FF00D1124E352FE4F5C
:1020C0006181651306C06081641303C062816E1173
:1020D0000FC001968770D5CF9F7011F0882331F320
:1020E000805E883018F3C8010E94950DFD2CA5CFA5
:1020F000EE2009F4A2CF8091120281608093120237
:10210000F12C9BCF251306C0941304C0F801EE20D8
:1021100009F487C0C8010E94F20D882319F1EE204E
:1021200009F180911202803270F020910D023091FD
:102130000E0238872F831986BB86AA868C87CE012C
:1021400007960E94950D86E0F801ADE0B2E001909F
:102150000D928A95E1F70E945B0F0E944D0FFF24BC
:10216000F3946BCFC8010E94950DF9CF311113C0C4
:102170007A2DB98AA88A6E2D89890E94F90D8DE081
:1021800092E00E94950D86E0F60111928A95E9F79A
:102190000E944D0FB5CF25130FC094130DC0E11051
:1021A0000BC0F8018583C8010E94950D86E0F601F9
:1021B00011928A95E9F741CFC8010E94F20D882358
:1021C00089F2EE2079F280911202803208F4BBCFBE
:1021D00020910D0230910E023A8329831B82BD8229
:1021E000AC828E83CE010196ACCF6E177F0708F0CC
:1021F0003EC0FE2CEE2009F4B5CF25132AC094135F
:1022000028C08091120280FD1BC0982F907FC1F0E2
:10221000F8018583903F31F0982F907F905F8F7009
:10222000892B8583C8010E94950D86E0F801ADE0F9
:10223000B2E001900D928A95E1F70E944D0FFDCE1C
:1022400086E0F801ADE0B2E001900D928A95E1F7E9
:10225000F4CEC8010E94F20D811175CF8091120257
:10226000816080931202C8010E94950DE6CE7A2DFE
:10227000B98AA88A6E2D89890E94F90D86E0F60137
:1022800011928A95E9F7D9CFEE2009F46BCFC801F6
:102290000E94F20DF82E882309F464CF86E0F8013D
:1022A000ADE0B2E001900D928A95E1F78DE092E009
:1022B0000E94990A0E945B0FC0CF81E08E25D7CE85
:1022C0001F93CF93DF93CDB7DEB72C970FB6F8945B
:1022D000DEBF0FBECDBF4F83588769877A878B8754
:1022E0009C87CE0107960E94BC0F882369F08A85DF
:1022F0009B85892B39F04F815885842F85238F3F0B
:1023000009F071C016E05FC086E0FE013796DE017D
:10231000119601900D928A95E1F78A859B85892B0C
:1023200089F38F81988589238F3F61F32091DC01A8
:1023300030E0C9010196877099274091DB01481769
:10234000190671F40E94CF0D1092DC011092DB018E
:1023500086E0EDE0F2E0DF011D928A95E9F7D2CF49
:1023600096E0929FD001939FB00D1124A352BE4FCF
:10237000FE01319601900D929A95E1F78093DC0170
:102380000E942C0FBFCF819FC001112483529E4F0A
:102390000E94BC0F8823E9F0E091DB011E9FF00151
:1023A0001124E352FE4F4081518162817381848107
:1023B00095810E94080E8091DB0190E00196877064
:1023C00099278093DB018091DB019091DC018913D7
:1023D000DACF2C960FB6F894DEBF0FBECDBFDF91DB
:1023E000CF911F91089569857A858B859C850E9480
:1023F000080E88CF682F80910201909103010C9400
:102400005F27682F80910201909103010C9461274E
:1024100080910201909103010C9463278091130233
:102420008595859585950895809113028770089507
:1024300090911302977081E009F480E008958091F3
:102440001F02089590911F02892B80931F02089507
:10245000809590911F02982390931F0208951092E7
:102460001F02089590911E02892B80931E020895E9
:10247000809590911E02982390931E0208951092C9
:102480001E02089510921D0208958091140208956D
:1024900008950C9448129091C00292FD08C090914A
:1024A0001402981721F0809314020C944912089595
:1024B00080911402882329F01092140280E00C9479
:1024C00049120895E0910201F091030180911F02E9
:1024D0008083E0910201F0910301808190911E02BE
:1024E000892B8083E0910201F0910301808190911A
:1024F0001D02892B808390911402992381F0E09131
:102500000201F09103018081892B80838091020177
:10251000909103010E94172781110E945812809107
:102520000201909103010C94D22608950C94951207
:102530009091C00292FD10C098E0899F90011124F3
:10254000622B609313020E94480E809113028595BE
:10255000859585950C9496120C94480E1092130252
:1025600080E00C94961290911302809589238093B9
:102570001302282F277091F4282F082E000C330BFC
:102580009217130659F09091C00292FD07C08595ED
:10259000859585950E94530E0C94AE1208959091E6
:1025A000C00292FB222720F9281769F080FB92F9DC
:1025B0009093C0028091BF029091C0020E941A13B2
:1025C00082E00C94B31208958091C00282FB8827A8
:1025D00080F991E089270C94CF1281E00C94CF12FE
:1025E00080E00C94CF126FEF7FEF90E080E00C94CE
:1025F000553090E080E00E943130893E9E4F11F4CA
:102600000C948A1B80E0089582E090E00C942930BD
:1026100083E090E00C942930CF9384E090E00E9416
:102620002930C82F82E290E00E942930982F8C2F09
:10263000CF910895CF93C92F682F84E090E00E9436
:1026400037306C2F82E290E0CF910C943730AB01A1
:10265000BC018FE090E00C944930AB01BC0183E1F8
:1026600090E00C94493060E070E0CB010C942D13A5
:1026700060E070E0CB010E9427130C94331369EEE5
:102680007EEF90E080E00E94553060E082E090E0D4
:102690000E94373060E083E090E00E943730109273
:1026A000DA0160E084E090E00E94373060E082E28E
:1026B00090E00E94373060E085E090E00E94373083
:1026C00060E086E090E00E9437306FEF87E090E0B6
:1026D0000E94373040E050E0BA0188E090E00E946C
:1026E000493060E08DE090E00E94373040E050E0FB
:1026F000BA0188E190E00E94493060E087E190E013
:102700000E94373040E050E0BA018CE190E00E9436
:10271000493070E060E080E290E00E94553040E097
:1027200050E0BA0188E190E00E94493080E00E94C8
:10273000A31B0E94C91B0C9438130C943F13682FE1
:102740008EE090E00C9437300E94062860933902A6
:1027500070933A0280933B0290933C02609335025F
:10276000709336028093370290933802089585B7AC
:10277000806885BF85B7806885BF089508950895EE
:102780000C94BE1308950C94C2130E94B71382E8F0
:1027900096E10E94B2260E94BF130C94C0130C94C1
:1027A000ED16089508950E94D1130C94D2130E943F
:1027B000F1270E9441160E94D81B0E9462060E94C7
:1027C000D11C80E00E94311D0C94C3139F92AF92E4
:1027D000BF92CF92DF92EF92FF920F931F93CF930E
:1027E000DF93CDB7DEB72A970FB6F894DEBF0FBEE2
:1027F000CDBF0E942E07C82E81110E94A41381E232
:10280000A82E82E0B82E10E000E0902E802F0E94CB
:102810005B06E82EF501F1905F01F81609F454C04B
:1028200080913D0281FD0E9461068F2D8E25D12C65
:10283000FF24F394982F9F2109F441C00E94CF13E5
:10284000882399F0DE829F82EF2081E009F480E006
:1028500088870E94FA278160782F9A8789874E811E
:102860005F8168858A850E945B0AF801EF5DFD4FF4
:102870008081F826F0820E94AC1FC1100E94731E56
:102880000E94701A0E94BC2690912002891799F12B
:102890000E94BC26809320022A960FB6F894DEBFD1
:1028A0000FBECDBFDF91CF911F910F91FF90EF90A1
:1028B000DF90CF90BF90AF909F900C94530AD39429
:1028C000FF0CF5E0DF12B6CF0F5F1F4F043111058B
:1028D00009F09BCF8FEF89838A831B820E94FA279E
:1028E0008160782F9D838C8349815A816B818D8192
:1028F0000E945B0AC0CF2A960FB6F894DEBF0FBEC7
:10290000CDBFDF91CF911F910F91FF90EF90DF909E
:10291000CF90BF90AF909F900895CF93DF930E9488
:102920006715EC01811522E5920778F5811531E5EF
:10293000930708F098C08F3F910509F0B8F4803FE5
:10294000910508F06FC0853A910540F484309105F7
:1029500048F4019739F0D0E0C0E004C0805E9109EE
:102960000897C8F7CE01DF91CF910895811540E512
:10297000940708F05CC0C11580E4D80708F054C083
:10298000C11590E2D90770F3E6CF811526E59207CD
:1029900018F5811535E5930708F07DC0811544E5EC
:1029A000940708F073C0982F969596959E01237012
:1029B0003327C115D34508F45BC0C1E0D0E002C0A5
:1029C000CC0FDD1F2A95E2F730E2939FC00111245E
:1029D000C82BD92BDA68C6CFC1159AE5D90778F488
:1029E000C11529E5D20708F060C0C11538E5D30745
:1029F00008F4B1CFDC2FCC27C06FD06AB3CFCE01A3
:102A000090568115904208F0A6CF8D2F8F710E94AD
:102A1000FE1590E0982F882788279F719C012C2B0A
:102A2000E90141C0D0659ECFDF70D06A9BCFE4E062
:102A300096958795EA95E1F783702C2F2695269534
:102A4000237090E2299F90011124382B8C2F8370E2
:102A5000C1E0D0E002C0CC0FDD1F8A95E2F7C22BA7
:102A6000D32BDC687FCFD82FCC27C16FD06A7ACF29
:102A7000C1E0D0E002C0CC0FDD1F2A95E2F720E2D2
:102A8000929FC0011124C82BD92BEBCFD82FCC2774
:102A9000C46FD06A67CF0E94FE15C82FD0E0DC2F2C
:102AA000CC27CC27DF71D0625DCF8C2F8F700E9436
:102AB000FE1534E0D695C7953A95E1F7CF709C2F77
:102AC000EC01D0694FCF0E94D8210C948D1482382C
:102AD0009105B1F1B0F48133910509F475C048F462
:102AE0008932910509F469C08A32910509F473C0ED
:102AF00008958533910509F459C08933910501F191
:102B00000895833E9105A9F138F4803E9105F9F0CE
:102B1000823E910549F10895863E9105A9F1873ECF
:102B20009105C9F1843E910519F52091C00221FF5C
:102B30001FC08091BF0284FD14C087EE90E008950D
:102B40002091BF022370A1F080EE90E008952091C3
:102B5000BF0220FD47C03091C00230FF09C024FFF2
:102B600044C090E080E004C02091BF0222FDF7CF76
:102B700008952091BF0222FD3BC03091C00230FD7C
:102B8000E3CF24FFF5CFEDCF2091BF0223FFF0CF9D
:102B900024FDE7CFD2CF2091BF0223FD2CC030917E
:102BA000C00231FFEECF84EE90E008952091BF0285
:102BB00025FFDECF89E290E008952091BF0225FF36
:102BC000D7CF85E390E008952091BF0226FFD0CFB4
:102BD0008AE290E008952091BF0226FFC9CF81E3E9
:102BE00090E0089589E390E0089583EE90E00895E1
:102BF00082EE90E0089586EE90E008959091BF02F5
:102C000092FF06C0282F28712830F9F4877F84604E
:102C100093FF06C0282F28712831F1F4877E846144
:102C20002091C00220FF06C0382F38713830D9F407
:102C3000877F816021FF06C0282F28712831D1F4B9
:102C4000877E816194FD877E0895282F247124302A
:102C5000F9F68B7F8860DCCF282F2471243101F7AF
:102C60008B7E8861DDCF382F3171313019F78E7F3F
:102C70008860E0CF282F2171213121F78E7E886175
:102C8000E1CF1092BB021092BC021092BD021092D2
:102C9000BE020895CF92DF92EF92FF926B017C010A
:102CA0000E94ED1681110EC00E940628C61AD70A8E
:102CB000E80AF90AC092BB02D092BC02E092BD02BF
:102CC000F092BE02FF90EF90DF90CF9008950F93A7
:102CD0001F930E94ED16882321F01F910F910C94F1
:102CE00006280E9406280091BB021091BC02209188
:102CF000BD023091BE02600F711F821F931F1F9192
:102D00000F91089580E008950C94F3120E942E070D
:102D10008FE39CE90197F1F700C000000E942E07A5
:102D200080E00E945B0680FF04C00E9484160C9421
:102D3000612808950C9486160E94F912811102C030
:102D40000E949D130E94041380933D020E940C1365
:102D50009093C0028093BF020E949A160E940813AB
:102D60000E94220E8091D9010C94350E0895FF9295
:102D70000F931F93CF93DF93F82E092F162FD72F82
:102D8000C42F222349F081E0809340020E94FA2759
:102D900090933F0280933E02809140028823A1F0ED
:102DA00080913E0290913F020E941228059760F0A8
:102DB000EF2DF02FA12FBD2FCE0FDF2FD11DEC1740
:102DC000FD0741F410924002DF91CF911F910F91C6
:102DD000FF90089581918D93F2CF809141028111EE
:102DE00007C00E94BC2F882351F081E080934102EC
:102DF00081E090914102913009F080E0089582E0F5
:102E0000809341020E94B72FF3CF0C94ED160E94DD
:102E10000517809304010E94ED1681110C941F1771
:102E200008950E94ED16811102C00C942117089597
:102E300081E0909142029A3008F080E008950C946D
:102E4000F1240C94F424EF92FF920F931F93CF93ED
:102E5000DF937901C82F880FDD0B41155105A9F0CB
:102E60008AE08C9FF0018D9FF00D1124EB5FFE4FE7
:102E7000838194818D5B9D4F228130E042175307FF
:102E800008F49A01A9010E942030CE010E94FE257B
:102E9000892B11F501151105E9F08AE08C9FF001ED
:102EA0008D9FF00D1124EB5FFE4F458150E004171C
:102EB000150708F4A8018AE08C9FF0018D9FF00DA2
:102EC0001124EB5FFE4F668177816D5B7D4FC701FB
:102ED0000E94203081E001C080E0DF91CF911F91FE
:102EE0000F91FF90EF9008950C9490180C94AC18EB
:102EF0000F931F93CF93DF9300D000D0CDB7DEB7F1
:102F000060916402709165028091660290916702FF
:102F10000E94212811E0643671058105910518F1A0
:102F20000E9467166E5F7F4F8F4F9F4F69837A8332
:102F30008B839C8310E000E030E020E044E050E030
:102F4000BE016F5F7F4F82E00E942317182F8823F6
:102F500051F00E940628609364027093650280938A
:102F6000660290936702812F0F900F900F900F9041
:102F7000DF91CF911F910F910895AF92BF92CF92A1
:102F8000DF92EF92FF920F931F93CF93DF93CDB712
:102F9000DEB72B970FB6F894DEBF0FBECDBF7B0117
:102FA000C0905801D090590101E010E09E01255FCA
:102FB0003F4F50E040E070E060E080E00E94231767
:102FC000182F882309F448C056018FEFA81AB80AB1
:102FD000609160027091610280916202909163023F
:102FE0000E942128643671058105910568F10AE087
:102FF00010E09E012F5F3F4F50E040E070E060E046
:1030000081E00E942317D82E6AE070E0C5010E947B
:10301000D21C11E09B85981310E01D2141F10E9404
:10302000062860936002709361028093620290931D
:1030300063028AE0FE013196A6E5B2E001900D92AE
:103040008A95E1F711E013C06AE070E0C5010E94C3
:10305000D21C9B858913CBCF8AE0F6013196DE0125
:10306000119601900D928A95E1F71111E2CF8AE055
:10307000E6E5F2E0D70101900D928A95E1F7812F04
:103080002B960FB6F894DEBF0FBECDBFDF91CF9168
:103090001F910F91FF90EF90DF90CF90BF90AF9076
:1030A0000895AF92BF92CF92DF92EF92FF920F936B
:1030B0001F93CF93DF937C015B016A010E94181775
:1030C00001E010E0882311F00AE010E0C1E0D0E058
:1030D000F894B501C701F60109957894811104C0EF
:1030E00021960C171D075CF4DF91CF911F910F9172
:1030F000FF90EF90DF90CF90BF90AF900895CC9F5E
:103100009001CD9F300D300D112490E080E045E31B
:103110004A95F1F70000019682179307C1F7D8CFBF
:103120000F931F93CF93DF93EC018B014DEB57E18E
:103130000E945118882351F048E757E1B801CE01A9
:10314000DF91CF911F910F910C94511880E0DF9186
:10315000CF911F910F9108950F931F93CF93DF93FA
:10316000F894C0915801D0915901CE0101962AE0FE
:10317000FB01DC0101900D922A95E1F76AE070E015
:103180000E94D21C88837894F8946B857C858D8509
:103190009E85009152021091530220915402309169
:1031A0005502601771078207930751F0609352022E
:1031B0007093530280935402909355020E944A16D2
:1031C0007894DF91CF911F910F9108950E94062A64
:1031D0000E94D7130C94122A0E94162A0E94E6130A
:1031E0000C94302A0E9484270E94ED290E94C51366
:1031F0000E94E6180E94EC180E94D313FBCF809126
:103200006E0280FF12C06091280185E0689FB001C6
:103210001124759567957595679560387105A8F5C2
:1032200061157105A1F1862F089581FF09C0609194
:10323000280185E0689FB001112475956795EDCF51
:103240006091280182FD0AC080916D028823D1F02F
:103250009091270160912801891728F085E0689FE7
:10326000B0011124DACF869FB001112485E0869F3A
:103270009001879F300D1124692F70E0C9010E94D1
:10328000E92FCBCF65E070E0CECF8FE7089581E0E6
:10329000089580916E0280FF0CC06091240170E05F
:1032A00075956795759567956115710549F1862F37
:1032B000089581FF06C06091240170E075956795BF
:1032C000F3CF6091240182FD0BC090916C02992391
:1032D000A1F06091230180912401961738F0682FA6
:1032E00070E06038710500F38FE70895899FC00191
:1032F000112470E00E94E92FF4CF61E070E0D7CF95
:1033000081E00895803F31F40E94FF1881958093F9
:1033100072020895813F19F40E94FF18F8CF823F8E
:1033200031F40E94FF188195809371020895833FC4
:1033300019F40E94FF18F8CF893F29F40E94491917
:103340008093730208958A3F21F40E944919819560
:10335000F7CF8B3F31F40E94491981958093740215
:1033600008958C3F19F40E944919F8CF9CE0980FFA
:10337000953070F4845F990B21E030E001C0220F9A
:103380008A95EAF780917002822B809370020895EB
:103390008D3F31F480916E02816080936E020895BA
:1033A0008E3F21F480916E028260F7CF8F3FB9F794
:1033B00080916E028460F1CF40917102803F59F498
:1033C0008091720287FF0DC01092720241110BC0F2
:1033D00010926D0208C0813F81F48091720218162C
:1033E0009CF3442381F08091730290917402892BA5
:1033F00009F05AC010926C020895823F49F447FFC9
:10340000F0CF10927102809172028111ECCFE0CF67
:10341000833F19F41416ACF3E4CF90917302893F03
:1034200029F41916F4F610927302DBCF8A3F19F4CF
:1034300097FFD7CFF8CF909174028B3F29F497FF75
:10344000D0CF10927402CDCF8C3F19F41916CCF363
:10345000C8CF9CE0980F953090F4845F990B21E0E1
:1034600030E0B90102C0660F771F8A95E2F7CB0101
:10347000809590917002892380937002B2CF8D3F26
:1034800031F480916E028E7F80936E02AACF8E3FC0
:1034900021F480916E028D7FF7CF8F3F09F0A1CF8D
:1034A00080916E028B7FF0CF08950E94FA279C01D5
:1034B0009091710280917202982B21F030936B02EF
:1034C00020936A029091730280917402982B21F0EC
:1034D00030936902209368028FE692E00C94DD2617
:1034E000EF92FF920F931F93CF93DF9300D000D002
:1034F00000D0CDB7DEB786E0EFE6F2E0DE01119650
:1035000001900D928A95E1F7E0907102F0907202BD
:103510000091730210917402109271021092720263
:1035200010927302109274028E2D8F2991F0809167
:103530006A0290916B020E941228AC0190916D0278
:10354000992309F43FC0809129018417150608F4D6
:1035500047C0802F812B91F0809168029091690281
:103560000E941228AC0190916C02992309F477C053
:10357000809125018417150608F47FC0809171029F
:1035800090917202892B90917302892B9091740211
:10359000892B11F00E94551A86E0FE013196AFE6A4
:1035A000B2E001900D928A95E1F726960FB6F89455
:1035B000DEBF0FBECDBFDF91CF911F910F91FF9066
:1035C000EF90089520912A018AE0289F900111240C
:1035D0002417350708F0BDCF9F5F90936D0202C09E
:1035E0009F3FD1F7EE2059F00E94FF189FEF1E1465
:1035F0000CF491E0899F802D112480937102FF20AB
:1036000059F00E94FF189FEF1F140CF491E0899F5E
:10361000802D11248093720230917102332309F4BA
:1036200098CF20917202222309F493CF45EB340303
:10363000C0011124992359F09093710245EB2403A2
:1036400090011124332339F03093720282CF81E04C
:1036500080937102F3CF81E0809372027ACF209140
:1036600026018AE0289F900111242417350708F0CD
:1036700085CF9F5F90936C0202C09F3FD1F70023DC
:1036800059F00E9449199FEF10160CF491E0899FA0
:10369000802D112480937302112359F00E9449193F
:1036A0009FEF11160CF491E0899F802D11248093D7
:1036B000740230917302332309F460CF20917402B5
:1036C000222309F45BCF45EB3403C0011124992375
:1036D00059F09093730245EB240390011124332396
:1036E00039F0309374024ACF81E080937302F3CFB4
:1036F00081E08093740242CF86E0EFE6F2E0DF01E2
:103700001D928A95E9F710926D0210926C02109248
:103710006E02089583E290E00E942930823289F49B
:1037200084E290E00E942930813059F485E290E0F3
:103730000E94293091E0843009F090E0892F817057
:10374000089580E0FCCFCF93C82F6FEF811162E224
:1037500083E290E00E9437306FEFC11161E084E2B4
:1037600090E00E9437306FEFC11164E085E290E095
:10377000CF910C943730089586E290E00E94293072
:10378000682F70E090E080E0089586E290E00C946D
:10379000373080E00E94A31B60E070E0CB010E9404
:1037A000C51B0E9450210E943A2281E00C94A31B69
:1037B0000E94BB1B0E948A1B811102C00C94C91B72
:1037C0000895CF93FB01C281CC2309F19C012251C2
:1037D0003F452031310520F582510E944A22C0E048
:1037E0008C2FCF91089581E00E94480E43E062E063
:1037F00081E00E94E208F3CF81E00E94530E43E093
:1038000062E081E00E94E208EBCF82E0F6CF8031F7
:10381000FFE59F0789F381319F45B9F3C1E0E0CF10
:103820008031EFE59E07F9F281319F45C9F682E0CC
:10383000DBCF2FEFFC0120830895EF92FF920F93CF
:103840001F93CF93DF93EC01062FE881E150E33122
:1038500008F05EC0F0E0E957FF4C0C94FD2F198290
:1038600089E08A83602FCE01DF91CF911F910F9164
:10387000FF90EF900C94C6288981823069F08330E4
:1038800071F08130D9F40E9406280E9403306A83C7
:103890007B838C839D83E6CF0E94BC1BF6CF7E0189
:1038A00082E0E80EF11C10E0812F0E945B06F70118
:1038B00081937F011F5F1431B9F7D4CF602FCE0100
:1038C0000E94191CCFCF89818230C1F76A817B8128
:1038D0008C819D810E9403300E94C51BC3CF4B8108
:1038E0006A8189810E9422219827892798279D83B0
:1038F0008C83B8CF2C813D813227232732274B81FF
:103900006A8189810E943B21ADCF0E945021AACFBC
:103910008FEF8883A7CF0E94E5218983A3CF0E94E0
:10392000E7219827892798279A8389839BCF6B81E2
:1039300070E089819A81AE014C5F5F4F982789279B
:1039400098270E94EA218ECF6B8170E089819A814D
:10395000AE014C5F5F4F9827892798270E9410225D
:1039600081CF0E943A227ECF0E941021D6CF6B8158
:1039700070E089819A81AE014C5F5F4F982789275B
:1039800098270E9488216ECF6B8170E089819A818F
:10399000AE014C5F5F4F9827892798270E94AE2180
:1039A00061CF0895FC01680F791F8FEF91E36E17C7
:1039B0007F0709F408952191822728E030E087FFEE
:1039C00006C0880F892721503109C9F7F0CF880F29
:1039D000FACFCF92DF92EF92FF920F931F93CF9384
:1039E000DF936C017B0164E670E088E70E948F231F
:1039F000EC0197FD12C010E000E0F601E00FF11FAE
:103A0000849164E670E00E940924EC01892B29F47A
:103A10000F5F1F4F0E151F0581F70E948C24CE01EA
:103A2000DF91CF911F910F91FF90EF90DF90CF909A
:103A3000089508950C94191DE2ECF2E080E092E004
:103A4000DF019C011D9221503040E1F7F093C90441
:103A5000E093C8048FEF9FEF9093A1028093A002A0
:103A600008950E9414080E941A1D80939C0280FDF4
:103A70000FC080E880939B020E9489236DE070E074
:103A800084E395E00E94E91C892B21F080E00895F1
:103A900080E2F0CF80919C0263E070E081FD26C05F
:103AA00081E395E00E94E91C892B81F76DE070E0CD
:103AB00081E295E00E94E91C892B41F70E940628CB
:103AC000605A75418F4F9F4F6093C4047093C50433
:103AD0008093C6049093C7040E941C1D81E08093CC
:103AE0009F0280939E0210929D0208958EE295E0BF
:103AF000D9CF20919B0236E0839FC0011124629FA1
:103B0000800D911D1124811522E0920714F090E0A0
:103B100080E08E539D4F9093C9048093C80408950C
:103B20002091C8043091C9042C5B324040919B0223
:103B3000642F70E0C9010E94D52F481B463010F455
:103B4000240F311D211582E0380710F030E020E00D
:103B50002E533D4F3093C9042093C80408951F93FA
:103B6000CF93DF93162F8A3031F481E0DF91CF912C
:103B70001F910C94291E8D3011F480E0F7CFC09175
:103B8000C804D091C90496E0FE01A5E7B2E0019017
:103B90000D929A95E1F7803EC8F086E0FE01119201
:103BA0008A95E9F711111EC0C091C804D091C904CB
:103BB00046E050E0BE0185E792E00E941330892B79
:103BC000F9F4DF91CF911F910C94901DF6E08F9F37
:103BD000B00111246F5B7A4F46E050E0CE010E94A5
:103BE0000A30E0CFE091C804F091C9049F012A5F38
:103BF0003F4F2E173F07C1F2808180958193F9CF07
:103C0000C25CD240CE0125E0969587952A95E1F7D2
:103C100021E030E0A90102C0440F551F8A95E2F768
:103C2000CA014091A0025091A102842B952B2596A8
:103C300045E0D695C7954A95E1F702C0220F331F9C
:103C4000CA95E2F7822B932B9093A1028093A00256
:103C5000B8CFCF93382FE091C804F091C904E25C4B
:103C6000F24020919B02622F70E0CF010E94D52F7D
:103C7000281B822F332369F066E00E94C92FC82FCA
:103C8000C15010F4CF91089560E080E20E94AF1D12
:103C9000F7CF9F01280F311D2115324018F080E029
:103CA000F0E0E0E08E0F9F2F911D8E539D4F90937B
:103CB000C9048093C804E6CF1F93CF93DF93EC0130
:103CC000162FFE018491811104C0DF91CF911F91C5
:103CD0000895612F0E94AF1D2196F3CF0E945C1EB4
:103CE00081E00C94291E80919F02811103C0809174
:103CF0009E0208950E940628605A75418F4F9F4F7B
:103D00006093C4047093C5048093C6049093C70461
:103D100080919E028111EBCF62E070E08FE195E02F
:103D20000E94E91C892B19F781E080939E02DFCF66
:103D30002F923F925F926F927F928F929F92AF925B
:103D4000BF92CF92DF92EF92FF920F931F93CF9388
:103D5000DF9380919F02882369F02091A002309127
:103D6000A1022115310531F080919D0261E070E0E2
:103D7000882399F0DF91CF911F910F91FF90EF90E1
:103D8000DF90CF90BF90AF909F908F907F906F907B
:103D90005F903F902F9008958F5F082F10E01B01D8
:103DA000082E02C0220C331C0A94E2F7A90142211A
:103DB0005321452B89F390919C0290FD44C082953C
:103DC000880F807680932D0198013695279536953A
:103DD000279520933001815E80932E01109231014E
:103DE00024E630E047E050E06BE271E088E70E94B3
:103DF0003824892B09F0BECFA80125E0440F551FB8
:103E00002A95E1F780919C0280FD2BC04E535D4FB7
:103E100004E610E020E230E060E488E70E945F24DE
:103E2000892B09F0A7CF0E94731EE101C095D095A0
:103E30008091A0029091A102C823D923D093A1021E
:103E4000C093A00297CF880F880F880F80932D0111
:103E500010923001895F80932E0183E080933101BD
:103E6000BFCFEBE7F2E080E2DF011D928A95E9F730
:103E7000AEE5B1E00AE511E082E6C82E81E0D82E79
:103E800097E0592E772473948D91E80129918E0142
:103E9000240F352F311D2E533D4FE82FF0E0E5580C
:103EA000FD4F90E080E0652C681A872C082E01C039
:103EB000880C0A94EAF77901A12CE701B9907E01F8
:103EC000B820662D6A196770962E062E000C770BA7
:103ED000DB2D01C0DD0F9A94EAF7719561957109A8
:103EE0006770772701C0B6946A95EAF7BD2A6081AA
:103EF000962E9B289082A39468E0A612DECF0196AE
:103F000031968830910579F6CA16DB0609F0BCCFE8
:103F100004E610E020E230E04BE752E07DCF8091F4
:103F20009E0290919F02911103C091E0892708950C
:103F3000882369F062E070E08DE195E00E94E91C61
:103F4000892B19F080919E02089510929E02809113
:103F50009E02EBCF81E008950F931F9380919F0203
:103F6000882389F18091C2049091C3040E94122891
:103F7000C29760F00E94FA279093C3048093C20412
:103F800060E080E00E94791D0E941E080E94981E39
:103F900080919E028823B9F00E9406280091C404F3
:103FA0001091C5042091C6043091C704601B710BA9
:103FB000820B930B6F3F7F4F8F4F9F4720F41F91D2
:103FC0000F910C948F1F1F910F910895CF93DF9342
:103FD000EC01FB018281882309F420C1C330FDE597
:103FE000DF07C8F5CA3F9CE5D90730F49E0122508F
:103FF0003C452431310598F50E940C139093C00282
:104000008093BF02C031FCE5DF0709F4E0C008F08F
:1040100061C0C8309CE5D90709F4CBC088F5C4302D
:10402000FCE5DF0709F4B3C0E8F4C2309CE5D9072A
:1040300009F4A7C08091BF028260C330DC4509F457
:10404000A3C08091BF029091C0020E941A130E94E7
:10405000CF0D80E004C0C136EDE5DE0769F2DF91E7
:10406000CF9108958091BF028061C630FCE5DF07E3
:1040700009F48AC008F48FC08091BF02806284C0B6
:104080008091BF028D7FCC309CE5D90709F47CC0BC
:1040900070F48091BF028C60CA30FCE5DF0709F440
:1040A00073C008F48AC08091BF028E7F6DC080917A
:1040B000BF02877FCE309CE5D90709F465C08091A7
:1040C000BF028B7FCF30DC4508F45EC08091BF0219
:1040D0008F7E5AC0CC3FFCE5DF0709F474C040F581
:1040E000C4319CE5D90709F48AC058F4C231FCE513
:1040F000DF0709F474C008F46EC08091BF02837FAB
:1041000043C0CA3F9CE5D90709F449C008F04DC037
:10411000C531DC4509F095CF8091BF0282FB99271C
:1041200090F921E0922790FB82F990FB83F92CC053
:10413000C1158DE5D80709F458C088F48091C002F4
:104140008360CE3FECE5DE0769F18091C0028D7F90
:10415000CF3FDC4538F18091C0028C7F23C0C23054
:104160008DE5D80709F458C008F452C0C136DD45C2
:1041700009F067CF9091BF02892F8F7E94FF8061F5
:1041800003C08091BF0281608093BF025ACF8091AB
:10419000BF028460F9CF8091BF028860F5CF809123
:1041A000C00281608093C0024CCF8091C0028260C7
:1041B000F9CF8091BF028064E7CF0E94CF0D80913C
:1041C000BF028068E1CF8091C0028E7FEBCF8091EB
:1041D000BF028F7DD9CF8091BF028F7BD5CF0E9448
:1041E000CF0D8091BF028F77CFCF8091C002982FE3
:1041F000909591708E7F892B90FB81F9D3CF0E948F
:10420000CF0D9091BF02892F97FB87F98058BCCFC3
:1042100081E00E949F1315CF80E0FBCF81E01FCF8C
:1042200084E0089550E0440F551F9AE0699F400DC7
:10423000511D112498EC899F400D511D1124CA0174
:10424000879608950F931F93CF93DF930E941221B7
:104250008C010E942930C82FD0E0DC2FCC27C80168
:1042600001960E9429309E01282BC901DF91CF9130
:104270001F910F9108950F931F93CF93DF93122FE8
:10428000032F0E941221EC01602F0E943730612F12
:10429000CE010196DF91CF911F910F910C94373091
:1042A000AF92BF92CF92DF92EF92FF921F93CF9384
:1042B000DF938DE4C82E81E0D82ED0E07601C0E0F7
:1042C00014C0F50125913491412F6C2F8D2F0E9440
:1042D0003B2182E0A80EB11C1F5F153091F78AE0E8
:1042E000E80EF11CCF5FC43119F0570110E0E9CF9F
:1042F000DF5F88ECC80ED11CD43001F7DF91CF917D
:104300001F91FF90EF90DF90CF90BF90AF900895F6
:10431000EF92FF920F931F93CF93DF93EC018A01EB
:104320007C01E60EF71ECE018796CE15DF0539F427
:10433000DF91CF911F910F91FF90EF900895C032C0
:1043400023E0D20740F40E942930F80180830F5FF8
:104350001F4F2196E8CFF8011082F9CFCF92DF925C
:10436000EF92FF920F931F93CF93DF937C016A012B
:104370008C01060F171FEC01CE018796C017D107DD
:1043800049F4DF91CF911F910F91FF90EF90DF9053
:10439000CF900895C03223E0D20740F4FE01EE1919
:1043A000FF09EC0DFD1D60810E9437302196E4CF9E
:1043B000462F843038F4743128F4653018F4672FB0
:1043C0000C94222190E080E0089580E1089589EB2B
:1043D00090E00895EF92FF920F931F93CF93DF9396
:1043E000EC018A017C01E60EF71ECE01895B9C4F31
:1043F000CE15DF0539F4DF91CF911F910F91FF901A
:10440000EF900895C93BD10540F40E942930F8018E
:1044100080830F5F1F4F2196E8CFF8011082F9CFFC
:10442000CF92DF92EF92FF920F931F93CF93DF9380
:104430007C016A018C01060F171FEC01CE01895B1C
:104440009C4FC017D10749F4DF91CF911F910F9175
:10445000FF90EF90DF90CF900895C93BD10540F4D5
:10446000FE01EE19FF09EC0DFD1D60810E94373041
:104470002196E4CFCF93DF93C7E4D3E060E0CE0191
:104480000E9437302196C11584E0D807B9F7DF9133
:10449000CF910895DF92EF92FF920F931F93CF93E6
:1044A000DF9300D000D0CDB7DEB7F82E8FE08F15A8
:1044B00040F08FEF93E00E94293007E413E0882357
:1044C000C1F00F900F900F900F90DF91CF911F913F
:1044D0000F91FF90EF90DF900895011584E0180789
:1044E00081F3C8010E942930811101C0FA940F5F45
:1044F0001F4FF110F2CF19821A821B821C82DD2419
:10450000D39478018FEFE81AF80AC8010E94293085
:1045100089831A828823A9F29FEF980F933078F449
:104520008A83D9820E5F1F4FC7010E9429308B8377
:10453000882339F2CE0101960E94370AE2CF870123
:10454000F9CFCF93DF93EB0186319C4511F50E94A3
:104550001F129A81992399F08A7A91E009F490E0E8
:104560009093A202811109C089E20E94FA110E946F
:10457000621280E0DF91CF91089585E3F6CF8091BC
:10458000A202811104C089E20E940112F0CF85E3EA
:10459000FBCF81E0EFCF0F931F93CF93DF93C42F17
:1045A000D22FFC0182818823C9F04093A5020E948A
:1045B000FA279093A4028093A30280E28C0F8830A4
:1045C00008F050C0C77081E001C0880FCA95EAF7B3
:1045D000DF91CF911F910F910C948B0B1091A5023D
:1045E000141335C08091A3029091A4020E94122856
:1045F000883C910560F5C0E2CD0F1D17B9F080E24F
:10460000810F883040F4177081E001C0880F1A953F
:10461000EAF70E94920BC83048F481E09D2F977012
:1046200001C0880F9A95EAF70E948B0B802F0E9499
:10463000830BC830B8F4D77081E001C0880FDA95D9
:10464000EAF7DF91CF911F910F910C94920B80E2CA
:104650008C0F883038F4C77081E001C0880FCA958C
:10466000EAF7EFCFDF91CF911F910F9108950F934C
:104670009C01CB01233F4CE5340759F1A8F4283DB8
:10468000FCE53F0701F1293D4CE53407D1F1273D19
:104690003C4591F406E221EE41EE67ED7CE50E9497
:1046A000CB2280E00F910895253FFCE53F07E9F01C
:1046B000B0F0263F3C45F9F0FC018281882339F1B6
:1046C0001092A502EFCF07E225EE45EE68ED7CE5FE
:1046D000E6CF06E221EE40EE63EF7CE5E0CF07E2B5
:1046E00025EE44EE64EF7CE5DACF06E221EE42EE01
:1046F00065EF7CE5D4CF07E225EE46EE66EF7CE57C
:10470000CECF08E221E045EE69ED7CE5C8CF81E03F
:10471000C9CF1092B9008CE08093B80008959F92A1
:10472000AF92BF92CF92DF92EF92FF920F931F93BF
:10473000CF93DF93B82EEB010E94FA276C01EE2491
:10474000E394F12CC431D10560F025E0E22EF12C88
:10475000CF3FDC0731F0CE0164E170E00E94D52F3D
:104760007B0184EAA82E94E8992E1092BC00A092B6
:10477000BC000E94FA278C018091BC0087FF0DC00D
:104780008091B900887F883039F18091B900887FA5
:10479000803111F10FEF1FEF09C00E94FA27801B33
:1047A000910B8E159F0540F30EEF1FEFCF3FDC07F7
:1047B000E1F2C6010E9412288C179D07B0F2C801D1
:1047C000DF91CF911F910F91FF90EF90DF90CF90ED
:1047D000BF90AF909F900895B092BB009092BC00A4
:1047E0000E94FA278C018091BC0087FF0AC080914B
:1047F000B900887F883111F0803461F610E000E064
:10480000DECF0E94FA27801B910B8E159F0558F36F
:10481000CBCF0F931F93CF93DF93EB018093BB001C
:1048200084E88093BC000E94FA278C018091BC0030
:1048300087FF11C02091B900287F81E090E02832E5
:1048400011F490E080E0919581959109DF91CF91ED
:104850001F910F910895CF3FDC0741F30E94FA2783
:10486000801B910B8C179D0708F38EEF9FEFEECF07
:10487000CF92DF92EF92FF920F931F93CF93DF932C
:104880006B018A017901B9010E948F23E6010C0DA9
:104890001D1DC017D10761F424E92093BC00DF91EE
:1048A000CF911F910F91FF90EF90DF90CF900895DF
:1048B00097FDF2CFB70189910E940924EACFCF92E8
:1048C000DF92EF92FF920F931F93CF93DF93C62F48
:1048D0006A017901B8010E948F2397FD0CC0B801CD
:1048E0008C2F0E940924E601EC0CFD1CCE15DF057F
:1048F00011F097FF0CC024E92093BC00DF91CF9109
:104900001F910F91FF90EF90DF90CF900895B80125
:1049100089910E940924EACF84E98093BC0008951C
:104920008EE14A9B02C08150E1F74A9BFECF089579
:104930005A9880E28A95F1F75A9A0895FC013BE073
:104940003A95F1F798E020E080E031E040E14A95C7
:10495000F1F7880F4A9B02C08160232742E04A9505
:10496000F1F7000040E14A95F1F7915079F790E1B5
:104970009A95F1F799B132E03A95F1F7000040E1EC
:104980004A95F1F792FB992790F992272081920F8F
:1049900090830895EF92FF920F931F93CF93DF932D
:1049A0000F92CDB7DEB719828C017C01E60EF11CA7
:1049B0000E151F0561F481E09981911180E00F903F
:1049C000DF91CF911F910F91FF90EF9008950E947A
:1049D0009024CE0101960E949E24F80181938F01BC
:1049E000E7CF529A5A9A089552985A9AEA9AE9E663
:1049F000F0E080818F7C808308956150770B91E097
:104A000001C0990F6A95EAF720E031E0911108C0E2
:104A1000222391F05A9A80E28A95F1F75A980895E4
:104A2000492F482339F05A9A232740E24A95F1F753
:104A30009695ECCF5A98F9CF5A98EDCFFF920F93F5
:104A40001F93CF93DF93EC018C01060F111DC0174C
:104A5000D10731F4DF91CF911F910F91FF9008950D
:104A6000F9900E94982468E08F2D0E94FD24EFCFDA
:104A70001F920F920FB60F921124EF92FF920F9395
:104A80001F932F933F934F935F936F937F938F93D6
:104A90009F93AF93BF93EF93FF93CF93DF930F92C7
:104AA000CDB7DEB719820E949024CE0101960E94F4
:104AB0009E24A82FA695A695A695282F2295257009
:104AC0009A2F9570290F922F937026952695920F05
:104AD000982797708981982B09F075C0A43008F049
:104AE00072C080E18A95F1F75A9A529AB2E0BA956B
:104AF000F1F700C05A98EA2EF12CEAE0AE9FD001FF
:104B00001124AB5FBE4F1896ED91FC911997309729
:104B1000B1F0609158017091590116962D913C9118
:104B20001797260F371F13968D919C911497680F36
:104B3000791F15964C91159712968C9109958AE0DC
:104B40008E9DF0018F9DF00D1124EB5FFE4F65816E
:104B5000662351F020915801309159018681978147
:104B6000820F931F0E941E250E949824F0E1FA955F
:104B7000F1F75A9852985A9A80E18A95F1F78AE0AB
:104B80008E9D80018F9D100D11240B5F1E4FD8014B
:104B900012966C911297662371F120915801309111
:104BA000590113968D919C91820F931F0E94CA24E4
:104BB000D801ED91FC91882311F088E001C082E0DA
:104BC00080830E9490240F90DF91CF91FF91EF910D
:104BD000BF91AF919F918F917F916F915F914F9115
:104BE0003F912F911F910F91FF90EF900F900FBE6B
:104BF0000F901F901895ED91FC91DFCF0F931F93AD
:104C0000CF93DF93EC0104970CF0A9C08AE08C9F4E
:104C1000F0018D9FF00D1124EB5FFE4F808191819B
:104C2000892B09F49CC0F894529A5A9885E08A9589
:104C3000F1F700008C2F869585709C2F9570890F59
:104C4000982F937086958695890F8E0193E0000FBB
:104C5000111F9A95E1F7082B0E94982400C068E084
:104C6000802F0E94FD24A0E1AA95F1F752985A9A4C
:104C70004A9B27C087E090E04A9925C08AE08C9F34
:104C800080018D9F100D11240B5F1E4FF80165816F
:104C90006623A1F1209158013091590186819781B5
:104CA000820F931F0E94CA24811128C0529A5A9AD7
:104CB000D801ED91FC9182E08083789482E090E0CD
:104CC00016C000C0D5CF0197B9F4529A5A9A8AE01B
:104CD0008C9FF0018D9FF00D1124EB5FFE4F019032
:104CE000F081E02D81E08083789481E090E0DF9195
:104CF000CF911F910F91089500C0BECF0E949024C4
:104D0000B0E2BA95F1F75A98529AE0E1EA95F1F7D4
:104D10008AE08C9FF0018D9FF00D1124EB5FFE4F18
:104D20006281662351F020915801309159018381AD
:104D30009481820F931F0E941E250E9498248AE06E
:104D40008C9FF0018D9FF00D1124EB5FFE4F0190C1
:104D5000F081E02D1082789490E080E0C8CF84E06C
:104D600090E0C5CF90937301809372010895909362
:104D7000AC028093AB0208950E94ED16811103C02E
:104D80008091A6020895E091AB02F091AC023097B9
:104D900021F00190F081E02D099480E008950E94B7
:104DA000BC260895E091AB02F091AC02309721F05F
:104DB0000280F381E02D09940895E091AB02F09117
:104DC000AC02309739F022E0DC012C930480F581AD
:104DD000E02D099408952091A9023091AA02281784
:104DE000390771F09093AA028093A902E091AB0277
:104DF000F091AC02309721F00680F781E02D099404
:104E000008952091A7023091A8022817390771F060
:104E10009093A8028093A702E091AB02F091AC02BC
:104E2000309721F00084F185E02D099408959C01CC
:104E30002E5F3F4FAC01485F5F4F80E0241735077E
:104E400009F40895F90191919F019923B9F38F5FB6
:104E5000F5CF662349F0FC0132960896219126177A
:104E600029F0E817F907D1F780E0089581E0089567
:104E70009C01FC0132969FEF80E04191461751F072
:104E80009F3F19F4411101C0982F8F5F8630A9F719
:104E90009F3F09F40895290F311D97FD3A95F901B7
:104EA00062830895FC01329608962191261303C06F
:104EB000DF0111971C92E817F907B9F708950C94D0
:104EC00038270C945227029626E0FC0111922A956D
:104ED000E9F7089508950C946A27811105C081E0CF
:104EE0008093AD020C946B2782E0FACF83E080932D
:104EF000AD020C946B270C946D2781E08093AD027A
:104F00000C946B270C947D2708958091D2048430F3
:104F100031F10E94F3081092AE0288E190E020E4A3
:104F20000FB6F894A895809360000FBE20936000A0
:104F300083B7817F846083BF83B7816083BF7894A8
:104F4000889583B78E7F83BF0FB6F894A89580911C
:104F50006000886180936000109260000FBE089529
:104F600008950895CF930E94B0270E942E070E94B3
:104F7000B127C0E08C2F0E945B06811105C0CF5F76
:104F8000C431C1F7CF91089581E0FCCF0E94CF0DCD
:104F90000C9463091F921FB61F9211248F939F9345
:104FA000AF93BF938091AE02811113C08091CA0468
:104FB0009091CB04A091CC04B091CD044196A11D59
:104FC000B11D8093CA049093CB04A093CC04B093FA
:104FD000CD04BF91AF919F918F911F901FBE1F90E5
:104FE000189582E084BD93E095BD9AEF97BD8093BC
:104FF0006E0008952FB7F8948091CA049091CB0465
:10500000A091CC04B091CD042FBF08952FB7F89490
:105010006091CA047091CB048091CC049091CD042E
:105020002FBF08959C014FB7F8948091CA049091C6
:10503000CB04A091CC04B091CD044FBF821B930B45
:105040000895CF92DF92EF92FF922FB7F894C0901D
:10505000CA04D090CB04E090CC04F090CD042FBFD4
:10506000A7019601261B370B480B590BCA01B90142
:10507000FF90EF90DF90CF90089578941F921FB625
:105080001F9211248F939F93AF93BF938091CA0473
:105090009091CB04A091CC04B091CD040196A11DB8
:1050A000B11D8093CA049093CB04A093CC04B09319
:1050B000CD04BF91AF919F918F911F901FBE1F9004
:1050C000189587E797E7909301088093000888E197
:1050D0009AE00FB6F894A895809360000FBE909365
:1050E0006000FFCF8091B7020895089508959C0154
:1050F00084E08093E9009FEF8091E800915085FD66
:1051000006C085ED8A95F1F700009111F5CF8091E9
:10511000E80085FF0CC050E040E066E070E0C901A7
:105120000E94D72A8091E8008E778093E800089546
:10513000CF93DF93EC0181E08093E9008FEF9091B2
:10514000E800815095FD06C095ED9A95F1F70000B5
:105150008111F5CF8091E80085FF14C050E040E058
:1051600068E070E0CE010E94D72A8091E8008E7737
:105170008093E80088E0FE01AFEAB2E001900D9272
:105180008A95E1F7DF91CF9108950895CF93FC01BF
:10519000603221F58091D204843001F5C091E9009C
:1051A000CF702091EC00922F917020FD90E8C92BD8
:1051B00082E08093E9008091E80080FF0CC050E01D
:1051C00040E060E270E0CF010E94D72A8091E800C1
:1051D0008E778093E800CF70C093E900CF91089557
:1051E0008091D104811109C00E94B62C0E94132D18
:1051F0008091E20084608093E20008951092D104CF
:1052000008950C947D276091CE0481E0611101C066
:1052100080E00C9476279091D20481E0943009F0DC
:1052200080E06091CE040C947B2742E061EC81E049
:105230000E94322C42E261EC84E00E94322C42E275
:1052400061EC82E00E94322C42E260EC83E00E943A
:10525000322C9091D20481E0943009F080E060918A
:10526000CE040C946D278091D404833009F462C07D
:1052700030F48130D9F1823009F49EC008958A302B
:1052800009F48AC08B3009F470C0893009F051C02C
:105290008091D304813209F04CC08091D704909161
:1052A000D804009719F0029709F043C08091E800F4
:1052B000877F8093E8008091E80082FF36C090915C
:1052C000F3008091F200029731F48091F100813077
:1052D00011F0863021F48091F1008093B702809123
:1052E000E8008B778093E8000C94662C8091D304BF
:1052F000813AF9F48091E800877F8093E8008091FB
:10530000D7049091D804892B61F468E08FEA92E089
:1053100070E00E94752B8091E8008B778093E80005
:10532000089560E090E080E0F3CF8091D204811195
:10533000C2CF08958091D304813AD9F78091D704E0
:105340009091D804892BA9F78091E800877F8093FA
:10535000E8008091E80080FFFCCF80913E018093BF
:10536000F1008091E8008E77BDCF8091D304813227
:1053700001F78091D7049091D804892BD1F68091C0
:10538000E800877F8093E8000E94662C8091D50416
:1053900080933E010C94CF0D8091D304813249F665
:1053A0008091E800877F8093E8000E94662C8091BE
:1053B000D6048093B80208958091D304813A09F00D
:1053C000B8CF8091E800877F8093E8008091E80063
:1053D00080FFFCCF8091B802C2CF84B7877F84BFA3
:1053E0000FB6F894A8958091600088618093600062
:1053F000109260000FBE80E890E00FB6F8948093A2
:105400006100909361000FBE0C9482270E94B62C1D
:105410000E94132DE2EEF0E0808184608083789416
:105420000C949C2F82E391E00C94B7268091D204D7
:105430008530A9F48091D204853011F00C94C627F0
:105440000E9485278091D0048823A1F30E94B2276F
:10545000882381F30E94C12A0E94CF0DEBCF0895CB
:10546000CF93DF93CDB7DEB7A0970FB6F894DEBF2A
:105470000FBECDBF8091D204843009F583E08093C4
:10548000E9008091E80082FF1AC08091E80090E076
:1054900085FF09C050E040E060E270E0CE01019677
:1054A0000E94262B91E08091E8008B778093E800A2
:1054B000992329F060E2CE0101960E941D1CA0965E
:1054C0000FB6F894DEBF0FBECDBFDF91CF91089528
:1054D0000C946A2A292F33272330310521F168F4EF
:1054E0002130310509F443C02230310509F444C0AC
:1054F00090E080E030E020E026C02132310551F11B
:1055000022323105A9F76330710590F7FB01EE0FE8
:10551000FF1FEB59FE4F208131816E597E4FFB01F9
:10552000808190E010C099278130910581F000972B
:1055300029F00297E9F6E1E8FAE002C0EFE9FAE0C3
:10554000849190E09F01FA01318320830895E7E977
:10555000FAE0F6CF6330710558F6660F771FFB014E
:10556000E559FE4F2081318189E090E0ECCF82E166
:1055700090E02EEF3AE0E7CF8BE590E023EA3AE0C7
:10558000E2CF80E189BD82E189BD09B400FEFDCF93
:105590008091D8008F7D8093D8008091E000826058
:1055A0008093E0008091E00081FDFCCF0895AF92F0
:1055B000BF92CF92DF92FF920F931F93CF93DF930F
:1055C0006C01EB018A010E94852CF82E811123C009
:1055D0000115110539F0F80180819181C81BD90BA3
:1055E000C80ED91EB12CA12C2097A9F08091E800FB
:1055F00085FD22C08091E8008E778093E800011538
:105600001105A1F0F80180819181A80EB91EB18227
:10561000A08285E0F82E8F2DDF91CF911F910F9101
:10562000FF90DF90CF90BF90AF9008950E94852C9F
:105630008823D1F2F82EEFCFF60181916F0180938C
:10564000F1002197FFEFAF1ABF0ACECFAF92BF9202
:10565000CF92DF92FF920F931F93CF93DF936C0152
:10566000EB018A010E94852CF82E811123C00115BF
:10567000110539F0F80180819181C81BD90BC80E42
:10568000D91EB12CA12C2097A9F08091E80085FDAE
:1056900022C08091E8008B778093E8000115110506
:1056A000A1F0F80180819181A80EB91EB182A0827B
:1056B00085E0F82E8F2DDF91CF911F910F91FF90F4
:1056C000DF90CF90BF90AF9008950E94852C8823E3
:1056D000D1F2F82EEFCF8091F100F60181936F01A6
:1056E0002197FFEFAF1ABF0ACECFFC018091D904FA
:1056F0009091DA0486179707A0F06115710529F4D7
:105700009091E8009E779093E80090E06115710514
:1057100051F4911108C08091E80082FF34C080E00C
:105720000895BC01F2CF8091D2048823C1F1853065
:10573000C1F18091E80083FD30C08091E80082FDD6
:10574000EACF8091E80080FFE1CF8091F3002091C3
:10575000F200382F6115710519F02830310558F025
:1057600091E02830310509F090E02091E8002E7793
:105770002093E800CBCF81918093F10061507109B3
:105780002F5F3F4FE7CF8091D204882341F08530CF
:1057900041F08091E80083FFBECF81E0089582E070
:1057A000089583E00895FC018091D9049091DA0472
:1057B00086179707A0F06115710529F48091E8001C
:1057C0008E778093E80090E06115710551F4911196
:1057D00008C08091E80082FF35C080E00895BC01D8
:1057E000F2CF8091D2048823C9F18530C9F180912C
:1057F000E80083FD31C08091E80082FDEACF80910E
:10580000E80080FFE1CF8091F3002091F200382F73
:105810006115710519F02830310558F091E02830F4
:10582000310509F090E08091E8008E778093E800E0
:10583000CBCF84918093F1003196615071092F5F35
:105840003F4FE6CF8091D204882341F0853041F06C
:105850008091E80083FFBDCF81E0089582E0089544
:1058600083E00895982F973028F08F708093E90097
:1058700081E008959093E900242F762F50E0981747
:1058800031F07091EC002091ED005091F00021FD7D
:1058900002C09F5FE8CF3091EB003E7F3093EB007A
:1058A0003091ED003D7F3093ED003091EB003160A1
:1058B0003093EB007093EC002093ED005093F000D8
:1058C0002091EE0027FDE5CF80E008958091D3047C
:1058D00087FF13C08091E80082FF06C08091E80036
:1058E0008B778093E80004C08091D2048111F2CFBD
:1058F00008958091D2048823D9F38091E80080FF35
:10590000F8CF8091E8008E77ECCF2091E4003091C1
:10591000E50095E6A9012091EC00822F817020FF1F
:1059200006C08091E80080FF06C080E008952091C5
:10593000E80022FD1AC08091D204882389F08530C6
:1059400089F08091EB0085FD0FC02091E40030913B
:10595000E50042175307F9F29150E1F684E008950B
:1059600082E0089583E0089581E008950E94242D47
:105970000E942C2DE0EEF0E0808181608083E8EDD4
:10598000F0E080818F77808319BCA7EDB0E08C9127
:105990008E7F8C9380818F7E80831092D1040895B6
:1059A0000F931F93CF93DF930E94242D0E942C2DE1
:1059B000C8EDD0E088818F7788838881806888836C
:1059C00088818F7D888319BC1092D2041092CE04F6
:1059D0001092D0041092CF0400EE10E0F801808104
:1059E0008B7F808388818160888342E060E080E0F3
:1059F0000E94322CE1EEF0E080818E7F8083E2EE27
:105A0000F0E0808181608083808188608083F801FC
:105A100080818E7F8083888180618883DF91CF91B0
:105A20001F910F910895E8EDF0E080818F7E8083D3
:105A3000E7EDF0E080818160808384E082BF81E0D7
:105A40008093D1040C94D02CE8EDF0E080818E7F1F
:105A500080831092E20008951092DA001092E10023
:105A600008951F920F920FB60F9211242F933F9318
:105A70004F935F936F937F938F939F93AF93BF9356
:105A8000EF93FF938091E10082FF0BC08091E200D1
:105A900082FF07C08091E1008B7F8093E1000E942C
:105AA0009B2F8091DA0080FF19C08091D80080FF81
:105AB00015C08091DA008E7F8093DA008091D90042
:105AC00080FF96C080E189BD82E189BD09B400FEF6
:105AD000FDCF81E08093D2040E94F0288091E10004
